:020000040800F2
:10000000A0070020C10100089D200008751B000802
:1000100099200008BD0A0008FD2C0008000000001F
:1000200000000000000000000000000001250008A2
:10003000DD1900080000000083210008792600086F
:10004000DB010008DB010008DB010008DB01000820
:10005000DB010008DB010008DB010008DB01000810
:10006000DB010008DB010008DB010008DB01000800
:10007000DB010008DB010008DB010008DB010008F0
:10008000DB010008DB010008DB010008DB010008E0
:10009000A90B0008DB010008DB010008DB010008F8
:1000A000DB010008DB010008DB010008DB010008C0
:1000B000DB010008DB010008DB010008DB010008B0
:1000C000DB010008DB010008DB010008DB010008A0
:1000D000DB010008E12900085D2B0008DB010008B6
:1000E000DB010008DB010008DB010008DB01000880
:1000F000DB010008DB010008DB010008DB01000870
:10010000DB010008DB010008DB010008DB0100085F
:10011000DB010008DB01000835270008AD280008D6
:10012000DB010008DB010008DB010008DB0100083F
:10013000DB010008DB010008DB010008DB0100082F
:10014000DB010008DB010008DB010008DB0100081F
:10015000DB010008DB010008DB010008DB0100080F
:10016000DB010008DB010008DB010008DB010008FF
:10017000DB010008DB010008DB010008DB010008EF
:10018000DB010008DB010008DB010008DB010008DF
:10019000DB010008DB010008DB010008DB010008CF
:1001A0000000000000000000DB010008DFF80CD0B8
:1001B00000F0C4FA00480047B5400008A00700203E
:1001C0000648804706480047FEE7FEE7FEE7FEE7F1
:1001D000FEE7FEE7FEE7FEE7FEE7FEE77D26000816
:1001E000AD0100082DE9FE4F804681EA0300C00FF3
:1001F0000C46009021F0004123F00045B8EB0200CE
:10020000A94105D24046214690461C460B4602466F
:1002100023F00040104347D0270DC7F30A00C3F373
:100220000A510290401A019040286BDAC3F3130080
:1002300040F4801B0098924620B10023D2EB030AC1
:1002400063EB0B0B01985946C0F14002504600F099
:100250009FF806460D4650465946019A00F0A7F809
:1002600010EB08006141002487EA115284EAE77329
:100270001A4340D0009A62B3019A012A4FEA07520A
:1002800015DC001B61EB02014FF0004202EA07524D
:10029000CDE90042001C41F5801132462B4600F0AA
:1002A000DEF803B0BDE8F08F40462146F9E7001BB9
:1002B00061EB0201001C41F5801300185B4120181E
:1002C000A2F5001747EB030140EAD570B6196D415E
:1002D00011E06D084FEA360645EAC0754FEA07524D
:1002E000001B61EB0201001C41F5801149084FEA37
:1002F00030000019514132462B4603B0BDE8F04FA3
:1003000000F09EB80098012240000023D0EB0202CA
:1003100063EBE073009821464FEAE074B8EB00000D
:1003200061EB0401E9E783F000435BE781F0004102
:1003300058E700F0004230F000400AD0C10D01F54E
:100340006071C0F3160042EA0151C2084007114330
:10035000704700200146704701F0004330B421F09F
:10036000004150EA010206D00A0DA2F56072C1F305
:100370001301002A02DC30BC00207047440F44EA1D
:10038000C104C100E01830BC00EBC25000F021B83D
:10039000202A04DB203A00FA02F100207047914045
:1003A000C2F1200320FA03F3194390407047202A3A
:1003B00006DBCB17203A41FA02F043EAE07306E08D
:1003C00041FA02F3D040C2F120029140084319469D
:1003D00070470029A8BF7047401C490008BF20F0A3
:1003E0000100704710B4B0FA80FC00FA0CF050EA3B
:1003F000010404BF10BC704749B1CCF1200421FABC
:1004000004F411FA0CF118BF012121430843A3EBB6
:100410000C01CB1D4FEA00614FEA102042BF0020C3
:1004200010BC704700EBC35010440029A4BF10BC9F
:100430007047401C490008BF20F0010010BC704705
:1004400010B5141E73F1000408DA401C41F10001DC
:1004500092185B411A4301D120F0010010BD2DE933
:10046000F04D92469B4611B1B1FA81F202E0B0FA2A
:1004700080F220329046FFF78BFF04460F4640EA99
:100480000A0041EA0B0153465A46084313D011466D
:1004900053EA010019D0C8F14002504600F060F95B
:1004A00005460E46504659464246FFF771FF08433F
:1004B00005D0012004E020463946BDE8F08D00203B
:1004C000054346EAE0762C4337430A986305E40A7D
:1004D000A0EB08000022FD0A44EA47540A3002D586
:1004E00000200146E9E7010510196941DDE90845E9
:1004F00000196941BDE8F04DA2E72DE9FE4F81EA00
:10050000030404F0004421F0004100944FF0000B7C
:1005100023F0004350EA01045ED052EA03045BD0AA
:10052000C3F30A54C1F30A552C44A4F2F3340194E2
:10053000A0FB0254C1F3130141F48011C3F3130370
:1005400043F4801301FB024400FB034E840A970A24
:1005500044EA815447EA8357A4FB076802958D0A51
:1005600005FB07854FEA932C04FB0C542705029DDD
:100570004FEA065847EA1637B5EB08056EEB070C4D
:10058000870E920E47EA811742EA8312A7FB020107
:10059000B6EB0B0164EB00042B0D43EA0C335E1841
:1005A00044EB1C50DA465146E7FB0201C5F3130445
:1005B0004FEA0B3343EA14534FEA0432019C43EAF7
:1005C0000603A4F10C040294009CCDE900B4FFF7EB
:1005D00046FF03B0BDE8F08F00200146F9E72DE9A2
:1005E000F04D81EA030404F0004B21F0004514466D
:1005F0004FF0000A23F0004150EA050220D054EAEF
:1006000001021DD0C5F30A570246C5F31303C1F317
:100610001300C1F30A5640F4801543F48013A7EB8E
:100620000608101BD64608F2FD3873EB050002D30E
:1006300008F1010801E092185B41B8F1000F03DAFC
:1006400000200146BDE8F08D00204FF480110646E1
:1006500084460EE0171B73EB050705D3121B63EBF3
:10066000050306434CEA010C49084FEA3000921892
:100670005B4150EA0107EDD152EA030012D082EA51
:10068000040083EA0501084305D0101BAB4106D2E4
:100690000122002306E000224FF0004302E06FF049
:1006A000010253101AEB06004CEB085110EB0A0044
:1006B00041EB0B01BDE8F04DFFF7C2BE70B521F074
:1006C000004303430CD0C1F30A550024D5EB0405C5
:1006D00064EB0403D617AD1AB34102DB00200146D8
:1006E00070BD201841EB025170BD0EB5C10F80EAFC
:1006F000E0700844CA07002140F233438DE80E0041
:100700000A460B46FFF7ABFE03B000BD30B5041E32
:1007100071F1000404DB4FF00044404264EB01013E
:10072000141E73F1000405DB1C464FF000435242D7
:1007300063EB0403994208BF904230BD064C074D5D
:1007400006E0E06840F0010394E8070098471034A1
:10075000AC42F6D3FFF72EFD88420008A8420008FD
:10076000202A04DB203A21FA02F00021704721FA06
:1007700002F3D040C2F1200291400843194670476D
:100780002DE9F04D00231A461B1A8A4103DB002095
:100790000146BDE8F08DC1F30A52C1F3130141F4E3
:1007A00080154FF0000BD10702D100186D41521E89
:1007B0000027044640F2FF11384601EB620A3E462C
:1007C0008046024600204FF48011FFF7C9FFC2198E
:1007D0007141BB1846EB0100B4EB030C75EB000C48
:1007E00004D3E41A65EB000517460E46241908F1F8
:1007F00001006D4180463428E3DDF91946EB06001F
:10080000091BA84103D24FF0FF32134601E000223A
:1008100013461BEB070046EB0A51BDE8F04DFFF70E
:100820000FBE00000FB400B50198A0F20120072808
:100830002CD2DFE800F0042C5986B3DEFD009DF8D1
:1008400010009DF80F1040EA012000B2984908807E
:100850009DF812109DF8110041EA002000B2944961
:1008600048809DF814109DF8130041EA002000B262
:100870008F4988809DF81500C880012081F84600C6
:100880000846B0F84800401CA1F848000CE19DF86B
:1008900010009DF80F1040EA012000B28449A1F831
:1008A0004C009DF812109DF8110041EA002001B2A1
:1008B0007F48A0F84E109DF814109DF8130041EAEF
:1008C000002001B27A48A0F850109DF81510A0F849
:1008D0005210012180F89210B0F89400401C81B2AF
:1008E0007348A0F89410DFE09DF810009DF80F10F9
:1008F00040EA012000B26E49A1F898009DF812105C
:100900009DF8110041EA002001B26948A0F89A1050
:100910009DF814109DF8130041EA002001B26448CC
:10092000A0F89C109DF81510A0F89E10012180F8E9
:10093000DE10B0F8E000401C81B25D48A0F8E01085
:10094000B2E09DF810009DF80F1040EA012000B2BF
:100950005749A1F8E4009DF812109DF8110041EAF2
:10096000002001B25248A0F8E6109DF814109DF83E
:10097000130041EA002001B24D48A0F8E8109DF8AC
:100980001510A0F8EA10012180F82A11B0F82C0106
:10099000401C81B24648A0F82C1185E09DF810005B
:1009A0009DF80F1040EA012000B2424908809DF8EE
:1009B00012109DF8110041EA002000B23D49488024
:1009C0009DF814109DF8130041EA002000B2394947
:1009D0008880002001F00CFA3648B0F90000354953
:1009E000B1F864104FF4005212FB0100314908665F
:1009F0005AE09DF810009DF80F1040EA012000B267
:100A00002C49A1F874009DF812109DF8110041EADC
:100A1000002001B22748A0F876109DF814109DF828
:100A2000130041EA002001B22248A0F8781000E04B
:100A30000FE0012001F0DCF91E48B0F97410B0F8A5
:100A4000D8004FF4005212FB00111A48C0F8D4101D
:100A50002AE09DF810009DF80F1040EA012000B236
:100A6000154908809DF812109DF8110041EA0020F8
:100A700000B2114948809DF814109DF8130041EA16
:100A8000002000B20C498880002001F065F90A4876
:100A9000B0F900000849B1F864104FF4005212FB9D
:100AA00001000549086600BF00BF5DF814FB0000A7
:100AB00044000020740100205C02002000BFFEE71B
:100AC00000B589B00121082001F0E4FB01214806AE
:100AD00001F0F0FB02208DF820008DF821000020AD
:100AE0008DF823008DF822000220079007A92C48DA
:100AF00000F0C5FF0120079007A9294800F0BFFFBB
:100B000009220121264801F002F809220021244887
:100B100000F0FDFF00208DF8160001208DF8170071
:100B20008DF8180000208DF819008DF81A008DF846
:100B30001B008DF812008DF8130002208DF81400B0
:100B400004208DF815000520ADF8100004A9154803
:100B500000F0B5F900208DF80A008DF80B00012097
:100B60008DF80C000020ADF8080001208DF80D0074
:100B70000020ADF80000ADF80200ADF80400ADF8BB
:100B80000600684600F07EF801221146142001F0AC
:100B900086FA01220221034800F088F909B000BD5D
:100BA000000C02400064004000B587B002210A48F2
:100BB00000F0ECF870B102AA0021074800F009FA31
:100BC0000698009002A80FC8FFF72CFE02210248E9
:100BD00000F004F807B000BD00640040B1F5007FEC
:100BE0003AD00FDC202928D006DC01291CD00429AA
:100BF0001DD0082940D11DE0402921D0B1F5807FCA
:100C00003AD126E0B1F5004F31D006DCB1F5806F66
:100C100025D0B1F5006F2FD124E0B1F5803F12D07F
:100C2000B1F5003F28D111E0154A826025E0082285
:100C3000C26022E01022C2601FE0082202611CE0B4
:100C40001022026119E00822426016E01022426080
:100C500013E00422426010E0042242600DE004220E
:100C600042600AE0002282610422426005E0002224
:100C700082610422426000E000BF00BF70470000B4
:100C80000101010010B50021837A012202FA03F16B
:100C90003D4A126842F001023B4B1A603A4A1C324C
:100CA00012688A43384B1C331A60027BCAB9364A31
:100CB0000C3212688A43344B0C331A604288C38862
:100CC00042EA0343304A4032847A42F834300288A0
:100CD000838842EA03432C4A4032847A02EBC402FE
:100CE0005360027B012A19D1274A0C3212680A4349
:100CF000254B0C331A604288038842EA0343224A98
:100D00004032847A42F83430C288838842EA03430E
:100D10001D4A4032847A02EBC4025360C27A3AB967
:100D2000194A121D12688A43174B1B1D1A6006E0F0
:100D3000154A121D12680A43134B1B1D1A600289C3
:100D400032B9114A143212688A430F4B14331A60B5
:100D50000289012A06D10C4A143212680A430A4B4E
:100D600014331A60427B012A06D1074A1C321268EA
:100D70000A43054B1C331A60034A126822F0010231
:100D8000014B1A6010BD00000066004070B50446BB
:100D90000D46002660692840002871D0B5F5807F97
:100DA0005CD010DC082D35D006DC012D20D0022DC2
:100DB00024D0042D72D127E0102D31D0202D35D034
:100DC000402D6BD138E0B5F5004F60D009DCB5F5AA
:100DD000007F49D0B5F5806F4CD0B5F5006F5DD17F
:100DE0004FE0B5F5803F2DD0B5F5003F56D12FE04F
:100DF000A0682D4900F0DCFB064651E0E0680321C5
:100E000000F0D6FB06464BE0E068082100F0D0FB7E
:100E1000064645E0E068102100F0CAFB06463FE0C8
:100E20002069032100F0C4FB064639E0206908214F
:100E300000F0BEFB064633E02069102100F0B8FB4D
:100E400006462DE06068082100F0B2FB064627E068
:100E50006068102100F0ACFB064621E0A06901218A
:100E600000F0A6FB06461BE0A069022100F0A0FBF3
:100E7000064615E0A069042100F09AFB06460FE043
:100E80000FE0A069702100F093FB064608E060685F
:100E9000042100F08DFB064602E0FFE7002600BFBC
:100EA00000E00026304670BD010101001AB143691F
:100EB0000B43436102E043698B434361704730B5A4
:100EC000024600200023146824F002041460146811
:100ED00044F00104146000E05B1C546804F0010459
:100EE0001CB94FF6FF74A342F6D1546804F0010414
:100EF0000CB900206CE08C79012C04D1146844F00A
:100F00008004146003E0146824F080041460CC7939
:100F1000012C04D1146844F04004146003E0146808
:100F200024F0400414600C7A012C04D1146844F0BD
:100F30002004146003E0146824F0200414604C7A48
:100F4000012C04D1146844F01004146003E0146808
:100F500024F0100414608C7A012C04D1146844F03D
:100F60000804146003E0146824F008041460CC7AC8
:100F7000012C04D1146844F00404146003E01468E4
:100F800024F0040414608C78A407CD7844EA056446
:100F90000D7944EA05444D7944EA05540D886D1EE7
:100FA0002C43D461146824F001041460002300E091
:100FB0005B1C546804F001041CB14FF6FF74A3429B
:100FC000F6D1546804F001040CB1002000E00120C7
:100FD00030BD10B500F5D87303EB01131B6803F0A7
:100FE00004031372137A53B900F5D87303EB01139A
:100FF0001B6840F2FF7404EA5353136009E000F5E4
:10100000D87303EB01131B686FF0604404EAD30349
:10101000536000F5D87303EB01131B6803F0020360
:10102000537200F5D87303EB01135B6803F00F03F1
:10103000937200F5D87303EB01135B681B0AD3743A
:1010400000F5D87303EB01139B68D37200F5D873D6
:1010500003EB01139B681C0A147300F5D87303EBB0
:1010600001139B681C0C547300F5D87303EB011338
:101070009B681B0E937300F5D87303EB0113DB68B9
:10108000D37300F5D87303EB0113DB681C0A1474E7
:1010900000F5D87303EB0113DB681C0C547400F5E6
:1010A000D87303EB0113DB681B0E937421B9C3687B
:1010B00043F02003C36003E0036943F020030361AE
:1010C00010BDF0B585B007460C4615461E460CB956
:1010D000009500E001958DF8084000208DF809008A
:1010E00008208DF80A00002005E0325C0DF10B01AC
:1010F0000A54411CC8B20828F7DB6946384600F09C
:1011000002F805B0F0BD10B502460020936803F068
:101110008063B3F1806F00D110E0936803F0006347
:10112000B3F1006F01D1012008E0936803F0805310
:10113000B3F1805F01D1022000E00420042874D0C4
:1011400002F5C07303EB00131B6803F0010402F502
:10115000C07303EB00131C600B7A7BB94B7A0C88CD
:1011600043EA445302F5C07404EB0014246823439B
:1011700002F5C07404EB0014236010E00B7A4C6895
:1011800043EAC4034C7A234302F5C07404EB001411
:101190002468234302F5C07404EB001423608B7AA7
:1011A00003F00F038B7202F5C07303EB00135B684F
:1011B00023F00F0402F5C07303EB00135C6002F52B
:1011C000C07303EB00135B688C7A234302F5C07491
:1011D00004EB001463608B7B1C064B7B44EA0344E6
:1011E0000B7B44EA0323CC7A234302F5C07404EB5F
:1011F0000014A3608B7C1C064B7C44EA03440B7CEC
:1012000044EA0323CC7B234302F5C07404EB0014AF
:10121000E36002F5C07303EB00131B6843F00104A5
:1012200002F5C07303EB00131C6010BD2DE9FC41F7
:1012300007460C4615461E46380A8DF80000F8B2DF
:101240008DF80100200A8DF80200E0B28DF803004D
:10125000280A8DF80400E8B28DF80500300A8DF8F0
:101260000600F0B28DF807006B464FF400720021C3
:101270000248FFF726FFBDE8FC8100000064004043
:1012800010B59FED250A254880ED010A012023496C
:1012900048704FF47A72D1009FED211AF2EE050AE0
:1012A000B0EE040A1F4800F0EFFC4FF47A72D10050
:1012B0009FED1B1AF2EE050AB0EE040A19484C30F5
:1012C00000F0E2FC4FF47A72D1009FED151AF2EEB5
:1012D000050AB0EE040A1348983000F0D5FC4FF42C
:1012E0007A72D1009FED0E1AF2EE050AB0EE040AF2
:1012F0000C48E43000F0C8FC4FF4FA7241F294114B
:10130000B2EE0B1ADFED060A9FED070A0348143010
:1013100000F0A0FF10BD00000AD7233DD40200203A
:10132000000000004C0000206666464031B52DEDFF
:10133000040B2DED028B05469FED950AB0EE408A19
:10134000022D09D100231A4619461846FFF76EFFF1
:10135000BDEC028B05B030BD9DED020A8D4880EDDD
:10136000020A9DED030A80ED030A9DED040A80ED5B
:10137000040AD0ED010AB0EE600A00F1080102A8EB
:1013800000F070FB8348D0ED010AB0EE600A00F176
:101390000C0103A800F066FB7E48D0ED010AB0EE18
:1013A000600A00F1100104A800F05CFB7948407865
:1013B000022878D19FED760A764880ED100A7648AB
:1013C00090ED180AB8EEC00ADFED740A30EE600A3C
:1013D000B5EEC00AF1EE10FA08DD90ED180AB8EE8D
:1013E000C00ADFED6E0A30EE600A0AE06A4890ED4E
:1013F000180AB8EEC00ADFED690A30EE600AB1EEF5
:10140000400ADFED670AB4EEE00AF1EE10FA24DCE0
:101410009DED030AB5EEC00AF1EE10FA02DD9DED76
:10142000030A03E09DED030AB1EE400ADDED020A76
:10143000F5EEC00AF1EE10FA02DDDDED020A03E07E
:10144000DDED020AF1EE600A30EE200AF3EE040A46
:10145000B4EEE00AF1EE10FA13DD4F4890ED180AF1
:10146000B8EEC00AF0EE400A9FED4C0A494814302D
:1014700000F088FE00EE100AB8EEC00A454880ED84
:10148000100A9FED480A43494431081F00F0EAFA68
:10149000404890ED040AD0ED110A30EE200AB0EE7B
:1014A000408A05E0FFE73B4890ED040AB0EE408A31
:1014B000384890ED031AF0EE410A90ED021AB0EEB2
:1014C000410A3948B0EE481A00F0F2FC002450E01E
:1014D00004EB440000EB0410344901EB800090F869
:1014E0004600012844D1304830F8140004EB440190
:1014F00001EB04112D4A02EB8101A1F8400004EB3D
:10150000440101EB041102EB8101B1F9021001EE7B
:10151000101AB8EEC11AF0EE410A04EB440101EBD7
:10152000041102EB8101B1F9401001EE101AB8EE7E
:10153000C11AB0EE410A04EB440101EB041102EBC5
:10154000810101F1080000F017FB00B204EB440137
:1015500001EB0411154A02EB8101A1F844000020BF
:1015600004EB440101EB041102EB810181F8460018
:10157000641C042CACDB0D4CB4F92831B4F9DC202C
:10158000B4F99010B4F94400FFF750FE00BFDFE655
:1015900000000000D40200207401002000C0734548
:1015A00000802A44CDCCCC3D000000204400002027
:1015B0000246002002EA01030BB1012000E00020F6
:1015C000704721B1026842F00102026003E0026844
:1015D00022F0010202607047016821F00101016000
:1015E0000021016041608160C16001612121416190
:1015F0004A49884204D13D21484A103A91608CE022
:1016000046491831884205D14FF47461434A103A73
:10161000916082E041493031884205D14FF4741124
:101620003E4A103A916078E03C494831884205D101
:101630004FF07461394A103A91606EE03749603179
:10164000884204D13649354A103AD16065E03349C1
:101650007831884204D13349304A103AD1605CE095
:101660002E499031884204D12F492C4A103AD1603A
:1016700053E02A49A831884205D14FF03D51274A0D
:10168000103AD16049E02949884204D13D21274AD6
:10169000083A116041E025491831884205D14FF4DC
:1016A0007461224A083A116037E02049303188429B
:1016B00005D14FF474111D4A083A11602DE01B4901
:1016C0004831884205D14FF07461184A083A1160D8
:1016D00023E016496031884204D11149134A121F90
:1016E00011601AE011497831884204D10D490F4A3E
:1016F000121F116011E00D499031884204D10A494E
:101700000A4A121F116008E00849A831884204D132
:101710004FF03D51054A121F1160704710600240A2
:101720003D000020400F002000003D2010640240DA
:10173000014600200A6802F001020AB1012000E01F
:10174000002070470146486880B2704710B50022FB
:101750000268134B1A40CC680B6823434C6923433F
:101760008C692343CC6923430C6A23434C6A23438B
:101770008C6A23434C6B23438C6B23431A430260D4
:10178000426922F00702D1E90B3423431A43426134
:101790000B6943604B6883608B68C36010BD0000B9
:1017A0003F801CF04160704710B5044801F03EF9DD
:1017B0001621034801F08CF910BD0000A08601003D
:1017C0002003002008800022CA808A804A880B8873
:1017D0009A4209D00A8812B10A88CA8004E04A886D
:1017E0008A8000220A814A810A884AB14A89521CA9
:1017F0004A814A89322A03DD0A880A8100224A8105
:101800000A884A807047000010B5044604B910BD2C
:101810002078617840EA0120C0F30A005F4908801F
:101820006078C010A17840EA4110C0F30A005B491B
:101830004880A0788011E17840EA8100217940EA6F
:101840008120C0F30A0055498880207940106179D1
:1018500040EAC110C0F30A005049C8806079001105
:10186000800808726079C0F301104872A079E179AC
:1018700040EA012000B249494881207A617A40EA71
:10188000012001B245488181A07AE17A40EA012035
:1018900001B24248C181217B0174617B4174A07B0C
:1018A000E17B40EA01203D49488208460088A0F5D6
:1018B000806000B2088008464088A0F5806000B2D1
:1018C000488008468088A0F5806000B2888008467D
:1018D000C088A0F5806000B2C880B1F9000000F0B7
:1018E0006BF800B22D490880B1F9020000F064F8ED
:1018F00000B22A494880B1F9040000F05DF800B256
:1019000026498880B1F9060000F056F800B2234954
:10191000C8800846B0F9040001EE100AB8EEC11AFA
:10192000F0EE410A0846B0F90600404201EE100A06
:10193000B8EEC11AB0EE410A194800F04FFD174841
:10194000B0F9020001EE100AB8EEC11AF0EE410A39
:101950001248B0F9000001EE100AB8EEC11AB0EE5C
:10196000410A104800F03AFD0C49087C0E49FFF787
:1019700029FF0A49487A0D49FFF724FF0749488A99
:101980000B49FFF71FFF0548808A401C03498882E6
:101990000846407A0749087000BF38E73603002040
:1019A00050030020640300208403002090030020E3
:1019B00078030020D402002010B5044600EE104A3F
:1019C000B8EEC00A02F02EFBF3EE040AB4EEE00A11
:1019D000F1EE10FA00D20024204610BD704700003E
:1019E0001E48808A052803DA01201C49887502E018
:1019F00000201A49887500201849888200BF2AE013
:101A000000EB400101EB0011154A02EB8101B1F836
:101A1000481005290ADA012100EB400202EB00120E
:101A20000F4B03EB820282F84A1009E0002100EB21
:101A3000400202EB00120A4B03EB820282F84A10CA
:101A4000002100EB400202EB0012054B03EB820287
:101A5000A2F84810401C0428D2DB7047360300204F
:101A600044000020D0ED000A91ED001A30EEC11ABA
:101A7000D1ED000A40EE010AC1ED000A7047F0B551
:101A80000A4600210023002400BF3DE0012505FA9D
:101A900001F3156805EA03049C4234D105684F0040
:101AA0000326BE40B543056015794E00B540066873
:101AB000354305601579012D02D01579022D16D117
:101AC00085684F000326BE40B543856055794E00BA
:101AD000B540866835438560456801268E40B5432C
:101AE0004560456896798E40B6B235434560C56815
:101AF0004F000326BE40B543C560D5794E00B540C2
:101B0000C6683543C560491C1029BFD3F0BDF0B588
:101B1000002300244D07ED0E02FA05F3CE1000F16C
:101B2000200555F826504E07F70E0F26BE40B54348
:101B3000CF1000F1200646F82750CE1000F1200506
:101B400055F8265045EA0304CE1000F1200545F86B
:101B50002640F0BD42694A40426170470AB10183A4
:101B600000E04183704700000148007870470000A2
:101B7000D402002000BFFEE708B50146F0EE401A8F
:101B8000B0EE602AC1ED001A81ED012A91ED000A44
:101B9000D1ED010A30EE600A81ED020AD1ED020AB0
:101BA000B0EE600A02F03EFADFED350AB4EEE00A6C
:101BB000F1EE10FA03D29FED330A81ED020A91EDA6
:101BC000020AD1ED030A30EE600AD1ED050A60EE9B
:101BD000202A91ED060AD1ED020A20EE200A8DEDB1
:101BE000000A91ED020AD1ED030AB0EE001A01EEEF
:101BF000600AD1ED040A30EE200AD1ED070A20EE8A
:101C0000203AD1ED0D0AF8EE600AB0EE600A68469F
:101C100000F05EF89DED000A32EE800A30EE030A15
:101C200081ED090A91ED0B0AB0EE001AC0EE010A2F
:101C300091ED090A30EE800A81ED0A0A91ED0A0A57
:101C400081ED080A91ED0A0A81ED0B0AD1ED0C0A2B
:101C5000F8EE600AB0EE600A01F1200000F07AFAB6
:101C600091ED030A81ED040A91ED020A81ED030A68
:101C700091ED080ABDEEC00A10EE100A08BD000082
:101C8000CDCC4C3E00000000DFED101AC0ED001A74
:101C9000DFED0E1AC0ED011ADFED0C1AC0ED021ACD
:101CA000DFED0A1AC0ED031ADFED081AC0ED041AC1
:101CB00080ED050AC0ED060A80ED071A0163426354
:101CC000DFED021AC0ED081A7047000000000000A6
:101CD000D0ED000AF4EEC00AF1EE10FA01DD80ED5D
:101CE000000AD0ED000AB1EE401AF4EEC10AF1EE9E
:101CF00010FA03D2F1EE400AC0ED000A704700006E
:101D00001CB50121302000F0C5FA01208DF8040037
:101D100000208DF806008DF807008DF80500802062
:101D2000009069460A48FFF7AAFE4FF480400090F1
:101D300069460848FFF7A3FE012280210448FFF707
:101D40000DFF012291030348FFF708FF1CBD0000AF
:101D50000010024000140240C0EB0011224A32F988
:101D60003110C0EB0012204B03EBC202126F891A34
:101D70001E4A91420EDAC0EB00111A4602EBC10175
:101D8000B1F86410491C09B2C0EB001203EBC202A7
:101D9000A2F86410C0EB0011134A02EBC101096FF5
:101DA000C0EB0012104B33F93220891A0F4A9142CE
:101DB0000EDAC0EB00111A4602EBC101B1F8641053
:101DC000491E09B2C0EB001203EBC202A2F8641074
:101DD000C0EB0011044A32F93110C0EB0012024B83
:101DE00003EBC202116770475C02002090E8FFFF1E
:101DF00000EB4001C1EB40112B4A32F9211000EBFE
:101E00004002C2EB4012284B03EB8202D26E891AC9
:101E1000264A914212DA00EB4001C1EB40111A460A
:101E200002EB8101B1F86410491C09B200EB4002D9
:101E3000C2EB401203EB8202A2F8641000EB4001F7
:101E4000C1EB4011184A02EB8101C96E00EB400260
:101E5000C2EB4012144B33F92220891A134A9142E3
:101E600012DA00EB4001C1EB40111A4602EB81018E
:101E7000B1F86410491E09B200EB4002C2EB4012F7
:101E800003EB8202A2F8641000EB4001C1EB4011A9
:101E9000054A32F9211000EB4002C2EB4012024B1E
:101EA00003EB8202D16670477401002090E8FFFFC7
:101EB0000FB50146F7EE002AF0EE621ADFED722A46
:101EC000B0EE622A00BFDFED712AB4EEE20AF1EE55
:101ED00010FA04D8DFED6D2AB0EE620A0AE0DFEDF9
:101EE0006C2AB4EEE20AF1EE10FA03DBDFED682AA9
:101EF000B0EE620A00BF00BFDFED642AF4EEE20A32
:101F0000F1EE10FA04D8DFED612AF0EE620A0AE081
:101F1000DFED5F2AF4EEE20AF1EE10FA03DBDFED0B
:101F20005C2AF0EE620A00BF00BFDFED582AB4EE73
:101F3000E21AF1EE10FA04D8DFED542AB0EE621A7C
:101F40000AE0DFED532AB4EEE21AF1EE10FA03DBF9
:101F5000DFED4F2AB0EE621A00BF70EE602A72EE1B
:101F6000812ACDED002A70EE202A72EE812ACDED75
:101F7000012AF1EE402A72EEA02A72EE812ACDEDFE
:101F8000022AF1EE402A72EEE02A72EE812ACDEDAD
:101F9000032A0020002202EE902A3DE06A4602EB6E
:101FA000800292ED003AB5EEC03AF1EE10FA05DD8E
:101FB0006A4602EB800292ED003A06E06A4602EBC6
:101FC000800292ED003AB1EE433AF8EE623AB4EE96
:101FD000E33AF1EE10FA1DDD6A4602EB800292ED63
:101FE000003AB5EEC03AF1EE10FA05DD6A4602EBB2
:101FF000800292ED003A06E06A4602EB800292ED22
:10200000003AB1EE433ABCEEC33A13EE102AD2B214
:1020100002EE902A421CD0B20428BFDBDFED1D2A5D
:10202000B4EEE22AF1EE10FA05DDDFED1A2A82EEB7
:10203000823AF0EE431ADDED002A62EEA12AFDEEAF
:10204000E22A12EE900A00B20880DDED012A62EE6B
:10205000A12AFDEEE22A12EE900A00B24880DDEDE0
:10206000022A62EEA12AFDEEE22A12EE900A00B2E6
:102070008880DDED032A62EEA12AFDEEE22A12EE4F
:10208000900A00B2C8800FBD000000000040CEC51D
:102090000040CE4500C05A4500BFFEE77047F8B586
:1020A00006460C461546F0B28DF80000E0B28DF8F9
:1020B0000100E8B28DF8020001208DF803006846A7
:1020C00000F002F8F8BD000070B5002100230F22D7
:1020D000C4781CB3174C246804F4E064C4F5E064CD
:1020E000C4F30721C1F10404E3B20A4144789C40DF
:1020F000E1B28478144021430C07210E0E4C057880
:102100006155047804F01F050124AC4005786D1179
:10211000AD0005F1E025C5F8004109E0047804F0C0
:102120001F050124AC40054D0678761145F8264080
:1021300070BD00000CED00E000E400E080E100E094
:1021400002490143024A1160704700000000FA058D
:102150000CED00E0D0ED000AF4EEC00AF1EE10FA4A
:1021600001DD80ED000AD0ED000AB1EE401AF4EE78
:10217000C10AF1EE10FA03D2F1EE400AC0ED000AF6
:102180007047704708B50146F0EE401AB0EE602A7D
:10219000C1ED001A81ED012A91ED000AD1ED010A8D
:1021A00030EE600A81ED020AD1ED020AB0EE600A5B
:1021B00001F038FFDFED250AB4EEE00AF1EE10FA87
:1021C00003D29FED230A81ED020A91ED050AD1EDBC
:1021D000020A60EE202AD1ED060A91ED041A9DED67
:1021E000000A00EE810A8DED000A91ED020AD1EDA0
:1021F000030A30EE600AD1ED070A20EE203AD1ED55
:102200000A0AF8EE600AB0EE600A6846FFF760FD61
:102210009DED000A32EE800A30EE030A81ED080AD5
:10222000D1ED090AF8EE600AB0EE600A01F1200073
:10223000FFF790FF91ED020A81ED030A91ED080A84
:10224000BDEEC00A10EE100A08BD0000CDCC4C3E19
:1022500000000000DFED0E1AC0ED001ADFED0C1AD1
:10226000C0ED011ADFED0A1AC0ED021ADFED081AFF
:10227000C0ED031A80ED050AC0ED060A80ED071ACD
:1022800041628262DFED021AC0ED081A7047000059
:102290000000000029B1064A12680243044B1A608C
:1022A00004E0034A12688243014B1A607047000041
:1022B0003038024029B1064A12680243044B1A60C2
:1022C00004E0034A12688243014B1A607047000021
:1022D0004038024029B1064A12680243044B1A6092
:1022E00004E0034A12688243014B1A607047000001
:1022F00044380240F0B500210022002402250026C7
:102300000223324F3F6807F00C0121B1042905D0A8
:10231000082937D105E02E4F076036E02D4F0760C2
:1023200033E02A4F3F1F3F68C7F38056274F3F1FB8
:102330003F6807F03F036EB1264FB7FBF3F7DFF8B6
:102340008CC0ACF1040CDCF800C0CCF3881C07FB9B
:102350000CF40CE01E4FB7FBF3F7DFF870C0ACF1E4
:10236000040CDCF800C0CCF3881C07FB0CF4174FFE
:102370003F1F3F68C7F301477F1C7D00B4FBF5F7A3
:10238000076002E0124F076000BF00BF0F4F3F68B9
:1023900007F0F0010909104F7A5C0768D7404760E1
:1023A0000A4F3F6807F4E051890A0B4F7A5C47688F
:1023B000D7408760054F3F6807F46041490B064FDF
:1023C0007A5C4768D740C760F0BD0000083802401B
:1023D0000024F400001BB7003000002010B52DEDE4
:1023E0000A8BB0EE408AF0EE608A044684ED008AE3
:1023F000C4ED018A94ED000A10EE101A0846FDF7AC
:1024000098FF41EC1A0B94ED010A10EE101A0846E1
:10241000FDF78FFF41EC1B0BB0EE4A1AF0EE6A1A83
:10242000B0EE4B0AF0EE6B0A00F0EEFDB0EE409A13
:10243000F0EE609A51EC190BFDF78EFFA06094ED61
:10244000020ADFED2B0A20EE200ADFED2A0A80EED9
:10245000201A84ED031A94ED010A10EE101A0846B2
:10246000FDF767FF41EC1C0B9FED231BB0EE4C0A00
:10247000F0EE6C0A00F0C0FEB0EE40AAF0EE60AAEA
:1024800094ED000A10EE101A0846FDF752FF41ECD9
:102490001C0B9FED191BB0EE4C0AF0EE6C0A00F01D
:1024A000ABFEB0EE40BAF0EE60BA53EC1A2B51EC32
:1024B0001B0BFDF797FE41EC190BFDF74DFF00EEEE
:1024C000100AF1EEC00AC4ED040A94ED030ADFED30
:1024D000080AB4EEE00AF1EE10FA05DD94ED040A04
:1024E000B1EE400A84ED040ABDEC0A8B10BD000079
:1024F00000003443DB0F49400000000000000040B2
:10250000704700000CB50020019000904148006821
:1025100040F480303F49086000BF3E48006800F446
:10252000003000900198401C0190009818B9019863
:10253000B0F5A04FF1D13748006800F4003010B179
:102540000120009001E0002000900098012860D157
:1025500030484030006840F080502E4940310860DB
:102560002D48006840F440402B4908602948083055
:1025700000682849083108600846006840F40040B7
:1025800008600846006840F4A05008602348091F0E
:102590000860081F006840F08070091F086000BFD5
:1025A0001C48006800F000700028F9D01A48006844
:1025B00040F480301849086000BF1748406800F4B4
:1025C00080300028F9D01448006840F400301249E7
:1025D000086000BF1048406800F400300028F9D0BF
:1025E00040F205700E4908600A480830006820F083
:1025F00003000849083108600846006840F00200FE
:10260000086000BF03480830006800F00C0008288C
:10261000F8D10CBD00380240007000400C5A400751
:10262000003C024030B50146481EB0F1807F01D326
:10263000012030BD481E4FF0E022506150170F229C
:10264000002807DA13071D0E094B00F00F04241FA2
:102650001D5503E013071C0E064B1C5400BF002041
:102660004FF0E0229061072010610020E1E70000B8
:1026700018ED00E000E400E07047000010B51548D8
:10268000006840F47000134908601348006840F087
:1026900001001149086000200F49083108600E4808
:1026A00000680E4908400C4908600D48091D086083
:1026B000081F006820F48020091F086000200649D8
:1026C0000C310860FFF71EFF4FF0006001498039B0
:1026D000086010BD88ED00E000380240FFFFF6FE04
:1026E000103000243EB505460C4601211020FFF7AE
:1026F000E1FDADF8005001940020ADF80800ADF800
:10270000020069460A4800F029F90121084800F052
:10271000EFF80121064800F0FAF8012211460448BA
:1027200000F012F9002201213620FFF7B8FC3EBD6F
:102730000010004010B52DED028B9FED3C0AB0EE6D
:10274000408A9FED3A0AF0EE408A0121384800F0B5
:10275000EAF8002866D037480068401C3549086010
:10276000642806DD80213448FFF7F4F90020314960
:102770000860FFF7F9F901283FD0022802D00328AA
:102780003CD10FE09FED290A2C4880ED000A9FED17
:10279000270A2B4880ED000A9FED240A294880ED86
:1027A000000A2BE0284890ED000ADFED280A80EEB1
:1027B000201A9FED270A21EE000A204880ED000A2A
:1027C000214890ED010A9FED231AC0EE010A9FED0A
:1027D000200A20EE800A1A4880ED000A1E48D0ED3B
:1027E000000A9FED1C1A80EE810ADFED190A20EE27
:1027F000200A144880ED000A00E000BF00BFFFF788
:10280000B3F9C4B220460F4991ED001A0C49D1ED3D
:10281000000A0A4991ED000AFEF788FD01210448EB
:1028200000F072F8BDEC028B10BD0000000000004B
:102830000010004018000020001002400800002096
:102840000C00002010000020500300200000254450
:102850000040CE4500001644640300203EB5054606
:102860000C4601212020FFF725FDADF80050019412
:102870000020ADF80800ADF8020069460A4800F0F3
:102880006DF80121084800F033F80121064800F0F6
:102890003EF801221146044800F056F801220021BA
:1028A0003720FFF7FCFB3EBD0014004010B50121AE
:1028B0000C4800F038F8A0B10B480068401C0A49E9
:1028C0000860142809DD4FF480410848FFF742F9F9
:1028D000FFF786F80020044908600121014800F054
:1028E00013F810BD00140040140000200014024032
:1028F00021B1028842F08002028004E002884FF693
:102900007F731A4002807047CA430282704721B128
:10291000028842F00102028004E002884FF6FE7352
:102920001A400280704730B5024600200023002480
:10293000158A05EA0103958905EA010413B10CB172
:10294000012000E0002030BD1AB183890B43838150
:1029500002E083898B438381704700000022028854
:10296000184B98420ED0184B98420BD0B0F1804FC4
:1029700008D0164B984205D0154B984202D0154B03
:10298000984204D14FF68F731A404B881A43124B6A
:10299000984207D0114B984204D04FF6FF431A409B
:1029A0000B891A4302804B68C3620B880385054B71
:1029B000984202D0044B984201D18B7A03860123BE
:1029C0008382704700000140000401400004004081
:1029D00000080040000C00400010004000140040BF
:1029E00010B540F224410E4800F0CEF8B8B10021F5
:1029F0000C48FEF7E6FD0B48FEF7A4FE042802D1C2
:102A00000948FEF701FF16210648FEF7CBFE01211B
:102A10000448FEF7D6FD024880880148008810BDB2
:102A200000100140406402402003002010B586B031
:102A3000044601210220FFF72DFC01211020FFF7A1
:102A400049FC02208DF814008DF8150001208DF846
:102A5000170000208DF816004020049004A91A48A1
:102A6000FFF70DF88020049004A91748FFF707F836
:102A7000072206211448FFF74AF807221146124898
:102A8000FFF745F800940020ADF80400ADF806000B
:102A9000ADF80800ADF80C000C20ADF80A0069464E
:102AA0000A4800F0C1F8022200212520FFF7F7FABA
:102AB000012240F22441054800F090F8012103482A
:102AC00000F04DF806B010BD0004024000100140B7
:102AD00030B58FB004460D4601218805FFF7DAFBBB
:102AE0001C48FEF779FD00BF1A48FEF721FE0028BA
:102AF000FAD14FF000600090174801900294002036
:102B00000390049505904FF4806006900020079094
:102B100008904FF48070099000020A9000200B90FA
:102B20000C900D900E9069460A48FEF70FFE0121A9
:102B30000848FEF746FD00BF0648FEF7F9FD0128EC
:102B4000FAD1012240210448001F00F014F80FB010
:102B500030BD00004064024004100140704721B1C4
:102B6000828942F40052828104E082894DF6FF732B
:102B70001A40828170471AB1838A0B43838202E034
:102B8000838A8B438382704770B5024600240023FA
:102B90000025002040F66A16B14200D100BFC1F303
:102BA000421501F01F03012606FA03F3012D02D19D
:102BB0009689334006E0022D02D1168A334001E0A7
:102BC000968A33400C12012606FA04F41688344023
:102BD00013B10CB1012000E0002070BDF0B5034638
:102BE000002400260025002040F66A17B94200D1D3
:102BF00000BF1846C1F3421401F01F06012707FA6F
:102C000006F5012C01D10C3004E0022C01D110306A
:102C100000E014301AB107682F43076002E007682C
:102C2000AF430760F0BD00002DE9FF4705460E46A3
:102C30000024A14600BFA046B08900B100BF2C8A85
:102C400024F44054F08804432C82AC8941F20C6097
:102C50008443B08831890843718908430443AC81B7
:102C6000AC8A24F44074B0890443AC826846FFF710
:102C700041FB2048854202D01F48854202D1DDF841
:102C80000C9001E0DDF80890A88900F4004040B104
:102C900009EBC90000EB091031684900B0FBF1F7FE
:102CA00007E009EBC90000EB091031688900B0FBAF
:102CB000F1F76420B7FBF0F004012009642101FB67
:102CC0001078A88900F4004040B1322000EBC80021
:102CD000B0FBF1F000F00700044308E0322000EB05
:102CE00008106421B0FBF1F000F00F0004432C81C8
:102CF000BDE8FF87001001400014014000BFFEE75F
:102D000003B401984100009850EAC12018BF042084
:102D10004A0D18BF40F0010040F2FF72B2EB515F64
:102D200008BF40F00200012808BF052002B070472C
:102D300070B59B482DED020B2DED068B079D25F000
:102D40000044A04218DC9748844202DC0AD106986D
:102D500040B19DED060BBDEC068B02B0BDE87040A6
:102D600001F006B9002DCCBF9FED8F0B9FED900BAE
:102D7000BDEC068B02B070BD8F48A04215DD8F48B8
:102D8000A042D8BF4FF0FF3458DD9DED060B51EC4B
:102D9000100BFFF7B5FF042808BF01F01DF99DEDEA
:102DA000060BBDEC068B02B070BD9DED060B51EC21
:102DB000100B01F073F9CDE9060181489FED828B7C
:102DC000A0423CDD8248A0421FDD00249FED82AB83
:102DD0009DED060B53EC1A2B51EC100BFDF702FA8C
:102DE0009DED060B41EC190B53EC1A2B51EC100B1B
:102DF000FDF783FB53EC182BFDF795FA53EC192BD9
:102E0000FDF7EDFBCDE9060149E09DED060B012440
:102E100053EC182B51EC100BFDF7E4F99DED060B6C
:102E200041EC190B53EC182B51EC100BFDF77BFA0E
:102E300053EC192BFDF7D3FBCDE906012FE06848D1
:102E4000A0421FDD02249FED689B9DED060B53EC15
:102E5000192B51EC100BFDF750FB53EC182BFDF721
:102E6000C1F99DED060B41EC180B53EC192B51ECFD
:102E7000100BFDF758FA53EC182BFDF7B0FBCDE91A
:102E800006010CE09DED060B032453EC102B9FED87
:102E9000580B51EC100BFDF7A2FBCDE906019DED9F
:102EA000060B53EC102B51EC100BFDF726FB41ECFD
:102EB000180B53EC182BFDF720FB41EC190B4E4877
:102EC0000621B0EE490AF0EE690A784400F0BCFF32
:102ED00053EC182B51EC100BFDF70FFB41EC180BCA
:102EE0004648B0EE490AF0EE690A0521784400F040
:102EF000ABFF53EC192B51EC100BFDF7FEFA41EC34
:102F0000100B51EC180B53EC102B002C0EDAFDF7C4
:102F100069F99DED061B53EC112BFDF7EEFA9DEDC3
:102F2000061B53EC112BFDF701FA35E0FDF75AF9BA
:102F30009DED061B53EC112BFDF7DFFA41EC100B56
:102F40002F48784400EBC40090ED001B51EC100BAF
:102F500053EC112BFDF7E7F99DED061B53EC112BFC
:102F6000FDF7E1F941EC100B2648784400EBC40072
:102F700090ED001B51EC100B53EC112BFDF7D6F923
:102F800041EC100B002DA2BFBDEC068B02B070BD52
:102F900051EC100B81F0004141EC100B01E70000F7
:102FA000000010440000F07F182D4454FB21F93F2D
:102FB000182D4454FB21F9BF0000DC3F0000203EE7
:102FC0000000F33F00000000000000000000F03FA0
:102FD0000000E63F0000000000000000000000408C
:102FE0000080034000000000000000000000F83FE7
:102FF000000000000000F0BF821300003813000042
:10300000C21200007A12000070B56B4E2DED040B59
:103010002DED028B82B0DDF81CC0DDE905235C429A
:103020002CF000411C4341EAD474049D22F000407E
:10303000B44205D86C422C4340EAD474B4420BD954
:103040009DED061B9DED040B02B0BDEC028B04B0A0
:10305000BDE8704000F096BFACF14054A4F17F642D
:103060001C430BD0022404EAAC7444EAD274054336
:103070009FED538B9FED542B07D015E09DED040B76
:1030800051EC100B00F0DEFF42E0002C11BF012CD0
:103090009DED040B02B0BDEC028B04BF04B070BD0B
:1030A000022C38D0032C3BD00B439FED491B9FEDE6
:1030B0004A0B0AD0B14218D1B04209D121F0804167
:1030C00020F08040079105900FE0002A15DA10E00B
:1030D000434B7B44002C08BF93ED000B0DD0012C1B
:1030E00010D0022C17D0032C1AD0B0421DD1002AC8
:1030F00003DAB0EE410AF0EE610A02B0BDEC028BD9
:1031000004B070BD93ED000B51EC100B81F0004149
:1031100041EC100BF1E7B0EE480AF0EE680AECE77C
:10312000B0EE420AF0EE620AE7E7401A00153C28CA
:10313000C8BF8DED000B19DCBCF1000FBEBF10F154
:103140003C0F9FED290B8DED000B0FDB9DED060B6A
:1031500053EC102B9DED040B51EC100BFDF73FFAD7
:1031600000F09CFF00F06EFFCDE90001002C08BFCD
:103170009DED000BC1D0012C10D0022C9FED1C0B3B
:1031800053EC102B9DED000B51EC100B0DD0FDF707
:10319000CAF853EC182BFDF7C6F8B9E7019880F090
:1031A000004001909DED000BA7E7FDF7BCF853EC44
:1031B000182BFDF7BBF8ABE70000F07F0000000024
:1031C000182D4454FB210940182D4454FB2109C0FB
:1031D000182D4454FB21F9BF182D4454FB21F93F0D
:1031E000AA11000000000000000000000000000024
:1031F000075C143326A6A13C2DE9F04D2DED040B00
:103200002DED0E8B96B0DDE92550279CDDF890A0C2
:1032100025F0004624F00048BAF1000F14BF012148
:10322000002101EB4502FC4953184A1093422AD36E
:10323000002814BF0123002303EB44030B44F74988
:103240008B4220D358EA00019FEDF59B76D0DFF842
:10325000D8B35D4503D1BAF1000F05D188E0BAF1CA
:10326000000F08BF002100D0012101EB450111F53D
:10327000001F08D8002814BF0121002101EB4401E0
:1032800011F5001F0BD99DED261B9DED240B16B0EB
:10329000BDEC0E8B04B0BDE8F04D00F073BE00270E
:1032A000002DBCBFE149884521DAE1498845A8BF26
:1032B00002271CDAC3451ADCDE4901EB2851142928
:1032C00008DDC1F1340220FA02F101FA02F2824271
:1032D0000DD108E058B9C1F1140228FA02F101FA3F
:1032E00002F2424503D101F00101C1F1020756EAA1
:1032F0000A0124D1002C22DA002D18BF022F01D0A0
:10330000012F0AD0022000F087FE16B0BDEC0E8B14
:1033100004B0BDE8F04D00F013BE022000F07CFECA
:1033200000F00EFE51EC100B81F0004141EC100B4F
:1033300016B0BDEC0E8B04B0BDE8F08D18E09FED2B
:10334000BEAB9FEDBF8B002871D1B848804522D11C
:1033500005F1804010F5801008BFBAF1000F07D0CA
:10336000B3450ADC002CA8BF9DED260BE0DA0DE08A
:10337000B0EE490AF0EE690ADAE7002C06DA9DEDB4
:10338000260B51EC100B81F000416FE0AE48784401
:1033900090ED000BCCE7D8454DD1002C48DA2EB18A
:1033A00086423AD1BAF1000F42D126E0BAF1000FBD
:1033B00013D0022000F030FE00F0FEFD8DED020B78
:1033C0009DED240B8DED000B10EE900A039961F337
:1033D0001E0003909DED020BAAE78DED02AB9DED63
:1033E000240B1AEE901A10EE900A8DED000B61F38B
:1033F0001E0003909DED020B9AE78DED028B9DED73
:10340000240B18EE901A10EE900A8DED000B61F36C
:103410001E0003909DED020B8AE709DA9DED240B57
:1034200051EC190B53EC102BFDF7D9F81EE020E0FE
:103430009DED240B7CE786421BDAB4F1804F0DD062
:10344000A4F10050B0F1FF5013D1002D11DB9DED20
:10345000240B51EC100B00F049FE07E09DED240B0E
:1034600053EC102B51EC100B00F0C2BC41EC100BD4
:103470005EE79DED240B51EC100B00F00FFEBAF14E
:10348000000FCDE90E0142D19FED710B46B3A6F1BD
:10349000E040B0F17F600CD05E4538D1002D00DAFD
:1034A000A7B3022F0CBF01204FF0FF30FDF71DF92D
:1034B000DCE7002D01DD002C0DDA002D01DD002CF4
:1034C0001FDB002D16DA002C14DB012F08BF9FED47
:1034D000620B3FF42DAFB0EE4A0AF0EE6A0A27E71E
:1034E000022F18BF002D0CD0012F0AD1002DFFF69E
:1034F0001FAF06E0002DB8BF002C08DA012F3FF403
:1035000017AFB0EE480AF0EE680A11E71BE00120A1
:1035100000EBE57050EA070115D0791EB0EE498A3C
:10352000F0EE698A084308BF9FED4D8B4E48002599
:10353000804570DD4D494E48884514DDB0420DDBB5
:10354000002C19DB2FE0012000F066FD16B0BDEC69
:103550000E8B04B0BDE8F04D00F01EBDB34502DC9B
:10356000002C09DC1FE0864202DA002C1BDA03E0A3
:103570005E452BDD002C16DD022000F04DFD00F035
:103580001BFD8DED020B53EC1A2B51EC180BFCF7C5
:10359000B4FFCDE900010399019861F31E00039087
:1035A0009DED020BC4E6022000F036FD00F014FD94
:1035B00010EE901A18EE900A8DED020B8DED008B37
:1035C00061F31E0003909DED020BB1E69DED0E0B25
:1035D00053EC192B51EC100BFCF7A5FE9FED260BBD
:1035E000CDE9080153EC102B9DED080B51EC100BAD
:1035F000FCF783FF9FED221B53EC112BFCF796FE8B
:103600009DED081B53EC112BFCF777FF9FED1E1B64
:1036100053EC112B3CE08CE0FFFF1F00FFFF0F007D
:10362000000000000000F03F0000F03F0000F07FCD
:103630000000404301FCFFFF000000000000F07F9D
:103640000000000000000000EE0E0000000000007E
:103650000000000000000080000000000000F0FFFB
:10366000000000000000F0BF0000E0410000F04357
:10367000FFFFEF3F00000000000000000000D03F0F
:10368000555555555555D53F000000000000E03F09
:10369000FCF74CFE9DED080B41EC1A0B53EC102B84
:1036A00051EC100BFCF729FF53EC1A2BFCF725FF0C
:1036B00041EC1A0B9FEDFE0B53EC102B9DED080B0C
:1036C00051EC100BFCF719FF41EC1B0B9FEDFA0BB3
:1036D00051EC1A0B53EC102BFCF70FFF41EC1A0BBB
:1036E0009FEDF70B53EC102B9DED080B51EC100BDD
:1036F000FCF703FF53EC1A2BFCF715FE41EC1A0BF9
:1037000051EC1B0B53EC1A2BFCF76CFD0690CDE92A
:1037100006519DED060B53EC1B2B51EC100BFCF7E7
:1037200002FE53EC1A2BFCF701FE41EC100B00F0EB
:10373000A1B90020B6F5801F0EDA9FEDE30B53EC24
:10374000102B9DED0E0B51EC100BFCF7D6FECDE9C6
:103750000E016FF034000E4600EB2650A0F2FF374A
:10376000C6F31300DA4940F07F6646F040568842BF
:10377000D8BF002408DDD7498142C8BF012403DC3B
:103780000024A6F580167F1CD348784400EBC400C3
:103790000F9690ED00CB9DED0E0B53EC1C2B51ECD6
:1037A000100BFCF7C0FD9DED0E0B41EC1B0B53EC19
:1037B0001C2B51EC100BFCF715FD41EC100B51ECE0
:1037C000190B53EC102BFCF70AFF41EC1D0B51ECCD
:1037D0001B0B53EC1D2BFCF790FE41EC1A0BBF4862
:1037E0008DED10AB7844109590ED000B4FF000502C
:1037F00040EA660000EB84408DED080B00F50020E8
:1038000009909DED080B53EC1C2B51EC100BFCF7B1
:103810008AFD9DED0E1B53EC112BFCF787FD41EC4F
:10382000100B53EC102B9DED100B51EC100BFCF713
:1038300064FE9DED080B41EC1C0B53EC102B9DED31
:10384000100B51EC100BFCF758FE53EC1B2BFCF744
:103850006DFD53EC1C2BFCF766FD53EC1D2BFCF7A8
:103860004CFE41EC1C0B53EC1A2B51EC1A0BFCF7E1
:1038700044FE41EC1B0B9A480621B0EE4B0AF0EED9
:103880006B0A784400F0E0FAB0EE401AF0EE601AED
:10389000B0EE41DAF0EE61DA53EC1B2B51EC1B0B6E
:1038A000FCF72BFE53EC1D2BFCF727FE9DED100BB8
:1038B00041EC1B0B53EC1A2B51EC100BFCF792FC58
:1038C00053EC1C2BFCF719FE53EC1B2BFCF78AFC6A
:1038D0009DED100B41EC1B0B53EC102B51EC100B1E
:1038E000FCF70BFE41EC1D0B9FED7FEB53EC1E2B09
:1038F000FCF778FC53EC1B2BFCF774FC0890CDE92B
:1039000008519DED080B53EC1E2B51EC100BFCF7EE
:103910000AFD53EC1D2BFCF706FD53EC1B2BFCF7AB
:1039200005FD9DED080B41EC1D0B53EC102B9DED9F
:10393000100B51EC100BFCF7E0FD41EC1B0B53ECB2
:103940001A2B51EC1D0BFCF7D8FD9DED080B41EC3B
:103950001A0B53EC102B51EC1C0BFCF7CEFD53EC67
:103960001A2BFCF73FFC41EC1A0B51EC1B0B53ECF0
:103970001A2BFCF737FC0C90CDE90C519DED0C0B8C
:1039800053EC1B2B51EC100BFCF7CDFC53EC1A2B1A
:10399000FCF7CCFC41EC1B0B9FED550B53EC102BB3
:1039A0009DED0C0B51EC100BFCF7A7FD41EC1A0B35
:1039B0009FED510B51EC1B0B53EC102BFCF79DFDB5
:1039C00041EC1B0B9FED4E0B53EC102B9DED0C0BA4
:1039D00051EC100BFCF791FD53EC1B2BFCF702FC98
:1039E00041EC100B4848784400EBC40090ED001BFC
:1039F00051EC100B53EC112BFCF7F4FB41EC1B0BBF
:103A00003846FCF772FECDE9080153EC1B2B51EC54
:103A10001A0BFCF7E7FB41EC100B3C48784400EB39
:103A2000C40090ED00CB51EC100B53EC1C2BFCF7B9
:103A3000D9FB9DED081B53EC112BFCF7D3FB069033
:103A4000CDE906519DED080B53EC102B9DED060BB7
:103A500051EC100BFCF767FC53EC1C2BFCF763FCE0
:103A600053EC1A2BFCF75FFC53EC1B2BFCF75EFCB2
:103A700041EC100B9DED261B53EC102B8DED001B24
:103A800000959DED260B51EC100BFCF736FD9DEDDE
:103A9000000B41EC1A0B53EC102B9DED260B51EC57
:103AA000100BFCF740FC9DED061B53EC112B2FE097
:103AB000000000604715F73FFE822B654715F73F72
:103AC00044DF5DF80BAE543E0000000000004043B0
:103AD0008E9803007AB60B00D2090000980A000005
:103AE0000A0900000000000000000000000008407B
:103AF000000000E009C7EE3FFD033ADC09C7EE3FD6
:103B0000F5015B14E02F3EBE960700005007000051
:103B1000FCF7F3FC53EC1A2BFCF764FB9DED060B52
:103B200041EC1A0B53EC102B9DED000B51EC100BDC
:103B3000FCF7E3FCCDE90C019DED0C0B51EC1A0BED
:103B400053EC102BFCF74EFBCDE902010C46AA49C1
:103B50008C422FDB611A084318D19DED0C0B53ECFE
:103B6000102B9DED020B51EC100BFCF7DCFB41EC34
:103B70001B0B9FEDA30B51EC1A0B53EC102BFCF716
:103B800031FB53EC1B2BFCF7C1FD2DD2022000F0C2
:103B900043FA00F011FA10EE901A18EE900A8DED2B
:103BA000020B8DED008B61F31E0003909DED020B67
:103BB000FFF7BEBB944A24F00041914214D39349CD
:103BC000214408437FF4EFAC9DED0C0B53EC102B1C
:103BD0009DED020B51EC100BFCF7A5FB53EC1A2BDF
:103BE000FCF794FD7FF6DFAC24F000408849894A59
:103BF000002601EB205182422BDA481C4FF4801141
:103C000021FA00F02044844AC0F30A517A44A1F218
:103C1000FF3192ED000B814A8DED080BCA4020EA7E
:103C20000202C0F3130040F48010C1F1140120FA25
:103C300001F60992002CB8BF76429DED080B53ECBB
:103C4000102B9DED0C0B51EC100BFCF76CFBCDE930
:103C50000C019DED0C0B51EC1A0B53EC102BFCF7E7
:103C6000C1FA9FED6F0B0890CDE9085153EC102B72
:103C70009DED080B51EC100BFCF73FFC41EC1B0BCE
:103C80009FED690B53EC102B9DED080B51EC100BC5
:103C9000FCF733FC9DED0C0B41EC1C0B53EC102B93
:103CA0009DED080B51EC100BFCF73DFB53EC1A2B70
:103CB000FCF73CFB9FED5E1B53EC112BFCF71DFC4E
:103CC00053EC1C2BFCF78EFA41EC1A0B51EC1B0B3E
:103CD00053EC1A2BFCF786FACDE902019DED020B9D
:103CE00053EC1B2B51EC100BFCF71DFB53EC1A2B68
:103CF000FCF71CFB9DED020B41EC1A0B53EC102B57
:103D000051EC100BFCF7F9FBCDE908014A489DED99
:103D1000080B0521784400F097F89DED081B51EC45
:103D2000100B53EC112BFCF7E8FB9DED021B53EC41
:103D3000112BFCF7FBFACDE906019DED020B53ECCC
:103D40001A2B51EC100BFCF7D8FB53EC1A2BFCF799
:103D500049FA9FED3B0B41EC1A0B53EC102B9DEDF8
:103D6000060B51EC100BFCF7DEFA9DED060B41EC57
:103D70001B0B53EC102B9DED020B51EC100BFCF7C1
:103D8000BCFB53EC1B2BFCF72AFC53EC1A2BFCF767
:103D9000CAFA9DED021B53EC112BFCF7C4FA53EC4D
:103DA000192BFCF7C3FACDE9020101EB065001150E
:103DB0000029C8BF039015DC9DED020B324651EC83
:103DC000100BFCF77BFCFEF79BFF042808BF00F0FC
:103DD00003F932469DED020B51EC100BFCF76EFC23
:103DE000CDE902019DED020B51EC180B53EC102BA9
:103DF000FCF783FBFFF73ABB000090400000000097
:103E0000FE822B654715973C00CC904000346F3FF5
:103E100001FCFFFF0000E03F70060000FFFF0F0005
:103E200000000000432EE63F396CA80C615C20BE08
:103E3000EF39FAFE422EE63FA80400000000000021
:103E4000000000000000004070B504462DED028B1C
:103E50004D1E00EBC500B0EE408AF0EE608A90ED9A
:103E6000000B35F0060017D053EC182B51EC100B5B
:103E7000FCF743FB41EC100B6D1E04EBC50090ED0D
:103E8000001B51EC100B53EC112BFCF7ABF941EC80
:103E9000100B35F00600E7D1022D36D0042D1CD0D2
:103EA000062D1CBFBDEC028B70BD53EC182B51ECE2
:103EB000100BFCF722FB94ED0A1B53EC112BFCF7C3
:103EC00091F953EC182BFCF718FB94ED081B53ECFD
:103ED000112BFCF787F941EC100B53EC182B51EC2C
:103EE000100BFCF70AFB94ED061B53EC112BFCF7AF
:103EF00079F953EC182BFCF700FB94ED040B53EC11
:103F0000102BFCF76FF941EC100B53EC182B51EC14
:103F1000100BFCF7F2FA94ED021B53EC112BFCF79B
:103F200061F953EC182BFCF7E8FA94ED001B53EC05
:103F3000112BFCF757F9BDEC028B41EC100B70BD57
:103F40009FED070B10B553EC102B9FED070B51ECB9
:103F5000100BFCF744FB41EC100B10BD00000000FF
:103F60000000000000000000000000000000F03F22
:103F700010B553EC102B51EC100BFCF733F941EC5E
:103F8000100B10BD10B553EC112B51EC100BFCF7BE
:103F900029F941EC100B10BD9FED050B10B553EC4A
:103FA000102B51EC100BFCF71AFB41EC100B10BD61
:103FB00000000000000000009FED050B10B553EC61
:103FC000102B51EC100BFCF798FA41EC100B10BDC4
:103FD00000000000000000709FED050B10B553ECD1
:103FE000102B51EC100BFCF788FA41EC100B10BDB4
:103FF000000000000000001002E008C8121F08C105
:10400000002AFAD170477047002001E001C1121F59
:10401000002AFBD17047000001490860704700008A
:1040200040000020B5EEC00AF1EE10FA00DB00BF40
:10403000B5EEC00AF1EE10FA03D2F1EE400AB0EE8E
:10404000600A704710B541EC100BFEF771FE51ECA1
:10405000100B10BD70B504460F4800684FF47A711C
:10406000B0FBF1F52846FEF7DDFA002008E000BFBE
:104070004FF0E021096901F480310029F8D0401C9B
:10408000A042F4D34FF0E020006920F001004FF08F
:10409000E021086170BD00001C00002082B0CDE965
:1040A000000121F0004001909DED000B02B051ECA9
:1040B000100B70474FF4A060FEF742F8FDF720FEAA
:1040C000FCF7FEFCFDF770FB42F20F715920FEF782
:1040D000C5FB4FF4FA60FFF7BDFFFDF7D1F842F2E0
:1040E0000F715920FEF7FEFA00BFFEE700B52DED77
:1040F000048B83B041EC190BFCF742FB41EC180B2D
:1041000018EE100A18EE901A8DED008B002818BFDB
:104110000120084320F00040C0F17F6000F1E04042
:10412000C00F14D019EE101A19EE900A8DED009BF5
:10413000002918BF0121084320F00040C0F17F6032
:1041400000F1E040C00F04BF0120FFF765FF51EC14
:10415000180B03B0BDEC048B00BD00000000000094
:10416000000000000000F03F000000000000F83FE9
:1041700000000000000000000000004003B8E23F23
:10418000000000000000000006D0CF43EBFD4C3ED5
:10419000033333333333E33FFFAB6FDBB66DDB3FCA
:1041A0004D268F515555D53F01411DA96074D13F12
:1041B00065DBC9934A86CD3FEF4E454A287ECA3F0C
:1041C0003E5555555555C53F93BDBE166CC166BF8E
:1041D0002CDE25AF6A56113FF16BD2C541BDBBBE87
:1041E000D0A4BE726937663E4FBB610567ACDD3F48
:1041F000182D4454FB21E93F9BF681D20B73EF3F0E
:10420000182D4454FB21F93FE2652F227F2B7A3C85
:10421000075C143326A6813CBDCBF07A8807703C3E
:10422000075C143326A6913CC4EB98999999C9BFB1
:10423000711623FEC671BCBF6D9A74AFF2B0B3BFE6
:104240009AFDDE522DDEADBF2F6C6A2C44B4A2BFA6
:104250000D5555555555D53FFF8300922449C23F12
:104260006E204CC5CD45B73F513DD0A0660DB13F46
:10427000EB0D76244B7BA93F11DA22E33AAD903F58
:104280000000000000000000A8420008000000201C
:1042900044000000F83F0008EC4200084400002001
:1042A0005C0700000840000800000000000000005B
:1042B00000000000000000000000000000000000FE
:1042C000000000000095BA0A000000000000000095
:1042D00001020304060708090000000001020304AC
:0C42E000010203040607080900000000AA
:04000005080001AD41
:00000001FF
