:020000040800F2
:10000000E0C30020790200082F260008E91E00083E
:100010002D2600081D100008CD3300080000000048
:10002000000000000000000000000000C101000806
:10003000E91C000800000000150200082D2B000834
:10004000930200089302000893020008930200083C
:10005000930200089302000893020008930200082C
:10006000930200089302000893020008930200081C
:10007000930200089302000893020008930200080C
:1000800093020008930200089302000893020008FC
:10009000F910000893020008930200089302000878
:1000A00093020008930200089302000893020008DC
:1000B00093020008930200089302000893020008CC
:1000C00093020008930200089302000893020008BC
:1000D00093020008F12B0008B92D0008D12F000869
:1000E000930200089302000893020008930200089C
:1000F000930200089302000893020008930200088C
:10010000930200089302000893020008930200087B
:1001100093020008930200089D2B00089302000838
:10012000930200089302000893020008930200085B
:10013000930200089302000893020008930200084B
:10014000930200089302000893020008930200083B
:10015000930200089302000893020008D52F0008BC
:10016000930200089302000893020008930200081B
:10017000930200089302000893020008930200080B
:1001800093020008930200089302000893020008FB
:1001900093020008930200089302000893020008EB
:1001A000000000000000000093020008DFF80CD0FF
:1001B00000F060FC0048004729490008E0C3002027
:1001C0002A4B19680868B0E8F04F80F30988BFF33C
:1001D0006F8F4FF0000080F311887047000000001F
:1001E00006480068006880F3088862B661B6BFF30D
:1001F0004F8FBFF36F8F00DF00BF00BF08ED00E03F
:10020000DFF80C00016841F470010160704700BF25
:1002100088ED00E0EFF30980BFF36F8F134B1A688E
:100220001EF0100F08BF20ED108A20E9F04F10607B
:1002300008B44FF0500080F31188BFF34F8FBFF325
:100240006F8F05F04BFC4FF0000080F3118808BC65
:1002500019680868B0E8F04F1EF0100F08BFB0EC46
:10026000108A80F30988BFF36F8F70474000002029
:10027000EFF30580704700000648804706480047B6
:10028000FEE7FEE7FEE7FEE7FEE7FEE7FEE7FEE746
:10029000FEE7FEE7412B0008AD01000840EA01033C
:1002A0009B0703D009E008C9121F08C0042AFAD22C
:1002B00003E011F8013B00F8013B521EF9D27047F0
:1002C000D2B201E000F8012B491EFBD27047002298
:1002D000F6E710B513460A4604461946FFF7F0FF45
:1002E000204610BD0FB400B58DB010A909900B9039
:1002F00000914FF0FF300A9000200C9005480690C6
:10030000054807906A4609A80F9900F0CFF90DB08B
:100310005DF814FBC9060008E70600082DE9FF5F39
:100320001D464FF0FF3BD5E9014691465F464FF031
:100330000008A9697F1C01988847296A8246884776
:100340000028F6D1BAF1FF3F0CD024F4C064002E8F
:1003500019DD600614D5BAF12B0F09D0BAF12D0FB3
:100360000ED103E0584604B0BDE8F09F44F4806429
:10037000A9697F1C01988847761E8246002E02DDFF
:10038000BAF1300F03D0B9F1000F26D032E0A969DD
:10039000761E44F400747F1C019888478246002E24
:1003A00005DDBAF1780F06D0BAF1580F03D0B9F1D4
:1003B000000F10D01EE0B9F1000F02D0B9F1100FFC
:1003C00018D1A969761E24F400747F1C019888470F
:1003D0008246102002E0082000E00A20814609E061
:1003E00008FB0908A969761E44F400747F1C019873
:1003F00088478246002E05DD4946504600F041F907
:100400000028EDDAE96901988847A00502D46FF069
:100410000100A8E7E00725D1600613D5600502D5E5
:10042000C8F1000000E0404629680A1D2A600968FA
:10043000220501D5087015E0220701D5088011E0DA
:1004400008600FE02868011D29600068210502D5B9
:1004500080F8008006E0210702D5A0F8008001E0C6
:10046000C0F8008038467EE72DE9FE4F804681EADD
:100470000300C00F0C46009021F0004123F000451E
:10048000B8EB0200A94105D24046214690461C46E1
:100490000B46024623F00040104347D0270DC7F318
:1004A0000A00C3F30A510290401A019040286BDA07
:1004B000C3F3130040F4801B0098924620B1002340
:1004C000D2EB030A63EB0B0B01985946C0F14002D3
:1004D000504600F0B5F806460D4650465946019A7A
:1004E00000F0BDF810EB08006141002487EA1152CA
:1004F00084EAE7731A4340D0009A62B3019A012A52
:100500004FEA075215DC001B61EB02014FF000427D
:1005100002EA0752CDE90042001C41F58011324643
:100520002B4600F037F903B0BDE8F08F4046214676
:10053000F9E7001B61EB0201001C41F58013001874
:100540005B412018A2F5001747EB030140EAD57084
:10055000B6196D4111E06D084FEA360645EAC075DF
:100560004FEA0752001B61EB0201001C41F58011AC
:1005700049084FEA30000019514132462B4603B07A
:10058000BDE8F04F00F0F7B80098012240000023CA
:10059000D0EB020263EBE073009821464FEAE0746F
:1005A000B8EB000061EB0401E9E783F000435BE78F
:1005B00081F0004158E700F0004230F000400AD0DE
:1005C000C10D01F56071C0F3160042EA0151C20885
:1005D00040071143704700200146704701F0004377
:1005E00030B421F0004150EA010206D00A0DA2F514
:1005F0006072C1F31301002A02DC30BC0020704796
:10060000440F44EAC104C100E01830BC00EBC25002
:1006100000F07AB830B50B460146002020220124B4
:1006200009E021FA02F59D4205D303FA02F5491BC0
:1006300004FA02F52844151EA2F10102F1DC30BDD6
:10064000202A04DB203A00FA02F100207047914092
:10065000C2F1200320FA03F3194390407047202A87
:1006600006DBCB17203A41FA02F043EAE07306E0DA
:1006700041FA02F3D040C2F12002914008431946EA
:1006800070473A2800D2303820F02002412A01D3A6
:10069000A2F13700884201D34FF0FF3070470000CD
:1006A000026811441378016018467047D16004490C
:1006B00051610449116200211161114600F002BA32
:1006C000A1060008B90A0008426842B1016811F8A1
:1006D000013B23B1521EC0E90012184670470121A8
:1006E000C160881E704742685AB1C368016843B947
:1006F00083688B4205D0491E521CC0E900120020BD
:1007000070474FF0FF3070470029A8BF7047401C6A
:10071000490008BF20F00100704710B4B0FA80FC17
:1007200000FA0CF050EA010404BF10BC704749B154
:10073000CCF1200421FA04F411FA0CF118BF0121C4
:1007400021430843A3EB0C01CB1D4FEA00614FEAA4
:10075000102042BF002010BC704700EBC350104473
:100760000029A4BF10BC7047401C490008BF20F0FE
:10077000010010BC704710B5141E73F1000408DAB4
:10078000401C41F1000192185B411A4301D120F055
:10079000010010BD2DE9F04D92469B4611B1B1FA12
:1007A00081F202E0B0FA80F220329046FFF748FF73
:1007B00004460F4640EA0A0041EA0B0153465A46F6
:1007C000084313D0114653EA010019D0C8F1400282
:1007D000504600F061F905460E46504659464246DD
:1007E000FFF72EFF084305D0012004E020463946DC
:1007F000BDE8F08D0020054346EAE0762C43374300
:100800000A986305E40AA0EB08000022FD0A44EA06
:1008100047540A3002D500200146E9E701051019C6
:100820006941DDE9084500196941BDE8F04DA2E7DD
:100830002DE9FE4F81EA030404F0004421F0004159
:1008400000944FF0000B23F0004350EA01045ED007
:1008500052EA03045BD0C3F30A54C1F30A552C4493
:10086000A4F2F3340194A0FB0254C1F3130141F448
:100870008011C3F3130343F4801301FB024400FB14
:10088000034E840A970A44EA815447EA8357A4FB3B
:10089000076802958D0A05FB07854FEA932C04FB38
:1008A0000C542705029D4FEA065847EA1637B5EB68
:1008B00008056EEB070C870E920E47EA811742EA95
:1008C0008312A7FB0201B6EB0B0164EB00042B0DB6
:1008D00043EA0C335E1844EB1C50DA465146E7FB02
:1008E0000201C5F313044FEA0B3343EA14534FEAF2
:1008F0000432019C43EA0603A4F10C040294009C18
:10090000CDE900B4FFF746FF03B0BDE8F08F00204B
:100910000146F9E72DE9F04D81EA030404F0004BAC
:1009200021F0004514464FF0000A23F0004150EA40
:10093000050220D054EA01021DD0C5F30A57024631
:10094000C5F31303C1F31300C1F30A5640F4801535
:1009500043F48013A7EB0608101BD64608F2FD38B7
:1009600073EB050002D308F1010801E092185B4126
:10097000B8F1000F03DA00200146BDE8F08D002039
:100980004FF48011064684460EE0171B73EB0507F3
:1009900005D3121B63EB050306434CEA010C49081F
:1009A0004FEA300092185B4150EA0107EDD152EA5C
:1009B000030012D082EA040083EA0501084305D04F
:1009C000101BAB4106D20122002306E000224FF0AB
:1009D000004302E06FF0010253101AEB06004CEBEB
:1009E000085110EB0A0041EB0B01BDE8F04DFFF799
:1009F000C2BE70B521F0004303430CD0C1F30A55C9
:100A00000024D5EB040564EB0403D617AD1AB341FB
:100A100002DB0020014670BD201841EB025170BD81
:100A20000EB5C10F80EAE0700844CA07002140F209
:100A300033438DE80E000A460B46FFF7ABFE03B0CA
:100A400000BD000030B5041E71F1000404DB4FF05E
:100A50000044404264EB0101141E73F1000405DB05
:100A60001C464FF00043524263EB0403994208BF17
:100A7000904230BD064C074D06E0E06840F00103AF
:100A800094E8070098471034AC42F6D3FFF792FB86
:100A9000D0680008F0680008202A04DB203A21FA18
:100AA00002F00021704721FA02F3D040C2F1200287
:100AB0009140084319467047C0B24FF4F05100F01E
:100AC000E9B900002DE9F34F8BB04FF0000801F1B8
:100AD0000C000C464FF0010B46460DF1080A019040
:100AE0006269012101989047051E2DD0252D2CD03B
:100AF000216A8847C0B16269012101989047216A43
:100B000088470028F7D1411E62690198904700E0AC
:100B1000761CA1690B988847216A88470028F7D17D
:100B2000E1690B988847DBE7A1690B98884707467E
:100B3000A84201D1761CD3E7E1690B9888477F1C56
:100B400002D1B8F1000F6FD046E1002762693D463F
:100B50003946019890472A2804D1626901210198F9
:100B600090470125DFF8849262690121019890473E
:100B7000A0F130010A290AD24F45E5DC07EB8701D5
:100B800000EB4107303FDFD445F01005ECE7E90604
:100B900001D46FF000476C280AD04C2814D0682884
:100BA00015D06A280DD074281CD07A281AD01DE0E0
:100BB00062690121019890476C2802D045F0040534
:100BC00014E045F002050DE045F020050AE06269F9
:100BD000012101989047682802D045F0080505E0FA
:100BE00045F400656269012101989047C4E9015705
:100BF00065283DD019DC58287AD00CDC452837D040
:100C000004DC252826D0412831D131E046282FD0D8
:100C100047282CD12CE05B2877D0612828D0632886
:100C20007CD0642823D15AE0D0E06F2848D008DC7B
:100C300066281DD067281BD0692821D06E2816D1C0
:100C400027E0702845D0732868D0752847D07828C9
:100C50000DD14DE0A1690B988847054625283FF442
:100C600069AFE1690B9888476D1C3FF46AAFB3E048
:100C700023466A466FF001000B99AFF300809EE0B7
:100C800045F040006060A80723464FF0000236D4CC
:100C90003EE0E8077FF447AF2068011D216000684F
:100CA000290501D506701BE7290701D5068017E73E
:100CB000A90703D5F117C0E9006111E706600FE746
:100CC00045F040006060A80723464FF0080216D4A4
:100CD0001EE040F60E0125EA0100606016E045F0D6
:100CE00040006060A80723464FF00A0207D40FE0D7
:100CF00045F040006060A80708D5234610226FF039
:100D000001000B99AFF3008059E007E02346102261
:100D10006FF001000B99FFF701FB50E04FF0000965
:100D20004F464B46632802D05B2806D040E0E806D9
:100D300001D40120A06001273AE0626901210198F5
:100D400090475E2805D14FF0010962694946019834
:100D50009047216939B900210A46534643F82120BA
:100D6000491C0829FADBB0B3216969B9C11700EB46
:100D7000D16253110AEB830122F01F02821A012073
:100D80000B68904003430B60626901210198904712
:100D90005D28E8D1B9F1000F09D00020514651F883
:100DA0002020D24341F82020401C0828F7DB02AB6A
:100DB000224600976FF001000B99AFF300800028E6
:100DC0000CDA401C08D1BBF1000F05D04FF0FF300A
:100DD0000DB0BDE8F08FFFE74046F9E7E90701D124
:100DE00008F1010806444FF0000B79E6CCCCCC0C9E
:100DF0002DE9F04D00231A461B1A8A4103DB00201F
:100E00000146BDE8F08DC1F30A52C1F3130141F46C
:100E100080154FF0000BD10702D100186D41521E12
:100E20000027044640F2FF11384601EB620A3E46B5
:100E30008046024600204FF48011FFF72DFEC219B4
:100E40007141BB1846EB0100B4EB030C75EB000CD1
:100E500004D3E41A65EB000517460E46241908F181
:100E600001006D4180463428E3DDF91946EB0600A8
:100E7000091BA84103D24FF0FF32134601E00022C4
:100E800013461BEB070046EB0A51BDE8F04DFFF798
:100E900072BC00007F2801D9002208E0064A02EB5C
:100EA0005002C007127800D1120902F00F0201208F
:100EB00090400840704700009068000810B5044852
:100EC00001F0B2FFBDE810400821024802F000B86E
:100ED00060E316003400002003B583B000200090CA
:100EE00001909FED070A694603A800F06DFF9FED92
:100EF000050A01A904A800F067FF05B000BD0000C5
:100F00009A99193FCDCCCC3E0FB44248F0B501259B
:100F1000059FBDF81F20BDF82110BDF823309DF8B6
:100F20002560A7F2012700F59874072F13D2DFE898
:100F300007F00415191D2C42580052BA028049BA14
:100F4000418059BA8180C68080F84650B0F8481078
:100F5000491CA0F84810F0BC5DF814FB52BA20F808
:100F60004C2F06E052BA20F8982F02E052BA20F82F
:100F7000E42F49BA418059BA8180C68080F8465032
:100F800030F8481F491C0180E5E750BA208048BA74
:100F90006080002001F08CFAB4F90000B4F964100C
:100FA00000EB4130206684F87250B4F87400401CA5
:100FB000A4F87400CFE750BAA4F8780048BAA4F8AF
:100FC0007A000120CC3401F073FA34F9540CB4F9EE
:100FD000101000EB4130E060A577208C401C20848D
:100FE000B9E70D4C50BA208048BA608058BAA0804A
:100FF000002001F03DFAB4F90000B4F9641000EBF0
:101000004130206684F87650B4F87800401CA4F88B
:101010007800A0E7F401002014040020FEE700009F
:10102000F0B589B00121082001F0E2FB012148065A
:1010300001F0EAFB02268DF820608DF82160002483
:101040002B4F8DF823408DF8224007A9384607968C
:1010500000F0CCFE09220121384600F018FF0125DE
:1010600007A93846079500F0C1FE0922002138463D
:1010700000F00DFF8DF806408DF807508DF80460E4
:1010800004208DF808508DF802408DF805008DF889
:1010900009408DF803400520164E8DF80A40ADF842
:1010A00000008DF80B406946304600F06FF98DF86E
:1010B00016408DF817408DF81850ADF80C40ADF87B
:1010C0001040ADF814408DF81950ADF80E40ADF851
:1010D000124003A800F098F800220A21142001F021
:1010E000A7FA01220221304600F048F909B0F0BD0C
:1010F000000C02400064004010B586B00020124C85
:1011000005900221204600F0E5F8002819D06A4633
:101110000021204600F0AEF90C48002305AA6946DC
:10112000006804F0D5FF059838B109494FF08050A8
:101130000860BFF34F8FBFF36F8F0221204600F08E
:1011400027F806B010BD0000006400400C0000202D
:1011500004ED00E00C4C0D4F86B04FF0FF354FF41E
:10116000007600232A4601A9606804F0D5FD0598A1
:101170000DF1040C00909CE80F00FFF7C5FE31460E
:10118000384600F098FEECE708000020001002400E
:1011900030B5082310240422B1F5007F1DD010DCE7
:1011A000202929D007DC012921D0042922D00829AF
:1011B00000D1C46030BD402920D0B1F5807FF9D185
:1011C0000BE00025B1F5004F06D008DCB1F5806FCB
:1011D00003D0B1F5006FEDD18561426030BDB1F54E
:1011E000803F0DD0B1F5003FF8D1446030BD0549D6
:1011F000816030BDC36030BD036130BD046130BD6E
:10120000436030BD01010100F0B5827A01219140B7
:101210002E4A136843F0010313602C4B1C331C68E7
:101220008C431C60294D067B294C0C35A6B92E68D1
:101230008E432E604688C78846EA0746877A04EBC5
:10124000C707C7F840660688878846EA0746877A50
:1012500004EBC707C7F84466067B012E12D12E683F
:101260000E432E60867A056804EBC6064FEA3545C4
:10127000C6F84056867A456804EBC6044FEA354501
:10128000C4F84456114CC57A241D002D256806D09B
:101290000D4325600D4C0589143415B104E08D43D0
:1012A000F7E725688D4325600589012D02D1256862
:1012B0000D432560407B012802D11868084318605F
:1012C000106820F001001060F0BD000000660040D2
:1012D000006000400246002053690B424AD0B1F53D
:1012E000807F3BD013DC08292ED007DC012926D0D3
:1012F000022927D004293DD1D0682BE0102925D020
:10130000202926D0402935D11069102130E0B1F5CF
:10131000004F2BD00BDCB1F5007F22D0B1F5806FF0
:1013200022D0B1F5006F25D19069702120E0B1F590
:10133000803F11D0B1F5003F1CD15068E5E79068BF
:101340000D4915E0D06802E0D068DEE7106903219E
:101350000EE0106908210BE05068FBE7906901215D
:1013600006E09069022103E0906900E050680421E2
:1013700000F0CABA7047000001010100002A42696A
:1013800001D00A4300E08A434261704710B5036808
:10139000002223F002030360036843F001030360AB
:1013A0004FF6FF7300E0521C4468E40701D19A42F3
:1013B000F9D14268D2073ED08A79012A02683CD02E
:1013C00022F080020260CA79012A026838D022F035
:1013D000400202600A7A012A026834D022F0200218
:1013E00002604A7A012A026830D022F010020260BC
:1013F0008A7A012A02682CD022F008020260CA7A96
:10140000012A026828D022F0040202608A78CC788F
:10141000920742EA04620C7942EA04424C79098854
:1014200042EA0452491E0A43C261016821F00101E7
:101430000160002114E0002010BD42F08002C1E7ED
:1014400042F04002C5E742F02002C9E742F0100234
:10145000CDE742F00802D1E742F00402D5E7491C8B
:101460004268D20701D09942F9D14068C007E2D161
:10147000012010BD10B500EB0113D3F8B04114F0FA
:1014800004041472D3F8B04134D0E408C2F8044024
:10149000D3F8B04104F002045472D3F8B44104F01C
:1014A0000F049472D3F8B441240AD474D3F8B84129
:1014B000D472D3F8B841240A1473D3F8B841240C79
:1014C0005473D3F8B841240E9473D3F8BC41D47349
:1014D000D3F8BC41240A1474D3F8BC41240C5474CE
:1014E000D3F8BC311B0E937439B1016941F020016E
:1014F000016110BD640D1460CAE7C16841F02001AC
:10150000C16010BD30B585B0B1B101928DF8081041
:1015100000218DF8091008218DF80A1000216A4673
:101520005C5C5518491CC9B2EC720829F8D3114605
:1015300000F022F805B030BD0092E7E71CB5142199
:101540000022084604F0AAFB0549002380224860D7
:101550000420CDE9000103A1064804F073FE1CBD80
:101560000800002043414E5F52656365697665540B
:1015700061736B005511000830B502460020936876
:101580005B0108D49068000101D5012003E0906858
:10159000C00037D5022002EB0012D2F8803103F0F0
:1015A0000103C2F880310B7A73B3D2F880414D68E1
:1015B0001C434B7A43EAC5031C43C2F880418B7A33
:1015C00003F00F038B72D2F8843123F00F03C2F8BB
:1015D0008431D2F884318C7A2343C2F88431CB7AB7
:1015E000CC6843EA0423C2F88831CB7B096943EA1B
:1015F0000121C2F88C11D2F8801141F00101C2F82A
:10160000801130BD042030BDD2F880314C7A2343A4
:101610000C8843EA4453C2F88031D0E708B5002073
:10162000084C094E4FF400550090207800F086F8E1
:101630002946304600F03FFC0A21684604F074F861
:10164000F3E70000A8010020001002401CB5040AC6
:101650008DF800408DF80100080A8DF80200100A8C
:101660008DF804008DF80520180A8DF806008DF815
:1016700003108DF807306B464FF4007200210248CA
:10168000FFF740FF1CBD00000064004070B5274814
:101690009FED250A4FF47A742DED028BE5009FED46
:1016A000248A80ED010A22462946B0EE481AF7EE58
:1016B000080AB0EE040A1F4800F02AFD1D48224621
:1016C0002946B0EE481AF7EE080AB0EE040A4C308C
:1016D00000F01EFD174822462946B0EE481AF7EEE4
:1016E000080AB0EE040A983000F012FD11482246B4
:1016F0002946B0EE481AF7EE080AB0EE040AE430C4
:1017000000F006FDF0EE480A6210BDEC028B41F2DB
:101710009411BDE870400548B2EE0B1A9FED060A21
:10172000143001F04FB800000AD7233DA801002073
:1017300000000000FC010020666646409FED0F0A95
:101740000128F0EE400AB0EE401A14D0022812D060
:10175000032810D10A49DFED0B0AD1ED001A91EDF3
:10176000012A81EEA00ADFED081AC2EE202A20EE3F
:10177000210A62EEA10A00F009B800000000000092
:1017800058010020000025440040CE4571B50546B3
:101790002DED040B2DED028B83B09FED538A534C3E
:1017A00005A804F1080194ED010A00F002FB94ED94
:1017B000010A04F10C0106A800F0FBFA94ED010AFD
:1017C00004F1100107A800F0F4FA012D58D0022D01
:1017D00056D0032D54D1464884ED108AD0ED180A16
:1017E000B8EEE01A9FED430A31EE401AB5EEC01A8A
:1017F000F1EE10FAB8EEE01A02DD31EE401A01E027
:1018000030EE411A3C4911EE100A884218DCDDED39
:10181000061AF5EEC01AF1EE10FA01DCF1EE611ACB
:101820009DED051AB5EEC01AF1EE10FA01DCB1EE2D
:10183000411A324931EE811A11EE100A88420BDD4D
:101840002A48F8EEE00A143000F052FF00EE100AC9
:10185000B8EEC00A84ED100A24499FED290A4431EC
:10186000081F00F0A6FA94ED040AD4ED110A6846A8
:1018700030EE201AD4ED030A94ED020A00F038FE8F
:10188000204D002606EB460000EB061005EB800419
:1018900094F84600012815D13DF91600A4F840003F
:1018A000B4F9021000EE101AF8EEC00A00EE100AA9
:1018B00004F10800B8EEC00A00F0C0FB24F8440FA1
:1018C0000020A070761C042EDCDBB5F92831B5F9B8
:1018D000DC20B5F99010B5F94400FFF7B7FE03B06E
:1018E000BDEC028B05B070BD00000000A801002017
:1018F00024030020007073450000A0410000A040B8
:10190000CDCCCC3DF4010020024600200A4200D09C
:10191000012070471CB50F480224CDE90040002388
:1019200080220DA1104804F08DFC0A480023001D00
:10193000CDE9004080220DA1104804F083FC054849
:1019400000230830CDE9004080220DA1104804F0AA
:1019500079FC1CBD28000020446576696365735FCF
:101960005461736B000000009D1D00084C45445FEE
:101970004C696768745461736B0000006123000850
:1019800043686173736963616C5F5461736B0000DA
:101990001D1600080029016802D041F0010101E094
:1019A00021F00101016070472DE9F043016821F049
:1019B000010101600021016041608160C16001613D
:1019C000212141613C493C4A3D251039904202D1D8
:1019D0008D60BDE8F083384A4FF474661832904247
:1019E00001D18E60F5E7344A4FF4741730329042DB
:1019F00001D18F60EDE7304A4FF0746C483290426D
:101A000002D1C1F808C0E4E72B4B2C4A603398425E
:101A100001D1CA60DDE7284C294B7834A04201D1BE
:101A2000CB60D6E7DFF89080264C08F1900840455F
:101A300001D1CC60CDE7DFF880804FF03D5908F14F
:101A4000A808404502D1C1F80C90C2E71E49DFF852
:101A500078800839404501D10D60BAE71A4D183534
:101A6000A84201D10E60B4E7174D3035A84201D12C
:101A70000F60AEE7144D4835A84202D1C1F800C04E
:101A8000A7E7114D10496035091FA84201D10A602E
:101A90009FE70D4A7832904201D10B6099E70A4ADC
:101AA0009032904201D10C6093E7074AA8329042ED
:101AB0008FD1C1F800908CE7106002403D000020FB
:101AC000400F002000003D2010640240014600202D
:101AD0000968C90700D001207047406880B270478C
:101AE00030B50368124ACC6813400A682243D1E932
:101AF00005452C432243CC6922430C6A22434C6A9D
:101B000022438C6A22434C6B22438C6B22431A4340
:101B10000260426922F00703D1E90B2422431A43F1
:101B200042610A6942604A6882608968C16030BD6A
:101B30003F801CF04160704710B5044801F08EF8FA
:101B4000BDE810401421024801F0DCB8A086010075
:101B5000280100200022CA808A8008804B88984291
:101B600005D008B1C88003E08B800A8107E038B156
:101B70004B895B1C9BB24B81322B01D908814A8176
:101B8000488070472DE9F04100287DD001884B4CFA
:101B9000C1F30A01218042788378D20842EA4312D5
:101BA000C2F30A0565808278C378920942EA83020B
:101BB0000379A5F5806542EA8322C2F30A06A6806E
:101BC00002794379520842EAC312C2F30A03E3805E
:101BD000028AA6F58066C2F30A0222814779A3F53C
:101BE0008063BF09A7724779A2F58062C7F3011726
:101BF000E772C788A7810789E78147892782077B22
:101C0000A774477BE774C089A082A1F5806020801B
:101C10006580A680E380228100F054F82080B4F92A
:101C2000020000F04FF86080B4F9040000F04AF8B8
:101C3000A080B4F9060000F045F8E080B4F908008F
:101C400000F040F800B200EE100A2081B4F9020062
:101C5000B8EEC02A00EE100AB4F90000F8EEC01A7F
:101C600000EE100AB4F90400B8EEC01A404200EECB
:101C7000100AB4F90600F8EEC00A00EE100A04F1EA
:101C80001C00B8EEC00A00E016E000F01FFEA07CC9
:101C900004F15401FFF75EFFE07C04F16001FFF7FF
:101CA00059FFA08A04F14801FFF754FFE08A044974
:101CB000401CE082E07A0870BDE8F0813C01002021
:101CC000A801002010B5044600EE104AB8EEC00A84
:101CD00002F0FCFD10EE100A0249884200DA0024EE
:101CE000204610BD0000A0417047000030B5002123
:101CF000254C01224FEA010001EB410303EB0113E4
:101D000004EB8303B3F84850052D02D283F84A2030
:101D100001E083F84A00491CA3F848000429EBDBE2
:101D20001A4C0021C1EB011304EBC303B3F8745048
:101D3000052D02D283F8762001E083F87600491C55
:101D4000A3F874000229EDDB1149B1F87830052BB6
:101D500002D281F87A2001E081F87A00A1F87800B7
:101D60000C49CB8A052B01D20A7600E00876C8829E
:101D700009498B8C052B02D281F8262001E081F8DD
:101D80002600888430BD0000F401002024030020D8
:101D9000140400203C0100200001002008B50020B0
:101DA000CDF80000FFF7A2FFC821684603F0BCFC95
:101DB000F8E790ED001AD1ED000A31EE601A40EE1E
:101DC000010AC1ED000A704702680868121A00EEA5
:101DD000902AB8EEE01A00EE900AF8EEE00A40EE23
:101DE000010ABDEEE00A81ED000A7047F0B500235C
:101DF000012403270D6804FA03F21540954242D1ED
:101E0000D0F800C05E0007FA06F52CEA050CC0F811
:101E100000C091F804C0D0F800E00CFA06FC4CEACF
:101E20000E0CC0F800C091F804C0BCF1010F02D044
:101E3000BCF1020F1FD1D0F808C02CEA050CC0F885
:101E400008C091F805C0D0F808E00CFA06FC4CEA8E
:101E50000E0CC0F808C0D0F804C02CEA020CC0F880
:101E600004C0426891F806C00CFA03FC1FFA8CFC0F
:101E700042EA0C024260C268AA43C260CA79C568DD
:101E8000B2402A43C2605B1C102BB3D3F0BD4B079A
:101E9000DB0E9A40C90810B500EB8100016A0F24DF
:101EA0009C40A1430162016A1143016210BD41835C
:101EB00070470183704742694A40426170470AB1E6
:101EC000018370474183704700221146435C491CDF
:101ED0001A44C9B2D2B21129F8D3407C904201D140
:101EE0000120704700207047FEE7000010B54FF456
:101EF000E13001F0B1F8BDE810401E21014801F0C9
:101F0000FFB80000E00000202DE9F04114468846AB
:101F10000746002587E0785D5A287DD17E197078C4
:101F20005A287ED13046FFF7CFFF002879D07919A3
:101F3000DFED3F0A8988338949BA0AB200EE102AD8
:101F40005BBA7589B8EEC01A1BB2F18863F30F0053
:101F500081EE200A6DBA65F31F4049BAB589F78949
:101F600009B2000C6DBA2DB27FBA3FB284ED000AFF
:101F700000EE101A3049B8EEC00A80EE201A00EECA
:101F8000103AB8EEC00A84ED011A80EE201A00EE75
:101F9000100A84ED021AB8EE401A81EE200A01EE12
:101FA000105AB8EEC11AC1EE201A01EE107A84ED73
:101FB000050AB8EEC11AC4ED031AC1EE201AC4ED29
:101FC000041A307C84F82200B4F92000DFED191ADD
:101FD00000EE900AB8EEE01AF0EE400A41EE210A57
:101FE000C4ED070AD4ED060A30EE601A11EE102A8D
:101FF0008A4201D9401C208470EEC00A10EE900A7B
:10200000884202D9208C401E208484ED060AA08CD0
:10201000401CA084012000E003E084F82300BDE818
:10202000F0816D1CADB24545FFF475AFF7E70000D8
:102030000000C8420000B443000096C310B5044637
:102040002DED028B82B080EC020A30EE600A80ED4A
:10205000020A02F03BFC10EE100A2B49884202DB18
:1020600094ED020A03E09FED290A84ED020AD4ED03
:10207000030AD4ED051A684630EE601A21EE218A73
:1020800094ED061A21EE001A8DED001AB0EE001A3A
:1020900000EEC10AD4ED040A30EE200AD4ED070A9E
:1020A00060EE208A94ED0D0AB8EE400A00F048F880
:1020B0009DED000A04F1200038EE000A30EE280AF7
:1020C00084ED090AD4ED0B0A30EE800A84ED0A0A89
:1020D00084ED080A84ED0B0A94ED0C0AB8EE400A70
:1020E00000F0F0FA94ED030A84ED040A94ED020A7C
:1020F00084ED030A94ED080A02B0BDEEC00ABDECFF
:10210000028B10EE100A10BDCDCC4C3E000000003A
:10211000DFED0A1A00F11403C0ED001AC0ED011A38
:10212000C0ED021AC0ED031AC0ED041A83EC030AD5
:10213000C0E90C12C0ED081A704700000000000052
:10214000D0ED000AF4EEC00AF1EE10FA01DD80EDE8
:10215000000AD0ED000AB1EE400AF4EEC00AF1EE3A
:1021600010FA01D280ED000A704700007CB5012111
:10217000402000F03DFB01208DF8040000208DF888
:1021800006008DF80700074D8DF805004FF4005448
:10219000694628460094FFF729FE21462846FFF7A6
:1021A00088FE7CBD001802402DE9FC5F01217220F1
:1021B00000F01EFB01208DF8040000208DF80600C1
:1021C0008DF80700634E8DF80500102469463046EF
:1021D0000094FFF70BFE2025694630460095FFF777
:1021E00005FE012210213046FFF769FE0122202161
:1021F0003046FFF764FE0220574E00906946304695
:10220000FFF7F4FD0420009069463046FFF7EEFD2D
:102210000820009069463046FFF7E8FD69463046E1
:102220000094FFF7E3FD694630460095FFF7DEFDB9
:102230004020009069463046FFF7D8FD802000908E
:1022400069463046FFF7D2FD2401694630460094C6
:10225000FFF7CCFD012202213046FFF730FE0122BC
:1022600004213046FFF72BFE012208213046FFF7FC
:1022700026FE012210213046FFF721FE01222021F7
:102280003046FFF71CFE012240213046FFF717FEC3
:10229000012280213046FFF712FE012221463046FE
:1022A000FFF70DFEDFF8B4B06400694658460094AD
:1022B000FFF79CFD6500694658460095FFF796FDBF
:1022C0004FF4006969465846CDF80090FFF78EFD3F
:1022D000E600694658460096FFF788FD4FF4005A1D
:1022E00069465846CDF800A0FFF780FD67016946B2
:1022F00058460097FFF77AFD4FF400486946584664
:10230000CDF80080FFF772FD012221465846FFF705
:10231000D6FD012229465846FFF7D1FD0122494644
:102320005846FFF7CCFD012231465846FFF7C7FD5E
:10233000012251465846FFF7C2FD01223946584650
:10234000FFF7BDFD012241465846FFF7B8FDBDE845
:10235000FC9F0000000402400018024000100240F0
:1023600008B500204FF40074404D6600A7004FF4FC
:1023700080584FF400594FF4804A4FF4004B0090BE
:1023800021462846FFF793FD0521684603F0CCF966
:1023900031462846FFF78BFD0A21684603F0C4F951
:1023A00039462846FFF783FD0F21684603F0BCF944
:1023B00041462846FFF77BFD1421684603F0B4F937
:1023C00049462846FFF773FD1921684603F0ACF92A
:1023D00051462846FFF76BFD1E21684603F0A4F91D
:1023E00059462846FFF763FD2321684603F09CF910
:1023F00021462846FFF75DFD0521684603F094F964
:1024000031462846FFF755FD0A21684603F08CF94E
:1024100039462846FFF74DFD0F21684603F084F941
:1024200041462846FFF745FD1421684603F07CF934
:1024300049462846FFF73DFD1921684603F074F927
:1024400051462846FFF735FD1E21684603F06CF91A
:1024500059462846FFF72DFD2321684603F064F90D
:1024600040F24C41684603F05FF989E700100240F2
:10247000C0EB40120C4810B530F9221000EB82007E
:102480000A4C026F8B1AA34204DAB0F864305B1C6A
:10249000A0F86430521AA24204DAB0F86420521E46
:1024A000A0F86420016710BD1404002090E8FFFF2D
:1024B000C0EB00120C4810B530F9321000EBC2002E
:1024C0000A4CC26E8B1AA34204DAB0F864305B1C6B
:1024D000A0F86430521AA24204DAB0F86420521E06
:1024E000A0F86420C16610BD2403002090E8FFFF1F
:1024F0001FB510EE103A4949F7EE002ADFED481AF1
:10250000484A9FED492A8B4202D3B0EE610A05E0AA
:1025100010EE103A934201DBB0EE420A10EE903A10
:102520008B4202D3F0EE610A05E010EE903A93423E
:1025300001DBF0EE420A11EE103A8B4202D3B0EE0C
:10254000611A05E011EE101A914201DBB0EE421A59
:1025500030EE202A70EE601A00210A4632EE012A7F
:1025600071EE811A4FEA0D03CDEC021A30EEC02A4B
:10257000B1EE400A30EE600A32EE012A30EE010A76
:102580008DED022A8DED030A03EB810494ED000A20
:10259000B5EEC00AF1EE10FA02DDF0EE400A01E0FD
:1025A000F1EE400A01EE102AB8EE411AF4EEC10A2B
:1025B000F1EE10FA0BDDB5EEC00AF1EE10FA01DC17
:1025C000B1EE400ABCEEC00A10EE102AD2B2491C8D
:1025D000C9B20429D8D321EEA20ABDEEC00A10EE7A
:1025E000101A01809DED010A20EE220ABDEEC00AFC
:1025F00010EE101A41809DED020A20EE220ABDEE77
:10260000C00A10EE101A81809DED030A20EE220A06
:10261000BDEEC00A10EE101AC1801FBD0040CEC52D
:102620000040CEC50040CE450040CE45FEE7704795
:1026300008B58DF800008DF801108DF802200120FA
:102640008DF80300684600F001F808BD30B50F2290
:10265000C47801780123FCB1144C246801F1E02115
:1026600004F4E064C4F5E064C4F30724C4F1040591
:10267000E2404478AC408578154025432A0181F832
:102680000024007800F01F018B404009800000F119
:10269000E020C0F8003130BD01F01F008340480940
:1026A000800000F1E020C0F8803130BD0CED00E08A
:1026B0000249084302490860704700000000FA051B
:1026C0000CED00E0D0ED000AF4EEC00AF1EE10FAD5
:1026D00001DD80ED000AD0ED000AB1EE400AF4EE13
:1026E000C00AF1EE10FA01D280ED000A7047000036
:1026F00010B504462DED028B82B080EC020A30EE5C
:10270000600A80ED020AB5EEC00AF1EE10FA02DDB1
:10271000F0EE400A01E0F1EE400A10EE900A27497F
:10272000884205DAD4ED040A70EE800AC4ED040A8A
:1027300002F0CCF810EE100AB0F17C5F03DA9FEDE6
:10274000200A84ED020AD4ED050A94ED020A94ED04
:10275000041A684660EE808AD4ED060A60EE810AAB
:10276000CDED000AD4ED030A30EE600AD4ED070A7D
:1027700020EE208A94ED0A0AB8EE400AFFF7E0FC4A
:102780009DED000A04F1200038EE800A30EE080AC0
:1027900084ED080A94ED090AB8EE400AFFF792FFAB
:1027A00094ED020A84ED030A94ED080A02B0BDEE2E
:1027B000C00ABDEC028B10EE100A10BD0000A04153
:1027C00000000000DFED091A00F11403C0ED001A4B
:1027D000C0ED011AC0ED021AC0ED031A83EC030A22
:1027E000C0E90912C0ED081A70470000000000009F
:1027F000044A0029116801D0014300E081431160BF
:102800007047000030380240044A0029116801D0A6
:10281000014300E0814311607047000040380240EE
:10282000044A0029116801D0014300E0814311608E
:10283000704700004438024070B5204A1168204CAF
:1028400011F00C0104D01F4E042903D0082903D035
:1028500004601BE0066019E01849091F0B68C3F308
:1028600080550B6803F03F0315B1B6FBF3F301E0AD
:10287000B4FBF3F30C680968C4F388146343C1F331
:102880000141491C4900B3FBF1F1016011680F23BC
:1028900003EA11110C4B5C5C0168E1404160146873
:1028A000072505EA94241C5D21FA04F4846012686B
:1028B00005EA52329A5CD140C16070BD08380240CE
:1028C0000024F400001BB700B400002010B504463B
:1028D0002DED048BB0EE608A80ED000A80ED018A58
:1028E00080ED051AC0ED061A10EE100AFDF763FE22
:1028F00041EC190B18EE100AFDF75DFE41EC100BD0
:10290000B0EE491AF0EE691A00F0F6FE51EC100B29
:10291000FDF764FEA0606069FDF74DFE41EC180B09
:10292000A069FDF748FE41EC100BB0EE481AF0EE3E
:10293000681A00F0E1FE51EC100BFDF74FFE00EEBF
:10294000900AC4ED070A94ED021A9FED3F0A61EE6A
:10295000001A9FED3E1A20EE800A81EE812AC0EE19
:10296000010A84ED032AC4ED080A6068FDF723FE1E
:102970009FED378B41EC100BB0EE481AF0EE681A61
:1029800000F0B2FFB0EE402AF0EE602AB0EE429ABC
:10299000F0EE629A2068FDF70EFE41EC100BB0EEEF
:1029A000481AF0EE681A00F09FFF53EC192B51EC17
:1029B000100BFDF759FDFDF711FE00EE100AF1EEC8
:1029C000C00AC4ED040AA069FDF7F5FD41EC100B47
:1029D000B0EE481AF0EE681A00F086FFB0EE402A1A
:1029E000F0EE602AB0EE429AF0EE629A6069FDF76E
:1029F000E2FD41EC100BB0EE481AF0EE681A00F060
:102A000073FF53EC192B51EC100BFDF72DFDFDF767
:102A1000E5FD00EE900A1048B1EEE00A84ED090AE7
:102A2000E168814205DDD4ED040AF1EE600AC4EDEF
:102A3000040A216A814203DDB1EE400A84ED090AED
:102A4000BDEC048B10BD000000003443DB0F494097
:102A50000000000000000040000034431CB50020CE
:102A60002E49019000900A6842F480320A604FF4C7
:102A7000A0430A6802F400320092019A521C0192AB
:102A8000009A12B9019A9A42F3D10A68920342D588
:102A90000120009021484030026842F080520260DC
:102AA0001F48026842F4404202601C4A0832136820
:102AB0001360136843F400431360136843F4A05396
:102AC0001360141F174B23600B6843F080730B6077
:102AD0000B689B01FCD5016841F4803101604168BD
:102AE000C903FCD5016841F40031016041688903E4
:102AF000FCD50D4940F205700860106820F0030015
:102B00001060106840F0020010601068C0F381008F
:102B10000228FAD11CBD00901CBD00000038024004
:102B2000007000400C5A4007003C024010B503F012
:102B3000B5FB012803D0BDE8104003F099B810BDE3
:102B4000124810B5016841F4700101601048016835
:102B500041F0010101600E4A002108321160026853
:102B60000C4B1A400260031D0B4A1A60026822F4E3
:102B70008022026006480C300160FFF76FFF0349B6
:102B80004FF000608039086010BD000088ED00E063
:102B900000380240FFFFF6FE1030002470470000AE
:102BA00010B54FF44070FFF783FD02F035FCFEF7DF
:102BB00037FAFFF7F9FAFFF7D9FAFEF7BDFFFFF78B
:102BC00095F9C82002F078FDFEF778F9FEF75EFD72
:102BD000FEF7B4FC00F0A0FBFEF79CFE0348006883
:102BE00002F0F6FDBDE8104002F054BC04000020E5
:102BF00038B50020144C009040F22441204600F0EB
:102C0000FAFA00281FD0114D00212846FEF7C2FE17
:102C10002846FEF762FF02280FD10E4800236A46BD
:102C20000B49006803F054FA009830B10A492004B7
:102C30000860BFF34F8FBFF36F8F01212846FEF767
:102C4000A9FEA088208838BD0010014040640240E1
:102C5000280100201400002004ED00E070B50546B6
:102C600086B001210220FFF7C3FD01211020FFF7EC
:102C7000D7FD02208DF804008DF8050001208DF8A5
:102C8000070040201D4E002400908DF80640694644
:102C90003046FFF7ABF88020009069463046FFF7DA
:102CA000A5F8072206213046FFF7F1F80722114662
:102CB0003046FFF7ECF8ADF80C40ADF80E40ADF83B
:102CC0001040ADF814400C200D4CADF812000295E8
:102CD00002A9204600F0C6FA002207212520FFF7AE
:102CE000A7FC012240F22441204600F0A3FA012172
:102CF000204600F067FA06B070BD000000040240F4
:102D00000010014070B50D460646012190B08805BF
:102D1000FFF76EFD194C2046FEF746FE2046FEF7F3
:102D2000D5FE0028FAD14FF0006000900022CDE9D6
:102D300003251348CDE901060015CDE905208010D3
:102D4000CDE908200002CDE90A0207920C920D920B
:102D5000694620460E92FEF7C3FE01212046FEF78B
:102D600019FE2046FEF7B2FE0128FAD104480122DE
:102D70004021001F00F030FA10B070BD40640240E6
:102D8000041001400A4C0B4F86B04FF0FF354FF452
:102D9000806600232A466946606802F0BDFF6846E7
:102DA000FEF7F0FE31463846FFF785F8F1E7000000
:102DB000100000200010024038B50020154C009093
:102DC00040F22441204600F016FA002820D0124D8F
:102DD00000212846FEF7DEFD114800236A460F4910
:102DE000006803F075F9009830B10E49A00408603E
:102DF000BFF34F8FBFF36F8F08212846FEF79AFE6F
:102E000001212846FEF7C6FD0248001D00882088E3
:102E100038BD0000004400408860024034000020BB
:102E20001C00002004ED00E070B5054686B00121CD
:102E30000820FFF7DDFC01214804FFF7E5FC002432
:102E40008DF8064001208DF8070002208DF805005E
:102E50008DF8040020201C4E009069463046FEF795
:102E6000C5FF4020009069463046FEF7BFFF0722AD
:102E700005213046FFF70BF8072206213046FFF701
:102E800006F8ADF80C40ADF80E40ADF81040ADF8C6
:102E900014400C200D4CADF81200029502A92046FA
:102EA00000F0E0F9002208212620FFF7C1FB0122F3
:102EB00040F22441204600F0BDF90121204600F0F7
:102EC00081F906B070BD0000000C024000440040D3
:102ED00070B50D460646012190B04805FFF788FC05
:102EE000194C2046FEF760FD2046FEF7EFFD002856
:102EF000FAD14FF0006000900022CDE9032513487D
:102F0000CDE901060015CDE905208010CDE90820A6
:102F10000002CDE90A0207920C920D926946204602
:102F20000E92FEF7DDFD01212046FEF733FD20461F
:102F3000FEF7CCFD0128FAD1044801224021001FF0
:102F400000F04AF910B070BD8860024004440040AF
:102F500086B0184D184C194EDFF864904FF0FF37CB
:102F60004FF4805800233A4602A9E86802F0D4FEE4
:102F70002078532801D04E28F4D101AB6A4611A124
:102F800002A8FDF7AFF902280ED004AA0FA102A8EB
:102F9000FDF7A8F90128E5D10498B042E2D14146F5
:102FA0004846FEF788FFDDE7DDE90001FDF794FF05
:102FB000F5E70000100000203400002040420F0020
:102FC000001002405325642C256400004E25640047
:102FD0007047000038B50020194D009040F22441A0
:102FE000284600F008F9002828D0164C0021204679
:102FF000FEF7D0FC2046FEF770FD1349C0F11E001D
:103000000023088012486A461049006803F060F8FF
:10301000009838B10F494FF080500860BFF34F8FD0
:10302000BFF36F8F1E212046FEF784FD012120464D
:10303000FEF7B0FC0248001D0088288838BD00005B
:10304000001401402864024000000020E00000203D
:103050002400002004ED00E070B5054686B0012193
:103060000420FFF7C5FB01212020FFF7D9FB002436
:103070008DF8064001208DF8070002208DF805002C
:103080008DF8040040201C4E009069463046FEF743
:10309000ADFE8020009069463046FEF7A7FE08226C
:1030A00006213046FEF7F3FE082207213046FEF7E0
:1030B000EEFEADF80C40ADF80E40ADF81040ADF8A6
:1030C00014400C200D4CADF81200029502A92046C8
:1030D00000F0C8F8002208214720FFF7A9FA0122D2
:1030E00040F22441204600F0A5F80121204600F0DE
:1030F00069F806B070BD00000008024000140140ED
:1031000070B50D460646012190B08805FFF770FBAB
:10311000194C2046FEF748FC2046FEF7D7FC002855
:10312000FAD14FF0206000900022CDE9032513482A
:10313000CDE901060015CDE905208010CDE9082074
:103140000002CDE90A0207920C920D9269462046D0
:103150000E92FEF7C5FC01212046FEF71BFC20461F
:10316000FEF7B4FC0128FAD1044801224021001FD7
:1031700000F032F810B070BD286402400414014021
:103180000C4C0D4DDFF8348088B04FF0FF364FF413
:103190000067002332466946606902F0BDFD084AB7
:1031A00029886846FEF7B0FE39464046FEF783FEA2
:1031B000EFE7000010000020000000200010024097
:1031C000000100200029818902D041F4005101E072
:1031D00021F4005181817047002A828A01D00A437C
:1031E00000E08A43828270470246002012880A4229
:1031F00000D00120704730B501F01F0201240025E6
:10320000C1F3421304FA02F2012B0FD0022B0FD0AC
:10321000838A4FEA11210088134204FA01F400EA7C
:10322000040001D000B10125284630BD8389F0E7B4
:10323000038AEEE710B5C1F3421301F01F04012128
:10324000A140012B07D0022B07D01430002A0268BE
:1032500005D00A4304E00C30F8E71030F6E78A4363
:10326000026010BD7FB50446008A0D4620F440512F
:10327000E88808432082A08941F20C618843A9882C
:103280002A8911436A8902431143A181A08A20F44B
:103290004071A8890843A0826846FFF7CDFA1A4812
:1032A000844202D01948844201D1039800E0029878
:1032B000A189090400EBC00101EB0010296801D5C8
:1032C000490000E08900B0FBF1F26420B2FBF0F1AC
:1032D00009010B096FF018056B4302EB8302A38908
:1032E0001D044FF0320306D503EBC202B2FBF0F02F
:1032F00000F0070005E003EB0212B2FBF0F000F073
:103300000F00084320817FBD0010014000140140E0
:10331000C1F30801818070477CB514210022084662
:1033200002F0BCFC164C0425002360602046CDE969
:103330000050802213A1184802F084FF0A210022C5
:10334000084602F0ABFCE06004F10800CDE9005053
:103350000023802211A1164802F074FF1E210022D2
:10336000084602F09BFC606104F11000CDE90050BA
:10337000002380220FA1144802F064FF7CBD0000EE
:10338000100000205553415254315F526563656906
:1033900076655461736B0000852D000855534152CA
:1033A00054325F526563656976655461736B0000E2
:1033B000512F00085553415254365F526563656979
:1033C00076655461736B000081310008FEE70000F0
:1033D0000FB4054B10B503A9044A029801F09AF9FD
:1033E00010BC5DF814FB000005490008D80000205F
:1033F00003B401984100009850EAC12018BF04208E
:103400004A0D18BF40F0010040F2FF72B2EB515F6D
:1034100008BF40F00200012808BF052002B0704735
:1034200070B59B482DED020B2DED068B079D25F009
:103430000044A04218DC9748844202DC0AD1069876
:1034400040B19DED060BBDEC068B02B0BDE87040AF
:1034500001F006B9002DCCBF9FED8F0B9FED900BB7
:10346000BDEC068B02B070BD8F48A04215DD8F48C1
:10347000A042D8BF4FF0FF3458DD9DED060B51EC54
:10348000100BFFF7B5FF042808BF01F01DF99DEDF3
:10349000060BBDEC068B02B070BD9DED060B51EC2A
:1034A000100B01F023FACDE9060181489FED828BD4
:1034B000A0423CDD8248A0421FDD00249FED82AB8C
:1034C0009DED060B53EC1A2B51EC100BFCF7CCFFC7
:1034D0009DED060B41EC190B53EC1A2B51EC100B24
:1034E000FDF7A6F953EC182BFDF75FF853EC192BF9
:1034F000FDF710FACDE9060149E09DED060B012428
:1035000053EC182B51EC100BFCF7AEFF9DED060BA6
:1035100041EC190B53EC182B51EC100BFDF745F84F
:1035200053EC192BFDF7F6F9CDE906012FE06848B9
:10353000A0421FDD02249FED689B9DED060B53EC1E
:10354000192B51EC100BFDF773F953EC182BFCF70A
:103550008BFF9DED060B41EC180B53EC192B51EC36
:10356000100BFDF722F853EC182BFDF7D3F9CDE93A
:1035700006010CE09DED060B032453EC102B9FED90
:10358000580B51EC100BFDF7C5F9CDE906019DED87
:10359000060B53EC102B51EC100BFDF749F941ECE5
:1035A000180B53EC182BFDF743F941EC190B4E485F
:1035B0000621B0EE490AF0EE690A784400F0BCFF3B
:1035C00053EC182B51EC100BFDF732F941EC180BB2
:1035D0004648B0EE490AF0EE690A0521784400F049
:1035E000ABFF53EC192B51EC100BFDF721F941EC1B
:1035F000100B51EC180B53EC102B002C0EDAFCF7CF
:1036000033FF9DED061B53EC112BFDF711F99DEDDA
:10361000061B53EC112BFCF7CBFF35E0FCF724FF26
:103620009DED061B53EC112BFDF702F941EC100B3D
:103630002F48784400EBC40090ED001B51EC100BB8
:1036400053EC112BFCF7B1FF9DED061B53EC112B36
:10365000FCF7ABFF41EC100B2648784400EBC400AC
:1036600090ED001B51EC100B53EC112BFCF7A0FF5D
:1036700041EC100B002DA2BFBDEC068B02B070BD5B
:1036800051EC100B81F0004141EC100B01E7000000
:10369000000010440000F07F182D4454FB21F93F36
:1036A000182D4454FB21F9BF0000DC3F0000203EF0
:1036B0000000F33F00000000000000000000F03FA9
:1036C0000000E63F00000000000000000000004095
:1036D0000080034000000000000000000000F83FF0
:1036E000000000000000F0BF9A32000050320000DD
:1036F000DA3100009231000070B56B4E2DED040BF5
:103700002DED028B82B0DDF81CC0DDE905235C42A3
:103710002CF000411C4341EAD474049D22F0004087
:10372000B44205D86C422C4340EAD474B4420BD95D
:103730009DED061B9DED040B02B0BDEC028B04B0A9
:10374000BDE8704000F096BFACF14054A4F17F6436
:103750001C430BD0022404EAAC7444EAD27405433F
:103760009FED538B9FED542B07D015E09DED040B7F
:1037700051EC100B01F0B2F842E0002C11BF012C0B
:103780009DED040B02B0BDEC028B04BF04B070BD14
:10379000022C38D0032C3BD00B439FED491B9FEDEF
:1037A0004A0B0AD0B14218D1B04209D121F0804170
:1037B00020F08040079105900FE0002A15DA10E014
:1037C000434B7B44002C08BF93ED000B0DD0012C24
:1037D00010D0022C17D0032C1AD0B0421DD1002AD1
:1037E00003DAB0EE410AF0EE610A02B0BDEC028BE2
:1037F00004B070BD93ED000B51EC100B81F0004153
:1038000041EC100BF1E7B0EE480AF0EE680AECE785
:10381000B0EE420AF0EE620AE7E7401A00153C28D3
:10382000C8BF8DED000B19DCBCF1000FBEBF10F15D
:103830003C0F9FED290B8DED000B0FDB9DED060B73
:1038400053EC102B9DED040B51EC100BFDF762F8BF
:1038500001F04CF801F042F8CDE90001002C08BF5E
:103860009DED000BC1D0012C10D0022C9FED1C0B44
:1038700053EC102B9DED000B51EC100B0DD0FCF711
:1038800094FE53EC182BFCF790FEB9E7019880F0FA
:10389000004001909DED000BA7E7FCF786FE53EC7E
:1038A000182BFCF785FEABE70000F07F000000005E
:1038B000182D4454FB210940182D4454FB2109C004
:1038C000182D4454FB21F9BF182D4454FB21F93F16
:1038D000C2300000000000000000000000000000F6
:1038E000075C143326A6A13C2DE9F04D2DED040B09
:1038F0002DED0E8B96B0DDE92550279CDDF890A0CC
:1039000025F0004624F00048BAF1000F14BF012151
:10391000002101EB4502FC4953184A1093422AD377
:10392000002814BF0123002303EB44030B44F74991
:103930008B4220D358EA00019FEDF59B76D0DFF84B
:10394000D8B35D4503D1BAF1000F05D188E0BAF1D3
:10395000000F08BF002100D0012101EB450111F546
:10396000001F08D8002814BF0121002101EB4401E9
:1039700011F5001F0BD99DED261B9DED240B16B0F4
:10398000BDEC0E8B04B0BDE8F04D00F073BE002717
:10399000002DBCBFE149884521DAE1498845A8BF2F
:1039A00002271CDAC3451ADCDE4901EB2851142931
:1039B00008DDC1F1340220FA02F101FA02F282427A
:1039C0000DD108E058B9C1F1140228FA02F101FA48
:1039D00002F2424503D101F00101C1F1020756EAAA
:1039E0000A0124D1002C22DA002D18BF022F01D0A9
:1039F000012F0AD0022000F087FE16B0BDEC0E8B1E
:103A000004B0BDE8F04D00F013BE022000F07CFED3
:103A100000F00EFE51EC100B81F0004141EC100B58
:103A200016B0BDEC0E8B04B0BDE8F08D18E09FED34
:103A3000BEAB9FEDBF8B002871D1B848804522D125
:103A400005F1804010F5801008BFBAF1000F07D0D3
:103A5000B3450ADC002CA8BF9DED260BE0DA0DE093
:103A6000B0EE490AF0EE690ADAE7002C06DA9DEDBD
:103A7000260B51EC100B81F000416FE0AE4878440A
:103A800090ED000BCCE7D8454DD1002C48DA2EB193
:103A900086423AD1BAF1000F42D126E0BAF1000FC6
:103AA00013D0022000F030FE00F0FEFD8DED020B81
:103AB0009DED240B8DED000B10EE900A039961F340
:103AC0001E0003909DED020BAAE78DED02AB9DED6C
:103AD000240B1AEE901A10EE900A8DED000B61F394
:103AE0001E0003909DED020B9AE78DED028B9DED7C
:103AF000240B18EE901A10EE900A8DED000B61F376
:103B00001E0003909DED020B8AE709DA9DED240B60
:103B100051EC190B53EC102BFCF7FCFE1EE020E0DF
:103B20009DED240B7CE786421BDAB4F1804F0DD06B
:103B3000A4F10050B0F1FF5013D1002D11DB9DED29
:103B4000240B51EC100B01F0EBFB07E09DED240B77
:103B500053EC102B51EC100B00F0C2BC41EC100BDD
:103B60005EE79DED240B51EC100B00F0BFFEBAF1A7
:103B7000000FCDE90E0142D19FED710B46B3A6F1C6
:103B8000E040B0F17F600CD05E4538D1002D00DA06
:103B9000A7B3022F0CBF01204FF0FF30FCF740FF0E
:103BA000DCE7002D01DD002C0DDA002D01DD002CFD
:103BB0001FDB002D16DA002C14DB012F08BF9FED50
:103BC000620B3FF42DAFB0EE4A0AF0EE6A0A27E727
:103BD000022F18BF002D0CD0012F0AD1002DFFF6A7
:103BE0001FAF06E0002DB8BF002C08DA012F3FF40C
:103BF00017AFB0EE480AF0EE680A11E71BE00120AB
:103C000000EBE57050EA070115D0791EB0EE498A45
:103C1000F0EE698A084308BF9FED4D8B4E480025A2
:103C2000804570DD4D494E48884514DDB0420DDBBE
:103C3000002C19DB2FE0012000F066FD16B0BDEC72
:103C40000E8B04B0BDE8F04D00F01EBDB34502DCA4
:103C5000002C09DC1FE0864202DA002C1BDA03E0AC
:103C60005E452BDD002C16DD022000F04DFD00F03E
:103C70001BFD8DED020B53EC1A2B51EC180BFCF7CE
:103C8000D7FDCDE900010399019861F31E0003906F
:103C90009DED020BC4E6022000F036FD00F014FD9D
:103CA00010EE901A18EE900A8DED020B8DED008B40
:103CB00061F31E0003909DED020BB1E69DED0E0B2E
:103CC00053EC192B51EC100BFCF76FFC9FED260BFE
:103CD000CDE9080153EC102B9DED080B51EC100BB6
:103CE000FCF7A6FD9FED221B53EC112BFCF760FCAB
:103CF0009DED081B53EC112BFCF79AFD9FED1E1B4D
:103D000053EC112B3CE08CE0FFFF1F00FFFF0F0086
:103D1000000000000000F03F0000F03F0000F07FD6
:103D20000000404301FCFFFF000000000000F07FA6
:103D30000000000000000000062E0000000000004F
:103D40000000000000000080000000000000F0FF04
:103D5000000000000000F0BF0000E0410000F04360
:103D6000FFFFEF3F00000000000000000000D03F18
:103D7000555555555555D53F000000000000E03F12
:103D8000FCF716FC9DED080B41EC1A0B53EC102BC5
:103D900051EC100BFCF74CFD53EC1A2BFCF748FDD3
:103DA00041EC1A0B9FEDFE0B53EC102B9DED080B15
:103DB00051EC100BFCF73CFD41EC1B0B9FEDFA0B9B
:103DC00051EC1A0B53EC102BFCF732FD41EC1A0BA3
:103DD0009FEDF70B53EC102B9DED080B51EC100BE6
:103DE000FCF726FD53EC1A2BFCF7DFFB41EC1A0B1A
:103DF00051EC1B0B53EC1A2BFCF736FB0690CDE96C
:103E000006519DED060B53EC1B2B51EC100BFCF7F0
:103E1000CCFB53EC1A2BFCF7CBFB41EC100B00F066
:103E2000A1B90020B6F5801F0EDA9FEDE30B53EC2D
:103E3000102B9DED0E0B51EC100BFCF7F9FCCDE9AE
:103E40000E016FF034000E4600EB2650A0F2FF3753
:103E5000C6F31300DA4940F07F6646F040568842C8
:103E6000D8BF002408DDD7498142C8BF012403DC44
:103E70000024A6F580167F1CD348784400EBC400CC
:103E80000F9690ED00CB9DED0E0B53EC1C2B51ECDF
:103E9000100BFCF78AFB9DED0E0B41EC1B0B53EC5A
:103EA0001C2B51EC100BFCF7DFFA41EC100B51EC22
:103EB000190B53EC102BFCF72DFD41EC1D0B51ECB5
:103EC0001B0B53EC1D2BFCF7B3FC41EC1A0BBF484A
:103ED0008DED10AB7844109590ED000B4FF0005035
:103EE00040EA660000EB84408DED080B00F50020F1
:103EF00009909DED080B53EC1C2B51EC100BFCF7BB
:103F000054FB9DED0E1B53EC112BFCF751FB41ECC8
:103F1000100B53EC102B9DED100B51EC100BFCF71C
:103F200087FC9DED080B41EC1C0B53EC102B9DED19
:103F3000100B51EC100BFCF77BFC53EC1B2BFCF72C
:103F400037FB53EC1C2BFCF730FB53EC1D2BFCF721
:103F50006FFC41EC1C0B53EC1A2B51EC1A0BFCF7C9
:103F600067FC41EC1B0B9A480621B0EE4B0AF0EEC1
:103F70006B0A784400F0E0FAB0EE401AF0EE601AF6
:103F8000B0EE41DAF0EE61DA53EC1B2B51EC1B0B77
:103F9000FCF74EFC53EC1D2BFCF74AFC9DED100B7F
:103FA00041EC1B0B53EC1A2B51EC100BFCF75CFA99
:103FB00053EC1C2BFCF73CFC53EC1B2BFCF754FA8A
:103FC0009DED100B41EC1B0B53EC102B51EC100B27
:103FD000FCF72EFC41EC1D0B9FED7FEB53EC1E2BF1
:103FE000FCF742FA53EC1B2BFCF73EFA0890CDE9A4
:103FF00008519DED080B53EC1E2B51EC100BFCF7F8
:10400000D4FA53EC1D2BFCF7D0FA53EC1B2BFCF726
:10401000CFFA9DED080B41EC1D0B53EC102B9DEDE1
:10402000100B51EC100BFCF703FC41EC1B0B53EC99
:104030001A2B51EC1D0BFCF7FBFB9DED080B41EC23
:104040001A0B53EC102B51EC1C0BFCF7F1FB53EC4F
:104050001A2BFCF709FA41EC1A0B51EC1B0B53EC31
:104060001A2BFCF701FA0C90CDE90C519DED0C0BCD
:1040700053EC1B2B51EC100BFCF797FA53EC1A2B5B
:10408000FCF796FA41EC1B0B9FED550B53EC102BF4
:104090009DED0C0B51EC100BFCF7CAFB41EC1A0B1D
:1040A0009FED510B51EC1B0B53EC102BFCF7C0FB9D
:1040B00041EC1B0B9FED4E0B53EC102B9DED0C0BAD
:1040C00051EC100BFCF7B4FB53EC1B2BFCF7CCF9B9
:1040D00041EC100B4848784400EBC40090ED001B05
:1040E00051EC100B53EC112BFCF7BEF941EC1B0B00
:1040F0003846FCF795FCCDE9080153EC1B2B51EC3D
:104100001A0BFCF7B1F941EC100B3C48784400EB7A
:10411000C40090ED00CB51EC100B53EC1C2BFCF7C2
:10412000A3F99DED081B53EC112BFCF79DF90690AC
:10413000CDE906519DED080B53EC102B9DED060BC0
:1041400051EC100BFCF731FA53EC1C2BFCF72DFA59
:1041500053EC1A2BFCF729FA53EC1B2BFCF728FA2B
:1041600041EC100B9DED261B53EC102B8DED001B2D
:1041700000959DED260B51EC100BFCF759FB9DEDC6
:10418000000B41EC1A0B53EC102B9DED260B51EC60
:10419000100BFCF70AFA9DED061B53EC112B2FE0D8
:1041A000000000604715F73FFE822B654715F73F7B
:1041B00044DF5DF80BAE543E0000000000004043B9
:1041C0008E9803007AB60B00EA280000B0290000A0
:1041D000222800000000000000000000000008404D
:1041E000000000E009C7EE3FFD033ADC09C7EE3FDF
:1041F000F5015B14E02F3EBEAE26000068260000ED
:10420000FCF716FB53EC1A2BFCF72EF99DED060B71
:1042100041EC1A0B53EC102B9DED000B51EC100BE5
:10422000FCF706FBCDE90C019DED0C0B51EC1A0BD4
:1042300053EC102BFCF718F9CDE902010C46AA4902
:104240008C422FDB611A084318D19DED0C0B53EC07
:10425000102B9DED020B51EC100BFCF7A6F941EC75
:104260001B0B9FEDA30B51EC1A0B53EC102BFCF71F
:10427000FBF853EC1B2BFCF7E5FB2DD2022000F0E2
:1042800043FA00F011FA10EE901A18EE900A8DED34
:10429000020B8DED008B61F31E0003909DED020B70
:1042A000FFF7BEBB944A24F00041914214D39349D6
:1042B000214408437FF4EFAC9DED0C0B53EC102B25
:1042C0009DED020B51EC100BFCF76FF953EC1A2B20
:1042D000FCF7B8FB7FF6DFAC24F000408849894A40
:1042E000002601EB205182422BDA481C4FF480114A
:1042F00021FA00F02044844AC0F30A517A44A1F222
:10430000FF3192ED000B814A8DED080BCA4020EA87
:104310000202C0F3130040F48010C1F1140120FA2E
:1043200001F60992002CB8BF76429DED080B53ECC4
:10433000102B9DED0C0B51EC100BFCF736F9CDE971
:104340000C019DED0C0B51EC1A0B53EC102BFCF7F0
:104350008BF89FED6F0B0890CDE9085153EC102BB3
:104360009DED080B51EC100BFCF762FA41EC1B0BB6
:104370009FED690B53EC102B9DED080B51EC100BCE
:10438000FCF756FA9DED0C0B41EC1C0B53EC102B7B
:104390009DED080B51EC100BFCF707F953EC1A2BB1
:1043A000FCF706F99FED5E1B53EC112BFCF740FA6E
:1043B00053EC1C2BFCF758F841EC1A0B51EC1B0B7F
:1043C00053EC1A2BFCF750F8CDE902019DED020BDE
:1043D00053EC1B2B51EC100BFCF7E7F853EC1A2BAA
:1043E000FCF7E6F89DED020B41EC1A0B53EC102B99
:1043F00051EC100BFCF71CFACDE908014A489DED81
:10440000080B0521784400F097F89DED081B51EC4E
:10441000100B53EC112BFCF70BFA9DED021B53EC28
:10442000112BFCF7C5F8CDE906019DED020B53EC0D
:104430001A2B51EC100BFCF7FBF953EC1A2BFCF781
:1044400013F89FED3B0B41EC1A0B53EC102B9DED39
:10445000060B51EC100BFCF7A8F89DED060B41EC98
:104460001B0B53EC102B9DED020B51EC100BFCF7CA
:10447000DFF953EC1B2BFCF74DFA53EC1A2BFCF72E
:1044800094F89DED021B53EC112BFCF78EF853ECC6
:10449000192BFCF78DF8CDE9020101EB065001154F
:1044A0000029C8BF039015DC9DED020B324651EC8C
:1044B000100BFCF79EFAFEF79BFF042808BF00F0E4
:1044C00003F932469DED020B51EC100BFCF791FA0B
:1044D000CDE902019DED020B51EC180B53EC102BB2
:1044E000FCF7A6F9FFF73ABB00009040000000007F
:1044F000FE822B654715973C00CC904000346F3FFF
:1045000001FCFFFF0000E03F88250000FFFF0F00D7
:1045100000000000432EE63F396CA80C615C20BE11
:10452000EF39FAFE422EE63FC023000000000000F3
:10453000000000000000004070B504462DED028B25
:104540004D1E00EBC500B0EE408AF0EE608A90EDA3
:10455000000B35F0060017D053EC182B51EC100B64
:10456000FCF766F941EC100B6D1E04EBC50090EDF5
:10457000001B51EC100B53EC112BFBF775FF41ECBA
:10458000100B35F00600E7D1022D36D0042D1CD0DB
:10459000062D1CBFBDEC028B70BD53EC182B51ECEB
:1045A000100BFCF745F994ED0A1B53EC112BFBF7AC
:1045B0005BFF53EC182BFCF73BF994ED081B53EC15
:1045C000112BFBF751FF41EC100B53EC182B51EC66
:1045D000100BFCF72DF994ED061B53EC112BFBF798
:1045E00043FF53EC182BFCF723F994ED040B53EC29
:1045F000102BFBF739FF41EC100B53EC182B51EC4F
:10460000100BFCF715F994ED021B53EC112BFBF783
:104610002BFF53EC182BFCF70BF994ED001B53EC1C
:10462000112BFBF721FFBDEC028B41EC100B70BD91
:104630009FED070B10B553EC102B9FED070B51ECC2
:10464000100BFCF767F941EC100B10BD00000000E7
:104650000000000000000000000000000000F03F2B
:1046600010B553EC102B51EC100BFBF7FDFE41EC99
:10467000100B10BD10B553EC112B51EC100BFBF7C8
:10468000F3FE41EC100B10BD9FED050B10B553EC84
:10469000102B51EC100BFCF73DF941EC100B10BD49
:1046A00000000000000000009FED050B10B553EC6A
:1046B000102B51EC100BFCF7BBF841EC100B10BDAC
:1046C00000000000000000709FED050B10B553ECDA
:1046D000102B51EC100BFCF7ABF841EC100B10BD9C
:1046E000000000000000001002E008C8121F08C10E
:1046F000002AFAD170477047002001E001C1121F63
:10470000002AFBD170470000014908607047000093
:10471000DC0000202DE9FF4F8BB09A460F4605467E
:10472000002606E025280BD052460D9990476D1CB7
:10473000761C28780028F5D10FB03046BDE8F08F00
:104740000024A0460122604900E0044315F8013F1F
:10475000203B02FA03F00842F7D128782E2817D11F
:1047600015F8010F44F004042A280ED06FF02F0230
:104770002878A0F1300109290AD808EB880102EB5A
:10478000410100EB01086D1CF2E757F8048B6D1C2A
:10479000287869283ED006DC0028CDD063280BD0CD
:1047A000642804D136E0732810D075284BD05246C7
:1047B0000D999047761C85E017F8040B8DF80000E2
:1047C00000208DF80100E946012003E057F8049B22
:1047D0004FF0FF3061074FF0000401D40AE0641C81
:1047E00044450DDA8442FADB19F804100029F6D1A9
:1047F00006E0641C8442FCDB19F804100029F8D19F
:10480000264404E019F8010B52460D999047641EA6
:10481000F8D257E001CF4FF00A0B002802DA4042ED
:104820002D2102E0210504D52B218DF82410012132
:1048300003E0E10705D02021F7E70DF120090891F9
:104840000CE00021F9E701CF4FF00A0BF9E75946D8
:10485000FBF7E0FE01F1300209F8012D0028F6D146
:10486000ADEB090000F1200B600701D44FF0010807
:10487000D84502DDA8EB0B0000E0002080460024B4
:1048800006E009A85246005D0D999047641C761C0D
:1048900008988442F5DB04E0302052460D99904799
:1048A000761CB8F10001A8F10108F5DC05E019F863
:1048B000010B52460D999047761CBBF10001ABF1FC
:1048C000010BF4DC6D1C34E709280100B5EEC00AC9
:1048D000F1EE10FA01D2B1EE400A704710B541EC8A
:1048E000100BFEF79DFD51EC100B10BD82B0CDE911
:1048F000000121F0004001909DED000B02B051EC51
:10490000100B704770B5074D0446C1B22868FEF71A
:10491000FFFC80212868FEF767FC0028F9D02046BC
:1049200070BD00003C0000201CB507490120CDE906
:1049300000014202002305A1074801F083FC01F0B9
:1049400079F800201CBD0000040000205461736B46
:104950005374617274000000A12B00082DE9F0412E
:10496000184C0F460546E6682068001D00F00FFD54
:1049700038B9206890F82C100120884021698143C3
:104980002161681C07D137B12168BDE8F0410E48AC
:10499000091D00F034BD20683544B54245602168EA
:1049A00005D2A06BBDE8F041091D00F010BD606BA1
:1049B000091D00F00CFDA06A854200D2A562BDE889
:1049C000F081000040000020A00700202DE9F04108
:1049D000054600F021FD2D4CA068401CA060206819
:1049E0002B4F10B1606930B32BE02560A06801281F
:1049F00027D1002606EB860007EB800000F0D9FCEB
:104A0000761C202EF6D3234800F0D3FC2148143026
:104A100000F0CFFC1F48283000F0CBFC1D483C3094
:104A200000F0C7FC1B48503000F0C3FC194860631D
:104A30001430A06305E02068E96AC06A884200D8A3
:104A40002560606A401C60626864E96A012022692E
:104A500088401043206101EB810007EB8000291D95
:104A600000F0CDFC00F016FD606900280CD0206835
:104A7000E96AC06A884207D207494FF0805008604F
:104A8000BFF34F8FBFF36F8FBDE8F0814000002070
:104A9000D00400205007002004ED00E010B500F025
:104AA000BBFC0E4C2068A0B90D4800F082FC0C48FD
:104AB000143000F07EFC0A48E060143020610022CF
:104AC0001021052001F0EAF8206010B105A100F0E6
:104AD000BDFDBDE8104000F0DDBC00007C00002002
:104AE000B4070020546D72510000000070B5114EE3
:104AF000114C17E000F0EAFF3068B8B101F002FD98
:104B000000F08AFCF068C568281D00F040FCA06831
:104B1000401EA0606068401E606000F0BBFC28463C
:104B200000F055F860680028E4D170BD01F0EAFC9F
:104B3000F8E700008C0700204000002030B4026C31
:104B40000B46002A0BD0C1681144C1604468A142E1
:104B500001D30168C16030BC1846FBF79FBB30BC75
:104B600070472DE9F041856B174604460026026C1C
:104B700082B1C7B1E068FBF791FBE168206C091ACC
:104B8000E1602268914202D26168081AE060022F57
:104B900016D017E02068A8B9606801F009FC064645
:104BA000002060600EE0A068FBF778FB216CA06835
:104BB0000844A0606168884204D32068A06001E0D6
:104BC00005B16D1E6D1CA5633046BDE8F08110B5C2
:104BD0000446006B00F092FC2046BDE8104000F057
:104BE0008DBC000010484FF43841420706D0C01D6C
:104BF0000D4920F00700411AC1F538410B4A002346
:104C00000144C2E900030839103A21F0070111609C
:104C10004B600B600B1AC0E9001393604FF000402B
:104C20005360D06070470000DC070020A000002027
:104C3000074C4FF08056074DFFF758FF20680128BA
:104C4000FAD92E60BFF34F8FBFF36F8FF4E70000E8
:104C5000D004002004ED00E02DE9F047DDE90984EF
:104C60000E461746824691009946089DA522206B64
:104C7000FBF726FB6FF00301206B01EB8701084473
:104C800020F00707780705D040F22B3219A11FA0AA
:104C9000FEF79EFB00202218315C82F83410315C54
:104CA00011B1401C1028F6D3002684F84360202D53
:104CB00000D31F25E562C4E91356201D00F084FBD4
:104CC00004F1180000F080FB2461C5F1200064624B
:104CD000A061666584F858604A465146384600F03F
:104CE00009FB2060B8F1000F01D0C8F80040BDE812
:104CF000F08700002E2E5C2E2E5C467265655254A5
:104D00004F535C7461736B732E6300004572726F56
:104D1000723A25732C25640D0A00000030B5114944
:104D200000E011460A688242FBD34B685C1884425B
:104D300003D1406818444860084643681C189442F0
:104D400009D1084C103C2468A24209D052681A4488
:104D500042600A6812680260814200D0086030BD7B
:104D60000460F9E7A000002070B5002441600B4DFD
:104D70000061914206D8D11A8269914206D2011D82
:104D8000286907E09A4203D2994201D3012403E043
:104D9000011DE86800F01BFB204670BD7C00002070
:104DA00010B5044600F038FBA06B28B15FF000049A
:104DB00000F070FB204610BD0124F9E72DE9F34116
:104DC00000980F460026846C2CB940F6CE1216A12E
:104DD0001BA0FEF7FDFAA06BE16B884205D340F6FD
:104DE000CF1211A116A0FEF7F3FAA06BE16B884277
:104DF0000CD294F945503A4669462046FFF7B1FE79
:104E00000646681C05D06D1C84F845503046BDE848
:104E1000FC81606A0028F9D004F1240001F024FB31
:104E20000028F3D00126F1E72E2E5C2E2E5C467270
:104E3000656552544F535C71756575652E6300004E
:104E40004572726F723A25732C25640D0A000000BA
:104E5000F8B5054614480E46C068C068C468201DF1
:104E600000F095FAE069012817D1A0692B46411995
:104E700032462046FFF778FF78B10020034601460E
:104E800000902A46204601F027FC30B907494FF42C
:104E9000027201F11800FEF79BFA616A01B0204628
:104EA000BDE8F040084700007C0000203C66000898
:104EB00070B588B02F4E53E00498002806DADDE97B
:104EC0000601059A90470498002849DB069C606912
:104ED00010B1201D00F05BFA02A800F0A7F805460B
:104EE00004980A283CD2DFE800F00505053B273886
:104EF00005053B270598A169034601442A4620463B
:104F0000FFF732FF00282BD0616A20468847E0690E
:104F1000012825D1002000900598A169002342189E
:104F20001946204601F0D8FBD0B940F2213212A137
:104F300017A0FEF74DFA13E00598A06128B94FF4C9
:104F40004E720DA112A0FEF743FAA0692B4641193B
:104F50001A462046FFF708FF02E0204600F0CEFA8E
:104F600000231A4604A9306800F0D6FE0028A3D119
:104F700008B070BD7C0000202E2E5C2E2E5C467288
:104F8000656552544F535C74696D6572732E63008E
:104F90004572726F723A25732C25640D0A00000069
:104FA000F8B50D46064600F091FD684600F03EF863
:104FB0000446009810B101F0A5FAF8BD1148ADB152
:104FC00001690968D9B10025311B2A46006800F043
:104FD00051FB01F097FA0028EFD10B494FF08050B8
:104FE0000860BFF34F8FBFF36F8FF8BDA642EBD8B9
:104FF00001F088FA21463046FFF72AFFF8BD012567
:10500000E2E700007C00002004ED00E00648416B70
:10501000096829B1416BC968C968496881627047EC
:105020004FF0FF31FAE700004000002070B5054660
:1050300001F042F9064E0446B068844203D200F003
:1050400009F8012000E0002028602046B46070BD0F
:105050007C000020F8B5184D26E0C068C4680668DA
:10506000201D00F094F9616A20468847E069012814
:105070001AD1A0693044B04206D924616060211D74
:10508000E86800F0A4F90FE0002003460146009014
:105090003246204601F020FB30B9084940F29232F6
:1050A00001F11800FEF794F9E86801680029D4D1ED
:1050B0002969C5E90310F8BD7C0000203C660008A2
:1050C00008484068401C05D040F20F1206A112A00B
:1050D000FEF77EF9502080F31188BFF34F8FBFF3A6
:1050E0006F8FFEE7A80000202E2E5C2E2E5C4672ED
:1050F000656552544F535C706F727461626C655C8D
:10510000525644535C41524D5F434D34465C706F80
:1051100072742E63000000004572726F723A25733C
:105120002C25640D0A000000074CE068016841B1BD
:10513000C0680021D0F80000FFF732FFFFF7B8FE8B
:10514000F3E701210020F7E77C0000202DE9F04182
:10515000044600F061F994F9455004F1240610E08A
:10516000A06C20B100212046FFF728FE04E0606A11
:1051700048B1304601F078F908B100F091FB6D1E9E
:105180006DB2002DECDC4FF0FF3684F8456000F086
:1051900081F900F041F994F9445004F1100709E055
:1051A000206948B1384601F05FF908B100F078FB9A
:1051B0006D1E6DB2002DF3DC84F84460BDE8F04153
:1051C00000F068B92DE9F0410546002700F07EFCAB
:1051D000324E306808B9FFF705FDF06805424FD13F
:1051E000002D4DD0083568070BD005F00700C0F141
:1051F00008000544680704D0BF2229A133A0FEF7A8
:10520000E7F8002D3CD07068854239D8234810302B
:1052100001460C6801E020460C466168A94202D2B2
:1052200021680029F7D13168B0468C4228D0076840
:105230002168016060680837401B10280ED9661984
:10524000700704D0EC2216A120A0FEF7C1F8606818
:10525000401B706030466560FFF760FD6268D8F8FB
:1052600004104046891AC8F80410D8F8083099424A
:1052700000D28160D8F80C0002430020C4E900028B
:1052800001F040F9780705D04FF4967204A10FA001
:10529000FEF79EF83846BDE8F0810000900000203F
:1052A0002E2E5C2E2E5C4672656552544F535C70F8
:1052B0006F727461626C655C4D656D4D616E675CAB
:1052C000686561705F342E63000000004572726F84
:1052D000723A25732C25640D0A0000000449086801
:1052E00018B10868026D521C02650868704700001A
:1052F0004000002010B5031F4FF080741C601B1F7E
:1053000021F001011960191F044B0B6014390A6068
:10531000091F6FF0020244380A6010BDC150000836
:1053200000B52DED048B83B041EC190BFBF760FD4C
:1053300041EC180B18EE100A18EE901A8DED008B48
:10534000002818BF0120084320F00040C0F17F6012
:1053500000F1E040C00F14D019EE101A19EE900AB7
:105360008DED009B002918BF0121084320F000406B
:10537000C0F17F6000F1E040C00F04BF0120FFF7E3
:10538000C3F951EC180B03B0BDEC048B00BDD0E9A0
:10539000013201699A60D0E901235A604A68824269
:1053A00001D182684A60002202610868401E0860DC
:1053B000704700F108014FF0FF32C0E90112C160EF
:1053C000016100210160704700210161704730B523
:1053D0000B685A1C02D000F1080202E0026904E0E6
:1053E0002246546825689D42FAD953684B609960FB
:1053F0008A60516008610168491C016030BD4268E3
:105400004A6093688B609368596091600861016895
:10541000491C016070470000502080F31188BFF3E1
:105420004F8FBFF36F8F09494868401C48600128BF
:105430000AD10748006810F0FF0F05D040F2B912FA
:1054400004A110A0FDF7C4BF70470000A800002011
:1054500004ED00E02E2E5C2E2E5C467265655254E3
:105460004F535C706F727461626C655C525644534A
:105470005C41524D5F434D34465C706F72742E63D5
:10548000000000004572726F723A25732C25640D7E
:105490000A00000010B5084C606828B94FF4E072AB
:1054A00006A112A0FDF794FF6068401E606001D164
:1054B00080F3118810BD0000A80000202E2E5C2E65
:1054C0002E5C4672656552544F535C706F72746106
:1054D000626C655C525644535C41524D5F434D349F
:1054E000465C706F72742E63000000004572726F2C
:1054F000723A25732C25640D0A00000070B500284F
:105500002AD0164DA0F108046068E968084205D168
:105510004FF4A07212A11DA0FDF75AFF206828B118
:1055200040F241120EA119A0FDF752FF6168E86830
:10553000014211D02268002A0ED18143616000F03F
:10554000C5FA60686968084468602046FFF7E6FBB2
:10555000BDE8704000F0D6BF70BD00009000002094
:105560002E2E5C2E2E5C4672656552544F535C7035
:105570006F727461626C655C4D656D4D616E675CE8
:10558000686561705F342E63000000004572726FC1
:10559000723A25732C25640D0A00000006484FF46A
:1055A0007A710068B0FBF1F14FF0E020491E4161D3
:1055B0000721016170470000C400002010B5FAF710
:1055C00057FE104C10280CD300F1E02090F8F003A7
:1055D0002178884205D24FF440720BA116A0FDF746
:1055E000F7FE19480068A16800F4E060884207D916
:1055F000BDE810404FF4447203A10FA0FDF7E8BED0
:1056000010BD0000A80000202E2E5C2E2E5C4672DD
:10561000656552544F535C706F727461626C655C67
:10562000525644535C41524D5F434D34465C706F5B
:1056300072742E63000000004572726F723A257317
:105640002C25640D0A0000000CED00E010B5084B9D
:10565000002200BF53F832401CB1521C082AF9D373
:1056600010BD43F8321003EBC201486010BD0000CA
:105670009004002070B515460E460446FFF7CCFE98
:1056800094F944100020491C01D184F8440094F995
:105690004510491C01D184F84500FFF7FBFEA06BC3
:1056A00028B92A46314604F1240000F02BF920469F
:1056B000BDE87040FFF74ABD10B5040012D00E4897
:1056C000006B28B140F2CF420CA112A0FDF780FE82
:1056D00000F0FCF900212046FFF740F900F012FF2E
:1056E000002807D10F494FF080500860BFF34F8F5B
:1056F000BFF36F8F10BD0000400000202E2E5C2EE7
:105700002E5C4672656552544F535C7461736B73C3
:105710002E6300004572726F723A25732C25640D5A
:105720000A00000004ED00E070B50D46040005D14C
:1057300040F279421AA120A0FDF74AFE2DB940F2AD
:105740007A4217A11CA0FDF743FE1F4E306B28B113
:1057500040F27B4212A118A0FDF73AFE00F0B6F924
:10576000F26823685919934204D98B420AD99142AD
:1057700002D807E08B42FAD9881A21600021FFF78E
:10578000EDF800E0216000F0BDFE002807D10F49D0
:105790004FF080500860BFF34F8FBFF36F8F70BD25
:1057A0002E2E5C2E2E5C4672656552544F535C74EF
:1057B00061736B732E6300004572726F723A2573CA
:1057C0002C25640D0A0000004000002004ED00E0DC
:1057D00070B50546FFF720FE234C05B92568281D46
:1057E000FFF7D5FD58B9E86A204A00EB800152F86E
:1057F000211021B901218140206988432061A86AD4
:1058000018B105F11800FFF7C2FD606A401C606224
:105810002068854207D1291D1548FFF7F0FD606813
:10582000401C606007E0A068401EA0602846FFF7AB
:10583000CEF9FFF7EBFBFFF72DFE6069002812D0D1
:10584000206885420FD1206B28B140F2654209A142
:105850000EA0FDF7BDFD11494FF080500860BFF369
:105860004F8FBFF36F8F70BD40000020D004002029
:105870008C0700202E2E5C2E2E5C467265655254DD
:105880004F535C7461736B732E6300004572726FCB
:10589000723A25732C25640D0A00000004ED00E027
:1058A00001490120C86170474000002070B50D46D5
:1058B000040005D140F6063207A10DA0FDF788FDD2
:1058C0000F48016820461831FFF781FD2846BDE8E2
:1058D00070400121FFF742B82E2E5C2E2E5C4672DE
:1058E000656552544F535C7461736B732E63000093
:1058F0004572726F723A25732C25640D0A00000000
:105900004000002070B514460D46060005D140F653
:10591000313209A10EA0FDF75BFD11480168304648
:105920001831FFF76CFD0CB14FF0FF3521462846CA
:10593000BDE87040FFF712B82E2E5C2E2E5C46722A
:10594000656552544F535C7461736B732E63000032
:105950004572726F723A25732C25640D0A0000009F
:105960004000002070B5040039D01D4DE06A296860
:10597000C96A884233D2A069002804DB2868C06A5B
:10598000C0F12000A061E16A164E01EB810160695F
:1059900006EB810188421FD1201DFFF7F8FC012191
:1059A00050B9E06A00EB800256F8222022B92A6939
:1059B00001FA00F082432A612868C06AE0622A691D
:1059C00081401143296100EB800006EB8000211D1E
:1059D000BDE87040FFF713BD2868C06AE06270BD83
:1059E00040000020D004002010B5040005D140F68E
:1059F000C13205A10AA0FDF7EBFC0D48016A216048
:105A0000C068606010BD00002E2E5C2E2E5C4672B9
:105A1000656552544F535C7461736B732E63000061
:105A20004572726F723A25732C25640D0A000000CE
:105A3000400000201CB517480024CDE90040234653
:105A4000822215A1164800F0FDFB012803D100F0C9
:105A500009FE01280AD0401C1BD102B040F284721A
:105A6000BDE810400FA115A0FDF7B2BC502080F397
:105A70001188BFF34F8FBFF36F8F06484FF0FF3190
:105A80002C38816201214161C460BDE81C4000F0F6
:105A900065B81CBD6C00002049444C450000000066
:105AA000314C00082E2E5C2E2E5C467265655254D9
:105AB0004F535C7461736B732E6300004572726F99
:105AC000723A25732C25640D0A0000000248016B10
:105AD000491C0163704700004000002070B5134C62
