:020000040800F2
:1000000088C2002079020008570D00081B0B000869
:10001000550D0008490400089D0F0008000000006D
:10002000000000000000000000000000C101000806
:10003000A90900080000000015020008ED0E0008E4
:10004000930200089302000893020008930200083C
:10005000930200089302000893020008930200082C
:10006000930200089302000893020008930200081C
:10007000930200089302000893020008930200080C
:1000800093020008930200089302000893020008FC
:100090002505000893020008930200089302000857
:1000A00093020008930200089302000893020008DC
:1000B00093020008930200089302000893020008CC
:1000C00093020008930200089302000893020008BC
:1000D00093020008950F0008970F0008990F000879
:1000E000930200089302000893020008930200089C
:1000F000930200089302000893020008930200088C
:10010000930200089302000893020008930200087B
:1001100093020008930200085D0F00089302000894
:10012000930200089302000893020008930200085B
:10013000930200089302000893020008930200084B
:10014000930200089302000893020008930200083B
:100150009302000893020008930200089B0F000816
:10016000930200089302000893020008930200081B
:10017000930200089302000893020008930200080B
:1001800093020008930200089302000893020008FB
:1001900093020008930200089302000893020008EB
:1001A000000000000000000093020008DFF80CD0FF
:1001B00000F0AEF800480047AD11000888C20020EA
:1001C0002A4B19680868B0E8F04F80F30988BFF33C
:1001D0006F8F4FF0000080F311887047000000001F
:1001E00006480068006880F3088862B661B6BFF30D
:1001F0004F8FBFF36F8F00DF00BF00BF08ED00E03F
:10020000DFF80C00016841F470010160704700BF25
:1002100088ED00E0EFF30980BFF36F8F134B1A688E
:100220001EF0100F08BF20ED108A20E9F04F10607B
:1002300008B44FF0500080F31188BFF34F8FBFF325
:100240006F8F02F01DF84FF0000080F3118808BC9A
:1002500019680868B0E8F04F1EF0100F08BFB0EC46
:10026000108A80F30988BFF36F8F70471000002059
:10027000EFF30580704700000648804706480047B6
:10028000FEE7FEE7FEE7FEE7FEE7FEE7FEE7FEE746
:10029000FEE7FEE7010F0008AD01000840EA010398
:1002A0009B0703D009E008C9121F08C0042AFAD22C
:1002B00003E011F8013B00F8013B521EF9D27047F0
:1002C000D2B201E000F8012B491EFBD27047002298
:1002D000F6E710B513460A4604461946FFF7F0FF45
:1002E000204610BD30B50B460146002020220124D7
:1002F00009E021FA02F59D4205D303FA02F5491BF4
:1003000004FA02F52844151EA2F10102F1DC30BD09
:10031000064C074D06E0E06840F0010394E8070052
:1003200098471034AC42F6D3FFF744FF0C2F000877
:100330002C2F00080FB44248F0B50125059FBDF8E9
:100340001F20BDF82110BDF823309DF82560A7F2CD
:10035000012700F59874072F13D2DFE807F0041582
:10036000191D2C42580052BA028049BA418059BA2C
:100370008180C68080F84650B0F84810491CA0F82B
:100380004810F0BC5DF814FB52BA20F84C2F06E080
:1003900052BA20F8982F02E052BA20F8E42F49BA56
:1003A000418059BA8180C68080F8465030F8481F95
:1003B000491C0180E5E750BA208048BA60800020DF
:1003C00000F0A8FCB4F90000B4F9641000EB41306F
:1003D000206684F87250B4F87400401CA4F87400CD
:1003E000CFE750BAA4F8780048BAA4F87A00012000
:1003F000CC3400F08FFC34F9540CB4F9101000EB3D
:100400004130E060A577208C401C2084B9E70D4C7A
:1004100050BA208048BA608058BAA080002000F00E
:1004200059FCB4F90000B4F9641000EB41302066C7
:1004300084F87650B4F87800401CA4F87800A0E75F
:100440009C000020BC020020FEE70000F0B589B04F
:100450000121082000F0CAFC0121480600F0D2FC6E
:1004600002268DF820608DF8216000242B4F8DF836
:1004700023408DF8224007A93846079600F0E3FA9A
:1004800009220121384600F02FFB012507A9384633
:10049000079500F0D8FA09220021384600F024FB25
:1004A0008DF806408DF807508DF8046004208DF813
:1004B00008508DF802408DF805008DF809408DF840
:1004C00003400520164E8DF80A40ADF800008DF867
:1004D0000B406946304600F06FF98DF816408DF8F4
:1004E00017408DF81850ADF80C40ADF81040ADF83D
:1004F00014408DF81950ADF80E40ADF8124003A825
:1005000000F098F800220A21142000F025FC0122B6
:100510000221304600F048F909B0F0BD000C02405D
:100520000064004010B586B00020124C05900221F6
:10053000204600F0E5F8002819D06A460021204640
:1005400000F0AEF90C48002305AA6946006802F0E5
:1005500091F9059838B109494FF080500860BFF310
:100560004F8FBFF36F8F0221204600F027F806B0AF
:1005700010BD0000006400400800002004ED00E011
:100580000C4C0D4F86B04FF0FF354FF40076002332
:100590002A4601A9606801F091FF05980DF1040C4D
:1005A00000909CE80F00FFF7C5FE3146384600F08A
:1005B000ABFAECE7040000200010024030B508233D
:1005C00010240422B1F5007F1DD010DC202929D091
:1005D00007DC012921D0042922D0082900D1C460D8
:1005E00030BD402920D0B1F5807FF9D10BE0002546
:1005F000B1F5004F06D008DCB1F5806F03D0B1F53E
:10060000006FEDD18561426030BDB1F5803F0DD006
:10061000B1F5003FF8D1446030BD0549816030BD7F
:10062000C36030BD036130BD046130BD436030BD87
:1006300001010100F0B5827A012191402E4A136830
:1006400043F0010313602C4B1C331C688C431C606B
:10065000294D067B294C0C35A6B92E688E432E6099
:100660004688C78846EA0746877A04EBC707C7F873
:1006700040660688878846EA0746877A04EBC707FC
:10068000C7F84466067B012E12D12E680E432E60F9
:10069000867A056804EBC6064FEA3545C6F840562B
:1006A000867A456804EBC6044FEA3545C4F84456DB
:1006B000114CC57A241D002D256806D00D432560F8
:1006C0000D4C0589143415B104E08D43F7E7256816
:1006D0008D4325600589012D02D125680D432560D4
:1006E000407B012802D1186808431860106820F088
:1006F00001001060F0BD0000006600400060004096
:100700000246002053690B424AD0B1F5807F3BD0AE
:1007100013DC08292ED007DC012926D0022927D096
:1007200004293DD1D0682BE0102925D0202926D0DE
:10073000402935D11069102130E0B1F5004F2BD0A0
:100740000BDCB1F5007F22D0B1F5806F22D0B1F57E
:10075000006F25D19069702120E0B1F5803F11D064
:10076000B1F5003F1CD15068E5E790680D4915E0F0
:10077000D06802E0D068DEE7106903210EE010695E
:1007800008210BE05068FBE79069012106E09069C1
:10079000022103E0906900E05068042100F0E6B80F
:1007A0007047000001010100002A426901D00A439C
:1007B00000E08A434261704710B50368002223F0CD
:1007C00002030360036843F0010303604FF6FF7305
:1007D00000E0521C4468E40701D19A42F9D1426812
:1007E000D2073ED08A79012A02683CD022F08002EA
:1007F0000260CA79012A026838D022F04002026001
:100800000A7A012A026834D022F0200202604A7A71
:10081000012A026830D022F0100202608A7A012A8E
:1008200002682CD022F008020260CA7A012A02680B
:1008300028D022F0040202608A78CC78920742EA3B
:1008400004620C7942EA04424C79098842EA045273
:10085000491E0A43C261016821F0010101600021C3
:1008600014E0002010BD42F08002C1E742F04002D7
:10087000C5E742F02002C9E742F01002CDE742F09E
:100880000802D1E742F00402D5E7491C4268D207CA
:1008900001D09942F9D14068C007E2D1012010BDD2
:1008A00010B500EB0113D3F8B04114F00404147236
:1008B000D3F8B04134D0E408C2F80440D3F8B041D2
:1008C00004F002045472D3F8B44104F00F0494729B
:1008D000D3F8B441240AD474D3F8B841D472D3F80D
:1008E000B841240A1473D3F8B841240C5473D3F8D4
:1008F000B841240E9473D3F8BC41D473D3F8BC41EF
:10090000240A1474D3F8BC41240C5474D3F8BC31B9
:100910001B0E937439B1016941F02001016110BDD2
:10092000640D1460CAE7C16841F02001C16010BDC8
:100930001CB514210022084601F082FD0549002360
:10094000802248600420CDE9000103A1064802F09E
:100950004BF81CBD0400002043414E5F52656365A7
:100960006976655461736B008105000802460020BA
:100970000A4200D0012070471CB505490220CDE98C
:1009800000010023802203A1064802F02DF81CBDBF
:100990000C000020446576696365735F5461736B76
:1009A00000000000310A00087047000030B5002147
:1009B0001C4C01234FEA010001EB410202EB011242
:1009C00004EB8202B2F84850052D02D282F84A3078
:1009D00001E082F84A00491CA2F848000429EBDB38
:1009E000114C0021C1EB011204EBC202B2F87450A9
:1009F000052D02D282F8763001E082F87600491C9B
:100A0000A2F874000229EDDB0849B1F87820052A24
:100A100002D281F87A3001E081F87A00A1F87800FA
:100A200030BD00009C000020CC010020BC02002052
:100A300008B50020CDF80000FFF7B8FFC8216846D0
:100A400001F044FAF8E7F0B50023012403270D680C
:100A500004FA03F21540954242D1D0F800C05E007E
:100A600007FA06F52CEA050CC0F800C091F804C09E
:100A7000D0F800E00CFA06FC4CEA0E0CC0F800C0FE
:100A800091F804C0BCF1010F02D0BCF1020F1FD1DC
:100A9000D0F808C02CEA050CC0F808C091F805C0D1
:100AA000D0F808E00CFA06FC4CEA0E0CC0F808C0BE
:100AB000D0F804C02CEA020CC0F804C0426891F8D7
:100AC00006C00CFA03FC1FFA8CFC42EA0C024260DE
:100AD000C268AA43C260CA79C568B2402A43C260EC
:100AE0005B1C102BB3D3F0BD4B07DB0E9A40C9083B
:100AF00010B500EB8100016A0F249C40A143016204
:100B0000016A1143016210BD42694A404261704767
:100B10000AB10183704741837047FEE72DE9FC5F0E
:100B20000121722000F062F901208DF804000020FC
:100B30008DF806008DF80700634E8DF8050010242F
:100B4000694630460094FFF77EFF2025694630460F
:100B50000095FFF778FF012210213046FFF7D8FFFC
:100B6000012220213046FFF7D3FF0220574E00908C
:100B700069463046FFF767FF04200090694630461B
:100B8000FFF761FF0820009069463046FFF75BFFE2
:100B9000694630460094FFF756FF69463046009597
:100BA000FFF751FF4020009069463046FFF74BFFAA
:100BB0008020009069463046FFF745FF24016946D2
:100BC00030460094FFF73FFF012202213046FFF735
:100BD0009FFF012204213046FFF79AFF01220821DE
:100BE0003046FFF795FF012210213046FFF790FFB6
:100BF000012220213046FFF78BFF012240213046A1
:100C0000FFF786FF012280213046FFF781FF012296
:100C100021463046FFF77CFFDFF8B4B06400694638
:100C200058460094FFF70FFF650069465846009547
:100C3000FFF709FF4FF4006969465846CDF8009068
:100C4000FFF701FFE600694658460096FFF7FBFEF6
:100C50004FF4005A69465846CDF800A0FFF7F3FE5E
:100C60006701694658460097FFF7EDFE4FF40048CC
:100C700069465846CDF80080FFF7E5FE012221467F
:100C80005846FFF745FF012229465846FFF740FF27
:100C9000012249465846FFF73BFF0122314658469C
:100CA000FFF736FF012251465846FFF731FF012278
:100CB00039465846FFF72CFF012241465846FFF7B8
:100CC00027FFBDE8FC9F000000040240001802401E
:100CD00000100240C0EB40120C4810B530F9221051
:100CE00000EB82000A4C026F8B1AA34204DAB0F8C0
:100CF00064305B1CA0F86430521AA24204DAB0F8E7
:100D00006420521EA0F86420016710BDBC020020C0
:100D100090E8FFFFC0EB00120C4810B530F932101C
:100D200000EBC2000A4CC26E8B1AA34204DAB0F880
:100D300064305B1CA0F86430521AA24204DAB0F8A6
:100D40006420521EA0F86420C16610BDCC010020B2
:100D500090E8FFFFFEE7704708B58DF800008DF8BA
:100D600001108DF8022001208DF80300684600F084
:100D700001F808BD30B50F22C47801780123FCB119
:100D8000144C246801F1E02104F4E064C4F5E0644B
:100D9000C4F30724C4F10405E2404478AC408578EC
:100DA000154025432A0181F80024007800F01F0136
:100DB0008B404009800000F1E020C0F8003130BDD8
:100DC00001F01F0083404809800000F1E020C0F8D6
:100DD000803130BD0CED00E0024908430249086053
:100DE000704700000000FA050CED00E0044A0029FD
:100DF000116801D0014300E0814311607047000099
:100E000030380240044A0029116801D0014300E053
:100E10008143116070470000403802401CB500203B
:100E20002E49019000900A6842F480320A604FF423
:100E3000A0430A6802F400320092019A521C019207
:100E4000009A12B9019A9A42F3D10A68920342D5E4
:100E50000120009021484030026842F08052026038
:100E60001F48026842F4404202601C4A083213687C
:100E70001360136843F400431360136843F4A053F2
:100E80001360141F174B23600B6843F080730B60D3
:100E90000B689B01FCD5016841F480310160416819
:100EA000C903FCD5016841F4003101604168890340
:100EB000FCD50D4940F205700860106820F0030071
:100EC0001060106840F0020010601068C0F38100EC
:100ED0000228FAD11CBD00901CBD00000038024061
:100EE000007000400C5A4007003C024010B501F071
:100EF000A7FD012803D0BDE8104001F08BBA10BD5A
:100F0000124810B5016841F4700101601048016891
:100F100041F0010101600E4A0021083211600268AF
:100F20000C4B1A400260031D0B4A1A60026822F43F
:100F30008022026006480C300160FFF76FFF034912
:100F40004FF000608039086010BD000088ED00E0BF
:100F500000380240FFFFF6FE10300024704700000A
:100F600010B54FF44070FFF737FF00F05FFEFFF75A
:100F70006DFAFFF7D3FDFFF7DBFCFFF7FDFC04483C
:100F8000006800F0F7FFBDE8104000F08DBE0000E3
:100F9000000000207047704770477047FEE7000070
:100FA0000FB4054B10B503A9044A029800F018F8D5
:100FB00010BC5DF814FB0000991100089800002097
:100FC00002E008C8121F08C1002AFAD17047704712
:100FD000002001E001C1121F002AFBD17047000070
:100FE0002DE9FF4F8BB09A460F460546002606E0D6
:100FF00025280BD052460D9990476D1C761C2878F9
:101000000028F5D10FB03046BDE8F08F0024A0468F
:101010000122604900E0044315F8013F203B02FA39
:1010200003F00842F7D128782E2817D115F8010FC0
:1010300044F004042A280ED06FF02F022878A0F183
:10104000300109290AD808EB880102EB410100EBC5
:1010500001086D1CF2E757F8048B6D1C287869288D
:101060003ED006DC0028CDD063280BD0642804D104
:1010700036E0732810D075284BD052460D99904712
:10108000761C85E017F8040B8DF8000000208DF821
:101090000100E946012003E057F8049B4FF0FF30C0
:1010A00061074FF0000401D40AE0641C44450DDAE6
:1010B0008442FADB19F804100029F6D106E0641C1A
:1010C0008442FCDB19F804100029F8D1264404E01E
:1010D00019F8010B52460D999047641EF8D257E05B
:1010E00001CF4FF00A0B002802DA40422D2102E026
:1010F000210504D52B218DF82410012103E0E107FF
:1011000005D02021F7E70DF1200908910CE000211E
:10111000F9E701CF4FF00A0BF9E75946FFF7E2F87C
:1011200001F1300209F8012D0028F6D1ADEB0900DC
:1011300000F1200B600701D44FF00108D84502DD13
:10114000A8EB0B0000E000208046002406E009A880
:101150005246005D0D999047641C761C08988442A5
:10116000F5DB04E0302052460D999047761CB8F12B
:101170000001A8F10108F5DC05E019F8010B524661
:101180000D999047761CBBF10001ABF1010BF4DC2B
:101190006D1C34E70928010038B504468DF80000BD
:1011A00069460320ABBE204638BD00001CB5074988
:1011B0000120CDE900014202002305A1074801F00A
:1011C00013FC01F009F800201CBD00000000002005
:1011D0005461736B5374617274000000610F0008F6
:1011E0002DE9F041184C0F460546E6682068001DC1
:1011F00000F0D8FC38B9206890F82C100120884005
:10120000216981432161681C07D137B12168BDE89C
:10121000F0410E48091D00F0FDBC20683544B54280
:101220004560216805D2A06BBDE8F041091D00F0C2
:10123000D9BC606B091D00F0D5FCA06A854200D2C4
:10124000A562BDE8F08100001000002048060020E3
:101250002DE9F041054600F0E9FC2D4CA068401C4A
:10126000A06020682B4F10B1606930B32BE025607F
:10127000A068012827D1002606EB860007EB800036
:1012800000F0A2FC761C202EF6D3234800F09CFC34
:101290002148143000F098FC1F48283000F094FCDE
:1012A0001D483C3000F090FC1B48503000F08CFC96
:1012B000194860631430A06305E02068E96AC06AD9
:1012C000884200D82560606A401C60626864E96AF0
:1012D0000120226988401043206101EB810007EB67
:1012E0008000291D00F096FC00F0DEFC60690028FB
:1012F0000CD02068E96AC06A884207D207494FF0DB
:1013000080500860BFF34F8FBFF36F8FBDE8F0814F
:101310001000002078030020F805002004ED00E014
:1013200010B500F083FC0E4C2068A0B90D4800F009
:101330004BFC0C48143000F047FC0A48E0601430C5
:10134000206100221021052001F07AF8206010B100
:1013500005A100F085FDBDE8104000F0A5BC00002F
:101360004C0000205C060020546D7251000000000B
:1013700070B5114E114C17E000F07AFF3068B8B12B
:1013800001F092FC00F052FCF068C568281D00F0E6
:1013900009FCA068401EA0606068401E606000F00C
:1013A00083FC284600F055F860680028E4D170BD41
:1013B00001F07AFCF8E7000034060020100000205D
:1013C00030B4026C0B46002A0BD0C1681144C160D6
:1013D0004468A14201D30168C16030BC1846FEF7E1
:1013E0005DBF30BC70472DE9F041856B1746044660
:1013F0000026026C82B1C7B1E068FEF74FFFE168DA
:10140000206C091AE1602268914202D26168081AD0
:10141000E060022F16D017E02068A8B9606801F0DC
:1014200099FB0646002060600EE0A068FEF736FFDC
:10143000216CA0680844A0606168884204D32068D9
:10144000A06001E005B16D1E6D1CA5633046BDE8CE
:10145000F08110B50446006B00F05AFC2046BDE850
:10146000104000F055BC000010484FF438414207CE
:1014700006D0C01D0D4920F00700411AC1F53841C2
:101480000B4A00230144C2E900030839103A21F055
:10149000070111604B600B600B1AC0E900139360E9
:1014A0004FF000405360D060704700008406002079
:1014B00070000020074C4FF08056074DFFF758FF93
:1014C00020680128FAD92E60BFF34F8FBFF36F8FCA
:1014D000F4E700007803002004ED00E02DE9F04778
:1014E000DDE909840E461746824691009946089D1B
:1014F000A522206BFEF7E4FE6FF00301206B01EBE9
:101500008701084420F00707780705D040F22B3206
:1015100019A11FA0FFF744FD00202218315C82F8BA
:101520003410315C11B1401C1028F6D3002684F829
:101530004360202D00D31F25E562C4E91356201D0A
:1015400000F04DFB04F1180000F049FB2461C5F1E7
:1015500020006462A061666584F858604A4651467E
:10156000384600F009FB2060B8F1000F01D0C8F840
:101570000040BDE8F08700002E2E5C2E2E5C4672E7
:10158000656552544F535C7461736B732E63000036
:101590004572726F723A25732C25640D0A000000A3
:1015A00030B5114900E011460A688242FBD34B680E
:1015B0005C18844203D14068184448600846436878
:1015C0001C18944209D1084C103C2468A24209D04E
:1015D00052681A4442600A6812680260814200D070
:1015E000086030BD0460F9E77000002070B5002489
:1015F00041600B4D0061914206D8D11A8269914237
:1016000006D2011D286907E09A4203D2994201D30C
:10161000012403E0011DE86800F0E4FA204670BDF3
:101620004C00002010B5044600F000FBA06B28B170
:101630005FF0000400F038FB204610BD0124F9E7FC
:101640002DE9F34100980F460026846C2CB940F632
:10165000CE1216A11BA0FFF7A3FCA06BE16B884282
:1016600005D340F6CF1211A116A0FFF799FCA06B8D
:10167000E16B88420CD294F945503A4669462046BF
:10168000FFF7B1FE0646681C05D06D1C84F8455076
:101690003046BDE8FC81606A0028F9D004F12400DE
:1016A00001F0B4FA0028F3D00126F1E72E2E5C2ECB
:1016B0002E5C4672656552544F535C717565756555
:1016C0002E6300004572726F723A25732C25640DEB
:1016D0000A000000F8B5054614480E46C068C06808
:1016E000C468201D00F05EFAE069012817D1A069E6
:1016F0002B46411932462046FFF778FF78B100208B
:101700000346014600902A46204601F0B7FB30B957
:1017100007494FF4027201F11800FFF741FC616ABA
:1017200001B02046BDE8F040084700004C00002012
:10173000E02D000870B588B02F4E53E004980028C3
:1017400006DADDE90601059A90470498002849DB8E
:10175000069C606910B1201D00F024FA02A800F078
:10176000A7F8054604980A283CD2DFE800F00505F2
:10177000053B273805053B270598A1690346014429
:101780002A462046FFF732FF00282BD0616A204608
:101790008847E069012825D1002000900598A169BB
:1017A000002342181946204601F068FBD0B940F2E8
:1017B000213212A117A0FFF7F3FB13E00598A061F7
:1017C00028B94FF44E720DA112A0FFF7E9FBA069F2
:1017D0002B4641191A462046FFF708FF02E0204633
:1017E00000F096FA00231A4604A9306800F066FE5D
:1017F0000028A3D108B070BD4C0000202E2E5C2E16
:101800002E5C4672656552544F535C74696D657207
:10181000732E63004572726F723A25732C25640D26
:101820000A000000F8B50D46064600F021FD6846A6
:1018300000F03EF80446009810B101F035FAF8BD0A
:101840001148ADB101690968D9B10025311B2A469B
:10185000006800F019FB01F027FA0028EFD10B49CE
:101860004FF080500860BFF34F8FBFF36F8FF8BD0C
:10187000A642EBD801F018FA21463046FFF72AFFBE
:10188000F8BD0125E2E700004C00002004ED00E077
:101890000648416B096829B1416BC968C968496844
:1018A000816270474FF0FF31FAE70000100000201E
:1018B00070B5054601F0D2F8064E0446B068844281
:1018C00003D200F009F8012000E000202860204643
:1018D000B46070BD4C000020F8B5184D26E0C0681B
:1018E000C4680668201D00F05DF9616A20468847DB
:1018F000E06901281AD1A0693044B04206D92461B8
:101900006060211DE86800F06DF90FE000200346DB
:10191000014600903246204601F0B0FA30B908493D
:1019200040F2923201F11800FFF73AFBE8680168D3
:101930000029D4D12969C5E90310F8BD4C00002065
:10194000E02D000808484068401C05D040F20F1206
:1019500006A112A0FFF724FB502080F31188BFF3EB
:101960004F8FBFF36F8FFEE7780000202E2E5C2E86
:101970002E5C4672656552544F535C706F72746191
:10198000626C655C525644535C41524D5F434D342A
:10199000465C706F72742E63000000004572726FB7
:1019A000723A25732C25640D0A000000074CE0688C
:1019B000016841B1C0680021D0F80000FFF732FF94
:1019C000FFF7B8FEF3E701210020F7E74C00002005
:1019D0002DE9F041044600F029F994F9455004F14D
:1019E000240610E0A06C20B100212046FFF728FE5D
:1019F00004E0606A48B1304601F008F908B100F02F
:101A000021FB6D1E6DB2002DECDC4FF0FF3684F82B
:101A1000456000F049F900F009F994F9445004F1E7
:101A2000100709E0206948B1384601F0EFF808B125
:101A300000F008FB6D1E6DB2002DF3DC84F84460ED
:101A4000BDE8F04100F030B92DE9F041054600272E
:101A500000F00EFC324E306808B9FFF705FDF06863
:101A600005424FD1002D4DD0083568070BD005F049
:101A70000700C0F108000544680704D0BF2229A16F
:101A800033A0FFF78DFA002D3CD07068854239D81D
:101A90002348103001460C6801E020460C4661687E
:101AA000A94202D221680029F7D13168B0468C42A0
:101AB00028D007682168016060680837401B10283B
:101AC0000ED96619700704D0EC2216A120A0FFF7EA
:101AD00067FA6068401B706030466560FFF760FD24
:101AE0006268D8F804104046891AC8F80410D8F87B
:101AF0000830994200D28160D8F80C0002430020DF
:101B0000C4E9000201F0D0F8780705D04FF49672CE
:101B100004A10FA0FFF744FA3846BDE8F0810000A9
:101B2000600000202E2E5C2E2E5C4672656552549D
:101B30004F535C706F727461626C655C4D656D4D86
:101B4000616E675C686561705F342E630000000041
:101B50004572726F723A25732C25640D0A000000DD
:101B60000449086818B10868026D521C02650868CB
:101B7000704700001000002010B5031F4FF0807464
:101B80001C601B1F21F001011960191F044B0B6021
:101B900014390A60091F6FF0020244380A6010BD50
:101BA00045190008D0E9013201699A60D0E90123A2
:101BB0005A604A68824201D182684A60002202610A
:101BC0000868401E0860704700F108014FF0FF32BE
:101BD000C0E90112C160016100210160704700216C
:101BE0000161704730B50B685A1C02D000F1080241
:101BF00002E0026904E02246546825689D42FAD951
:101C000053684B6099608A60516008610168491CA3
:101C1000016030BD42684A6093688B609368596088
:101C2000916008610168491C01607047502080F391
:101C30001188BFF34F8FBFF36F8F09494868401C6D
:101C4000486001280AD10748006810F0FF0F05D04E
:101C500040F2B91204A110A0FFF7A2B9704700002A
:101C60007800002004ED00E02E2E5C2E2E5C4672E3
:101C7000656552544F535C706F727461626C655C41
:101C8000525644535C41524D5F434D34465C706F35
:101C900072742E63000000004572726F723A2573F1
:101CA0002C25640D0A00000010B5084C606828B9A6
:101CB0004FF4E07206A112A0FFF772F96068401EAF
:101CC000606001D180F3118810BD00007800002011
:101CD0002E2E5C2E2E5C4672656552544F535C70FE
:101CE0006F727461626C655C525644535C41524D34
:101CF0005F434D34465C706F72742E6300000000C9
:101D00004572726F723A25732C25640D0A0000002B
:101D100070B500282AD0164DA0F108046068E96863
:101D2000084205D14FF4A07212A11DA0FFF738F9A7
:101D3000206828B140F241120EA119A0FFF730F936
:101D40006168E868014211D02268002A0ED18143FF
:101D5000616000F08DFA6068696808446860204638
:101D6000FFF71EFCBDE8704000F09EBF70BD000094
:101D7000600000202E2E5C2E2E5C4672656552544B
:101D80004F535C706F727461626C655C4D656D4D34
:101D9000616E675C686561705F342E6300000000EF
:101DA0004572726F723A25732C25640D0A0000008B
:101DB00006484FF47A710068B0FBF1F14FF0E02073
:101DC000491E416107210161704700008400002025
:101DD00010B5FEF74DFA104C10280CD300F1E0209E
:101DE00090F8F0032178884205D24FF440720BA19D
:101DF00016A0FFF7D5F819480068A16800F4E06064
:101E0000884207D9BDE810404FF4447203A10FA0E7
:101E1000FFF7C6B810BD0000780000202E2E5C2E03
:101E20002E5C4672656552544F535C706F727461DC
:101E3000626C655C525644535C41524D5F434D3475
:101E4000465C706F72742E63000000004572726F02
:101E5000723A25732C25640D0A0000000CED00E099
:101E600010B5084B002200BF53F832401CB1521C81
:101E7000082AF9D310BD43F8321003EBC2014860C1
:101E800010BD00003803002070B515460E4604460C
:101E9000FFF7CCFE94F944100020491C01D184F8CE
:101EA000440094F94510491C01D184F84500FFF71E
:101EB000FBFEA06B28B92A46314604F1240000F04D
:101EC000F3F82046BDE87040FFF782BD70B50D46BF
:101ED000040005D140F279421AA120A0FFF760F872
:101EE0002DB940F27A4217A11CA0FFF759F81F4EF6
:101EF000306B28B140F27B4212A118A0FFF750F8D6
:101F000000F0B6F9F26823685919934204D98B425C
:101F10000AD9914202D807E08B42FAD9881A216087
:101F20000021FFF75DF900E0216000F0BDFE002810
:101F300007D10F494FF080500860BFF34F8FBFF3B8
:101F40006F8F70BD2E2E5C2E2E5C467265655254CE
:101F50004F535C7461736B732E6300004572726F34
:101F6000723A25732C25640D0A0000001000002031
:101F700004ED00E070B50546FFF758FE234C05B9A7
:101F80002568281DFFF70EFE58B9E86A204A00EBC5
:101F9000800152F8211021B9012181402069884334
:101FA0002061A86A18B105F11800FFF7FBFD606A0F
:101FB000401C60622068854207D1291D1548FFF743
:101FC00029FE6068401C606007E0A068401EA060B9
:101FD0002846FFF73EFAFFF75BFCFFF765FE6069F6
:101FE000002812D0206885420FD1206B28B140F222
:101FF000654209A10EA0FEF7D3FF11494FF08050B2
:102000000860BFF34F8FBFF36F8F70BD10000020CB
:1020100078030020340600202E2E5C2E2E5C4672A3
:10202000656552544F535C7461736B732E6300008B
:102030004572726F723A25732C25640D0A000000F8
:1020400004ED00E001490120C86170471000002044
:1020500070B50D46040005D140F6063207A10DA06B
:10206000FEF79EFF0F48016820461831FFF7BAFDC2
:102070002846BDE870400121FFF7B2B82E2E5C2E35
:102080002E5C4672656552544F535C7461736B737A
:102090002E6300004572726F723A25732C25640D11
:1020A0000A0000001000002070B514460D4606001E
:1020B00005D140F6313209A10EA0FEF771FF11489B
:1020C000016830461831FFF7A5FD0CB14FF0FF3520
:1020D00021462846BDE87040FFF782B82E2E5C2EC0
:1020E0002E5C4672656552544F535C7461736B731A
:1020F0002E6300004572726F723A25732C25640DB1
:102100000A0000001000002070B5040039D01D4DF9
:10211000E06A2968C96A884233D2A069002804DBD2
:102120002868C06AC0F12000A061E16A164E01EB88
:102130008101606906EB810188421FD1201DFFF7F4
:1021400031FD012150B9E06A00EB800256F82220EF
:1021500022B92A6901FA00F082432A612868C06A1C
:10216000E0622A6981401143296100EB800006EB9F
:102170008000211DBDE87040FFF74CBD2868C06A93
:10218000E06270BD100000207803002010B504004C
:1021900005D140F6C13205A10AA0FEF701FF0D48A6
:1021A000016A2160C068606010BD00002E2E5C2EA8
:1021B0002E5C4672656552544F535C7461736B7349
:1021C0002E6300004572726F723A25732C25640DE0
:1021D0000A000000100000201CB517480024CDE9BB
:1021E00000402346822215A1164800F0FDFB01287D
:1021F00003D100F009FE01280AD0401C1BD102B017
:1022000040F28472BDE810400FA115A0FEF7C8BED1
:10221000502080F31188BFF34F8FBFF36F8F0648B4
:102220004FF0FF312C38816201214161C460BDE86B
:102230001C4000F065B81CBD3C00002049444C45E2
:1022400000000000B51400082E2E5C2E2E5C467295
:10225000656552544F535C7461736B732E63000059
:102260004572726F723A25732C25640D0A000000C6
:102270000248016B491C01637047000010000020F8
:1022800070B5134C206B10B10120E06170BD0020CF
:10229000E06120690F4EB0FA80F0C0F11F0000EB42
:1022A000800556F8250028B940F6F6220AA110A0AC
:1022B000FEF776FE06EB850000F1080241684968EA
:1022C0004160914201D149684160C868206070BD99
:1022D00010000020780300202E2E5C2E2E5C46720B
:1022E000656552544F535C7461736B732E630000C9
:1022F0004572726F723A25732C25640D0A00000036
:102300001CB52F4C20682F49884205D140F2591244
:102310002DA139A0FEF744FE20682A49491E8842B3
:1023200005D14FF4AD7228A133A0FEF739FE364C2B
:1023300020780190FF20207020788DF800009DF813
:1023400000009DF8001000F0F000884205D040F237
:1023500073121DA128A0FEF723FE9DF800002B4A52
:1023600000F0500010700720906005E09DF800100C
:1023700049008DF80010401E9DF800100906F5D4A4
:10238000000200F4E0609060019820700C4820305A
:10239000016841F470010160016841F07041016021
:1023A000FFF706FD00205060FDF72AFF184801687E
:1023B00041F040410160FDF713FF00201CBD00000B
:1023C00000ED00E071C20F412E2E5C2E2E5C467295
:1023D000656552544F535C706F727461626C655CDA
:1023E000525644535C41524D5F434D34465C706FCE
:1023F00072742E63000000004572726F723A25738A
:102400002C25640D0A00000000E400E078000020A4
:1024100034EF00E010B5502080F31188BFF34F8FE8
:10242000BFF36F8F00F020FB18B104494FF08050CC
:102430000860002080F3118810BD000004ED00E06A
:102440002DE9F04117460E46050005D14FF4C47240
:1024500010A116A0FEF7A4FDBEB105FB06F0543096
:10246000FFF7F2FA04000ED004F154007EB12060B0
:10247000C4E90F562046012100F0E4F884F85070BA
:1024800000212046A164BDE8F0810020E7E7246038
:10249000EEE700002E2E5C2E2E5C467265655254CF
:1024A0004F535C71756575652E6300004572726FE0
:1024B000723A25732C25640D0A0000002DE9FF4FA8
:1024C000002683B09B468A46040005D140F2DC42D8
:1024D00051A157A0FEF764FDBAF1000F07D1206C9F
:1024E00028B140F2DD424CA151A0FEF759FD00F0A9
:1024F000A7FA38B9059828B14FF49C6246A14CA0C0
:10250000FEF74EFD4FF000094FF08057DFF83081A5
:10251000FFF78CFBA56B4DB351462046E668FEF7EE
:102520004FFFBBF1000F14D0E660606A58B104F1B0
:10253000240000BF00F06AFB28B1C8F80070BFF3A8
:102540004F8FBFF36F8FFFF7AFFB012007B0BDE8E0
:10255000F08F6D1EA563206810B9FFF701FB606066
:1025600020690028EFD004F11000E3E7059808B1D6
:102570001EB106E0FFF798FB27E06846FFF706FE6E
:102580000126FFF791FBFFF773FEFFF74FFB94F96E
:102590004400401C01D184F8449094F94500401C4B
:1025A00001D184F84590FFF77FFB05A9684600F04C
:1025B000D5F9002820460AD0FFF70AFA00F074FB8C
:1025C0002046FFF72FF80028A2D00020BEE7FFF733
:1025D00029F8D8B1206830B9FFF728FB6068FFF709
:1025E00093FDFFF761FB04F124000599FFF730FD2F
:1025F0002046FFF7EDF900F057FB002888D1C8F816
:102600000070BFF34F8FBFF36F8F81E72046FFF756
:10261000DFF900F049FB7BE72E2E5C2E2E5C467224
:10262000656552544F535C71756575652E63000086
:102630004572726F723A25732C25640D0A000000F2
:1026400004ED00E070B50D46040005D140F21B1208
:102650001CA122A0FEF7A4FCFFF7E8FAD4E90F20A2
:10266000216802FB001161600021A1632168A16063
:102670000A46D4E90F01401E00FB0121E16021461A
:102680004FF0FF3001F8440F487004F110004DB1D5
:10269000FFF79AFA04F12400FFF796FAFFF704FB1C
:1026A000012070BD21690029F8D000F0AFFA0028A0
:1026B000F4D00E494FF080500860BFF34F8FBFF346
:1026C0006F8FEBE72E2E5C2E2E5C467265655254A2
:1026D0004F535C71756575652E6300004572726FAE
:1026E000723A25732C25640D0A00000004ED00E009
:1026F0002DE9FF4782B01D468A464FF000080400CE
:1027000005D140F2D92250A155A0FEF749FCBAF1FB
:10271000000F07D1206C28B140F2DA224AA150A064
:10272000FEF73EFC022D08D1E06B012805D040F2F7
:10273000DB2245A14AA0FEF733FC00F081F938B94D
:10274000049828B140F2DE223FA145A0FEF728FC04
:10275000474F4FF000094FF0805600BFFFF766FA71
:10276000A06BE16B884207D3022D05D0049808B313
:10277000B8F1000F21D025E02A4651462046FEF749
:1027800032FEA16C21B129462046FEF759FF05E033
:10279000616A19B104F1240000F038FA20B13E60FA
:1027A000BFF34F8FBFF36F8FFFF77EFA012006B0A4
:1027B000BDE8F087FFF778FA22E06846FFF7E6FC0D
:1027C0004FF00108FFF770FAFFF752FDFFF72EFAFE
:1027D00094F94400401C01D184F8449094F94500D8
:1027E000401C01D184F84590FFF75EFA04A96846C1
:1027F00000F0B4F830B12046FFF7EAF800F054FAE0
:102800000020D4E7FFF712FAA06BE16B884213D1E6
:10281000FFF74AFA04F110000499FFF719FC20466B
:10282000FFF7D6F800F040FA002897D13E60BFF3DA
:102830004F8FBFF36F8F91E7FFF736FA2046FFF710
:10284000C7F800F031FA89E72E2E5C2E2E5C467216
:10285000656552544F535C71756575652E63000054
:102860004572726F723A25732C25640D0A000000C0
:1028700004ED00E02DE9F04798461746894604002C
:1028800005D140F29F322BA130A0FEF789FBB9F1B0
:10289000000F07D1206C28B14FF4687225A12BA03E
:1028A000FEF77EFBB8F1020F08D1E06B012805D0DE
:1028B00040F2A1321FA125A0FEF772FBFFF788FAB4
:1028C0005020EFF3118680F31188BFF34F8FBFF3D1
:1028D0006F8FA06BE16B884208D3B8F1020F05D06F
:1028E0005FF0000086F31188BDE8F08794F9455049
:1028F000424649462046FEF776FD681C04D06D1C12
:1029000084F845500120EDE7A06C012520B1414637
:102910002046FEF795FE06E0606A0028F2D004F13A
:10292000240000F073F90028ECD0002FEAD03D60BD
:10293000E8E700002E2E5C2E2E5C46726565525430
:102940004F535C71756575652E6300004572726F3B
:10295000723A25732C25640D0A00000070B50D46EF
:10296000040005D140F6CB3214A11AA0FEF718FBE3
:102970002DB940F6CC3211A116A0FEF711FBFFF7DE
:1029800055F9184AD1682868431C0FD02368126A89
:10299000934202D062688A420AD96268891A8142E7
:1029A00006D2401A28602046FFF7F0FB002400E022
:1029B0000124FFF779F9204670BD00002E2E5C2E11
:1029C0002E5C4672656552544F535C7461736B7331
:1029D0002E6300004572726F723A25732C25640DC8
:1029E0000A000000100000202DE9FF5F8346DDE9AA
:1029F0000E87994616468A469000FFF725F805008F
:102A00001AD05C20FFF720F8040012D025630021C3
:102A1000CDE90241CDE900874B4632465146584642
:102A2000FEF75CFD2046FEF713FC012004B0BDE874
:102A3000F09F2846FFF76CF94FF0FF30F6E70000F3
:102A40000548416919B1006B18B100207047012099
:102A50007047022070470000100000200148C06845
:102A600070470000100000202DE9F0412D4C002798
:102A7000206B40B1A069401CA061E06900B1012752
:102A80003846BDE8F081E668761CE66011D1606BDF
:102A9000006828B140F6D91223A129A0FEF780FAD8
:102AA000606BA16B6163A063206A401C2062FEF72B
:102AB000EFFEA06ADFF89880864209D3606B006859
:102AC00080B1606BC068C568686886420DD2A0623C
:102AD0002068C06A00EB800158F821000128CCD999
:102AE0000127CAE74FF0FF30F1E7281DFFF75AF83A
:102AF000A86A18B105F11800FFF754F8E86A012137
:102B0000226981401143216100EB800108EB8100C3
:102B1000291DFFF77FF8E86A2168C96A8842CDD38A
:102B20000127CBE7100000202E2E5C2E2E5C467273
:102B3000656552544F535C7461736B732E63000070
:102B40004572726F723A25732C25640D0A000000DD
:102B50007803002070B504004FF000063CD01F4DF4
:102B60002868844205D040F6C7621DA122A0FEF766
:102B700017FA206D28B940F6C96219A11EA0FEF708
:102B80000FFA206D401E2065E26CE16A914223D06D
:102B900010BB201DFFF706F81B4A012150B9E06A5F
:102BA00000EB800352F8233023B92B6901FA00F0BF
:102BB00083432B61E06CE062C0F12000A061E06A19
:102BC0002B6981401943296100EB800002EB8000F2
:102BD000211DFFF71FF80126304670BD10000020B0
:102BE0002E2E5C2E2E5C4672656552544F535C74DB
:102BF00061736B732E6300004572726F723A2573B6
:102C00002C25640D0A000000780300202DE9F04116
:102C1000C068C4682CB940F6613216A11BA0FEF74B
:102C2000BFF904F118000746FEF7BCFF1B4D286BE7
:102C3000012660B139461A48FEF7ECFFE06A2968C0
:102C4000C96A884213D90120EE61BDE8F081201DD8
:102C5000FEF7A8FFE16A2A6906FA01F0104328612D
:102C600001EB81000F4901EB8000211DE4E700200A
:102C7000EBE700002E2E5C2E2E5C467265655254EA
:102C80004F535C7461736B732E6300004572726FF7
:102C9000723A25732C25640D0A00000010000020F4
:102CA00020060020780300202DE9F0472C4C002559
:102CB0002E46206B28B94FF4FD622AA12FA0FEF703
:102CC0006FF9FEF7B3FF206B401E2063206BE0BB63
:102CD000A1682E4F0120C1B3A7F52A798046386834
:102CE000E8B1F868C56805F11800FEF75BFF281D1C
:102CF000FEF758FFE86A226908FA00F111432161E2
:102D000000EB800109EB8100291DFEF783FFE86AD3
:102D10002168C96A8842E2D3C4F81C80DFE70DB19C
:102D2000FEF7B6FDA5694DB14FEA0807FFF79CFE17
:102D300000B1E7616D1EF9D10020A061E06920B10A
:102D4000134901263007086000E003E0BFF34F8F0E
:102D5000BFF36F8FFEF7A8FF3046BDE8F087000095
:102D6000100000202E2E5C2E2E5C4672656552549B
:102D70004F535C7461736B732E6300004572726F06
:102D8000723A25732C25640D0A00000020060020ED
:102D900004ED00E02DE9F0470746994616460D463A
:102DA0002C20DDF820A0FEF74FFE040014D0B8461A
:102DB0004F46D1462DB94FF4C67209A10EA0FEF7B9
:102DC000EFF8FEF7ADFA04F11801C4F8008081E8CD
:102DD000E002201DFEF703FF2046BDE8F08700005B
:102DE0002E2E5C2E2E5C4672656552544F535C74D9
:102DF000696D6572732E63004572726F723A257346
:102E00002C25640D0A0000001CB50024FEF788FA8A
:102E10000C48006868B10B491F20091DCDE900016D
:102E200000234FF4827208A10948FFF7DDFD04007A
:102E300005D140F2331207A10CA0FEF7B1F82046ED
:102E40001CBD00004C000020546D722053766300BE
:102E5000AD1900082E2E5C2E2E5C4672656552540C
:102E60004F535C74696D6572732E63004572726FA7
:102E7000723A25732C25640D0A0000002DE9FF47E6
:102E8000DDF830A0994690460E4607004FF000044A
:102E900005D14FF4D37212A117A0FEF781F81A4D95
:102EA000286880B1CDE900680297062E11DAFFF795
:102EB000C7FD02284FF0000309D0002269462868A8
:102EC000FFF716FC044604B02046BDE8F0875246E2
:102ED000F4E700234A466946FFF7CCFCF2E700001E
:102EE0002E2E5C2E2E5C4672656552544F535C74D8
:102EF000696D6572732E63004572726F723A257345
:102F00002C25640D0A0000004C0000202C2F000826
:102F1000000000209C000000C00F0008C82F00081F
:102F20009C000020ECC10000D00F00080000000051
:102F30000000000000000000000000000000000091
:102F40000000000000000000000000000000000081
:102F50000000000000000000000000000000000071
:102F60000000000000000000000000000000000061
:102F70000000000000000000000000000000000051
:102F80000000000000000000000000000000000041
:102F90000000000000000000000000000000000031
:102FA0000000000000000000AAAAAAAA0000000079
:102FB0000095BA0A000000000000000001020304AE
:082FC0000607080900000000EB
:04000005080001AD41
:00000001FF
