:020000040800F2
:100000002807002079020008FD020008F502000818
:10001000F9020008ED0200089F040008000000003B
:10002000000000000000000000000000C101000806
:10003000F302000800000000150200082104000877
:10004000930200089302000893020008930200083C
:10005000930200089302000893020008930200082C
:10006000930200089302000893020008930200081C
:10007000930200089302000893020008930200080C
:1000800093020008930200089302000893020008FC
:10009000F10200089302000893020008930200088E
:1000A00093020008930200089302000893020008DC
:1000B00093020008930200089302000893020008CC
:1000C00093020008930200089302000893020008BC
:1000D000930200089B0400089D0400089302000896
:1000E000930200089302000893020008930200089C
:1000F000930200089302000893020008930200088C
:10010000930200089302000893020008930200087B
:100110009302000893020008990400089302000863
:10012000930200089302000893020008930200085B
:10013000930200089302000893020008930200084B
:10014000930200089302000893020008930200083B
:10015000930200089302000893020008930200082B
:10016000930200089302000893020008930200081B
:10017000930200089302000893020008930200080B
:1001800093020008930200089302000893020008FB
:1001900093020008930200089302000893020008EB
:1001A000000000000000000093020008DFF80CD0FF
:1001B00000F08AF800480047AF0600082807002032
:1001C0002A4B19680868B0E8F04F80F30988BFF33C
:1001D0006F8F4FF0000080F311887047000000001F
:1001E00006480068006880F3088862B661B6BFF30D
:1001F0004F8FBFF36F8F00DF00BF00BF08ED00E03F
:10020000DFF80C00016841F470010160704700BF25
:1002100088ED00E0EFF30980BFF36F8F134B1A688E
:100220001EF0100F08BF20ED108A20E9F04F10607B
:1002300008B44FF0500080F31188BFF34F8FBFF325
:100240006F8F00F071FA4FF0000080F3118808BC46
:1002500019680868B0E8F04F1EF0100F08BFB0EC46
:10026000108A80F30988BFF36F8F70470000002069
:10027000EFF30580704700000648804706480047B6
:10028000FEE7FEE7FEE7FEE7FEE7FEE7FEE7FEE746
:10029000FEE7FEE731040008AD01000830B50B466B
:1002A000014600202022012409E021FA02F59D42A6
:1002B00005D303FA02F5491B04FA02F52844151E7A
:1002C000A2F10102F1DC30BD064C074D06E0E0680A
:1002D00040F0010394E8070098471034AC42F6D38D
:1002E000FFF768FF8C090008AC09000800BFFEE7B3
:1002F0007047704700BFFEE700BFFEE77047000091
:100300000CB50020019000904148006840F4803016
:100310003F49086000BF3E48006800F4003000908C
:100320000198401C0190009818B90198B0F5A04FB1
:10033000F1D13748006800F4003010B1012000907E
:1003400001E0002000900098012860D13048403042
:10035000006840F080502E49403108602D48006808
:1003600040F440402B49086029480830006828497B
:10037000083108600846006840F4004008600846FC
:10038000006840F4A05008602348091F0860081F57
:10039000006840F08070091F086000BF1C480068BA
:1003A00000F000700028F9D01A48006840F480304E
:1003B0001849086000BF1748406800F480300028E2
:1003C000F9D01448006840F400301249086000BFBA
:1003D0001048406800F400300028F9D040F2057061
:1003E0000E4908600A480830006820F003000849F8
:1003F000083108600846006840F00200086000BF4D
:1004000003480830006800F00C000828F8D10CBD43
:1004100000380240007000400C5A4007003C024087
:1004200010B500F0F1F9012801D000F0D3F910BDAA
:1004300010B51548006840F470001349086013486F
:10044000006840F001001149086000200F490831A0
:1004500008600E4800680E4908400C4908600D48C5
:10046000091D0860081F006820F48020091F08602B
:10047000002006490C310860FFF742FF4FF0006092
:1004800001498039086010BD88ED00E00038024065
:10049000FFFFF6FE1030002470477047704700BF22
:1004A000FEE700000FB4054B10B503A9044A0298FB
:1004B00000F018F810BC5DF814FB00009D06000861
:1004C0003C00002002E008C8121F08C1002AFAD12F
:1004D00070477047002001E001C1121F002AFBD1C4
:1004E000704700002DE9FF4F8BB09A460F46054636
:1004F000002606E025280BD052460D9990476D1C2A
:10050000761C28780028F5D10FB03046BDE8F08F72
:100510000024A0460122604900E0044315F8013F91
:10052000203B02FA03F00842F7D128782E2817D191
:1005300015F8010F44F004042A280ED06FF02F02A2
:100540002878A0F1300109290AD808EB880102EBCC
:10055000410100EB01086D1CF2E757F8048B6D1C9C
:10056000287869283ED006DC0028CDD063280BD03F
:10057000642804D136E0732810D075284BD0524639
:100580000D999047761C85E017F8040B8DF8000054
:1005900000208DF80100E946012003E057F8049B94
:1005A0004FF0FF3061074FF0000401D40AE0641CF3
:1005B00044450DDA8442FADB19F804100029F6D11B
:1005C00006E0641C8442FCDB19F804100029F8D111
:1005D000264404E019F8010B52460D999047641E19
:1005E000F8D257E001CF4FF00A0B002802DA404260
:1005F0002D2102E0210504D52B218DF824100121A5
:1006000003E0E10705D02021F7E70DF1200908916B
:100610000CE00021F9E701CF4FF00A0BF9E759464A
:10062000FFF73CFE01F1300209F8012D0028F6D158
:10063000ADEB090000F1200B600701D44FF0010879
:10064000D84502DDA8EB0B0000E000208046002426
:1006500006E009A85246005D0D999047641C761C7F
:1006600008988442F5DB04E0302052460D9990470B
:10067000761CB8F10001A8F10108F5DC05E019F8D5
:10068000010B52460D999047761CBBF10001ABF16E
:10069000010BF4DC6D1C34E70928010038B5044671
:1006A0008DF8000069460320ABBE204638BD00200F
:1006B000704700000A490968096809B9012100E08A
:1006C000002121B14FF0FF31064A116006E00449D4
:1006D0000968C968C868034A41681160704700002A
:1006E000040000203000002001460A69D1E90130F1
:1006F0009860D1E9010358605068884201D1886848
:100700005060002008611068401E1060106870473B
:1007100042684A6093688B60936859609160086191
:1007200003685B1C0360704710B51B48006818B174
:1007300001201A4908602DE0002018490860184877
:100740000068B0FA80F0C0F11F0404EB8400154982
:1007500051F8200008B1012000E0002028B940F63F
:10076000F62211A116A0FFF79DFE04EB84010D4AAD
:1007700002EB810041684968416000F1080142686C
:100780008A4202D14168496841604168C968104A9B
:10079000116000BF10BD00003800002024000020C0
:1007A00018000020400000202E2E5C2E2E5C467289
:1007B000656552544F535C7461736B732E63000014
:1007C0004572726F723A25732C25640D0A00000081
:1007D0000000002010B500BF502080F31188BFF347
:1007E0004F8FBFF36F8F00BF00F01EF818B14FF0AE
:1007F00080500449086000BF002080F3118800BFCA
:1008000010BD000004ED00E00549096809B90120A8
:1008100005E00449096809B9022000E0002070479A
:100820001C000020380000202DE9F0414FF00008A6
:1008300041480068002872D140480068451C3F4884
:100840000560EDB93E480068006808B9012000E085
:10085000002028B940F6D9123AA140A0FFF722FEA5
:100860003748076841480068354908603F480760D5
:100870003F480068401C3E490860FFF71BFF00BF6F
:100880003C48006885423CD300BF2D4800680068A2
:1008900008B9012000E0002020B14FF0FF303549B9
:1008A00008602DE026480068C068C4686668B542E4
:1008B00002D23048066023E0201DFFF715FFA06A32
:1008C00018B104F11800FFF70FFF94F82C10012065
:1008D000884029490968084327490860E16A01EB13
:1008E0008101264A02EB8100211DFFF711FF2449F7
:1008F000E06A0968C96A8842C7D34FF00108C4E7B3
:1009000000BF1F480068C06A00EB80001B4951F817
:100910002000012801D94FF0010805E0FFE7194840
:100920000068401C174908601748006808B14FF07C
:1009300001084046BDE8F081380000201400002086
:10094000040000202E2E5C2E2E5C467265655254EB
:100950004F535C7461736B732E6300004572726F4A
:10096000723A25732C25640D0A000000080000204F
:100970002800002030000020180000204000002047
:10098000000000202000002024000020AC09000806
:100990000000002040000000C4040008EC0900082A
:1009A00040000020E8060000D40400080000000019
:1009B0000000000000000000000000000000000037
:1009C0000000000000000000000000000000000027
:1009D0000000000000000000000000000000000017
:0C09E0000000000000000000000000000B
:04000005080001AD41
:00000001FF
