:020000040800F2
:1000000080C5002079020008AD2F00087D28000877
:10001000A92F00083D0C0008653F00080000000003
:10002000000000000000000000000000C101000806
:10003000711F0008000000001502000801360008CA
:10004000930200089302000893020008930200083C
:10005000930200089302000893020008930200082C
:10006000930200089302000893020008930200081C
:10007000930200089302000893020008930200080C
:1000800093020008930200089302000893020008FC
:10009000290D00089302000893020008930200084B
:1000A00093020008930200089302000893020008DC
:1000B00093020008930200089302000893020008CC
:1000C00093020008930200089302000893020008BC
:1000D00093020008653900082D3B00082F3B0008FB
:1000E000930200089302000893020008930200089C
:1000F000930200089302000893020008930200088C
:10010000930200089302000893020008930200087B
:100110009302000893020008413700089302000888
:10012000930200089302000893020008930200085B
:10013000930200089302000893020008930200084B
:10014000930200089302000893020008930200083B
:10015000930200089302000893020008313B000854
:10016000930200089302000893020008930200081B
:10017000930200089302000893020008930200080B
:1001800093020008930200089302000893020008FB
:1001900093020008930200089302000893020008EB
:1001A000000000000000000093020008DFF80CD0FF
:1001B00000F05AFB004800473963000880C5002062
:1001C0002A4B19680868B0E8F04F80F30988BFF33C
:1001D0006F8F4FF0000080F311887047000000001F
:1001E00006480068006880F3088862B661B6BFF30D
:1001F0004F8FBFF36F8F00DF00BF00BF08ED00E03F
:10020000DFF80C00016841F470010160704700BF25
:1002100088ED00E0EFF30980BFF36F8F134B1A688E
:100220001EF0100F08BF20ED108A20E9F04F10607B
:1002300008B44FF0500080F31188BFF34F8FBFF325
:100240006F8F07F05BFB4FF0000080F3118808BC54
:1002500019680868B0E8F04F1EF0100F08BFB0EC46
:10026000108A80F30988BFF36F8F70476400002005
:10027000EFF30580704700000648804706480047B6
:10028000FEE7FEE7FEE7FEE7FEE7FEE7FEE7FEE746
:10029000FEE7FEE711360008AD01000840EA010361
:1002A0009B0703D009E008C9121F08C0042AFAD22C
:1002B00003E011F8013B00F8013B521EF9D27047F0
:1002C000D2B201E000F8012B491EFBD27047002298
:1002D000F6E710B513460A4604461946FFF7F0FF45
:1002E000204610BD2DE9FE4F804681EA0300C00F75
:1002F0000C46009021F0004123F00045B8EB0200CD
:10030000A94105D24046214690461C460B4602466E
:1003100023F00040104347D0270DC7F30A00C3F372
:100320000A510290401A019040286BDAC3F313007F
:1003300040F4801B0098924620B10023D2EB030AC0
:1003400063EB0B0B01985946C0F14002504600F098
:10035000B5F806460D4650465946019A00F0BDF8DC
:1003600010EB08006141002487EA115284EAE77328
:100370001A4340D0009A62B3019A012A4FEA075209
:1003800015DC001B61EB02014FF0004202EA07524C
:10039000CDE90042001C41F5801132462B4600F0A9
:1003A000F4F803B0BDE8F08F40462146F9E7001BA2
:1003B00061EB0201001C41F5801300185B4120181D
:1003C000A2F5001747EB030140EAD570B6196D415D
:1003D00011E06D084FEA360645EAC0754FEA07524C
:1003E000001B61EB0201001C41F5801149084FEA36
:1003F00030000019514132462B4603B0BDE8F04FA2
:1004000000F0B4B80098012240000023D0EB0202B3
:1004100063EBE073009821464FEAE074B8EB00000C
:1004200061EB0401E9E783F000435BE781F0004101
:1004300058E700F0004230F000400AD0C10D01F54D
:100440006071C0F3160042EA0151C208400711432F
:10045000704700200146704701F0004330B421F09E
:10046000004150EA010206D00A0DA2F56072C1F304
:100470001301002A02DC30BC00207047440F44EA1C
:10048000C104C100E01830BC00EBC25000F037B826
:1004900030B50B46014600202022012409E021FA54
:1004A00002F59D4205D303FA02F5491B04FA02F551
:1004B0002844151EA2F10102F1DC30BD202A04DB24
:1004C000203A00FA02F1002070479140C2F1200367
:1004D00020FA03F3194390407047202A06DBCB171C
:1004E000203A41FA02F043EAE07306E041FA02F3EF
:1004F000D040C2F1200291400843194670470029BC
:10050000A8BF7047401C490008BF20F00100704799
:1005100010B4B0FA80FC00FA0CF050EA010404BFF9
:1005200010BC704749B1CCF1200421FA04F411FA4F
:100530000CF118BF012121430843A3EB0C01CB1D93
:100540004FEA00614FEA102042BF002010BC704704
:1005500000EBC35010440029A4BF10BC7047401CDE
:10056000490008BF20F0010010BC704710B5141EF0
:1005700073F1000408DA401C41F1000192185B415C
:100580001A4301D120F0010010BD2DE9F04D924633
:100590009B4611B1B1FA81F202E0B0FA80F220324A
:1005A0009046FFF78BFF04460F4640EA0A0041EAF7
:1005B0000B0153465A46084313D0114653EA010033
:1005C00019D0C8F14002504600F060F905460E46C9
:1005D000504659464246FFF771FF084305D00120B7
:1005E00004E020463946BDE8F08D0020054346EA88
:1005F000E0762C4337430A986305E40AA0EB080031
:100600000022FD0A44EA47540A3002D50020014680
:10061000E9E7010510196941DDE90845001969415B
:10062000BDE8F04DA2E72DE9FE4F81EA030404F096
:10063000004421F0004100944FF0000B23F00043F0
:1006400050EA01045ED052EA03045BD0C3F30A54BB
:10065000C1F30A552C44A4F2F3340194A0FB0254D4
:10066000C1F3130141F48011C3F3130343F4801366
:1006700001FB024400FB034E840A970A44EA8154BA
:1006800047EA8357A4FB076802958D0A05FB078597
:100690004FEA932C04FB0C542705029D4FEA0658A1
:1006A00047EA1637B5EB08056EEB070C870E920E7E
:1006B00047EA811742EA8312A7FB0201B6EB0B015E
:1006C00064EB00042B0D43EA0C335E1844EB1C5022
:1006D000DA465146E7FB0201C5F313044FEA0B3338
:1006E00043EA14534FEA0432019C43EA0603A4F19F
:1006F0000C040294009CCDE900B4FFF746FF03B060
:10070000BDE8F08F00200146F9E72DE9F04D81EAC0
:10071000030404F0004B21F0004514464FF0000A9A
:1007200023F0004150EA050220D054EA01021DD016
:10073000C5F30A570246C5F31303C1F31300C1F30F
:100740000A5640F4801543F48013A7EB0608101BEB
:10075000D64608F2FD3873EB050002D308F1010814
:1007600001E092185B41B8F1000F03DA0020014666
:10077000BDE8F08D00204FF48011064684460EE05F
:10078000171B73EB050705D3121B63EB0503064329
:100790004CEA010C49084FEA300092185B4150EADC
:1007A0000107EDD152EA030012D082EA040083EA85
:1007B0000501084305D0101BAB4106D201220023DE
:1007C00006E000224FF0004302E06FF001025310F8
:1007D0001AEB06004CEB085110EB0A0041EB0B0141
:1007E000BDE8F04DFFF7C2BE70B521F000430343F2
:1007F0000CD0C1F30A550024D5EB040564EB0403C7
:10080000D617AD1AB34102DB0020014670BD201897
:1008100041EB025170BD0EB5C10F80EAE070084493
:10082000CA07002140F233438DE80E000A460B460A
:10083000FFF7ABFE03B000BD30B5041E71F100043C
:1008400004DB4FF00044404264EB0101141E73F1DD
:10085000000405DB1C464FF00043524263EB0403E7
:10086000994208BF904230BD064C074D06E0E06853
:1008700040F0010394E8070098471034AC42F6D3E7
:10088000FFF798FCB08B0008D08B0008202A04DB0F
:10089000203A21FA02F00021704721FA02F3D040F9
:1008A000C2F1200291400843194670472DE9F04DEE
:1008B00000231A461B1A8A4103DB00200146BDE8CB
:1008C000F08DC1F30A52C1F3130141F480154FF0CA
:1008D000000BD10702D100186D41521E00270446BB
:1008E00040F2FF11384601EB620A3E46804602465E
:1008F00000204FF48011FFF7C9FFC2197141BB18E6
:1009000046EB0100B4EB030C75EB000C04D3E41AC6
:1009100065EB000517460E46241908F101006D41EC
:1009200080463428E3DDF91946EB0600091BA8418F
:1009300003D24FF0FF32134601E0002213461BEBB7
:10094000070046EB0A51BDE8F04DFFF70FBE00006F
:100950000FB400B50198A0F2012008282CD2DFE8DE
:1009600000F0042C5986B3DEFEFD9DF810009DF8C2
:100970000F1040EA012000B2AC4908809DF8121027
:100980009DF8110041EA002000B2A84948809DF876
:1009900014109DF8130041EA002000B2A34988809A
:1009A0009DF81500C880012081F84A000846B0F87B
:1009B0004C00401CA1F84C0035E19DF810009DF85A
:1009C0000F1040EA012000B29849A1F850009DF8AC
:1009D00012109DF8110041EA002001B29348A0F8DE
:1009E00052109DF814109DF8130041EA002001B246
:1009F0008E48A0F854109DF81510A0F8561001214B
:100A000080F89A10B0F89C00401C81B28748A0F88A
:100A10009C1008E19DF810009DF80F1040EA01209D
:100A200000B28249A1F8A0009DF812109DF81100B3
:100A300041EA002001B27D48A0F8A2109DF81410F0
:100A40009DF8130041EA002001B27848A0F8A410F4
:100A50009DF81510A0F8A610012180F8EA10B0F852
:100A6000EC00401C81B27148A0F8EC10DBE09DF86E
:100A700010009DF80F1040EA012000B26B49A1F868
:100A8000F0009DF812109DF8110041EA002001B21B
:100A90006648A0F8F2109DF814109DF8130041EA82
:100AA000002001B26148A0F8F4109DF81510A0F8DC
:100AB000F610012180F83A11B0F83C01401C81B2D7
:100AC0005A48A0F83C11AEE09DF810009DF80F10B8
:100AD00040EA012000B2564908809DF812109DF8A6
:100AE000110041EA002000B251494880002002F084
:100AF0001FF94F48B0F900004D49B1F86C104FF4A0
:100B0000005212FB01004A498866012081F87A00F0
:100B10000846B0F87C00401CA1F87C0083E09DF8FA
:100B200010009DF80F1040EA012000B24049A1F8E2
:100B300080009DF812109DF8110041EA002001B2DA
:100B40003B48A0F88210012002F0F2F83848B0F9D2
:100B50008010B0F8EC004FF4005201E044E00FE0E8
:100B600012FB00113248C0F8E810012180F8FA1099
:100B7000B0F8FC00401C81B22D48A0F8FC1052E0F7
:100B80009DF810009DF80F1040EA012000B229499D
:100B900008809DF812109DF8110041EA002000B273
:100BA000244948809DF814109DF8130041EA002064
:100BB00000B220498880002002F06EF81D48B0F98C
:100BC00000001C49B1F86C104FF4005212FB0100F8
:100BD00018498866012081F87E000846B0F8800038
:100BE000401CA1F8800000BF9DF810009DF80F1078
:100BF00040EA012000B2104908809DF812109DF8CB
:100C0000110041EA002000B20B4948809DF8141001
:100C10009DF8130041EA002000B2074988809DF842
:100C20001500C88000BF00BF5DF814FBD80100208C
:100C300018030020180400209C04002000BFFEE7D9
:100C400000B589B00121082002F0DAFA0121480636
:100C500002F0E6FA02208DF820008DF82100002035
:100C60008DF823008DF822000220079007A92C4858
:100C700001F066FC0120079007A9294801F060FCFB
:100C800009220121264801F0A3FC09220021244861
:100C900001F09EFC00208DF8160001208DF8170051
:100CA0008DF8180000208DF819008DF81A008DF8C5
:100CB0001B008DF812008DF8130002208DF814002F
:100CC00004208DF815000520ADF8100004A9154882
:100CD00000F0D9F900208DF80A008DF80B000120F2
:100CE0008DF80C000020ADF8080001208DF80D00F3
:100CF0000020ADF80000ADF80200ADF80400ADF83A
:100D00000600684600F0A2F800220A21142002F032
:100D10004EF901220221034800F0ACF909B000BDF0
:100D2000000C02400064004000B587B00020019034
:100D30000221104800F00EF9C8B102AA00210D48A6
:100D400000F02BFA002301AA02A90B48006807F063
:100D500055F9019838B14FF0805008490860BFF349
:100D60004F8FBFF36F8F0221024800F01BF807B0CE
:100D700000BD0000006400402000002004ED00E001
:100D800086B00CE000235A1E01A90548006806F051
:100D900011FF0598009001A80FC8FFF7D9FDF1E7F2
:100DA00020000020B1F5007F3AD00FDC202928D0A8
:100DB00006DC01291CD004291DD0082940D11DE0E2
:100DC000402921D0B1F5807F3AD126E0B1F5004F1E
:100DD00031D006DCB1F5806F25D0B1F5006F2FD191
:100DE00024E0B1F5803F12D0B1F5003F28D111E0E9
:100DF000154A826025E00822C26022E01022C2600B
:100E00001FE0082202611CE01022026119E00822A2
:100E1000426016E01022426013E00422426010E0BB
:100E2000042242600DE0042242600AE00022826156
:100E30000422426005E0002282610422426000E058
:100E400000BF00BF704700000101010010B5002184
:100E5000837A012202FA03F13D4A126842F001024C
:100E60003B4B1A603A4A1C3212688A43384B1C3397
:100E70001A60027BCAB9364A0C3212688A43344B74
:100E80000C331A604288C38842EA0343304A403236
:100E9000847A42F834300288838842EA03432C4A39
:100EA0004032847A02EBC4025360027B012A19D1DA
:100EB000274A0C3212680A43254B0C331A604288C9
:100EC000038842EA0343224A4032847A42F83430AB
:100ED000C288838842EA03431D4A4032847A02EB87
:100EE000C4025360C27A3AB9194A121D12688A4381
:100EF000174B1B1D1A6006E0154A121D12680A43A3
:100F0000134B1B1D1A60028932B9114A1432126840
:100F10008A430F4B14331A600289012A06D10C4A06
:100F2000143212680A430A4B14331A60427B012AB6
:100F300006D1074A1C3212680A43054B1C331A605B
:100F4000034A126822F00102014B1A6010BD000032
:100F50000066004070B504460D46002660692840D2
:100F6000002871D0B5F5807F5CD010DC082D35D01D
:100F700006DC012D20D0022D24D0042D72D127E0D3
:100F8000102D31D0202D35D0402D6BD138E0B5F566
:100F9000004F60D009DCB5F5007F49D0B5F5806F12
:100FA0004CD0B5F5006F5DD14FE0B5F5803F2DD049
:100FB000B5F5003F56D12FE0A0682D4900F042FC66
:100FC000064651E0E068032100F03CFC06464BE099
:100FD000E068082100F036FC064645E0E068102194
:100FE00000F030FC06463FE02069032100F02AFCB7
:100FF000064639E02069082100F024FC064633E06B
:101000002069102100F01EFC06462DE060680821D2
:1010100000F018FC064627E06068102100F012FC82
:10102000064621E0A069012100F00CFC06461BE009
:10103000A069022100F006FC064615E0A069042123
:1010400000F000FC06460FE00FE0A069702100F000
:10105000F9FB064608E06068042100F0F3FB064651
:1010600002E0FFE7002600BF00E00026304670BD2A
:10107000010101001AB143690B43436102E0436976
:101080008B434361704730B502460020002314684B
:1010900024F002041460146844F00104146000E0B9
:1010A0005B1C546804F001041CB94FF6FF74A342A2
:1010B000F6D1546804F001040CB900206CE08C797E
:1010C000012C04D1146844F08004146003E0146817
:1010D00024F080041460CC79012C04D1146844F00D
:1010E0004004146003E0146824F0400414600C7A97
:1010F000012C04D1146844F02004146003E0146847
:1011000024F0200414604C7A012C04D1146844F0BB
:101110001004146003E0146824F0100414608C7A46
:10112000012C04D1146844F00804146003E014682E
:1011300024F008041460CC7A012C04D1146844F023
:101140000404146003E0146824F0040414608C7830
:10115000A407CD7844EA05640D7944EA05444D7945
:1011600044EA05540D886D1E2C43D461146824F0A4
:1011700001041460002300E05B1C546804F00104C7
:101180001CB14FF6FF74A342F6D1546804F0010479
:101190000CB1002000E0012030BD10B500F5D8737F
:1011A00003EB01131B6803F004031372137A53B9A2
:1011B00000F5D87303EB01131B6840F2FF7404EAD7
:1011C0005353136009E000F5D87303EB01131B6858
:1011D0006FF0604404EAD303536000F5D87303EB67
:1011E00001131B6803F00203537200F5D87303EB7D
:1011F00001135B6803F00F03937200F5D87303EBE0
:1012000001135B681B0AD37400F5D87303EB011359
:101210009B68D37200F5D87303EB01139B681C0A1B
:10122000147300F5D87303EB01139B681C0C547303
:1012300000F5D87303EB01139B681B0E937300F545
:10124000D87303EB0113DB68D37300F5D87303EB9A
:101250000113DB681C0A147400F5D87303EB011347
:10126000DB681C0C547400F5D87303EB0113DB68C6
:101270001B0E937421B9C36843F02003C36003E0DD
:10128000036943F02003036110BDF0B585B0074644
:101290000C4615461E460CB9009500E001958DF8E8
:1012A000084000208DF8090008208DF80A00002071
:1012B00005E0325C0DF10B010A54411CC8B208284C
:1012C000F7DB6946384600F025F805B0F0BD0000B0
:1012D0001CB500221421084606F030FC06490860BF
:1012E0000648042100238022CDE9001004A108480B
:1012F00006F060FF1CBD0000200000201C00002044
:1013000043414E5F526563656976655461736B0056
:10131000810D000810B502460020936803F0806339
:10132000B3F1806F00D110E0936803F00063B3F174
:10133000006F01D1012008E0936803F08053B3F1FE
:10134000805F01D1022000E00420042874D002F55F
:10135000C07303EB00131B6803F0010402F5C073B4
:1013600003EB00131C600B7A7BB94B7A0C8843EAC1
:10137000445302F5C07404EB00142468234302F5BF
:10138000C07404EB0014236010E00B7A4C6843EA4D
:10139000C4034C7A234302F5C07404EB00142468A0
:1013A000234302F5C07404EB001423608B7A03F02E
:1013B0000F038B7202F5C07303EB00135B6823F01D
:1013C0000F0402F5C07303EB00135C6002F5C073F9
:1013D00003EB00135B688C7A234302F5C07404EBC3
:1013E000001463608B7B1C064B7B44EA03440B7B3D
:1013F00044EA0323CC7A234302F5C07404EB0014BF
:10140000A3608B7C1C064B7C44EA03440B7C44EABF
:101410000323CC7B234302F5C07404EB0014E36088
:1014200002F5C07303EB00131B6843F0010402F5DF
:10143000C07303EB00131C6010BD08B500200090C2
:1014400005E000F081F80A21684606F01DF8F8E78B
:101450002DE9FC4107460C4615461E46380A8DF814
:101460000000F8B28DF80100200A8DF80200E0B209
:101470008DF80300280A8DF80400E8B28DF8050005
:10148000300A8DF80600F0B28DF807006B464FF475
:10149000007200210248FFF7F8FEBDE8FC81000061
:1014A0000064004010B59FED230A234880ED010A37
:1014B0004FF47A72D1009FED211AF7EE080AB0EED0
:1014C000040A1F4801F072FA4FF47A72D1009FEDBE
:1014D0001B1AF7EE080AB0EE040A1948503001F062
:1014E00065FA4FF47A72D1009FED141AF7EE080AEC
:1014F000B0EE040A1248A03001F058FA4FF47A72A4
:10150000D1009FED0E1AF7EE080AB0EE040A0C485F
:10151000F03001F04BFA4FF4FA7241F29411B2EE4E
:101520000B1ADFED060A9FED070A0348143001F09D
:1015300047FE10BD0AD7233DE00400200000000054
:10154000E00100206666464010B52DED048B9FED4E
:101550001A0AB0EE408A9FED180AF0EE408A9FED1D
:10156000160AB0EE409A154890ED000A9FED141A45
:10157000C0EE010A9FED130A20EE800AB0EE408A09
:10158000D0ED010A9FED101A80EE810ADFED0D0A01
:1015900020EE200AF0EE408A01F042F9C4B2204663
:1015A000B0EE491AF0EE680AB0EE480A00F00EF804
:1015B000BDEC048B10BD00000000000030010020D5
:1015C000000025440040CE450000164431B52DED05
:1015D000040B2DED028B05469FED920AB0EE408A7A
:1015E000022D09D100231A4619461846FFF730FF8D
:1015F000BDEC028B05B030BD8B48D0ED010AB0EEDA
:10160000600A00F1080102A800F0D2FE8648D0ED81
:10161000010AB0EE600A00F10C0103A800F0C8FE58
:101620008148D0ED010AB0EE600A00F1100104A873
:1016300000F0BEFE7D48008801287BD07B480088F2
:10164000022879D19FED770A774880ED110A784812
:1016500090ED1A0AB8EEC00ADFED760A30EE600AA5
:10166000B5EEC00AF1EE10FA08DD90ED1A0AB8EEF8
:10167000C00ADFED700A30EE600A0AE06C4890EDB7
:101680001A0AB8EEC00ADFED6B0A30EE600AB1EE5E
:10169000400AF3EE040AB4EEE00AF1EE10FA24DC9C
:1016A0009DED030AB5EEC00AF1EE10FA02DD9DEDE4
:1016B000030A03E09DED030AB1EE400ADDED020AE4
:1016C000F5EEC00AF1EE10FA02DDDDED020A03E0EC
:1016D000DDED020AF1EE600A30EE200AF1EE040AB6
:1016E000B4EEE00AF1EE10FA13DD514890ED1A0A5B
:1016F000B8EEC00AF0EE400A9FED4E0A4A48143098
:1017000001F0D8FC00EE100AB8EEC00A464880EDA1
:10171000110A9FED490A44494831081F00F048FE6C
:10172000414890ED040AD0ED120A30EE200AB0EEE6
:10173000408A06E014E0FFE73B4890ED040AB0EE73
:10174000408A394890ED031AF0EE410A90ED021AF2
:10175000B0EE410A3948B0EE481A01F031FB0DE015
:10176000314890ED031AF0EE410A90ED021AB0EE06
:10177000410A3248B0EE481A01F022FB002442E050
:1017800004EB84002E4901EB001090F84A00012878
:1017900038D12A4830F8140004EB8401284A02EBBF
:1017A0000111A1F8440004EB840102EB0111B1F92D
:1017B000021001EE101AB8EEC11AF0EE410A04EB65
:1017C000840102EB0111B1F9441001EE101AB8EED8
:1017D000C11AB0EE410A04EB840102EB011101F1E0
:1017E000080001F059F800B204EB8401144A02EB3E
:1017F0000111A1F84800002004EB840102EB011163
:1018000081F84A00641C042CBADB0D4CB4F9383161
:10181000B4F9E820B4F99810B4F94800FFF718FEBD
:1018200000BFE5E600000000E004002028060020DC
:101830001803002000707345CDCCCC3D3C00002047
:10184000D80100200246002002EA01030BB101206A
:1018500000E00020704700002DE9FC4107460C46DF
:1018600015461E46380A8DF80000F8B28DF80100C2
:10187000200A8DF80200E0B28DF80300280A8DF8E6
:101880000400E8B28DF80500300A8DF80600F0B2C9
:101890008DF807006B4640F2FF1200210248FFF767
:1018A000F4FCBDE8FC8100000064004010B59FED31
:1018B000480A484880ED010A474890ED1A0AB8EEF8
:1018C000C00A444880ED030A80ED020A424890EDC8
:1018D0003A0AB8EEC00A3F4880ED050A80ED040AD6
:1018E00000224FF47A619FED3D1ADFED3C0ABAEE1B
:1018F000040A3948083001F063FC00224FF4FA7101
:10190000B7EE001ADFED350AB0EE000A3248383083
:1019100001F056FC00224FF47A61BAEE051ADFEDB1
:101920002F0ABBEE040A2C48883001F049FC002243
:101930004FF4FA71B6EE001ADFED280A9FED280A7F
:101940002548B83001F03CFC264890ED070A2148B4
:1019500080ED070A80ED060A224890ED030A1D4833
:1019600080ED090A80ED080A00224FF4FA71BEEEFC
:10197000001AF8EE040A9FED1C0A383001F020FC32
:1019800000224FF47A619FED191ADFED140A9FEDE2
:10199000180A1048683001F013FC00224FF4FA7165
:1019A0009FED0E1ADFED0D0AB8EE000A09489830D7
:1019B00001F006FC00224FF47A619FED0E1ADFED74
:1019C000070A9FED0B0A0348C83001F0F9FB10BD70
:1019D000CDCCCC3D300500201803002000000000D5
:1019E0001F856B3EB00100206666A6BF000040C2A6
:1019F000000070C2000020C210B52DED028B9FEDDB
:101A0000130AB0EE408A9FED110AF0EE408A1048AA
:101A100090ED000AF2EE000A80EE201AB0EE418A44
:101A200090ED010AF1EE0C0A80EE201AF0EE418AE8
:101A300000F0FCFEC4B22046F0EE680AB0EE480AA0
:101A400000F03AFBBDEC028B10BD0000000000006E
:101A50004401002008B50020009005E0FFF7CCFF0E
:101A60000A21684605F010FDF8E700001CB519488A
:101A7000022100238022CDE9001017A11A4806F0A8
:101A800099FB1A48022100238022CDE9001018A1F9
:101A90001B4806F08FFB1B4802210023CA01CDE939
:101AA000001019A11B4806F085FB1B4802210023EA
:101AB0008022CDE9001019A11C4806F07BFB1C48D0
:101AC000032100238022CDE900101AA11D4806F051
:101AD00071FB1CBD300000204C45445F4C696768B9
:101AE000745461736B000000D92B0008240000209F
:101AF00043686173736963616C5F5461736B000069
:101B00003B14000828000020436C6F75645F54612B
:101B1000736B0000551A00082C000020446576699C
:101B20006365735F5461736B00000000A1200008BF
:101B30003400002050435F436F6E74726F6C5461C9
:101B4000736B00009330000821B1026842F001027B
:101B5000026003E0026822F00102026070470000A8
:101B6000016821F001010160002101604160816094
:101B7000C1600161212141614A49884204D13D216E
:101B8000484A103A91608CE046491831884205D1A4
:101B90004FF47461434A103A916082E04149303118
:101BA000884205D14FF474113E4A103A916078E0B2
:101BB0003C494831884205D14FF07461394A103AA6
:101BC00091606EE037496031884204D13649354A28
:101BD000103AD16065E033497831884204D1334905
:101BE000304A103AD1605CE02E499031884204D1ED
:101BF0002F492C4A103AD16053E02A49A831884233
:101C000005D14FF03D51274A103AD16049E02949AA
:101C1000884204D13D21274A083A116041E0254914
:101C20001831884205D14FF47461224A083A116094
:101C300037E020493031884205D14FF474111D4AF4
:101C4000083A11602DE01B494831884205D14FF018
:101C50007461184A083A116023E0164960318842DD
:101C600004D11149134A121F11601AE01149783149
:101C7000884204D10D490F4A121F116011E00D492D
:101C80009031884204D10A490A4A121F116008E0C3
:101C90000849A831884204D14FF03D51054A121F2E
:101CA00011607047106002403D000020400F00208E
:101CB00000003D2010640240014600200A6802F046
:101CC00001020AB1012000E0002070470146486887
:101CD00080B2704710B500220268134B1A40CC68DE
:101CE0000B6823434C6923438C692343CC6923430A
:101CF0000C6A23434C6A23438C6A23434C6B234373
:101D00008C6B23431A430260426922F00702D1E937
:101D10000B3423431A4342610B6943604B68836071
:101D20008B68C36010BD00003F801CF041607047AD
:101D300010B5044801F04CFE1421034801F09AFE4E
:101D400010BD0000A0860100040100200022CA800E
:101D50008A8008800A884B889A4209D00A8812B182
:101D60000A88CA8004E04A888A8000220A814A815F
:101D70000A884AB14A89521C4A814A89322A03DDBB
:101D80000A880A8100224A810A884A807047000036
:101D900010B5044604B910BD2078617840EA0120EE
:101DA000C0F30A00614908806078C010A17840EA59
:101DB0004110C0F30A005D494880A0788011E178A5
:101DC00040EA8100217940EA8120C0F30A005749A6
:101DD000888020794010617940EAC110C0F30A0080
:101DE0005249C88060790011800808726079C0F398
:101DF00001104872A079E17940EA012000B24B4914
:101E00004881207A617A40EA012001B24748818105
:101E1000A07AE17A40EA012001B24448C181217BE5
:101E20000174617B4174A07BE17B40EA01203F4962
:101E3000488208460088A0F5806000B20880084605
:101E40004088A0F5806000B2488008468088A0F5F0
:101E5000806000B288800846C088A0F5806000B22B
:101E6000C880B1F9000000F071F800B22F49088075
:101E7000B1F9020000F06AF800B22C494880B1F9CB
:101E8000040000F063F800B228498880B1F9060028
:101E900000F05CF800B22549C8800846B0F904009B
:101EA000404201EE100AB8EEC11AF0EE410A0846AF
:101EB000B0F9060001EE100AB8EEC11AB0EE410A00
:101EC0001B4801F041FA1948B0F9020001EE100A6E
:101ED000B8EEC11AF0EE410A1448B0F9000001EE64
:101EE000100AB8EEC11AB0EE410A124801F02CFAFD
:101EF0000E49087C1049FFF729FF0C49487C0F491F
:101F0000FFF724FF0949488A0D49FFF71FFF0748DB
:101F1000808A401C054988820846407A0949087031
:101F20000248407A0849087000BF34E718010020D1
:101F300030010020440100207801002084010020AD
:101F40006C010020E00400203005002010B504469C
:101F500000EE104AB8EEC00A03F084FAF3EE040A69
:101F6000B4EEE00AF1EE10FA00D20024204610BDD3
:101F7000704700004548808A052803DA012043495C
:101F8000887502E000204149887500203F49888219
:101F900000BF22E000EB80013D4A02EB0111B1F8E5
:101FA0004C10052908DA012100EB8002384B03EBC5
:101FB000021282F84E1007E0002100EB8002344B41
:101FC00003EB021282F84E10002100EB8002304B2E
:101FD00003EB0212A2F84C10401C0428DADB0020AC
:101FE0001AE02C4901EBC011B1F87C10052906DA82
:101FF0000121284A02EBC01282F87E1005E0002180
:10200000244A02EBC01282F87E100021214A02EB22
:10201000C012A2F87C10401C0228E2DB002022E063
:1020200000EB40111C4A02EB8101B1F88010052938
:1020300008DA012100EB4012174B03EB820282F811
:10204000821007E0002100EB4012134B03EB8202E9
:1020500082F88210002100EB40120F4B03EB82024A
:10206000A2F88010401C0128DADB0C48808C05287F
:1020700004DA0120094981F8260003E0002007491D
:1020800081F8260000200549888470471801002047
:10209000D80100201803002018040020B0010020FF
:1020A00008B50020009005E0FFF764FFC8216846EE
:1020B00005F0EAF9F8E7000010B52DED048BB0EE5D
:1020C000408AF0EE608A0446AB4890ED1A0AB8EEFA
:1020D000C00AAA4880ED020A80ED030A022C03D050
:1020E000A74890F82600D0B1A54890ED051AF0EE6B
:1020F000410A90ED071AB0EE410A00F067F99FED32
:10210000A10A9E4880ED040A80ED050A00231A46C4
:1021100019461846FFF7A0FBBDEC048B10BD9A488A
:10212000807D012807D19FED990AB0EE408A9FED8E
:10213000970AF0EE408AF3EE0E0A88EE200A8F48E6
:10214000D0ED060A30EE200A80ED060A90ED040A72
:1021500030EE680A80ED040A00F07CFB8848D0ED80
:10216000070A30EE200A854880ED0A0A00F072FB6B
:10217000DFED870A30EEC00A8148D0ED070A30EE65
:10218000C00A7E4880ED0B0A00F056FB7C48D0ED7B
:10219000030A30EE200A794880ED0C0A00F04CFB6F
:1021A000DFED7C0A30EEC00A7548D0ED030A30EE50
:1021B000C00A724880ED0D0A77480088022847D18E
:1021C0006F4890ED070A6D48D0ED0A0AB4EEE00AB8
:1021D000F1EE10FA18DDB5EEC08AF1EE10FA0ED26B
:1021E000F2EE000A88EE200AF3EE0E0A80EE201AC4
:1021F00090ED060A31EE000A80ED060A04E05F4821
:1022000090ED0A0A80ED060A5D4890ED070A5B48EA
:10221000D0ED0B0AB4EEE00AF1EE10FA18D2B5EEEA
:10222000C08AF1EE10FA0EDDB2EE000AC8EE000A26
:10223000B3EE0E1A80EE810AD0ED060A30EEC00A27
:1022400080ED060A04E04D4890ED0B0A80ED060A89
:102250004A4890ED040ADFED510AB4EEE00AF1EECF
:1022600010FA03DD9FED4D0A80ED040A434890ED1E
:10227000040ADFED4B0AB4EEE00AF1EE10FA03D2E5
:102280009FED470A80ED040A9FED460A3B491C3149
:10229000081F00F08DF89FED440A38491431081FDB
:1022A00000F086F8354890ED050ABDEEC00A10EE44
:1022B000101A012000F07CFD2F4890F87E0028BB0A
:1022C0002F4890ED071AF0EE410A2C4890ED071ABE
:1022D000B0EE410A383000F0EDFE00EE100AB8EE24
:1022E000C00AB0EE409A264890ED020AF0EE400A8D
:1022F000B0EE490A2148683000F0DCFE00B21E4909
:10230000A1F87800002081F87A0000BF1A4890F800
:10231000FE0020BB184890ED3A1AB8EEC11AF0EE54
:10232000410A90ED3C1AB8EEC11AB0EE410AB8303D
:1023300000F058F809EE100A114890ED010AF0EE8D
:10234000400AB8EEC90A0C48883000F0B3FE01B26A
:102350000948A0F8F810002180F8FA1000BF134BCC
:10236000B3F97C20044BB3F9F810B3F978000023DB
:10237000FFF772FA00BFCFE61803002030050020F7
:10238000B00100200020804518010020000000005E
:10239000443834433EDE0342280600200050914575
:1023A00000C07345CDCCCC3ECDCCCC3D1804002034
:1023B000D0ED000A91ED001A30EEC11AD1ED000AFD
:1023C00040EE010AC1ED000A70470000044880EDAC
:1023D000060A80ED070AC0ED080AC0ED090A704739
:1023E0003005002010B52DED048B82B00446B0EE10
:1023F000408AF0EE608A84ED008AC4ED018A94ED93
:10240000000AD4ED010A30EE600A84ED020A94ED70
:10241000020AD4ED030A30EE600A84ED050A94ED59
:10242000051AF0EE410A94ED021AB0EE410A03F0EB
:102430001BFD84ED060A94ED051AF0EE410A94EDB9
:10244000021AB0EE410A03F0ADFA84ED070A94EDEA
:10245000051AF0EE410A94ED021AB0EE410A03F0BB
:1024600039F884ED080A94ED020AB5EEC00AF1EEDF
:1024700010FA02DD94ED020A03E094ED020AB1EED7
:10248000400AF3EE040AB4EEE00AF1EE10FA07D2C5
:1024900094ED040AD4ED020A30EE200A84ED040A19
:1024A000D4ED020AB0EE600A02F0DCFFF6EE000A9C
:1024B000B4EEE00AF1EE10FA03D29FED200A84EDAB
:1024C000020A94ED060AD4ED020A20EE209A94ED59
:1024D000070AD4ED040A20EE200A8DED010A94EDDE
:1024E000080AD4ED050A60EE209AD4ED0B0AF8EE46
:1024F000600AB0EE600A01A800F07CFA9DED010AC6
:1025000039EE000A30EE290A84ED090AD4ED0A0AF0
:10251000F8EE600AB0EE600A04F1240000F0A2FDBB
:1025200094ED020A84ED030A94ED090ABDEEC00A97
:1025300010EE100A02B0BDEC048B10BD00000000CC
:10254000F0B50A4600210023002400BF3DE001252C
:1025500005FA01F3156805EA03049C4234D10568C5
:102560004F000326BE40B543056015794E00B540C7
:102570000668354305601579012D02D01579022DC5
:1025800016D185684F000326BE40B5438560557956
:102590004E00B540866835438560456801268E400B
:1025A000B5434560456896798E40B6B2354345607F
:1025B000C5684F000326BE40B543C560D5794E00BF
:1025C000B540C6683543C560491C1029BFD3F0BD6E
:1025D000F0B5002300244D07ED0E02FA05F3CE10EE
:1025E00000F1200555F826504E07F70E0F26BE4085
:1025F000B543CF1000F1200646F82750CE1000F169
:10260000200555F8265045EA0304CE1000F12005B8
:1026100045F82640F0BD0183704742694A40426157
:1026200070470AB1018300E04183704701460022F0
:10263000002004E00B5C1344DAB2431CD8B211282A
:10264000F8DB487C904201D1012070470020FCE774
:10265000FEB506460F4614460025D6E0705D5A28A2
:102660007ED1681C305C5A28FAD17019FFF7DEFF62
:10267000002876D0681D315C281D305C41EA0020BE
:1026800000B2ADF80000E81D315CA81D305C41EAE5
:10269000002000B2ADF8020005F10900315C401ED7
:1026A000305C41EA002000B2ADF8040005F10B00F7
:1026B000315C401E305C41EA002000B2ADF80600FB
:1026C00005F10D00315C401E305C41EA002000B293
:1026D000ADF8080005F10F00315C401E305C41EAA6
:1026E000002000B2ADF80A00BDF9000000EE100AAB
:1026F000B8EEC00ADFED470A80EE201A84ED001A1A
:10270000BDF9020000EE100AB8EEC00ADFED410A82
:1027100080EE201A84ED011ABDF9040000EE100AC3
:10272000B8EEC00ADFED3B0A80EE201A84ED021AF3
:10273000BDF8060080B200EE100AB8EE400ADFEDE8
:10274000350A80EE201A84ED051ABDF9080000EE66
:10275000100AB8EEC00ADFED2F0A80EE201A01E061
:1027600051E04DE084ED031ABDF90A0000EE100AB5
:10277000B8EEC00ADFED270A80EE201A84ED041AB5
:1027800005F11000305C84F8220094ED050AD4EDC8
:10279000060A30EE600ADFED200AB4EEE00AF1EE40
:1027A00010FA03D2208C401C00B2208494ED060A5B
:1027B000D4ED050A30EE600ADFED170AB4EEE00A48
:1027C000F1EE10FA03D2208C401E00B2208494ED6A
:1027D000050A84ED060A94ED050AB4F9200000EE1E
:1027E000900AF8EEE00A9FED0D1A01EE200A84ED42
:1027F000070AA08C401CA084012084F82300FEBDA1
:10280000681C85B201E0681C85B2BD42FFF626AFA8
:1028100000BFF4E70000C842000096C30000B443C4
:102820000148007870470000E0040020014800786B
:102830007047000030050020044890ED3A0AB8EED9
:10284000C00ADFED030A30EE600A7047180300206B
:1028500000C07345064890ED1A0AB8EEC00ADFEDD5
:10286000050A70EE600A9FED041A80EE810A704737
:10287000180300200040E7440000B64100BFFEE717
:1028800010B54FF4E13001F095F91E21014801F037
:10289000E3F910BD9001002010B52DED048B82B03E
:1028A0000446B0EE408AF0EE608A84ED008AC4ED02
:1028B000018A94ED000AD4ED010A30EE600A84ED3D
:1028C000020AD4ED020AB0EE600A02F0CBFDDFEDA1
:1028D000350AB4EEE00AF1EE10FA03D29FED320AA7
:1028E00084ED020A94ED020AD4ED030A30EE600A88
:1028F000D4ED060A20EE209A94ED070AD4ED020AE0
:1029000020EE200A8DED010A94ED020AD4ED030AAF
:10291000B0EE001A01EE600AD4ED040A30EE200A8F
:10292000D4ED080A60EE209AD4ED0E0AF8EE600AA3
:10293000B0EE600A01A800F05DF89DED010A39EEE5
:10294000000A30EE290A84ED0A0A94ED0C0AD4ED4F
:102950000A0A30EE200A84ED0B0A94ED0B0A84ED8E
:10296000090A94ED0B0A84ED0C0AD4ED0D0AF8EE79
:10297000600AB0EE600A04F1240000F073FB94EDED
:10298000030A84ED040A94ED020A84ED030A94ED2F
:10299000090ABDEEC00A10EE100A02B0BDEC048BAD
:1029A00010BD0000CDCC4C3E00000000DFED101A41
:1029B000C0ED001ADFED0E1AC0ED011ADFED0C1AA2
:1029C000C0ED021ADFED0A1AC0ED031ADFED081A96
:1029D000C0ED041A80ED060AC0ED070A80ED081A62
:1029E00041638263DFED021AC0ED091A70470000EF
:1029F00000000000D0ED000AF4EEC00AF1EE10FA7B
:102A000001DD80ED000AD0ED000AB1EE401AF4EECF
:102A1000C10AF1EE10FA03D2F1EE400AC0ED000A4D
:102A2000704700001CB50121722000F0E9FB012075
:102A30008DF8040000208DF806008DF807008DF851
:102A400005001020009069466048FFF779FD2020BE
:102A5000009069465D48FFF773FD012210215B4835
:102A6000FFF7DFFD012220215848FFF7DAFD0220A1
:102A7000009069465648FFF763FD042000906946C0
:102A80005348FFF75DFD0820009069465048FFF766
:102A900057FD1020009069464D48FFF751FD20205A
:102AA000009069464A48FFF74BFD40200090694678
:102AB0004748FFF745FD8020009069464448FFF7EE
:102AC0003FFD4FF48070009069464148FFF738FDA4
:102AD000012202213E48FFF7A4FD012204213C48C7
:102AE000FFF79FFD012208213948FFF79AFD0122D7
:102AF00010213748FFF795FD012220213448FFF7C8
:102B000090FD012240213248FFF78BFD01228021F8
:102B10002F48FFF786FD012211022D48FFF781FDA6
:102B20004FF40070009069462A48FFF709FD4FF402
:102B30008060009069462748FFF702FD4FF400606F
:102B4000009069462348FFF7FBFC4FF4805000904B
:102B500069462048FFF7F4FC4FF4005000906946A6
:102B60001C48FFF7EDFC4FF480400090694619487F
:102B7000FFF7E6FC4FF40040009069461548FFF768
:102B8000DFFC012251021348FFF74BFD01229102A5
:102B90001048FFF746FD0122D1020E48FFF741FD24
:102BA000012211030B48FFF73CFD012251030948A4
:102BB000FFF737FD012291030648FFF732FD01229E
:102BC000D1030448FFF72DFD1CBD000000040240A6
:102BD000001802400010024008B5002000903AE0C2
:102BE0004FF400711C48FFF718FD0521684604F0FA
:102BF0004BFC4FF480611848FFF70FFD0A2168462F
:102C000004F042FC4FF400611348FFF706FD0F216A
:102C1000684604F039FC4FF480510F48FFF7FDFC83
:102C20001421684604F030FC4FF400510A48FFF7C5
:102C3000F4FC1921684604F027FC4FF48041064853
:102C4000FFF7EBFC1E21684604F01EFC4FF4004128
:102C50000148FFF7E2FCC3E7001002401CB5012168
:102C6000402000F0CDFA01208DF8040000208DF8FE
:102C700006008DF807008DF805004FF40050009015
:102C800069460448FFF75CFC4FF400510148FFF728
:102C9000C2FC1CBD0018024000EB4011224A32F970
:102CA000211000EB4012204B03EB8202926F891A35
:102CB0001E4A91420EDA00EB40111A4602EB8101E6
:102CC000B1F86C10491C09B200EB401203EB820210
:102CD000A2F86C1000EB4011134A02EB8101896FDE
:102CE00000EB4012104B33F92220891A0F4A91420F
:102CF0000EDA00EB40111A4602EB8101B1F86C10BC
:102D0000491E09B200EB401203EB8202A2F86C10DC
:102D100000EB4011044A32F9211000EB4012024B43
:102D200003EB8202916770471804002090E8FFFFD0
:102D30001D4901EBC011B1F900101B4A02EBC01292
:102D4000526F891A194A91420BDA174901EBC011E7
:102D5000B1F86C10491C09B2134A02EBC012A2F878
:102D60006C10114901EBC011496F0F4A02EBC01200
:102D7000B2F90020891A0D4A91420BDA0A4901EB97
:102D8000C011B1F86C10491E09B2074A02EBC0121B
:102D9000A2F86C10044901EBC011B1F90010024A0D
:102DA00002EBC012516770471803002090E8FFFF44
:102DB000024A02EBC012116770470000180300209E
:102DC0000FB50146F7EE002AF0EE621ADFED722A27
:102DD000B0EE622A00BFDFED712AB4EEE20AF1EE36
:102DE00010FA04D8DFED6D2AB0EE620A0AE0DFEDDA
:102DF0006C2AB4EEE20AF1EE10FA03DBDFED682A8A
:102E0000B0EE620A00BF00BFDFED642AF4EEE20A12
:102E1000F1EE10FA04D8DFED612AF0EE620A0AE062
:102E2000DFED5F2AF4EEE20AF1EE10FA03DBDFEDEC
:102E30005C2AF0EE620A00BF00BFDFED582AB4EE54
:102E4000E21AF1EE10FA04D8DFED542AB0EE621A5D
:102E50000AE0DFED532AB4EEE21AF1EE10FA03DBDA
:102E6000DFED4F2AB0EE621A00BF70EE602A72EEFC
:102E7000812ACDED002A70EE202A72EE812ACDED56
:102E8000012AF1EE402A72EEA02A72EE812ACDEDDF
:102E9000022AF1EE402A72EEE02A72EE812ACDED8E
:102EA000032A0020002202EE902A3DE06A4602EB4F
:102EB000800292ED003AB5EEC03AF1EE10FA05DD6F
:102EC0006A4602EB800292ED003A06E06A4602EBA7
:102ED000800292ED003AB1EE433AF8EE623AB4EE77
:102EE000E33AF1EE10FA1DDD6A4602EB800292ED44
:102EF000003AB5EEC03AF1EE10FA05DD6A4602EB93
:102F0000800292ED003A06E06A4602EB800292ED02
:102F1000003AB1EE433ABCEEC33A13EE102AD2B2F5
:102F200002EE902A421CD0B20428BFDBDFED1D2A3E
:102F3000B4EEE22AF1EE10FA05DDDFED1A2A82EE98
:102F4000823AF0EE431ADDED002A62EEA12AFDEE90
:102F5000E22A12EE900A00B20880DDED012A62EE4C
:102F6000A12AFDEEE22A12EE900A00B24880DDEDC1
:102F7000022A62EEA12AFDEEE22A12EE900A00B2C7
:102F80008880DDED032A62EEA12AFDEEE22A12EE30
:102F9000900A00B2C8800FBD000000000040CEC5FE
:102FA0000040CE4500C05A4500BFFEE77047F8B567
:102FB00006460C461546F0B28DF80000E0B28DF8DA
:102FC0000100E8B28DF8020001208DF80300684688
:102FD00000F002F8F8BD000070B5002100230F22B8
:102FE000C4781CB3174C246804F4E064C4F5E064AE
:102FF000C4F30721C1F10404E3B20A4144789C40C0
:10300000E1B28478144021430C07210E0E4C057860
:103010006155047804F01F050124AC4005786D115A
:10302000AD0005F1E025C5F8004109E0047804F0A1
:103030001F050124AC40054D0678761145F8264061
:1030400070BD00000CED00E000E400E080E100E075
:1030500002490143024A1160704700000000FA056E
:103060000CED00E0D0ED000AF4EEC00AF1EE10FA2B
:1030700001DD80ED000AD0ED000AB1EE401AF4EE59
:10308000C10AF1EE10FA03D2F1EE400AC0ED000AD7
:10309000704708B50020009003E00A21684604F05C
:1030A000F3F9FAE7022002490880012048807047BE
:1030B0002806002010B52DED048B82B00446B0EE3A
:1030C000408AF0EE608A84ED008AC4ED018A94EDB6
:1030D000000AD4ED010A30EE600A84ED020A94ED94
:1030E000020AB5EEC00AF1EE10FA02DD94ED020A12
:1030F00003E094ED020AB1EE400AF3EE040AB4EEE6
:10310000E00AF1EE10FA07D294ED040AD4ED020AB7
:1031100030EE200A84ED040AD4ED020AB0EE600A13
:1031200002F0A0F9F6EE000AB4EEE00AF1EE10FAB1
:1031300003D29FED220A84ED020A94ED060AD4ED33
:10314000020A20EE209A94ED070AD4ED040A20EE3C
:10315000200A8DED010A94ED020AD4ED030A30EE47
:10316000600AD4ED080A60EE209AD4ED0B0AF8EE5E
:10317000600AB0EE600A01A8FFF73CFC9DED010A71
:1031800039EE000A30EE290A84ED090AD4ED0A0A64
:10319000F8EE600AB0EE600A04F12400FFF762FF67
:1031A00094ED020A84ED030A94ED090ABDEEC00A0B
:1031B00010EE100A02B0BDEC048B10BD0000000040
:1031C000DFED0E1AC0ED001ADFED0C1AC0ED011A8A
:1031D000DFED0A1AC0ED021ADFED081AC0ED031A7E
:1031E00080ED060AC0ED070A80ED081A8162C2620E
:1031F000DFED021AC0ED091A704700000000000060
:1032000029B1064A12680243044B1A6004E0034ADB
:1032100012688243014B1A60704700003038024048
:1032200029B1064A12680243044B1A6004E0034ABB
:1032300012688243014B1A60704700004038024018
:1032400029B1064A12680243044B1A6004E0034A9B
:1032500012688243014B1A607047000044380240F4
:10326000F0B5002100220024022500260223324F5F
:103270003F6807F00C0121B1042905D0082937D196
:1032800005E02E4F076036E02D4F076033E02A4FF0
:103290003F1F3F68C7F38056274F3F1F3F6807F027
:1032A0003F036EB1264FB7FBF3F7DFF88CC0ACF1EC
:1032B000040CDCF800C0CCF3881C07FB0CF40CE019
:1032C0001E4FB7FBF3F7DFF870C0ACF1040CDCF86D
:1032D00000C0CCF3881C07FB0CF4174F3F1F3F685E
:1032E000C7F301477F1C7D00B4FBF5F7076002E0E0
:1032F000124F076000BF00BF0F4F3F6807F0F0019B
:103300000909104F7A5C0768D74047600A4F3F6849
:1033100007F4E051890A0B4F7A5C4768D740876011
:10332000054F3F6807F46041490B064F7A5C4768D8
:10333000D740C760F0BD0000083802400024F40008
:10334000001BB700D800002010B52DED0A8BB0EEA1
:10335000408AF0EE608A044684ED008AC4ED018A5A
:1033600094ED000A10EE101A0846FDF762F841ECE1
:103370001A0B94ED010A10EE101A0846FDF759F8E1
:1033800041EC1B0BB0EE4A1AF0EE6A1AB0EE4B0A93
:10339000F0EE6B0A00F07CFFB0EE409AF0EE609A1F
:1033A00051EC190BFDF758F8A06094ED020ADFED1F
:1033B0002B0A20EE200ADFED2A0A80EE201A84ED87
:1033C000031A94ED010A10EE101A0846FDF731F8C1
:1033D00041EC1C0B9FED231BB0EE4C0AF0EE6C0A87
:1033E00001F04EF8B0EE40AAF0EE60AA94ED000AAB
:1033F00010EE101A0846FDF71CF841EC1C0B9FED6F
:10340000191BB0EE4C0AF0EE6C0A01F039F8B0EE80
:1034100040BAF0EE60BA53EC1A2B51EC1B0BFCF7E0
:1034200061FF41EC190BFDF717F800EE100AF1EE01
:10343000C00AC4ED040A94ED030ADFED080AB4EEF5
:10344000E00AF1EE10FA05DD94ED040AB1EE400A4F
:1034500084ED040ABDEC0A8B10BD0000000034436B
:10346000DB0F494000000000000000400CB50020C8
:10347000019000904148006840F480303F49086066
:1034800000BF3E48006800F4003000900198401CE6
:103490000190009818B90198B0F5A04FF1D13748C4
:1034A000006800F4003010B10120009001E000201D
:1034B00000900098012860D130484030006840F00A
:1034C00080502E49403108602D48006840F440404B
:1034D0002B490860294808300068284908310860ED
:1034E0000846006840F4004008600846006840F460
:1034F000A05008602348091F0860081F006840F0BA
:103500008070091F086000BF1C48006800F0007050
:103510000028F9D01A48006840F480301849086043
:1035200000BF1748406800F480300028F9D01448E4
:10353000006840F400301249086000BF104840683D
:1035400000F400300028F9D040F205700E49086000
:103550000A480830006820F0030008490831086074
:103560000846006840F00200086000BF03480830C9
:10357000006800F00C000828F8D10CBD00380240AB
:10358000007000400C5A4007003C024010B500207B
:10359000144908804880144908804FF4C860488066
:1035A0004FF47A7240F2CF71632000F08FF84FF43D
:1035B000FA6291009FED0D1ADFED0D0AB7EE080AD1
:1035C0000C48FFF7FDFD4FF4FA72D1009FED0A1A87
:1035D000DFED060A9FED090A06483030FFF7F0FDDF
:1035E00010BD0000440000204C000020000000003E
:1035F0000AD7233D20040020CDCC4C3F9A99993E18
:1036000010B504F007FE012801D004F07DFA10BDCA
:1036100010B51548006840F470001349086013485D
:10362000006840F001001149086000200F4908318E
:1036300008600E4800680E4908400C4908600D48B3
:10364000091D0860081F006820F48020091F086019
:10365000002006490C310860FFF708FF4FF00060BA
:1036600001498039086010BD88ED00E00038024053
:10367000FFFFF6FE103000241CB501218020FFF76B
:10368000BFFD02208DF8040000208DF806008DF8A3
:10369000070003208DF805004020009069460A4885
:1036A000FEF74EFF092206210748FEF791FF4FF46F
:1036B0000070009069460448FEF742FF0922114657
:1036C0000148FEF785FF1CBD001C024070B588B0A4
:1036D00006460C461546FFF7CFFF01214020FFF7B5
:1036E0009FFDADF8146006940020ADF81C00ADF805
:1036F000160005A9114800F0C1F86020ADF80000DF
:103700000120ADF802000020ADF804000295ADF8EC
:103710000C00ADF81000ADF80E00ADF812006946CF
:10372000064800F01BF86946044800F055F80121EE
:10373000024800F006F808B070BD00000018004014
:10374000704721B1028842F00102028004E0028841
:103750004FF6FE731A4002807047000070B50024D7
:1037600000220023058C4FF6FE7635400584028C3E
:103770008388048B4FF68F752C40B51E2C400D8826
:103780002C43751E2A408D892A434D882A43104DAB
:10379000A84202D00F4DA84213D14FF6F7752A4028
:1037A000CD892A434FF6FB752A408D882A434FF670
:1037B000FF652B404FF6FF552B400D8A2B434D8A5A
:1037C0002B43838004838D684563028470BD0000B1
:1037D000000001400004014070B5002400220023D5
:1037E000058C4FF6EF7635400584028C8388048B78
:1037F00048F6FF752C404FF6FF452C400D884FF6DC
:10380000FF7606EA05252C434FF6DF752A408D89A1
:1038100006EA05152A434D8806EA05152A43154D83
:10382000A84202D0144DA8421DD14FF67F752A4000
:10383000CD894FF6FF7606EA05152A434FF6BF7588
:103840002A408D8806EA05152A434FF6FF352B409E
:103850004FF2FF752B400D8A06EA85052B434D8AF2
:1038600006EA85052B43838004838D688563028483
:1038700070BD0000000001400004014000220288E9
:10388000184B98420ED0184B98420BD0B0F1804F95
:1038900008D0164B984205D0154B984202D0154BD4
:1038A000984204D14FF68F731A404B881A43124B3B
:1038B000984207D0114B984204D04FF6FF431A406C
:1038C0000B891A4302804B68C3620B880385054B42
:1038D000984202D0044B984201D18B7A038601238F
:1038E0008382704700000140000401400004004052
:1038F00000080040000C0040001000400014004090
:1039000010B504464FF44070FFF7A2FB03F004FC2F
:10391000FDF796F9FFF786F8FFF7A0F9FEF708FA2A
:10392000FFF7C0FBFEF7ACFF4FF4FA6003F070FD49
:10393000FDF7B8FDFDF7BAFFFFF728FE00F0CEFA5D
:10394000FDF7C6FC4FF4FA6003F062FDFEF78EF857
:103950000348006803F008FE03F024FC10BD0000DB
:103960000400002008B50020009040F224411348D4
:1039700000F0F6F908B300211148FEF7E5F8104809
:10398000FEF7A4F9022810D100236A460D490E481B
:10399000006804F033FB009838B14FF080500B49B9
:1039A0000860BFF34F8FBFF36F8F01210448FEF70C
:1039B000CBF8024880880148008808BD001001400B
:1039C00040640240040100201000002004ED00E0EB
:1039D00010B586B0044601210220FFF711FC012139
:1039E0001020FFF72DFC02208DF814008DF8150033
:1039F00001208DF8170000208DF81600402004905B
:103A000004A91A48FEF79CFD8020049004A91748D9
:103A1000FEF796FD072206211448FEF7D9FD07227E
:103A200011461248FEF7D4FD00940020ADF80400C2
:103A3000ADF80600ADF80800ADF80C000C20ADF8AC
:103A40000A0069460A4800F0DBF900220721252018
:103A5000FFF7ADFA012240F22441054800F0AAF92F
:103A60000121034800F05AF906B010BD00040240DD
:103A70000010014030B58FB004460D460121880585
:103A8000FFF7BEFB1C48FEF76BF800BF1A48FEF7B5
:103A900013F90028FAD14FF0006000901748019008
:103AA000029400200390049505904FF480600690E6
:103AB0000020079008904FF48070099000020A904F
:103AC00000200B900C900D900E9069460A48FEF76E
:103AD00001F901210848FEF737F800BF0648FEF754
:103AE000EBF80128FAD1012240210448001F00F020
:103AF00021F90FB030BD00004064024004100140C5
:103B000086B00DE000235A1E01A90648006804F0A3
:103B100051F801A8FEF73CF920210348FEF77DFD8E
:103B2000F0E70000100000200004024070477047DA
:103B300038B50020009040F22441184800F010F9F8
:103B400050B300211648FDF7FFFF1548FEF7BEF8F9
:103B50000446C4F11E001349088000236A46124936
:103B60001248006804F04AFA009838B14FF08050CB
:103B70000F490860BFF34F8FBFF36F8F1E210848B6
:103B8000FEF7D4F801210648FDF7DEFF0348001DCB
:103B900000880248008800BF38BD000000140140C2
:103BA000286402400000002090010020180000203E
:103BB00004ED00E010B586B0044601210420FFF7B3
:103BC0001FFB01212020FFF73BFB00208DF8160092
:103BD00001208DF8170002208DF815008DF81400D3
:103BE0004020049004A91A48FEF7AAFC8020049003
:103BF00004A91748FEF7A4FC082206211448FEF782
:103C0000E7FC082207211248FEF7E2FC009400209E
:103C1000ADF80400ADF80600ADF80800ADF80C00F2
:103C20000C20ADF80A0069460A4800F0E9F80022C5
:103C300008214720FFF7BBF9012240F22441054843
:103C400000F0B8F80121034800F068F806B010BD94
:103C5000000802400014014030B58FB004460D4604
:103C600001218805FFF7CCFA1C48FDF779FF00BF5A
:103C70001A48FEF721F80028FAD14FF02060009092
:103C800017480190029400200390049505904FF48A
:103C9000806006900020079008904FF48070099093
:103CA00000020A9000200B900C900D900E90694637
:103CB0000A48FEF70FF801210848FDF745FF00BF4D
:103CC0000648FDF7F9FF0128FAD1012240210448F6
:103CD000001F00F02FF80FB030BD00002864024034
:103CE0000414014088B010E000235A1E69460748BA
:103CF000006803F05FFF064A064801886846FEF741
:103D0000A7FC10210448FEF788FCEDE7180000200E
:103D1000B0010020000000200004024021B182898F
:103D200042F40052828104E082894DF6FF731A400A
:103D3000828170471AB1838A0B43838202E0838AAF
:103D40008B438382704702460020B1F5007F00D18B
:103D500000BF13880B400BB1012000E0002070472A
:103D600070B50246002400230025002040F66A16A4
:103D7000B14200D100BFC1F3421501F01F0301267B
:103D800006FA03F3012D02D19689334006E0022D95
:103D900002D1168A334001E0968A33400C12012684
:103DA00006FA04F41688344013B10CB1012000E087
:103DB000002070BDF0B50346002400260025002039
:103DC00040F66A17B94200D100BF1846C1F3421449
:103DD00001F01F06012707FA06F5012C01D10C306E
:103DE00004E0022C01D1103000E014301AB1076851
:103DF0002F43076002E00768AF430760F0BD000093
:103E00002DE9FF4705460E460024A14600BFA04607
:103E1000B08900B100BF2C8A24F44054F0880443D8
:103E20002C82AC8941F20C608443B088318908430C
:103E3000718908430443AC81AC8A24F44074B0898E
:103E40000443AC826846FFF70BFA2048854202D053
:103E50001F48854202D1DDF80C9001E0DDF80890A2
:103E6000A88900F4004040B109EBC90000EB09103B
:103E700031684900B0FBF1F707E009EBC90000EB3E
:103E8000091031688900B0FBF1F76420B7FBF0F04E
:103E900004012009642101FB1078A88900F4004086
:103EA00040B1322000EBC800B0FBF1F000F0070099
:103EB000044308E0322000EB08106421B0FBF1F06D
:103EC00000F00F0004432C81BDE8FF870010014083
:103ED00000140140C1F30802828070471CB5002223
:103EE0001421084603F02AFE0E49086000221E2114
:103EF000084603F023FE0C4908600C480421002307
:103F00008022CDE900100AA10E4804F053F90E48B2
:103F1000042100238022CDE900100CA1104804F0F8
:103F200049F91CBD100000201800002008000020E6
:103F30005553415254315F526563656976655461EA
:103F4000736B0000013B00080C00002055534152E8
:103F500054365F526563656976655461736B000022
:103F6000E53C000800BFFEE70FB4054B10B503A900
:103F7000044A029801F09AF910BC5DF814FB0000A5
:103F8000AD540008FC00002003B4019841000098E3
:103F900050EAC12018BF04204A0D18BF40F00100AC
:103FA00040F2FF72B2EB515F08BF40F002000128FF
:103FB00008BF052002B0704770B59B482DED020B7D
:103FC0002DED068B079D25F00044A04218DC974894
:103FD000844202DC0AD1069840B19DED060BBDEC8F
:103FE000068B02B0BDE8704001F006B9002DCCBFD1
:103FF0009FED8F0B9FED900BBDEC068B02B070BD5B
:104000008F48A04215DD8F48A042D8BF4FF0FF3443
:1040100058DD9DED060B51EC100BFFF7B5FF0428A2
:1040200008BF01F01DF99DED060BBDEC068B02B03B
:1040300070BD9DED060B51EC100B01F02BFACDE994
:10404000060181489FED828BA0423CDD8248A04260
:104050001FDD00249FED82AB9DED060B53EC1A2B68
:1040600051EC100BFCF73EF99DED060B41EC190BE2
:1040700053EC1A2B51EC100BFCF7D5FA53EC182B20
:10408000FCF7D1F953EC192BFCF73FFBCDE9060106
:1040900049E09DED060B012453EC182B51EC100B5D
:1040A000FCF720F99DED060B41EC190B53EC182B96
:1040B00051EC100BFCF7B7F953EC192BFCF725FB6F
:1040C000CDE906012FE06848A0421FDD02249FEDE4
:1040D000689B9DED060B53EC192B51EC100BFCF774
:1040E000A2FA53EC182BFCF7FDF89DED060B41EC02
:1040F000180B53EC192B51EC100BFCF794F953EC03
:10410000182BFCF702FBCDE906010CE09DED060B38
:10411000032453EC102B9FED580B51EC100BFCF7C4
:10412000F4FACDE906019DED060B53EC102B51EC92
:10413000100BFCF778FA41EC180B53EC182BFCF73A
:1041400072FA41EC190B4E480621B0EE490AF0EE26
:10415000690A784400F0BCFF53EC182B51EC100BAB
:10416000FCF761FA41EC180B4648B0EE490AF0EE54
:10417000690A0521784400F0ABFF53EC192B51EC90
:10418000100BFCF750FA41EC100B51EC180B53ECF0
:10419000102B002C0EDAFCF7A5F89DED061B53EC56
:1041A000112BFCF740FA9DED061B53EC112BFCF78D
:1041B0003DF935E0FCF796F89DED061B53EC112B0D
:1041C000FCF731FA41EC100B2F48784400EBC400A7
:1041D00090ED001B51EC100B53EC112BFCF723F965
:1041E0009DED061B53EC112BFCF71DF941EC100B58
:1041F0002648784400EBC40090ED001B51EC100BF6
:1042000053EC112BFCF712F941EC100B002DA2BF5F
:10421000BDEC068B02B070BD51EC100B81F000417B
:1042200041EC100B01E70000000010440000F07F9B
:10423000182D4454FB21F93F182D4454FB21F9BF9C
:104240000000DC3F0000203E0000F33F00000000C3
:10425000000000000000F03F0000E63F000000000A
:10426000000000000000004000800340000000004B
:10427000000000000000F83F000000000000F0BF58
:10428000224A0000D8490000624900001A49000093
:1042900070B56B4E2DED040B2DED028B82B0DDF869
:1042A0001CC0DDE905235C422CF000411C4341EABF
:1042B000D474049D22F00040B44205D86C422C43D3
:1042C00040EAD474B4420BD99DED061B9DED040B5E
:1042D00002B0BDEC028B04B0BDE8704000F096BFA8
:1042E000ACF14054A4F17F641C430BD0022404EAD7
:1042F000AC7444EAD27405439FED538B9FED542B6D
:1043000007D015E09DED040B51EC100B01F0BAF84D
:1043100042E0002C11BF012C9DED040B02B0BDEC5E
:10432000028B04BF04B070BD022C38D0032C3BD0EC
:104330000B439FED491B9FED4A0B0AD0B14218D1A8
:10434000B04209D121F0804120F0804007910590D2
:104350000FE0002A15DA10E0434B7B44002C08BF25
:1043600093ED000B0DD0012C10D0022C17D0032C94
:104370001AD0B0421DD1002A03DAB0EE410AF0EEA5
:10438000610A02B0BDEC028B04B070BD93ED000B6E
:1043900051EC100B81F0004141EC100BF1E7B0EE55
:1043A000480AF0EE680AECE7B0EE420AF0EE620A64
:1043B000E7E7401A00153C28C8BF8DED000B19DC5B
:1043C000BCF1000FBEBF10F13C0F9FED290B8DED2E
:1043D000000B0FDB9DED060B53EC102B9DED040B3A
:1043E00051EC100BFCF791F901F054F801F04AF888
:1043F000CDE90001002C08BF9DED000BC1D0012CC0
:1044000010D0022C9FED1C0B53EC102B9DED000BDC
:1044100051EC100B0DD0FCF706F853EC182BFCF701
:1044200002F8B9E7019880F0004001909DED000B83
:10443000A7E7FBF7F8FF53EC182BFBF7F7FFABE709
:104440000000F07F00000000182D4454FB210940BB
:10445000182D4454FB2109C0182D4454FB21F9BFE9
:10446000182D4454FB21F93F4A4800000000000089
:104470000000000000000000075C143326A6A13CE9
:104480002DE9F04D2DED040B2DED0E8B96B0DDE9F1
:104490002550279CDDF890A025F0004624F0004828
:1044A000BAF1000F14BF0121002101EB4502FC49C4
:1044B00053184A1093422AD3002814BF0123002323
:1044C00003EB44030B44F7498B4220D358EA000125
:1044D0009FEDF59B76D0DFF8D8B35D4503D1BAF1F7
:1044E000000F05D188E0BAF1000F08BF002100D00D
:1044F000012101EB450111F5001F08D8002814BF68
:104500000121002101EB440111F5001F0BD99DEDA4
:10451000261B9DED240B16B0BDEC0E8B04B0BDE840
:10452000F04D00F073BE0027002DBCBFE149884567
:1045300021DAE1498845A8BF02271CDAC3451ADC05
:10454000DE4901EB2851142908DDC1F1340220FABB
:1045500002F101FA02F282420DD108E058B9C1F12C
:10456000140228FA02F101FA02F2424503D101F0E5
:104570000101C1F1020756EA0A0124D1002C22DA16
:10458000002D18BF022F01D0012F0AD0022000F009
:1045900087FE16B0BDEC0E8B04B0BDE8F04D00F008
:1045A00013BE022000F07CFE00F00EFE51EC100B5A
:1045B00081F0004141EC100B16B0BDEC0E8B04B045
:1045C000BDE8F08D18E09FEDBEAB9FEDBF8B0028DE
:1045D00071D1B848804522D105F1804010F5801096
:1045E00008BFBAF1000F07D0B3450ADC002CA8BF02
:1045F0009DED260BE0DA0DE0B0EE490AF0EE690A17
:10460000DAE7002C06DA9DED260B51EC100B81F059
:1046100000416FE0AE48784490ED000BCCE7D84500
:104620004DD1002C48DA2EB186423AD1BAF1000FB2
:1046300042D126E0BAF1000F13D0022000F030FE84
:1046400000F0FEFD8DED020B9DED240B8DED000BBA
:1046500010EE900A039961F31E0003909DED020B8A
:10466000AAE78DED02AB9DED240B1AEE901A10EE29
:10467000900A8DED000B61F31E0003909DED020B7F
:104680009AE78DED028B9DED240B18EE901A10EE3B
:10469000900A8DED000B61F31E0003909DED020B5F
:1046A0008AE709DA9DED240B51EC190B53EC102B22
:1046B000FCF72BF81EE020E09DED240B7CE7864202
:1046C0001BDAB4F1804F0DD0A4F10050B0F1FF50CF
:1046D00013D1002D11DB9DED240B51EC100B02F0DA
:1046E00099FC07E09DED240B53EC102B51EC100BC3
:1046F00000F0C2BC41EC100B5EE79DED240B51ECC9
:10470000100B00F0C7FEBAF1000FCDE90E0142D147
:104710009FED710B46B3A6F1E040B0F17F600CD085
:104720005E4538D1002D00DAA7B3022F0CBF01205F
:104730004FF0FF30FCF76FF8DCE7002D01DD002CB7
:104740000DDA002D01DD002C1FDB002D16DA002C08
:1047500014DB012F08BF9FED620B3FF42DAFB0EECD
:104760004A0AF0EE6A0A27E7022F18BF002D0CD084
:10477000012F0AD1002DFFF61FAF06E0002DB8BFB4
:10478000002C08DA012F3FF417AFB0EE480AF0EE24
:10479000680A11E71BE0012000EBE57050EA070111
:1047A00015D0791EB0EE498AF0EE698A084308BF39
:1047B0009FED4D8B4E480025804570DD4D494E489C
:1047C000884514DDB0420DDB002C19DB2FE0012001
:1047D00000F066FD16B0BDEC0E8B04B0BDE8F04DE8
:1047E00000F01EBDB34502DC002C09DC1FE0864250
:1047F00002DA002C1BDA03E05E452BDD002C16DD0F
:10480000022000F04DFD00F01BFD8DED020B53EC7E
:104810001A2B51EC180BFBF706FFCDE900010399A9
:10482000019861F31E0003909DED020BC4E6022087
:1048300000F036FD00F014FD10EE901A18EE900A0C
:104840008DED020B8DED008B61F31E0003909DED4D
:10485000020BB1E69DED0E0B53EC192B51EC100B36
:10486000FBF7E1FD9FED260BCDE9080153EC102B82
:104870009DED080B51EC100BFBF7D5FE9FED221BB5
:1048800053EC112BFBF7D2FD9DED081B53EC112BC4
:10489000FBF7C9FE9FED1E1B53EC112B3CE08CE097
:1048A000FFFF1F00FFFF0F00000000000000F03FAF
:1048B0000000F03F0000F07F0000404301FCFFFFDC
:1048C000000000000000F07F000000000000000079
:1048D0008E45000000000000000000000000008085
:1048E000000000000000F0FF000000000000F0BF2A
:1048F0000000E0410000F043FFFFEF3F0000000038
:10490000000000000000D03F555555555555D53F86
:10491000000000000000E03FFBF788FD9DED080B64
:1049200041EC1A0B53EC102B51EC100BFBF77BFEF8
:1049300053EC1A2BFBF777FE41EC1A0B9FEDFE0BA5
:1049400053EC102B9DED080B51EC100BFBF76BFE9D
:1049500041EC1B0B9FEDFA0B51EC1A0B53EC102B97
:10496000FBF761FE41EC1A0B9FEDF70B53EC102B9C
:104970009DED080B51EC100BFBF755FE53EC1A2B79
:10498000FBF751FD41EC1A0B51EC1B0B53EC1A2BAE
:10499000FBF7A8FC0690CDE906519DED060B53EC04
:1049A0001B2B51EC100BFBF73EFD53EC1A2BFBF7C6
:1049B0003DFD41EC100B00F0A1B90020B6F5801FC1
:1049C0000EDA9FEDE30B53EC102B9DED0E0B51EC2B
:1049D000100BFBF728FECDE90E016FF034000E46F8
:1049E00000EB2650A0F2FF37C6F31300DA4940F07F
:1049F0007F6646F040568842D8BF002408DDD7497C
:104A00008142C8BF012403DC0024A6F580167F1C68
:104A1000D348784400EBC4000F9690ED00CB9DED99
:104A20000E0B53EC1C2B51EC100BFBF7FCFC9DED1B
:104A30000E0B41EC1B0B53EC1C2B51EC100BFBF73A
:104A400051FC41EC100B51EC190B53EC102BFBF704
:104A50005CFE41EC1D0B51EC1B0B53EC1D2BFBF7CB
:104A6000E2FD41EC1A0BBF488DED10AB7844109578
:104A700090ED000B4FF0005040EA660000EB8440E0
:104A80008DED080B00F5002009909DED080B53EC0F
:104A90001C2B51EC100BFBF7C6FC9DED0E1B53ECD1
:104AA000112BFBF7C3FC41EC100B53EC102B9DEDCD
:104AB000100B51EC100BFBF7B6FD9DED080B41EC14
:104AC0001C0B53EC102B9DED100B51EC100BFBF756
:104AD000AAFD53EC1B2BFBF7A9FC53EC1C2BFBF79B
:104AE000A2FC53EC1D2BFBF79EFD41EC1C0B53EC81
:104AF0001A2B51EC1A0BFBF796FD41EC1B0B9A4855
:104B00000621B0EE4B0AF0EE6B0A784400F0E0FAB2
:104B1000B0EE401AF0EE601AB0EE41DAF0EE61DA73
:104B200053EC1B2B51EC1B0BFBF77DFD53EC1D2BAA
:104B3000FBF779FD9DED100B41EC1B0B53EC1A2B91
:104B400051EC100BFBF7CEFB53EC1C2BFBF76BFD72
:104B500053EC1B2BFBF7C6FB9DED100B41EC1B0B25
:104B600053EC102B51EC100BFBF75DFD41EC1D0BD2
:104B70009FED7FEB53EC1E2BFBF7B4FB53EC1B2B91
:104B8000FBF7B0FB0890CDE908519DED080B53EC05
:104B90001E2B51EC100BFBF746FC53EC1D2BFBF7C7
:104BA00042FC53EC1B2BFBF741FC9DED080B41EC49
:104BB0001D0B53EC102B9DED100B51EC100BFBF764
:104BC00032FD41EC1B0B53EC1A2B51EC1D0BFBF788
:104BD0002AFD9DED080B41EC1A0B53EC102B51EC08
:104BE0001C0BFBF720FD53EC1A2BFBF77BFB41EC76
:104BF0001A0B51EC1B0B53EC1A2BFBF773FB0C90AD
:104C0000CDE90C519DED0C0B53EC1B2B51EC100B13
:104C1000FBF709FC53EC1A2BFBF708FC41EC1B0BD0
:104C20009FED550B53EC102B9DED0C0B51EC100B25
:104C3000FBF7F9FC41EC1A0B9FED510B51EC1B0BF0
:104C400053EC102BFBF7EFFC41EC1B0B9FED4E0BD5
:104C500053EC102B9DED0C0B51EC100BFBF7E3FC10
:104C600053EC1B2BFBF73EFB41EC100B4848784400
:104C700000EBC40090ED001B51EC100B53EC112B1A
:104C8000FBF730FB41EC1B0B3846FBF7C4FDCDE9CD
:104C9000080153EC1B2B51EC1A0BFBF723FB41ECE7
:104CA000100B3C48784400EBC40090ED00CB51EC75
:104CB000100B53EC1C2BFBF715FB9DED081B53EC65
:104CC000112BFBF70FFB0690CDE906519DED080B6C
:104CD00053EC102B9DED060B51EC100BFBF7A3FBD7
:104CE00053EC1C2BFBF79FFB53EC1A2BFBF79BFBA6
:104CF00053EC1B2BFBF79AFB41EC100B9DED261B95
:104D000053EC102B8DED001B00959DED260B51EC07
:104D1000100BFBF788FC9DED000B41EC1A0B53ECDC
:104D2000102B9DED260B51EC100BFBF77CFB9DED42
:104D3000061B53EC112B2FE0000000604715F73FD6
:104D4000FE822B654715F73F44DF5DF80BAE543EFE
:104D500000000000000040438E9803007AB60B006C
:104D60007240000038410000AA3F0000000000002F
:104D70000000000000000840000000E009C7EE3F0E
:104D8000FD033ADC09C7EE3FF5015B14E02F3EBEA0
:104D9000363E0000F03D0000FBF745FC53EC1A2BBB
:104DA000FBF7A0FA9DED060B41EC1A0B53EC102B10
:104DB0009DED000B51EC100BFBF735FCCDE90C0120
:104DC0009DED0C0B51EC1A0B53EC102BFBF78AFAF0
:104DD000CDE902010C46AA498C422FDB611A084337
:104DE00018D19DED0C0B53EC102B9DED020B51ECEB
:104DF000100BFBF718FB41EC1B0B9FEDA30B51ECC9
:104E00001A0B53EC102BFBF76DFA53EC1B2BFBF733
:104E100013FD2DD2022000F043FA00F011FA10EE3B
:104E2000901A18EE900A8DED020B8DED008B61F358
:104E30001E0003909DED020BFFF7BEBB944A24F0C9
:104E40000041914214D39349214408437FF4EFACCD
:104E50009DED0C0B53EC102B9DED020B51EC100B48
:104E6000FBF7E1FA53EC1A2BFBF7E6FC7FF6DFAC1D
:104E700024F000408849894A002601EB20518242F3
:104E80002BDA481C4FF4801121FA00F02044844AA8
:104E9000C0F30A517A44A1F2FF3192ED000B814A2E
:104EA0008DED080BCA4020EA0202C0F3130040F463
:104EB0008010C1F1140120FA01F60992002CB8BF4C
:104EC00076429DED080B53EC102B9DED0C0B51EC35
:104ED000100BFBF7A8FACDE90C019DED0C0B51EC82
:104EE0001A0B53EC102BFBF7FDF99FED6F0B08909D
:104EF000CDE9085153EC102B9DED080B51EC100B34
:104F0000FBF791FB41EC1B0B9FED690B53EC102B56
:104F10009DED080B51EC100BFBF785FB9DED0C0B89
:104F200041EC1C0B53EC102B9DED080B51EC100BBE
:104F3000FBF779FA53EC1A2BFBF778FA9FED5E1B1F
:104F400053EC112BFBF76FFB53EC1C2BFBF7CAF94F
:104F500041EC1A0B51EC1B0B53EC1A2BFBF7C2F96B
:104F6000CDE902019DED020B53EC1B2B51EC100B14
:104F7000FBF759FA53EC1A2BFBF758FA9DED020B8D
:104F800041EC1A0B53EC102B51EC100BFBF74BFBC5
:104F9000CDE908014A489DED080B0521784400F051
:104FA00097F89DED081B51EC100B53EC112BFBF700
:104FB0003AFB9DED021B53EC112BFBF737FACDE9C1
:104FC00006019DED020B53EC1A2B51EC100BFBF775
:104FD0002AFB53EC1A2BFBF785F99FED3B0B41ECB9
:104FE0001A0B53EC102B9DED060B51EC100BFBF73D
:104FF0001AFA9DED060B41EC1B0B53EC102B9DEDAB
:10500000020B51EC100BFBF70EFB53EC1B2BFBF7C9
:105010007CFB53EC1A2BFBF706FA9DED021B53ECBD
:10502000112BFBF700FA53EC192BFBF7FFF9CDE935
:10503000020101EB065001150029C8BF039015DCE1
:105040009DED020B324651EC100BFBF7CDFBFEF74A
:105050009BFF042808BF00F003F932469DED020BC8
:1050600051EC100BFBF7C0FBCDE902019DED020BEB
:1050700051EC180B53EC102BFBF7D5FAFFF73ABBAA
:105080000000904000000000FE822B654715973C11
:1050900000CC904000346F3F01FCFFFF0000E03F78
:1050A000103D0000FFFF0F0000000000432EE63F10
:1050B000396CA80C615C20BEEF39FAFE422EE63F47
:1050C000483B00000000000000000000000000401D
:1050D00070B504462DED028B4D1E00EBC500B0EE01
:1050E000408AF0EE608A90ED000B35F0060017D094
:1050F00053EC182B51EC100BFBF795FA41EC100B0D
:105100006D1E04EBC50090ED001B51EC100B53EC31
:10511000112BFBF7E7F841EC100B35F00600E7D157
:10512000022D36D0042D1CD0062D1CBFBDEC028BE9
:1051300070BD53EC182B51EC100BFBF774FA94ED87
:105140000A1B53EC112BFBF7CDF853EC182BFBF794
:105150006AFA94ED081B53EC112BFBF7C3F841ECF2
:10516000100B53EC182B51EC100BFBF75CFA94ED81
:10517000061B53EC112BFBF7B5F853EC182BFBF780
:1051800052FA94ED040B53EC102BFBF7ABF841EC07
:10519000100B53EC182B51EC100BFBF744FA94ED69
:1051A000021B53EC112BFBF79DF853EC182BFBF76C
:1051B0003AFA94ED001B53EC112BFBF793F8BDEC7E
:1051C000028B41EC100B70BD9FED070B10B553EC3B
:1051D000102B9FED070B51EC100BFBF796FA41ECEF
:1051E000100B10BD000000000000000000000000D7
:1051F000000000000000F03F10B553EC102B51EC04
:10520000100BFBF76FF841EC100B10BD10B553EC11
:10521000112B51EC100BFBF765F841EC100B10BD96
:105220009FED050B10B553EC102B51EC100BFBF759
:105230006CFA41EC100B10BD0000000000000000F3
:105240009FED050B10B553EC102B51EC100BFBF739
:10525000EAF941EC100B10BD0000000000000070E6
:105260009FED050B10B553EC102B51EC100BFBF719
:10527000DAF941EC100B10BD000000000000001036
:1052800002E008C8121F08C1002AFAD1704770470F
:10529000002001E001C1121F002AFBD1704700006D
:1052A0000149086070470000000100202DE9FF4F10
:1052B0008BB09A460F460546002606E025280BD0FF
:1052C00052460D9990476D1C761C28780028F5D120
:1052D0000FB03046BDE8F08F0024A046012260499F
:1052E00000E0044315F8013F203B02FA03F00842B6
:1052F000F7D128782E2817D115F8010F44F00404AF
:105300002A280ED06FF02F022878A0F13001092949
:105310000AD808EB880102EB410100EB01086D1C83
:10532000F2E757F8048B6D1C287869283ED006DC1C
:105330000028CDD063280BD0642804D136E0732830
:1053400010D075284BD052460D999047761C85E0B9
:1053500017F8040B8DF8000000208DF80100E946D5
:10536000012003E057F8049B4FF0FF3061074FF036
:10537000000401D40AE0641C44450DDA8442FADBDF
:1053800019F804100029F6D106E0641C8442FCDB05
:1053900019F804100029F8D1264404E019F8010B8B
:1053A00052460D999047641EF8D257E001CF4FF056
:1053B0000A0B002802DA40422D2102E0210504D523
:1053C0002B218DF82410012103E0E10705D02021D5
:1053D000F7E70DF1200908910CE00021F9E701CF72
:1053E0004FF00A0BF9E75946FBF752F801F130028A
:1053F00009F8012D0028F6D1ADEB090000F1200BD2
:10540000600701D44FF00108D84502DDA8EB0B007E
:1054100000E000208046002406E009A85246005D16
:105420000D999047641C761C08988442F5DB04E0D3
:10543000302052460D999047761CB8F10001A8F132
:105440000108F5DC05E019F8010B52460D9990476B
:10545000761CBBF10001ABF1010BF4DC6D1C34E7F1
:1054600009280100B5EEC00AF1EE10FA00DB00BF1A
:10547000B5EEC00AF1EE10FA03D2F1EE400AB0EE3A
:10548000600A704710B541EC100BFEF795FD51EC2A
:10549000100B10BD82B0CDE9000121F00040019059
:1054A0009DED000B02B051EC100B704770B5044637
:1054B0000D46E1B206480068FEF70CFD00BF8021F2
:1054C00003480068FEF73FFC0028F8D0204670BD76
:1054D0006000002070B52DED088BCCB0B0EE408A96
:1054E000F0EE608A1C22FE4945A8FAF7D7FE1C227E
:1054F000FB491C313EA8FAF7D1FEF94B3833D3E90A
:105500000012D3E90203CDE93C03CDE93A120020B1
:10551000389039903690379032903390349035905F
:10552000C422EF49483101A8FAF7B8FE9DED450ABB
:10553000B4EEC80AF1EE10FA05DDB7EE000A8DED03
:10554000380A0024B8E09DED450AB4EEC80AF1EE31
:1055500010FA16D89DED460AB4EEC80AF1EE10FA1C
:105560000FDD9DED460ADDED450A30EE600ADDED0A
:10557000460A70EEC80A80EE801A8DED381A0024B3
:105580009AE09DED460AB4EEC80AF1EE10FA16D87C
:105590009DED470AB4EEC80AF1EE10FA0FDD9DED5D
:1055A000470ADDED460A30EE600ADDED470A70EE8F
:1055B000C80A80EE801A8DED381A01247CE09DED3A
:1055C000470AB4EEC80AF1EE10FA16D89DED480A63
:1055D000B4EEC80AF1EE10FA0FDD9DED480ADDEDDC
:1055E000470A30EE600ADDED480A70EEC80A80EE28
:1055F000801A8DED381A02245EE09DED480AB4EE63
:10560000C80AF1EE10FA16D89DED490AB4EEC80AA0
:10561000F1EE10FA0FDD9DED490ADDED480A30EE9E
:10562000600ADDED490A70EEC80A80EE801A8DED41
:10563000381A032440E09DED490AB4EEC80AF1EEA1
:1056400010FA16D89DED4A0AB4EEC80AF1EE10FA27
:105650000FDD9DED4A0ADDED490A30EE600ADDED11
:105660004A0A70EEC80A80EE801A8DED381A0424BA
:1056700022E09DED4A0AB4EEC80AF1EE10FA16D8FF
:105680009DED4B0AB4EEC80AF1EE10FA0FDD9DED68
:105690004B0ADDED4A0A30EE600ADDED4B0A70EE92
:1056A000C80A80EE801A8DED381A052404E09FEDBB
:1056B0008D0A8DED380A05249DED380A10EE101A7A
:1056C0000846FAF7B6FE41EC1B0B9FED870B53EC37
:1056D000102BFAF7ABFE41EC1A0BFAF7BDFE39902E
:1056E0009DED3E0AB4EEE80AF1EE10FA05DDB7EEE4
:1056F000000A8DED360A0025B8E09DED3E0AB4EEB5
:10570000E80AF1EE10FA16D89DED3F0AB4EEE80A69
:10571000F1EE10FA0FDD9DED3F0ADDED3E0A30EEB1
:10572000600ADDED3F0A70EEE80A80EE801A8DED2A
:10573000361A00259AE09DED3F0AB4EEE80AF1EE34
:1057400010FA16D89DED400AB4EEE80AF1EE10FA10
:105750000FDD9DED400ADDED3F0A30EE600ADDED24
:10576000400A70EEE80A80EE801A8DED361A0125A7
:105770007CE09DED400AB4EEE80AF1EE10FA16D88E
:105780009DED410AB4EEE80AF1EE10FA0FDD9DED51
:10579000410ADDED400A30EE600ADDED410A70EEAF
:1057A000E80A80EE801A8DED361A02255EE09DED46
:1057B000410AB4EEE80AF1EE10FA16D89DED420A5D
:1057C000B4EEE80AF1EE10FA0FDD9DED420ADDEDD0
:1057D000410A30EE600ADDED420A70EEE80A80EE22
:1057E000801A8DED361A032540E09DED420AB4EE95
:1057F000E80AF1EE10FA16D89DED430AB4EEE80A75
:10580000F1EE10FA0FDD9DED430ADDED420A30EEB8
:10581000600ADDED430A70EEE80A80EE801A8DED35
:10582000361A042522E09DED430AB4EEE80AF1EEB3
:1058300010FA16D89DED440AB4EEE80AF1EE10FA1B
:105840000FDD9DED440ADDED430A30EE600ADDED2B
:10585000440A70EEE80A80EE801A8DED361A0525AE
:1058600004E09FED200A8DED360A05259DED360AF0
:1058700010EE101A0846FAF7DCFD41EC1B0B9FED09
:105880001A0B53EC102BFAF7D1FD41EC1A0BFAF777
:10589000E3FD3790C4EBC40001A901EB800010F8D0
:1058A000256032A800EB860090ED000ADDED380A95
:1058B0009DED361A00EE810A32A800EB860080EDDD
:1058C000000AC4EBC40001EB8001681C11F82060E1
:1058D00032A800EB860090ED000ADDED380A07E003
:1058E0007C89000800000000000000000000F03F7C
:1058F0009DED371A00EE810A32A800EB860080ED9C
:10590000000A601CC0EBC00001A901EB800010F888
:10591000256032A800EB860090ED000ADDED390A23
:105920009DED361A00EE810A32A800EB860080ED6C
:10593000000A601CC0EBC00001EB8001681C11F87C
:10594000206032A800EB860090ED000ADDED390AF8
:105950009DED371A00EE810A32A800EB860080ED3B
:10596000000A9DED320ADDED3A0A20EE200ADDED57
:10597000330A9DED3B1A00EE810ADDED340A9DED00
:105980003C1A00EE810ADDED350A9DED3D1A00EE70
:10599000810AB0EE409AB0EE490A4CB0BDEC088BDB
:1059A00070BD000070B52DED088BCCB0B0EE408A14
:1059B000F0EE608A1C22FE4945A8FAF76FFC1C2213
:1059C000FB491C313EA8FAF769FC00203A903B9055
:1059D0003C903D903890399036903790329033908B
:1059E00034903590C422F249383101A8FAF756FCB8
:1059F0009DED450AB4EEC80AF1EE10FA05DDB7EEEA
:105A0000000A8DED380A0024B8E09DED450AB4EE99
:105A1000C80AF1EE10FA16D89DED460AB4EEC80A8F
:105A2000F1EE10FA0FDD9DED460ADDED450A30EE90
:105A3000600ADDED460A70EEC80A80EE801A8DED30
:105A4000381A00249AE09DED460AB4EEC80AF1EE39
:105A500010FA16D89DED470AB4EEC80AF1EE10FA16
:105A60000FDD9DED470ADDED460A30EE600ADDED03
:105A7000470A70EEC80A80EE801A8DED381A0124AC
:105A80007CE09DED470AB4EEC80AF1EE10FA16D894
:105A90009DED480AB4EEC80AF1EE10FA0FDD9DED57
:105AA000480ADDED470A30EE600ADDED480A70EE87
:105AB000C80A80EE801A8DED381A02245EE09DED52
:105AC000480AB4EEC80AF1EE10FA16D89DED490A5C
:105AD000B4EEC80AF1EE10FA0FDD9DED490ADDEDD6
