:020000040800F2
:1000000040C30020790200087D1C0008CF180008BA
:10001000791C0008550B0008252500080000000089
:10002000000000000000000000000000C101000806
:10003000A116000800000000150200089120000829
:10004000930200089302000893020008930200083C
:10005000930200089302000893020008930200082C
:10006000930200089302000893020008930200081C
:10007000930200089302000893020008930200080C
:1000800093020008930200089302000893020008FC
:10009000410C000893020008930200089302000834
:1000A00093020008930200089302000893020008DC
:1000B00093020008930200089302000893020008CC
:1000C00093020008930200089302000893020008BC
:1000D00093020008552100081D2300089302000820
:1000E000930200089302000893020008930200089C
:1000F000930200089302000893020008930200088C
:10010000930200089302000893020008930200087B
:1001100093020008930200080921000893020008D6
:10012000930200089302000893020008930200085B
:10013000930200089302000893020008930200084B
:10014000930200089302000893020008930200083B
:10015000930200089302000893020008930200082B
:10016000930200089302000893020008930200081B
:10017000930200089302000893020008930200080B
:1001800093020008930200089302000893020008FB
:1001900093020008930200089302000893020008EB
:1001A000000000000000000093020008DFF80CD0FF
:1001B00000F08AFA00480047A93A000840C300202E
:1001C0002A4B19680868B0E8F04F80F30988BFF33C
:1001D0006F8F4FF0000080F311887047000000001F
:1001E00006480068006880F3088862B661B6BFF30D
:1001F0004F8FBFF36F8F00DF00BF00BF08ED00E03F
:10020000DFF80C00016841F470010160704700BF25
:1002100088ED00E0EFF30980BFF36F8F134B1A688E
:100220001EF0100F08BF20ED108A20E9F04F10607B
:1002300008B44FF0500080F31188BFF34F8FBFF325
:100240006F8F04F01DFF4FF0000080F3118808BC91
:1002500019680868B0E8F04F1EF0100F08BFB0EC46
:10026000108A80F30988BFF36F8F70472C0000203D
:10027000EFF30580704700000648804706480047B6
:10028000FEE7FEE7FEE7FEE7FEE7FEE7FEE7FEE746
:10029000FEE7FEE7A1200008AD01000840EA0103E7
:1002A0009B0703D009E008C9121F08C0042AFAD22C
:1002B00003E011F8013B00F8013B521EF9D27047F0
:1002C000D2B201E000F8012B491EFBD27047002298
:1002D000F6E710B513460A4604461946FFF7F0FF45
:1002E000204610BD00F0004230F000400AD0C10DA1
:1002F00001F56071C0F3160042EA0151C2084007DF
:100300001143704700200146704730B50B46014647
:1003100000202022012409E021FA02F59D4205D3A4
:1003200003FA02F5491B04FA02F52844151EA2F14E
:100330000102F1DC30BD2DE9FE4F804681EA030069
:10034000C00F0C46009021F0004123F00045B8EBAF
:100350000200A94105D24046214690461C460B4664
:10036000024623F00040104347D0270DC7F30A0090
:10037000C3F30A510290401A019040286BDAC3F38C
:10038000130040F4801B0098924620B10023D2EB6A
:10039000030A63EB0B0B01985946C0F1400250462B
:1003A00000F0A4F906460D4650465946019A00F061
:1003B000BCF910EB08006141002487EA115284EA7D
:1003C000E7731A4340D0009A62B3019A012A4FEAB8
:1003D000075215DC001B61EB02014FF0004202EAFC
:1003E0000752CDE90042001C41F5801132462B46F0
:1003F00000F0BCF903B0BDE8F08F40462146F9E7B4
:10040000001B61EB0201001C41F5801300185B41E9
:100410002018A2F5001747EB030140EAD570B61982
:100420006D4111E06D084FEA360645EAC0754FEAA6
:100430000752001B61EB0201001C41F580114908C5
:100440004FEA30000019514132462B4603B0BDE857
:10045000F04F00F07CB90098012240000023D0EB5F
:10046000020263EBE073009821464FEAE074B8EBB8
:10047000000061EB0401E9E783F000435BE781F0F2
:10048000004158E72DE9FE4F81EA030404F00044DF
:1004900021F0004100944FF0000B23F0004350EA9C
:1004A00001045ED052EA03045BD0C3F30A54C1F3E3
:1004B0000A552C44A4F2F3340194A0FB0254C1F376
:1004C000130141F48011C3F3130343F4801301FBC0
:1004D000024400FB034E840A970A44EA815447EA27
:1004E0008357A4FB076802958D0A05FB07854FEA31
:1004F000932C04FB0C542705029D4FEA065847EA4B
:100500001637B5EB08056EEB070C870E920E47EA1F
:10051000811742EA8312A7FB0201B6EB0B0164EBE1
:1005200000042B0D43EA0C335E1844EB1C50DA46F2
:100530005146E7FB0201C5F313044FEA0B3343EACC
:1005400014534FEA0432019C43EA0603A4F10C045D
:100550000294009CCDE900B400F008F903B0BDE8B6
:10056000F08F00200146F9E72DE9F04D81EA030400
:1005700004F0004B21F0004514464FF0000A23F030
:10058000004150EA050220D054EA01021DD0C5F313
:100590000A570246C5F31303C1F31300C1F30A5609
:1005A00040F4801543F48013A7EB0608101BD646D1
:1005B00008F2FD3873EB050002D308F1010801E0F1
:1005C00092185B41B8F1000F03DA00200146BDE844
:1005D000F08D00204FF48011064684460EE0171B74
:1005E00073EB050705D3121B63EB050306434CEAC7
:1005F000010C49084FEA300092185B4150EA0107AC
:10060000EDD152EA030012D082EA040083EA050128
:10061000084305D0101BAB4106D20122002306E09F
:1006200000224FF0004302E06FF0010253101AEB7A
:1006300006004CEB085110EB0A0041EB0B01BDE842
:10064000F04D00F084B870B521F0004303430CD0A6
:10065000C1F30A550024D5EB040564EB0403D61757
:10066000AD1AB34102DB0020014670BD201841EBFA
:10067000025170BD0EB5C10F80EAE0700844CA0790
:10068000002140F233438DE80E000A460B4600F08D
:100690006DF803B000BD000030B5041E71F1000418
:1006A00004DB4FF00044404264EB0101141E73F17F
:1006B000000405DB1C464FF00043524263EB040389
:1006C000994208BF904230BD064C074D06E0E068F5
:1006D00040F0010394E8070098471034AC42F6D389
:1006E000FFF768FD2060000840600008202A04DB56
:1006F000203A00FA02F1002070479140C2F1200335
:1007000020FA03F3194390407047202A04DB203A73
:1007100021FA02F00021704721FA02F3D040C2F121
:1007200020029140084319467047202A06DBCB1768
:10073000203A41FA02F043EAE07306E041FA02F39C
:10074000D040C2F12002914008431946704710B5CD
:10075000141E73F1000408DA401C41F100019218E4
:100760005B411A4301D120F0010010BD2DE9F04D8D
:1007700092469B4611B1B1FA81F202E0B0FA80F2E2
:1007800020329046FFF7B2FF04460F4640EA0A00C7
:1007900041EA0B0153465A46084313D0114653EA27
:1007A000010019D0C8F140025046FFF7AEFF0546E0
:1007B0000E46504659464246FFF798FF084305D07B
:1007C000012004E020463946BDE8F08D00200543B5
:1007D00046EAE0762C4337430A986305E40AA0EB27
:1007E00008000022FD0A44EA47540A3002D50020DE
:1007F0000146E9E7010510196941DDE908450019DD
:100800006941BDE8F04DA2E72DE9F04D00231A46FD
:100810001B1A8A4103DB00200146BDE8F08DC1F3BD
:100820000A52C1F3130141F480154FF0000BD107B8
:1008300002D100186D41521E0027044640F2FF11FC
:10084000384601EB620A3E468046024600204FF4DD
:100850008011FFF75AFFC2197141BB1846EB010026
:10086000B4EB030C75EB000C04D3E41A65EB000544
:1008700017460E46241908F101006D4180463428C0
:10088000E3DDF91946EB0600091BA84103D24FF03E
:10089000FF32134601E0002213461BEB070046EB34
:1008A0000A51BDE8F04DFFF752BF00000FB400B58C
:1008B0000198A0F2012007282CD2DFE800F0042CD8
:1008C0005986B3DEFD009DF810009DF80F1040EA38
:1008D000012000B29C4908809DF812109DF811007B
:1008E00041EA002000B2984948809DF814109DF814
:1008F000130041EA002000B2934988809DF815005A
:10090000C880012081F846000846B0F84800401C25
:10091000A1F8480015E19DF810009DF80F1040EA7D
:10092000012000B28849A1F84C009DF812109DF8F2
:10093000110041EA002001B28348A0F84E109DF852
:1009400014109DF8130041EA002001B27E48A0F87F
:1009500050109DF81510A0F85210012180F8921047
:10096000B0F89400401C81B27748A0F89410E8E0F9
:100970009DF810009DF80F1040EA012000B2724966
:10098000A1F898009DF812109DF8110041EA00208E
:1009900001B26D48A0F89A109DF814109DF813004C
:1009A00041EA002001B26848A0F89C109DF815109B
:1009B000A0F89E10012180F8DE10B0F8E000401C85
:1009C00081B26148A0F8E010BBE09DF810009DF8EE
:1009D0000F1040EA012000B25B49A1F8E4009DF845
:1009E00012109DF8110041EA002001B25648A0F80B
:1009F000E6109DF814109DF8130041EA002001B2A2
:100A00005148A0F8E8109DF81510A0F8EA1001214F
:100A100080F82A11B0F82C01401C81B24A48A0F895
:100A20002C118EE09DF810009DF80F1040EA012077
:100A300000B2464908809DF812109DF8110041EA65
:100A4000002000B241494880002001F0C9F83F4829
:100A5000B0F900003D49B1F864104FF4005212FBA8
:100A600001003A490866012081F872000846B0F892
:100A70007400401CA1F8740063E09DF810009DF81C
:100A80000F1040EA012000B23049A1F878009DF82B
:100A900012109DF8110041EA002001B22B48A0F885
:100AA0007A10012001F09CF82848B0F97810B0F8CD
:100AB000DC004FF4005200E00FE012FB001123486D
:100AC000C0F8D810012180F8EA10B0F8EC00401C02
:100AD00081B21E48A0F8EC1033E09DF810009DF89C
:100AE0000F1040EA012000B2194908809DF8121049
:100AF0009DF8110041EA002000B2154948809DF898
:100B000014109DF8130041EA002000B210498880BB
:100B1000002001F019F80E48B0F900000C49B1F8B6
:100B200064104FF4005212FB0100094908660120CD
:100B300081F876000846B0F87800401CA1F87800EB
:100B400000BF00BF5DF814FB5801002088020020A0
:100B50007803002000BFFEE700B589B0012108201E
:100B600001F0E8F80121480601F0F4F802208DF8C0
:100B700020008DF8210000208DF823008DF8220040
:100B80000220079007A92C4800F02BFE01200790B7
:100B900007A9294800F025FE09220121264800F076
:100BA00068FE09220021244800F063FE00208DF831
:100BB000160001208DF817008DF8180000208DF820
:100BC00019008DF81A008DF81B008DF812008DF8B1
:100BD000130002208DF8140004208DF81500052064
:100BE000ADF8100004A9154800F0D9F900208DF8DF
:100BF0000A008DF80B0001208DF80C000020ADF8E4
:100C0000080001208DF80D000020ADF80000ADF8BF
:100C10000200ADF80400ADF80600684600F0A2F846
:100C200000220A21142001F02AF80122022103489F
:100C300000F0ACF909B000BD000C024000640040B7
:100C400000B587B0002001900221104800F00EF995
:100C5000C8B102AA00210D4800F02BFA002301AA16
:100C600002A90B48006804F08BFD019838B14FF0E1
:100C7000805008490860BFF34F8FBFF36F8F022188
:100C8000024800F01BF807B000BD000000640040FF
:100C90001800002004ED00E086B00CE000235A1E8E
:100CA00001A90548006804F047FB0598009001A8D9
:100CB0000FC8FFF7FBFDF1E718000020B1F5007F3A
:100CC0003AD00FDC202928D006DC01291CD00429C9
:100CD0001DD0082940D11DE0402921D0B1F5807FE9
:100CE0003AD126E0B1F5004F31D006DCB1F5806F86
:100CF00025D0B1F5006F2FD124E0B1F5803F12D09F
:100D0000B1F5003F28D111E0154A826025E00822A4
:100D1000C26022E01022C2601FE0082202611CE0D3
:100D20001022026119E00822426016E0102242609F
:100D300013E00422426010E0042242600DE004222D
:100D400042600AE0002282610422426005E0002243
:100D500082610422426000E000BF00BF70470000D3
:100D60000101010010B50021837A012202FA03F18A
:100D70003D4A126842F001023B4B1A603A4A1C326B
:100D800012688A43384B1C331A60027BCAB9364A50
:100D90000C3212688A43344B0C331A604288C38881
:100DA00042EA0343304A4032847A42F834300288BF
:100DB000838842EA03432C4A4032847A02EBC4021D
:100DC0005360027B012A19D1274A0C3212680A4368
:100DD000254B0C331A604288038842EA0343224AB7
:100DE0004032847A42F83430C288838842EA03432E
:100DF0001D4A4032847A02EBC4025360C27A3AB987
:100E0000194A121D12688A43174B1B1D1A6006E00F
:100E1000154A121D12680A43134B1B1D1A600289E2
:100E200032B9114A143212688A430F4B14331A60D4
:100E30000289012A06D10C4A143212680A430A4B6D
:100E400014331A60427B012A06D1074A1C32126809
:100E50000A43054B1C331A60034A126822F0010250
:100E6000014B1A6010BD00000066004070B50446DA
:100E70000D46002660692840002871D0B5F5807FB6
:100E80005CD010DC082D35D006DC012D20D0022DE1
:100E900024D0042D72D127E0102D31D0202D35D053
:100EA000402D6BD138E0B5F5004F60D009DCB5F5C9
:100EB000007F49D0B5F5806F4CD0B5F5006F5DD19E
:100EC0004FE0B5F5803F2DD0B5F5003F56D12FE06E
:100ED000A0682D4900F091F9064651E0E068032131
:100EE00000F08BF906464BE0E068082100F085F938
:100EF000064645E0E068102100F07FF906463FE035
:100F00002069032100F079F9064639E020690821BB
:100F100000F073F9064633E02069102100F06DF906
:100F200006462DE06068082100F067F9064627E0D4
:100F30006068102100F061F9064621E0A0690121F6
:100F400000F05BF906461BE0A069022100F055F9AC
:100F5000064615E0A069042100F04FF906460FE0AF
:100F60000FE0A069702100F048F9064608E06068CB
:100F7000042100F042F9064602E0FFE7002600BF28
:100F800000E00026304670BD010101001AB143693E
:100F90000B43436102E043698B434361704730B5C3
:100FA000024600200023146824F002041460146830
:100FB00044F00104146000E05B1C546804F0010478
:100FC0001CB94FF6FF74A342F6D1546804F0010433
:100FD0000CB900206CE08C79012C04D1146844F029
:100FE0008004146003E0146824F080041460CC7959
:100FF000012C04D1146844F04004146003E0146828
:1010000024F0400414600C7A012C04D1146844F0DC
:101010002004146003E0146824F0200414604C7A67
:10102000012C04D1146844F01004146003E0146827
:1010300024F0100414608C7A012C04D1146844F05C
:101040000804146003E0146824F008041460CC7AE7
:10105000012C04D1146844F00404146003E0146803
:1010600024F0040414608C78A407CD7844EA056465
:101070000D7944EA05444D7944EA05540D886D1E06
:101080002C43D461146824F001041460002300E0B0
:101090005B1C546804F001041CB14FF6FF74A342BA
:1010A000F6D1546804F001040CB1002000E00120E6
:1010B00030BD10B500F5D87303EB01131B6803F0C6
:1010C00004031372137A53B900F5D87303EB0113B9
:1010D0001B6840F2FF7404EA5353136009E000F503
:1010E000D87303EB01131B686FF0604404EAD30369
:1010F000536000F5D87303EB01131B6803F0020380
:10110000537200F5D87303EB01135B6803F00F0310
:10111000937200F5D87303EB01135B681B0AD37459
:1011200000F5D87303EB01139B68D37200F5D873F5
:1011300003EB01139B681C0A147300F5D87303EBCF
:1011400001139B681C0C547300F5D87303EB011357
:101150009B681B0E937300F5D87303EB0113DB68D8
:10116000D37300F5D87303EB0113DB681C0A147406
:1011700000F5D87303EB0113DB681C0C547400F505
:10118000D87303EB0113DB681B0E937421B9C3689A
:1011900043F02003C36003E0036943F020030361CD
:1011A00010BD00001CB500221421084604F088F888
:1011B000064908600648042100238022CDE900107A
:1011C00004A1084804F0B8FB1CBD00001800002072
:1011D0001400002043414E5F526563656976655493
:1011E00061736B00990C000808B50020009003E0C3
:1011F0000521684603F00AFDFAE70246002002EAEC
:1012000001030BB1012000E0002070471CB50F481E
:10121000022100238022CDE900100DA1104804F026
:101220008BFB1048022100238022CDE900100EA183
:10123000114804F081FB1148042100238022CDE9EC
:1012400000100FA1124804F077FB1CBD2400002001
:101250004C45445F4C696768745461736B000000CF
:10126000891A00081C000020436861737369636178
:101270006C5F5461736B0000E911000820000020CE
:10128000446576696365735F5461736B00000000A9
:10129000CD17000821B1026842F00102026003E0AC
:1012A000026822F00102026070470000016821F02C
:1012B000010101600021016041608160C160016144
:1012C000212141614A49884204D13D21484A103ACE
:1012D00091608CE046491831884205D14FF4746121
:1012E000434A103A916082E041493031884205D149
:1012F0004FF474113E4A103A916078E03C4948310D
:10130000884205D14FF07461394A103A91606EE01D
:1013100037496031884204D13649354A103AD160A4
:1013200065E033497831884204D13349304A103A74
:10133000D1605CE02E499031884204D12F492C4A7B
:10134000103AD16053E02A49A831884205D14FF0C4
:101350003D51274A103AD16049E02949884204D1D9
:101360003D21274A083A116041E025491831884259
:1013700005D14FF47461224A083A116037E02049E0
:101380003031884205D14FF474111D4A083A11607A
:101390002DE01B494831884205D14FF07461184A4D
:1013A000083A116023E016496031884204D111499E
:1013B000134A121F11601AE011497831884204D192
:1013C0000D490F4A121F116011E00D4990318842FA
:1013D00004D10A490A4A121F116008E00849A831DD
:1013E000884204D14FF03D51054A121F11607047E9
:1013F000106002403D000020400F002000003D2012
:1014000010640240014600200A6802F001020AB19D
:10141000012000E0002070470146486880B2704714
:1014200010B500220268134B1A40CC680B682343A6
:101430004C6923438C692343CC6923430C6A2343BF
:101440004C6A23438C6A23434C6B23438C6B2343AA
:101450001A430260426922F00702D1E90B342343A8
:101460001A4342610B6943604B6883608B68C360B9
:1014700010BD00003F801CF010B5044800F0A0FE35
:101480001421034800F0EEFE10BD0000A08601000C
:10149000CC0000200022CA808A8008800A884B88FD
:1014A0009A4209D00A8812B10A88CA8004E04A88A0
:1014B0008A8000220A814A810A884AB14A89521CDC
:1014C0004A814A89322A03DD0A880A8100224A8138
:1014D0000A884A807047000010B5044604B910BD60
:1014E0002078617840EA0120C0F30A005D49088055
:1014F0006078C010A17840EA4110C0F30A00594951
:101500004880A0788011E17840EA8100217940EAA2
:101510008120C0F30A005349888020794010617906
:1015200040EAC110C0F30A004E49C880607900113A
:10153000800808726079C0F301104872A079E179DF
:1015400040EA012000B247494881207A617A40EAA6
:10155000012001B243488181A07AE17A40EA01206A
:1015600001B24048C181217B0174617B4174A07B41
:10157000E17B40EA01203B49488208460088A0F50B
:10158000806000B2088008464088A0F5806000B204
:10159000488008468088A0F5806000B288800846B0
:1015A000C088A0F5806000B2C880B1F9000000F0EA
:1015B00065F800B22B490880B1F9020000F05EF82E
:1015C00000B228494880B1F9040000F057F800B291
:1015D00024498880B1F9060000F050F800B2214992
:1015E000C8800846B0F90400404201EE100AB8EE87
:1015F000C11AF0EE410A0846B0F9060001EE100AE1
:10160000B8EEC11AB0EE410A174800F037FC154891
:10161000B0F9020001EE100AB8EEC11AF0EE410A6C
:101620001048B0F9000001EE100AB8EEC11AB0EE91
:10163000410A0E4800F022FC0A49087C0C49FFF7D9
:1016400029FF0849487C0B49FFF724FF0549488AD0
:101650000949FFF71FFF0348808A401C014988821F
:1016600000BF3CE7E0000020F80000200C01002053
:10167000400100204C0100203401002010B5044638
:1016800000EE104AB8EEC00A02F0CCF9F3EE040AFC
:10169000B4EEE00AF1EE10FA00D20024204610BDAC
:1016A000704700004548808A052803DA0120434935
:1016B000887502E000204149887500203F498882F2
:1016C00000BF2AE000EB400101EB00113C4A02EBB5
:1016D0008101B1F8481005290ADA012100EB400226
:1016E00002EB0012364B03EB820282F84A1009E04B
:1016F000002100EB400202EB0012314B03EB8202AF
:1017000082F84A10002100EB400202EB00122C4B41
:1017100003EB8202A2F84810401C0428D2DB002010
:1017200022E0C0EB0011274A02EBC101B1F87410AE
:10173000052908DA0121C0EB0012224B03EBC2029B
:1017400082F8761007E00021C0EB00121D4B03EB7E
:10175000C20282F876100021C0EB0012194B03EB95
:10176000C202A2F87410401C0228DADB002022E03A
:10177000C0EB4011144A02EB8101B1F87810052941
:1017800008DA0121C0EB40120F4B03EB820282F812
:101790007A1007E00021C0EB40120B4B03EB8202F2
:1017A00082F87A100021C0EB4012074B03EB820253
:1017B000A2F87810401C0128DADB7047E000002016
:1017C00058010020880200207803002008B500207E
:1017D000009005E0FFF766FF6421684603F016FA03
:1017E000F8E7F0B50A4600210023002400BF3DE0E1
:1017F000012505FA01F3156805EA03049C4234D17A
:1018000005684F000326BE40B543056015794E00BC
:10181000B5400668354305601579012D02D015796C
:10182000022D16D185684F000326BE40B543856062
:1018300055794E00B5408668354385604568012678
:101840008E40B5434560456896798E40B6B23543C3
:101850004560C5684F000326BE40B543C560D579D5
:101860004E00B540C6683543C560491C1029BFD33A
:10187000F0BDF0B5002300244D07ED0E02FA05F38C
:10188000CE1000F1200555F826504E07F70E0F2612
:10189000BE40B543CF1000F1200646F82750CE10C9
:1018A00000F1200555F8265045EA0304CE1000F15A
:1018B000200545F82640F0BD0183704742694A4043
:1018C000426170470AB1018300E04183704700BF65
:1018D000FEE700001CB50121722000F02BFA012068
:1018E0008DF8040000208DF806008DF807008DF8B3
:1018F00005001020009069466048FFF772FF202025
:10190000009069465D48FFF76CFF012210215B489B
:10191000FFF7D8FF012220215848FFF7D3FF02200C
:10192000009069465648FFF75CFF04200090694626
:101930005348FFF756FF0820009069465048FFF7CC
:1019400050FF1020009069464D48FFF74AFF2020C5
:10195000009069464A48FFF744FF402000906946DE
:101960004748FFF73EFF8020009069464448FFF754
:1019700038FF4FF48070009069464148FFF731FF0F
:10198000012202213E48FFF79DFF012204213C482D
:10199000FFF798FF012208213948FFF793FF012242
:1019A00010213748FFF78EFF012220213448FFF72E
:1019B00089FF012240213248FFF784FF0122802164
:1019C0002F48FFF77FFF012211022D48FFF77AFF12
:1019D0004FF40070009069462A48FFF702FF4FF469
:1019E0008060009069462748FFF7FBFE4FF40060D7
:1019F000009069462348FFF7F4FE4FF480500090B2
:101A000069462048FFF7EDFE4FF40050009069460C
:101A10001C48FFF7E6FE4FF48040009069461948E5
:101A2000FFF7DFFE4FF40040009069461548FFF7CE
:101A3000D8FE012251021348FFF744FF0122910210
:101A40001048FFF73FFF0122D1020E48FFF73AFF8F
:101A5000012211030B48FFF735FF0122510309480A
:101A6000FFF730FF012291030648FFF72BFF012209
:101A7000D1030448FFF726FF1CBD0000000402400C
:101A8000001802400010024008B5002000903AE023
:101A90004FF400711C48FFF711FF0F21684603F057
:101AA000B5F84FF480611848FFF708FF1421684625
:101AB00003F0ACF84FF400611348FFF7FFFE192163
:101AC000684603F0A3F84FF480510F48FFF7F6FE85
:101AD0001E21684603F09AF84FF400510A48FFF7B8
:101AE000EDFE2321684603F091F84FF4804106484B
:101AF000FFF7E4FE2821684603F088F84FF4004120
:101B00000148FFF7DBFEC3E7001002401CB50121CE
:101B1000402000F00FF901208DF8040000208DF81E
:101B200006008DF807008DF805004FF40050009076
:101B300069460448FFF755FE4FF400510148FFF78E
:101B4000BBFE1CBD00180240C0EB4011224A32F916
:101B50002110C0EB4012204B03EB8202126F891A56
:101B60001E4A91420EDAC0EB40111A4602EB810187
:101B7000B1F86410491C09B2C0EB401203EB8202B9
:101B8000A2F86410C0EB4011134A02EB8101096F07
:101B9000C0EB4012104B33F92220891A0F4A9142B0
:101BA0000EDAC0EB40111A4602EB8101B1F8641065
:101BB000491E09B2C0EB401203EB8202A2F8641086
:101BC000C0EB4011044A32F92110C0EB4012024B25
:101BD00003EB8202116770477803002090E8FFFF53
:101BE000C0EB0011224A32F93110C0EB0012204B39
:101BF00003EBC202D26E891A1E4A91420EDAC0EB82
:101C000000111A4602EBC101B1F86410491C09B277
:101C1000C0EB001203EBC202A2F86410C0EB00118B
:101C2000134A02EBC101C96EC0EB0012104B33F92D
:101C30003220891A0F4A91420EDAC0EB00111A467F
:101C400002EBC101B1F86410491E09B2C0EB0012E9
:101C500003EBC202A2F86410C0EB0011044A32F98F
:101C60003110C0EB0012024B03EBC202D166704789
:101C70008802002090E8FFFF00BFFEE77047F8B53C
:101C800006460C461546F0B28DF80000E0B28DF81D
:101C90000100E8B28DF8020001208DF803006846CB
:101CA00000F002F8F8BD000070B5002100230F22FB
:101CB000C4781CB3174C246804F4E064C4F5E064F1
:101CC000C4F30721C1F10404E3B20A4144789C4003
:101CD000E1B28478144021430C07210E0E4C0578A4
:101CE0006155047804F01F050124AC4005786D119E
:101CF000AD0005F1E025C5F8004109E0047804F0E5
:101D00001F050124AC40054D0678761145F82640A4
:101D100070BD00000CED00E000E400E080E100E0B8
:101D200002490143024A1160704700000000FA05B1
:101D30000CED00E029B1064A12680243044B1A6018
:101D400004E0034A12688243014B1A6070470000A6
:101D50003038024029B1064A12680243044B1A6027
:101D600004E0034A12688243014B1A607047000086
:101D70004038024029B1064A12680243044B1A60F7
:101D800004E0034A12688243014B1A607047000066
:101D900044380240F0B5002100220024022500262C
:101DA0000223324F3F6807F00C0121B1042905D00E
:101DB000082937D105E02E4F076036E02D4F076028
:101DC00033E02A4F3F1F3F68C7F38056274F3F1F1E
:101DD0003F6807F03F036EB1264FB7FBF3F7DFF81C
:101DE0008CC0ACF1040CDCF800C0CCF3881C07FB01
:101DF0000CF40CE01E4FB7FBF3F7DFF870C0ACF14A
:101E0000040CDCF800C0CCF3881C07FB0CF4174F63
:101E10003F1F3F68C7F301477F1C7D00B4FBF5F708
:101E2000076002E0124F076000BF00BF0F4F3F681E
:101E300007F0F0010909104F7A5C0768D740476046
:101E40000A4F3F6807F4E051890A0B4F7A5C4768F4
:101E5000D7408760054F3F6807F46041490B064F44
:101E60007A5C4768D740C760F0BD00000838024080
:101E70000024F400001BB700A000002070B52DED79
:101E8000068BB0EE408AF0EE608A044684ED008A4C
:101E9000C4ED018A94ED000A10EE101A0846FEF710
:101EA00021FA41EC190B94ED010A10EE101A0846C4
:101EB000FEF718FA41EC1A0BB0EE491AF0EE691A67
:101EC000B0EE4A0AF0EE6A0A01F0C4FD00EE100A14
:101ED000B8EEC00A84ED020A94ED020ADFED220A90
:101EE00020EE200ADFED210A80EE201A84ED031A8D
:101EF00094ED000A10EE101A0846FEF7F3F941ECD3
:101F0000190B0220B0EE490AF0EE690A01F0E6FD75
:101F1000054694ED010A10EE101A0846FEF7E2F9A4
:101F200041EC190B0220B0EE490AF0EE690A01F00B
:101F3000D5FD284400EE100AF8EEC00AB1EEE00A22
:101F400084ED040A94ED030ADFED070AB4EEE00A1B
:101F5000F1EE10FA05DD94ED040AB1EE400A84EDCD
:101F6000040ABDEC068B70BD00003443DB0F494012
:101F70000CB50020019000904148006840F480308A
:101F80003F49086000BF3E48006800F40030009000
:101F90000198401C0190009818B90198B0F5A04F25
:101FA000F1D13748006800F4003010B101200090F2
:101FB00001E0002000900098012860D130484030B6
:101FC000006840F080502E49403108602D4800687C
:101FD00040F440402B4908602948083000682849EF
:101FE000083108600846006840F400400860084670
:101FF000006840F4A05008602348091F0860081FCB
:10200000006840F08070091F086000BF1C4800682D
:1020100000F000700028F9D01A48006840F48030C1
:102020001849086000BF1748406800F48030002855
:10203000F9D01448006840F400301249086000BF2D
:102040001048406800F400300028F9D040F20570D4
:102050000E4908600A480830006820F0030008496B
:10206000083108600846006840F00200086000BFC0
:1020700003480830006800F00C000828F8D10CBDB7
:1020800000380240007000400C5A4007003C0240FB
:1020900010B503F081FC012801D003F0F7F810BD62
:1020A00010B51548006840F47000134908601348E3
:1020B000006840F001001149086000200F49083114
:1020C00008600E4800680E4908400C4908600D4839
:1020D000091D0860081F006820F48020091F08609F
:1020E000002006490C310860FFF742FF4FF0006006
:1020F00001498039086010BD88ED00E000380240D9
:10210000FFFFF6FE103000247047000010B50446B3
:102110004FF44070FFF704FEFEF71EFDFFF7DAFBF9
:10212000FFF7F4FCFFF7A8F902F0B8FB00F0D6F9CE
:10213000FFF738F84FF4FA6002F02CFDFFF766F86D
:102140000348006802F0D2FD02F0EEFB10BD000073
:102150000000002008B50020009040F22441134800
:1021600000F0FFF808B300211148FFF793F810487A
:10217000FFF752F9022810D100236A460D490E4894
:10218000006803F0FDFA009838B14FF080500B4919
:102190000860BFF34F8FBFF36F8F01210448FFF733
:1021A00079F8024880880148008808BD0010014085
:1021B00040640240CC0000200C00002004ED00E050
:1021C00010B586B0044601210220FFF7B3FD0121BE
:1021D0001020FFF7CFFD02208DF814008DF81500B8
:1021E00001208DF8170000208DF816004020049083
:1021F00004A91A48FFF7F5FA8020049004A91748AB
:10220000FFF7EFFA072206211448FFF732FB0722F7
:1022100011461248FFF72DFB00940020ADF8040092
:10222000ADF80600ADF80800ADF80C000C20ADF8D4
:102230000A0069460A4800F0E3F800220721252039
:10224000FFF71DFD012240F22441054800F0B3F8DC
:102250000121034800F063F806B010BD00040240FD
:102260000010014030B58FB004460D4601218805AD
:10227000FFF760FD1C48FFF719F800BF1A48FFF789
:10228000C1F80028FAD14FF0006000901748019083
:10229000029400200390049505904FF4806006900E
:1022A0000020079008904FF48070099000020A9077
:1022B00000200B900C900D900E9069460A48FFF795
:1022C000AFF801210848FEF7E5FF00BF0648FFF719
:1022D00099F80128FAD1012240210448001F00F09A
:1022E0002AF80FB030BD00004064024004100140E5
:1022F00086B00DE000235A1E01A90648006803F0CD
:102300001BF801A8FFF7E8F820210348FFF7D6FAE9
:10231000F0E700000C00002000040240704721B1EB
:10232000828942F40052828104E082894DF6FF7373
:102330001A40828170471AB1838A0B43838202E07C
:10234000838A8B438382704702460020B1F5007F69
:1023500000D100BF13880B400BB1012000E000202A
:10236000704770B50246002400230025002040F687
:102370006A16B14200D100BFC1F3421501F01F033C
:10238000012606FA03F3012D02D19689334006E0B7
:10239000022D02D1168A334001E0968A33400C1296
:1023A000012606FA04F41688344013B10CB101205A
:1023B00000E0002070BDF0B5034600240026002593
:1023C000002040F66A17B94200D100BF1846C1F399
:1023D000421401F01F06012707FA06F5012C01D16E
:1023E0000C3004E0022C01D1103000E014301AB19E
:1023F00007682F43076002E00768AF430760F0BD3E
:102400002DE9FF4705460E460024A14600BFA04621
:10241000B08900B100BF2C8A24F44054F0880443F2
:102420002C82AC8941F20C608443B0883189084326
:10243000718908430443AC81AC8A24F44074B089A8
:102440000443AC826846FFF7A5FC2048854202D0D1
:102450001F48854202D1DDF80C9001E0DDF80890BC
:10246000A88900F4004040B109EBC90000EB091055
:1024700031684900B0FBF1F707E009EBC90000EB58
:10248000091031688900B0FBF1F76420B7FBF0F068
:1024900004012009642101FB1078A88900F40040A0
:1024A00040B1322000EBC800B0FBF1F000F00700B3
:1024B000044308E0322000EB08106421B0FBF1F087
:1024C00000F00F0004432C81BDE8FF87001001409D
:1024D00000140140C1F30802828070471CB500223D
:1024E0001421084602F0ECFE064908600648042163
:1024F00000238022CDE9001004A1094803F01CFA52
:102500001CBD00000C000020040000205553415267
:1025100054315F526563656976655461736B000081
:10252000F122000800BFFEE70FB4054B10B503A968
:10253000044A029801F09AF910BC5DF814FB0000FF
:10254000813A0008C400002003B4019841000098BB
:1025500050EAC12018BF04204A0D18BF40F0010006
:1025600040F2FF72B2EB515F08BF40F00200012859
:1025700008BF052002B0704770B59B482DED020BD7
:102580002DED068B079D25F00044A04218DC9748EE
:10259000844202DC0AD1069840B19DED060BBDECE9
:1025A000068B02B0BDE8704001F006B9002DCCBF2B
:1025B0009FED8F0B9FED900BBDEC068B02B070BDB5
:1025C0008F48A04215DD8F48A042D8BF4FF0FF349E
:1025D00058DD9DED060B51EC100BFFF7B5FF0428FD
:1025E00008BF01F01DF99DED060BBDEC068B02B096
:1025F00070BD9DED060B51EC100B01F035FACDE9E5
:10260000060181489FED828BA0423CDD8248A042BA
:102610001FDD00249FED82AB9DED060B53EC1A2BC2
:1026200051EC100BFDF787FE9DED060B41EC190BED
:1026300053EC1A2B51EC100BFDF724FF53EC182B25
:10264000FDF71AFF53EC192BFDF78EFFCDE90601BC
:1026500049E09DED060B012453EC182B51EC100BB7
:10266000FDF769FE9DED060B41EC190B53EC182BA1
:1026700051EC100BFDF700FF53EC192BFDF774FF25
:10268000CDE906012FE06848A0421FDD02249FED3E
:10269000689B9DED060B53EC192B51EC100BFDF7CD
:1026A000F1FE53EC182BFDF746FE9DED060B41ECB9
:1026B000180B53EC192B51EC100BFDF7DDFE53EC0E
:1026C000182BFDF751FFCDE906010CE09DED060B3F
:1026D000032453EC102B9FED580B51EC100BFDF71E
:1026E00043FFCDE906019DED060B53EC102B51EC99
:1026F000100BFDF7C7FE41EC180B53EC182BFDF740
:10270000C1FE41EC190B4E480621B0EE490AF0EE2D
:10271000690A784400F0BCFF53EC182B51EC100B05
:10272000FDF7B0FE41EC180B4648B0EE490AF0EE5A
:10273000690A0521784400F0ABFF53EC192B51ECEA
:10274000100BFDF79FFE41EC100B51EC180B53ECF6
:10275000102B002C0EDAFDF7EEFD9DED061B53EC61
:10276000112BFDF78FFE9DED061B53EC112BFDF792
:1027700086FE35E0FDF7DFFD9DED061B53EC112BCA
:10278000FDF780FE41EC100B2F48784400EBC400AD
:1027900090ED001B51EC100B53EC112BFDF76CFE70
:1027A0009DED061B53EC112BFDF766FE41EC100B63
:1027B0002648784400EBC40090ED001B51EC100B50
:1027C00053EC112BFDF75BFE41EC100B002DA2BF6B
:1027D000BDEC068B02B070BD51EC100B81F00041D6
:1027E00041EC100B01E70000000010440000F07FF6
:1027F000182D4454FB21F93F182D4454FB21F9BFF7
:102800000000DC3F0000203E0000F33F000000001D
:10281000000000000000F03F0000E63F0000000064
:1028200000000000000000400080034000000000A5
:10283000000000000000F83F000000000000F0BFB2
:10284000D23800008838000012380000CA37000073
:1028500070B56B4E2DED040B2DED028B82B0DDF8C3
:102860001CC0DDE905235C422CF000411C4341EA19
:10287000D474049D22F00040B44205D86C422C432D
:1028800040EAD474B4420BD99DED061B9DED040BB8
:1028900002B0BDEC028B04B0BDE8704000F096BF02
:1028A000ACF14054A4F17F641C430BD0022404EA31
:1028B000AC7444EAD27405439FED538B9FED542BC7
:1028C00007D015E09DED040B51EC100B01F0BAF8A8
:1028D00042E0002C11BF012C9DED040B02B0BDECB9
:1028E000028B04BF04B070BD022C38D0032C3BD047
:1028F0000B439FED491B9FED4A0B0AD0B14218D103
:10290000B04209D121F0804120F08040079105902C
:102910000FE0002A15DA10E0434B7B44002C08BF7F
:1029200093ED000B0DD0012C10D0022C17D0032CEE
:102930001AD0B0421DD1002A03DAB0EE410AF0EEFF
:10294000610A02B0BDEC028B04B070BD93ED000BC8
:1029500051EC100B81F0004141EC100BF1E7B0EEAF
:10296000480AF0EE680AECE7B0EE420AF0EE620ABE
:10297000E7E7401A00153C28C8BF8DED000B19DCB5
:10298000BCF1000FBEBF10F13C0F9FED290B8DED88
:10299000000B0FDB9DED060B53EC102B9DED040B94
:1029A00051EC100BFDF7E0FD01F05EF801F04AF884
:1029B000CDE90001002C08BF9DED000BC1D0012C1A
:1029C00010D0022C9FED1C0B53EC102B9DED000B37
:1029D00051EC100B0DD0FDF74FFD53EC182BFDF70C
:1029E0004BFDB9E7019880F0004001909DED000B90
:1029F000A7E7FDF741FD53EC182BFDF740FDABE7D2
:102A00000000F07F00000000182D4454FB21094015
:102A1000182D4454FB2109C0182D4454FB21F9BF43
:102A2000182D4454FB21F93FFA3600000000000045
:102A30000000000000000000075C143326A6A13C43
:102A40002DE9F04D2DED040B2DED0E8B96B0DDE94B
:102A50002550279CDDF890A025F0004624F0004882
:102A6000BAF1000F14BF0121002101EB4502FC491E
:102A700053184A1093422AD3002814BF012300237D
:102A800003EB44030B44F7498B4220D358EA00017F
:102A90009FEDF59B76D0DFF8D8B35D4503D1BAF151
:102AA000000F05D188E0BAF1000F08BF002100D067
:102AB000012101EB450111F5001F08D8002814BFC2
:102AC0000121002101EB440111F5001F0BD99DEDFF
:102AD000261B9DED240B16B0BDEC0E8B04B0BDE89B
:102AE000F04D00F073BE0027002DBCBFE1498845C2
:102AF00021DAE1498845A8BF02271CDAC3451ADC60
:102B0000DE4901EB2851142908DDC1F1340220FA15
:102B100002F101FA02F282420DD108E058B9C1F186
:102B2000140228FA02F101FA02F2424503D101F03F
:102B30000101C1F1020756EA0A0124D1002C22DA70
:102B4000002D18BF022F01D0012F0AD0022000F063
:102B500087FE16B0BDEC0E8B04B0BDE8F04D00F062
:102B600013BE022000F07CFE00F00EFE51EC100BB4
:102B700081F0004141EC100B16B0BDEC0E8B04B09F
:102B8000BDE8F08D18E09FEDBEAB9FEDBF8B002838
:102B900071D1B848804522D105F1804010F58010F0
:102BA00008BFBAF1000F07D0B3450ADC002CA8BF5C
:102BB0009DED260BE0DA0DE0B0EE490AF0EE690A71
:102BC000DAE7002C06DA9DED260B51EC100B81F0B4
:102BD00000416FE0AE48784490ED000BCCE7D8455B
:102BE0004DD1002C48DA2EB186423AD1BAF1000F0D
:102BF00042D126E0BAF1000F13D0022000F030FEDF
:102C000000F0FEFD8DED020B9DED240B8DED000B14
:102C100010EE900A039961F31E0003909DED020BE4
:102C2000AAE78DED02AB9DED240B1AEE901A10EE83
:102C3000900A8DED000B61F31E0003909DED020BD9
:102C40009AE78DED028B9DED240B18EE901A10EE95
:102C5000900A8DED000B61F31E0003909DED020BB9
:102C60008AE709DA9DED240B51EC190B53EC102B7C
:102C7000FDF77AFC1EE020E09DED240B7CE7864208
:102C80001BDAB4F1804F0DD0A4F10050B0F1FF5029
:102C900013D1002D11DB9DED240B51EC100B01F035
:102CA0007BFD07E09DED240B53EC102B51EC100B3A
:102CB00000F0C2BC41EC100B5EE79DED240B51EC23
:102CC000100B00F0D1FEBAF1000FCDE90E0142D198
:102CD0009FED710B46B3A6F1E040B0F17F600CD0E0
:102CE0005E4538D1002D00DAA7B3022F0CBF0120BA
:102CF0004FF0FF30FDF7BEFCDCE7002D01DD002CBE
:102D00000DDA002D01DD002C1FDB002D16DA002C62
:102D100014DB012F08BF9FED620B3FF42DAFB0EE27
:102D20004A0AF0EE6A0A27E7022F18BF002D0CD0DE
:102D3000012F0AD1002DFFF61FAF06E0002DB8BF0E
:102D4000002C08DA012F3FF417AFB0EE480AF0EE7E
:102D5000680A11E71BE0012000EBE57050EA07016B
:102D600015D0791EB0EE498AF0EE698A084308BF93
:102D70009FED4D8B4E480025804570DD4D494E48F6
:102D8000884514DDB0420DDB002C19DB2FE001205B
:102D900000F066FD16B0BDEC0E8B04B0BDE8F04D42
:102DA00000F01EBDB34502DC002C09DC1FE08642AA
:102DB00002DA002C1BDA03E05E452BDD002C16DD69
:102DC000022000F04DFD00F01BFD8DED020B53ECD9
:102DD0001A2B51EC180BFDF755FBCDE900010399B7
:102DE000019861F31E0003909DED020BC4E60220E2
:102DF00000F036FD00F014FD10EE901A18EE900A67
:102E00008DED020B8DED008B61F31E0003909DEDA7
:102E1000020BB1E69DED0E0B53EC192B51EC100B90
:102E2000FDF72AFB9FED260BCDE9080153EC102B93
:102E30009DED080B51EC100BFDF724FB9FED221BC1
:102E400053EC112BFDF71BFB9DED081B53EC112BD5
:102E5000FDF718FB9FED1E1B53EC112B3CE08CE0A3
:102E6000FFFF1F00FFFF0F00000000000000F03F09
:102E70000000F03F0000F07F0000404301FCFFFF36
:102E8000000000000000F07F0000000000000000D3
:102E90003E34000000000000000000000000008040
:102EA000000000000000F0FF000000000000F0BF84
:102EB0000000E0410000F043FFFFEF3F0000000092
:102EC000000000000000D03F555555555555D53FE1
:102ED000000000000000E03FFDF7D1FA9DED080B77
:102EE00041EC1A0B53EC102B51EC100BFDF7CAFA06
:102EF00053EC1A2BFDF7C6FA41EC1A0B9FEDFE0BB3
:102F000053EC102B9DED080B51EC100BFDF7BAFAAA
:102F100041EC1B0B9FEDFA0B51EC1A0B53EC102BF1
:102F2000FDF7B0FA41EC1A0B9FEDF70B53EC102BA9
:102F30009DED080B51EC100BFDF7A4FA53EC1A2B86
:102F4000FDF79AFA41EC1A0B51EC1B0B53EC1A2BC0
:102F5000FDF7F1F90690CDE906519DED060B53EC16
:102F60001B2B51EC100BFDF787FA53EC1A2BFDF7D6
:102F700086FA41EC100B00F0A1B90020B6F5801FD5
:102F80000EDA9FEDE30B53EC102B9DED0E0B51EC85
:102F9000100BFDF777FACDE90E016FF034000E4605
:102FA00000EB2650A0F2FF37C6F31300DA4940F0D9
:102FB0007F6646F040568842D8BF002408DDD749D6
:102FC0008142C8BF012403DC0024A6F580167F1CC3
:102FD000D348784400EBC4000F9690ED00CB9DEDF4
:102FE0000E0B53EC1C2B51EC100BFDF745FA9DED2D
:102FF0000E0B41EC1B0B53EC1C2B51EC100BFDF793
:103000009AF941EC100B51EC190B53EC102BFDF716
:10301000ABFA41EC1D0B51EC1B0B53EC1D2BFDF7D8
:1030200031FA41EC1A0BBF488DED10AB7844109586
:1030300090ED000B4FF0005040EA660000EB84403A
:103040008DED080B00F5002009909DED080B53EC69
:103050001C2B51EC100BFDF70FFA9DED0E1B53ECE2
:10306000112BFDF70CFA41EC100B53EC102B9DEDDE
:10307000100B51EC100BFDF705FA9DED080B41EC20
:103080001C0B53EC102B9DED100B51EC100BFDF7AE
:10309000F9F953EC1B2BFDF7F2F953EC1C2BFDF760
:1030A000EBF953EC1D2BFDF7EDF941EC1C0B53EC48
:1030B0001A2B51EC1A0BFDF7E5F941EC1B0B9A4862
:1030C0000621B0EE4B0AF0EE6B0A784400F0E0FA0D
:1030D000B0EE401AF0EE601AB0EE41DAF0EE61DACE
:1030E00053EC1B2B51EC1B0BFDF7CCF953EC1D2BB8
:1030F000FDF7C8F99DED100B41EC1B0B53EC1A2B9F
:1031000051EC100BFDF717F953EC1C2BFDF7BAF936
:1031100053EC1B2BFDF70FF99DED100B41EC1B0B36
:1031200053EC102B51EC100BFDF7ACF941EC1D0BDF
:103130009FED7FEB53EC1E2BFDF7FDF853EC1B2BA3
:10314000FDF7F9F80890CDE908519DED080B53EC17
:103150001E2B51EC100BFDF78FF953EC1D2BFDF7D7
:103160008BF953EC1B2BFDF78AF99DED080B41EC15
:103170001D0B53EC102B9DED100B51EC100BFDF7BC
:1031800081F941EC1B0B53EC1A2B51EC1D0BFDF795
:1031900079F99DED080B41EC1A0B53EC102B51EC17
:1031A0001C0BFDF76FF953EC1A2BFDF7C4F841EC3B
:1031B0001A0B51EC1B0B53EC1A2BFDF7BCF80C90BF
:1031C000CDE90C519DED0C0B53EC1B2B51EC100B6E
:1031D000FDF752F953EC1A2BFDF751F941EC1B0B9B
:1031E0009FED550B53EC102B9DED0C0B51EC100B80
:1031F000FDF748F941EC1A0B9FED510B51EC1B0BFD
:1032000053EC102BFDF73EF941EC1B0B9FED4E0BE1
:1032100053EC102B9DED0C0B51EC100BFDF732F91C
:1032200053EC1B2BFDF787F841EC100B4848784412
:1032300000EBC40090ED001B51EC100B53EC112B74
:10324000FDF779F841EC1B0B3846FDF713FACDE991
:10325000080153EC1B2B51EC1A0BFDF76CF841ECF9
:10326000100B3C48784400EBC40090ED00CB51ECCF
:10327000100B53EC1C2BFDF75EF89DED081B53EC77
:10328000112BFDF758F80690CDE906519DED080B7E
:1032900053EC102B9DED060B51EC100BFDF7ECF8E9
:1032A00053EC1C2BFDF7E8F853EC1A2BFDF7E4F870
:1032B00053EC1B2BFDF7E3F841EC100B9DED261BA7
:1032C00053EC102B8DED001B00959DED260B51EC62
:1032D000100BFDF7D7F89DED000B41EC1A0B53ECEA
:1032E000102B9DED260B51EC100BFDF7C5F89DED55
:1032F000061B53EC112B2FE0000000604715F73F31
:10330000FE822B654715F73F44DF5DF80BAE543E58
:1033100000000000000040438E9803007AB60B00C6
:10332000222F0000E82F00005A2E000000000000AD
:103330000000000000000840000000E009C7EE3F68
:10334000FD033ADC09C7EE3FF5015B14E02F3EBEFA
:10335000E62C0000A02C0000FDF794F853EC1A2B8B
:10336000FCF7E9FF9DED060B41EC1A0B53EC102B1B
:103370009DED000B51EC100BFDF784F8CDE90C012D
:103380009DED0C0B51EC1A0B53EC102BFCF7D3FFFB
:10339000CDE902010C46AA498C422FDB611A084391
:1033A00018D19DED0C0B53EC102B9DED020B51EC45
:1033B000100BFDF761F841EC1B0B9FEDA30B51ECDB
:1033C0001A0B53EC102BFCF7B6FF53EC1B2BFDF73D
:1033D00063F92DD2022000F043FA00F011FA10EE4A
:1033E000901A18EE900A8DED020B8DED008B61F3B3
:1033F0001E0003909DED020BFFF7BEBB944A24F024
:103400000041914214D39349214408437FF4EFAC27
:103410009DED0C0B53EC102B9DED020B51EC100BA2
:10342000FDF72AF853EC1A2BFDF736F97FF6DFACDF
:1034300024F000408849894A002601EB205182424D
:103440002BDA481C4FF4801121FA00F02044844A02
:10345000C0F30A517A44A1F2FF3192ED000B814A88
:103460008DED080BCA4020EA0202C0F3130040F4BD
:103470008010C1F1140120FA01F60992002CB8BFA6
:1034800076429DED080B53EC102B9DED0C0B51EC8F
:10349000100BFCF7F1FFCDE90C019DED0C0B51EC8D
:1034A0001A0B53EC102BFCF746FF9FED6F0B0890A7
:1034B000CDE9085153EC102B9DED080B51EC100B8E
:1034C000FCF7E0FF41EC1B0B9FED690B53EC102B5D
:1034D0009DED080B51EC100BFCF7D4FF9DED0C0B90
:1034E00041EC1C0B53EC102B9DED080B51EC100B19
:1034F000FCF7C2FF53EC1A2BFCF7C1FF9FED5E1BDC
:1035000053EC112BFCF7BEFF53EC1C2BFCF713FF05
:1035100041EC1A0B51EC1B0B53EC1A2BFCF70BFF75
:10352000CDE902019DED020B53EC1B2B51EC100B6E
:10353000FCF7A2FF53EC1A2BFCF7A1FF9DED020B49
:1035400041EC1A0B53EC102B51EC100BFCF79AFFCB
:10355000CDE908014A489DED080B0521784400F0AB
:1035600097F89DED081B51EC100B53EC112BFCF759
:1035700089FF9DED021B53EC112BFCF780FFCDE979
:1035800006019DED020B53EC1A2B51EC100BFCF7CE
:1035900079FF53EC1A2BFCF7CEFE9FED3B0B41EC71
:1035A0001A0B53EC102B9DED060B51EC100BFCF796
:1035B00063FF9DED060B41EC1B0B53EC102B9DEDB7
:1035C000020B51EC100BFCF75DFF53EC1B2BFCF7CF
:1035D000CBFF53EC1A2BFCF74FFF9DED021B53EC76
:1035E000112BFCF749FF53EC192BFCF748FFCDE9F1
:1035F000020101EB065001150029C8BF039015DC3C
:103600009DED020B324651EC100BFDF71CF8FEF756
:103610009BFF042808BF00F003F932469DED020B22
:1036200051EC100BFDF70FF8CDE902019DED020BF7
:1036300051EC180B53EC102BFCF724FFFFF73ABBAF
:103640000000904000000000FE822B654715973C6B
:1036500000CC904000346F3F01FCFFFF0000E03FD2
:10366000C02B0000FFFF0F0000000000432EE63FCC
:10367000396CA80C615C20BEEF39FAFE422EE63FA1
:10368000F8290000000000000000000000000040D9
:1036900070B504462DED028B4D1E00EBC500B0EE5B
:1036A000408AF0EE608A90ED000B35F0060017D0EE
:1036B00053EC182B51EC100BFCF7E4FE41EC100B13
:1036C0006D1E04EBC50090ED001B51EC100B53EC8C
:1036D000112BFCF730FE41EC100B35F00600E7D162
:1036E000022D36D0042D1CD0062D1CBFBDEC028B44
:1036F00070BD53EC182B51EC100BFCF7C3FE94ED8E
:103700000A1B53EC112BFCF716FE53EC182BFCF79D
:10371000B9FE94ED081B53EC112BFCF70CFE41ECA9
:10372000100B53EC182B51EC100BFCF7ABFE94ED87
:10373000061B53EC112BFCF7FEFD53EC182BFCF78A
:10374000A1FE94ED040B53EC102BFCF7F4FD41ECBF
:10375000100B53EC182B51EC100BFCF793FE94ED6F
:10376000021B53EC112BFCF7E6FD53EC182BFCF776
:1037700089FE94ED001B53EC112BFCF7DCFDBDEC36
:10378000028B41EC100B70BD9FED070B10B553EC95
:10379000102B9FED070B51EC100BFCF7E5FE41ECF5
:1037A000100B10BD00000000000000000000000031
:1037B000000000000000F03F10B553EC102B51EC5E
:1037C000100BFCF7B8FD41EC100B10BD10B553EC1D
:1037D000112B51EC100BFCF7AEFD41EC100B10BDA2
:1037E0009FED050B10B553EC102B51EC100BFCF7B3
:1037F000BBFE41EC100B10BD0000000000000000FB
:103800009FED050B10B553EC102B51EC100BFCF792
:1038100039FE41EC100B10BD0000000000000070EC
:103820009FED050B10B553EC102B51EC100BFCF772
:1038300029FE41EC100B10BD00000000000000103C
:1038400002E008C8121F08C1002AFAD17047704769
:10385000002001E001C1121F002AFBD170470000C7
:103860000149086070470000C80000202DE9FF4FA3
:103870008BB09A460F460546002606E025280BD059
:1038800052460D9990476D1C761C28780028F5D17A
:103890000FB03046BDE8F08F0024A04601226049F9
:1038A00000E0044315F8013F203B02FA03F0084210
:1038B000F7D128782E2817D115F8010F44F0040409
:1038C0002A280ED06FF02F022878A0F130010929A4
:1038D0000AD808EB880102EB410100EB01086D1CDE
:1038E000F2E757F8048B6D1C287869283ED006DC77
:1038F0000028CDD063280BD0642804D136E073288B
:1039000010D075284BD052460D999047761C85E013
:1039100017F8040B8DF8000000208DF80100E9462F
:10392000012003E057F8049B4FF0FF3061074FF090
:10393000000401D40AE0641C44450DDA8442FADB39
:1039400019F804100029F6D106E0641C8442FCDB5F
:1039500019F804100029F8D1264404E019F8010BE5
:1039600052460D999047641EF8D257E001CF4FF0B0
:103970000A0B002802DA40422D2102E0210504D57D
:103980002B218DF82410012103E0E10705D020212F
:10399000F7E70DF1200908910CE00021F9E701CFCC
:1039A0004FF00A0BF9E75946FCF7AFFC01F1300282
:1039B00009F8012D0028F6D1ADEB090000F1200B2C
:1039C000600701D44FF00108D84502DDA8EB0B00D9
:1039D00000E000208046002406E009A85246005D71
:1039E0000D999047641C761C08988442F5DB04E02E
:1039F000302052460D999047761CB8F10001A8F18D
:103A00000108F5DC05E019F8010B52460D999047C5
:103A1000761CBBF10001ABF1010BF4DC6D1C34E74B
:103A200009280100B5EEC00AF1EE10FA00DB00BF74
:103A3000B5EEC00AF1EE10FA03D2F1EE400AB0EE94
:103A4000600A704710B541EC100BFEF795FD51EC84
:103A5000100B10BD10B541EC100B43EC112BFEF711
:103A6000F7FE51EC100B10BD82B0CDE9000121F042
:103A7000004001909DED000B02B051EC100B70471F
:103A800070B504460D46E1B206480068FEF722FD17
:103A900000BF802103480068FEF756FC0028F8D0DC
:103AA000204670BD280000201CB5074801210023D6
:103AB0004A02CDE9001005A1074801F03DFF01F0E1
:103AC0007FFA00201CBD0000000000205461736BD1
:103AD00053746172740000000D21000810B541ECB0
:103AE000100B43EC112BFEF7ABFF51EC100B10BD8C
:103AF0002DE9F04105460E461C4807681C48006841
:103B0000001D00F080FE50B91948006890F82C1094
:103B10000120884017490968814316480160681CE4
:103B200038B936B112480168091D134800F0A9FEE2
:103B30001AE07C190E4800684460BC4207D20C4869
:103B40000168091D0D48006800F081FE0CE008487E
:103B50000168091D0A48006800F079FE09480068FC
:103B6000844201D207480460BDE8F0814000002093
:103B70002C00002044000020040700203400002016
:103B8000300000205C00002010B5044600F086FEE6
:103B900024480068401C234908602348006840B955
:103BA000214804600846006801280DD100F0F0F9B2
:103BB0000AE01E48006838B91B480068C06AE16A1C
:103BC000884201D81848046019480068401C184908
:103BD000086008460068606494F82C100120884052
:103BE00014490968084313490860E16A01EB81013F
:103BF000114A02EB8100211D00F043FE00F094FE0B
:103C00000A48006868B108480068C06AE16A8842EA
:103C100007D24FF0805009490860BFF34F8FBFF3C0
:103C20006F8F10BD3C0000202C00002048000020B9
:103C300058000020440000203404002004ED00E07F
:103C400010B500F02BFE10480068D0B90F4800F006
:103C5000EEFD0F4800F0EBFD0C480E4908600C48E3
:103C60000D49086000221021052001F029FB0649BA
:103C700008600846006820B108A10348006800F009
:103C80004DFF00F051FE10BD70000020180700200D
:103C90002C070020680000206C000020546D725139
:103CA0000000000070B523E001F0E2F9134800685D
:103CB00008B9012000E00020054601F0FFFFBDB972
:103CC00000F0ECFD0D48C068C468201D00F09BFDAD
:103CD0000B480068401E0A4908600A480068401EF8
:103CE0000849086000F020FE204600F060F800BFA0
:103CF000044800680028D7D170BD0000F0060020FD
:103D00003C0000203800002070B504460D46206CB1
:103D100070B1216CE0680844E0606168E068884246
:103D200001D32068E0602846226CE168FCF7B6FA0F
:103D300070BD2DE9F04104460F4615464FF00008CE
:103D4000A66B206C40B9206860BB606801F0ECFE97
:103D500080460020606025E07DB93946226CA0686D
:103D6000FCF79CFA216CA0680844A060D4E901101B
:103D7000884217D32068A06014E03946226CE068BE
:103D8000FCF78CFA216CE068401AE0602168E0687A
:103D9000884203D2216C6068401AE060022D01D194
:103DA00006B1761E701CA0634046BDE8F08110B5D8
:103DB0000446206B00F0F2FD204600F0EFFD10BD40
:103DC0000146084A126812680AB9012200E000227E
:103DD0000A600A6822B9034A1268D268106800E0D3
:103DE000002070476800002030B54FF43843174872
:103DF00000F007042CB1C01D20F00700134C041B79
:103E00001B1B0246124C22600024114D6C60D0181E
:103E1000083820F007000F4C206000240D4D2D685D
:103E20006C600C4D2D682C601146441A4C60094C96
:103E300024680C60084D4C682C60084D4C682C6060
:103E40004FF00044064D2C6030BD000040070020BC
:103E50007C000020840000208C00002088000020CE
:103E60009000002000BFFFF71DFF064800680128F2
:103E7000F9D94FF0805004490860BFF34F8FBFF36A
:103E80006F8FF0E73404002004ED00E02DE9F041ED
:103E900006460D4617469846069C0DB9246000E07C
:103EA0002760E66325640121204601F02BFB84F89E
:103EB00050800020A064BDE8F08100002DE9F05F93
:103EC00082460F4690469B460A9E0C9C4FEA88010C
:103ED000A522206BFCF7F4F9A8F10100216B01EB9E
:103EE000800929F0070909F0070008B9012000E05E
:103EF000002028B940F22B321BA121A0FEF714FBB1
:103F0000002507E0795D04F134004155785D00B982
:103F100002E06D1C102DF5D300BF00214320015598
:103F2000202E00D31F26E662E66400202065201DB7
:103F300000F08AFC04F1180000F086FC2461C6F150
:103F40002000A06164620020606584F858005A4631
:103F50005146484600F00AFC20600B9808B10B98C7
:103F60000460BDE8F09F00002E2E5C2E2E5C467291
:103F7000656552544F535C7461736B732E6300001C
:103F80004572726F723A25732C25640D0A00000089
:103F900010B5002407E004EB84010F4A02EB810016
:103FA00000F045FC641C202CF5D30C4800F03FFCCD
:103FB0000B4800F03CFC0B4800F039FC0A4800F0CC
:103FC00036FC0A4800F033FC0448094908600448FC
:103FD0000849086010BD000034040020B406002029
:103FE000C8060020DC060020F006002004070020A0
:103FF000300000203400002010B50146164800E0D3
:10400000006803688B42FBD30246436813448B422B
:1040100004D143684C682344436001460A464B6818
:1040200013440468A34211D10C4C03682468A342D2
:1040300008D04B680468646823444B6003681B68BD
:104040000B6005E0054B1B680B6001E003680B602B
:10405000884200D0016010BD7C0000208400002058
:104060002DE9F04104460D4616461F464FF0000864
:1040700065602461B5420CD8F01BA169884202D367
:104080004FF0010811E0211D0948006800F0DFFB36
:104090000BE0BE4204D2BD4202D34FF0010804E05F
:1040A000211D0448006800F0D2FB4046BDE8F081C5
:1040B0006C0000206800002070B5054600F0EEFBA3
:1040C000A86B08B9012400E0002400F02DFC204674
:1040D00070BD70B5054600F0E1FBA86BE96B884246
:1040E00001D1012400E0002400F01EFC204670BD38
:1040F0002DE9F3410D460098846C00272CB940F659
:10410000CE121AA11FA0FEF70FFAA06BE16B884236
:1041100001D2012000E0002028B940F6CF1213A1FF
:1041200018A0FEF701FAA06BE16B88421BD294F94C
:1041300045602A4669462046FFF7FBFD0746701C8E
:1041400060B9606A08B9012000E0002050B904F1AC
:10415000240001F057FD28B1012703E0701C40B294
:1041600084F8450000BF3846BDE8FC812E2E5C2E49
:104170002E5C4672656552544F535C71756575656A
:104180002E6300004572726F723A25732C25640D00
:104190000A000000F8B505460F4613480068C068DD
:1041A000C468201D00F02FFBE069012818D1A06928
:1041B00041192B463A462046FFF752FF80B10020B6
:1041C00003462A4601460090204601F043FE06467B
:1041D0002EB94FF4027205A10AA0FEF7A5F900BF9F
:1041E0002046616A8847F8BD680000202E2E5C2EAC
:1041F0002E5C4672656552544F535C74696D6572EE
:10420000732E63004572726F723A25732C25640D0C
:104210000A000000F0B587B070E0039800280CDABF
:1042200004AE2EB940F2E7223AA140A0FEF77CF995
:10423000D6E90020B168904700BF039800285DDBF5
:10424000059C606908B9012000E0002010B9201D1C
:1042500000F0D9FA02A800F0C7F8054603980A282A
:104260004AD2DFE800F00905072C2E4506082D2F5D
:1042700000BF00BF00BF00BF0498A26981180346B9
:104280002A462046FFF7ECFEC0B12046616A884707
:10429000E069012812D1002000900498A169421819
:1042A00000231946204601F0D5FD07462FB940F2FC
:1042B000213218A11DA0FEF737F900BF1DE000BF95
:1042C0001BE000BF0498A061A06908B1012000E0D4
:1042D000002028B94FF44E720EA114A0FEF724F965
:1042E000A06941192B462A462046FFF7B9FE04E093
:1042F000204600F053FB00E000BF00BF00231A4639
:1043000003A90E48006801F017F8002885D107B00E
:10431000F0BD00002E2E5C2E2E5C46726565525458
:104320004F535C74696D6572732E63004572726FD2
:10433000723A25732C25640D0A00000070000020DD
:10434000F8B505460C4600F093FE684600F04CF8C0
:104350000646009820BB44B9B54206D801F0AEFC31
:1043600031462846FFF716FF1CE03CB10E480068B6
:10437000006808B9012000E000200446A91B22467D
:104380000A48006800F0E0FB01F098FC50B94FF0DB
:10439000805007490860BFF34F8FBFF36F8F01E074
:1043A00001F08CFCF8BD00006C00002070000020C3
:1043B00004ED00E00A490968096809B9012100E033
:1043C000002121B14FF0FF31064A116006E0044997
:1043D0000968C968C868034A4168116070470000ED
:1043E000300000205C00002070B5044601F0E4FAC3
:1043F000054607480068854204D200F00BF801200A
:10440000206001E00020206001480560284670BD62
:10441000780000202DE9F8432DE021480068C068AD
:1044200005681F480068C068C468201D00F0EBF9EB
:104430002046616A8847E06901281CD1A0694619B5
:10444000AE4207D966602461211D1548006800F05E
:10445000FEF910E0002003462A460146009020465F
:1044600001F0F8FC07462FB940F292320DA113A0DB
:10447000FEF75AF800BF0A480068006808B9012032
:1044800000E000200028C8D00548D0F800800F4880
:104490000068034908600D48C0F80080BDE8F88353
:1044A000680000202E2E5C2E2E5C467265655254EC
:1044B0004F535C74696D6572732E63004572726F41
:1044C000723A25732C25640D0A0000006C00002050
:1044D0000C480068401C08B9012000E0002028B901
:1044E00040F20F1208A114A0FEF71EF800BF5020E2
:1044F00080F31188BFF34F8FBFF36F8F00BF00BFF2
:10450000FEE70000940000202E2E5C2E2E5C4672EA
:10451000656552544F535C706F727461626C655C78
:10452000525644535C41524D5F434D34465C706F6C
:1045300072742E63000000004572726F723A257328
:104540002C25640D0A00000008B500BF6846FFF77F
:1045500037FC044620460099FFF7F2FEFFF75AFEAB
:10456000F4E770B5044600F099F994F945501AE063
:10457000A06C38B100212046FFF7BAFD88B100F0E9
:104580003DFC0EE0606A08B9012000E0002038B967
:1045900004F1240001F036FB18B100F02FFC00E01C
:1045A00003E0681E45B2002DE2DC00BFFF2084F866
:1045B000450000F0B9F900F071F994F9445010E0A9
:1045C000206908B9012000E0002048B904F110007A
:1045D00001F018FB08B100F011FC681E45B200E0C4
:1045E00001E0002DECDC00BFFF2084F8440000F067
:1045F0009BF970BD2DE9F04104464FF0000800F032
:1046000037FD3E48006808B9FFF7EEFB3C480068FC
:10461000204000285FD1A4B1083404F0070080B125
:1046200004F00700C0F10800044404F0070008B9D2
:10463000012000E0002020B9BF2232A13CA0FDF7FC
:1046400073FF002C47D03E480068844243D83D4E5B
:104650003046056801E02E462D686868A04202D207
:1046600028680028F7D125480068854233D0306893
:1046700000F10808286830606868001B102813D90A
:104680002F1907F0070008B9012000E0002020B929
:10469000EC221CA126A0FDF747FF6868001B78608C
:1046A0006C603846FFF7A8FC254968680968081A55
:1046B000234908600846006823490968884203D2F4
:1046C0001F480068204908600D4968680968084368
:1046D00068600020286001F0F1FA08F0070008B9CE
:1046E000012000E0002028B94FF4967205A110A027
:1046F000FDF71AFF4046BDE8F0810000840000206D
:10470000900000202E2E5C2E2E5C46726565525461
:104710004F535C706F727461626C655C4D656D4D7A
:10472000616E675C686561705F342E630000000035
:104730004572726F723A25732C25640D0A000000D1
:10474000880000207C0000208C00002006480068C3
:1047500030B10549096801F15000096D491C01603B
:1047600001480068704700002C000020001F4FF037
:1047700080730360001F21F001030360001F054BDD
:10478000036014380260001F6FF0020303602038DA
:1047900070470000D144000800B52DED048B83B0B4
:1047A00041EC190BFCF730F841EC180B18EE100A2D
:1047B00018EE901A8DED008B002818BF01200843D9
:1047C00020F00040C0F17F6000F1E040C00F14D045
:1047D00019EE101A19EE900A8DED009B002918BFF2
:1047E0000121084320F00040C0F17F6000F1E0406B
:1047F000C00F04BF0120FFF733F851EC180B03B0D2
:10480000BDEC048B00BD01460A69D1E90130986016
:10481000D1E9010358605068884201D1886850602E
:10482000002008611068401E10601068704700F199
:10483000080141604FF0FF31816000F10801C16063
:10484000016100210160704700210161704710B5CE
:1048500002460B685C1C0CB9106907E002F1080005
:1048600000E04068446824689C42FAD944684C607F
:104870004C68A160886041600A611468641C14601F
:1048800010BD42684A6093688B609368596091607C
:10489000086103685B1C03607047000010B500BF2F
:1048A000502080F31188BFF34F8FBFF36F8F00BF8D
:1048B0000B480068401C0A49086008460068012847
:1048C0000DD108480068C0B208B9012000E00020FE
:1048D00028B940F2B91204A10FA0FDF725FE10BDC2
:1048E0009400002004ED00E02E2E5C2E2E5C46721B
:1048F000656552544F535C706F727461626C655C95
:10490000525644535C41524D5F434D34465C706F88
:1049100072742E63000000004572726F723A257344
:104920002C25640D0A00000010B50B48006828B95A
:104930004FF4E07209A115A0FDF7F6FD06480068E6
:10494000401E054908600846006820B9002080F331
:10495000118800BF00BF10BD940000202E2E5C2ED9
:104960002E5C4672656552544F535C706F72746171
:10497000626C655C525644535C41524D5F434D340A
:10498000465C706F72742E63000000004572726F97
:10499000723A25732C25640D0A00000070B5064696
:1049A0003546002E35D0083D2C461A496068096806
:1049B000084008B1012000E0002028B94FF4A0729F
:1049C00015A120A0FDF7B0FD206808B9012000E086
:1049D000002028B940F241120FA11AA0FDF7A4FD52
:1049E0000C4960680968084098B1206888B909498D
:1049F000606809688843606000F03AFB15496068A8
:104A000009680844134908602046FFF7F5FA01F0E9
:104A100055F970BD900000202E2E5C2E2E5C467243
:104A2000656552544F535C706F727461626C655C63
:104A30004D656D4D616E675C686561705F342E63B6
:104A4000000000004572726F723A25732C25640DC8
:104A50000A00000088000020064800684FF47A71C0
:104A6000B0FBF1F0401E4FF0E021486107200861E3
:104A700070470000B000002070B5FBF7F9FB054659
:104A8000102D11D305F1E02090F8F0431048007884
:104A9000844201DB012000E0002028B94FF440727D
:104AA0000CA118A0FDF740FD1A48006800F4E06072
:104AB00019490968884201D8012000E0002028B97E
:104AC0004FF4447203A10FA0FDF72EFD70BD00004E
:104AD000980000202E2E5C2E2E5C46726565525486
:104AE0004F535C706F727461626C655C52564453D4
:104AF0005C41524D5F434D34465C706F72742E635F
:104B0000000000004572726F723A25732C25640D07
:104B10000A0000000CED00E09C000020024600208E
:104B20000BE0084B53F8303033B9064B43F83010E4
:104B300003EBC0035A6002E0401C0828F1D300BF19
:104B400070470000F40300202DE9F04105460E46B1
:104B500017462C46FFF7A2FE94F94400401C10B9FA
:104B6000002084F8440094F94500401C10B900204E
:104B700084F84500FFF7D8FEA06B28B93A463146C5
:104B800004F1240000F06CF92046FFF7EAFCBDE8D0
:104B9000F081000070B504460025ACB10F480068F4
:104BA00008B9012000E0002028B940F2CF420CA152
:104BB00011A0FDF7B9FC00F05BFA00212046FEF7DA
:104BC00097FF01F07BF805463DB94FF080500E4944
:104BD0000860BFF34F8FBFF36F8F70BD640000207C
:104BE0002E2E5C2E2E5C4672656552544F535C74BB
:104BF00061736B732E6300004572726F723A257396
:104C00002C25640D0A00000004ED00E02DE9F047BA
:104C100004460F464FF000092CB940F2794226A114
:104C20002BA0FDF781FC0FB1012000E0002028B986
:104C300040F27A4220A126A0FDF776FC28480068C1
:104C400008B9012000E0002028B940F27B421AA1F7
:104C50001FA0FDF769FC00F00BFA224806682068E7
:104C6000C5192068B04207D92068A8420BD9B542BF
:104C700009D94FF0010906E02068A84201D8B542E1
:104C800001D94FF001092560B9F1000F03D0A81B2D
:104C90000021FEF72DFF01F011F88046B8F1000F5A
:104CA00007D14FF0805010490860BFF34F8FBFF31A
:104CB0006F8FBDE8F08700002E2E5C2E2E5C4672B2
:104CC000656552544F535C7461736B732E630000BF
:104CD0004572726F723A25732C25640D0A0000002C
:104CE000640000204000002004ED00E070B505469F
:104CF000FFF7D4FD15B92D48006800E028460446AA
:104D0000201DFFF780FD78B9E06A00EB800028499C
:104D100051F8200040B994F82C1001208840254912
:104D20000968814323480160A06A18B104F11800A2
:104D3000FFF769FD20480068401C1F4908601B48B8
:104D40000068844209D1211D1C48FFF79AFD1C48C8
:104D50000068401C1A49086009E01A480068401EB3
:104D6000184908602046FFF722F8FFF723FBFFF7FA
:104D7000DBFD15480068C0B10C480068844214D1BE
:104D80001248006808B9012000E0002028B940F26C
:104D900065420FA114A0FDF7C7FB4FF080501649E4
:104DA0000860BFF34F8FBFF36F8F70BD2C000020E2
:104DB000340400204400002058000020F0060020A9
:104DC000380000203C000020480000206400002043
:104DD0002E2E5C2E2E5C4672656552544F535C74C9
:104DE00061736B732E6300004572726F723A2573A4
:104DF0002C25640D0A00000004ED00E001200149AB
:104E0000086070475000002070B504460D462CB96C
:104E100040F6063207A10DA0FDF786FB0F4801689A
:104E200018312046FFF713FD01212846FEF760FEEA
:104E300070BD00002E2E5C2E2E5C467265655254AD
:104E40004F535C7461736B732E6300004572726F15
:104E5000723A25732C25640D0A0000002C000020F6
:104E600070B505460E4614462DB940F6313209A1FB
:104E70000EA0FDF759FB1148016818312846FFF7CD
:104E800000FD0CB14FF0FF3621463046FEF730FEF4
:104E900070BD00002E2E5C2E2E5C4672656552544D
:104EA0004F535C7461736B732E6300004572726FB5
:104EB000723A25732C25640D0A0000002C00002096
:104EC00070B505462C46002D4BD02649E06A09688E
:104ED000C96A884245D2A06900F0004028B921483B
:104EE0000068C06AC0F12000A061E16A01EB8101A5
:104EF0001D4A02EB81016069884201D1012000E076
:104F0000002050B3201DFFF77EFC78B9E06A00EB6B
:104F10008000154951F8200040B994F82C10012068
:104F20008840124909688143104801600D480068B3
:104F3000C06AE06294F82C10012088400B4909688F
:104F400008430A490860E16A01EB8101064A02EB65
:104F50008100211DFFF795FC03E002480068C06A4C
:104F6000E06270BD2C0000203404002044000020CA
:104F700010B504462CB940F6C13205A10AA0FDF7D0
:104F8000D3FA0D48006820600C480068606010BDCE
:104F90002E2E5C2E2E5C4672656552544F535C7407
:104FA00061736B732E6300004572726F723A2573E2
:104FB0002C25640D0A000000540000204000002051
:104FC0001CB51A4800210B468222CDE9001018A119
:104FD000194800F0B1FC0446012C02D100F000FF9A
:104FE0000446012C15D100BF502080F31188BFF377
:104FF0004F8FBFF36F8F00BF4FF0FF300F49086036
:1050000001200F49086000200E49086000F08EF86A
:105010000BE0601C08B1012000E0002028B940F23C
:10502000847209A10EA0FDF77FFA1CBD600000206C
:1050300049444C4500000000653E00085C0000202B
:1050400048000020400000202E2E5C2E2E5C467270
:10505000656552544F535C7461736B732E6300002B
:105060004572726F723A25732C25640D0A00000098
:1050700002480068401C0149086070476400002035
:1050800010B51B48006818B101201A4908602DE0CE
:1050900000201849086018480068B0FA80F0C0F194
:1050A0001F0404EB8400154951F8200008B10120C9
:1050B00000E0002028B940F6F62211A116A0FDF765
:1050C00033FA04EB84010D4A02EB81004168496820
:1050D000416000F1080142688A4202D14168496892
:1050E00041604168C968104A116000BF10BD0000EE
:1050F0006400002050000020440000203404002000
:105100002E2E5C2E2E5C4672656552544F535C7495
:1051100061736B732E6300004572726F723A257370
:105120002C25640D0A0000002C0000201CB540480E
:1051300000684049884201D0012000E0002028B9E1
:1051400040F259123CA148A0FDF7EEF9384800683A
:105150003849491E884201D0012000E0002028B9CA
:105160004FF4AD7234A140A0FDF7DEF9424C204669
:1051700000780190FF2021460870084600780090D2
:105180009DF8000000F0F0009DF80010884201D169
:10519000012000E0002028B940F2731226A132A0BD
:1051A000FDF7C2F99DF8000000F050003349087087
:1051B00007203349086009E031480068401E304943
:1051C00008609DF800004006000E00909DF8000069
:1051D00000F080008028EFD02948006800022849AC
:1051E00008600846008800F4E060086022490198E1
:1051F00008700F482030006840F470000C492031DE
:1052000008600846006840F070400860FFF724FC22
:1052100000201C490860FAF7F3FF1B48006840F0C3
:10522000404019490860FAF7DBFF00201CBD000070
:1052300000ED00E071C20F412E2E5C2E2E5C4672F6
:10524000656552544F535C706F727461626C655C3B
:10525000525644535C41524D5F434D34465C706F2F
:1052600072742E63000000004572726F723A2573EB
:105270002C25640D0A00000000E400E098000020E6
:105280009C0000209400002034EF00E010B500BF27
:10529000502080F31188BFF34F8FBFF36F8F00BF93
:1052A00000F090FB18B14FF080500449086000BF37
:1052B000002080F3118800BF10BD000004ED00E065
:1052C0002DE9F84305460E4690460DB1012000E059
:1052D000002028B94FF4C4720DA113A0FDF724F9E2
:1052E0000EB9002701E005FB06F707F15400FFF7B0
:1052F00081F9044644B104F1540943464A46314613
:1053000028460094FEF7C2FD2046BDE8F883000061
:105310002E2E5C2E2E5C4672656552544F535C7186
:10532000756575652E6300004572726F723A25735C
:105330002C25640D0A0000002DE9FF4782B00546C8
:105340000E461F464FF0000A2C462CB940F2DC42B4
:1053500061A167A0FDF7E8F80EB9206C08B901203B
:1053600000E0002028B940F2DD425BA160A0FDF71B
:10537000DBF800F011FB08B9049808B9012000E03F
:10538000002028B94FF49C6253A159A0FDF7CCF836
:1053900000BFFFF783FAD4F83890B9F1000F3DD081
:1053A000D4F80C8031462046FEF7AEFCDFB9A9F1F7
:1053B0000100A063206810B9FFF7C8F96060206998
:1053C00008B9012000E0002010BB04F1100000F03B
:1053D00019FCE8B14FF0805049490860BFF34F8F86
:1053E000BFF36F8F14E0C4F80C80606A08B9012025
:1053F00000E0002060B904F1240000F003FC38B1A3
:105400004FF080503E490860BFF34F8FBFF36F8F5E
:10541000FFF78AFA012006B0BDE8F087049818B9B2
:10542000FFF782FA0020F6E7BAF1000F04D16846D0
:10543000FFF79EFD4FF0010AFFF776FAFFF718FE1F
:10544000FFF72CFA94F94400401C10B9002084F8AE
:10545000440094F94500401C10B9002084F8450030
:10546000FFF762FA04A9684600F014FA40BB204630
:10547000FEF722FEF0B1206830B9FFF70FFA60683E
:10548000FFF71EFDFFF750FA04F124000499FFF71F
:10549000BBFC2046FFF765F800F010FC00287FF405
:1054A00078AF4FF0805016490860BFF34F8FBFF3BD
:1054B0006F8F6EE72046FFF754F800F0FFFB68E7B8
:1054C0002046FFF74EF800F0F9FB2046FEF7F4FD0A
:1054D0000028EED000209EE72E2E5C2E2E5C467219
:1054E000656552544F535C71756575652E63000098
:1054F0004572726F723A25732C25640D0A00000004
:1055000004ED00E070B505460E462C462CB940F27D
:105510001B121EA123A0FDF707F8FFF7BFF9D4E97E
:105520000F12206801FB020060600020A063206869
:10553000A060E06B401E226C216800FB0210E0605E
:10554000FF2084F8440084F845009EB9206908B91A
:10555000012000E00020A8B904F1100000F052FB87
:1055600080B14FF0805013490860BFF34F8FBFF3F5
:105570006F8F07E004F11000FFF759F904F12400E0
:10558000FFF755F9FFF7D0F9012070BD2E2E5C2EE4
:105590002E5C4672656552544F535C717565756536
:1055A0002E6300004572726F723A25732C25640DCC
:1055B0000A00000004ED00E02DE9FF4383B0064639
:1055C00088461D464FF0000934462CB940F2D922D6
:1055D00060A166A0FCF7A8FFB8F1000F01D1206C14
:1055E00008B9012000E0002028B940F2DA2259A1D0
:1055F0005EA0FCF799FF022D02D1E06B012801D1DA
:10560000012000E0002028B940F2DB2251A157A080
:10561000FCF78AFF00F0C0F908B9059808B9012025
:1056200000E0002028B940F2DE224AA14FA0FCF79A
:105630007BFF00BFFFF732F9A06BE16B884201D31B
:10564000022D38D12A4641462046FEF772FB074616
:10565000A06C68B129462046FEF74AFD28B34FF0FA
:10566000805046490860BFF34F8FBFF36F8F1CE037
:10567000606A08B9012000E0002068B904F1240044
:1056800000F0C0FA88B14FF080503C490860BFF389
:105690004F8FBFF36F8F08E03FB14FF08050374915
:1056A0000860BFF34F8FBFF36F8FFFF73DF9012005
:1056B00007B0BDE8F083059818B9FFF735F9002069
:1056C000F6E7B9F1000F04D101A8FFF751FC4FF044
:1056D0000109FFF729F9FFF7CBFCFFF7DFF894F991
:1056E0004400401C10B9002084F8440094F945009F
:1056F000401C10B9002084F84500FFF715F905A9F2
:1057000001A800F0C7F8F0B92046FEF7E2FCA0B10E
:1057100004F110000599FFF777FB2046FEF721FF03
:1057200000F0CCFA002885D14FF080501349086072
:10573000BFF34F8FBFF36F8F7CE72046FEF711FF5B
:1057400000F0BCFA76E72046FEF70BFF00F0B6FA51
:105750000020ADE72E2E5C2E2E5C467265655254FD
:105760004F535C71756575652E6300004572726FED
:10577000723A25732C25640D0A00000004ED00E048
:105780002DE9F05F80468A4615461E4644462CB9F0
:1057900040F29F3235A13BA0FCF7C6FEBAF1000FE4
:1057A00001D1206C08B9012000E0002028B94FF495
:1057B00068722EA133A0FCF7B7FE022E02D1E06B77
:1057C000012801D1012000E0002028B940F2A132D7
:1057D00026A12CA0FCF7A8FEFFF74EF900BF502130
:1057E000EFF3118081F31188BFF34F8FBFF36F8FF9
:1057F00000BF0746A06BE16B884201D3022E2BD17C
:1058000094F945B0324651462046FEF792FA0BF124
:105810000100C8B9A06C40B131462046FEF768FCD3
:10582000B8B1B5B10120286013E0606A08B9012061
:1058300000E0002068B904F1240000F0E3F940B171
:105840003DB10120286004E00BF1010040B284F872
:1058500045004FF0010901E04FF0000900BF87F358
:10586000118800BF4846BDE8F09F00002E2E5C2E38
:105870002E5C4672656552544F535C717565756553
:105880002E6300004572726F723A25732C25640DE9
:105890000A0000002DE9F04104460D462CB940F6FF
:1058A000CB3219A11EA0FCF73FFE2DB940F6CC3239
:1058B00015A11BA0FCF738FEFEF7F0FF1C48076897
:1058C0002868401C08B9002619E01A4920680968B0
:1058D000884204D06068B84201D801260FE06068B1
:1058E000381A2968884209D228686168791A401AEA
:1058F00028602046FFF73CFB002600E00126FFF76A
:1059000013F83046BDE8F0812E2E5C2E2E5C4672D8
:10591000656552544F535C7461736B732E63000062
:105920004572726F723A25732C25640D0A000000CF
:1059300040000020540000202DE9FF4F85B0804634
:1059400089461746DDE912ABB800FEF753FE06465E
:1059500056B15C20FEF74EFE04460CB1266304E00F
:105960003046FFF71BF800E000247CB10020CDE9B1
:1059700000ABCDE902403A4649464046089BFEF757
:105980009DFA2046FEF700F9012501E04FF0FF35B2
:10599000284609B0BDE8F08F0549096809B901201A
:1059A00005E00449096809B9022000E000207047B9
:1059B000480000206400002001490868704700008A
:1059C000400000202DE9F0414FF0000841480068F8
:1059D000002872D140480068451C3F480560EDB979
:1059E0003E480068006808B9012000E0002028B99E
:1059F00040F6D9123AA140A0FCF796FD3748076857
:105A000041480068354908603F4807603F480068E2
:105A1000401C3E490860FEF7CDFC00BF3C480068D2
:105A200085423CD300BF2D480068006808B90120BA
:105A300000E0002020B14FF0FF30354908602DE034
:105A400026480068C068C4686668B54202D230481B
:105A5000066023E0201DFEF7D6FEA06A18B104F10F
:105A60001800FEF7D0FE94F82C1001208840294938
:105A70000968084327490860E16A01EB8101264A69
:105A800002EB8100211DFEF7FCFE2449E06A096853
:105A9000C96A8842C7D34FF00108C4E700BF1F4856
:105AA0000068C06A00EB80001B4951F82000012803
:105AB00001D94FF0010805E0FFE719480068401CD4
:105AC000174908601748006808B14FF001084046C0
:105AD000BDE8F0816400002040000020300000207C
