:020000040800F2
:1000000000040020C10100081902000811020008C4
:100010001502000809020008B303000800000000F0
:100020000000000000000000000000001D020008A9
:100030000F020008000000001B0200084103000836
:10004000DB010008DB010008DB010008DB01000820
:10005000DB010008DB010008DB010008DB01000810
:10006000DB010008DB010008DB010008DB01000800
:10007000DB010008DB010008DB010008DB010008F0
:10008000DB010008DB010008DB010008DB010008E0
:100090000D020008DB010008DB010008DB0100089D
:1000A000DB010008DB010008DB010008DB010008C0
:1000B000DB010008DB010008DB010008DB010008B0
:1000C000DB010008DB010008DB010008DB010008A0
:1000D000DB010008AF030008B1030008DB010008E2
:1000E000DB010008DB010008DB010008DB01000880
:1000F000DB010008DB010008DB010008DB01000870
:10010000DB010008DB010008DB010008DB0100085F
:10011000DB010008DB010008AD030008DB0100087B
:10012000DB010008DB010008DB010008DB0100083F
:10013000DB010008DB010008DB010008DB0100082F
:10014000DB010008DB010008DB010008DB0100081F
:10015000DB010008DB010008DB010008DB0100080F
:10016000DB010008DB010008DB010008DB010008FF
:10017000DB010008DB010008DB010008DB010008EF
:10018000DB010008DB010008DB010008DB010008DF
:10019000DB010008DB010008DB010008DB010008CF
:1001A0000000000000000000DB010008DFF80CD0B8
:1001B00000F018F800480047D503000800040020AC
:1001C0000648804706480047FEE7FEE7FEE7FEE7F1
:1001D000FEE7FEE7FEE7FEE7FEE7FEE74503000871
:1001E000AD010008064C074D06E0E06840F0010351
:1001F00094E8070098471034AC42F6D3FFF7DAFFD3
:10020000D8030008E803000800BFFEE77047704706
:1002100000BFFEE700BFFEE7704770477047000071
:100220000CB50020019000904148006840F48030F7
:100230003F49086000BF3E48006800F4003000906D
:100240000198401C0190009818B90198B0F5A04F92
:10025000F1D13748006800F4003010B1012000905F
:1002600001E0002000900098012860D13048403023
:10027000006840F080502E49403108602D480068E9
:1002800040F440402B49086029480830006828495C
:10029000083108600846006840F4004008600846DD
:1002A000006840F4A05008602348091F0860081F38
:1002B000006840F08070091F086000BF1C4800689B
:1002C00000F000700028F9D01A48006840F480302F
:1002D0001849086000BF1748406800F480300028C3
:1002E000F9D01448006840F400301249086000BF9B
:1002F0001048406800F400300028F9D040F2057042
:100300000E4908600A480830006820F003000849D8
:10031000083108600846006840F00200086000BF2D
:1003200003480830006800F00C000828F8D10CBD24
:1003300000380240007000400C5A4007003C024068
:100340007047000010B51548006840F4700013496C
:1003500008601348006840F001001149086000205F
:100360000F49083108600E4800680E4908400C49E2
:1003700008600D48091D0860081F006820F48020EF
:10038000091F0860002006490C310860FFF748FF8C
:100390004FF0006001498039086010BD88ED00E031
:1003A00000380240FFFFF6FE10300024704770470F
:1003B000704700BFFEE702E008C8121F08C1002A0C
:1003C000FAD170477047002001E001C1121F002AD6
:1003D000FBD1704700207047E803000800000020B0
:0803E00000040000C603000840
:04000005080001AD41
:00000001FF
