:020000040800F2
:1000000048090020C1010008ED2F0008852A0008DA
:10001000E92F0008391000086945000800000000B9
:100020000000000000000000000000007134000823
:100030003921000800000000E530000805380008FC
:10004000DB010008DB010008DB010008DB01000820
:10005000DB010008DB010008DB010008DB01000810
:10006000DB010008DB010008DB010008DB01000800
:10007000DB010008DB010008DB010008DB010008F0
:10008000DB010008DB010008DB010008DB010008E0
:1000900025110008DB010008DB010008DB01000876
:1000A000DB010008DB010008DB010008DB010008C0
:1000B000DB010008DB010008DB010008DB010008B0
:1000C000DB010008DB010008DB010008DB010008A0
:1000D000DB010008953F0008114100083D4200087F
:1000E000DB010008DB010008DB010008DB01000880
:1000F000DB010008DB010008DB010008DB01000870
:10010000DB010008DB010008DB010008DB0100085F
:10011000DB010008DB01000889390008C13C000848
:10012000DB010008DB010008DB010008DB0100083F
:10013000DB010008DB010008DB010008DB0100082F
:10014000DB010008DB010008DB010008DB0100081F
:10015000DB010008DB010008DB010008DB0100080F
:10016000DB010008DB010008DB010008DB010008FF
:10017000DB010008DB010008DB010008DB010008EF
:10018000DB010008DB010008DB010008DB010008DF
:10019000DB010008DB010008DB010008DB010008CF
:1001A0000000000000000000DB010008DFF80CD0B8
:1001B00000F0CAFB00480047095A0008480900201F
:1001C0000648804706480047FEE7FEE7FEE7FEE7F1
:1001D000FEE7FEE7FEE7FEE7FEE7FEE70938000878
:1001E000AD0100080FB400B58DB010A909900B90B7
:1001F00000914FF0FF300A9000200C9005480690C7
:10020000054807906A4609A80F9900F0B9F90DB0A2
:100210005DF814FB9D050008BB0500082DE9FF5F94
:100220001D464FF0FF3BD5E9014691465F464FF032
:100230000008A9697F1C01988847296A8246884777
:100240000028F6D1BAF1FF3F0CD024F4C064002E90
:1002500019DD600614D5BAF12B0F09D0BAF12D0FB4
:100260000ED103E0584604B0BDE8F09F44F480642A
:10027000A9697F1C01988847761E8246002E02DD00
:10028000BAF1300F03D0B9F1000F26D032E0A969DE
:10029000761E44F400747F1C019888478246002E25
:1002A00005DDBAF1780F06D0BAF1580F03D0B9F1D5
:1002B000000F10D01EE0B9F1000F02D0B9F1100FFD
:1002C00018D1A969761E24F400747F1C0198884710
:1002D0008246102002E0082000E00A20814609E062
:1002E00008FB0908A969761E44F400747F1C019874
:1002F00088478246002E05DD4946504600F02BF91E
:100300000028EDDAE96901988847A00502D46FF06A
:100310000100A8E7E00725D1600613D5600502D5E6
:10032000C8F1000000E0404629680A1D2A600968FB
:10033000220501D5087015E0220701D5088011E0DB
:1003400008600FE02868011D29600068210502D5BA
:1003500080F8008006E0210702D5A0F8008001E0C7
:10036000C0F8008038467EE72DE9FE4F804681EADE
:100370000300C00F0C46009021F0004123F000451F
:10038000B8EB0200A94105D24046214690461C46E2
:100390000B46024623F00040104347D0270DC7F319
:1003A0000A00C3F30A510290401A019040286BDA08
:1003B000C3F3130040F4801B0098924620B1002341
:1003C000D2EB030A63EB0B0B01985946C0F14002D4
:1003D000504600F09FF806460D4650465946019A91
:1003E00000F0A7F810EB08006141002487EA1152E1
:1003F00084EAE7731A4340D0009A62B3019A012A53
:100400004FEA075215DC001B61EB02014FF000427E
:1004100002EA0752CDE90042001C41F58011324644
:100420002B4600F021F903B0BDE8F08F404621468D
:10043000F9E7001B61EB0201001C41F58013001875
:100440005B412018A2F5001747EB030140EAD57085
:10045000B6196D4111E06D084FEA360645EAC075E0
:100460004FEA0752001B61EB0201001C41F58011AD
:1004700049084FEA30000019514132462B4603B07B
:10048000BDE8F04F00F0E1B80098012240000023E1
:10049000D0EB020263EBE073009821464FEAE07470
:1004A000B8EB000061EB0401E9E783F000435BE790
:1004B00081F0004158E700F0004230F000400AD0DF
:1004C000C10D01F56071C0F3160042EA0151C20886
:1004D00040071143704700200146704701F0004378
:1004E00030B421F0004150EA010206D00A0DA2F515
:1004F0006072C1F31301002A02DC30BC0020704797
:10050000440F44EAC104C100E01830BC00EBC25003
:1005100000F064B8202A04DB203A00FA02F100203F
:1005200070479140C2F1200320FA03F31943904031
:100530007047202A06DBCB17203A41FA02F043EA43
:10054000E07306E041FA02F3D040C2F1200291408C
:100550000843194670473A2800D2303820F020026C
:10056000412A01D3A2F13700884201D34FF0FF3076
:100570007047000002681144137801601846704704
:10058000D160044951610449116200211161114691
:1005900000F002BA750500088D090008426842B1F2
:1005A000016811F8013B23B1521EC0E90012184640
:1005B00070470121C160881E704742685AB1C36804
:1005C000016843B983688B4205D0491E521CC0E9BB
:1005D0000012002070474FF0FF3070470029A8BF7D
:1005E0007047401C490008BF20F00100704710B45C
:1005F000B0FA80FC00FA0CF050EA010404BF10BC11
:10060000704749B1CCF1200421FA04F411FA0CF13D
:1006100018BF012121430843A3EB0C01CB1D4FEA76
:1006200000614FEA102042BF002010BC704700EB71
:10063000C35010440029A4BF10BC7047401C49009F
:1006400008BF20F0010010BC704710B5141E73F1F4
:10065000000408DA401C41F1000192185B411A4382
:1006600001D120F0010010BD2DE9F04D92469B46CE
:1006700011B1B1FA81F202E0B0FA80F22032904674
:10068000FFF748FF04460F4640EA0A0041EA0B0123
:1006900053465A46084313D0114653EA010019D075
:1006A000C8F14002504600F061F905460E4650463A
:1006B00059464246FFF72EFF084305D0012004E0CB
:1006C00020463946BDE8F08D0020054346EAE07635
:1006D0002C4337430A986305E40AA0EB0800002284
:1006E000FD0A44EA47540A3002D500200146E9E7F2
:1006F000010510196941DDE9084500196941BDE8A6
:10070000F04DA2E72DE9FE4F81EA030404F0004416
:1007100021F0004100944FF0000B23F0004350EA19
:1007200001045ED052EA03045BD0C3F30A54C1F360
:100730000A552C44A4F2F3340194A0FB0254C1F3F3
:10074000130141F48011C3F3130343F4801301FB3D
:10075000024400FB034E840A970A44EA815447EAA4
:100760008357A4FB076802958D0A05FB07854FEAAE
:10077000932C04FB0C542705029D4FEA065847EAC8
:100780001637B5EB08056EEB070C870E920E47EA9D
:10079000811742EA8312A7FB0201B6EB0B0164EB5F
:1007A00000042B0D43EA0C335E1844EB1C50DA4670
:1007B0005146E7FB0201C5F313044FEA0B3343EA4A
:1007C00014534FEA0432019C43EA0603A4F10C04DB
:1007D0000294009CCDE900B4FFF746FF03B0BDE8EA
:1007E000F08F00200146F9E72DE9F04D81EA03047E
:1007F00004F0004B21F0004514464FF0000A23F0AE
:10080000004150EA050220D054EA01021DD0C5F390
:100810000A570246C5F31303C1F31300C1F30A5686
:1008200040F4801543F48013A7EB0608101BD6464E
:1008300008F2FD3873EB050002D308F1010801E06E
:1008400092185B41B8F1000F03DA00200146BDE8C1
:10085000F08D00204FF48011064684460EE0171BF1
:1008600073EB050705D3121B63EB050306434CEA44
:10087000010C49084FEA300092185B4150EA010729
:10088000EDD152EA030012D082EA040083EA0501A6
:10089000084305D0101BAB4106D20122002306E01D
:1008A00000224FF0004302E06FF0010253101AEBF8
:1008B00006004CEB085110EB0A0041EB0B01BDE8C0
:1008C000F04DFFF7C2BE70B521F0004303430CD0DA
:1008D000C1F30A550024D5EB040564EB0403D617D5
:1008E000AD1AB34102DB0020014670BD201841EB78
:1008F000025170BD0EB5C10F80EAE0700844CA070E
:10090000002140F233438DE80E000A460B46FFF704
:10091000ABFE03B000BD000030B5041E71F1000451
:1009200004DB4FF00044404264EB0101141E73F1FC
:10093000000405DB1C464FF00043524263EB040306
:10094000994208BF904230BD064C074D06E0E06872
:1009500040F0010394E8070098471034AC42F6D306
:10096000FFF728FC905C0008B05C0008202A04DB3C
:10097000203A21FA02F00021704721FA02F3D04018
:10098000C2F120029140084319467047C0B24FF4AB
:10099000F05100F0E9B900002DE9F34F8BB04FF0B2
:1009A000000801F10C000C464FF0010B46460DF11A
:1009B000080A01906269012101989047051E2DD017
:1009C000252D2CD0216A8847C0B162690121019888
:1009D0009047216A88470028F7D1411E6269019833
:1009E000904700E0761CA1690B988847216A8847E8
:1009F0000028F7D1E1690B988847DBE7A1690B98DC
:100A000088470746A84201D1761CD3E7E1690B98D5
:100A100088477F1C02D1B8F1000F6FD046E1002754
:100A200062693D463946019890472A2804D1626997
:100A30000121019890470125DFF884926269012124
:100A400001989047A0F130010A290AD24F45E5DC10
:100A500007EB870100EB4107303FDFD445F010057D
:100A6000ECE7E90601D46FF000476C280AD04C2867
:100A700014D0682815D06A280DD074281CD07A2884
:100A80001AD01DE062690121019890476C2802D0BC
:100A900045F0040514E045F002050DE045F02005A1
:100AA0000AE06269012101989047682802D045F068
:100AB000080505E045F40065626901210198904749
:100AC000C4E9015765283DD019DC58287AD00CDCE0
:100AD000452837D004DC252826D0412831D131E003
:100AE00046282FD047282CD12CE05B2877D06128CE
:100AF00028D063287CD0642823D15AE0D0E06F2826
:100B000048D008DC66281DD067281BD0692821D072
:100B10006E2816D127E0702845D0732868D0752834
:100B200047D078280DD14DE0A1690B98884705463C
:100B300025283FF469AFE1690B9888476D1C3FF4A5
:100B40006AAFB3E023466A466FF001000B99AFF33A
:100B500000809EE045F040006060A80723464FF00B
:100B6000000236D43EE0E8077FF447AF2068011D5D
:100B700021600068290501D506701BE7290701D50A
:100B8000068017E7A90703D5F117C0E9006111E74F
:100B900006600FE745F040006060A80723464FF06D
:100BA000080216D41EE040F60E0125EA010060603E
:100BB00016E045F040006060A80723464FF00A02A7
:100BC00007D40FE045F040006060A80708D5234631
:100BD00010226FF001000B99AFF3008059E007E09D
:100BE000234610226FF001000B99FFF717FB50E02E
:100BF0004FF000094F464B46632802D05B2806D0D1
:100C000040E0E80601D40120A06001273AE06269D3
:100C10000121019890475E2805D14FF001096269D2
:100C2000494601989047216939B900210A4653463F
:100C300043F82120491C0829FADBB0B3216969B9BE
:100C4000C11700EBD16253110AEB830122F01F029E
:100C5000821A01200B68904003430B6062690121F6
:100C6000019890475D28E8D1B9F1000F09D0002024
:100C7000514651F82020D24341F82020401C08283A
:100C8000F7DB02AB224600976FF001000B99AFF340
:100C9000008000280CDA401C08D1BBF1000F05D001
:100CA0004FF0FF300DB0BDE8F08FFFE74046F9E7A9
:100CB000E90701D108F1010806444FF0000B79E67D
:100CC000CCCCCC0C2DE9F04D00231A461B1A8A41DE
:100CD00003DB00200146BDE8F08DC1F30A52C1F3E9
:100CE000130141F480154FF0000BD10702D1001819
:100CF0006D41521E0027044640F2FF11384601EBB9
:100D0000620A3E468046024600204FF48011FFF7FB
:100D10002DFEC2197141BB1846EB0100B4EB030C68
:100D200075EB000C04D3E41A65EB000517460E467C
:100D3000241908F101006D4180463428E3DDF919DA
:100D400046EB0600091BA84103D24FF0FF321346C1
:100D500001E0002213461BEB070046EB0A51BDE8F9
:100D6000F04DFFF772BC00007F2801D9002208E097
:100D7000064A02EB5002C007127800D1120902F0B5
:100D80000F0201209040084070470000505C0008AE
:100D90000FB400B50198A0F2012007282CD2DFE89B
:100DA00000F0042C5986B3DEFD009DF810009DF87C
:100DB0000F1040EA012000B29C4908809DF81210F3
:100DC0009DF8110041EA002000B2984948809DF842
:100DD00014109DF8130041EA002000B29349888066
:100DE0009DF81500C880012081F846000846B0F83B
:100DF0004800401CA1F8480015E19DF810009DF83E
:100E00000F1040EA012000B28849A1F84C009DF87B
:100E100012109DF8110041EA002001B28348A0F8A9
:100E20004E109DF814109DF8130041EA002001B205
:100E30007E48A0F850109DF81510A0F8521001211E
:100E400080F89210B0F89400401C81B27748A0F866
:100E50009410E8E09DF810009DF80F1040EA012082
:100E600000B27249A1F898009DF812109DF8110087
:100E700041EA002001B26D48A0F89A109DF81410C4
:100E80009DF8130041EA002001B26848A0F89C10C8
:100E90009DF81510A0F89E10012180F8DE10B0F822
:100EA000E000401C81B26148A0F8E010BBE09DF872
:100EB00010009DF80F1040EA012000B25B49A1F834
:100EC000E4009DF812109DF8110041EA002001B2E3
:100ED0005648A0F8E6109DF814109DF8130041EA5A
:100EE000002001B25148A0F8E8109DF81510A0F8B4
:100EF000EA10012180F82A11B0F82C01401C81B2BF
:100F00004A48A0F82C118EE09DF810009DF80F10B3
:100F100040EA012000B2464908809DF812109DF871
:100F2000110041EA002000B241494880002001F050
:100F300011FF3F48B0F900003D49B1F864104FF48B
:100F4000005212FB01003A490866012081F8720044
:100F50000846B0F87400401CA1F8740063E09DF8E6
:100F600010009DF80F1040EA012000B23049A1F8AE
:100F700078009DF812109DF8110041EA002001B29E
:100F80002B48A0F87A10012001F0E4FE2848B0F9BF
:100F90007810B0F8DC004FF4005200E00FE012FBD4
:100FA00000112348C0F8D810012180F8EA10B0F8E9
:100FB000EC00401C81B21E48A0F8EC1033E09DF814
:100FC00010009DF80F1040EA012000B21949088076
:100FD0009DF812109DF8110041EA002000B2154959
:100FE00048809DF814109DF8130041EA002000B2DB
:100FF00010498880002001F061FE0E48B0F9000021
:101000000C49B1F864104FF4005212FB0100094979
:101010000866012081F876000846B0F87800401C88
:10102000A1F8780000BF00BF5DF814FB6C00002041
:101030009C0100208C02002000BFFEE700B589B0B3
:101040000121082002F0DEF80121480602F0EAF84A
:1010500002208DF820008DF8210000208DF823005B
:101060008DF822000220079007A92C4801F050FBC0
:101070000120079007A9294801F04AFB0922012114
:10108000264801F08DFB09220021244801F088FB4D
:1010900000208DF8160001208DF817008DF818003B
:1010A00000208DF819008DF81A008DF81B008DF8BE
:1010B00012008DF8130002208DF8140004208DF822
:1010C00015000520ADF8100004A9154800F0DBF963
:1010D00000208DF80A008DF80B0001208DF80C001F
:1010E0000020ADF8080001208DF80D000020ADF8BB
:1010F0000000ADF80200ADF80400ADF80600684647
:1011000000F0A4F801221146142001F070FF012222
:101110000221034800F0AEF909B000BD000C024006
:101120000064004000B587B002210A4800F012F9BF
:1011300070B102AA0021074800F02FFA069800902B
:1011400002A80FC8FFF724FE0221024800F004F8AD
:1011500007B000BD00640040B1F5007F3AD00FDC5D
:10116000202928D006DC01291CD004291DD00829FB
:1011700040D11DE0402921D0B1F5807F3AD126E051
:10118000B1F5004F31D006DCB1F5806F25D0B1F557
:10119000006F2FD124E0B1F5803F12D0B1F5003FB0
:1011A00028D111E0154A826025E00822C26022E0C1
:1011B0001022C2601FE0082202611CE010220261BE
:1011C00019E00822426016E01022426013E0042277
:1011D000426010E0042242600DE0042242600AE016
:1011E000002282610422426005E000228261042222
:1011F000426000E000BF00BF704700000101010035
:101200001CB51048007A012801D1032400E0002415
:10121000E0B28DF8000000208DF801008DF802008A
:101220008DF803008DF804008DF805008DF8060098
:101230008DF807006B464FF4A0620021024800F0D1
:1012400024FA1CBD920400200064004010B5002167
:10125000837A012202FA03F13D4A126842F0010248
:101260003B4B1A603A4A1C3212688A43384B1C3393
:101270001A60027BCAB9364A0C3212688A43344B70
:101280000C331A604288C38842EA0343304A403232
:10129000847A42F834300288838842EA03432C4A35
:1012A0004032847A02EBC4025360027B012A19D1D6
:1012B000274A0C3212680A43254B0C331A604288C5
:1012C000038842EA0343224A4032847A42F83430A7
:1012D000C288838842EA03431D4A4032847A02EB83
:1012E000C4025360C27A3AB9194A121D12688A437D
:1012F000174B1B1D1A6006E0154A121D12680A439F
:10130000134B1B1D1A60028932B9114A143212683C
:101310008A430F4B14331A600289012A06D10C4A02
:10132000143212680A430A4B14331A60427B012AB2
:1013300006D1074A1C3212680A43054B1C331A6057
:10134000034A126822F00102014B1A6010BD00002E
:101350000066004070B504460D46002660692840CE
:10136000002871D0B5F5807F5CD010DC082D35D019
:1013700006DC012D20D0022D24D0042D72D127E0CF
:10138000102D31D0202D35D0402D6BD138E0B5F562
:10139000004F60D009DCB5F5007F49D0B5F5806F0E
:1013A0004CD0B5F5006F5DD14FE0B5F5803F2DD045
:1013B000B5F5003F56D12FE0A0682D4900F0CCFBD9
:1013C000064651E0E068032100F0C6FB06464BE00C
:1013D000E068082100F0C0FB064645E0E068102107
:1013E00000F0BAFB06463FE02069032100F0B4FBA1
:1013F000064639E02069082100F0AEFB064633E0DE
:101400002069102100F0A8FB06462DE06068082145
:1014100000F0A2FB064627E06068102100F09CFB6C
:10142000064621E0A069012100F096FB06461BE07C
:10143000A069022100F090FB064615E0A069042196
:1014400000F08AFB06460FE00FE0A069702100F073
:1014500083FB064608E06068042100F07DFB064639
:1014600002E0FFE7002600BF00E00026304670BD26
:10147000010101001AB143690B43436102E0436972
:101480008B434361704730B5024600200023146847
:1014900024F002041460146844F00104146000E0B5
:1014A0005B1C546804F001041CB94FF6FF74A3429E
:1014B000F6D1546804F001040CB900206CE08C797A
:1014C000012C04D1146844F08004146003E0146813
:1014D00024F080041460CC79012C04D1146844F009
:1014E0004004146003E0146824F0400414600C7A93
:1014F000012C04D1146844F02004146003E0146843
:1015000024F0200414604C7A012C04D1146844F0B7
:101510001004146003E0146824F0100414608C7A42
:10152000012C04D1146844F00804146003E014682A
:1015300024F008041460CC7A012C04D1146844F01F
:101540000404146003E0146824F0040414608C782C
:10155000A407CD7844EA05640D7944EA05444D7941
:1015600044EA05540D886D1E2C43D461146824F0A0
:1015700001041460002300E05B1C546804F00104C3
:101580001CB14FF6FF74A342F6D1546804F0010475
:101590000CB1002000E0012030BD10B500F5D8737B
:1015A00003EB01131B6803F004031372137A53B99E
:1015B00000F5D87303EB01131B6840F2FF7404EAD3
:1015C0005353136009E000F5D87303EB01131B6854
:1015D0006FF0604404EAD303536000F5D87303EB63
:1015E00001131B6803F00203537200F5D87303EB79
:1015F00001135B6803F00F03937200F5D87303EBDC
:1016000001135B681B0AD37400F5D87303EB011355
:101610009B68D37200F5D87303EB01139B681C0A17
:10162000147300F5D87303EB01139B681C0C5473FF
:1016300000F5D87303EB01139B681B0E937300F541
:10164000D87303EB0113DB68D37300F5D87303EB96
:101650000113DB681C0A147400F5D87303EB011343
:10166000DB681C0C547400F5D87303EB0113DB68C2
:101670001B0E937421B9C36843F02003C36003E0D9
:10168000036943F02003036110BDF0B585B0074640
:101690000C4615461E460CB9009500E001958DF8E4
:1016A000084000208DF8090008208DF80A0000206D
:1016B00005E0325C0DF10B010A54411CC8B2082848
:1016C000F7DB6946384600F002F805B0F0BD10B50A
:1016D00002460020936803F08063B3F1806F00D16D
:1016E00010E0936803F00063B3F1006F01D10120B3
:1016F00008E0936803F08053B3F1805F01D10220CA
:1017000000E00420042874D002F5C07303EB00133A
:101710001B6803F0010402F5C07303EB00131C60A7
:101720000B7A7BB94B7A0C8843EA445302F5C074B8
:1017300004EB00142468234302F5C07404EB001486
:10174000236010E00B7A4C6843EAC4034C7A2343CD
:1017500002F5C07404EB00142468234302F5C0743E
:1017600004EB001423608B7A03F00F038B7202F5F5
:10177000C07303EB00135B6823F00F0402F5C07322
:1017800003EB00135C6002F5C07303EB00135B68AE
:101790008C7A234302F5C07404EB001463608B7BE6
:1017A0001C064B7B44EA03440B7B44EA0323CC7ABC
:1017B000234302F5C07404EB0014A3608B7C1C0669
:1017C0004B7C44EA03440B7C44EA0323CC7B234355
:1017D00002F5C07404EB0014E36002F5C07303EB80
:1017E00000131B6843F0010402F5C07303EB001300
:1017F0001C6010BD2DE9FC4107460C4615461E46EF
:10180000380A8DF80000F8B28DF80100200A8DF832
:101810000200E0B28DF80300280A8DF80400E8B257
:101820008DF80500300A8DF80600F0B28DF807003B
:101830006B464FF4007200210248FFF726FFBDE817
:10184000FC8100000064004010B59FED230A23488E
:1018500080ED010A4FF47A72D1009FED211AF7EE64
:10186000080AB0EE040A1F4801F092F94FF47A72A8
:10187000D1009FED1B1AF7EE080AB0EE040A1948D2
:101880004C3001F085F94FF47A72D1009FED141AB3
:10189000F7EE080AB0EE040A1248983001F078F921
:1018A0004FF47A72D1009FED0E1AF7EE080AB0EEEF
:1018B000040A0C48E43001F06BF94FF4FA7241F27B
:1018C0009411B2EE0B1ADFED060A9FED070A0348EA
:1018D000143001F077FC10BD0AD7233D200300200F
:1018E00000000000740000206666464031B52DED12
:1018F000040B2DED028B05469FED8F0AB0EE408A5A
:10190000022D09D100231A4619461846FFF772FF27
:10191000BDEC028B05B030BD8848D0ED010AB0EEB9
:10192000600A00F1080102A800F0D8FE8348D0ED5B
:10193000010AB0EE600A00F10C0103A800F0CEFE2F
:101940007E48D0ED010AB0EE600A00F1100104A853
:1019500000F0C4FE7A480088022878D19FED760A0C
:10196000764880ED100A774890ED180AB8EEC00A64
:10197000DFED750A30EE600AB5EEC00AF1EE10FA3E
:1019800008DD90ED180AB8EEC00ADFED6F0A30EE00
:10199000600A0AE06B4890ED180AB8EEC00ADFED65
:1019A0006A0A30EE600AB1EE400AF3EE040AB4EEC1
:1019B000E00AF1EE10FA24DC9DED030AB5EEC00A50
:1019C000F1EE10FA02DD9DED030A03E09DED030A3E
:1019D000B1EE400ADDED020AF5EEC00AF1EE10FAB2
:1019E00002DDDDED020A03E0DDED020AF1EE600A40
:1019F00030EE200AF1EE040AB4EEE00AF1EE10FA3D
:101A000013DD504890ED180AB8EEC00AF0EE400A17
:101A10009FED4D0A4948143001F066FB00EE100AB4
:101A2000B8EEC00A454880ED100A9FED480A4349C8
:101A30004431081F00F052FE404890ED040AD0EDFA
:101A4000110A30EE200AB0EE408A05E0FFE73B487D
:101A500090ED040AB0EE408A384890ED031AF0EE9B
:101A6000410A90ED021AB0EE410A3948B0EE481A28
:101A700001F0C6F9002450E004EB440000EB041030
:101A8000344901EB800090F84600012844D13048E9
:101A900030F8140004EB440101EB04112D4A02EB71
:101AA0008101A1F8400004EB440101EB041102EBB9
:101AB0008101B1F9021001EE101AB8EEC11AF0EE70
:101AC000410A04EB440101EB041102EB8101B1F97D
:101AD000401001EE101AB8EEC11AB0EE410A04EB44
:101AE000440101EB041102EB810101F1080000F057
:101AF000CBFF00B204EB440101EB0411154A02EBE9
:101B00008101A1F84400002004EB440101EB041121
:101B100002EB810181F84600641C042CACDB0D4C07
:101B2000B4F92831B4F9DC20B4F99010B4F94400C8
:101B3000FFF760FE00BFEBE600000000200300207E
:101B40003E0500209C01002000707345CDCCCC3DAB
:101B5000000000206C0000200246002002EA010381
:101B60000BB1012000E00020704700002DE9FC418E
:101B700007460C4615461E46380A8DF80000F8B296
:101B80008DF80100200A8DF80200E0B28DF8030004
:101B9000280A8DF80400E8B28DF80500300A8DF8A7
:101BA0000600F0B28DF807006B4640F2FF120021EC
:101BB0000248FFF76AFDBDE8FC81000000640040B8
:101BC00010B59FED4A0A4A4880ED010A00204949B4
:101BD0000884494890ED180AB8EEC00A444880EDE0
:101BE000030A80ED020A444890ED360AB8EEC00AB6
:101BF0003F4880ED050A80ED040A00224FF47A6127
:101C00009FED3E1ADFED3D0ABAEE040A3A4808306D
:101C100001F0D8FA00224FF4FA71B7EE001ADFEDA6
:101C2000370AB0EE000A3448343001F0CBFA002213
:101C30004FF47A61BBEE041ADFED300AB9EE080A00
:101C40002D48803001F0BEFA00224FF4FA719FED6A
:101C50002B1ADFED2A0AB0EE000A2748AC3001F05B
:101C6000B1FA244890ED070A214880ED070A80ED7B
:101C7000060A204890ED030A1D4880ED090A80ED10
:101C8000080A00224FF4FA719FED1C1ADFED1B0ABF
:101C9000BFEE080A383001F095FA00224FF47A615D
:101CA0009FED171ADFED150A9FED160A10486430F4
:101CB00001F088FA00224FF4FA719FED101ADFED5F
:101CC0000F0AB8EE000A0A48903001F07BFA0022B1
:101CD0004FF47A619FED0C1ADFED080A9FED0B0AB5
:101CE0000348BC3001F06EFA10BD0000CDCCCC3DF5
:101CF0006C030020540400209C0100200000000020
:101D0000000046C2000096C2000020C2000070C25F
:101D100021B1026842F00102026003E0026822F091
:101D20000102026070470000016821F001010160BA
:101D30000021016041608160C16001612121416138
:101D40004A49884204D13D21484A103A91608CE0CA
:101D500046491831884205D14FF47461434A103A1C
:101D6000916082E041493031884205D14FF47411CD
:101D70003E4A103A916078E03C494831884205D1AA
:101D80004FF07461394A103A91606EE03749603122
:101D9000884204D13649354A103AD16065E033496A
:101DA0007831884204D13349304A103AD1605CE03E
:101DB0002E499031884204D12F492C4A103AD160E3
:101DC00053E02A49A831884205D14FF03D51274AB6
:101DD000103AD16049E02949884204D13D21274A7F
:101DE000083A116041E025491831884205D14FF485
:101DF0007461224A083A116037E020493031884244
:101E000005D14FF474111D4A083A11602DE01B49A9
:101E10004831884205D14FF07461184A083A116080
:101E200023E016496031884204D11149134A121F38
:101E300011601AE011497831884204D10D490F4AE6
:101E4000121F116011E00D499031884204D10A49F6
:101E50000A4A121F116008E00849A831884204D1DB
:101E60004FF03D51054A121F11607047106002404B
:101E70003D000020400F002000003D201064024083
:101E8000014600200A6802F001020AB1012000E0C8
:101E9000002070470146486880B2704710B50022A4
:101EA0000268134B1A40CC680B6823434C692343E8
:101EB0008C692343CC6923430C6A23434C6A234334
:101EC0008C6A23434C6B23438C6B23431A4302607D
:101ED000426922F00702D1E90B3423431A434261DD
:101EE0000B6943604B6883608B68C36010BD000062
:101EF0003F801CF04160704710B5044802F070F854
:101F00001621034802F0BEF810BD0000A0860100B3
:101F10007C0400200022CA808A8008800A884B88BE
:101F20009A4209D00A8812B10A88CA8004E04A8815
:101F30008A8000220A814A810A884AB14A89521C51
:101F40004A814A89322A03DD0A880A8100224A81AD
:101F50000A884A807047000010B5044604B910BDD5
:101F60002078617840EA0120C0F30A0061490880C6
:101F70006078C010A17840EA4110C0F30A005D49C2
:101F80004880A0788011E17840EA8100217940EA18
:101F90008120C0F30A005749888020794010617978
:101FA00040EAC110C0F30A005249C88060790011AC
:101FB000800808726079C0F301104872A079E17955
:101FC00040EA012000B24B494881207A617A40EA18
:101FD000012001B247488181A07AE17A40EA0120DC
:101FE00001B24448C181217B0174617B4174A07BB3
:101FF000E17B40EA01203F49488208460088A0F57D
:10200000806000B2088008464088A0F5806000B279
:10201000488008468088A0F5806000B28880084625
:10202000C088A0F5806000B2C880B1F9000000F05F
:1020300071F800B22F490880B1F9020000F06AF887
:1020400000B22C494880B1F9040000F063F800B2F6
:1020500028498880B1F9060000F05CF800B22549F3
:10206000C8800846B0F90400404201EE100AB8EEFC
:10207000C11AF0EE410A0846B0F9060001EE100A56
:10208000B8EEC11AB0EE410A1B4801F05FF91948D9
:10209000B0F9020001EE100AB8EEC11AF0EE410AE2
:1020A0001448B0F9000001EE100AB8EEC11AB0EE03
:1020B000410A124801F04AF90E49087C1049FFF71D
:1020C00029FF0C49487C0F49FFF724FF0949488A3A
:1020D0000D49FFF71FFF0748808A401C0549888289
:1020E0000846407A094908700248407A0849087051
:1020F00000BF34E792040020AC040020C00400209C
:10210000F404002000050020E80400202003002043
:102110006C03002010B5044600EE104AB8EEC00A69
:1021200003F0DCFBF3EE040AB4EEE00AF1EE10FA81
:1021300000D20024204610BD704700004D48808A20
:10214000052803DA01204B49887502E0002049493F
:10215000887500204749888200BF2AE000EB4001D3
:1021600001EB0011444A02EB8101B1F84810052946
:102170000ADA012100EB400202EB00123E4B03EBB6
:10218000820282F84A1009E0002100EB400202EBD3
:102190000012394B03EB820282F84A10002100EB57
:1021A000400202EB0012344B03EB8202A2F848100B
:1021B000401C0428D2DB002022E0C0EB00112F4A93
:1021C00002EBC101B1F87410052908DA0121C0EB56
:1021D00000122A4B03EBC20282F8761007E00021BE
:1021E000C0EB0012254B03EBC20282F876100021EF
:1021F000C0EB0012214B03EBC202A2F87410401C8A
:102200000228DADB1E48808C052804DA01201C49EC
:1022100081F8260003E00020194981F826000020FB
:102220001749888400BF22E0C0EB4011154A02EB39
:102230008101B1F87810052908DA0121C0EB4012BC
:10224000104B03EB820282F87A1007E00021C0EB0A
:1022500040120C4B03EB820282F87A100021C0EB93
:102260004012084B03EB8202A2F87810401C0128B0
:10227000DADB7047920400206C0000209C010020F3
:10228000540400208C02002010B52DED028B044672
:102290004648C088012803D045480088012804D159
:1022A0009FED440A444880ED000A40488088012898
:1022B00004D19FED420A404880ED000A3B488088E7
:1022C00038B93A48C08820B99FED3D0A3A4880EDB8
:1022D000000A0021012000F07FFC50B1394803F0D2
:1022E000BDFB3548D0ED000A20EE200A84ED000A3F
:1022F00019E00021022000F06FFC60B1314803F0CA
:10230000ADFB2D48D0ED000AF1EE600A20EE200A68
:1023100084ED000A07E09FED2C0A84ED000A3221CB
:10232000284803F0BBFB0021042000F055FC50B10D
:10233000264803F093FB2048D0ED000A20EE200A47
:1023400084ED010A19E00021082000F045FC60B18D
:102350001E4803F083FB1848D0ED000AF1EE600A36
:1023600020EE200A84ED010A07E09FED170A84EDB4
:10237000010A3221154803F091FB0021402000F0B2
:102380002BFC20B10C4890ED000AB1EE408A0021F0
:10239000802000F021FC10B10748D0ED008A38EE13
:1023A000280A84ED030ABDEC028B10BD3E05002017
:1023B0000005002000800945400000200040CE4577
:1023C000008089450803002000000000140300205D
:1023D00010B52DED048BB0EE408AF0EE608A044615
:1023E000AF4890ED180AB8EEC00AAE4880ED020A78
:1023F00080ED030A022C03D0AB4890F82600F8B118
:10240000B7EE000AA94880ED000AA74890ED031A2C
:10241000F0EE410A90ED071AB0EE410A00F06CF9B7
:102420009FEDA30A9F4880ED040A80ED050A002372
:102430001A4619461846FFF799FBBDEC048B10BDF0
:102440009C48807D012807D19FED9B0AB0EE408A11
:102450009FED990AF0EE408A01F0D6F8F3EE0E0AED
:1024600088EE200A8F48D0ED060A30EE200A80ED73
:10247000060A90ED040A30EE680A80ED040A00F0C6
:10248000EDFA8948D0ED070A30EE200A854880ED44
:102490000A0A00F0E3FADFED890A30EEC00A82484A
:1024A000D0ED070A30EEC00A7E4880ED0B0A00F03E
:1024B000C7FA7D48D0ED030A30EE200A794880ED56
:1024C0000C0A00F0BDFADFED7E0A30EEC00A764855
:1024D000D0ED030A30EEC00A724880ED0D0A79484B
:1024E0000088022847D1704890ED070A6D48D0ED6A
:1024F0000A0AB4EEE00AF1EE10FA18DDB5EEC08A71
:10250000F1EE10FA0ED2B2EE000AC8EE000AB3EEF7
:102510000E0A80EE801A90ED060A31EE000A80ED78
:10252000060A04E05F4890ED0A0A80ED060A5E485C
:1025300090ED070A5B48D0ED0B0AB4EEE00AF1EE2D
:1025400010FA18D2B5EEC08AF1EE10FA0EDDF2EEF6
:10255000000A88EE200AB3EE0E1AC0EE010A90EDD2
:10256000060A30EE600A80ED060A04E04D4890ED60
:102570000B0A80ED060A4B4890ED040ADFED520A83
:10258000B4EEE00AF1EE10FA03DD9FED4F0A80EDA4
:10259000040A444890ED040ADFED4C0AB4EEE00A68
:1025A000F1EE10FA03D29FED490A80ED040A9FED87
:1025B000480A3C491C31081F00F090F89FED450A7D
:1025C00038491431081F00F089F8364890ED050AA3
:1025D000BDEEC00A10EE101A012000F007FC3048D2
:1025E00090F8760028BB304890ED071AF0EE410ACB
:1025F0002C4890ED071AB0EE410A383000F074FD17
:1026000000EE100AB8EEC00AB0EE409A264890EDEF
:10261000020AF0EE400AB0EE490A2248643000F0A7
:1026200063FD00B21E49A1F87000002081F872001D
:1026300000BF1B4890F8EE0020BB194890ED361AF9
:10264000B8EEC11AF0EE410A90ED381AB8EEC11A90
:10265000B0EE410AAC3000F047FD09EE100A124816
:1026600090ED010AF0EE400AB8EEC90A0C4880303D
:1026700000F03AFD01B20A48A0F8E810002180F805
:10268000EA1000BF144BB3F97420054BB3F9E810FE
:10269000B3F970000023FFF769FA00BFCDE6000030
:1026A0009C0100206C03002054040020080000203E
:1026B000002080459204002000000000443834438C
:1026C000D65C95423E05002000509145007038458B
:1026D000CDCCCC3ECDCCCC3D8C020020D0ED000A40
:1026E00091ED001A30EEC11AD1ED000A40EE010A58
:1026F000C1ED000A70470000044880ED060A80ED35
:10270000070AC0ED080AC0ED090A70476C030020F3
:10271000F0B50A4600210023002400BF3DE001255A
:1027200005FA01F3156805EA03049C4234D10568F3
:102730004F000326BE40B543056015794E00B540F5
:102740000668354305601579012D02D01579022DF3
:1027500016D185684F000326BE40B5438560557984
:102760004E00B540866835438560456801268E4039
:10277000B5434560456896798E40B6B235434560AD
:10278000C5684F000326BE40B543C560D5794E00ED
:10279000B540C6683543C560491C1029BFD3F0BD9C
:1027A000F0B5002300244D07ED0E02FA05F3CE101C
:1027B00000F1200555F826504E07F70E0F26BE40B3
:1027C000B543CF1000F1200646F82750CE1000F197
:1027D000200555F8265045EA0304CE1000F12005E7
:1027E00045F82640F0BD0183704742694A40426186
:1027F00070470AB1018300E041837047014600221F
:10280000002004E00B5C1344DAB2431CD8B2112858
:10281000F8DB487C904201D1012070470020FCE7A2
:1028200010B54FF4E13001F037FD1E21014801F0F1
:1028300087FD10BD20050020FEB506460F46144654
:102840000025D6E0705D5A287ED1681C305C5A287D
:10285000FAD17019FFF7D2FF002876D0681D315CDD
:10286000281D305C41EA002000B2ADF80000E81DF0
:10287000315CA81D305C41EA002000B2ADF80200D6
:1028800005F10900315C401E305C41EA002000B2D5
:10289000ADF8040005F10B00315C401E305C41EAEC
:1028A000002000B2ADF8060005F10D00315C401EBD
:1028B000305C41EA002000B2ADF8080005F10F00DD
:1028C000315C401E305C41EA002000B2ADF80A00E5
:1028D000BDF9000000EE100AB8EEC00ADFED470AAD
:1028E00080EE201A84ED001ABDF9020000EE100AF5
:1028F000B8EEC00ADFED410A80EE201A84ED011A1D
:10290000BDF9040000EE100AB8EEC00ADFED3B0A84
:1029100080EE201A84ED021ABDF8060080B200EEA7
:10292000100AB8EE400ADFED350A80EE201A84ED79
:10293000051ABDF9080000EE100AB8EEC00ADFED76
:102940002F0A80EE201A01E051E04DE084ED031AD9
:10295000BDF90A0000EE100AB8EEC00ADFED270A42
:1029600080EE201A84ED041A05F11000305C84F822
:10297000220094ED050AD4ED060A30EE600ADFED80
:10298000200AB4EEE00AF1EE10FA03D2208C401CCB
:1029900000B2208494ED060AD4ED050A30EE600AF8
:1029A000DFED170AB4EEE00AF1EE10FA03D2208C44
:1029B000401E00B2208494ED050A84ED060A94EDD1
:1029C000050AB4F9200000EE900AF8EEE00A9FED47
:1029D0000D1A01EE200A84ED070AA08C401CA08489
:1029E000012084F82300FEBD681C85B201E0681C4C
:1029F00085B2BD42FFF626AF00BFF4E70000C84233
:102A0000000096C30000B4430548007805490978E2
:102A1000884202D103480078704700BFFCE70000FD
:102A2000200300206C03002001480078704700005C
:102A30002003002001480078704700006C0300204C
:102A4000044890ED360AB8EEC00ADFED030A30EE16
:102A5000600A70479C01002000703845064890EDE0
:102A6000180AB8EEC00ADFED050A70EE600A9FEDA5
:102A7000041A80EE810A70479C0100200040E74460
:102A80000000B64100BFFEE708B50146F0EE401A6F
:102A9000B0EE602AC1ED001A81ED012A91ED000A25
:102AA000D1ED010A30EE600A81ED020AD1ED020A91
:102AB000B0EE600A02F012FFDFED330AB4EEE00A76
:102AC000F1EE10FA03D29FED310A81ED020A91ED89
:102AD000020AD1ED030A30EE600AD1ED050A60EE7C
:102AE000202A91ED060AD1ED020A20EE200A8DED92
:102AF000000A91ED020AD1ED030AB0EE001A01EED0
:102B0000600AD1ED040A30EE200AD1ED070A20EE6A
:102B1000203AD1ED0D0AF8EE600AB0EE600A684680
:102B200000F06AF89DED000A32EE800A30EE030AEA
:102B300081ED090A91ED0B0AD1ED090A30EE200A68
:102B400081ED0A0A91ED0A0A81ED080A91ED0A0A5F
:102B500081ED0B0AD1ED0C0AF8EE600AB0EE600AC6
:102B600001F1200000F09EFA91ED030A81ED040AC4
:102B700091ED020A81ED030A91ED080ABDEEC00A4B
:102B800010EE100A08BD0000CDCC4C3E0000000045
:102B9000DFED101AC0ED001ADFED0E1AC0ED011ABC
:102BA000DFED0C1AC0ED021ADFED0A1AC0ED031AB0
:102BB000DFED081AC0ED041A80ED050AC0ED060A23
:102BC00080ED071A01634263DFED021AC0ED081AB7
:102BD0007047000000000000024639B10548008837
:102BE000904201D1012070470020FCE70148008895
:102BF0001040F8E7E8040020D0ED000AF4EEC00A27
:102C0000F1EE10FA01DD80ED000AD0ED000AB1EE20
:102C1000401AF4EEC10AF1EE10FA03D2F1EE400AC6
:102C2000C0ED000A704700001CB50121302000F003
:102C3000E9FA01208DF8040000208DF806008DF8D7
:102C400007008DF805008020009069460A48FFF7CC
:102C50005FFD4FF48040009069460848FFF758FD3B
:102C6000012280210448FFF7C4FD0122910303489B
:102C7000FFF7BFFD1CBD0000001002400014024021
:102C80001CB50121402000F0BDFA01208DF80400A0
:102C900000208DF806008DF807008DF805004FF430
:102CA0000050009069460448FFF732FD4FF4005190
:102CB0000148FFF798FD1CBD00180240C0EB401111
:102CC000224A32F92110C0EB4012204B03EB820262
:102CD000126F891A1E4A91420EDAC0EB40111A4651
:102CE00002EB8101B1F86410491C09B2C0EB40123B
:102CF00003EB8202A2F86410C0EB4011134A02EB0E
:102D00008101096FC0EB4012104B33F92220891A60
:102D10000F4A91420EDAC0EB40111A4602EB8101D4
:102D2000B1F86410491E09B2C0EB401203EB8202F5
:102D3000A2F86410C0EB4011044A32F92110C0EB34
:102D40004012024B03EB8202116770478C02002095
:102D500090E8FFFFC0EB0011224A32F93110C0EBBE
:102D60000012204B03EBC202D26E891A1E4A914216
:102D70000EDAC0EB00111A4602EBC101B1F8641083
:102D8000491C09B2C0EB001203EBC202A2F86410A6
:102D9000C0EB0011134A02EBC101C96EC0EB001277
:102DA000104B33F93220891A0F4A91420EDAC0EBE8
:102DB00000111A4602EBC101B1F86410491E09B2B4
:102DC000C0EB001203EBC202A2F86410C0EB0011CA
:102DD000044A32F93110C0EB0012024B03EBC2027D
:102DE000D16670479C01002090E8FFFFC0EB001205
:102DF000024B03EBC2029166704700009C01002069
:102E00000FB50146F7EE002AF0EE621ADFED722AE6
:102E1000B0EE622A00BFDFED712AB4EEE20AF1EEF5
:102E200010FA04D8DFED6D2AB0EE620A0AE0DFED99
:102E30006C2AB4EEE20AF1EE10FA03DBDFED682A49
:102E4000B0EE620A00BF00BFDFED642AF4EEE20AD2
:102E5000F1EE10FA04D8DFED612AF0EE620A0AE022
:102E6000DFED5F2AF4EEE20AF1EE10FA03DBDFEDAC
:102E70005C2AF0EE620A00BF00BFDFED582AB4EE14
:102E8000E21AF1EE10FA04D8DFED542AB0EE621A1D
:102E90000AE0DFED532AB4EEE21AF1EE10FA03DB9A
:102EA000DFED4F2AB0EE621A00BF70EE602A72EEBC
:102EB000812ACDED002A70EE202A72EE812ACDED16
:102EC000012AF1EE402A72EEA02A72EE812ACDED9F
:102ED000022AF1EE402A72EEE02A72EE812ACDED4E
:102EE000032A0020002202EE902A3DE06A4602EB0F
:102EF000800292ED003AB5EEC03AF1EE10FA05DD2F
:102F00006A4602EB800292ED003A06E06A4602EB66
:102F1000800292ED003AB1EE433AF8EE623AB4EE36
:102F2000E33AF1EE10FA1DDD6A4602EB800292ED03
:102F3000003AB5EEC03AF1EE10FA05DD6A4602EB52
:102F4000800292ED003A06E06A4602EB800292EDC2
:102F5000003AB1EE433ABCEEC33A13EE102AD2B2B5
:102F600002EE902A421CD0B20428BFDBDFED1D2AFE
:102F7000B4EEE22AF1EE10FA05DDDFED1A2A82EE58
:102F8000823AF0EE431ADDED002A62EEA12AFDEE50
:102F9000E22A12EE900A00B20880DDED012A62EE0C
:102FA000A12AFDEEE22A12EE900A00B24880DDED81
:102FB000022A62EEA12AFDEEE22A12EE900A00B287
:102FC0008880DDED032A62EEA12AFDEEE22A12EEF0
:102FD000900A00B2C8800FBD000000000040CEC5BE
:102FE0000040CE4500C05A4500BFFEE77047F8B527
:102FF00006460C461546F0B28DF80000E0B28DF89A
:103000000100E8B28DF8020001208DF80300684647
:1030100000F002F8F8BD000070B5002100230F2277
:10302000C4781CB3174C246804F4E064C4F5E0646D
:10303000C4F30721C1F10404E3B20A4144789C407F
:10304000E1B28478144021430C07210E0E4C057820
:103050006155047804F01F050124AC4005786D111A
:10306000AD0005F1E025C5F8004109E0047804F061
:103070001F050124AC40054D0678761145F8264021
:1030800070BD00000CED00E000E400E080E100E035
:1030900002490143024A1160704700000000FA052E
:1030A0000CED00E0D0ED000AF4EEC00AF1EE10FAEB
:1030B00001DD80ED000AD0ED000AB1EE401AF4EE19
:1030C000C10AF1EE10FA03D2F1EE400AC0ED000A97
:1030D00070470000022002490880012048807047A4
:1030E0003E0500207047000008B50146F0EE401A8A
:1030F000B0EE602AC1ED001A81ED012A91ED000ABF
:10310000D1ED010A30EE600A81ED020AD1ED020A2A
:10311000B0EE600A02F0E2FBDFED280AB4EEE00A4E
:10312000F1EE10FA03D29FED260A81ED020A91ED2D
:10313000040AD1ED020A30EE200A81ED040A91ED75
:10314000050AD1ED020A60EE202A91ED060AD1EDC2
:10315000040A20EE200A8DED000A91ED020AD1ED5D
:10316000030A30EE600AD1ED070A20EE203AD1EDD5
:103170000A0AF8EE600AB0EE600A6846FFF73CFD06
:103180009DED000A32EE800A30EE030A81ED080A56
:10319000D1ED090AF8EE600AB0EE600A01F12000F4
:1031A000FFF780FF91ED020A81ED030A91ED080A15
:1031B000BDEEC00A10EE100A08BD0000CDCC4C3E9A
:1031C00000000000DFED0E1AC0ED001ADFED0C1A52
:1031D000C0ED011ADFED0A1AC0ED021ADFED081A80
:1031E000C0ED031A80ED050AC0ED060A80ED071A4E
:1031F00041628262DFED021AC0ED081A70470000DA
:103200000000000029B1064A12680243044B1A600C
:1032100004E0034A12688243014B1A6070470000C1
:103220003038024029B1064A12680243044B1A6042
:1032300004E0034A12688243014B1A6070470000A1
:103240004038024029B1064A12680243044B1A6012
:1032500004E0034A12688243014B1A607047000081
:1032600044380240F0B50021002200240225002647
:103270000223324F3F6807F00C0121B1042905D029
:10328000082937D105E02E4F076036E02D4F076043
:1032900033E02A4F3F1F3F68C7F38056274F3F1F39
:1032A0003F6807F03F036EB1264FB7FBF3F7DFF837
:1032B0008CC0ACF1040CDCF800C0CCF3881C07FB1C
:1032C0000CF40CE01E4FB7FBF3F7DFF870C0ACF165
:1032D000040CDCF800C0CCF3881C07FB0CF4174F7F
:1032E0003F1F3F68C7F301477F1C7D00B4FBF5F724
:1032F000076002E0124F076000BF00BF0F4F3F683A
:1033000007F0F0010909104F7A5C0768D740476061
:103310000A4F3F6807F4E051890A0B4F7A5C47680F
:10332000D7408760054F3F6807F46041490B064F5F
:103330007A5C4768D740C760F0BD0000083802409B
:103340000024F400001BB7005800002010B52DED3C
:103350000A8BB0EE408AF0EE608A044684ED008A63
:10336000C4ED018A94ED000A10EE101A0846FDF72C
:10337000A2F841EC1A0B94ED010A10EE101A08465F
:10338000FDF799F841EC1B0BB0EE4A1AF0EE6A1A01
:10339000B0EE4B0AF0EE6B0A01F092FAB0EE409AF2
:1033A000F0EE609A51EC190BFDF798F8A06094EDDF
:1033B000020ADFED2B0A20EE200ADFED2A0A80EE5A
:1033C000201A84ED031A94ED010A10EE101A084633
:1033D000FDF771F841EC1C0B9FED231BB0EE4C0A7E
:1033E000F0EE6C0A01F064FBB0EE40AAF0EE60AAC9
:1033F00094ED000A10EE101A0846FDF75CF841EC57
:103400001C0B9FED191BB0EE4C0AF0EE6C0A01F09C
:103410004FFBB0EE40BAF0EE60BA53EC1A2B51EC11
:103420001B0BFCF7A1FF41EC190BFDF757F800EE61
:10343000100AF1EEC00AC4ED040A94ED030ADFEDB0
:10344000080AB4EEE00AF1EE10FA05DD94ED040A84
:10345000B1EE400A84ED040ABDEC0A8B10BD0000F9
:1034600000003443DB0F4940000000000000004032
:10347000704700000CB500200190009041480068A2
:1034800040F480303F49086000BF3E48006800F4C7
:10349000003000900198401C0190009818B90198E4
:1034A000B0F5A04FF1D13748006800F4003010B1FA
:1034B0000120009001E0002000900098012860D1D8
:1034C00030484030006840F080502E49403108605C
:1034D0002D48006840F440402B49086029480830D6
:1034E00000682849083108600846006840F4004038
:1034F00008600846006840F4A05008602348091F8F
:103500000860081F006840F08070091F086000BF55
:103510001C48006800F000700028F9D01A480068C4
:1035200040F480301849086000BF1748406800F434
:1035300080300028F9D01448006840F40030124967
:10354000086000BF1048406800F400300028F9D03F
:1035500040F205700E4908600A480830006820F003
:1035600003000849083108600846006840F002007E
:10357000086000BF03480830006800F00C0008280D
:10358000F8D10CBD00380240007000400C5A4007D2
:10359000003C024010B500201449088048801449BE
:1035A00008804FF4C86048804FF47A7240F2CF71BF
:1035B000632000F087F94FF4FA6291009FED0D1A35
:1035C000DFED0D0AB7EE080A0C48FFF7FBFD4FF4DC
:1035D000FA72D1009FED0A1ADFED060A9FED090A83
:1035E00006482C30FFF7EEFD10BD00000C00002057
:1035F00014000020000000000AD7233D94020020A0
:10360000CDCC4C3F9A99993E10B52DED028B604878
:10361000008808B902F0BCF95E48008830B35C4805
:10362000008818B35C4890ED000AD0ED000AB7EEB0
:10363000001A70EE810AC0ED000AF2EE040AB4EE40
:10364000E00AF1EE10FA11DD5448C06E00F51040AA
:103650005249C8664F488088401C4E4988809FED7B
:10366000500A4D4880ED000A0120C8804B4890F870
:103670007A0000287ED1494890ED181AB8EEC11A98
:10368000F0EE410A90ED1B1AB8EEC11AB0EE410AF5
:103690003430FFF729FD08EE100A4048B0F9020067
:1036A00000EE100AB8EEC00AF0EE400AB8EEC80A02
:1036B0003A480830FFF718FD00B23849A1F8740005
:1036C0000846B0F97400002803DD0846B0F974001C
:1036D00003E03248B0F97400404241F638018842B4
:1036E00022DD2E48B0F90200002803DD2B48B0F996
:1036F000020003E02948B0F902004042322813DA00
:10370000284801680068401C264A106032290BDDF9
:103710002548007840B92148C06EA0F590301F4977
:10372000C8660120204908701C4890ED0F0AB5EECC
:10373000C00AF1EE10FA02DD90ED0F0A04E017481E
:1037400090ED0F0AB1EE400ADFED180AB4EEE00A80
:10375000F1EE10FA06D200201349087011490860F2
:103760000C49C8800D48B0F9640064280CDD0B4892
:10377000C16E00E009E0B0F96400A1EB40300749F8
:10378000C8660020A1F8640000BFBDEC028B10BD2C
:10379000140000200C0000201C0000208C020020DF
:1037A0000000000024000020200000200000FA4556
:1037B00030B50146481EB0F1807F01D3012030BDF5
:1037C000481E4FF0E022506150170F22002807DA00
:1037D00013071D0E094B00F00F04241F1D5503E0B5
:1037E00013071C0E064B1C5400BF00204FF0E022B4
:1037F0009061072010610020E1E7000018ED00E073
:1038000000E400E07047000010B51548006840F47F
:103810007000134908601348006840F00100114926
:10382000086000200F49083108600E4800680E4902
:1038300008400C4908600D48091D0860081F006811
:1038400020F48020091F0860002006490C31086020
:10385000FFF710FE4FF0006001498039086010BD8D
:1038600088ED00E000380240FFFFF6FE1030002433
:103870001CB501218020FFF7C5FC02208DF8040053
:1038800000208DF806008DF8070003208DF8050054
:103890004020009069460A48FEF73AFF09220621B7
:1038A0000748FEF77DFF4FF400700090694604481A
:1038B000FEF72EFF092211460148FEF771FF1CBDDD
:1038C000001C024070B588B006460C461546FFF74E
:1038D000CFFF01214020FFF7A5FCADF8146006944E
:1038E0000020ADF81C00ADF8160005A9114800F045
:1038F0000FFB6020ADF800000120ADF802000020B1
:10390000ADF804000295ADF80C00ADF81000ADF86C
:103910000E00ADF812006946064800F061FA6946EB
:10392000044800F09BFA0121024800F032FA08B086
:1039300070BD0000001800403EB505460C46012150
:103940001020FFF76FFCADF8005001940020ADF897
:103950000800ADF8020069460A4800F0D9FA0121D2
:10396000084800F007FA0121064800F012FA012287
:103970001146044800F02AFA002201213620FFF700
:1039800036FB3EBD0010004010B52DED068B9FEDBF
:10399000A90AB0EE408A9FEDA70AF0EE408A9FED9B
:1039A000A50AB0EE409A9FEDA30AF0EE409A9FED73
:1039B000A10AB0EE40AA01219F4800F0F6F90028C4
:1039C00079D09E480068401C9C490860642806DD48
:1039D00080219B48FEF709FF002098490860FFF707
:1039E00013F8012858D0022802D0032800D100E0A3
:1039F00001E1022093490880FDF702FC924890ED16
:103A0000000A9FED921AC0EE010A9FED910A20EE86
:103A1000800AB0EE408A90ED010ADFED8E0A80EE5A
:103A2000201A9FED8B0A21EE000AF0EE408A8A48A8
:103A300090ED000AF2EE000A80EE201AF0EE419AB4
:103A400090ED010AF1EE0C0A80EE201AB0EE41AAC8
:103A50008248007A012806D1002241038048FEF7FF
:103A6000C8FE01F083FF7D48007A022803D07B481E
:103A7000007A032806D1012251037948FEF7B9FEE6
:103A800001F086FF7548007A022801D1012000E08C
:103A9000002074490880AEE06A48408808B9FFF702
:103AA00019FB6848008838B101280DD0022852D08F
:103AB00003287CD197E0B9E000206A4908806A4970
:103AC000088001F053FF90E0684890ED000AB0EEE6
:103AD000408A90ED010AF0EE408A90ED030AB0EEC4
:103AE000409A5E48407C01281AD15C48B0F90A002F
:103AF00000EE100AB8EEC00AF7EE000A20EE200A27
:103B0000F0EE409A5548B0F90C0000EE100AB8EEFD
:103B1000C00AF7EE000A20EE200AB0EE40AA19E033
:103B20004E48B0F90A0000EE100AB8EEC00AF0EEF6
:103B3000000A20EE200AF0EE409A4848B0F90C0046
:103B400000EE100AB8EEC00AF7EE080A20EE200ACE
:103B5000B0EE40AA49E0454890ED000AB0EE408A38
:103B600090ED010AF0EE408A90ED030AB0EE409A23
:103B70003A48407C01281BD13848B0F90A0000EED1
:103B8000100AB8EEC00AF7EE000A20EE200AF0EEA6
:103B9000409A3248B0F90C0000EE100AB8EEC00AA4
:103BA000F7EE000A20EE200AB0EE40AA1AE01BE071
:103BB0002A48B0F90A0000EE100AB8EEC00AF0EE8A
:103BC000000A20EE200AF0EE409A2448B0F90C00DA
:103BD00000EE100AB8EEC00AF7EE080A20EE200A3E
:103BE000B0EE40AA01E000E000BF00BF1B48007C2F
:103BF0001C49088000BF00BFFEF716FFC4B2204674
:103C0000B0EE491AF0EE680AB0EE480AFDF76EFE13
:103C1000FEF710FFC4B22046F0EE4A0AB0EE690A81
:103C2000FEF7D6FB0121044800F0B0F8BDEC068B8E
:103C300010BD000000000000001000403C0000200B
:103C4000001002403E050020AC0400200000254486
:103C50000040CE4500001644C0040020920400201D
:103C6000001802400C00002014000020D4040020A2
:103C70003EB505460C4601212020FFF7D3FAADF8EA
:103C8000005001940020ADF80800ADF8020069462C
:103C90000A4800F03DF90121084800F06BF80121C5
:103CA000064800F076F801221146044800F08EF82C
:103CB000012200213720FFF79AF93EBD0014004091
:103CC00010B50121244800F070F8002843D02348A3
:103CD0000068401C21490860142809DD4FF4804128
:103CE0001F48FEF782FDFEF729FA00201B490860F5
:103CF0001C49488A1C49FEF70DF900F037FC1B48A7
:103D0000C08808B318480088B0F5907F16D0B0F589
:103D1000087F0BD0A0F50050203818B1B0F5005F37
:103D200010D107E00020114908800CE002200F4963
:103D3000088008E001200D49088004E003200B49B9
:103D4000088000E000BF00BF0948FEF79DFA01218E
:103D5000014800F01BF810BD00140040380000209E
:103D60000014024092040020E80400203E050020D8
:103D7000D404002021B1028842F08002028004E0D5
:103D800002884FF67F731A4002807047CA4302824E
:103D9000704721B1028842F00102028004E00288EB
:103DA0004FF6FE731A400280704730B5024600207D
:103DB00000230024158A05EA0103958905EA010418
:103DC00013B10CB1012000E0002030BD1AB183898D
:103DD0000B43838102E083898B438381704700001A
:103DE00070B5002400220023058C4FF6FE76354086
:103DF0000584028C8388048B4FF68F752C40B51E8A
:103E00002C400D882C43751E2A408D892A434D88ED
:103E10002A43104DA84202D00F4DA84213D14FF6AD
:103E2000F7752A40CD892A434FF6FB752A408D88C5
:103E30002A434FF6FF652B404FF6FF552B400D8A66
:103E40002B434D8A2B43838004838D684563028412
:103E500070BD0000000001400004014070B5002466
:103E600000220023058C4FF6EF7635400584028C46
:103E70008388048B48F6FF752C404FF6FF452C4095
:103E80000D884FF6FF7606EA05252C434FF6DF75C1
:103E90002A408D8906EA05152A434D8806EA05154C
:103EA0002A43154DA84202D0144DA8421DD14FF609
:103EB0007F752A40CD894FF6FF7606EA05152A431D
:103EC0004FF6BF752A408D8806EA05152A434FF63E
:103ED000FF352B404FF2FF752B400D8A06EA850512
:103EE0002B434D8A06EA85052B43838004838D6826
:103EF0008563028470BD00000000014000040140A1
:103F00004163704781637047C163704701647047C4
:103F100000220288184B98420ED0184B98420BD0C2
:103F2000B0F1804F08D0164B984205D0154B9842FF
:103F300002D0154B984204D14FF68F731A404B882C
:103F40001A43124B984207D0114B984204D04FF6B7
:103F5000FF431A400B891A4302804B68C3620B88E7
:103F60000385054B984202D0044B984201D18B7ACD
:103F70000386012383827047000001400004014052
:103F80000004004000080040000C00400010004009
:103F90000014004010B540F224410E4800F02BFA06
:103FA000B8B100210C48FDF7B3FE0B48FDF772FFD6
:103FB000042802D10948FDF7CFFF16210648FDF776
:103FC00099FF01210448FDF7A3FE024880880148BB
:103FD000008810BD00100140406402407C040020B5
:103FE00010B586B0044601210220FFF70BF901212C
:103FF0001020FFF727F902208DF814008DF8150026
:1040000001208DF8170000208DF816004020049044
:1040100004A91A48FEF77CFB8020049004A91748E5
:10402000FEF776FB072206211448FEF7B9FB0722AC
:1040300011461248FEF7B4FB00940020ADF80400CE
:10404000ADF80600ADF80800ADF80C000C20ADF896
:104050000A0069460A4800F01DFA022200212520C4
:10406000FEF7C5FF012240F22441054800F0EDF9BA
:104070000121034800F0AAF906B010BD0004024077
:104080000010014030B58FB004460D46012188056F
:10409000FFF7B8F81C48FDF747FE00BF1A48FDF7C8
:1040A000EFFE0028FAD14FF0006000901748019011
:1040B000029400200390049505904FF480600690D0
:1040C0000020079008904FF48070099000020A9039
:1040D00000200B900C900D900E9069460A48FDF759
:1040E000DDFE01210848FDF713FE00BF0648FDF77D
:1040F000C7FE0128FAD1012240210448001F00F028
:1041000071F90FB030BD000040640240041001405E
:104110001CB540F22441184800F06DF958B3002155
:104120001648FDF7F5FD1548FDF7B4FE04461448A2
:104130000078532811D16B4601AA12A11048FCF750
:1041400051F8022808D10198A0F5A0701049086024
:104150000098F0380F49086000BF14210748FDF7A8
:10416000C9FE01210548FDF7D3FD0348001D008865
:104170000148008800BF1CBD004400408860024028
:104180000C05002053535325642C25644500000082
:10419000280000202C00002010B586B00446012124
:1041A0000820FFF72FF801214804FFF73BF8002013
:1041B0008DF8160001208DF8170002208DF81500EB
:1041C0008DF814002020049004A91A48FEF7A0FAE4
:1041D0004020049004A91748FEF79AFA0722052107
:1041E0001448FEF7DDFA072206211248FEF7D8FA36
:1041F00000940020ADF80400ADF80600ADF808000A
:10420000ADF80C000C20ADF80A0069460A4800F031
:1042100041F9032200212620FEF7E9FE012240F2A7
:104220002441054800F011F90121034800F0CEF8BF
:1042300006B010BD000C02400044004010B540F232
:104240002441114800F0D7F8E0B100210F48FDF7F4
:104250005FFD0E48FDF71EFE0446C4F11E0081B24C
:104260000B4A0C48FEF7E8FA1E210848FDF742FE0B
:1042700001210648FDF74CFD0348001D0088024857
:10428000008800BF10BD00000048004028600240C8
:10429000540400202005002010B586B004460121FA
:1042A0000820FEF7AFFF01218804FEF7BBFF0020C6
:1042B0008DF8160001208DF8170002208DF81500EA
:1042C0008DF81400C001049004A91B48FEF720FAE1
:1042D0004FF40070049004A91748FEF719FA07225A
:1042E00008211548FEF75CFA072209211248FEF75B
:1042F00057FA00940020ADF80400ADF80600ADF8C0
:104300000800ADF80C000C20ADF80A0069460B4817
:1043100000F0C0F8032200212720FEF768FE0122EA
:1043200040F22441054800F090F80121034800F0D4
:104330004DF806B010BD0000000C024000480040DF
:1043400030B58FB004460D4601214805FEF75AFFEF
:104350001C48FDF7E9FC00BF1A48FDF791FD002855
:10436000FAD14FF0006000901748019002940020AD
:104370000390049505904FF480600690002007900C
:1043800008904FF48070099000020A9000200B9072
:104390000C900D900E9069460A48FDF77FFD0121B3
:1043A0000848FDF7B5FC00BF0648FDF769FD012888
:1043B000FAD1012240210448001F00F013F80FB089
:1043C00030BD0000286002400448004021B18289CD
:1043D00042F40052828104E082894DF6FF731A4054
:1043E000828170471AB1838A0B43838202E0838AF9
:1043F0008B438382704770B502460024002300255A
:10440000002040F66A16B14200D100BFC1F3421548
:1044100001F01F03012606FA03F3012D02D196894C
:10442000334006E0022D02D1168A334001E0968A1D
:1044300033400C12012606FA04F41688344013B1F6
:104440000CB1012000E0002070BDF0B5034600244F
:1044500000260025002040F66A17B94200D100BFAF
:104460001846C1F3421401F01F06012707FA06F5AA
:10447000012C01D10C3004E0022C01D1103000E0FD
:1044800014301AB107682F43076002E00768AF4392
:104490000760F0BD2DE9FF4705460E460024A14602
:1044A00000BFA046B08900B100BF2C8A24F440545C
:1044B000F08804432C82AC8941F20C608443B088BC
:1044C00031890843718908430443AC81AC8A24F4E0
:1044D0004074B0890443AC826846FEF7C3FE2048AE
:1044E000854202D01F48854202D1DDF80C9001E0E0
:1044F000DDF80890A88900F4004040B109EBC9003C
:1045000000EB091031684900B0FBF1F707E009EB57
:10451000C90000EB091031688900B0FBF1F7642095
:10452000B7FBF0F004012009642101FB1078A88991
:1045300000F4004040B1322000EBC800B0FBF1F0C5
:1045400000F00700044308E0322000EB081064216B
:10455000B0FBF1F000F00F0004432C81BDE8FF87B1
:10456000001001400014014000BFFEE710B500211B
:104570001020FEF731FB18B101200D49888002E0C0
:1045800000200B49888000212020FEF725FB18B170
:1045900001200749C88002E000200549C88005487D
:1045A000408A18B900200249C880888010BD0000E8
:1045B0003E0500209204002003B4019841000098B9
:1045C00050EAC12018BF04204A0D18BF40F0010076
:1045D00040F2FF72B2EB515F08BF40F002000128C9
:1045E00008BF052002B0704770B59B482DED020B47
:1045F0002DED068B079D25F00044A04218DC97485E
:10460000844202DC0AD1069840B19DED060BBDEC58
:10461000068B02B0BDE8704001F006B9002DCCBF9A
:104620009FED8F0B9FED900BBDEC068B02B070BD24
:104630008F48A04215DD8F48A042D8BF4FF0FF340D
:1046400058DD9DED060B51EC100BFFF7B5FF04286C
:1046500008BF01F01DF99DED060BBDEC068B02B005
:1046600070BD9DED060B51EC100B01F073F9CDE917
:10467000060181489FED828BA0423CDD8248A0422A
:104680001FDD00249FED82AB9DED060B53EC1A2B32
:1046900051EC100BFBF768FE9DED060B41EC190B7E
:1046A00053EC1A2B51EC100BFCF72CF853EC182B95
:1046B000FBF7FBFE53EC192BFCF796F8CDE906014E
:1046C00049E09DED060B012453EC182B51EC100B27
:1046D000FBF74AFE9DED060B41EC190B53EC182B32
:1046E00051EC100BFBF7E1FE53EC192BFCF77CF8B7
:1046F000CDE906012FE06848A0421FDD02249FEDAE
:10470000689B9DED060B53EC192B51EC100BFBF73E
:10471000F9FF53EC182BFBF727FE9DED060B41EC40
:10472000180B53EC192B51EC100BFBF7BEFE53EC9E
:10473000182BFCF759F8CDE906010CE09DED060BAE
:10474000032453EC102B9FED580B51EC100BFCF78E
:104750004BF8CDE906019DED060B53EC102B51EC07
:10476000100BFBF7CFFF41EC180B53EC182BFBF7AA
:10477000C9FF41EC190B4E480621B0EE490AF0EE94
:10478000690A784400F0BCFF53EC182B51EC100B75
:10479000FBF7B8FF41EC180B4648B0EE490AF0EEC3
:1047A000690A0521784400F0ABFF53EC192B51EC5A
:1047B000100BFBF7A7FF41EC100B51EC180B53EC5F
:1047C000102B002C0EDAFBF7CFFD9DED061B53ECF2
:1047D000112BFBF797FF9DED061B53EC112BFBF7FD
:1047E00067FE35E0FBF7C0FD9DED061B53EC112B7A
:1047F000FBF788FF41EC100B2F48784400EBC40016
:1048000090ED001B51EC100B53EC112BFBF74DFE00
:104810009DED061B53EC112BFBF747FE41EC100BF3
:104820002648784400EBC40090ED001B51EC100BBF
:1048300053EC112BFBF73CFE41EC100B002DA2BFFB
:10484000BDEC068B02B070BD51EC100B81F0004145
:1048500041EC100B01E70000000010440000F07F65
:10486000182D4454FB21F93F182D4454FB21F9BF66
:104870000000DC3F0000203E0000F33F000000008D
:10488000000000000000F03F0000E63F00000000D4
:104890000000000000000040008003400000000015
:1048A000000000000000F83F000000000000F0BF22
:1048B0009214000048140000D21300008A13000074
:1048C00070B56B4E2DED040B2DED028B82B0DDF833
:1048D0001CC0DDE905235C422CF000411C4341EA89
:1048E000D474049D22F00040B44205D86C422C439D
:1048F00040EAD474B4420BD99DED061B9DED040B28
:1049000002B0BDEC028B04B0BDE8704000F096BF71
:10491000ACF14054A4F17F641C430BD0022404EAA0
:10492000AC7444EAD27405439FED538B9FED542B36
:1049300007D015E09DED040B51EC100B00F0DEFFED
:1049400042E0002C11BF012C9DED040B02B0BDEC28
:10495000028B04BF04B070BD022C38D0032C3BD0B6
:104960000B439FED491B9FED4A0B0AD0B14218D172
:10497000B04209D121F0804120F08040079105909C
:104980000FE0002A15DA10E0434B7B44002C08BFEF
:1049900093ED000B0DD0012C10D0022C17D0032C5E
:1049A0001AD0B0421DD1002A03DAB0EE410AF0EE6F
:1049B000610A02B0BDEC028B04B070BD93ED000B38
:1049C00051EC100B81F0004141EC100BF1E7B0EE1F
:1049D000480AF0EE680AECE7B0EE420AF0EE620A2E
:1049E000E7E7401A00153C28C8BF8DED000B19DC25
:1049F000BCF1000FBEBF10F13C0F9FED290B8DEDF8
:104A0000000B0FDB9DED060B53EC102B9DED040B03
:104A100051EC100BFBF7E8FE00F09CFF00F06EFF7E
:104A2000CDE90001002C08BF9DED000BC1D0012C89
:104A300010D0022C9FED1C0B53EC102B9DED000BA6
:104A400051EC100B0DD0FBF730FD53EC182BFBF79E
:104A50002CFDB9E7019880F0004001909DED000B1E
:104A6000A7E7FBF722FD53EC182BFBF721FDABE783
:104A70000000F07F00000000182D4454FB21094085
:104A8000182D4454FB2109C0182D4454FB21F9BFB3
:104A9000182D4454FB21F93FBA1200000000000019
:104AA0000000000000000000075C143326A6A13CB3
:104AB0002DE9F04D2DED040B2DED0E8B96B0DDE9BB
:104AC0002550279CDDF890A025F0004624F00048F2
:104AD000BAF1000F14BF0121002101EB4502FC498E
:104AE00053184A1093422AD3002814BF01230023ED
:104AF00003EB44030B44F7498B4220D358EA0001EF
:104B00009FEDF59B76D0DFF8D8B35D4503D1BAF1C0
:104B1000000F05D188E0BAF1000F08BF002100D0D6
:104B2000012101EB450111F5001F08D8002814BF31
:104B30000121002101EB440111F5001F0BD99DED6E
:104B4000261B9DED240B16B0BDEC0E8B04B0BDE80A
:104B5000F04D00F073BE0027002DBCBFE149884531
:104B600021DAE1498845A8BF02271CDAC3451ADCCF
:104B7000DE4901EB2851142908DDC1F1340220FA85
:104B800002F101FA02F282420DD108E058B9C1F1F6
:104B9000140228FA02F101FA02F2424503D101F0AF
:104BA0000101C1F1020756EA0A0124D1002C22DAE0
:104BB000002D18BF022F01D0012F0AD0022000F0D3
:104BC00087FE16B0BDEC0E8B04B0BDE8F04D00F0D2
:104BD00013BE022000F07CFE00F00EFE51EC100B24
:104BE00081F0004141EC100B16B0BDEC0E8B04B00F
:104BF000BDE8F08D18E09FEDBEAB9FEDBF8B0028A8
:104C000071D1B848804522D105F1804010F580105F
:104C100008BFBAF1000F07D0B3450ADC002CA8BFCB
:104C20009DED260BE0DA0DE0B0EE490AF0EE690AE0
:104C3000DAE7002C06DA9DED260B51EC100B81F023
:104C400000416FE0AE48784490ED000BCCE7D845CA
:104C50004DD1002C48DA2EB186423AD1BAF1000F7C
:104C600042D126E0BAF1000F13D0022000F030FE4E
:104C700000F0FEFD8DED020B9DED240B8DED000B84
:104C800010EE900A039961F31E0003909DED020B54
:104C9000AAE78DED02AB9DED240B1AEE901A10EEF3
:104CA000900A8DED000B61F31E0003909DED020B49
:104CB0009AE78DED028B9DED240B18EE901A10EE05
:104CC000900A8DED000B61F31E0003909DED020B29
:104CD0008AE709DA9DED240B51EC190B53EC102BEC
:104CE000FBF782FD1EE020E09DED240B7CE7864271
:104CF0001BDAB4F1804F0DD0A4F10050B0F1FF5099
:104D000013D1002D11DB9DED240B51EC100B00F0A5
:104D1000C9FE07E09DED240B53EC102B51EC100B5A
:104D200000F0C2BC41EC100B5EE79DED240B51EC92
:104D3000100B00F00FFEBAF1000FCDE90E0142D1C9
:104D40009FED710B46B3A6F1E040B0F17F600CD04F
:104D50005E4538D1002D00DAA7B3022F0CBF012029
:104D60004FF0FF30FBF7C6FDDCE7002D01DD002C26
:104D70000DDA002D01DD002C1FDB002D16DA002CD2
:104D800014DB012F08BF9FED620B3FF42DAFB0EE97
:104D90004A0AF0EE6A0A27E7022F18BF002D0CD04E
:104DA000012F0AD1002DFFF61FAF06E0002DB8BF7E
:104DB000002C08DA012F3FF417AFB0EE480AF0EEEE
:104DC000680A11E71BE0012000EBE57050EA0701DB
:104DD00015D0791EB0EE498AF0EE698A084308BF03
:104DE0009FED4D8B4E480025804570DD4D494E4866
:104DF000884514DDB0420DDB002C19DB2FE00120CB
:104E000000F066FD16B0BDEC0E8B04B0BDE8F04DB1
:104E100000F01EBDB34502DC002C09DC1FE0864219
:104E200002DA002C1BDA03E05E452BDD002C16DDD8
:104E3000022000F04DFD00F01BFD8DED020B53EC48
:104E40001A2B51EC180BFBF75DFCCDE9000103991F
:104E5000019861F31E0003909DED020BC4E6022051
:104E600000F036FD00F014FD10EE901A18EE900AD6
:104E70008DED020B8DED008B61F31E0003909DED17
:104E8000020BB1E69DED0E0B53EC192B51EC100B00
:104E9000FBF70BFB9FED260BCDE9080153EC102B24
:104EA0009DED080B51EC100BFBF72CFC9FED221B2A
:104EB00053EC112BFBF7FCFA9DED081B53EC112B67
:104EC000FBF720FC9FED1E1B53EC112B3CE08CE00C
:104ED000FFFF1F00FFFF0F00000000000000F03F79
:104EE0000000F03F0000F07F0000404301FCFFFFA6
:104EF000000000000000F07F000000000000000043
:104F0000FE0F000000000000000000000000008014
:104F1000000000000000F0FF000000000000F0BFF3
:104F20000000E0410000F043FFFFEF3F0000000001
:104F3000000000000000D03F555555555555D53F50
:104F4000000000000000E03FFBF7B2FA9DED080B07
:104F500041EC1A0B53EC102B51EC100BFBF7D2FB6E
:104F600053EC1A2BFBF7CEFB41EC1A0B9FEDFE0B1B
:104F700053EC102B9DED080B51EC100BFBF7C2FB13
:104F800041EC1B0B9FEDFA0B51EC1A0B53EC102B61
:104F9000FBF7B8FB41EC1A0B9FEDF70B53EC102B12
:104FA0009DED080B51EC100BFBF7ACFB53EC1A2BEF
:104FB000FBF77BFA41EC1A0B51EC1B0B53EC1A2B51
:104FC000FBF7D2F90690CDE906519DED060B53ECA7
:104FD0001B2B51EC100BFBF768FA53EC1A2BFBF769
:104FE00067FA41EC100B00F0A1B90020B6F5801F64
:104FF0000EDA9FEDE30B53EC102B9DED0E0B51ECF5
:10500000100BFBF77FFBCDE90E016FF034000E466D
:1050100000EB2650A0F2FF37C6F31300DA4940F048
:105020007F6646F040568842D8BF002408DDD74945
:105030008142C8BF012403DC0024A6F580167F1C32
:10504000D348784400EBC4000F9690ED00CB9DED63
:105050000E0B53EC1C2B51EC100BFBF726FA9DEDBD
:105060000E0B41EC1B0B53EC1C2B51EC100BFBF704
:105070007BF941EC100B51EC190B53EC102BFBF7A7
:10508000B3FB41EC1D0B51EC1B0B53EC1D2BFBF741
:1050900039FB41EC1A0BBF488DED10AB78441095ED
:1050A00090ED000B4FF0005040EA660000EB8440AA
:1050B0008DED080B00F5002009909DED080B53ECD9
:1050C0001C2B51EC100BFBF7F0F99DED0E1B53EC74
:1050D000112BFBF7EDF941EC100B53EC102B9DED70
:1050E000100B51EC100BFBF70DFB9DED080B41EC89
:1050F0001C0B53EC102B9DED100B51EC100BFBF720
:1051000001FB53EC1B2BFBF7D3F953EC1C2BFBF7E8
:10511000CCF953EC1D2BFBF7F5FA41EC1C0B53ECCF
:105120001A2B51EC1A0BFBF7EDFA41EC1B0B9A48CA
:105130000621B0EE4B0AF0EE6B0A784400F0E0FA7C
:10514000B0EE401AF0EE601AB0EE41DAF0EE61DA3D
:1051500053EC1B2B51EC1B0BFBF7D4FA53EC1D2B20
:10516000FBF7D0FA9DED100B41EC1B0B53EC1A2B07
:1051700051EC100BFBF7F8F853EC1C2BFBF7C2FAC1
:1051800053EC1B2BFBF7F0F89DED100B41EC1B0BC8
:1051900053EC102B51EC100BFBF7B4FA41EC1D0B48
:1051A0009FED7FEB53EC1E2BFBF7DEF853EC1B2B34
:1051B000FBF7DAF80890CDE908519DED080B53ECA8
:1051C0001E2B51EC100BFBF770F953EC1D2BFBF76A
:1051D0006CF953EC1B2BFBF76BF99DED080B41ECC5
:1051E0001D0B53EC102B9DED100B51EC100BFBF72E
:1051F00089FA41EC1B0B53EC1A2B51EC1D0BFBF7FE
:1052000081FA9DED080B41EC1A0B53EC102B51EC7D
:105210001C0BFBF777FA53EC1A2BFBF7A5F841ECC4
:105220001A0B51EC1B0B53EC1A2BFBF79DF80C904F
:10523000CDE90C519DED0C0B53EC1B2B51EC100BDD
:10524000FBF733F953EC1A2BFBF732F941EC1B0B4C
:105250009FED550B53EC102B9DED0C0B51EC100BEF
:10526000FBF750FA41EC1A0B9FED510B51EC1B0B65
:1052700053EC102BFBF746FA41EC1B0B9FED4E0B4A
:1052800053EC102B9DED0C0B51EC100BFBF73AFA85
:1052900053EC1B2BFBF768F841EC100B48487844A3
:1052A00000EBC40090ED001B51EC100B53EC112BE4
:1052B000FBF75AF841EC1B0B3846FBF71BFBCDE91B
:1052C000080153EC1B2B51EC1A0BFBF74DF841EC8A
:1052D000100B3C48784400EBC40090ED00CB51EC3F
:1052E000100B53EC1C2BFBF73FF89DED081B53EC08
:1052F000112BFBF739F80690CDE906519DED080B0F
:1053000053EC102B9DED060B51EC100BFBF7CDF879
:1053100053EC1C2BFBF7C9F853EC1A2BFBF7C5F821
:1053200053EC1B2BFBF7C4F841EC100B9DED261B37
:1053300053EC102B8DED001B00959DED260B51ECD1
:10534000100BFBF7DFF99DED000B41EC1A0B53EC52
:10535000102B9DED260B51EC100BFBF7A6F89DEDE5
:10536000061B53EC112B2FE0000000604715F73FA0
:10537000FE822B654715F73F44DF5DF80BAE543EC8
:1053800000000000000040438E9803007AB60B0036
:10539000E20A0000A80B00001A0A0000000000004A
:1053A0000000000000000840000000E009C7EE3FD8
:1053B000FD033ADC09C7EE3FF5015B14E02F3EBE6A
:1053C000A608000060080000FBF79CF953EC1A2BBC
:1053D000FAF7CAFF9DED060B41EC1A0B53EC102BAC
:1053E0009DED000B51EC100BFBF78CF9CDE90C0196
:1053F0009DED0C0B51EC1A0B53EC102BFAF7B4FF8C
:10540000CDE902010C46AA498C422FDB611A084300
:1054100018D19DED0C0B53EC102B9DED020B51ECB4
:10542000100BFBF742F841EC1B0B9FEDA30B51EC6B
:105430001A0B53EC102BFAF797FF53EC1B2BFBF7CF
:105440006BFA2DD2022000F043FA00F011FA10EEB0
:10545000901A18EE900A8DED020B8DED008B61F322
:105460001E0003909DED020BFFF7BEBB944A24F093
:105470000041914214D39349214408437FF4EFAC97
:105480009DED0C0B53EC102B9DED020B51EC100B12
:10549000FBF70BF853EC1A2BFBF73EFA7FF6DFAC69
:1054A00024F000408849894A002601EB20518242BD
:1054B0002BDA481C4FF4801121FA00F02044844A72
:1054C000C0F30A517A44A1F2FF3192ED000B814AF8
:1054D0008DED080BCA4020EA0202C0F3130040F42D
:1054E0008010C1F1140120FA01F60992002CB8BF16
:1054F00076429DED080B53EC102B9DED0C0B51ECFF
:10550000100BFAF7D2FFCDE90C019DED0C0B51EC1D
:105510001A0B53EC102BFAF727FF9FED6F0B089037
:10552000CDE9085153EC102B9DED080B51EC100BFD
:10553000FBF7E8F841EC1B0B9FED690B53EC102BCC
:105540009DED080B51EC100BFBF7DCF89DED0C0BFF
:1055500041EC1C0B53EC102B9DED080B51EC100B88
:10556000FAF7A3FF53EC1A2BFAF7A2FF9FED5E1B8D
:1055700053EC112BFBF7C6F853EC1C2BFAF7F4FE97
:1055800041EC1A0B51EC1B0B53EC1A2BFAF7ECFE07
:10559000CDE902019DED020B53EC1B2B51EC100BDE
:1055A000FAF783FF53EC1A2BFAF782FF9DED020BFB
:1055B00041EC1A0B53EC102B51EC100BFBF7A2F83B
:1055C000CDE908014A489DED080B0521784400F01B
:1055D00097F89DED081B51EC100B53EC112BFBF7CA
:1055E00091F89DED021B53EC112BFAF761FFCDE909
:1055F00006019DED020B53EC1A2B51EC100BFBF73F
:1056000081F853EC1A2BFAF7AFFE9FED3B0B41EC00
:105610001A0B53EC102B9DED060B51EC100BFAF707
:1056200044FF9DED060B41EC1B0B53EC102B9DED45
:10563000020B51EC100BFBF765F853EC1B2BFBF73F
:10564000D3F853EC1A2BFAF730FF9DED021B53EC05
:10565000112BFAF72AFF53EC192BFAF729FFCDE9A2
:10566000020101EB065001150029C8BF039015DCAB
:105670009DED020B324651EC100BFBF724F9FEF7BF
:105680009BFF042808BF00F003F932469DED020B92
:1056900051EC100BFBF717F9CDE902019DED020B60
:1056A00051EC180B53EC102BFBF72CF8FFF73ABB1F
:1056B0000000904000000000FE822B654715973CDB
:1056C00000CC904000346F3F01FCFFFF0000E03F42
:1056D00080070000FFFF0F0000000000432EE63FA0
:1056E000396CA80C615C20BEEF39FAFE422EE63F11
:1056F000B8050000000000000000000000000040AD
:1057000070B504462DED028B4D1E00EBC500B0EECA
:10571000408AF0EE608A90ED000B35F0060017D05D
:1057200053EC182B51EC100BFAF7ECFF41EC100B7B
:105730006D1E04EBC50090ED001B51EC100B53ECFB
:10574000112BFAF711FE41EC100B35F00600E7D1F2
:10575000022D36D0042D1CD0062D1CBFBDEC028BB3
:1057600070BD53EC182B51EC100BFAF7CBFF94EDF6
:105770000A1B53EC112BFAF7F7FD53EC182BFAF731
:10578000C1FF94ED081B53EC112BFAF7EDFD41EC32
:10579000100B53EC182B51EC100BFAF7B3FF94EDF0
:1057A000061B53EC112BFAF7DFFD53EC182BFAF71D
:1057B000A9FF94ED040B53EC102BFAF7D5FD41EC47
:1057C000100B53EC182B51EC100BFAF79BFF94EDD8
:1057D000021B53EC112BFAF7C7FD53EC182BFAF709
:1057E00091FF94ED001B53EC112BFAF7BDFDBDECBE
:1057F000028B41EC100B70BD9FED070B10B553EC05
:10580000102B9FED070B51EC100BFAF7EDFF41EC5D
:10581000100B10BD000000000000000000000000A0
:10582000000000000000F03F10B553EC102B51ECCD
:10583000100BFAF799FD41EC100B10BD10B553ECAD
:10584000112B51EC100BFAF78FFD41EC100B10BD32
:105850009FED050B10B553EC102B51EC100BFAF724
:10586000C3FF41EC100B10BD000000000000000061
:105870009FED050B10B553EC102B51EC100BFAF704
:1058800041FF41EC100B10BD000000000000007053
:105890009FED050B10B553EC102B51EC100BFAF7E4
:1058A00031FF41EC100B10BD0000000000000010A3
:1058B00002E008C8121F08C1002AFAD170477047D9
:1058C000002001E001C1121F002AFBD17047000037
:1058D000014908607047000068000020B5EEC00A6A
:1058E000F1EE10FA00DB00BFB5EEC00AF1EE10FADF
:1058F00003D2F1EE400AB0EE600A704710B541ECF9
:10590000100BFEF771FE51EC100B10BD70B5044684
:105910000F4800684FF47A71B0FBF1F52846FDF7A7
:1059200047FF002008E000BF4FF0E021096901F4C3
:1059300080310029F8D0401CA042F4D34FF0E02081
:10594000006920F001004FF0E021086170BD000007
:105950004400002082B0CDE9000121F00040019018
:105960009DED000B02B051EC100B704710B54FF4D9
:105970006170054908804FF47A7000F029F8002022
:105980000249088010BD000018000020140000200B
:1059900010B50D48008864300B490880084600881F
:1059A00000F016F8094840880749098888420ADA51
:1059B0000649488800F00CF80448408802490880ED
:1059C00001200249088010BD1800002014000020AA
:1059D00010B50446B4F5FA6F01DD4FF4FA64B4F57E
:1059E0007A7F01DA4FF47A74054821460268054847
:1059F00090470348214642680248904710BD000086
:105A0000145B0008001800404FF4A060FDF740FB55
:105A1000FDF760FBFDF734F9FDF706F94FF4E130CF
:105A2000FEF7BAFBFCF7FCFEFBF708FBFCF764FA99
:105A300042F20F715920FEF71BF94FF4FA60FFF79D
:105A400065FFFBF701FFFCF7BBF8FDF7A3FD42F292
:105A50000F715920FDF770FF00BFFEE74168002974
:105A600002DC9FED0D0A70470268511C016041681D
:105A70008A4201DB4168016090ED000AF8EEC00A3D
:105A800090ED010AB8EEC00A80EE801A80ED021A8D
:105A900090ED020AE7E7000000000000002202602B
:105AA0004160704700B52DED048B83B041EC190BBC
:105AB000FBF708F941EC180B18EE100A18EE901AD3
:105AC0008DED008B002818BF0120084320F0004016
:105AD000C0F17F6000F1E040C00F14D019EE101A41
