:020000040800F2
:100000007035012021030008451000088B0F0008FF
:1000100041100008F10E0008231200080000000043
:100020000000000000000000000000006102000865
:10003000F50E000800000000BD020008891100084C
:100040003B0300083B0300083B0300083B03000898
:100050003B0300083B0300083B0300083B03000888
:100060003B0300083B0300083B0300083B03000878
:100070003B0300083B0300083B0300083B03000868
:100080003B0300083B0300083B0300083B03000858
:100090003B0300083B0300083B0300083B03000848
:1000A0003B0300083B0300083B0300083B03000838
:1000B0003B0300083B0300083B0300083B03000828
:1000C0003B0300083B0300083B0300083B03000818
:1000D0003B0300083B0300083B0300083B03000808
:1000E0003B0300083B0300083B0300083B030008F8
:1000F0003B0300083B0300083B0300083B030008E8
:100100003B0300083B0300083B0300083B030008D7
:100110003B0300083B0300083B0300083B030008C7
:100120003B0300083B0300083B0300083B030008B7
:100130003B0300083B0300083B0300083B030008A7
:100140003B0300083B0300083B0300083B03000897
:100150003B0300083B0300083B0300083B03000887
:100160003B0300083B0300083B0300083B03000877
:100170003B0300083B0300083B0300083B03000867
:100180003B0300083B0300083B0300083B03000857
:100190003B0300083B0300083B0300083B03000847
:1001A00000000000000000003B03000800F002F81F
:1001B00000F046F80AA090E8000C82448344AAF1BB
:1001C0000107DA4501D100F03BF8AFF2090EBAE8B9
:1001D0000F0013F0010F18BFFB1A43F0010318477B
:1001E0001431000034310000103A24BF78C878C1BF
:1001F000FAD8520724BF30C830C144BF04680C602D
:10020000704700000023002400250026103A28BF74
:1002100078C1FBD8520728BF30C148BF0B60704778
:10022000002070471FB503F059F89DE8030000F067
:1002300031FC00F021FA1FBD10B500F086FA10BDA8
:1002400000F0EEFA1146FFF7EDFF01F02BF800F099
:10025000F3FB03B4FFF7F0FF03BC00F0ADFD0000BB
:100260002C4B19680868B0E8F04F80F30988BFF399
:100270006F8F4FF0000080F311887047000000007E
:1002800008480068006880F308884FF0000080F399
:10029000148862B661B6BFF34F8FBFF36F8F00DF74
:1002A00000BF00BF08ED00E0DFF80C00016841F47A
:1002B00070010160704700BF88ED00E0EFF3098036
:1002C000BFF36F8F134B1A681EF0100F08BF20ED9D
:1002D000108A20E9F04F106009B44FF0500080F30D
:1002E0001188BFF34F8FBFF36F8F02F055F84FF0B7
:1002F000000080F3118809BC19680868B0E8F04F65
:100300001EF0100F08BFB0EC108A80F30988BFF30D
:100310006F8F704764000020EFF305807047000086
:100320000948804709480047FEE7FEE7FEE7FEE789
:10033000FEE7FEE7FEE7FEE7FEE7FEE704480549C5
:10034000054A064B7047000099110008AD010008EE
:10035000702F012070350120703101207031012093
:100360000FB4044910B503AA029800F003F910BCB9
:100370005DF814FB682E01202DE9F0474FF0000ACC
:1003800089460446C0F820A02046E1688847002836
:1003900076D0252806D0D4E901219047206A401C58
:1003A0002062F1E7E168204600258847C4F81CA0D8
:1003B00006460027C4F818A02A2E09D0304600F0BF
:1003C00032FF38B304EB8708303EC8F8186019E0F4
:1003D00059F8041B204604EB87029161E1688847C5
:1003E000012F064618D1E069002820DA25F0200503
:1003F0001DE0D8F8180000EB800006EB4000303814
:10040000C8F818002046E1688847064600F00BFF50
:100410000028EED1012F0AD02E2E08D12046E16807
:1004200088477F1C0646022F45F02005C4DBA069E3
:10043000002803DA404245F00105A061E80701D039
:1004400025F01005B6B1A6F14100192802D82036D2
:1004500045F400654A463146204625604D46FFF783
:10046000DFFE58B1012806D0ED1D25F0070000F190
:10047000080989E704E005F1040985E730468AE7C1
:10048000206ABDE8F087032A40F2308010F0030CA8
:1004900000F0158011F8013BBCF1020F624498BFD7
:1004A00011F801CB00F8013B38BF11F8013BA2F174
:1004B000040298BF00F801CB38BF00F8013B11F0EF
:1004C000030300F06980083AC0F0088051F8043B4B
:1004D000083A51F804CBA0E80810F5E7121D5CBFFC
:1004E00051F8043B40F8043BAFF30080D20724BF2F
:1004F00011F8013B11F801CB48BF11F8012B24BFC3
:1005000000F8013B00F801CB48BF00F8012B704711
:1005100002F0FF0343EA032242EA024200F070B80D
:100520004FF0000200B5134694469646203922BF8C
:10053000A0E80C50A0E80C50B1F12001BFF4F7AFD7
:10054000090728BFA0E80C5048BF0CC05DF804EBB9
:10055000890028BF40F8042B08BF704748BF20F827
:10056000022B11F0804F18BF00F8012B7047704725
:1005700070477047074B70B50D467B4400F065F837
:100580000446284600F074F810B14FF0FF3070BDFB
:10059000204670BDB70C000010B5203AC0F00B80AB
:1005A000B1E81850203AA0E81850B1E81850A0E877
:1005B0001850BFF4F5AF5FEA027C24BFB1E81850D1
:1005C000A0E8185044BF18C918C0BDE810405FEA41
:1005D000827C24BF51F8043B40F8043B08BF7047BD
:1005E000D20728BF31F8023B48BF11F8012B28BFC2
:1005F00020F8023B48BF00F8012B70474FF0000283
:100600000429C0F0128010F0030C3FF48BAFCCF142
:10061000040CBCF1020F18BF00F8012BA8BF20F892
:10062000022BA1EB0C01FFF77DBF5FEAC17C24BF69
:1006300000F8012B00F8012B48BF00F8012B704790
:1006400001694A1C02610878704700B58FB0CDE996
:1006500001310021059105497944CDE90310114686
:100660006846FFF789FE0FB000BD0000E5FFFFFF01
:10067000007B00F08000704710B542485421FFF71E
:100680004FFF41485421FFF74BFF40485421FFF7EB
:1006900047FF3F493B483C4A3F4B08603D490A60A1
:1006A0003A491960531C0365481C10650120086510
:1006B0003B48344A39A1784400F022F920B938483F
:1006C00078440A3800F0C1F937482F4A35A17844F8
:1006D00000F016F920B9344878440A3800F0B5F92A
:1006E00032482A4A2FA1784400F00AF920B92F484D
:1006F00078440A3800F0A9F940232248DC000021A0
:10070000224600F0D9F820B125487844543800F04A
:100710009CF91D4822464023002100F0CDF820B16D
:1007200021487844543800F090F9184822461023A4
:10073000002100F0C1F8002806D01C487844BDE82C
:100740001040563800F081B910BD104870B5006DEA
:1007500020F001040B4800F049F90B4800F046F97D
:100760000A4800F043F909E0206D20F00105204619
:1007700000F03CF9204600F078F82C46002CF3D12C
:1007800070BD0000142E0120682E0120BC2E012017
:10079000D8000020DC000020E000002072000000F3
:1007A0002C2C000077000000182C0000042C000006
:1007B0000EB5CDE9000100F0DFFA02906946012094
:1007C000ABBE0EBD08B5694600900220ABBE08BDA9
:1007D0001FB58DE8070069460520ABBE04B010BD0B
:1007E0001FB58DE80F0069460620ABBEF6E708B5D9
:1007F000694600900920ABBE08BD1CB5CDE90001DB
:1008000069460A20ABBE1CBD704708B5694600901A
:100810000C20ABBE08BD000000487047102F01201F
:100820007546FFF7F9FFAE4605006946534620F0CE
:100830000700854618B020B5FFF780FDBDE82040D1
:100840004FF000064FF000074FF000084FF0000B8C
:1008500021F00701AC46ACE8C009ACE8C009ACE83F
:10086000C009ACE8C0098D46704770B50446051F45
:1008700000F0F4F80068002C14BF446870BD002C30
:1008800018BFAC423CBF20466468F8D301680A1820
:10089000AA4218BF456003D12A6805461144016089
:1008A00028684119A1421CBF6C6070BD6168696015
:1008B00021680844286070BD70B5C468A50713D0CE
:1008C000650211D4B2F5807F09D0B2F5007F06D061
:1008D000B2F5806F08D1012300F1240106E05D1E0E
:1008E0006FF07F46B54201D3012070BD0161C36145
:1008F000416024F470611143C160002070BD0000AC
:100900002DE9F0410C4607461646104600F06EF8F9
:100910002078611C61280AD0722802D077283CD147
:1009200002E00125002405E00225042402E0082459
:1009300048F2020511F8010B2B2806D0622809D0D5
:1009400011F8010C74280AD00BE045F0030544F0BF
:100950000204EFE745F0040544F00104EAE744F03F
:10096000100438462146FFF723FF411C15D0002113
:10097000316171604FF40071F560F16170612007C1
:1009800004D530460222002100F0E2F8306D40F03C
:10099000010030653046BDE8F0810020FBE72DE91D
:1009A000F0410D460646104C206DC10704D04108A9
:1009B00004D020F00104F7E722460EE0542000F0B6
:1009C00098F807000ED0206D47F00101084354212C
:1009D00020653846FFF7A4FD3A4629463046BDE873
:1009E000F0418DE70020D6E7142E01202DE9F047D5
:1009F00004464FF000094FF0FF37C568D4E904867C
:100A0000A80707D0204600F053F93046FFF7DAFE7A
:100A1000002802DA3846BDE8F087280502D54046AE
:100A2000FFF723FF4C212046FFF77AFD206D20F0D1
:100A3000010020654846EEE710B50446AFF300809C
:100A40002046BDE81040FFF704BC10B500F07AF96D
:100A5000BDE8104000F070B97047000000487047D2
:100A6000182F0120704770477047704738B504460B
:100A70000A4600206946AFF30080002808BF38BD51
:100A800002460099204600F0A4F9012038BD01205B
:100A900000F0F3B9F8B5AFF30080054600200C462E
:100AA000102000BF0646A819A0420DD9324669465B
:100AB0000020AFF30080070008BF00F0DEF90098C7
:100AC000A04218BF0546C419FFF7C8FF05600746D6
:100AD000F01D20F007004619284600F073F9B442D3
:100AE00008BFF8BDA21B31463868BDE8F84000F0E9
:100AF00070B970B50646FFF7B1FF056806F10B0047
:100B000020F00704B4429CBF002070BD2B466A68E9
:100B1000BAB11068A04210D304F1080188423CBF6A
:100B20005068586007D35168101941601168091B5B
:100B3000016058601460101D70BD13465268002A91
:100B4000E7D121462846FFF791FF0028DED170BD8E
:100B50002DE9F041044616460D464769007B8007A3
:100B60002ED03846FFF743FE50BB3EB3012E02D0D5
:100B7000022E25D104E0204600F045F905441DE091
:100B80003846FFF742FEE168002841F01001E160BD
:100B900005DA204600F058F80120BDE8F081C903CD
:100BA0000BD56268E16A914200D81146A2691144EE
:100BB0002269891A814200DD08460544002D01DAC8
:100BC0000220EAE7E16A6068E268814206D29103A6
:100BD000E06203D522F4003141F01002A66900273B
:100BE000AE4213DCE16A814201D90B4600E00346C4
:100BF00003EB060C2369ACEB030CAC4506DD81422C
:100C000001D98C4600E084469C4505D1A760276049
:100C100042F02000A5620DE0AD1BE669AE1B8142EB
:100C2000A66000D90846C01A281A206058196060CA
:100C300022F0200003490840E060002084F848705A
:100C4000ABE70000BFCFD7FFC16821F4001141F02E
:100C50008001C16000218160016070472DE9F0478B
:100C6000814614460E464FF0FF383248D568576922
:100C7000054209D03846A169FFF7BFFD002811DB06
:100C80002C48C0430540E5602B463246494638466D
:100C9000FFF79EFDA16920F00042B21A114400281E
:100CA000A16103D02046FFF7CFFF4046BDE8F087A3
:100CB00070B504460569C06A6168884200D8084674
:100CC000E16821F42011E160C90312D5A84208D0DF
:100CD0002246411B2846FFF7C1FF10B14FF0FF30FD
:100CE00070BD0020E562C4E90150E06820F4803066
:100CF000E060002070BD10B50446C06820F0200000
:100D0000E060A16AA06988420DD02046FFF7D0FFBD
:100D1000E06820F4405040F01000E060A06AA0615C
:100D20002069E062606044F24001E0688843E0606E
:100D300010BD000010000200002801D000F03CB8F7
:100D40007047000010B5014602A000F07DF80120B8
:100D500010BD000053494752545245443A20526551
:100D60006469726563743A2063616E2774206F70E2
:100D7000656E3A200000000010B5431C02E010F838
:100D8000011B71B18107FAD14FF0013202C88C1AF0
:100D90008C4314EAC211F9D0C01A0A0603D0C01E4F
:100DA00010BDC01A10BD0A0401D0801E10BD09027A
:100DB000FCD0401E10BD000001491820ABBEFEE76C
:100DC0002600020000210160C0E9011070471020D8
:100DD0007047034640688C46002818BF88423CBFD5
:100DE00003464068F8D318681844884207D00CF1CD
:100DF000030020F00700001D411A521A0146081D89
:100E00000A60FFF732BD10B50146C268900703D0F3
:100E1000900607D5886A0AE000F03EF801210160DB
:100E2000881E10BD8B69486818440B69C01A91F878
:100E300048301BB191F84910401A10BD1103FCD580
:100E40000028FADD401E10BD70B505460C460A208C
:100E500000E06D1C00F018F835B128780028F8D1B2
:100E600002E0641C00F010F814B120780028F8D1DA
:100E7000BDE870400A2000F007B810B500F010F887
:100E8000BDE81040FFF758BF08B569468DF800006F
:100E90000320ABBE08BD000000487047102F0120A2
:100EA00010B5012805D0002103A0FFF7CDFF0120D8
:100EB00010BD09A1F8E7000053494752544D454D74
:100EC0003A204F7574206F662068656170206D65EB
:100ED0006D6F7279000000003A2048656170206DE6
:100EE000656D6F727920636F7272757074656400DE
:100EF00000BFFEE77047F0B50A460021002300243A
:100F000000BF3DE0012505FA01F3156805EA030479
:100F10009C4234D105684F000326BE40B5430560AE
:100F200015794E00B5400668354305601579012DE9
:100F300002D01579022D16D185684F000326BE40D8
:100F4000B543856055794E00B54086683543856068
:100F5000456801268E40B5434560456896798E40C8
:100F6000B6B235434560C5684F000326BE40B54361
:100F7000C560D5794E00B540C6683543C560491C8B
:100F80001029BFD3F0BD0183704700BFFEE700000A
:100F90001CB50121702000F057F84FF480400090FC
:100FA00001208DF8040000208DF8060003208DF844
:100FB000050002208DF8070069461E48FFF79BFFD9
:100FC0004FF40060009069461B48FFF794FF4FF410
:100FD000FF70009069461948FFF78DFF4FF480417C
:100FE0001448FFF7D0FF4FF400611348FFF7CBFF21
:100FF00002211248FFF7C7FF04211048FFF7C3FF83
:1010000008210E48FFF7BFFF10210C48FFF7BBFF78
:1010100020210A48FFF7B7FF40210848FFF7B3FF38
:1010200080210648FFF7AFFF4FF480710348FFF7B8
:10103000AAFF1CBD0014024000100240001802402C
:1010400000BFFEE77047000029B1064A126802435C
:10105000044B1A6004E0034A12688243014B1A6091
:1010600070470000303802400CB50020019000901D
:101070004148006840F480303F49086000BF3E4866
:10108000006800F4003000900198401C0190009826
:1010900018B90198B0F5A04FF1D13748006800F4B5
:1010A000003010B10120009001E000200090009875
:1010B000012860D130484030006840F080502E490F
:1010C000403108602D48006840F440402B490860DA
:1010D0002948083000682849083108600846006837
:1010E00040F4004008600846006840F4A0500860E2
:1010F0002348091F0860081F006840F08070091F1E
:10110000086000BF1C48006800F000700028F9D09B
:101110001A48006840F480301849086000BF17483A
:10112000406800F480300028F9D01448006840F48A
:1011300000301249086000BF1048406800F40030D9
:101140000028F9D040F205700E4908600A480830BE
:10115000006820F00300084908310860084600686C
:1011600040F00200086000BF03480830006800F04B
:101170000C000828F8D10CBD003802400070004077
:101180000C5A4007003C024010B501F0E9FD01286F
:1011900001D001F0FBF910BD10B51548006840F40E
:1011A0007000134908601348006840F001001149BD
:1011B000086000200F49083108600E4800680E4999
:1011C00008400C4908600D48091D0860081F0068A8
:1011D00020F48020091F0860002006490C310860B7
:1011E000FFF742FF4FF0006001498039086010BDF1
:1011F00088ED00E000380240FFFFF6FE10300024CA
:1012000002460020B1F5007F00D100BF13880B40DB
:101210000BB1012000E000207047C1F3080282807A
:10122000704700BFFEE730380A2801D2012070471E
:101230000020704770B504460D4600BF40210548A8
:10124000FFF7DEFF0028F9D0A1B20248FFF7E5FF63
:10125000204670BD0044004010E04FF0FF310848C8
:10126000006801F02BFC074908600846006828B9AF
:10127000C82000F049FF04A0FFF772F8EDE7000076
:1012800000000020040000206668647569736668C9
:10129000756964730D0A000002E0C82000F034FF95
:1012A000FBE700001CB5FFF773FE032200210120BD
:1012B00001F086F9124908600846006830B1002341
:1012C0001A4619460E48006801F0F4F90020012181
:1012D00003464FF47A72CDE900100AA10B4801F0E1
:1012E0000FFD0020022103464FF47A72CDE9001071
:1012F00007A1094801F004FD00F0FCFF00BFFEE774
:10130000000000205461736B203100005912000866
:101310005461736B20320000991200082DE9F041EE
:1013200005460E461C4807681C480068001D00F072
:1013300083FD50B91948006890F82C1001208840AE
:1013400017490968814316480160681C38B936B1ED
:1013500012480168091D134800F0ACFD1AE07C1921
:101360000E4800684460BC4207D20C480168091D61
:101370000D48006800F084FD0CE008480168091D74
:101380000A48006800F07CFD09480068844201D2E8
:1013900007480460BDE8F081780000206400002068
:1013A0007C000020D80100206C0000206800002094
:1013B0009400002010B5044600F088FD2448006821
:1013C000401C234908602348006840B92148046054
:1013D0000846006801280DD100F0E8F90AE01E482F
:1013E000006838B91B480068C06AE16A884201D8C1
:1013F0001848046019480068401C184908600846ED
:101400000068206494F82C10012088401449096871
:10141000084313490860E16A01EB8101114A02EBBC
:101420008100211D00F046FD00F07AFD0A480068A9
:1014300068B108480068C06AE16A884207D24FF084
:10144000805009490860BFF34F8FBFF36F8F10BD05
:101450007400002064000020800000209000002024
:101460007C0000202401002004ED00E010B500F015
:101470002DFD10480068D0B90F4800F0F1FC0F486E
:1014800000F0EEFC0C480E4908600C480D4908605D
:1014900000220C210A2001F093F806490860084652
:1014A000006820B108A10348006800F0F1FD00F0D9
:1014B00037FD10BDA8000020EC0100200002002034
:1014C000A0000020A4000020546D72510000000014
:1014D00010B516E000F0FAFC0C48C068C468201D86
:1014E00000F0AAFC0A480068401E09490860094843
:1014F0000068401E0749086000F012FD204600F019
:101500005FF8044800680028E4D110BDC401002041
:10151000740000207000002070B504460D46206C59
:1015200070B1216CE0680144E160D4E902108842A6
:1015300001D32168E1602846226CE168FEF7A3FF31
:1015400070BD2DE9F04104460F4615464FF00008E6
:10155000A66B206C48B9206800282CD1A06801F047
:10156000B9FC80460020A06025E07DB93946226C98
:101570006068FEF788FF216C606808446060D4E909
:101580000101884217D32068606014E03946226C5C
:10159000E068FEF778FF216CE068411AE16021689D
:1015A000E068884203D2216CA068411AE160022DF4
:1015B00001D106B1761E701CA0634046BDE8F081E3
:1015C00010B50446206B00F0C9FC204600F0C6FCB4
:1015D00010BD01464A6A22B10A6B1268C2F10500C9
:1015E00000E00020704700000146084A12681268B7
:1015F0000AB9012200E000220A600A6822B9034AFF
:101600001268D268106800E000207047A000002037
:1016100030B54FF49633174800F007042CB1C01DC5
:1016200020F00700134C041B1B1B0246124C2260C7
:101630000024114D6C60D018083820F007000F4CC2
:10164000206000240D4D2D686C600C4D2D682C60C1
:101650001146441A4C60094C24680C60084D4C68D3
:101660002C60084D4C682C604FF00044064D2C60F7
:1016700030BD000014020020C0000020C80000207F
:10168000D0000020CC000020D400002000BFFFF7D5
:101690001FFF064800680128F9D94FF0805004491F
:1016A0000860BFF34F8FBFF36F8FF0E72401002076
:1016B00004ED00E02DE9F04106460D461746984638
:1016C000069C0DB9246000E02760E66325640121D3
:1016D000204600F0A3FF84F84C80BDE8F0812DE99E
:1016E000F05F82460E4690469B460A9F0C9C56B978
:1016F00000BF502080F31188BFF34F8FBFF36F8F6F
:1017000000BF00BFFEE74FEA8801A522206BFEF76D
:10171000FFFEA8F10100216B01EB800929F0070908
:1017200009F0070008B9012000E0002050B900BF0F
:10173000502080F31188BFF34F8FBFF36F8F00BF2E
:1017400000BFFEE7002507E0715D04F1340041555C
:10175000705D00B902E06D1C0A2DF5D300BF0021B9
:101760003D200155052F00D30427E762A764002020
:10177000E064201D00F081FB04F1180000F07DFB07
:101780002461C7F10500A06164620020206584F82F
:1017900054005A465146484600F038FB20600B98EA
:1017A00008B10B980460BDE8F09F000010B500245C
:1017B00007E004EB84010F4A02EB810000F050FBCC
:1017C000641C052CF5D30C4800F04AFB0B4800F0D4
:1017D00047FB0B4800F044FB0A4800F041FB0A4875
:1017E00000F03EFB044809490860044808490860C5
:1017F00010BD000024010020880100209C01002071
:10180000B0010020C4010020D801002068000020A1
:101810006C00002010B50146164800E0006803681F
:101820008B42FBD30246436813448B4204D1436886
:101830004C682344436001460A464B6813440468DD
:10184000A34211D10C4C03682468A34208D04B6812
:101850000468646823444B6003681B680B6005E000
:10186000054B1B680B6001E003680B60884200D0E9
:10187000016010BDC0000020C80000202DE9F0412B
:1018800004460D4616461F464FF000086560246169
:10189000B5420CD8F01BA169884202D34FF0010871
:1018A00011E0211D0948006800F0EAFA0BE0BE4291
:1018B00004D2BD4202D34FF0010804E0211D0448C8
:1018C000006800F0DDFA4046BDE8F081A400002089
:1018D000A000002070B5054600F0F8FAA86B08B922
:1018E000012400E0002400F01BFB204670BD70B511
:1018F000054600F0EBFAA86BE96B884201D10124A0
:1019000000E0002400F00CFB204670BDF8B5054651
:101910000F4616480068C068C468201D00F08CFAA5
:10192000E06901281DD1A06941192B463A4620469D
:10193000FFF7A4FFA8B1002003462A460146009005
:10194000204601F089FC064656B900BF502080F3BE
:101950001188BFF34F8FBFF36F8F00BF00BFFEE74B
:1019600000BF2046616A8847F8BD0000A000002043
:1019700070B586B06AE00398002867DB059C606953
:1019800008B9012000E0002010B9201D00F054FA31
:1019900002A800F0BBF8054603980A2854D2DFE8F5
:1019A00000F009050731334F0608323400BF00BF8D
:1019B00000BF00BF0498A269811803462A4620464A
:1019C000FFF75CFFE8B12046616A8847E0690128BB
:1019D00017D1002000900498A169421800231946ED
:1019E000204601F039FC064656B900BF502080F36E
:1019F0001188BFF34F8FBFF36F8F00BF00BFFEE7AB
:101A000000BF22E000BF20E000BF0498A061A069F1
:101A100008B1012000E0002050B900BF502080F341
:101A20001188BFF34F8FBFF36F8F00BF00BFFEE77A
:101A3000A06941192B462A462046FFF71FFF04E004
:101A4000204600F08BFA00E000BF00BF002203A98F
:101A50000348006800F07EFF00288CD106B070BDFE
:101A6000A8000020F8B505460C4600F08DFC68463D
:101A700000F04CF80646009820BB44B9B54206D8A1
:101A800001F03CFB31462846FFF740FF1CE03CB12B
:101A90000E480068006808B9012000E000200446F4
:101AA000A91B22460A48006800F008FB01F026FB4B
:101AB00050B94FF0805007490860BFF34F8FBFF314
:101AC0006F8F01E001F01AFBF8BD0000A4000020B8
:101AD000A800002004ED00E00A490968096809B976
:101AE000012100E0002121B14FF0FF31064A1160D1
:101AF00006E004490968C968C868034A416811607A
:101B000070470000680000209400002070B5044673
:101B100001F036F9054607480068854204D200F016
:101B20000BF80120206001E00020206001480560E2
:101B3000284670BDB00000202DE9F84332E024486B
:101B40000068C068056822480068C068C468201D35
:101B500000F072F92046616A8847E069012821D1C6
:101B6000A0694619AE4207D966602461211D184854
:101B7000006800F085F915E0002003462A4601467A
:101B80000090204601F068FB074657B900BF50207F
:101B900080F31188BFF34F8FBFF36F8F00BF00BF7B
:101BA000FEE700BF0A480068006808B9012000E0AD
:101BB00000200028C3D00648D0F8008005480068FF
:101BC000034908600348C0F80080BDE8F8830000BE
:101BD000A0000020A40000200E480068401C08B9A6
:101BE000012000E0002050B900BF502080F3118890
:101BF000BFF34F8FBFF36F8F00BF00BFFEE700BF83
:101C0000502080F31188BFF34F8FBFF36F8F00BF59
:101C100000BFFEE7B400002008B500BF6846FFF72C
:101C2000E3FC044620460099FFF71CFFFFF7A0FEE7
:101C3000F4E770B5044600F049F994F9455010E016
:101C4000606A08B9012000E0002038B904F12400DE
:101C500001F008FA18B100F091FA00E003E0681E04
:101C600045B2002DECDC00BFFF2084F8450000F0F9
:101C700057F900F02BF994F9445010E0206908B9A5
:101C8000012000E0002048B904F1100001F0EAF959
:101C900008B100F073FA681E45B200E001E0002DC3
:101CA000ECDC00BFFF2084F8440000F039F970BD7F
:101CB0002DE9F04104464FF0000800F065FB46486E
:101CC000006808B9FFF7A4FC4448006820400028D9
:101CD0006BD1D4B1083404F00700B0B104F00700B0
:101CE000C0F10800044404F0070008B9012000E036
:101CF000002050B900BF502080F31188BFF34F8FF0
:101D0000BFF36F8F00BF00BFFEE7002C4DD03448FB
:101D10000068844249D8334E3046056801E02E46BB
:101D20002D686868A04202D228680028F7D12A48A6
:101D30000068854239D0306800F1080828683060B2
:101D40006868001B102819D92F1907F0070008B977
:101D5000012000E0002050B900BF502080F311881E
:101D6000BFF34F8FBFF36F8F00BF00BFFEE7686800
:101D7000001B78606C603846FFF74CFD18496868B6
:101D80000968081A16490860084600681649096873
:101D9000884203D212480068134908600F496868F6
:101DA0000968084368600020286001F0A7F908F07E
:101DB000070008B9012000E0002050B900BF502002
:101DC00080F31188BFF34F8FBFF36F8F00BF00BF49
:101DD000FEE74046BDE8F081C8000020D4000020A6
:101DE000CC000020C0000020D00000200648006881
:101DF00030B10549096801F14C00C96C491C01600A
:101E0000014800687047000064000020001F4FF088
:101E100080730360001F21F001030360001F054B66
:101E2000036014380260001F6FF002030360203863
:101E300070470000D91B000801460A69D1E901304A
:101E40009860D1E9010358605068884201D18868E0
:101E50005060002008611068401E106010687047D4
:101E600000F1080141604FF0FF31816000F108018D
:101E7000C16001610021016070470021016170476C
:101E800010B502460B685C1C0CB9106907E002F142
:101E9000080000E04068446824689C42FAD944681D
:101EA0004C604C68A160886041600A611468641CE1
:101EB000146010BD42684A6093688B6093685960F3
:101EC0009160086103685B1C0360704700BF50208D
:101ED00080F31188BFF34F8FBFF36F8F00BF0E48A1
:101EE0000068401C0C49086008460068012812D1AF
:101EF0000A480068C0B208B9012000E0002050B9CB
:101F000000BF502080F31188BFF34F8FBFF36F8F56
:101F100000BF00BFFEE77047B400002004ED00E002
:101F20000D48006850B900BF502080F31188BFF3FE
:101F30004F8FBFF36F8F00BF00BFFEE706480068FA
:101F4000401E054908600846006820B9002080F35B
:101F5000118800BF00BF7047B400002070B506466E
:101F60003546002E3FD0083D2C461F496068096861
:101F7000084008B1012000E0002050B900BF502007
:101F800080F31188BFF34F8FBFF36F8F00BF00BF87
:101F9000FEE7206808B9012000E0002050B900BF2A
:101FA000502080F31188BFF34F8FBFF36F8F00BFB6
:101FB00000BFFEE70C4960680968084098B12068D6
:101FC00088B90949606809688843606000F0DCF9F5
:101FD0000649606809680844044908602046FFF71C
:101FE00019FC01F08BF870BDD4000020CC0000205B
:101FF00000204FF0E02108618861064800684FF436
:102000007A71B0FBF1F0401E4FF0E02148610720EB
:10201000086170475000002070B5FEF77DF9044656
:10202000102C16D304F1E02090F8F05315480078F6
:10203000854201DB012000E0002050B900BF5020A4
:1020400080F31188BFF34F8FBFF36F8F00BF00BFC6
:10205000FEE70D48006800F4E0600C49096888421A
:1020600001D8012000E0002050B900BF502080F3CB
:102070001188BFF34F8FBFF36F8F00BF00BFFEE724
:1020800070BD0000B80000200CED00E0BC00002096
:10209000024600200BE0084B53F8303033B9064BB2
:1020A00043F8301003EBC0035A6002E0401C0828DC
:1020B000F1D300BF70470000E40000202DE9F0419B
:1020C00005460E4617462C46FFF700FF94F94400DC
:1020D000401C10B9002084F8440094F94500401CCD
:1020E00010B9002084F84500FFF71AFFA06B28B94B
:1020F0003A46314604F1240000F062F82046FFF72A
:1021000098FDBDE8F081000070B504460025D4B10B
:102110001248006808B9012000E0002050B900BF53
:10212000502080F31188BFF34F8FBFF36F8F00BF34
:1021300000BFFEE700F028F900212046FFF7EEF887
:1021400000F0DCFF05463DB94FF0805004490860BF
:10215000BFF34F8FBFF36F8F70BD00009C00002056
:1021600004ED00E003490968016003490968416022
:10217000704700008C0000207800002001200149F9
:10218000086070478800002070B504460D4654B9B9
:1021900000BF502080F31188BFF34F8FBFF36F8FC4
:1021A00000BF00BFFEE70548016818312046FFF771
:1021B00067FE01212846FFF7B1F870BD64000020DA
:1021C00070B505460E46144655B900BF502080F341
:1021D0001188BFF34F8FBFF36F8F00BF00BFFEE7C3
:1021E0000648016818312846FFF764FE0CB14FF02D
:1021F000FF3621463046FFF791F870BD640000209D
:102200002DE9F04706460F4634464FF00109002EEF
:1022100067D0E06C50B900BF502080F31188BFF345
:102220004F8FBFF36F8F00BF00BFFEE7A06CB842B7
:1022300001D23D4600E0A56CE06AA84251D0E06CB6
:1022400001284ED128480068844201D0012000E0D6
:10225000002050B900BF502080F31188BFF34F8F8A
:10226000BFF36F8F00BF00BFFEE7D4F82C80E5629C
:10227000A06900F0004010B9C5F10500A06108EBAD
:1022800088011A4A02EB81016069884201D101206C
:1022900000E0002028B3201DFFF7CEFD78B9E06AEA
:1022A00000EB8000114951F8200040B994F82C103F
:1022B000012088400E49096881430D48016094F867
:1022C0002C10012088400A49096808430849086021
:1022D000E16A01EB8101054A02EB8100211DFFF754
:1022E000E9FDBDE8F0870000640000202401002023
:1022F0007C0000201CB51D4800210B468222CDE940
:1023000000101BA11C4800F0FBFC0446012C02D16C
:1023100000F076FF0446012C15D100BF502080F359
:102320001188BFF34F8FBFF36F8F00BF4FF0FF30A7
:102330001249086001201249086000201149086014
:1023400000F070F810E0601C08B1012000E00020EF
:1023500050B900BF502080F31188BFF34F8FBFF3F7
:102360006F8F00BF00BFFEE71CBD0000980000207B
:1023700049444C45000000008D16000894000020E0
:10238000800000207800002002480068401C0149BD
:10239000086070479C0000201D48006818B10120AB
:1023A0001C49086032E000201A4908601A48006899
:1023B000B0FA80F0C0F11F0101EB8100174A52F81A
:1023C000200008B1012000E0002050B900BF5020DB
:1023D00080F31188BFF34F8FBFF36F8F00BF00BF33
:1023E000FEE701EB81020D4B03EB8200426852686D
:1023F000426000F108024368934202D14268526889
:1024000042604268D268064B1A6000BF7047000005
:102410009C000020880000207C0000202401002077
:10242000640000201CB5524800685249884201D01F
:10243000012000E0002050B900BF502080F3118837
:10244000BFF34F8FBFF36F8F00BF00BFFEE7484859
:1024500000684849491E884201D0012000E0002060
:1024600050B900BF502080F31188BFF34F8FBFF3E6
:102470006F8F00BF00BFFEE73F490846007801901C
:10248000FF200A4610700846007800909DF8000072
:1024900000F0F0009DF80020904201D1012000E002
:1024A000002050B900BF502080F31188BFF34F8F38
:1024B000BFF36F8F00BF00BFFEE79DF8000000F084
:1024C00050002E4A107007202D4A106009E02C4859
:1024D0000068401E2A4A10609DF800004006000E69
:1024E00000909DF8000000F080008028EFD0244884
:1024F0000068C0F10700042801D1012000E000209D
:1025000050B900BF502080F31188BFF34F8FBFF345
:102510006F8F00BF00BFFEE7194800680002184A2D
:1025200010601046008800F4E0601060124A0198C4
:1025300010700F482030006840F470000C492031C2
:1025400008600846006840F070400860FFF750FDE2
:1025500000200C490860FDF7A7FE0B48006840F01A
:10256000404009490860FDF78BFE00201CBD0000BB
:1025700000ED00E071C20F4100E400E0B80000206F
:10258000BC000020B400002034EF00E010B500BF14
:10259000502080F31188BFF34F8FBFF36F8F00BFC0
:1025A00000F0F4FB18B14FF080500449086000BF00
:1025B000002080F3118800BF10BD000004ED00E092
:1025C0002DE9F84305460E4690460DB1012000E086
:1025D000002050B900BF502080F31188BFF34F8F07
:1025E000BFF36F8F00BF00BFFEE70EB9002701E009
:1025F00005FB06F707F15000FFF75AFB04464CB104
:10260000A14609F1500943464A46314628460094FE
:10261000FFF750F82046BDE8F883000070B5054686
:102620000E462C4654B900BF502080F31188BFF3EA
:102630004F8FBFF36F8F00BF00BFFEE7FFF746FC71
:10264000D4E90F12206801FB0200A0600020A06303
:1026500020686060E06B401E226C216800FB021164
:10266000E160FF2084F8440084F845009EB92069A9
:1026700008B9012000E00020A8B904F1100000F022
:10268000F1FC80B14FF0805009490860BFF34F8FD3
:10269000BFF36F8F07E004F11000FFF7E1FB04F1D7
:1026A0002400FFF7DDFBFFF73BFC012070BD0000BD
:1026B00004ED00E02DE9FF4383B0064688461D4641
:1026C0004FF00009344654B900BF502080F3118800
:1026D000BFF34F8FBFF36F8F00BF00BFFEE7B8F1AE
:1026E000000F01D1206C08B9012000E0002050B992
:1026F00000BF502080F31188BFF34F8FBFF36F8F5F
:1027000000BF00BFFEE7022D02D1E06B012801D11E
:10271000012000E0002050B900BF502080F3118854
:10272000BFF34F8FBFF36F8F00BF00BFFEE700F016
:1027300017FB08B9059808B9012000E0002050B93E
:1027400000BF502080F31188BFF34F8FBFF36F8F0E
:1027500000BF00BFFEE700BFFFF7B8FBA06BE16B57
:10276000884201D3022D28D12A4641462046FEF751
:10277000E8FE0746606A08B9012000E0002068B959
:1027800004F1240000F06EFC88B14FF08050324913
:102790000860BFF34F8FBFF36F8F08E03FB14FF07A
:1027A00080502D490860BFF34F8FBFF36F8FFFF745
:1027B000B7FB012007B0BDE8F083059818B9FFF713
:1027C000AFFB0020F6E7B9F1000F04D101A8FFF735
:1027D000C9FC4FF00109FFF7A3FBFFF7D5FDFFF799
:1027E00075FB94F94400401C10B9002084F84400A3
:1027F00094F94500401C10B9002084F84500FFF70B
:102800008FFB05A901A800F035FAF0B92046FFF7C3
:102810006EF8A0B104F110000599FFF7B5FC204651
:10282000FFF707FA00F06AFC002895D14FF08050BE
:1028300009490860BFF34F8FBFF36F8F8CE72046C5
:10284000FFF7F7F900F05AFC86E72046FFF7F1F9A9
:1028500000F054FC0020ADE704ED00E02DE9F05F4E
:1028600007468A4690461E463C4654B900BF502053
:1028700080F31188BFF34F8FBFF36F8F00BF00BF8E
:10288000FEE7BAF1000F01D1206C08B9012000E089
:10289000002050B900BF502080F31188BFF34F8F44
:1028A000BFF36F8F00BF00BFFEE7022E02D1E06BC7
:1028B000012801D1012000E0002050B900BF5020C4
:1028C00080F31188BFF34F8FBFF36F8F00BF00BF3E
:1028D000FEE7FFF7A1FB00BF5021EFF3118081F36A
:1028E0001188BFF34F8FBFF36F8F00BF0546A06BFA
:1028F000E16B884201D3022E23D194F945B03246D0
:1029000051462046FEF71DFE0BF1010088B9606AB2
:1029100008B9012000E0002080B904F1240000F093
:10292000A1FB58B1B8F1000F08D00120C8F8000091
:1029300004E00BF1010040B284F845004FF00109BA
:1029400001E04FF0000900BF85F3118800BF484641
:10295000BDE8F09F2DE9F74183B005460E464FF0E4
:1029600000082C4654B900BF502080F31188BFF3F3
:102970004F8FBFF36F8F00BF00BFFEE70EB9206C13
:1029800008B9012000E0002050B900BF502080F3BA
:102990001188BFF34F8FBFF36F8F00BF00BFFEE7FB
:1029A00000F0DEF908B9059808B9012000E0002020
:1029B00050B900BF502080F31188BFF34F8FBFF391
:1029C0006F8F00BF00BFFEE700BFFFF77FFAA76B66
:1029D000F7B131462046FEF79FFD781EA0632069BF
:1029E00008B9012000E0002060B904F1100000F0F7
:1029F00039FB38B14FF080502F490860BFF34F8F3B
:102A0000BFF36F8FFFF78CFA012006B0BDE8F081AD
:102A1000059818B9FFF784FA0020F6E7B8F1000F1F
:102A200004D101A8FFF79EFB4FF00108FFF778FAE9
:102A3000FFF7AAFCFFF74AFA94F94400401C10B9CA
:102A4000002084F8440094F94500401C10B900208F
:102A500084F84500FFF764FA05A901A800F00AF917
:102A6000F0B92046FEF736FFA0B104F12400059925
:102A7000FFF78AFB2046FFF7DCF800F03FFB002859
:102A8000A3D14FF080500C490860BFF34F8FBFF3C4
:102A90006F8F9AE72046FFF7CCF800F02FFB94E702
:102AA0002046FFF7C6F800F029FB2046FEF712FF8C
:102AB00000288AD00020A8E704ED00E02DE9F341CA
:102AC00082B005464FF000082C46002654B900BFDE
:102AD000502080F31188BFF34F8FBFF36F8F00BF7B
:102AE00000BFFEE7206C08B9012000E0002050B9CB
:102AF00000BF502080F31188BFF34F8FBFF36F8F5B
:102B000000BF00BFFEE700F02BF908B9039808B931
:102B1000012000E0002050B900BF502080F3118850
:102B2000BFF34F8FBFF36F8F00BF00BFFEE700BF43
:102B3000FFF7CCF9A76BFFB1781EA063206810B92E
:102B4000FFF754F9A060206908B9012000E00020D7
:102B500060B904F1100000F085FA38B14FF08050F0
:102B600043490860BFF34F8FBFF36F8FFFF7D8F96A
:102B7000012004B0BDE8F081039898B90EB9012096
:102B800000E0002050B900BF502080F31188BFF34F
:102B90004F8FBFF36F8F00BF00BFFEE7FFF7C0F995
:102BA0000020E6E7B8F1000F04D16846FFF7DAFA33
:102BB0004FF00108FFF7B4F9FFF7E6FBFFF786F9DE
:102BC00094F94400401C10B9002084F8440094F9A2
:102BD0004500401C10B9002084F84500FFF7A0F91B
:102BE00003A9684600F046F840BB2046FEF772FE97
:102BF000F0B1206838B9FFF769F9A06800F0CEF9A4
:102C00000646FFF78DF904F124000399FFF7BCFA9B
:102C10002046FFF70EF800F071FA002888D14FF037
:102C2000805013490860BFF34F8FBFF36F8F7FE76A
:102C30002046FEF7FEFF00F061FA79E72046FEF736
:102C4000F8FF00F05BFA2046FEF744FE0028EED0C5
:102C50005EB1FFF73BF92046FEF7BBFC074639465D
:102C6000A068FFF7CDFAFFF75BF9002081E70000CD
:102C700004ED00E070B505460C4655B900BF502084
:102C800080F31188BFF34F8FBFF36F8F00BF00BF7A
:102C9000FEE754B900BF502080F31188BFF34F8F77
:102CA000BFF36F8F00BF00BFFEE7FFF70FF91248B9
:102CB00002686868131A2068401C08B9002617E0EB
:102CC0000E4928680968884204D06868904201D893
:102CD00001260DE02068984207D92068C01A2060BC
:102CE0002846FFF73FFA002602E000202060012678
:102CF000FFF716F9304670BD780000208C000020E8
:102D00002DE9FF4F85B0804689461746DDE912ABB5
:102D1000B800FEF7CDFF064656B15820FEF7C8FFB3
:102D200004460CB1266304E03046FFF717F900E0D3
:102D300000247CB10020CDE900ABCDE902403A4649
:102D400049464046089BFEF7CAFC2046FEF732FB88
:102D5000012501E04FF0FF35284609B0BDE8F08FAE
:102D60000549096809B9012005E00449096809B95C
:102D7000022000E000207047800000209C0000201E
:102D80000149086870470000780000202DE9F041F3
:102D90004FF0000844480068002877D14348006895
:102DA000451C4248056015BB41480068006808B9E9
:102DB000012000E0002050B900BF502080F31188AE
:102DC000BFF34F8FBFF36F8F00BF00BFFEE73848E0
:102DD0000768384800683649086036480760364852
:102DE0000068401C34490860FEF776FE00BF334897
:102DF000006885423CD300BF2D480068006808B9D0
:102E0000012000E0002020B14FF0FF302B49086086
:102E10002DE027480068C068C4686668B54202D2E1
:102E20002648066023E0201DFFF706F8A06A18B1C7
:102E300004F11800FFF700F894F82C1001208840E6
:102E40001F49096808431E490860E16A01EB8101D6
:102E50001C4A02EB8100211DFFF72CF81A49E06A99
:102E60000968C96A8842C7D34FF00108C4E700BFA8
:102E700015480068C06A00EB8000124951F8200034
:102E8000012801D94FF0010805E0FFE70F4800686D
:102E9000401C0E4908600E48006808B14FF0010858
:102EA0004046BDE8F08100009C0000207800002032
:102EB000680000206C0000208C000020940000209E
:102EC0007C000020240100206400002084000020F9
:102ED0008800002070B505462C460026002D55D0F0
:102EE0002B480068844201D1012000E0002050B945
:102EF00000BF502080F31188BFF34F8FBFF36F8F57
:102F000000BF00BFFEE7E06C50B900BF502080F367
:102F10001188BFF34F8FBFF36F8F00BF00BFFEE775
:102F2000E06C401EE064A16CE06A88422ED0E06C48
:102F300060BB201DFEF780FF78B9E06A00EB8000DF
:102F4000144951F8200040B994F82C100120884011
:102F500011490968814310480160A06CE062E06A91
:102F6000C0F10500A06194F82C10012088400A49A6
:102F70000968084308490860E16A01EB8101054AD4
:102F800002EB8100211DFEF795FF0126304670BD42
:102F900064000020240100207C00002070B505465C
:102FA0002C460026002D54D02B49E06A0968C96AD6
:102FB000884247D2A06900F0004028B9264800683E
:102FC000C06AC0F10500A061E16A01EB8101234AFA
:102FD00002EB81016069884201D1012000E00020FC
:102FE00050B3201DFEF728FF78B9E06A00EB80009F
:102FF0001A4951F8200040B994F82C10012088405B
:103000001749096881431648016013480068C06A7F
:10301000E06294F82C1001208840114909680843A7
:103020000F490860E16A01EB81010C4A02EB810063
:10303000211DFEF73FFF03E007480068C06AE06219
:10304000012606E00449A06C0968C96A884200D2DA
:103050000126304670BD00006400002024010020DD
:103060007C00002070B50646F068C46854B900BF03
:10307000502080F31188BFF34F8FBFF36F8F00BFD5
:1030800000BFFEE704F11800FEF7D6FE1548006801
:10309000A8B9201DFEF7D0FE94F82C10012088401E
:1030A00011490968084310490860E16A01EB810190
:1030B0000E4A02EB8100211DFEF7FCFE04E004F144
:1030C00018010B48FEF7F6FE0A49E06A0968C96A6A
:1030D000884204D9012501200749086000E0002545
:1030E000284670BD9C0000207C00002024010020A8
:1030F000B0010020640000208800002070B500248A
:1031000000263648006850B900BF502080F311886F
:10311000BFF34F8FBFF36F8F00BF00BFFEE7FEF717
:10312000D5FE2E480068401E2C49086008460068FD
:1031300000284FD12A48006800284BD024E02948B5
:10314000C068C46804F11800FEF776FE201DFEF783
:1031500073FE94F82C100120884023490968084325
:1031600021490860E16A01EB8101204A02EB8100FC
:10317000211DFEF79FFE1E49E06A0968C96A884260
:1031800002D301201B4908601648006808B90120D5
:1031900000E000200028D2D00CB1FEF79DFC1648BC
:1031A000056865B100BFFFF7F1FD10B101201149BD
:1031B00008606D1E002DF6D100200F4908600D48F3
:1031C000006838B1012630070C490860BFF34F8F03
:1031D000BFF36F8FFEF7A4FE304670BD9C00002049
:1031E00074000020B00100207C0000202401002099
:1031F00064000020880000208400002004ED00E02E
:103200001CB50024FEF732F90E48006858B10E488C
:10321000022100234FF48272CDE900100BA10D486A
:10322000FFF76EFD044654B900BF502080F31188AB
:10323000BFF34F8FBFF36F8F00BF00BFFEE7204685
:103240001CBD0000A8000020AC000020546D7220BE
:1032500053766300191C00082DE9FE4304460D4611
:1032600016461F46DDF828804FF0000954B900BF0C
:10327000502080F31188BFF34F8FBFF36F8F00BFD3
:1032800000BFFEE71448006810B300950196029451
:10329000062D15DAFFF764FD022808D10023424607
:1032A00069460D480068FFF705FA814610E00023E3
:1032B0001A46694608480068FFF7FCF9814607E0AE
:1032C00000233A46694604480068FFF7C7FA81467A
:1032D0004846BDE8FE830000A80000204FF0407083
:1032E000E1EE100A70473A7474003A7474003A744C
:1032F000740000001433000800000020E400000007
:10330000E8010008F8330008E40000208C340100D4
:103310000402000800000000000000005461736B0C
:10332000312053656E6420646174610D0A000000F1
:103330005461736B322053656E6420646174610D57
:103340000A0000005461736B332053656E6420647F
:103350006174610D0A000000000000000000000020
:10336000000000000095BA0A000000000000000004
:103370000102030406070809000000000000000025
:10338000000000000000000000000000000000003D
:10339000000000000000000000000000000000002D
:1033A000000000000000000000000000000000001D
:1033B000000000000000000000000000000000000D
:1033C0000000000000000000AAAAAAAA0000000055
:1033D00000000000000000000000000000000000ED
:1033E00000000000000000000000000000000000DD
:0833F0000000000000000000D5
:04000005080001AD41
:00000001FF
