:020000040800F2
:10000000A00C002079020008A5330008952D0008F7
:10001000A13300083D120008994F000800000000BD
:10002000000000000000000000000000C101000806
:10003000612300080000000015020008DD3B0008F5
:10004000930200089302000893020008930200083C
:10005000930200089302000893020008930200082C
:10006000930200089302000893020008930200081C
:10007000930200089302000893020008930200080C
:1000800093020008930200089302000893020008FC
:100090002913000893020008930200089302000845
:1000A00093020008930200089302000893020008DC
:1000B00093020008930200089302000893020008CC
:1000C00093020008930200089302000893020008BC
:1000D000930200082D450008A9460008494C000875
:1000E000930200089302000893020008930200089C
:1000F000930200089302000893020008930200088C
:10010000930200089302000893020008930200087B
:1001100093020008930200086D3D00086142000848
:10012000930200089302000893020008930200085B
:10013000930200089302000893020008930200084B
:10014000930200089302000893020008930200083B
:10015000930200089302000893020008930200082B
:10016000930200089302000893020008930200081B
:10017000930200089302000893020008930200080B
:1001800093020008930200089302000893020008FB
:1001900093020008930200089302000893020008EB
:1001A000000000000000000093020008DFF80CD0FF
:1001B00000F03CFC00480047A16E0008A00C0020A5
:1001C0002A4B19680868B0E8F04F80F30988BFF33C
:1001D0006F8F4FF0000080F311887047000000001F
:1001E00006480068006880F3088862B661B6BFF30D
:1001F0004F8FBFF36F8F00DF00BF00BF08ED00E03F
:10020000DFF80C00016841F470010160704700BF25
:1002100088ED00E0EFF30980BFF36F8F134B1A688E
:100220001EF0100F08BF20ED108A20E9F04F10607B
:1002300008B44FF0500080F31188BFF34F8FBFF325
:100240006F8F06F0F3FE4FF0000080F3118808BCBA
:1002500019680868B0E8F04F1EF0100F08BFB0EC46
:10026000108A80F30988BFF36F8F70470000002069
:10027000EFF30580704700000648804706480047B6
:10028000FEE7FEE7FEE7FEE7FEE7FEE7FEE7FEE746
:10029000FEE7FEE7ED3B0008AD0100080FB400B536
:1002A0008DB010A909900B9000914FF0FF300A908B
:1002B00000200C9005480690054807906A4609A85A
:1002C0000F9900F041FA0DB05DF814FB65070008C6
:1002D000830700082DE9FF5F1D464FF0FF3BD5E97E
:1002E000014691465F464FF00008A9697F1C0198BE
:1002F0008847296A824688470028F6D1BAF1FF3F2D
:100300000CD024F4C064002E19DD600614D5BAF1B7
:100310002B0F09D0BAF12D0F0ED103E0584604B0CF
:10032000BDE8F09F44F48064A9697F1C0198884768
:10033000761E8246002E02DDBAF1300F03D0B9F1ED
:10034000000F26D032E0A969761E44F400747F1CA9
:10035000019888478246002E05DDBAF1780F06D055
:10036000BAF1580F03D0B9F1000F10D01EE0B9F167
:10037000000F02D0B9F1100F18D1A969761E24F42C
:1003800000747F1C019888478246102002E00820F4
:1003900000E00A20814609E008FB0908A969761EE9
:1003A00044F400747F1C019888478246002E05DDC6
:1003B0004946504600F0B3F90028EDDAE9690198A2
:1003C0008847A00502D46FF00100A8E7E00725D117
:1003D000600613D5600502D5C8F1000000E0404674
:1003E00029680A1D2A600968220501D5087015E0F0
:1003F000220701D5088011E008600FE02868011D80
:1004000029600068210502D580F8008006E02107F8
:1004100002D5A0F8008001E0C0F8008038467EE7F1
:100420002DE9FE4F804681EA0300C00F0C46009084
:1004300021F0004123F00045B8EB0200A94105D2AC
:100440004046214690461C460B46024623F000409B
:10045000104347D0270DC7F30A00C3F30A51029097
:10046000401A019040286BDAC3F3130040F4801B5C
:100470000098924620B10023D2EB030A63EB0B0BEA
:1004800001985946C0F14002504600F027F906464F
:100490000D4650465946019A00F02FF910EB08001E
:1004A0006141002487EA115284EAE7731A4340D07D
:1004B000009A62B3019A012A4FEA075215DC001B29
:1004C00061EB02014FF0004202EA0752CDE900421F
:1004D000001C41F5801132462B4600F0A9F903B00B
:1004E000BDE8F08F40462146F9E7001B61EB0201B1
:1004F000001C41F5801300185B412018A2F500177D
:1005000047EB030140EAD570B6196D4111E06D0863
:100510004FEA360645EAC0754FEA0752001B61EB09
:100520000201001C41F5801149084FEA3000001912
:10053000514132462B4603B0BDE8F04F00F069B997
:100540000098012240000023D0EB020263EBE0732D
:10055000009821464FEAE074B8EB000061EB04011B
:10056000E9E783F000435BE781F0004158E72DE9BC
:10057000FE4F81EA030404F0004421F0004100949E
:100580004FF0000B23F0004350EA01045ED052EA22
:1005900003045BD0C3F30A54C1F30A552C44A4F2FC
:1005A000F3340194A0FB0254C1F3130141F4801110
:1005B000C3F3130343F4801301FB024400FB034E17
:1005C000840A970A44EA815447EA8357A4FB0768E0
:1005D00002958D0A05FB07854FEA932C04FB0C540A
:1005E0002705029D4FEA065847EA1637B5EB08057E
:1005F0006EEB070C870E920E47EA811742EA8312D0
:10060000A7FB0201B6EB0B0164EB00042B0D43EAE0
:100610000C335E1844EB1C50DA465146E7FB0201EE
:10062000C5F313044FEA0B3343EA14534FEA043281
:10063000019C43EA0603A4F10C040294009CCDE95A
:1006400000B400F0F5F803B0BDE8F08F00200146DB
:10065000F9E700F0004230F000400AD0C10D01F58A
:100660006071C0F3160042EA0151C208400711430D
:10067000704700200146704701F0004330B421F07C
:10068000004150EA010206D00A0DA2F56072C1F3E2
:100690001301002A02DC30BC00207047440F44EAFA
:1006A000C104C100E01830BC00EBC25000F07AB8C1
:1006B00030B50B46014600202022012409E021FA32
:1006C00002F59D4205D303FA02F5491B04FA02F52F
:1006D0002844151EA2F10102F1DC30BD202A04DB02
:1006E000203A00FA02F1002070479140C2F1200345
:1006F00020FA03F3194390407047202A06DBCB17FA
:10070000203A41FA02F043EAE07306E041FA02F3CC
:10071000D040C2F1200291400843194670473A2860
:1007200000D2303820F02002412A01D3A2F1370054
:10073000884201D34FF0FF30704700000268114437
:100740001378016018467047D1600449516104492B
:10075000116200211161114600F090B93D070008B7
:10076000710A0008426842B1016811F8013B23B1E7
:10077000521EC0E90012184670470121C160881E50
:10078000704742685AB1C368016843B983688B42B5
:1007900005D0491E521CC0E90012002070474FF0DE
:1007A000FF3070470029A8BF7047401C490008BFB0
:1007B00020F00100704710B4B0FA80FC00FA0CF091
:1007C00050EA010404BF10BC704749B1CCF12004C9
:1007D00021FA04F411FA0CF118BF01212143084356
:1007E000A3EB0C01CB1D4FEA00614FEA102042BF82
:1007F000002010BC704700EBC35010440029A4BF78
:1008000010BC7047401C490008BF20F0010010BC1C
:10081000704710B5141E73F1000408DA401C41F152
:10082000000192185B411A4301D120F0010010BD74
:100830002DE9F04D92469B4611B1B1FA81F202E0EA
:10084000B0FA80F220329046FFF748FF04460F4688
:1008500040EA0A0041EA0B0153465A46084313D0C6
:10086000114653EA010019D0C8F14002504600F089
:10087000EFF805460E46504659464246FFF72EFF12
:10088000084305D0012004E020463946BDE8F08D3C
:100890000020054346EAE0762C4337430A98630577
:1008A000E40AA0EB08000022FD0A44EA47540A309B
:1008B00002D500200146E9E7010510196941DDE98B
:1008C000084500196941BDE8F04DA2E72DE9F04D5A
:1008D00081EA030404F0004B21F0004514464FF078
:1008E000000A23F0004150EA050220D054EA010238
:1008F0001DD0C5F30A570246C5F31303C1F3130015
:10090000C1F30A5640F4801543F48013A7EB0608A0
:10091000101BD64608F2FD3873EB050002D308F130
:10092000010801E092185B41B8F1000F03DA0020E2
:100930000146BDE8F08D00204FF480110646844644
:100940000EE0171B73EB050705D3121B63EB0503C2
:1009500006434CEA010C49084FEA300092185B410B
:1009600050EA0107EDD152EA030012D082EA0400F6
:1009700083EA0501084305D0101BAB4106D20122D2
:10098000002306E000224FF0004302E06FF0010276
:1009900053101AEB06004CEB085110EB0A0041EB28
:1009A0000B01BDE8F04DFFF734BF70B521F00043F7
:1009B00003430CD0C1F30A550024D5EB040564EBC6
:1009C0000403D617AD1AB34102DB0020014670BD07
:1009D000201841EB025170BD0EB5C10F80EAE070E6
:1009E0000844CA07002140F233438DE80E000A464E
:1009F0000B46FFF71DFF03B000BD000030B5041E1D
:100A000071F1000404DB4FF00044404264EB01014B
:100A1000141E73F1000405DB1C464FF000435242E4
:100A200063EB0403994208BF904230BD064C074D6A
:100A300006E0E06840F0010394E8070098471034AE
:100A4000AC42F6D3FFF7B6FB2875000848750008DE
:100A5000202A04DB203A21FA02F00021704721FA13
:100A600002F3D040C2F1200291400843194670477A
:100A7000C0B24FF4F05100F015BA00002DE9F34F69
:100A80008BB04FF0000801F10C000C464FF0010B49
:100A900046460DF1080A01906269012101989047CC
:100AA000051E2DD0252D2CD0216A8847C0B1626942
:100AB000012101989047216A88470028F7D1411EFB
:100AC00062690198904700E0761CA1690B988847FD
:100AD000216A88470028F7D1E1690B988847DBE74E
:100AE000A1690B9888470746A84201D1761CD3E735
:100AF000E1690B9888477F1C02D1B8F1000F6FD0D5
:100B000046E1002762693D463946019890472A2808
:100B100004D162690121019890470125DFF8849290
:100B20006269012101989047A0F130010A290AD297
:100B30004F45E5DC07EB870100EB4107303FDFD491
:100B400045F01005ECE7E90601D46FF000476C288A
:100B50000AD04C2814D0682815D06A280DD07428E3
:100B60001CD07A281AD01DE06269012101989047B3
:100B70006C2802D045F0040514E045F002050DE0B4
:100B800045F020050AE06269012101989047682834
:100B900002D045F0080505E045F4006562690121D1
:100BA00001989047C4E9015765283DD019DC5828C1
:100BB0007AD00CDC452837D004DC252826D0412803
:100BC00031D131E046282FD047282CD12CE05B28AA
:100BD00077D0612828D063287CD0642823D15AE0BC
:100BE000D0E06F2848D008DC66281DD067281BD0CD
:100BF000692821D06E2816D127E0702845D07328A7
:100C000068D0752847D078280DD14DE0A1690B98A0
:100C10008847054625283FF469AFE1690B98884766
:100C20006D1C3FF46AAFB3E023466A466FF00100E3
:100C30000B99AFF300809EE045F040006060A8078C
:100C400023464FF0000236D43EE0E8077FF447AF7A
:100C50002068011D21600068290501D506701BE789
:100C6000290701D5068017E7A90703D5F117C0E9C1
:100C7000006111E706600FE745F040006060A807DB
:100C800023464FF0080216D41EE040F60E0125EA76
:100C90000100606016E045F040006060A807234650
:100CA0004FF00A0207D40FE045F040006060A8074B
:100CB00008D5234610226FF001000B99AFF3008096
:100CC00059E007E0234610226FF001000B99FFF76F
:100CD00001FB50E04FF000094F464B46632802D01D
:100CE0005B2806D040E0E80601D40120A06001277F
:100CF0003AE062690121019890475E2805D14FF0E2
:100D000001096269494601989047216939B9002172
:100D10000A46534643F82120491C0829FADBB0B3A0
:100D2000216969B9C11700EBD16253110AEB830144
:100D300022F01F02821A01200B68904003430B60CF
:100D400062690121019890475D28E8D1B9F1000F4F
:100D500009D00020514651F82020D24341F82020EC
:100D6000401C0828F7DB02AB224600976FF0010019
:100D70000B99AFF3008000280CDA401C08D1BBF1BE
:100D8000000F05D04FF0FF300DB0BDE8F08FFFE74A
:100D90004046F9E7E90701D108F1010806444FF0A0
:100DA000000B79E6CCCCCC0C2DE9F04D00231A4693
:100DB0001B1A8A4103DB00200146BDE8F08DC1F318
:100DC0000A52C1F3130141F480154FF0000BD10713
:100DD00002D100186D41521E0027044640F2FF1157
:100DE000384601EB620A3E468046024600204FF438
:100DF0008011FFF72DFEC2197141BB1846EB0100AF
:100E0000B4EB030C75EB000C04D3E41A65EB00059E
:100E100017460E46241908F101006D41804634281A
:100E2000E3DDF91946EB0600091BA84103D24FF098
:100E3000FF32134601E0002213461BEB070046EB8E
:100E40000A51BDE8F04DFFF7E4BC0EB540F2334166
:100E500002910021CDE900110A460B46FFF7E8FC9C
:100E600003B000BD70B5C1F30A5201F00045002483
:100E7000C1F3130140F2FF3341F480119A4201DAC9
:100E8000002070BD40F233439A42A2F2334203DCA9
:100E90005242FFF7DDFD00E090402C43F1D040428C
:100EA00070BD00007F2801D9002208E0064A02EB4D
:100EB0005002C007127800D1120902F00F0201207F
:100EC0009040084070470000E87400080FB410B567
:100ED00040F205220298811A90427CD009DCA0F2EF
:100EE000012070B1012834D002285FD003282FD10F
:100EF0008DE0012970D002296FD0B1F5FE7FF6D1C7
:100F00003FE19DF814009DF8131040EA012000B263
:100F1000C54908809DF816109DF8150041EA00208B
:100F200000B2C14948809DF818109DF8170041EAA9
:100F3000002000B2BC4988809DF81900C8800120BB
:100F400081F846000846B0F84800401CA1F8480067
:100F500065E19DF814009DF8131040EA012000B2ED
:100F6000B149A1F84C009DF816109DF8150041EA12
:100F7000002001B2AC48A0F84E109DF818109DF862
:100F8000170041EA002001B2A748A0F850109DF8D0
:100F90001910A0F85210012180F89210B0F89400B6
:100FA000401C81B2A048A0F8941038E19DF81400CC
:100FB0009DF8131040EA012000B29B49A1F8980067
:100FC0009DF816109DF8150041EA002001B29648E0
:100FD000A0F89A1002E047E071E09EE09DF818103A
:100FE0009DF8170041EA002001B28F48A0F89C103C
:100FF0009DF81910A0F89E10012180F8DE10B0F8BD
:10100000E000401C81B28848A0F8E01007E19DF89C
:1010100014009DF8131040EA012000B28249A1F8A3
:10102000E4009DF816109DF8150041EA002001B279
:101030007D48A0F8E6109DF818109DF8170041EAC9
:10104000002001B27848A0F8E8109DF81910A0F827
:10105000EA10012180F82A11B0F82C01401C81B25D
:101060007148A0F82C11DAE09DF814009DF81310D7
:1010700040EA012000B26D4908809DF816109DF8E5
:10108000150041EA002000B268494880002002F0C3
:101090003DF86648B0F900006449B1F864104FF4B7
:1010A000005212FB010061490866012081F87200BC
:1010B0000846B0F87400401CA1F87400AFE09DF839
:1010C00014009DF8131040EA012000B25749A1F81E
:1010D00078009DF816109DF8150041EA002001B235
:1010E0005248A0F87A10012002F010F84F48B0F9E9
:1010F0007810B0F8DC004FF4005212FB00114B489E
:10110000C0F8D810012180F8EA10B0F8EC00401CBB
:1011100081B24648A0F8EC1081E09DF814009DF8DB
:10112000131040EA012000B2414908809DF81610D2
:101130009DF8150041EA002000B23D4948809DF825
:1011400018109DF8170041EA002000B23849888045
:10115000002001F08FFF3648B0F900003449B1F8A3
:1011600064104FF4005212FB01003149086601205F
:1011700081F876000846B0F87800401CA1F87800A5
:1011800000BF9DF813109DF8140041EA002000EE06
:10119000100AB8EE400ADFED270A80EE201A264832
:1011A00080ED001A9DF815109DF8160041EA002008
:1011B00000EE100AB8EE400ADFED1E0A80EE201A9B
:1011C0001D4880ED011A9DF817109DF8180041EA9E
:1011D000002000EE100AB8EE400ADFED160A80EE9D
:1011E000201A154880ED021A9DF819109DF81A0072
:1011F00041EA002000EE100AB8EE400ADFED0D0AC9
:1012000080EE201A0C4880ED031A01F049FD0A48CF
:10121000408A401C084948820120087400BF00BF72
:1012200010BC5DF814FB0000B4030020E4040020AF
:10123000D40500200000C842C407002000BFFEE71C
:1012400000B589B00121082002F0C8F90121480643
:1012500002F0D4F902208DF820008DF82100002042
:101260008DF823008DF822000220079007A92C4852
:1012700001F09AFB0120079007A9294801F094FB8F
:1012800009220121264801F0D7FB09220021244828
:1012900001F0D2FB00208DF8160001208DF8170018
:1012A0008DF8180000208DF819008DF81A008DF8BF
:1012B0001B008DF812008DF8130002208DF8140029
:1012C00004208DF815000520ADF8100004A915487C
:1012D00000F0DBF900208DF80A008DF80B000120EA
:1012E0008DF80C000020ADF8080001208DF80D00ED
:1012F0000020ADF80000ADF80200ADF80400ADF834
:101300000600684600F0A4F800220A21142002F02A
:101310004AF801220221034800F0AEF909B000BDED
:10132000000C02400064004000B587B002210A486A
:1013300000F012F970B102AA0021074800F02FFA5C
:101340000698009002A80FC8FFF7C0FD02210248CE
:1013500000F004F807B000BD00640040B1F5007F64
:101360003AD00FDC202928D006DC01291CD0042922
:101370001DD0082940D11DE0402921D0B1F5807F42
:101380003AD126E0B1F5004F31D006DCB1F5806FDF
:1013900025D0B1F5006F2FD124E0B1F5803F12D0F8
:1013A000B1F5003F28D111E0154A826025E00822FE
:1013B000C26022E01022C2601FE0082202611CE02D
:1013C0001022026119E00822426016E010224260F9
:1013D00013E00422426010E0042242600DE0042287
:1013E00042600AE0002282610422426005E000229D
:1013F00082610422426000E000BF00BF704700002D
:10140000010101001CB51048007A012801D1032414
:1014100000E00024E0B28DF8000000208DF801000B
:101420008DF802008DF803008DF804008DF805009A
:101430008DF806008DF807006B464FF4A06200217E
:10144000024800F024FA1CBDF207002000640040AE
:1014500010B50021837A012202FA03F13D4A126895
:1014600042F001023B4B1A603A4A1C3212688A432E
:10147000384B1C331A60027BCAB9364A0C321268E8
:101480008A43344B0C331A604288C38842EA0343D0
:10149000304A4032847A42F834300288838842EA03
:1014A00003432C4A4032847A02EBC4025360027B2D
:1014B000012A19D1274A0C3212680A43254B0C33F2
:1014C0001A604288038842EA0343224A4032847AFF
:1014D00042F83430C288838842EA03431D4A4032CE
:1014E000847A02EBC4025360C27A3AB9194A121DD7
:1014F00012688A43174B1B1D1A6006E0154A121D1D
:1015000012680A43134B1B1D1A60028932B9114A33
:10151000143212688A430F4B14331A600289012A6D
:1015200006D10C4A143212680A430A4B14331A606B
:10153000427B012A06D1074A1C3212680A43054B36
:101540001C331A60034A126822F00102014B1A6030
:1015500010BD00000066004070B504460D46002630
:1015600060692840002871D0B5F5807F5CD010DC20
:10157000082D35D006DC012D20D0022D24D0042DDD
:1015800072D127E0102D31D0202D35D0402D6BD1D8
:1015900038E0B5F5004F60D009DCB5F5007F49D0E3
:1015A000B5F5806F4CD0B5F5006F5DD14FE0B5F566
:1015B000803F2DD0B5F5003F56D12FE0A0682D49D2
:1015C00000F0E2FB064651E0E068032100F0DCFB9E
:1015D00006464BE0E068082100F0D6FB064645E0F1
:1015E000E068102100F0D0FB06463FE020690321AF
:1015F00000F0CAFB064639E02069082100F0C4FB70
:10160000064633E02069102100F0BEFB06462DE0BF
:101610006068082100F0B8FB064627E060681021EA
:1016200000F0B2FB064621E0A069012100F0ACFB0E
:1016300006461BE0A069022100F0A6FB064615E065
:10164000A069042100F0A0FB06460FE00FE0A069AE
:10165000702100F099FB064608E06068042100F064
:1016600093FB064602E0FFE7002600BF00E00026ED
:10167000304670BD010101001AB143690B4343615B
:1016800002E043698B434361704730B50246002056
:101690000023146824F002041460146844F0010468
:1016A000146000E05B1C546804F001041CB94FF6A0
:1016B000FF74A342F6D1546804F001040CB9002071
:1016C0006CE08C79012C04D1146844F0800414601F
:1016D00003E0146824F080041460CC79012C04D158
:1016E000146844F04004146003E0146824F04004DB
:1016F00014600C7A012C04D1146844F020041460A6
:1017000003E0146824F0200414604C7A012C04D106
:10171000146844F01004146003E0146824F010040A
:1017200014608C7A012C04D1146844F0080414600D
:1017300003E0146824F008041460CC7A012C04D16E
:10174000146844F00404146003E0146824F00404F2
:1017500014608C78A407CD7844EA05640D7944EAD6
:1017600005444D7944EA05540D886D1E2C43D4611F
:10177000146824F001041460002300E05B1C54682A
:1017800004F001041CB14FF6FF74A342F6D1546873
:1017900004F001040CB1002000E0012030BD10B5C0
:1017A00000F5D87303EB01131B6803F004031372F5
:1017B000137A53B900F5D87303EB01131B6840F299
:1017C000FF7404EA5353136009E000F5D87303EB88
:1017D00001131B686FF0604404EAD303536000F503
:1017E000D87303EB01131B6803F00203537200F577
:1017F000D87303EB01135B6803F00F03937200F5DA
:10180000D87303EB01135B681B0AD37400F5D8731C
:1018100003EB01139B68D37200F5D87303EB01133C
:101820009B681C0A147300F5D87303EB01139B68C3
:101830001C0C547300F5D87303EB01139B681B0E4B
:10184000937300F5D87303EB0113DB68D37300F5D2
:10185000D87303EB0113DB681C0A147400F5D8730A
:1018600003EB0113DB681C0C547400F5D87303EB15
:101870000113DB681B0E937421B9C36843F0200386
:10188000C36003E0036943F02003036110BDF0B5BA
:1018900085B007460C4615461E460CB9009500E07B
:1018A00001958DF8084000208DF8090008208DF87A
:1018B0000A00002005E0325C0DF10B010A54411CC6
:1018C000C8B20828F7DB6946384600F002F805B0D0
:1018D000F0BD10B502460020936803F08063B3F1B9
:1018E000806F00D110E0936803F00063B3F1006FE4
:1018F00001D1012008E0936803F08053B3F1805FC9
:1019000001D1022000E00420042874D002F5C07345
:1019100003EB00131B6803F0010402F5C07303EB33
:1019200000131C600B7A7BB94B7A0C8843EA445352
:1019300002F5C07404EB00142468234302F5C0745C
:1019400004EB0014236010E00B7A4C6843EAC403F4
:101950004C7A234302F5C07404EB0014246823433B
:1019600002F5C07404EB001423608B7A03F00F03BC
:101970008B7202F5C07303EB00135B6823F00F0456
:1019800002F5C07303EB00135C6002F5C07303EB58
:1019900000135B688C7A234302F5C07404EB0014D7
:1019A00063608B7B1C064B7B44EA03440B7B44EA5D
:1019B0000323CC7A234302F5C07404EB0014A36024
:1019C0008B7C1C064B7C44EA03440B7C44EA0323D7
:1019D000CC7B234302F5C07404EB0014E36002F5F2
:1019E000C07303EB00131B6843F0010402F5C073DE
:1019F00003EB00131C6010BD2DE9FC4107460C46AB
:101A000015461E46380A8DF80000F8B28DF8010020
:101A1000200A8DF80200E0B28DF80300280A8DF844
:101A20000400E8B28DF80500300A8DF80600F0B227
:101A30008DF807006B464FF4007200210248FFF753
:101A400026FFBDE8FC8100000064004010B59FED5A
:101A5000230A234880ED010A4FF47A72D1009FEDEA
:101A6000211AF7EE080AB0EE040A1F4801F018FA2E
:101A70004FF47A72D1009FED1B1AF7EE080AB0EE10
:101A8000040A19484C3001F00BFA4FF47A72D10075
:101A90009FED141AF7EE080AB0EE040A12489830C7
:101AA00001F0FEF94FF47A72D1009FED0E1AF7EEB5
:101AB000080AB0EE040A0C48E43001F0F1F94FF4E2
:101AC000FA7241F29411B2EE0B1ADFED060A9FEDA5
:101AD000070A0348143001F061FD10BD0AD7233D09
:101AE0006806002000000000BC0300206666464037
:101AF00031B52DED040B2DED028B05469FED9A0AB5
:101B0000B0EE408A022D09D100231A461946184624
:101B1000FFF772FFBDEC028B05B030BD9348D0EDEE
:101B2000010AB0EE600A00F1080102A800F010FFFF
:101B30008E48D0ED010AB0EE600A00F10C0103A856
:101B400000F006FF8948D0ED010AB0EE600A00F10E
:101B5000100104A800F0FCFE8548008801287BD015
:101B600083480088022879D19FED7F0A7F4880ED65
:101B7000100A804890ED180AB8EEC00ADFED7E0A20
:101B800030EE600AB5EEC00AF1EE10FA08DD90ED15
:101B9000180AB8EEC00ADFED780A30EE600A0AE0F3
:101BA000744890ED180AB8EEC00ADFED730A30EE03
:101BB000600AB1EE400AF3EE040AB4EEE00AF1EE78
:101BC00010FA24DC9DED030AB5EEC00AF1EE10FA1E
:101BD00002DD9DED030A03E09DED030AB1EE400A2C
:101BE000DDED020AF5EEC00AF1EE10FA02DDDDEDE0
:101BF000020A03E0DDED020AF1EE600A30EE200A8F
:101C0000F1EE040AB4EEE00AF1EE10FA13DD5948E1
:101C100090ED180AB8EEC00AF0EE400A9FED560AA1
:101C20005248143001F03AFC00EE100AB8EEC00A37
:101C30004E4880ED100A9FED510A4C494431081F6F
:101C400000F086FE494890ED040AD0ED110A30EE0E
:101C5000200AB0EE408A06E014E0FFE7434890ED2A
:101C6000040AB0EE408A414890ED031AF0EE410AB2
:101C700090ED021AB0EE410A4148B0EE481A01F068
:101C80009BFA0FE03948D0ED041AB0EE611AD0ED9E
:101C9000031AF0EE610AD0ED021AB0EE610A38487C
:101CA00001F08AFA002450E004EB440000EB041039
:101CB000344901EB800090F84600012844D13048B7
:101CC00030F8140004EB440101EB04112D4A02EB3F
:101CD0008101A1F8400004EB440101EB041102EB87
:101CE0008101B1F9021001EE101AB8EEC11AF0EE3E
:101CF000410A04EB440101EB041102EB8101B1F94B
:101D0000401001EE101AB8EEC11AB0EE410A04EB11
:101D1000440101EB041102EB810101F1080001F023
:101D20003BF800B204EB440101EB0411154A02EB4D
:101D30008101A1F84400002004EB440101EB0411EF
:101D400002EB810181F84600641C042CACDB0D4CD5
:101D5000B4F92831B4F9DC20B4F99010B4F9440096
:101D6000FFF74AFE00BFD5E600000000680600202D
:101D700094080020E404002000707345CDCCCC3DD5
:101D80003C000020B40300200246002002EA0103C8
:101D90000BB1012000E00020704700002DE9FC415C
:101DA00007460C4615461E46380A8DF80000F8B264
:101DB0008DF80100200A8DF80200E0B28DF80300D2
:101DC000280A8DF80400E8B28DF80500300A8DF875
:101DD0000600F0B28DF807006B4640F2FF120021BA
:101DE0000248FFF754FDBDE8FC810000006400409C
:101DF00010B59FED480A484880ED010A474890ED2C
:101E0000180AB8EEC00A444880ED030A80ED020AC1
:101E1000424890ED360AB8EEC00A3F4880ED050A08
:101E200080ED040A00224FF47A619FED3D1ADFED48
:101E30003C0ABAEE040A3948083001F0AFFB002230
:101E40004FF4FA71B7EE001ADFED350AB0EE000A72
:101E50003248343001F0A2FB00224FF47A61BBEE2D
:101E6000041ADFED2F0AB9EE080A2C48803001F081
:101E700095FB00224FF4FA719FED291ADFED280A35
:101E8000B0EE000A2548AC3001F088FB254890ED03
:101E9000070A214880ED070A80ED060A214890EDE7
:101EA000030A1D4880ED090A80ED080A00224FF45C
:101EB000FA71BEEE001AF8EE040A9FED1B0A3830E4
:101EC00001F06CFB00224FF47A619FED181ADFEDF0
:101ED000140A9FED170A1048643001F05FFB0022DE
:101EE0004FF4FA719FED0E1ADFED0D0AB8EE000AFD
:101EF0000948903001F052FB00224FF47A619FEDC7
:101F00000D1ADFED070A9FED0A0A0348BC3001F005
:101F100045FB10BDCDCCCC3DB4060020E404002030
:101F2000000000009C0700208F8EA7BF000040C269
:101F3000000070C2000020C221B1026842F001021C
:101F4000026003E0026822F00102026070470000B4
:101F5000016821F0010101600021016041608160A0
:101F6000C1600161212141614A49884204D13D217A
:101F7000484A103A91608CE046491831884205D1B0
:101F80004FF47461434A103A916082E04149303124
:101F9000884205D14FF474113E4A103A916078E0BE
:101FA0003C494831884205D14FF07461394A103AB2
:101FB00091606EE037496031884204D13649354A34
:101FC000103AD16065E033497831884204D1334911
:101FD000304A103AD1605CE02E499031884204D1F9
:101FE0002F492C4A103AD16053E02A49A83188423F
:101FF00005D14FF03D51274A103AD16049E02949B7
:10200000884204D13D21274A083A116041E0254920
:102010001831884205D14FF47461224A083A1160A0
:1020200037E020493031884205D14FF474111D4A00
:10203000083A11602DE01B494831884205D14FF024
:102040007461184A083A116023E0164960318842E9
:1020500004D11149134A121F11601AE01149783155
:10206000884204D10D490F4A121F116011E00D4939
:102070009031884204D10A490A4A121F116008E0CF
:102080000849A831884204D14FF03D51054A121F3A
:1020900011607047106002403D000020400F00209A
:1020A00000003D2010640240014600200A6802F052
:1020B00001020AB1012000E0002070470146486893
:1020C00080B2704710B500220268134B1A40CC68EA
:1020D0000B6823434C6923438C692343CC69234316
:1020E0000C6A23434C6A23438C6A23434C6B23437F
:1020F0008C6B23431A430260426922F00702D1E944
:102100000B3423431A4342610B6943604B6883607D
:102110008B68C36010BD00003F801CF041607047B9
:1021200010B5044802F028FA1621034802F076FAA6
:1021300010BD0000A0860100DC0700200022CA803C
:102140008A8008800A884B889A4209D00A8812B18E
:102150000A88CA8004E04A888A8000220A814A816B
:102160000A884AB14A89521C4A814A89322A03DDC7
:102170000A880A8100224A810A884A807047000042
:1021800010B5044604B910BD2078617840EA0120FA
:10219000C0F30A00614908806078C010A17840EA65
:1021A0004110C0F30A005D494880A0788011E178B1
:1021B00040EA8100217940EA8120C0F30A005749B2
:1021C000888020794010617940EAC110C0F30A008C
:1021D0005249C88060790011800808726079C0F3A4
:1021E00001104872A079E17940EA012000B24B4920
:1021F0004881207A617A40EA012001B24748818112
:10220000A07AE17A40EA012001B24448C181217BF1
:102210000174617B4174A07BE17B40EA01203F496E
:10222000488208460088A0F5806000B20880084611
:102230004088A0F5806000B2488008468088A0F5FC
:10224000806000B288800846C088A0F5806000B237
:10225000C880B1F9000000F071F800B22F49088081
:10226000B1F9020000F06AF800B22C494880B1F9D7
:10227000040000F063F800B228498880B1F9060034
:1022800000F05CF800B22549C8800846B0F90400A7
:10229000404201EE100AB8EEC11AF0EE410A0846BB
:1022A000B0F9060001EE100AB8EEC11AB0EE410A0C
:1022B0001B4801F037FA1948B0F9020001EE100A84
:1022C000B8EEC11AF0EE410A1448B0F9000001EE70
:1022D000100AB8EEC11AB0EE410A124801F022FA13
:1022E0000E49087C1049FFF729FF0C49487C0F492B
:1022F000FFF724FF0949488A0D49FFF71FFF0748E8
:10230000808A401C054988820846407A094908703D
:102310000248407A0849087000BF34E7F2070020FD
:102320000C0800202008002054080020600800202D
:102330004808002068060020B406002010B50446B6
:1023400000EE104AB8EEC00A04F000FDF3EE040AF5
:10235000B4EEE00AF1EE10FA00D20024204610BDDF
:10236000704700005448808A052803DA012052494A
:10237000887502E000205049887500204E49888207
:1023800000BF2AE000EB400101EB00114B4A02EBD9
:102390008101B1F8481005290ADA012100EB400259
:1023A00002EB0012454B03EB820282F84A1009E06F
:1023B000002100EB400202EB0012404B03EB8202D3
:1023C00082F84A10002100EB400202EB00123B4B66
:1023D00003EB8202A2F84810401C0428D2DB002044
:1023E00022E0C0EB0011364A02EBC101B1F87410D3
:1023F000052908DA0121C0EB0012314B03EBC202C0
:1024000082F8761007E00021C0EB00122C4B03EBA2
:10241000C20282F876100021C0EB0012284B03EBB9
:10242000C202A2F87410401C0228DADB2548808C16
:10243000052804DA0120234981F8260003E0002062
:10244000204981F8260000201E49888400BF22E030
:10245000C0EB40111C4A02EB8101B1F8781005294C
:1024600008DA0121C0EB4012174B03EB820282F81D
:102470007A1007E00021C0EB4012134B03EB8202FD
:1024800082F87A100021C0EB40120F4B03EB82025E
:10249000A2F87810401C0128DADB0C48408A052895
:1024A00003DA01200949087502E000200749087590
:1024B0000020064948827047F2070020B40300203C
:1024C000E40400209C070020D4050020C40700205D
:1024D00010B500214FF4006000F006FD18B1012096
:1024E0000349488102E000200149488110BD0000F5
:1024F0009408002010B52DED028B04464648C08894
:10250000012803D045480088012804D19FED440AE2
:10251000444880ED000A40488088012804D19FED9E
:10252000420A404880ED000A3B48808838B93A4862
:10253000C08820B99FED3D0A3A4880ED000A00218D
:10254000012000F0D1FC50B1394804F0F3FC3548CB
:10255000D0ED000A20EE200A84ED000A19E00021E7
:10256000022000F0C1FC60B1314804F0E3FC2D48CA
:10257000D0ED000AF1EE600A20EE200A84ED000A98
:1025800007E09FED2C0A84ED000A3221284804F070
:10259000F1FC0021042000F0A7FC50B1264804F013
:1025A000C9FC2048D0ED000A20EE200A84ED010A83
:1025B00019E00021082000F097FC60B11E4804F0EB
:1025C000B9FC1848D0ED000AF1EE600A20EE200AAE
:1025D00084ED010A07E09FED170A84ED010A32211C
:1025E000154804F0C7FC0021402000F07DFC20B11C
:1025F0000C4890ED000AB1EE408A0021802000F0E6
:1026000073FC10B10748D0ED008A38EE280A84ED3B
:10261000030ABDEC028B10BD940800206008002066
:10262000008009459C0000200040CE45008089457F
:1026300050060020000000005C06002010B52DEDC3
:10264000048BB0EE408AF0EE608A0446B04890ED0C
:10265000180AB8EEC00AAF4880ED020A80ED030AFE
:10266000022C03D0AC4890F82600F8B1B7EE000A6F
:10267000AA4880ED000AA84890ED051AF0EE410A3C
:1026800090ED071AB0EE410A00F082F99FEDA40A1E
:10269000A04880ED040A80ED050A00231A46194679
:1026A0001846FFF77BFBBDEC048B10BD9D48807D79
:1026B000012807D19FED9C0AB0EE408A9FED9A0A4F
:1026C000F0EE408A01F08AF9F3EE0E0A88EE200A55
:1026D0009048D0ED060A30EE200A80ED060A90ED13
:1026E000040A30EE680A80ED040A00F03FFB8A48D5
:1026F000D0ED070A30EE200A864880ED0A0A00F085
:1027000035FBDFED8A0A30EEC00A8348D0ED070AB8
:1027100030EEC00A7F4880ED0B0A00F005FB7E48D2
:10272000D0ED030A30EE200A7A4880ED0C0A00F062
:10273000FBFADFED7F0A30EEC00A7748D0ED030ADE
:1027400030EEC00A734880ED0D0A7A4800880228EE
:1027500047D1714890ED070A6E48D0ED0A0AB4EEF1
:10276000E00AF1EE10FA18DDB5EEC08AF1EE10FACB
:102770000ED2F2EE000A88EE200AF3EE0E0A80EE88
:10278000201A90ED060A31EE000A80ED060A04E0F8
:10279000604890ED0A0A80ED060A5F4890ED070A4E
:1027A0005C48D0ED0B0AB4EEE00AF1EE10FA18D254
:1027B000B5EEC08AF1EE10FA0EDDF2EE000A88EEF8
:1027C000200AF3EE0E0A80EE201A90ED060A30EE93
:1027D000410A80ED060A04E04E4890ED0B0A80EDB8
:1027E000060A4C4890ED040ADFED530AB4EEE00A05
:1027F000F1EE10FA03DD9FED500A80ED040A454822
:1028000090ED040ADFED4D0AB4EEE00AF1EE10FAA5
:1028100003D29FED4A0A80ED040A9FED490A3D4923
:102820001C31081F00F094F89FED460A3949143115
:10283000081F00F08DF8374890ED050ABDEEC00A7C
:1028400010EE101A012000F0ADFC314890F876002F
:1028500040BB314890ED071AF0EE410A2D4890ED4B
:10286000071AB0EE410A383000F018FE00EE100AE8
:10287000B8EEC00AB0EE409A274890ED020AF0EE9A
:10288000400AB0EE490A2348643000F007FE00B267
:102890001F49A1F870002C4880ED009A002081F8B3
:1028A000720000BF1A4890F8EE0020BB184890ED67
:1028B000361AB8EEC11AF0EE410A90ED381AB8EEA9
:1028C000C11AB0EE410AAC3000F0E8FD09EE100A82
:1028D000114890ED010AF0EE400AB8EEC90A0C4822
:1028E000803000F0DBFD01B20948A0F8E8100021BB
:1028F00080F8EA1000BF154BB3F97420044BB3F90C
:10290000E810B3F970000023FFF748FA00BFCAE6E9
:10291000E4040020B40600209C07002048000020AA
:1029200000208045F20700200000000044383443B6
:102930003EDE0342940800200050914500C07345DC
:10294000CDCCCC3ECDCCCC3D44000020D4050020E5
:10295000D0ED000A91ED001A30EEC11AD1ED000A57
:1029600040EE010AC1ED000A704702680B68D21AF6
:1029700000EE902AB8EEE01AD1ED000AF8EEE00A77
:1029800040EE010AFDEEE00AC1ED000A70470000CA
:10299000044880ED060A80ED070AC0ED080AC0ED84
:1029A000090A7047B4060020F0B50A46002100234A
:1029B000002400BF3DE0012505FA01F3156805EA92
:1029C00003049C4234D105684F000326BE40B54342
:1029D000056015794E00B5400668354305601579E8
:1029E000012D02D01579022D16D185684F000326DE
:1029F000BE40B543856055794E00B5408668354385
:102A00008560456801268E40B543456045689679E6
:102A10008E40B6B235434560C5684F000326BE40C0
:102A2000B543C560D5794E00B540C6683543C5602D
:102A3000491C1029BFD3F0BDF0B5002300244D0779
:102A4000ED0E02FA05F3CE1000F1200555F82650E0
:102A50004E07F70E0F26BE40B543CF1000F12006FB
:102A600046F82750CE1000F1200555F8265045EACB
:102A70000304CE1000F1200545F82640F0BD018387
:102A8000704742694A40426170470AB1018300E0E1
:102A90004183704701460022002004E00B5C134490
:102AA000DAB2431CD8B21128F8DB487C904201D13D
:102AB000012070470020FCE710B54FF4E13002F030
:102AC000F1F81E21014802F041F910BD76080020FE
:102AD000FEB506460F4614460025D6E0705D5A281E
:102AE0007ED1681C305C5A28FAD17019FFF7D2FFEA
:102AF000002876D0681D315C281D305C41EA00203A
:102B000000B2ADF80000E81D315CA81D305C41EA60
:102B1000002000B2ADF8020005F10900315C401E52
:102B2000305C41EA002000B2ADF8040005F10B0072
:102B3000315C401E305C41EA002000B2ADF8060076
:102B400005F10D00315C401E305C41EA002000B20E
:102B5000ADF8080005F10F00315C401E305C41EA21
:102B6000002000B2ADF80A00BDF9000000EE100A26
:102B7000B8EEC00ADFED470A80EE201A84ED001A95
:102B8000BDF9020000EE100AB8EEC00ADFED410AFE
:102B900080EE201A84ED011ABDF9040000EE100A3F
:102BA000B8EEC00ADFED3B0A80EE201A84ED021A6F
:102BB000BDF8060080B200EE100AB8EE400ADFED64
:102BC000350A80EE201A84ED051ABDF9080000EEE2
:102BD000100AB8EEC00ADFED2F0A80EE201A01E0DD
:102BE00051E04DE084ED031ABDF90A0000EE100A31
:102BF000B8EEC00ADFED270A80EE201A84ED041A31
:102C000005F11000305C84F8220094ED050AD4ED43
:102C1000060A30EE600ADFED200AB4EEE00AF1EEBB
:102C200010FA03D2208C401C00B2208494ED060AD6
:102C3000D4ED050A30EE600ADFED170AB4EEE00AC3
:102C4000F1EE10FA03D2208C401E00B2208494EDE5
:102C5000050A84ED060A94ED050AB4F9200000EE99
:102C6000900AF8EEE00A9FED0D1A01EE200A84EDBD
:102C7000070AA08C401CA084012084F82300FEBD1C
:102C8000681C85B201E0681C85B2BD42FFF626AF24
:102C900000BFF4E70000C842000096C30000B44340
:102CA000104890ED030AF3EE0E0AB4EEE00AF1EEDE
:102CB00010FA03D201200C4981F848000A4890F824
:102CC000480068B1074890ED030ADFED080AB4EE4A
:102CD000E00AF1EE10FA03DD0020034981F8480014
:102CE00070470000C407002068060020000048422A
:102CF0000548007805490978884202D103480078E0
:102D0000704700BFFCE7000068060020B406002002
:102D100001480078704700006806002001480078EC
:102D200070470000B4060020044890ED360AB8EE63
:102D3000C00ADFED030A30EE600A7047E4040020A9
:102D400000C07345064890ED180AB8EEC00ADFEDE2
:102D5000050A70EE600A9FED041A80EE810A704742
:102D6000E4040020007073450000B641064890ED71
:102D7000180AB8EEC00ADFED050A70EE600A9FED92
:102D8000041A80EE810A7047E40400200040E74402
:102D90000000B64100BFFEE708B50146F0EE401A5C
:102DA000B0EE602AC1ED001A81ED012A91ED000A12
:102DB000D1ED010A30EE600A81ED020AD1ED020A7E
:102DC000B0EE600A03F0C2FFDFED330AB4EEE00AB2
:102DD000F1EE10FA03D29FED310A81ED020A91ED76
:102DE000020AD1ED030A30EE600AD1ED050A60EE69
:102DF000202A91ED060AD1ED020A20EE200A8DED7F
:102E0000000A91ED020AD1ED030AB0EE001A01EEBC
:102E1000600AD1ED040A30EE200AD1ED070A20EE57
:102E2000203AD1ED0D0AF8EE600AB0EE600A68466D
:102E300000F06AF89DED000A32EE800A30EE030AD7
:102E400081ED090A91ED0B0AD1ED090A30EE200A55
:102E500081ED0A0A91ED0A0A81ED080A91ED0A0A4C
:102E600081ED0B0AD1ED0C0AF8EE600AB0EE600AB3
:102E700001F1200000F0F2FA91ED030A81ED040A5D
:102E800091ED020A81ED030A91ED080ABDEEC00A38
:102E900010EE100A08BD0000CDCC4C3E0000000032
:102EA000DFED101AC0ED001ADFED0E1AC0ED011AA9
:102EB000DFED0C1AC0ED021ADFED0A1AC0ED031A9D
:102EC000DFED081AC0ED041A80ED050AC0ED060A10
:102ED00080ED071A01634263DFED021AC0ED081AA4
:102EE0007047000000000000024639B10548008824
:102EF000904201D1012070470020FCE70148008882
:102F00001040F8E748080020D0ED000AF4EEC00AAF
:102F1000F1EE10FA01DD80ED000AD0ED000AB1EE0D
:102F2000401AF4EEC10AF1EE10FA03D2F1EE400AB3
:102F3000C0ED000A704700001CB50121702000F0B0
:102F40004DFB01208DF8040000208DF806008DF85F
:102F500007008DF805008020009069463448FFF78F
:102F600023FD4FF48040009069463248FFF71CFD76
:102F7000002280212E48FFF788FD012291032D4871
:102F8000FFF783FD4FF40070009069462848FFF773
:102F90000BFD4FF48060009069462548FFF704FD63
:102FA0004FF40060009069462148FFF7FDFC4FF4A4
:102FB0008050009069461E48FFF7F6FC4FF4005021
:102FC000009069461A48FFF7EFFC4FF480400090EC
:102FD00069461748FFF7E8FC4FF400400090694647
:102FE0001348FFF7E1FC012251021148FFF74DFDA4
:102FF000012291020E48FFF748FD0122D1020C4840
:10300000FFF743FD012211030948FFF73EFD0122AE
:1030100051030748FFF739FD012291030448FFF7E8
:1030200034FD0122D1030248FFF72FFD1CBD000033
:1030300000100240001402401CB50121402000F0A5
:10304000CDFA01208DF8040000208DF806008DF8DF
:1030500007008DF805004FF40050009069460448C1
:10306000FFF7A2FC4FF400510148FFF708FD1CBD1B
:1030700000180240C0EB4011224A32F92110C0EB87
:103080004012204B03EB8202126F891A1E4A9142B2
:103090000EDAC0EB40111A4602EB8101B1F8641060
:1030A000491C09B2C0EB401203EB8202A2F8641083
:1030B000C0EB4011134A02EB8101096FC0EB4012D3
:1030C000104B33F92220891A0F4A91420EDAC0EBD5
:1030D00040111A4602EB8101B1F86410491E09B291
:1030E000C0EB401203EB8202A2F86410C0EB401167
:1030F000044A32F92110C0EB4012024B03EB82026A
:1031000011677047D405002090E8FFFFC0EB001165
:10311000224A32F93110C0EB0012204B03EBC202FD
:10312000D26E891A1E4A91420EDAC0EB00111A467D
:1031300002EBC101B1F86410491C09B2C0EB0012E6
:1031400003EBC202A2F86410C0EB0011134A02EBB9
:10315000C101C96EC0EB0012104B33F93220891A3D
:103160000F4A91420EDAC0EB00111A4602EBC10180
:10317000B1F86410491E09B2C0EB001203EBC202A1
:10318000A2F86410C0EB0011044A32F93110C0EB10
:103190000012024B03EBC202D1667047E404002028
:1031A00090E8FFFFC0EB0012024B03EBC2029166F6
:1031B00070470000E40400200FB50146F7EE002A36
:1031C000F0EE621ADFED722AB0EE622A00BFDFED88
:1031D000712AB4EEE20AF1EE10FA04D8DFED6D2A9E
:1031E000B0EE620A0AE0DFED6C2AB4EEE20AF1EE1C
:1031F00010FA03DBDFED682AB0EE620A00BF00BF01
:10320000DFED642AF4EEE20AF1EE10FA04D8DFED05
:10321000612AF0EE620A0AE0DFED5F2AF4EEE20ACC
:10322000F1EE10FA03DBDFED5C2AF0EE620A00BF7C
:1032300000BFDFED582AB4EEE21AF1EE10FA04D81E
:10324000DFED542AB0EE621A0AE0DFED532AB4EE45
:10325000E21AF1EE10FA03DBDFED4F2AB0EE621A4C
:1032600000BF70EE602A72EE812ACDED002A70EE6A
:10327000202A72EE812ACDED012AF1EE402A72EE6B
:10328000A02A72EE812ACDED022AF1EE402A72EEDA
:10329000E02A72EE812ACDED032A0020002202EE00
:1032A000902A3DE06A4602EB800292ED003AB5EECC
:1032B000C03AF1EE10FA05DD6A4602EB800292EDAB
:1032C000003A06E06A4602EB800292ED003AB1EE67
:1032D000433AF8EE623AB4EEE33AF1EE10FA1DDD4D
:1032E0006A4602EB800292ED003AB5EEC03AF1EE8A
:1032F00010FA05DD6A4602EB800292ED003A06E024
:103300006A4602EB800292ED003AB1EE433ABCEE1F
:10331000C33A13EE102AD2B202EE902A421CD0B267
:103320000428BFDBDFED1D2AB4EEE22AF1EE10FA2D
:1033300005DDDFED1A2A82EE823AF0EE431ADDED6A
:10334000002A62EEA12AFDEEE22A12EE900A00B2F5
:103350000880DDED012A62EEA12AFDEEE22A12EEDE
:10336000900A00B24880DDED022A62EEA12AFDEE4D
:10337000E22A12EE900A00B28880DDED032A62EEA6
:10338000A12AFDEEE22A12EE900A00B2C8800FBD1B
:10339000000000000040CEC50040CE4500C05A45A8
:1033A00000BFFEE77047F8B506460C461546F0B27A
:1033B0008DF80000E0B28DF80100E8B28DF802004F
:1033C00001208DF80300684600F002F8F8BD000007
:1033D00070B5002100230F22C4781CB3174C246859
:1033E00004F4E064C4F5E064C4F30721C1F104040B
:1033F000E3B20A4144789C40E1B28478144021430E
:103400000C07210E0E4C05786155047804F01F0559
:103410000124AC4005786D11AD0005F1E025C5F83B
:10342000004109E0047804F01F050124AC40054D7B
:103430000678761145F8264070BD00000CED00E0DE
:1034400000E400E080E100E002490143024A11602B
:10345000704700000000FA050CED00E0D0ED000A16
:10346000F4EEC00AF1EE10FA01DD80ED000AD0EDB5
:10347000000AB1EE401AF4EEC10AF1EE10FA03D2DE
:10348000F1EE400AC0ED000A704700000220024938
:1034900008800120488070479408002008B5014644
:1034A000F0EE401AB0EE602AC1ED001A81ED012A5B
:1034B00091ED000AD1ED010A30EE600A81ED020AB9
:1034C00091ED020AB5EEC00AF1EE10FA02DD91EDBF
:1034D000020A03E091ED020AB1EE400AF3EE040A9B
:1034E000B4EEE00AF1EE10FA07D291ED040AD1ED44
:1034F000020A30EE200A81ED040AD1ED020AB0EE94
:10350000600A03F023FCF6EE000AB4EEE00AF1EEE6
:1035100010FA03D29FED200A81ED020A91ED050A0F
:10352000D1ED020A60EE202A91ED060AD1ED040ADF
:1035300020EE200A8DED000A91ED020AD1ED030A7A
:1035400030EE600AD1ED070A20EE203AD1ED0A0AEA
:10355000F8EE600AB0EE600A6846FFF7D5FC9DED14
:10356000000A32EE800A30EE030A81ED080AD1ED3E
:10357000090AF8EE600AB0EE600A01F12000FFF7D8
:103580006DFF91ED020A81ED030A91ED080ABDEE8F
:10359000C00A10EE100A08BD00000000DFED0E1A90
:1035A000C0ED001ADFED0C1AC0ED011ADFED0A1AAA
:1035B000C0ED021ADFED081AC0ED031A80ED050A0E
:1035C000C0ED060A80ED071A41628262DFED021A41
:1035D000C0ED081A704700000000000029B1064A3B
:1035E00012680243044B1A6004E0034A12688243E3
:1035F000014B1A60704700003038024029B1064A7A
:1036000012680243044B1A6004E0034A12688243C2
:10361000014B1A60704700004038024029B1064A49
:1036200012680243044B1A6004E0034A12688243A2
:10363000014B1A607047000044380240F0B5002189
:1036400000220024022500260223324F3F6807F0A3
:103650000C0121B1042905D0082937D105E02E4FEE
:10366000076036E02D4F076033E02A4F3F1F3F6869
:10367000C7F38056274F3F1F3F6807F03F036EB1E7
:10368000264FB7FBF3F7DFF88CC0ACF1040CDCF885
:1036900000C0CCF3881C07FB0CF40CE01E4FB7FBFA
:1036A000F3F7DFF870C0ACF1040CDCF800C0CCF329
:1036B000881C07FB0CF4174F3F1F3F68C7F30147F7
:1036C0007F1C7D00B4FBF5F7076002E0124F076036
:1036D00000BF00BF0F4F3F6807F0F0010909104F0E
:1036E0007A5C0768D74047600A4F3F6807F4E051AB
:1036F000890A0B4F7A5C4768D7408760054F3F685F
:1037000007F46041490B064F7A5C4768D740C760B1
:10371000F0BD0000083802400024F400001BB70090
:10372000B800002010B52DED0A8BB0EE408AF0EE07
:10373000608A044684ED008AC4ED018A94ED000A93
:1037400010EE101A0846FCF784FF41EC1A0B94EDBA
:10375000010A10EE101A0846FCF77BFF41EC1B0B28
:10376000B0EE4A1AF0EE6A1AB0EE4B0AF0EE6B0AAF
:1037700001F0CEFDB0EE409AF0EE609A51EC190BDC
:10378000FCF77AFFA06094ED020ADFED2B0A20EE31
:10379000200ADFED2A0A80EE201A84ED031A94ED48
:1037A000010A10EE101A0846FCF753FF41EC1C0BFF
:1037B0009FED231BB0EE4C0AF0EE6C0A01F004FF03
:1037C000B0EE40AAF0EE60AA94ED000A10EE101AD6
:1037D0000846FCF73EFF41EC1C0B9FED191BB0EEB9
:1037E0004C0AF0EE6C0A01F0EFFEB0EE40BAF0EEDB
:1037F00060BA53EC1A2B51EC1B0BFCF711FE41EC99
:10380000190BFCF739FF00EE100AF1EEC00AC4ED07
:10381000040A94ED030ADFED080AB4EEE00AF1EEC3
:1038200010FA05DD94ED040AB1EE400A84ED040AB5
:10383000BDEC0A8B10BD000000003443DB0F494093
:1038400000000000000000400CB500200190009036
:103850004148006840F480303F49086000BF3E485E
:10386000006800F4003000900198401C019000981E
:1038700018B90198B0F5A04FF1D13748006800F4AD
:10388000003010B10120009001E00020009000986D
:10389000012860D130484030006840F080502E4907
:1038A000403108602D48006840F440402B490860D2
:1038B000294808300068284908310860084600682F
:1038C00040F4004008600846006840F4A0500860DA
:1038D0002348091F0860081F006840F08070091F16
:1038E000086000BF1C48006800F000700028F9D094
:1038F0001A48006840F480301849086000BF174833
:10390000406800F480300028F9D01448006840F482
:1039100000301249086000BF1048406800F40030D1
:103920000028F9D040F205700E4908600A480830B6
:10393000006820F003000849083108600846006864
:1039400040F00200086000BF03480830006800F043
:103950000C000828F8D10CBD00380240007000406F
:103960000C5A4007003C024010B500201449088062
:103970004880144908804FF4C86048804FF47A7238
:1039800040F2CF71632000F08FF94FF4FA6291009A
:103990009FED0D1ADFED0D0AB7EE080A0C48FFF790
:1039A000FDFD4FF4FA72D1009FED0A1ADFED060A11
:1039B0009FED090A06482C30FFF7F0FD10BD00000E
:1039C0004C00002054000020000000000AD7233DD6
:1039D000DC050020CDCC4C3F9A99993E10B52DEDD9
:1039E000028B6048008808B903F00AFA5E48008834
:1039F00030B35C48008818B35C4890ED000AD0ED05
:103A0000000AB7EE001A70EE810AC0ED000ADFED81
:103A1000580AB4EEE00AF1EE10FA11DD5548C06E16
:103A200000F510405349C8664F488088401C4E49F5
:103A300088809FED510A4D4880ED000A0120C88022
:103A40004C4890F87A0000287ED14A4890ED181A28
:103A5000B8EEC11AF0EE410A90ED1B1AB8EEC11A89
:103A6000B0EE410A3430FFF719FD08EE100A414864
:103A7000B0F9020000EE100AB8EEC00AF0EE400AFB
:103A8000B8EEC80A3B480830FFF708FD00B23949D4
:103A9000A1F874000846B0F97400002803DD084658
:103AA000B0F9740003E03348B0F97400404241F6C5
:103AB0003801884222DD2F48B0F90200002803DDDA
:103AC0002C48B0F9020003E02A48B0F90200404255
:103AD000322813DA294801680068401C274A106020
:103AE00032290BDD2648007840B92248C06EA0F587
:103AF00090302049C8660120214908701D4890ED8A
:103B00000F0AB5EEC00AF1EE10FA02DD90ED0F0AD1
:103B100004E0184890ED0F0AB1EE400ADFED190AF3
:103B2000B4EEE00AF1EE10FA06D200201449087053
:103B3000124908600C49C8800E48B0F96400642836
:103B40000CDD0C48C16E00E009E0B0F96400A1EBA7
:103B500040300849C8660020A1F8640000BFBDECF1
:103B6000028B10BD540000204C0000205C0000209F
:103B70000000C842D40500200000000064000020BE
:103B8000600000200000FA4530B50146481EB0F143
:103B9000807F01D3012030BD481E4FF0E0225061EC
:103BA00050170F22002807DA13071D0E094B00F0EB
:103BB0000F04241F1D5503E013071C0E064B1C5455
:103BC00000BF00204FF0E02290610720106100202C
:103BD000E1E7000018ED00E000E400E010B503F0BC
:103BE00095FA012801D003F077FA10BD10B51548F9
:103BF000006840F47000134908601348006840F002
:103C000001001149086000200F49083108600E4882
:103C100000680E4908400C4908600D48091D0860FD
:103C2000081F006820F48020091F08600020064952
:103C30000C310860FFF708FE4FF000600149803941
:103C4000086010BD88ED00E000380240FFFFF6FE7E
:103C5000103000241CB501218020FFF7BFFC02209A
:103C60008DF8040000208DF806008DF80700032071
:103C70008DF805004020009069460A48FEF794FE42
:103C8000092206210748FEF7D7FE4FF40070009086
:103C900069460448FEF788FE092211460148FEF7EE
:103CA000CBFE1CBD001C024070B588B006460C4619
:103CB0001546FFF7CFFF01214020FFF79FFCADF82D
:103CC000146006940020ADF81C00ADF8160005A99C
:103CD000114800F0E9FB6020ADF800000120ADF8CC
:103CE00002000020ADF804000295ADF80C00ADF81C
:103CF0001000ADF80E00ADF812006946064800F05D
:103D00003BFB6946044800F075FB0121024800F0C6
:103D10000CFB08B070BD0000001800403EB5054621
:103D20000C4601211020FFF769FCADF8005001940A
:103D30000020ADF80800ADF8020069460A4800F01E
:103D4000B3FB0121084800F0E1FA0121064800F028
:103D5000ECFA01221146044800F004FB002209217C
:103D60003620FFF720FB3EBD0010004070B52DED62
:103D7000108B82B09FEDF90AB0EE408A9FEDF70AF2
:103D8000F0EE408A9FEDF50A8DED010A9FEDF30AF2
:103D9000B0EE409A9FEDF10AF0EE409A9FEDEF0AE7
:103DA00010EE104A00260121ED4800F0CAFA002862
:103DB0007ED0EC480068401CEA490860642806DDB3
:103DC0008021E948FEF75DFE0020E6490860FEF725
:103DD0008FFF01286DD0022802D0032805D105E00D
:103DE0000020E2490860E2490860EBE10220E14975
:103DF0000880FDF707FBE04890ED000A9FEDDF1A11
:103E0000C0EE010A9FEDDE0A20EE800AB0EE408A85
:103E1000D0ED010A9FEDDB1A80EE810ADFEDD80AB2
:103E200020EE200AF0EE408AD74890ED000AF2EE2C
:103E3000000A80EE201AB0EE419A90ED010AF1EEF0
:103E40000C0A80EE201AF0EE419AD048007A012840
:103E500006D100224103CE48FEF717FE02F0BEFF56
:103E6000CA48007A022803D0C848007A032806D13D
:103E700001225103C648FEF708FE02F0C1FFC54803
:103E80000068032190FBF1F000EE100AB8EEC00AC2
:103E900030EE090AB0EE409ABF480068062190FB58
:103EA000F1F000EE100AB8EEC00A30EE290A01E087
:103EB000A3E11AE0F0EE409ABDEEC90AB74880EDE2
:103EC000000ABDEEE90AB64880ED000A0020B149BB
:103ED0000860B1490860AD48007A022801D101208C
:103EE00000E00020AF4908806CE1A248408808B992
:103EF000FFF7CCFA9F48008830B101280CD0022887
:103F00007DD003287CD155E10020A6490880A64930
:103F1000088002F063FF4FE1A44890ED000AB0EE84
:103F2000408A90ED010AF0EE408A90ED030A8DED93
:103F3000010A9648407C01281AD19448B0F90A0039
:103F400000EE100AB8EEC00AF7EE000A20EE200AD2
:103F5000B0EE409A8D48B0F90C0000EE100AB8EEB1
:103F6000C00AF7EE000A20EE200AF0EE409A19E0AF
:103F70008648B0F90A0000EE100AB8EEC00AF0EE6A
:103F8000000A20EE200AB0EE409A8048B0F90C00FA
:103F900000EE100AB8EEC00AF7EE080A20EE200A7A
:103FA000F0EE409A7348008801287CD1FEF7CAFEE3
:103FB000DFED7F0A20EE200A10EE104A18EE105AAC
:103FC0002046FCF746FB41EC1D0BB0EE4D0AF0EE2F
:103FD0006D0A02F021F9B0EE40BAF0EE60BA18EEC8
:103FE000900AFCF736FB41EC1C0B53EC1B2BFCF747
:103FF000BEFA41EC1E0B2046FCF72BFB01E065E00E
:10400000D9E041EC1D0BB0EE4D0AF0EE6D0A01F067
:1040100077FAB0EE40BAF0EE60BA18EE100AFCF78C
:1040200018FB41EC1C0B53EC1B2BFCF7A0FA41ECEA
:104030001F0B53EC1E2BFCF794FA41EC1A0BFCF708
:104040001BFB08EE100A2046FCF703FB41EC1D0B9E
:10405000B0EE4D0AF0EE6D0A02F0DEF8B0EE40BAB6
:10406000F0EE60BA2846FCF7F4FA41EC1C0B53EC76
:104070001B2BFCF77CFA41EC1A0B2046FCF7E9FA03
:1040800041EC1D0BB0EE4D0AF0EE6D0A01F038FA6E
:10409000B0EE40BAF0EE60BA18EE900AFCF7D9FA2A
:1040A00041EC1C0B00E010E053EC1B2BFCF75FFA1B
:1040B00041EC1E0B53EC1A2BFCF7B2F941EC1F0B31
:1040C000FCF7DAFA08EE900A00BF75E0374890ED89
:1040D000000AB0EE408A90ED010AF0EE408A90EDC1
:1040E000030A8DED010A2948407C01281AD127488E
:1040F000B0F90A0000EE100AB8EEC00AF7EE000AA6
:1041000020EE200AB0EE409A2048B0F90C0000EEF4
:10411000100AB8EEC00AF7EE000A20EE200AF0EE10
:10412000409A19E01948B0F90A0000EE100AB8EEFA
:10413000C00AF0EE000A20EE200AB0EE409A1348C2
:10414000B0F90C0000EE100AB8EEC00AF7EE080A4B
:1041500020EE200AF0EE409A2EE000000000000061
:10416000001000409800002000100240780000205D
:104170007C000020940800200C080020000025444A
:104180000040CE450000164420080020F207002021
:1041900000180240680000206C0000208000002011
:1041A000840000204C00002054000020340800202F
:1041B00035FA8E3C00E000BF00BF1248007C124977
:1041C000088000BF00BFFEF7A3FDC5B228469DEDE5
:1041D000011AF0EE680AB0EE480AFDF789FCFEF716
:1041E0009DFDC5B22846F0EE690AB0EE490AFEF719
:1041F00025FA0121054800F095F802B0BDEC108BBE
:1042000070BD0000F20700204C00002000100040AC
:104210003EB505460C4601212020FFF7EFF9ADF829
:10422000005001940020ADF80800ADF80200694686
:104230000A4800F039F90121084800F067F8012127
:10424000064800F072F801221146044800F08AF88E
:10425000002206213720FFF7A6F83EBD00140040DB
:1042600010B50121234800F06CF8002840D0224806
:104270000068401C20490860142804DDFEF772F82D
:1042800000201D4908601D49488A1D49FDF756FF59
:1042900000F084FE1B48C08808B319480088B0F5B8
:1042A000907F16D0B0F5087F0BD0A0F500502038D5
:1042B00018B1B0F5005F10D107E000201149088067
:1042C0000CE002200F49088008E001200D49088019
:1042D00004E003200B49088000E000BF00BF0A484B
:1042E000FEF708F9FEF7F4F80121024800F01AF889
:1042F00010BD00000014004094000020F2070020D0
:1043000048080020940800203408002021B10288C9
:1043100042F08002028004E002884FF67F731A4068
:1043200002807047CA430282704721B1028842F07E
:104330000102028004E002884FF6FE731A400280F8
:10434000704730B50246002000230024158A05EA94
:104350000103958905EA010413B10CB1012000E0C5
:10436000002030BD1AB183890B43838102E0838929
:104370008B4383817047000070B500240022002326
:10438000058C4FF6FE7635400584028C8388048BBD
:104390004FF68F752C40B51E2C400D882C43751E92
:1043A0002A408D892A434D882A43104DA84202D0C5
:1043B0000F4DA84213D14FF6F7752A40CD892A43F5
:1043C0004FF6FB752A408D882A434FF6FF652B4038
:1043D0004FF6FF552B400D8A2B434D8A2B4383808C
:1043E00004838D684563028470BD000000000140B5
:1043F0000004014070B5002400220023058C4FF614
:10440000EF7635400584028C8388048B48F6FF756F
:104410002C404FF6FF452C400D884FF6FF7606EAFC
:1044200005252C434FF6DF752A408D8906EA0515D0
:104430002A434D8806EA05152A43154DA84202D0A5
:10444000144DA8421DD14FF67F752A40CD894FF6F5
:10445000FF7606EA05152A434FF6BF752A408D8878
:1044600006EA05152A434FF6FF352B404FF2FF753C
:104470002B400D8A06EA85052B434D8A06EA850501
:104480002B43838004838D688563028470BD0000A4
:1044900000000140000401404163704781637047A0
:1044A000C16370470164704700220288184B98422C
:1044B0000ED0184B98420BD0B0F1804F08D0164B5D
:1044C000984205D0154B984202D0154B984204D122
:1044D0004FF68F731A404B881A43124B984207D0FD
:1044E000114B984204D04FF6FF431A400B891A43F0
:1044F00002804B68C3620B880385054B984202D04B
:10450000044B984201D18B7A038601238382704742
:104510000000014000040140000400400008004089
:10452000000C0040001000400014004010B540F2A4
:1045300024410E4800F072FCB8B100210C48FDF790
:10454000FBFC0B48FDF7BAFD042802D10948FDF732
:1045500017FE16210648FDF7E1FD01210448FDF78D
:10456000EBFC024880880148008810BD0010014023
:1045700040640240DC07002010B586B004460121EB
:104580000220FFF72BF801211020FFF747F8022047
:104590008DF814008DF8150001208DF8170000200B
:1045A0008DF816004020049004A91A48FEF7FCF983
:1045B0008020049004A91748FEF7F6F90722062187
:1045C0001448FEF739FA072211461248FEF734FA6A
:1045D00000940020ADF80400ADF80600ADF8080026
:1045E000ADF80C000C20ADF80A0069460A4800F04E
:1045F00065FC002207212520FEF7D5FE012240F2AE
:104600002441054800F034FC0121034800F0E4FB9C
:1046100006B010BD000402400010014030B58FB05C
:1046200004460D4601218805FEF7D8FF1C48FDF71A
:104630008FFC00BF1A48FDF737FD0028FAD14FF074
:1046400000600090174801900294002003900495A8
:1046500005904FF4806006900020079008904FF47A
:104660008070099000020A9000200B900C900D9031
:104670000E9069460A48FDF725FD01210848FDF71F
:104680005BFC00BF0648FDF70FFD0128FAD10122AF
:1046900040210448001F00F0ABFB0FB030BD00000C
:1046A00040640240041001400EB50021F348FDF7BC
:1046B00043FCF348007853287DD101AB02AAF1A155
:1046C000EF48FBF7EBFD022876D10298002801DDC8
:1046D000029801E0029840420A2801DA0020029084
:1046E0000198002801DD019801E0019840420A2864
:1046F00001DA002001900298002801DD029801E013
:10470000029840420A2816DD0298002801DD02982E
:1047100001E00298404214280DDC9FEDDC0ADC48E1
:1047200080ED130A9FEDDB0A80ED140A9FEDDA0A93
:1047300080ED150A8EE00298002801DD029801E064
:1047400002984042142816DD0298002801DD0298E4
:1047500001E0029840421E280DDC9FEDD00ACC48B3
:1047600080ED130A9FEDCB0A80ED130A9FEDCA0A74
:1047700080ED150A6EE00298002801DD029801E044
:10478000029840421E2818DD0298002801DD029898
:1047900001E0029840423C280FDC9FEDC10ABC4872
:1047A00080ED130A9FEDBF0A80ED140A9FEDBA0A4F
:1047B00080ED150A4EE023E151E10298002801DD69
:1047C000029801E0029840423C2816DD0298002839
:1047D00001DD029801E00298404264280DDC9FED63
:1047E000B20AAB4880ED130A9FEDAE0A80ED140AC1
:1047F0009FEDA90A80ED150A2CE00298002801DD42
:10480000029801E002984042642816DD02980028D0
:1048100001DD029801E00298404296280DDC9FEDF0
:10482000A30A9B4880ED130A9FEDA10A80ED140AAC
:104830009FED990A80ED150A0CE09FED9E0A9448C1
:1048400080ED130A9FED9C0A80ED140A9FED920AF9
:1048500080ED150A0198002801DD019801E001981A
:1048600040420A2812DD0198002801DD019801E08C
:1048700001984042142809DC9FED900A904880ED91
:10488000250AB8EE080A80ED260A94E0019800286F
:1048900001DD019801E001984042142812DD0198E1
:1048A000002801DD019801E0019840421E2809DC42
:1048B000B9EE040A824880ED250A9FED820A80ED58
:1048C000260A78E00198002801DD019801E00198AE
:1048D00040421E2812DD0198002801DD019801E008
:1048E000019840423C2809DC9FED770A744880ED2E
:1048F000250A9FED760A80ED260A5CE001980028E3
:1049000001DD019801E0019840423C2812DD019848
:10491000002801DD019801E001984042642809DC8B
:104920009FED6B0A664880ED250A9FED6A0A80EDCF
:10493000260A40E00198002801DD019801E0019875
:104940004042642812DD0198002801DD019801E051
:1049500001984042962809DC9FED5F0A584880ED97
:10496000250A9FED5E0A80ED260A24E001980028C2
:1049700001DD019801E001984042962812DD01987E
:10498000002801DD019801E001984042D22809DCAD
:104990009FED530A4A4880ED250AB8EE000A80EDE3
:1049A000260A08E0B9EE080A454880ED250A9FED81
:1049B0004D0A80ED260A9FED4C0A4C4902A8FDF7EE
:1049C000D4FF9FED4B0A4B4901A8FDF7CEFF4748A6
:1049D0000068A0F5A0704849086046480068F038B3
:1049E0004649086000204649086046490860424838
:1049F00000684549086041480068444908602EE065
:104A00001F4800784E282AD16A4641A11C48FBF76E
:104A100045FC012823D10098012804D0022808D0A1
:104A2000032815D10CE000203349086033490860A1
:104A300014E00320304908600020304908600DE090
:104A40006FF002002C49086000202C49086005E046
:104A50000020294908602949086000BF00BF0A21D9
:104A60000648FDF75BFB01210448FDF765FA29487C
:104A700000882848001F00880EBD000088600240A2
:104A80006C0800205325642C256400009A9999BF76
:104A9000B4060020666696C09A9919BF52B89EBFA8
:104AA0000AD7A3BF333393C0C3F5A8BF7B14AEBFEF
:104AB0009A9991C0D7A3B0BF333363C0CDCC9CC00B
:104AC000E4040020333333C06666A6C0666626C0A1
:104AD000CDCCACC09A9919C03333B3C0CDCC0CC087
:104AE0009A99B9C06666E6BF9A99193F700000208E
:104AF000CDCCCC3E74000020680000206C0000206B
:104B00008400002080000020780000207C0000202D
:104B10004E2564000444004010B586B004460121CF
:104B20000820FEF75BFD01214804FEF767FD002029
:104B30008DF8160001208DF8170002208DF8150061
:104B40008DF814002020049004A91A48FDF72CFFCA
:104B50004020049004A91748FDF726FF07220521ED
:104B60001448FDF769FF072206211248FDF764FF8C
:104B700000940020ADF80400ADF80600ADF8080080
:104B8000ADF80C000C20ADF80A0069460A4800F0A8
:104B900095F9002208212620FEF705FC012240F2AB
:104BA0002441054800F064F90121034800F014F99C
:104BB00006B010BD000C02400044004030B58FB07C
:104BC00004460D4601214805FEF708FD1C48FDF787
:104BD000BFF900BF1A48FDF767FA0028FAD14FF075
:104BE0000060009017480190029400200390049503
:104BF00005904FF4806006900020079008904FF4D5
:104C00008070099000020A9000200B900C900D908B
:104C10000E9069460A48FDF755FA01210848FDF74C
:104C20008BF900BF0648FDF73FFA0128FAD10122AF
:104C300040210448001F00F0DBF80FB030BD000039
:104C4000886002400444004010B540F224411148FD
:104C500000F0E4F8E0B100210F48FDF76DF90E48CF
:104C6000FDF72CFA0446C4F11E0081B20B4A0C4831
:104C7000FDF72EFF1E210848FDF750FA01210648D6
:104C8000FDF75AF90348001D00880248008800BF5C
:104C900010BD000000480040286002409C07002032
:104CA0007608002010B586B0044601210820FEF7E2
:104CB00095FC01218804FEF7A1FC00208DF8160068
:104CC00001208DF8170002208DF815008DF81400D2
:104CD000C001049004A91B48FDF766FE4FF4007064
:104CE000049004A91748FDF75FFE07220821154824
:104CF000FDF7A2FE072209211248FDF79DFE009450
:104D00000020ADF80400ADF80600ADF80800ADF8DD
:104D10000C000C20ADF80A0069460B4800F0CEF8F4
:104D2000002208212720FEF73EFB012240F2244109
:104D3000054800F09DF80121034800F04DF806B049
:104D400010BD0000000C02400048004030B58FB09C
:104D500004460D4601214805FEF740FC1C48FDF7BE
:104D6000F7F800BF1A48FDF79FF90028FAD14FF075
:104D70000060009017480190029400200390049571
:104D800005904FF4806006900020079008904FF443
:104D90008070099000020A9000200B900C900D90FA
:104DA0000E9069460A48FDF78DF901210848FDF784
:104DB000C3F800BF0648FDF777F90128FAD10122B0
:104DC00040210448001F00F013F80FB030BD000070
:104DD000286002400448004021B1828942F4005218
:104DE000828104E082894DF6FF731A408281704708
:104DF0001AB1838A0B43838202E0838A8B438382C6
:104E0000704702460020B1F5007F00D100BF138833
:104E10000B400BB1012000E00020704770B5024646
:104E2000002400230025002040F66A16B14200D17C
:104E300000BFC1F3421501F01F03012606FA03F378
:104E4000012D02D19689334006E0022D02D1168A47
:104E5000334001E0968A33400C12012606FA04F42E
:104E60001688344013B10CB1012000E0002070BD61
:104E7000F0B50346002400260025002040F66A17FE
:104E8000B94200D100BF1846C1F3421401F01F0619
:104E9000012707FA06F5012C01D10C3004E0022CA1
:104EA00001D1103000E014301AB107682F430760B9
:104EB00002E00768AF430760F0BD00002DE9FF473F
:104EC00005460E460024A14600BFA046B08900B1A9
:104ED00000BF2C8A24F44054F08804432C82AC890F
:104EE00041F20C608443B0883189084371890843DA
:104EF0000443AC81AC8A24F44074B0890443AC828E
:104F00006846FEF79BFB2048854202D01F48854239
:104F100002D1DDF80C9001E0DDF80890A88900F4DA
:104F2000004040B109EBC90000EB091031684900AD
:104F3000B0FBF1F707E009EBC90000EB091031689D
:104F40008900B0FBF1F76420B7FBF0F00401200901
:104F5000642101FB1078A88900F4004040B13220A0
:104F600000EBC800B0FBF1F000F00700044308E0DC
:104F7000322000EB08106421B0FBF1F000F00F00CC
:104F800004432C81BDE8FF8700100140001401405C
:104F9000C1F308028280704700BFFEE710B5002110
:104FA0001020FDF7A1FF18B101200D49888002E013
:104FB00000200B49888000212020FDF795FF18B1C3
:104FC00001200749C88002E000200549C880054843
:104FD000408A18B900200249C880888010BD0000AE
:104FE00094080020F20700200FB4054B10B503A968
:104FF000044A029801F0CEFD10BC5DF814FB0000DD
:10500000796E0008C800002003B4019841000098A0
:1050100050EAC12018BF04204A0D18BF40F001001B
:1050200040F2FF72B2EB515F08BF40F0020001286E
:1050300008BF052002B0704770B59B482DED020BEC
:105040002DED068B079D25F00044A04218DC974803
:10505000844202DC0AD1069840B19DED060BBDECFE
:10506000068B02B0BDE8704001F03ABD002DCCBF08
:105070009FED8F0B9FED900BBDEC068B02B070BDCA
:105080008F48A04215DD8F48A042D8BF4FF0FF34B3
:1050900058DD9DED060B51EC100BFFF7B5FF042812
:1050A00008BF01F051FD9DED060BBDEC068B02B073
:1050B00070BD9DED060B51EC100B01F083FECDE9A8
:1050C000060181489FED828BA0423CDD8248A042D0
:1050D0001FDD00249FED82AB9DED060B53EC1A2BD8
:1050E00051EC100BFBF79CF99DED060B41EC190BF5
:1050F00053EC1A2B51EC100BFBF739FA53EC182B2D
:10510000FBF72FFA53EC192BFBF7E0FBCDE9060177
:1051100049E09DED060B012453EC182B51EC100BCC
:10512000FBF77EF99DED060B41EC190B53EC182BA8
:1051300051EC100BFBF715FA53EC192BFBF7C6FBE0
:10514000CDE906012FE06848A0421FDD02249FED53
:10515000689B9DED060B53EC192B51EC100BFBF7E4
:1051600006FA53EC182BFBF75BF99DED060B41ECAF
:10517000180B53EC192B51EC100BFBF7F2F953EC15
:10518000182BFBF7A3FBCDE906010CE09DED060B08
:10519000032453EC102B9FED580B51EC100BFBF735
:1051A00095FBCDE906019DED060B53EC102B51EC60
:1051B000100BFBF7DCF941EC180B53EC182BFBF749
:1051C000D6F941EC190B4E480621B0EE490AF0EE33
:1051D000690A784401F058FB53EC182B51EC100B82
:1051E000FBF7C5F941EC180B4648B0EE490AF0EE62
:1051F000690A0521784401F047FB53EC192B51EC67
:10520000100BFBF7B4F941EC100B51EC180B53ECFD
:10521000102B002C0EDAFBF703F99DED061B53EC67
:10522000112BFBF7A4F99DED061B53EC112BFBF79B
:105230009BF935E0FBF7F4F89DED061B53EC112BC1
:10524000FBF795F941EC100B2F48784400EBC400B4
:1052500090ED001B51EC100B53EC112BFBF781F977
:105260009DED061B53EC112BFBF77BF941EC100B6A
:105270002648784400EBC40090ED001B51EC100B65
:1052800053EC112BFBF770F941EC100B002DA2BF72
:10529000BDEC068B02B070BD51EC100B81F00041EB
:1052A00041EC100B01E70000000010440000F07F0B
:1052B000182D4454FB21F93F182D4454FB21F9BF0C
:1052C0000000DC3F0000203E0000F33F0000000033
:1052D000000000000000F03F0000E63F000000007A
:1052E00000000000000000400080034000000000BB
:1052F000000000000000F83F000000000000F0BFC8
:10530000BA21000070210000FA200000B220000045
:1053100070B56B4E2DED040B2DED028B82B0DDF8D8
:105320001CC0DDE905235C422CF000411C4341EA2E
:10533000D474049D22F00040B44205D86C422C4342
:1053400040EAD474B4420BD99DED061B9DED040BCD
:1053500002B0BDEC028B04B0BDE8704001F0CABBE6
:10536000ACF14054A4F17F641C430BD0022404EA46
:10537000AC7444EAD27405439FED538B9FED542BDC
:1053800007D015E09DED040B51EC100B01F0EEFC85
:1053900042E0002C11BF012C9DED040B02B0BDECCE
:1053A000028B04BF04B070BD022C38D0032C3BD05C
:1053B0000B439FED491B9FED4A0B0AD0B14218D118
:1053C000B04209D121F0804120F080400791059042
:1053D0000FE0002A15DA10E0434B7B44002C08BF95
:1053E00093ED000B0DD0012C10D0022C17D0032C04
:1053F0001AD0B0421DD1002A03DAB0EE410AF0EE15
:10540000610A02B0BDEC028B04B070BD93ED000BDD
:1054100051EC100B81F0004141EC100BF1E7B0EEC4
:10542000480AF0EE680AECE7B0EE420AF0EE620AD3
:10543000E7E7401A00153C28C8BF8DED000B19DCCA
:10544000BCF1000FBEBF10F13C0F9FED290B8DED9D
:10545000000B0FDB9DED060B53EC102B9DED040BA9
:1054600051EC100BFBF732FA01F0ACFC01F07EFCC2
:10547000CDE90001002C08BF9DED000BC1D0012C2F
:1054800010D0022C9FED1C0B53EC102B9DED000B4C
:1054900051EC100B0DD0FBF764F853EC182BFBF715
:1054A00060F8B9E7019880F0004001909DED000B95
:1054B000A7E7FBF756F853EC182BFBF755F8ABE7CB
:1054C0000000F07F00000000182D4454FB2109402B
:1054D000182D4454FB2109C0182D4454FB21F9BF59
:1054E000182D4454FB21F93F122000000000000059
:1054F0000000000000000000075C143326A6A13C59
:1055000010B52F499FED2C1B2DED020B84B0059893
:1055100020F000408842D8BF9DED040B2DDD2949C5
:10552000884209D1049840B94FF0010001F02CFBEA
:1055300001F0EAFA06B010BD05DB9DED040B01F0A9
:10554000CFFA06B010BD68469DED040B00F0C8FE12
:1055500010F0030004BF9DED021B9DED000B0CD06D
:1055600001280ED09DED021B9DED000B022817D0E7
:10557000012001F005FA06B010BD01F0CDF806B02B
:1055800010BD9DED021B9DED000B012001F0F8F90F
:1055900051EC100B81F0004106B041EC100B10BD36
:1055A00001F0BAF851EC100B81F0004106B041EC6B
:1055B000100B10BD00000000000000000000000003
:1055C000FB21E93F0000F07F2DE9F04D2DED040BAC
:1055D0002DED0E8B96B0DDE92550279CDDF890A0CF
:1055E00025F0004624F00048BAF1000F14BF012155
:1055F000002101EB4502FC4953184A1093422AD37B
:10560000002814BF0123002303EB44030B44F74994
:105610008B4220D358EA00019FEDF59B76D0DFF84E
:10562000D8B35D4503D1BAF1000F05D188E0BAF1D6
:10563000000F08BF002100D0012101EB450111F549
:10564000001F08D8002814BF0121002101EB4401EC
:1056500011F5001F0BD99DED261B9DED240B16B0F7
:10566000BDEC0E8B04B0BDE8F04D01F043BA00274D
:10567000002DBCBFE149884521DAE1498845A8BF32
:1056800002271CDAC3451ADCDE4901EB2851142934
:1056900008DDC1F1340220FA02F101FA02F282427D
:1056A0000DD108E058B9C1F1140228FA02F101FA4B
:1056B00002F2424503D101F00101C1F1020756EAAD
:1056C0000A0124D1002C22DA002D18BF022F01D0AC
:1056D000012F0AD0022001F057FA16B0BDEC0E8B54
:1056E00004B0BDE8F04D01F0E3B9022001F04CFA3E
:1056F00001F0DEF951EC100B81F0004141EC100B90
:1057000016B0BDEC0E8B04B0BDE8F08D18E09FED37
:10571000BEAB9FEDBF8B002871D1B848804522D128
:1057200005F1804010F5801008BFBAF1000F07D0D6
:10573000B3450ADC002CA8BF9DED260BE0DA0DE096
:10574000B0EE490AF0EE690ADAE7002C06DA9DEDC0
:10575000260B51EC100B81F000416FE0AE4878440D
:1057600090ED000BCCE7D8454DD1002C48DA2EB196
:1057700086423AD1BAF1000F42D126E0BAF1000FC9
:1057800013D0022001F000FA01F0CEF98DED020BEA
:105790009DED240B8DED000B10EE900A039961F343
:1057A0001E0003909DED020BAAE78DED02AB9DED6F
:1057B000240B1AEE901A10EE900A8DED000B61F397
:1057C0001E0003909DED020B9AE78DED028B9DED7F
:1057D000240B18EE901A10EE900A8DED000B61F379
:1057E0001E0003909DED020B8AE709DA9DED240B64
:1057F00051EC190B53EC102BFBF768F81EE020E07E
:105800009DED240B7CE786421BDAB4F1804F0DD06E
:10581000A4F10050B0F1FF5013D1002D11DB9DED2C
:10582000240B51EC100B01F0A9FB07E09DED240BBC
:1058300053EC102B51EC100B00F0C2BC41EC100BE0
:105840005EE79DED240B51EC100B01F0BBFABAF1B1
:10585000000FCDE90E0142D19FED710B46B3A6F1C9
:10586000E040B0F17F600CD05E4538D1002D00DA09
:10587000A7B3022F0CBF01204FF0FF30FBF7ACF8AD
:10588000DCE7002D01DD002C0DDA002D01DD002C00
:105890001FDB002D16DA002C14DB012F08BF9FED53
:1058A000620B3FF42DAFB0EE4A0AF0EE6A0A27E72A
:1058B000022F18BF002D0CD0012F0AD1002DFFF6AA
:1058C0001FAF06E0002DB8BF002C08DA012F3FF40F
:1058D00017AFB0EE480AF0EE680A11E71BE00120AE
:1058E00000EBE57050EA070115D0791EB0EE498A49
:1058F000F0EE698A084308BF9FED4D8B4E480025A6
:10590000804570DD4D494E48884514DDB0420DDBC1
:10591000002C19DB2FE0012001F036F916B0BDECA8
:105920000E8B04B0BDE8F04D01F0EEB8B34502DCDB
:10593000002C09DC1FE0864202DA002C1BDA03E0AF
:105940005E452BDD002C16DD022001F01DF901F073
:10595000EBF88DED020B53EC1A2B51EC180BFAF708
:1059600006FECDE900010399019861F31E00039042
:105970009DED020BC4E6022001F006F901F0E4F807
:1059800010EE901A18EE900A8DED020B8DED008B43
:1059900061F31E0003909DED020BB1E69DED0E0B31
:1059A00053EC192B51EC100BFAF7DBFD9FED260B96
:1059B000CDE9080153EC102B9DED080B51EC100BB9
:1059C000FAF7D5FD9FED221B53EC112BFAF7CCFD16
:1059D0009DED081B53EC112BFAF7C9FD9FED1E1B23
:1059E00053EC112B3CE08CE0FFFF1F00FFFF0F008A
:1059F000000000000000F03F0000F03F0000F07FDA
:105A00000000404301FCFFFF000000000000F07FA9
:105A100000000000000000008E1C000000000000DC
:105A20000000000000000080000000000000F0FF07
:105A3000000000000000F0BF0000E0410000F04363
:105A4000FFFFEF3F00000000000000000000D03F1B
:105A5000555555555555D53F000000000000E03F15
:105A6000FAF782FD9DED080B41EC1A0B53EC102B5D
:105A700051EC100BFAF77BFD53EC1A2BFAF777FD7C
:105A800041EC1A0B9FEDFE0B53EC102B9DED080B18
:105A900051EC100BFAF76BFD41EC1B0B9FEDFA0B71
:105AA00051EC1A0B53EC102BFAF761FD41EC1A0B79
:105AB0009FEDF70B53EC102B9DED080B51EC100BE9
:105AC000FAF755FD53EC1A2BFAF74BFD41EC1A0B84
:105AD00051EC1B0B53EC1A2BFAF7A2FC0690CDE904
