:020000040800F2
:10000000F8080020C1010008E5290008952400082F
:10001000E12900088D0B00080D3D000800000000DC
:10002000000000000000000000000000552E000845
:10003000451C000800000000CB2A0008ED31000834
:10004000DB010008DB010008DB010008DB01000820
:10005000DB010008DB010008DB010008DB01000810
:10006000DB010008DB010008DB010008DB01000800
:10007000DB010008DB010008DB010008DB010008F0
:10008000DB010008DB010008DB010008DB010008E0
:10009000790C0008DB010008DB010008DB01000827
:1000A000DB010008DB010008DB010008DB010008C0
:1000B000DB010008DB010008DB010008DB010008B0
:1000C000DB010008DB010008DB010008DB010008A0
:1000D000DB010008B1370008DB010008BD3900086A
:1000E000DB010008DB010008DB010008DB01000880
:1000F000DB010008DB010008DB010008DB01000870
:10010000DB010008DB010008DB010008DB0100085F
:10011000DB010008DB010008713300084D350008E1
:10012000DB010008DB010008DB010008DB0100083F
:10013000DB010008DB010008DB010008DB0100082F
:10014000DB010008DB010008DB010008DB0100081F
:10015000DB010008DB010008DB010008DB0100080F
:10016000DB010008DB010008DB010008DB010008FF
:10017000DB010008DB010008DB010008DB010008EF
:10018000DB010008DB010008DB010008DB010008DF
:10019000DB010008DB010008DB010008DB010008CF
:1001A0000000000000000000DB010008DFF80CD0B8
:1001B00000F024FB004800475D5A0008F8080020C2
:1001C0000648804706480047FEE7FEE7FEE7FEE7F1
:1001D000FEE7FEE7FEE7FEE7FEE7FEE7F131000897
:1001E000AD0100082DE9FE4F804681EA0300C00FF3
:1001F0000C46009021F0004123F00045B8EB0200CE
:10020000A94105D24046214690461C460B4602466F
:1002100023F00040104347D0270DC7F30A00C3F373
:100220000A510290401A019040286BDAC3F3130080
:1002300040F4801B0098924620B10023D2EB030AC1
:1002400063EB0B0B01985946C0F14002504600F099
:10025000E6F806460D4650465946019A00F0EEF87B
:1002600010EB08006141002487EA115284EAE77329
:100270001A4340D0009A62B3019A012A4FEA07520A
:1002800015DC001B61EB02014FF0004202EA07524D
:10029000CDE90042001C41F5801132462B4600F0AA
:1002A00025F903B0BDE8F08F40462146F9E7001B71
:1002B00061EB0201001C41F5801300185B4120181E
:1002C000A2F5001747EB030140EAD570B6196D415E
:1002D00011E06D084FEA360645EAC0754FEA07524D
:1002E000001B61EB0201001C41F5801149084FEA37
:1002F00030000019514132462B4603B0BDE8F04FA3
:1003000000F0E5B80098012240000023D0EB020283
:1003100063EBE073009821464FEAE074B8EB00000D
:1003200061EB0401E9E783F000435BE781F0004102
:1003300058E700F0004230F000400AD0C10D01F54E
:100340006071C0F3160042EA0151C2084007114330
:10035000704700200146704701F0004330B421F09F
:10036000004150EA010206D00A0DA2F56072C1F305
:100370001301002A02DC30BC00207047440F44EA1D
:10038000C104C100E01830BC00EBC25000F068B8F6
:1003900030B50B46014600202022012409E021FA55
:1003A00002F59D4205D303FA02F5491B04FA02F552
:1003B0002844151EA2F10102F1DC30BD2DE9F05FE9
:1003C0000546002092469B468846064681464024C4
:1003D0001BE0284641464746224600F021FA534694
:1003E0005A46C01A914110D311461846224600F0D1
:1003F00016F82D1A67EB01084F462246012000210E
:1004000000F00DF817EB00094E41201EA4F1010485
:10041000DFDC484631462A464346BDE8F09F202AA5
:1004200004DB203A00FA02F1002070479140C2F14B
:10043000200320FA03F3194390407047202A06DB7B
:10044000CB17203A41FA02F043EAE07306E041FAA2
:1004500002F3D040C2F12002914008431946704790
:100460000029A8BF7047401C490008BF20F00100C8
:10047000704710B4B0FA80FC00FA0CF050EA0104A6
:1004800004BF10BC704749B1CCF1200421FA04F438
:1004900011FA0CF118BF012121430843A3EB0C0111
:1004A000CB1D4FEA00614FEA102042BF002010BC74
:1004B000704700EBC35010440029A4BF10BC704724
:1004C000401C490008BF20F0010010BC704710B567
:1004D000141E73F1000408DA401C41F10001921867
:1004E0005B411A4301D120F0010010BD2DE9F04D10
:1004F00092469B4611B1B1FA81F202E0B0FA80F265
:1005000020329046FFF78BFF04460F4640EA0A0070
:1005100041EA0B0153465A46084313D0114653EAA9
:10052000010019D0C8F14002504600F079F90546A3
:100530000E46504659464246FFF771FF084305D024
:10054000012004E020463946BDE8F08D0020054337
:1005500046EAE0762C4337430A986305E40AA0EBA9
:1005600008000022FD0A44EA47540A3002D5002060
:100570000146E9E7010510196941DDE9084500195F
:100580006941BDE8F04DA2E72DE9FE4F81EA030481
:1005900004F0004421F0004100944FF0000B23F0E0
:1005A000004350EA01045ED052EA03045BD0C3F377
:1005B0000A54C1F30A552C44A4F2F3340194A0FB6D
:1005C0000254C1F3130141F48011C3F3130343F444
:1005D000801301FB024400FB034E840A970A44EA9D
:1005E000815447EA8357A4FB076802958D0A05FBEF
:1005F00007854FEA932C04FB0C542705029D4FEA14
:10060000065847EA1637B5EB08056EEB070C870E60
:10061000920E47EA811742EA8312A7FB0201B6EB6A
:100620000B0164EB00042B0D43EA0C335E1844EB22
:100630001C50DA465146E7FB0201C5F313044FEAAA
:100640000B3343EA14534FEA0432019C43EA060396
:10065000A4F10C040294009CCDE900B4FFF746FF1E
:1006600003B0BDE8F08F00200146F9E72DE9F04D19
:1006700081EA030404F0004B21F0004514464FF0DA
:10068000000A23F0004150EA050220D054EA01029A
:100690001DD0C5F30A570246C5F31303C1F3130077
:1006A000C1F30A5640F4801543F48013A7EB060803
:1006B000101BD64608F2FD3873EB050002D308F193
:1006C000010801E092185B41B8F1000F03DA002045
:1006D0000146BDE8F08D00204FF4801106468446A7
:1006E0000EE0171B73EB050705D3121B63EB050325
:1006F00006434CEA010C49084FEA300092185B416E
:1007000050EA0107EDD152EA030012D082EA040058
:1007100083EA0501084305D0101BAB4106D2012234
:10072000002306E000224FF0004302E06FF00102D8
:1007300053101AEB06004CEB085110EB0A0041EB8A
:100740000B01BDE8F04DFFF7C2BE70B521F00043CC
:1007500003430CD0C1F30A550024D5EB040564EB28
:100760000403D617AD1AB34102DB0020014670BD69
:10077000201841EB025170BD0EB5C10F80EAE07048
:100780000844CA07002140F233438DE80E000A46B0
:100790000B46FFF7ABFE03B000BDC1F30A52C1F335
:1007A000130140F2FF3341F480119A4202DA002033
:1007B0000146704740F233439A42A2F2334202DCD0
:1007C000524200F02DB8FFF72ABE000030B5041EDB
:1007D00071F1000404DB4FF00044404264EB01017E
:1007E000141E73F1000405DB1C464FF00043524217
:1007F00063EB0403994208BF904230BD064C074D9D
:1008000006E0E06840F0010394E8070098471034E0
:10081000AC42F6D3FFF7CEFC685C0008885C0008A9
:10082000202A04DB203A21FA02F00021704721FA45
:1008300002F3D040C2F120029140084319467047AC
:100840002DE9F04D00231A461B1A8A4103DB0020D4
:100850000146BDE8F08DC1F30A52C1F3130141F422
:1008600080154FF0000BD10702D100186D41521EC8
:100870000027044640F2FF11384601EB620A3E466B
:100880008046024600204FF48011FFF7C9FFC219CD
:100890007141BB1846EB0100B4EB030C75EB000C87
:1008A00004D3E41A65EB000517460E46241908F137
:1008B00001006D4180463428E3DDF91946EB06005E
:1008C000091BA84103D24FF0FF32134601E000227A
:1008D00013461BEB070046EB0A51BDE8F04DFFF74E
:1008E000F6BD00000FB400B50198A0F20120072862
:1008F0002CD2DFE800F0042C5986B3DEFD009DF811
:1009000010009DF80F1040EA012000B29C490880B9
:100910009DF812109DF8110041EA002000B298499C
:1009200048809DF814109DF8130041EA002000B2A1
:10093000934988809DF81500C880012081F8460001
:100940000846B0F84800401CA1F8480015E19DF8A1
:1009500010009DF80F1040EA012000B28849A1F86C
:100960004C009DF812109DF8110041EA002001B2E0
:100970008348A0F84E109DF814109DF8130041EA2A
:10098000002001B27E48A0F850109DF81510A0F884
:100990005210012180F89210B0F89400401C81B2EE
:1009A0007748A0F89410E8E09DF810009DF80F102B
:1009B00040EA012000B27249A1F898009DF8121097
:1009C0009DF8110041EA002001B26D48A0F89A108C
:1009D0009DF814109DF8130041EA002001B2684808
:1009E000A0F89C109DF81510A0F89E10012180F829
:1009F000DE10B0F8E000401C81B26148A0F8E010C1
:100A0000BBE09DF810009DF80F1040EA012000B2F5
:100A10005B49A1F8E4009DF812109DF8110041EA2D
:100A2000002001B25648A0F8E6109DF814109DF879
:100A3000130041EA002001B25148A0F8E8109DF8E7
:100A40001510A0F8EA10012180F82A11B0F82C0145
:100A5000401C81B24A48A0F82C118EE09DF810008D
:100A60009DF80F1040EA012000B2464908809DF829
:100A700012109DF8110041EA002000B2414948805F
:100A8000002001F063FE3F48B0F900003D49B1F895
:100A900064104FF4005212FB01003A49086601202D
:100AA00081F872000846B0F87400401CA1F8740088
:100AB00063E09DF810009DF80F1040EA012000B29D
:100AC0003049A1F878009DF812109DF8110041EA14
:100AD000002001B22B48A0F87A10012001F036FE68
:100AE0002848B0F97810B0F8DC004FF4005200E06C
:100AF0000FE012FB00112348C0F8D810012180F844
:100B0000EA10B0F8EC00401C81B21E48A0F8EC10CE
:100B100033E09DF810009DF80F1040EA012000B26C
:100B2000194908809DF812109DF8110041EA002033
:100B300000B2154948809DF814109DF8130041EA51
:100B4000002000B210498880002001F0B3FD0E485B
:100B5000B0F900000C49B1F864104FF4005212FBD8
:100B6000010009490866012081F876000846B0F8BE
:100B70007800401CA1F8780000BF00BF5DF814FBAE
:100B800060000020900100208002002000BFFEE7EE
:100B900000B589B00121082002F026F8012148069D
:100BA00002F032F802208DF820008DF8210000209C
:100BB0008DF823008DF822000220079007A92C4809
:100BC00001F0AEFA0120079007A9294801F0A8FA20
:100BD00009220121264801F0EBFA092200212448CC
:100BE00001F0E6FA00208DF8160001208DF81700BC
:100BF0008DF8180000208DF819008DF81A008DF876
:100C00001B008DF812008DF8130002208DF81400DF
:100C100004208DF815000520ADF8100004A9154832
:100C200000F0B5F900208DF80A008DF80B000120C6
:100C30008DF80C000020ADF8080001208DF80D00A3
:100C40000020ADF80000ADF80200ADF80400ADF8EA
:100C50000600684600F07EF801221146142001F0DB
:100C6000C2FE01220221034800F088F909B000BD4C
:100C7000000C02400064004000B587B002210A4821
:100C800000F0ECF870B102AA0021074800F009FA60
:100C90000698009002A80FC8FFF724FE0221024820
:100CA00000F004F807B000BD00640040B1F5007F1B
:100CB0003AD00FDC202928D006DC01291CD00429D9
:100CC0001DD0082940D11DE0402921D0B1F5807FF9
:100CD0003AD126E0B1F5004F31D006DCB1F5806F96
:100CE00025D0B1F5006F2FD124E0B1F5803F12D0AF
:100CF000B1F5003F28D111E0154A826025E00822B5
:100D0000C26022E01022C2601FE0082202611CE0E3
:100D10001022026119E00822426016E010224260AF
:100D200013E00422426010E0042242600DE004223D
:100D300042600AE0002282610422426005E0002253
:100D400082610422426000E000BF00BF70470000E3
:100D50000101010010B50021837A012202FA03F19A
:100D60003D4A126842F001023B4B1A603A4A1C327B
:100D700012688A43384B1C331A60027BCAB9364A60
:100D80000C3212688A43344B0C331A604288C38891
:100D900042EA0343304A4032847A42F834300288CF
:100DA000838842EA03432C4A4032847A02EBC4022D
:100DB0005360027B012A19D1274A0C3212680A4378
:100DC000254B0C331A604288038842EA0343224AC7
:100DD0004032847A42F83430C288838842EA03433E
:100DE0001D4A4032847A02EBC4025360C27A3AB997
:100DF000194A121D12688A43174B1B1D1A6006E020
:100E0000154A121D12680A43134B1B1D1A600289F2
:100E100032B9114A143212688A430F4B14331A60E4
:100E20000289012A06D10C4A143212680A430A4B7D
:100E300014331A60427B012A06D1074A1C32126819
:100E40000A43054B1C331A60034A126822F0010260
:100E5000014B1A6010BD00000066004070B50446EA
:100E60000D46002660692840002871D0B5F5807FC6
:100E70005CD010DC082D35D006DC012D20D0022DF1
:100E800024D0042D72D127E0102D31D0202D35D063
:100E9000402D6BD138E0B5F5004F60D009DCB5F5D9
:100EA000007F49D0B5F5806F4CD0B5F5006F5DD1AE
:100EB0004FE0B5F5803F2DD0B5F5003F56D12FE07E
:100EC000A0682D4900F0CEFB064651E0E068032102
:100ED00000F0C8FB06464BE0E068082100F0C2FBCA
:100EE000064645E0E068102100F0BCFB06463FE006
:100EF0002069032100F0B6FB064639E0206908218D
:100F000000F0B0FB064633E02069102100F0AAFB98
:100F100006462DE06068082100F0A4FB064627E0A5
:100F20006068102100F09EFB064621E0A0690121C7
:100F300000F098FB06461BE0A069022100F092FB3E
:100F4000064615E0A069042100F08CFB06460FE080
:100F50000FE0A069702100F085FB064608E060689C
:100F6000042100F07FFB064602E0FFE7002600BFF9
:100F700000E00026304670BD010101001AB143694E
:100F80000B43436102E043698B434361704730B5D3
:100F9000024600200023146824F002041460146840
:100FA00044F00104146000E05B1C546804F0010488
:100FB0001CB94FF6FF74A342F6D1546804F0010443
:100FC0000CB900206CE08C79012C04D1146844F039
:100FD0008004146003E0146824F080041460CC7969
:100FE000012C04D1146844F04004146003E0146838
:100FF00024F0400414600C7A012C04D1146844F0ED
:101000002004146003E0146824F0200414604C7A77
:10101000012C04D1146844F01004146003E0146837
:1010200024F0100414608C7A012C04D1146844F06C
:101030000804146003E0146824F008041460CC7AF7
:10104000012C04D1146844F00404146003E0146813
:1010500024F0040414608C78A407CD7844EA056475
:101060000D7944EA05444D7944EA05540D886D1E16
:101070002C43D461146824F001041460002300E0C0
:101080005B1C546804F001041CB14FF6FF74A342CA
:10109000F6D1546804F001040CB1002000E00120F6
:1010A00030BD10B500F5D87303EB01131B6803F0D6
:1010B00004031372137A53B900F5D87303EB0113C9
:1010C0001B6840F2FF7404EA5353136009E000F513
:1010D000D87303EB01131B686FF0604404EAD30379
:1010E000536000F5D87303EB01131B6803F0020390
:1010F000537200F5D87303EB01135B6803F00F0321
:10110000937200F5D87303EB01135B681B0AD37469
:1011100000F5D87303EB01139B68D37200F5D87305
:1011200003EB01139B681C0A147300F5D87303EBDF
:1011300001139B681C0C547300F5D87303EB011367
:101140009B681B0E937300F5D87303EB0113DB68E8
:10115000D37300F5D87303EB0113DB681C0A147416
:1011600000F5D87303EB0113DB681C0C547400F515
:10117000D87303EB0113DB681B0E937421B9C368AA
:1011800043F02003C36003E0036943F020030361DD
:1011900010BDF0B585B007460C4615461E460CB985
:1011A000009500E001958DF8084000208DF80900B9
:1011B00008208DF80A00002005E0325C0DF10B01DB
:1011C0000A54411CC8B20828F7DB6946384600F0CB
:1011D00002F805B0F0BD10B502460020936803F098
:1011E0008063B3F1806F00D110E0936803F0006377
:1011F000B3F1006F01D1012008E0936803F0805340
:10120000B3F1805F01D1022000E00420042874D0F3
:1012100002F5C07303EB00131B6803F0010402F531
:10122000C07303EB00131C600B7A7BB94B7A0C88FC
:1012300043EA445302F5C07404EB001424682343CA
:1012400002F5C07404EB0014236010E00B7A4C68C4
:1012500043EAC4034C7A234302F5C07404EB001440
:101260002468234302F5C07404EB001423608B7AD6
:1012700003F00F038B7202F5C07303EB00135B687E
:1012800023F00F0402F5C07303EB00135C6002F55A
:10129000C07303EB00135B688C7A234302F5C074C0
:1012A00004EB001463608B7B1C064B7B44EA034415
:1012B0000B7B44EA0323CC7A234302F5C07404EB8E
:1012C0000014A3608B7C1C064B7C44EA03440B7C1B
:1012D00044EA0323CC7B234302F5C07404EB0014DF
:1012E000E36002F5C07303EB00131B6843F00104D5
:1012F00002F5C07303EB00131C6010BD2DE9FC4127
:1013000007460C4615461E46380A8DF80000F8B20E
:101310008DF80100200A8DF80200E0B28DF803007C
:10132000280A8DF80400E8B28DF80500300A8DF81F
:101330000600F0B28DF807006B464FF400720021F2
:101340000248FFF726FFBDE8FC8100000064004072
:1013500010B59FED250A254880ED010A012023499B
:1013600048704FF47A72D1009FED211AF2EE050A0F
:10137000B0EE040A1F4801F017F94FF47A72D10059
:101380009FED1B1AF2EE050AB0EE040A19484C3024
:1013900001F00AF94FF47A72D1009FED151AF2EEBE
:1013A000050AB0EE040A1348983001F0FDF84FF436
:1013B0007A72D1009FED0E1AF2EE050AB0EE040A21
:1013C0000C48E43001F0F0F84FF4FA7241F2941155
:1013D000B2EE0B1ADFED060A9FED070A0348143040
:1013E00001F0E2FB10BD00000AD7233DFC02002003
:1013F00000000000680000206666464031B52DED13
:10140000040B2DED028B05469FED8F0AB0EE408A4E
:10141000022D09D100231A4619461846FFF76EFF20
:10142000BDEC028B05B030BD8848D0ED010AB0EEAE
:10143000600A00F1080102A800F058FE8348D0EDD0
:10144000010AB0EE600A00F10C0103A800F04EFEA4
:101450007E48D0ED010AB0EE600A00F1100104A848
:1014600000F044FE79484078022878D19FED760A52
:10147000764880ED100A764890ED180AB8EEC00A5A
:10148000DFED740A30EE600AB5EEC00AF1EE10FA34
:1014900008DD90ED180AB8EEC00ADFED6E0A30EEF6
:1014A000600A0AE06A4890ED180AB8EEC00ADFED5B
:1014B000690A30EE600AB1EE400AF3EE040AB4EEB7
:1014C000E00AF1EE10FA24DC9DED030AB5EEC00A45
:1014D000F1EE10FA02DD9DED030A03E09DED030A33
:1014E000B1EE400ADDED020AF5EEC00AF1EE10FAA7
:1014F00002DDDDED020A03E0DDED020AF1EE600A35
:1015000030EE200AF3EE040AB4EEE00AF1EE10FA2F
:1015100013DD4F4890ED180AB8EEC00AF0EE400A0D
:101520009FED4C0A4948143001F0D0FA00EE100A41
:10153000B8EEC00A454880ED100A9FED470A4349BE
:101540004431081F00F0D2FD404890ED040AD0ED70
:10155000110A30EE200AB0EE408A05E0FFE73B4872
:1015600090ED040AB0EE408A384890ED031AF0EE90
:10157000410A90ED021AB0EE410A3848B0EE481A1E
:1015800001F03AF9002450E004EB440000EB0410B1
:10159000334901EB800090F84600012844D12F48E0
:1015A00030F8140004EB440101EB04112C4A02EB67
:1015B0008101A1F8400004EB440101EB041102EBAE
:1015C0008101B1F9021001EE101AB8EEC11AF0EE65
:1015D000410A04EB440101EB041102EB8101B1F972
:1015E000401001EE101AB8EEC11AB0EE410A04EB39
:1015F000440101EB041102EB810101F1080000F04C
:101600004BFF00B204EB440101EB0411144A02EB5E
:101610008101A1F84400002004EB440101EB041116
:1016200002EB810181F84600641C042CACDB0C4CFD
:10163000B4F92831B4F9DC20B4F99010B4F94400BD
:10164000FFF75CFE00BFEBE600000000FC0200209C
:101650009001002000707345CDCCCC3D00000020EF
:10166000600000200246002002EA01030BB10120C5
:1016700000E00020704700002DE9FC4107460C46C1
:1016800015461E46380A8DF80000F8B28DF80100A4
:10169000200A8DF80200E0B28DF80300280A8DF8C8
:1016A0000400E8B28DF80500300A8DF80600F0B2AB
:1016B0008DF807006B4640F2FF1200210248FFF749
:1016C00068FDBDE8FC8100000064004010B59FED9E
:1016D0004A0A4A4880ED010A0020494908844948DD
:1016E00090ED180AB8EEC00A444880ED030A80ED78
:1016F000020A444890ED360AB8EEC00A3F4880ED31
:10170000050A80ED040A00224FF47A619FED3E1A2B
:10171000DFED3D0ABAEE040A3A48083001F044FA17
:1017200000224FF4FA71B7EE001ADFED370AB0EE7F
:10173000000A3448343001F037FA00224FF47A615D
:10174000BAEE081ADFED300ABAEE000A2D488030F2
:1017500001F02AFA00224FF4FA719FED2B1ADFED07
:101760002A0AB7EE080A2748AC3001F01DFA2448CF
:1017700090ED070A214880ED070A80ED060A20480F
:1017800090ED030A1D4880ED090A80ED080A002249
:101790004FF4FA719FED1C1ADFED1B0ABFEE080A29
:1017A000383001F001FA00224FF47A619FED171AE8
:1017B000DFED150A9FED160A1048643001F0F4F9C8
:1017C00000224FF4FA719FED101ADFED0F0AB8EE08
:1017D000000A0A48903001F0E7F900224FF47A61DC
:1017E0009FED0C1ADFED080A9FED0B0A0348BC3091
:1017F00001F0DAF910BD0000CDCCCC3D480300204B
:10180000300400209001002000000000000046C2CB
:10181000000096C2000020C2000070C221B1026820
:1018200042F00102026003E0026822F0010202605D
:1018300070470000016821F0010101600021016092
:1018400041608160C1600161212141614A49884252
:1018500004D13D21484A103A91608CE04649183144
:10186000884205D14FF47461434A103A916082E096
:1018700041493031884205D14FF474113E4A103A43
:10188000916078E03C494831884205D14FF074615D
:10189000394A103A91606EE037496031884204D18C
:1018A0003649354A103AD16065E03349783188428B
:1018B00004D13349304A103AD1605CE02E4990316E
:1018C000884204D12F492C4A103AD16053E02A496A
:1018D000A831884205D14FF03D51274A103AD160D6
:1018E00049E02949884204D13D21274A083A11603C
:1018F00041E025491831884205D14FF47461224AEC
:10190000083A116037E020493031884205D14FF460
:1019100074111D4A083A11602DE01B494831884274
:1019200005D14FF07461184A083A116023E0164956
:101930006031884204D11149134A121F11601AE024
:1019400011497831884204D10D490F4A121F1160A4
:1019500011E00D499031884204D10A490A4A121F08
:10196000116008E00849A831884204D14FF03D5188
:10197000054A121F11607047106002403D000020B0
:10198000400F002000003D2010640240014600206E
:101990000A6802F001020AB1012000E0002070474D
:1019A0000146486880B2704710B500220268134BA8
:1019B0001A40CC680B6823434C6923438C6923434A
:1019C000CC6923430C6A23434C6A23438C6A234328
:1019D0004C6B23438C6B23431A430260426922F011
:1019E0000702D1E90B3423431A4342610B69436078
:1019F0004B6883608B68C36010BD00003F801CF0A3
:101A00004160704710B5044801F0F8FE1621034804
:101A100001F046FF10BD0000A08601005804002020
:101A200008800022CA808A804A880B889A4209D09E
:101A30000A8812B10A88CA8004E04A888A80002293
:101A40000A814A810A884AB14A89521C4A814A89D4
:101A5000322A03DD0A880A8100224A810A884A80E4
:101A60007047000010B5044604B910BD20786178B5
:101A700040EA0120C0F30A00614908806078C01084
:101A8000A17840EA4110C0F30A005D494880A0787F
:101A90008011E17840EA8100217940EA8120C0F399
:101AA0000A005749888020794010617940EAC110C6
:101AB000C0F30A005249C88060790011800808729A
:101AC0006079C0F301104872A079E17940EA012001
:101AD00000B24B494881207A617A40EA012001B284
:101AE00047488181A07AE17A40EA012001B2444866
:101AF000C181217B0174617B4174A07BE17B40EA61
:101B000001203F49488208460088A0F5806000B265
:101B1000088008464088A0F5806000B248800846EA
:101B20008088A0F5806000B288800846C088A0F553
:101B3000806000B2C880B1F9000000F071F800B216
:101B40002F490880B1F9020000F06AF800B22C4970
:101B50004880B1F9040000F063F800B22849888099
:101B6000B1F9060000F05CF800B22549C8800846CB
:101B7000B0F90400404201EE100AB8EEC11AF0EECE
:101B8000410A0846B0F9060001EE100AB8EEC11A83
:101B9000B0EE410A1B4801F0CBF81948B0F9020039
:101BA00001EE100AB8EEC11AF0EE410A1448B0F97D
:101BB000000001EE100AB8EEC11AB0EE410A124858
:101BC00001F0B6F80E49087C1049FFF729FF0C49CF
:101BD000487A0F49FFF724FF0949488A0D49FFF762
:101BE0001FFF0748808A401C054988820846407AC2
:101BF000094908700248407A0849087000BF34E774
:101C00006E040020880400209C040020BC040020F6
:101C1000C8040020B0040020FC020020480300207B
:101C200010B5044600EE104AB8EEC00A03F06BFE91
:101C3000F3EE040AB4EEE00AF1EE10FA00D200244A
:101C4000204610BD704700004D48808A052803DA01
:101C500001204B49887502E0002049498875002021
:101C60004749888200BF2AE000EB400101EB0011E8
:101C7000444A02EB8101B1F8481005290ADA012132
:101C800000EB400202EB00123E4B03EB820282F8B3
:101C90004A1009E0002100EB400202EB0012394B30
:101CA00003EB820282F84A10002100EB400202EBB3
:101CB0000012344B03EB8202A2F84810401C0428A7
:101CC000D2DB002022E0C0EB00112F4A02EBC10161
:101CD000B1F87410052908DA0121C0EB00122A4B73
:101CE00003EBC20282F8761007E00021C0EB00127D
:101CF000254B03EBC20282F876100021C0EB0012E4
:101D0000214B03EBC202A2F87410401C0228DADB5C
:101D10001E48808C052804DA01201C4981F8260021
:101D200003E00020194981F8260000201749888423
:101D300000BF22E0C0EB4011154A02EB8101B1F86F
:101D40007810052908DA0121C0EB4012104B03EB93
:101D5000820282F87A1007E00021C0EB40120C4B9F
:101D600003EB820282F87A100021C0EB4012084B8C
:101D700003EB8202A2F87810401C0128DADB7047DE
:101D80006E0400206000002090010020300400203C
:101D90008002002010B52DED048BB0EE408AF0EEED
:101DA000608A0446BC4890ED180AB8EEC00ABB48E9
:101DB00080ED020A80ED030A022C03D0B84890F8A7
:101DC000260070B3B7EE000AB64880ED000AB448AA
:101DD00090ED031AF0EE410A90ED071AB0EE410AB9
:101DE00000F092F9AE4890ED070A10EE101A08467E
:101DF000FEF79FFA41EC190B53EC192BAAA001F046
:101E000087FF9FEDB00AA54880ED040A80ED050A22
:101E100000231A4619461846FFF72EFCBDEC048B2A
:101E200010BDFFE79E4890ED070A10EE101A084615
:101E3000FEF77FFA41EC190B53EC192B9AA001F035
:101E400067FFA148807D012807D19FEDA00AB0EE71
:101E5000408A9FED9E0AF0EE408A01F0C7F8B3EE8B
:101E60000E0AC8EE000A8D4890ED060A30EE800A90
:101E700080ED060A90ED040A30EE680A80ED040A4F
:101E800000F0F4FA8648D0ED070A30EE200A8348C5
:101E900080ED0A0A00F0EAFADFED8D0A30EEC00AA2
:101EA0007F48D0ED070A30EEC00A7C4880ED0B0A6F
:101EB00000F0CEFA7A48D0ED030A30EE200A7748D7
:101EC00080ED0C0A00F0C4FADFED820A30EEC00AA1
:101ED0007348D0ED030A30EEC00A704880ED0D0A59
:101EE0006F4890ED070A6D48D0ED0A0AB4EEE00A9B
:101EF000F1EE10FA18DDB5EEC08AF1EE10FA0ED24E
:101F0000F2EE000A88EE200AF3EE0E0A80EE201AA6
:101F100090ED060A31EE000A80ED060A04E05F4803
:101F200090ED0A0A80ED060A5D4890ED070A5B48CD
:101F3000D0ED0B0AB4EEE00AF1EE10FA18D2B5EECD
:101F4000C08AF1EE10FA0EDDF2EE000A88EE200AE9
:101F5000B3EE0E1AC0EE010A90ED060A30EE600AEA
:101F600080ED060A04E04D4890ED0B0A80ED060A6C
:101F70004A4890ED040ADFED580AB4EEE00AF1EEAB
:101F800010FA03DD9FED540A80ED040A434890EDFA
:101F9000040ADFED520AB4EEE00AF1EE10FA03D2C1
:101FA0009FED4E0A80ED040A9FED4D0A3B491C311E
:101FB000081F00F09BF89FED4B0A38491431081FA9
:101FC00000F094F8354890ED050ABDEEC00A10EE19
:101FD000101A012000F006FC2F4890F8760028BB6C
:101FE0002F4890ED071AF0EE410A2C4890ED071AA1
:101FF000B0EE410A383000F069FD00EE100AB8EE8C
:10200000C00AB0EE409A264890ED020AF0EE400A6F
:10201000B0EE490A2148643000F058FD00B21E4974
:10202000A1F87000002081F8720000BF1A4890F8F3
:10203000EE0020BB184890ED361AB8EEC11AF0EE4B
:10204000410A90ED381AB8EEC11AB0EE410AAC3030
:1020500000F03CFD09EE100A114890ED010AF0EE87
:10206000400AB8EEC90A0C48803000F02FFD01B2DA
:102070000948A0F8E810002180F8EA1000BF1A4BC8
:10208000B3F97420044BB3F9E810B3F970000023DE
:10209000FFF7F2FA00BFC1E69001002048030020DC
:1020A0003004002008000020436C6F75645F494DC8
:1020B000552E746F74616C596177203D2025660D33
:1020C0000A200000002080456E040020000000006F
:1020D00044383443D65C95420050914500703845F1
:1020E000CDCCCC3ECDCCCC3D80020020D0ED000A42
:1020F00091ED001A30EEC11AD1ED000A40EE010A4E
:10210000C1ED000A70470000044880ED060A80ED2A
:10211000070AC0ED080AC0ED090A7047480300200D
:10212000F0B50A4600210023002400BF3DE0012550
:1021300005FA01F3156805EA03049C4234D10568E9
:102140004F000326BE40B543056015794E00B540EB
:102150000668354305601579012D02D01579022DE9
:1021600016D185684F000326BE40B543856055797A
:102170004E00B540866835438560456801268E402F
:10218000B5434560456896798E40B6B235434560A3
:10219000C5684F000326BE40B543C560D5794E00E3
:1021A000B540C6683543C560491C1029BFD3F0BD92
:1021B000F0B5002300244D07ED0E02FA05F3CE1012
:1021C00000F1200555F826504E07F70E0F26BE40A9
:1021D000B543CF1000F1200646F82750CE1000F18D
:1021E000200555F8265045EA0304CE1000F12005DD
:1021F00045F82640F0BD0183704742694A4042617C
:1022000070470AB1018300E0418370470146002214
:10221000002004E00B5C1344DAB2431CD8B211284E
:10222000F8DB487C904201D1012070470020FCE798
:1022300010B54FF4E13001F0EFFB1E21014801F031
:102240003FFC10BDD4040020FEB506460F461446E0
:102250000025D6E0705D5A287ED1681C305C5A2873
:10226000FAD17019FFF7D2FF002876D0681D315CD3
:10227000281D305C41EA002000B2ADF80000E81DE6
:10228000315CA81D305C41EA002000B2ADF80200CC
:1022900005F10900315C401E305C41EA002000B2CB
:1022A000ADF8040005F10B00315C401E305C41EAE2
:1022B000002000B2ADF8060005F10D00315C401EB3
:1022C000305C41EA002000B2ADF8080005F10F00D3
:1022D000315C401E305C41EA002000B2ADF80A00DB
:1022E000BDF9000000EE100AB8EEC00ADFED470AA3
:1022F00080EE201A84ED001ABDF9020000EE100AEB
:10230000B8EEC00ADFED410A80EE201A84ED011A12
:10231000BDF9040000EE100AB8EEC00ADFED3B0A7A
:1023200080EE201A84ED021ABDF8060080B200EE9D
:10233000100AB8EE400ADFED350A80EE201A84ED6F
:10234000051ABDF9080000EE100AB8EEC00ADFED6C
:102350002F0A80EE201A01E051E04DE084ED031ACF
:10236000BDF90A0000EE100AB8EEC00ADFED270A38
:1023700080EE201A84ED041A05F11000305C84F818
:10238000220094ED050AD4ED060A30EE600ADFED76
:10239000200AB4EEE00AF1EE10FA03D2208C401CC1
:1023A00000B2208494ED060AD4ED050A30EE600AEE
:1023B000DFED170AB4EEE00AF1EE10FA03D2208C3A
:1023C000401E00B2208494ED050A84ED060A94EDC7
:1023D000050AB4F9200000EE900AF8EEE00A9FED3D
:1023E0000D1A01EE200A84ED070AA08C401CA0847F
:1023F000012084F82300FEBD681C85B201E0681C42
:1024000085B2BD42FFF626AF00BFF4E70000C84228
:10241000000096C30000B4430548007805490978D8
:10242000884202D103480078704700BFFCE70000F3
:10243000FC0200204803002001480078704700009B
:10244000FC0200200148007870470000480300208B
:10245000044890ED360AB8EEC00ADFED030A30EE0C
:10246000600A70479001002000703845064890EDE2
:10247000180AB8EEC00ADFED050A70EE600A9FED9B
:10248000041A80EE810A7047900100200040E74462
:102490000000B64100BFFEE708B50146F0EE401A65
:1024A000B0EE602AC1ED001A81ED012A91ED000A1B
:1024B000D1ED010A30EE600A81ED020AD1ED020A87
:1024C000B0EE600A03F01FFADFED350AB4EEE00A61
:1024D000F1EE10FA03D29FED330A81ED020A91ED7D
:1024E000020AD1ED030A30EE600AD1ED050A60EE72
:1024F000202A91ED060AD1ED020A20EE200A8DED88
:10250000000A91ED020AD1ED030AB0EE001A01EEC5
:10251000600AD1ED040A30EE200AD1ED070A20EE60
:10252000203AD1ED0D0AF8EE600AB0EE600A684676
:1025300000F05EF89DED000A32EE800A30EE030AEC
:1025400081ED090A91ED0B0AB0EE001AC0EE010A06
:1025500091ED090A30EE800A81ED0A0A91ED0A0A2E
:1025600081ED080A91ED0A0A81ED0B0AD1ED0C0A02
:10257000F8EE600AB0EE600A01F1200000F08EFA79
:1025800091ED030A81ED040A91ED020A81ED030A3F
:1025900091ED080ABDEEC00A10EE100A08BD000059
:1025A000CDCC4C3E00000000DFED101AC0ED001A4B
:1025B000DFED0E1AC0ED011ADFED0C1AC0ED021AA4
:1025C000DFED0A1AC0ED031ADFED081AC0ED041A98
:1025D00080ED050AC0ED060A80ED071A016342632B
:1025E000DFED021AC0ED081A70470000000000007D
:1025F000D0ED000AF4EEC00AF1EE10FA01DD80ED34
:10260000000AD0ED000AB1EE401AF4EEC10AF1EE74
:1026100010FA03D2F1EE400AC0ED000A7047000044
:102620001CB50121302000F0DFFA01208DF80400F4
:1026300000208DF806008DF807008DF80500802039
:10264000009069460A48FFF76BFD4FF48040009008
:1026500069460848FFF764FD012280210448FFF71E
:10266000D0FD012291030348FFF7CBFD1CBD000004
:1026700000100240001402401CB50121402000F06F
:10268000B3FA01208DF8040000208DF806008DF8C3
:1026900007008DF805004FF400500090694604488B
:1026A000FFF73EFD4FF400510148FFF7A4FD1CBDAC
:1026B00000180240C0EB4011224A32F92110C0EB51
:1026C0004012204B03EB8202126F891A1E4A91427C
:1026D0000EDAC0EB40111A4602EB8101B1F864102A
:1026E000491C09B2C0EB401203EB8202A2F864104D
:1026F000C0EB4011134A02EB8101096FC0EB40129D
:10270000104B33F92220891A0F4A91420EDAC0EB9E
:1027100040111A4602EB8101B1F86410491E09B25A
:10272000C0EB401203EB8202A2F86410C0EB401130
:10273000044A32F92110C0EB4012024B03EB820233
:10274000116770478002002090E8FFFFC0EB001186
:10275000224A32F93110C0EB0012204B03EBC202C7
:10276000D26E891A1E4A91420EDAC0EB00111A4647
:1027700002EBC101B1F86410491C09B2C0EB0012B0
:1027800003EBC202A2F86410C0EB0011134A02EB83
:10279000C101C96EC0EB0012104B33F93220891A07
:1027A0000F4A91420EDAC0EB00111A4602EBC1014A
:1027B000B1F86410491E09B2C0EB001203EBC2026B
:1027C000A2F86410C0EB0011044A32F93110C0EBDA
:1027D0000012024B03EBC202D16670479001002049
:1027E00090E8FFFFC0EB0012024B03EBC2029166C0
:1027F00070470000900100200FB50146F7EE002A57
:10280000F0EE621ADFED722AB0EE622A00BFDFED51
:10281000712AB4EEE20AF1EE10FA04D8DFED6D2A67
:10282000B0EE620A0AE0DFED6C2AB4EEE20AF1EEE5
:1028300010FA03DBDFED682AB0EE620A00BF00BFCA
:10284000DFED642AF4EEE20AF1EE10FA04D8DFEDCF
:10285000612AF0EE620A0AE0DFED5F2AF4EEE20A96
:10286000F1EE10FA03DBDFED5C2AF0EE620A00BF46
:1028700000BFDFED582AB4EEE21AF1EE10FA04D8E8
:10288000DFED542AB0EE621A0AE0DFED532AB4EE0F
:10289000E21AF1EE10FA03DBDFED4F2AB0EE621A16
:1028A00000BF70EE602A72EE812ACDED002A70EE34
:1028B000202A72EE812ACDED012AF1EE402A72EE35
:1028C000A02A72EE812ACDED022AF1EE402A72EEA4
:1028D000E02A72EE812ACDED032A0020002202EECA
:1028E000902A3DE06A4602EB800292ED003AB5EE96
:1028F000C03AF1EE10FA05DD6A4602EB800292ED75
:10290000003A06E06A4602EB800292ED003AB1EE30
:10291000433AF8EE623AB4EEE33AF1EE10FA1DDD16
:102920006A4602EB800292ED003AB5EEC03AF1EE53
:1029300010FA05DD6A4602EB800292ED003A06E0ED
:102940006A4602EB800292ED003AB1EE433ABCEEE9
:10295000C33A13EE102AD2B202EE902A421CD0B231
:102960000428BFDBDFED1D2AB4EEE22AF1EE10FAF7
:1029700005DDDFED1A2A82EE823AF0EE431ADDED34
:10298000002A62EEA12AFDEEE22A12EE900A00B2BF
:102990000880DDED012A62EEA12AFDEEE22A12EEA8
:1029A000900A00B24880DDED022A62EEA12AFDEE17
:1029B000E22A12EE900A00B28880DDED032A62EE70
:1029C000A12AFDEEE22A12EE900A00B2C8800FBDE5
:1029D000000000000040CEC50040CE4500C05A4572
:1029E00000BFFEE77047F8B506460C461546F0B244
:1029F0008DF80000E0B28DF80100E8B28DF8020019
:102A000001208DF80300684600F002F8F8BD0000D0
:102A100070B5002100230F22C4781CB3174C246822
:102A200004F4E064C4F5E064C4F30721C1F10404D4
:102A3000E3B20A4144789C40E1B2847814402143D7
:102A40000C07210E0E4C05786155047804F01F0523
:102A50000124AC4005786D11AD0005F1E025C5F805
:102A6000004109E0047804F01F050124AC40054D45
:102A70000678761145F8264070BD00000CED00E0A8
:102A800000E400E080E100E002490143024A1160F5
:102A9000704700000000FA050CED00E0D0ED000AE0
:102AA000F4EEC00AF1EE10FA01DD80ED000AD0ED7F
:102AB000000AB1EE401AF4EEC10AF1EE10FA03D2A8
:102AC000F1EE400AC0ED000A7047704708B50146B4
:102AD000F0EE401AB0EE602AC1ED001A81ED012A35
:102AE00091ED000AD1ED010A30EE600A81ED020A93
:102AF000D1ED020AB0EE600A02F005FFDFED280A10
:102B0000B4EEE00AF1EE10FA03D29FED260A81ED51
:102B1000020A91ED040AD1ED020A30EE200A81ED9D
:102B2000040A91ED050AD1ED020A60EE202A91ED2A
:102B3000060AD1ED040A20EE200A8DED000A91ED7F
:102B4000020AD1ED030A30EE600AD1ED070A20EE49
:102B5000203AD1ED0A0AF8EE600AB0EE600A684643
:102B6000FFF746FD9DED000A32EE800A30EE030AC3
:102B700081ED080AD1ED090AF8EE600AB0EE600AAC
:102B800001F12000FFF78AFF91ED020A81ED030AAF
:102B900091ED080ABDEEC00A10EE100A08BD000053
:102BA000CDCC4C3E00000000DFED0E1AC0ED001A47
:102BB000DFED0C1AC0ED011ADFED0A1AC0ED021AA2
:102BC000DFED081AC0ED031A80ED050AC0ED060A14
:102BD00080ED071A41628262DFED021AC0ED081A29
:102BE000704700000000000029B1064A1268024345
:102BF000044B1A6004E0034A12688243014B1A60D6
:102C0000704700003038024029B1064A126802437A
:102C1000044B1A6004E0034A12688243014B1A60B5
:102C2000704700004038024029B1064A126802434A
:102C3000044B1A6004E0034A12688243014B1A6095
:102C40007047000044380240F0B500210022002403
:102C5000022500260223324F3F6807F00C0121B104
:102C6000042905D0082937D105E02E4F076036E04A
:102C70002D4F076033E02A4F3F1F3F68C7F3805650
:102C8000274F3F1F3F6807F03F036EB1264FB7FB4A
:102C9000F3F7DFF88CC0ACF1040CDCF800C0CCF327
:102CA000881C07FB0CF40CE01E4FB7FBF3F7DFF8B2
:102CB00070C0ACF1040CDCF800C0CCF3881C07FB3E
:102CC0000CF4174F3F1F3F68C7F301477F1C7D007F
:102CD000B4FBF5F7076002E0124F076000BF00BFCA
:102CE0000F4F3F6807F0F0010909104F7A5C076841
:102CF000D74047600A4F3F6807F4E051890A0B4FFD
:102D00007A5C4768D7408760054F3F6807F46041A9
:102D1000490B064F7A5C4768D740C760F0BD00009A
:102D2000083802400024F400001BB70048000020CF
:102D300010B52DED0A8BB0EE408AF0EE608A0446A5
:102D400084ED008AC4ED018A94ED000A10EE101A99
:102D50000846FDF7EEFA41EC1A0B94ED010A10EE6D
:102D6000101A0846FDF7E5FA41EC1B0BB0EE4A1AC3
:102D7000F0EE6A1AB0EE4B0AF0EE6B0A01F05CF965
:102D8000B0EE409AF0EE609A51EC190BFDF7E4FAC0
:102D9000A06094ED020ADFED2B0A20EE200ADFEDA1
:102DA0002A0A80EE201A84ED031A94ED010A10EE2F
:102DB000101A0846FDF7BDFA41EC1C0B9FED231BD2
:102DC000B0EE4C0AF0EE6C0A01F02EFAB0EE40AA1A
:102DD000F0EE60AA94ED000A10EE101A0846FDF716
:102DE000A8FA41EC1C0B9FED191BB0EE4C0AF0EE5B
:102DF0006C0A01F019FAB0EE40BAF0EE60BA53EC8A
:102E00001A2B51EC1B0BFDF7EDF941EC190BFDF7FB
:102E1000A3FA00EE100AF1EEC00AC4ED040A94ED24
:102E2000030ADFED080AB4EEE00AF1EE10FA05DD60
:102E300094ED040AB1EE400A84ED040ABDEC0A8B5D
:102E400010BD000000003443DB0F494000000000CB
:102E500000000040704700000CB500200190009079
:102E60004148006840F480303F49086000BF3E4858
:102E7000006800F4003000900198401C0190009818
:102E800018B90198B0F5A04FF1D13748006800F4A7
:102E9000003010B10120009001E000200090009867
:102EA000012860D130484030006840F080502E4901
:102EB000403108602D48006840F440402B490860CC
:102EC0002948083000682849083108600846006829
:102ED00040F4004008600846006840F4A0500860D4
:102EE0002348091F0860081F006840F08070091F10
:102EF000086000BF1C48006800F000700028F9D08E
:102F00001A48006840F480301849086000BF17482C
:102F1000406800F480300028F9D01448006840F47C
:102F200000301249086000BF1048406800F40030CB
:102F30000028F9D040F205700E4908600A480830B0
:102F4000006820F00300084908310860084600685E
:102F500040F00200086000BF03480830006800F03D
:102F60000C000828F8D10CBD003802400070004069
:102F70000C5A4007003C024010B50020144908805C
:102F80004880144908804FF4C86048804FF47A7232
:102F900040F2CF71632000F089F94FF4FA6291009A
:102FA0009FED0D1ADFED0D0AB7EE080A0C48FFF78A
:102FB000FBFD4FF4FA72D1009FED0A1ADFED060A0D
:102FC0009FED090A06482C30FFF7EEFD10BD00000A
:102FD0000C00002014000020000000000AD7233D50
:102FE00088020020CDCC4C3F9A99993E10B52DED2A
:102FF000028B6048008808B902F0E0FC5E48008857
:1030000030B35C48008818B35C4890ED000AD0EDFE
:10301000000AB7EE001A70EE810AC0ED000ADFED7B
:10302000580AB4EEE00AF1EE10FA11DD5548C06E10
:1030300000F510405349C8664F488088401C4E49EF
:1030400088809FED510A4D4880ED000A0120C8801C
:103050004C4890F87A0000287ED14A4890ED181A22
:10306000B8EEC11AF0EE410A90ED1B1AB8EEC11A83
:10307000B0EE410A3430FFF729FD08EE100A41484E
:10308000B0F9020000EE100AB8EEC00AF0EE400AF5
:10309000B8EEC80A3B480830FFF718FD00B23949BE
:1030A000A1F874000846B0F97400002803DD084652
:1030B000B0F9740003E03348B0F97400404241F6BF
:1030C0003801884222DD2F48B0F90200002803DDD4
:1030D0002C48B0F9020003E02A48B0F9020040424F
:1030E000322813DA294801680068401C274A10601A
:1030F00032290BDD2648007840B92248C06EA0F581
:1031000090302049C8660120214908701D4890ED83
:103110000F0AB5EEC00AF1EE10FA02DD90ED0F0ACB
:1031200004E0184890ED0F0AB1EE400ADFED190AED
:10313000B4EEE00AF1EE10FA06D20020144908704D
:10314000124908600C49C8800E48B0F96400642830
:103150000CDD0C48C16E00E009E0B0F96400A1EBA1
:1031600040300849C8660020A1F8640000BFBDECEB
:10317000028B10BD140000200C0000201C00002059
:103180000000C8428002002000000000240000204F
:10319000200000200000FA4530B50146481EB0F17D
:1031A000807F01D3012030BD481E4FF0E0225061E6
:1031B00050170F22002807DA13071D0E094B00F0E5
:1031C0000F04241F1D5503E013071C0E064B1C544F
:1031D00000BF00204FF0E022906107201061002026
:1031E000E1E7000018ED00E000E400E070470000B7
:1031F00010B51548006840F4700013490860134882
:10320000006840F001001149086000200F490831B2
:1032100008600E4800680E4908400C4908600D48D7
:10322000091D0860081F006820F48020091F08603D
:10323000002006490C310860FFF70EFE4FF00060D9
:1032400001498039086010BD88ED00E00038024077
:10325000FFFFF6FE103000241CB501218020FFF78F
:10326000C3FC02208DF8040000208DF806008DF8C4
:10327000070003208DF805004020009069460A48A9
:10328000FEF74EFF092206210748FEF791FF4FF493
:103290000070009069460448FEF742FF092211467B
:1032A0000148FEF785FF1CBD001C024070B588B0C8
:1032B00006460C461546FFF7CFFF01214020FFF7D9
:1032C000A3FCADF8146006940020ADF81C00ADF826
:1032D000160005A9114800F029FA6020ADF8000099
:1032E0000120ADF802000020ADF804000295ADF811
:1032F0000C00ADF81000ADF80E00ADF812006946F4
:10330000064800F07BF96946044800F0B5F9012150
:10331000024800F04CF908B070BD000000180040F1
:103320003EB505460C4601211020FFF76DFCADF8B7
:10333000005001940020ADF80800ADF80200694685
:103340000A4800F0F3F90121084800F021F90121B1
:10335000064800F02CF901221146044800F044F917
:10336000002201213620FFF73EFB3EBD0010004049
:1033700010B52DED068B9FED530AB0EE408A9FED00
:10338000510AF0EE408A9FED4F0AB0EE409A9FED51
:103390004D0AF0EE409A9FED4B0AB0EE40AA012193
:1033A000494800F010F900287DD048480068401CCA
:1033B00046490860642806DD80214548FEF71DFF68
:1033C000002042490860FFF727F8012858D002285A
:1033D00002D0032855D100E053E002203D49487057
:1033E0003D4948703D4890ED000ADFED3D0A80EE12
:1033F000201A9FED3C0A21EE000AB0EE408A90EDC3
:10340000010A9FED391AC0EE010A9FED360A20EE3F
:10341000800AF0EE408A354890ED000AF2EE000A8C
:1034200080EE201AF0EE419A90ED010AF1EE0C0ABE
:1034300080EE201AB0EE41AA2D48007A012806D16C
:10344000002241032B48FEF7DCFE02F0A5FA2848D3
:10345000007A022803D02648007A032806D10122E8
:1034600051032448FEF7CDFE02F0A8FA2048007A66
:10347000022801D1012000E000201F49088000E05F
:1034800000BF00BFFEF7D8FFC4B22046B0EE491A15
:10349000F0EE680AB0EE480AFDF7B0FFFEF7D2FF83
:1034A000C4B2204600E009E0F0EE4A0AB0EE690A34
:1034B000FEF770FC0121044800F076F8BDEC068BA5
:1034C00010BD000000000000001000402C00002093
:1034D00000100240FC020020480300208804002065
:1034E000000025440040CE45000016449C04002006
:1034F0006E040020001802400C0000203EB5054676
:103500000C4601212020FFF77FFBADF8005001940D
:103510000020ADF80800ADF8020069460A4800F046
:1035200005F90121084800F033F80121064800F0B0
:103530003EF801221146044800F056F8012200210D
:103540003720FFF750FA3EBD0014004010B50121AE
:103550000C4800F038F8A0B10B480068401C0A493C
:103560000860142809DD4FF480410848FEF745FE45
:10357000FEF76AFB0020044908600121014800F0C1
:1035800013F810BD00140040280000200014024071
:1035900021B1028842F08002028004E002884FF6E6
:1035A0007F731A4002807047CA430282704721B17C
:1035B000028842F00102028004E002884FF6FE73A6
:1035C0001A400280704730B50246002000230024D4
:1035D000158A05EA0103958905EA010413B10CB1C6
:1035E000012000E0002030BD1AB183890B438381A4
:1035F00002E083898B4383817047000070B500240B
:1036000000220023058C4FF6FE7635400584028C9F
:103610008388048B4FF68F752C40B51E2C400D8887
:103620002C43751E2A408D892A434D882A43104D0C
:10363000A84202D00F4DA84213D14FF6F7752A4089
:10364000CD892A434FF6FB752A408D882A434FF6D1
:10365000FF652B404FF6FF552B400D8A2B434D8ABB
:103660002B43838004838D684563028470BD000012
:10367000000001400004014070B500240022002336
:10368000058C4FF6EF7635400584028C8388048BD9
:1036900048F6FF752C404FF6FF452C400D884FF63D
:1036A000FF7606EA05252C434FF6DF752A408D8903
:1036B00006EA05152A434D8806EA05152A43154DE5
:1036C000A84202D0144DA8421DD14FF67F752A4062
:1036D000CD894FF6FF7606EA05152A434FF6BF75EA
:1036E0002A408D8806EA05152A434FF6FF352B4000
:1036F0004FF2FF752B400D8A06EA85052B434D8A54
:1037000006EA85052B43838004838D6885630284E4
:1037100070BD00000000014000040140416370479B
:1037200081637047C163704701647047002202885B
:10373000184B98420ED0184B98420BD0B0F1804FE6
:1037400008D0164B984205D0154B984202D0154B25
:10375000984204D14FF68F731A404B881A43124B8C
:10376000984207D0114B984204D04FF6FF431A40BD
:103770000B891A4302804B68C3620B880385054B93
:10378000984202D0044B984201D18B7A03860123E0
:1037900083827047000001400004014000040040A3
:1037A00000080040000C00400010004000140040E1
:1037B00010B540F224410E4800F0EAF9B8B10021FA
:1037C0000C48FEF72BF80B48FEF7EAF8042802D164
:1037D0000948FEF747F916210648FEF711F90121BD
:1037E0000448FEF71BF8024880880148008810BD95
:1037F00000100140406402405804002010B586B01B
:10380000044601210220FFF7EFF901211020FFF704
:103810000BFA02208DF814008DF8150001208DF8A8
:10382000170000208DF816004020049004A91A48C3
:10383000FEF776FC8020049004A91748FEF770FC80
:10384000072206211448FEF7B3FC0722114612484E
:10385000FEF7AEFC00940020ADF80400ADF80600C1
:10386000ADF80800ADF80C000C20ADF80A00694670
:103870000A4800F0DDF9022200212520FFF7B3F805
:10388000012240F22441054800F0ACF9012103482F
:1038900000F05CF906B010BD0004024000100140C9
:1038A00030B58FB004460D4601218805FFF79CF91D
:1038B0001C48FDF7BFFF00BF1A48FEF767F8002855
:1038C000FAD14FF000600090174801900294002058
:1038D0000390049505904FF48060069000200790B7
:1038E00008904FF48070099000020A9000200B901D
:1038F0000C900D900E9069460A48FEF755F801218C
:103900000848FDF78BFF00BF0648FEF73FF8012887
:10391000FAD1012240210448001F00F023F90FB022
:1039200030BD0000406402400410014010B586B074
:10393000044601210820FFF757F901214804FFF749
:1039400063F900208DF8160001208DF81700022081
:103950008DF815008DF814002020049004A9154856
:10396000FEF7DEFB4020049004A91248FEF7D8FBC6
:10397000072205210F48FEF71BFC072206210D48F0
:10398000FEF716FC00940020ADF80400ADF8060028
:10399000ADF80800ADF80C000C20ADF80A0069463F
:1039A000054800F045F90121034800F0CFF806B0C2
:1039B00010BD0000000C02400044004010B540F271
:1039C0002441114800F0E4F8E0B100210F48FDF770
:1039D00025FF0E48FDF7E4FF0446C4F11E0081B246
:1039E0000B4A0C48FEF730FC1E210848FEF708F889
:1039F00001210648FDF712FF0348001D0088024818
:103A0000008800BF10BD0000004800402860024050
:103A100030040020D404002010B586B004460121F3
:103A20000820FFF7E1F801218804FFF7EDF80020F6
:103A30008DF8160001208DF8170002208DF8150072
:103A40008DF81400C001049004A91B48FEF768FB20
:103A50004FF40070049004A91748FEF761FB072299
:103A600008211548FEF7A4FB072209211248FEF79A
:103A70009FFB00940020ADF80400ADF80600ADF8FF
:103A80000800ADF80C000C20ADF80A0069460B48A0
:103A900000F0CEF8032200212720FEF7A4FF012228
:103AA00040F22441054800F09DF80121034800F050
:103AB0004DF806B010BD0000000C02400048004068
:103AC00030B58FB004460D4601214805FFF78CF84C
:103AD0001C48FDF7AFFE00BF1A48FDF757FF00284E
:103AE000FAD14FF000600090174801900294002036
:103AF0000390049505904FF4806006900020079095
:103B000008904FF48070099000020A9000200B90FA
:103B10000C900D900E9069460A48FDF745FF012173
:103B20000848FDF77BFE00BF0648FDF72FFF012880
:103B3000FAD1012240210448001F00F013F80FB011
:103B400030BD0000286002400448004021B1828955
:103B500042F40052828104E082894DF6FF731A40DC
:103B6000828170471AB1838A0B43838202E0838A81
:103B70008B438382704702460020B1F5007F00D15D
:103B800000BF13880B400BB1012000E000207047FC
:103B900070B50246002400230025002040F66A1676
:103BA000B14200D100BFC1F3421501F01F0301264D
:103BB00006FA03F3012D02D19689334006E0022D67
:103BC00002D1168A334001E0968A33400C12012656
:103BD00006FA04F41688344013B10CB1012000E059
:103BE000002070BDF0B5034600240026002500200B
:103BF00040F66A17B94200D100BF1846C1F342141B
:103C000001F01F06012707FA06F5012C01D10C303F
:103C100004E0022C01D1103000E014301AB1076822
:103C20002F43076002E00768AF430760F0BD000064
:103C30002DE9FF4705460E460024A14600BFA046D9
:103C4000B08900B100BF2C8A24F44054F0880443AA
:103C50002C82AC8941F20C608443B08831890843DE
:103C6000718908430443AC81AC8A24F44074B08960
:103C70000443AC826846FEF7E7FF2048854202D045
:103C80001F48854202D1DDF80C9001E0DDF8089074
:103C9000A88900F4004040B109EBC90000EB09100D
:103CA00031684900B0FBF1F707E009EBC90000EB10
:103CB000091031688900B0FBF1F76420B7FBF0F020
:103CC00004012009642101FB1078A88900F4004058
:103CD00040B1322000EBC800B0FBF1F000F007006B
:103CE000044308E0322000EB08106421B0FBF1F03F
:103CF00000F00F0004432C81BDE8FF870010014055
:103D000000140140C1F308028280704700BFFEE743
:103D10000FB4054B10B503A9044A029801F05CFAF0
:103D200010BC5DF814FB0000355A00085800002054
:103D300003B401984100009850EAC12018BF042044
:103D40004A0D18BF40F0010040F2FF72B2EB515F24
:103D500008BF40F00200012808BF052002B07047EC
:103D600070B59B482DED020B2DED068B079D25F0C0
:103D70000044A04218DC9748844202DC0AD106982D
:103D800040B19DED060BBDEC068B02B0BDE8704066
:103D900001F006B9002DCCBF9FED8F0B9FED900B6E
:103DA000BDEC068B02B070BD8F48A04215DD8F4878
:103DB000A042D8BF4FF0FF3458DD9DED060B51EC0B
:103DC000100BFFF7B5FF042808BF01F01DF99DEDAA
:103DD000060BBDEC068B02B070BD9DED060B51ECE1
:103DE000100B01F0CDFDCDE9060181489FED828BDE
:103DF000A0423CDD8248A0421FDD00249FED82AB43
:103E00009DED060B53EC1A2B51EC100BFCF7EAF965
:103E10009DED060B41EC190B53EC1A2B51EC100BDA
:103E2000FCF7B2FB53EC182BFCF77DFA53EC192B83
:103E3000FCF71CFCCDE9060149E09DED060B0124D1
:103E400053EC182B51EC100BFCF7CCF99DED060B45
:103E500041EC190B53EC182B51EC100BFCF763FAE7
:103E600053EC192BFCF702FCCDE906012FE0684862
:103E7000A0421FDD02249FED689B9DED060B53ECD5
:103E8000192B51EC100BFCF77FFB53EC182BFCF7B4
:103E9000A9F99DED060B41EC180B53EC192B51ECD5
:103EA000100BFCF740FA53EC182BFCF7DFFBCDE9C5
:103EB00006010CE09DED060B032453EC102B9FED47
:103EC000580B51EC100BFCF7D1FBCDE906019DED31
:103ED000060B53EC102B51EC100BFCF755FB41EC8F
:103EE000180B53EC182BFCF74FFB41EC190B4E4809
:103EF0000621B0EE490AF0EE690A784400F0BCFFF2
:103F000053EC182B51EC100BFCF73EFB41EC180B5B
:103F10004648B0EE490AF0EE690A0521784400F0FF
:103F2000ABFF53EC192B51EC100BFCF72DFB41ECC4
:103F3000100B51EC180B53EC102B002C0EDAFCF785
:103F400051F99DED061B53EC112BFCF71DFB9DED6C
:103F5000061B53EC112BFCF7E9F935E0FCF742F9AD
:103F60009DED061B53EC112BFCF70EFB41EC100BE7
:103F70002F48784400EBC40090ED001B51EC100B6F
:103F800053EC112BFCF7CFF99DED061B53EC112BD5
:103F9000FCF7C9F941EC100B2648784400EBC4004B
:103FA00090ED001B51EC100B53EC112BFCF7BEF9FC
:103FB00041EC100B002DA2BFBDEC068B02B070BD12
:103FC00051EC100B81F0004141EC100B01E70000B7
:103FD000000010440000F07F182D4454FB21F93FED
:103FE000182D4454FB21F9BF0000DC3F0000203EA7
:103FF0000000F33F00000000000000000000F03F60
:104000000000E63F0000000000000000000000404B
:104010000080034000000000000000000000F83FA6
:10402000000000000000F0BF321D0000E81C00008E
:10403000721C00002A1C000070B56B4E2DED040BA5
:104040002DED028B82B0DDF81CC0DDE905235C425A
:104050002CF000411C4341EAD474049D22F000403E
:10406000B44205D86C422C4340EAD474B4420BD914
:104070009DED061B9DED040B02B0BDEC028B04B060
:10408000BDE8704000F096BFACF14054A4F17F64ED
:104090001C430BD0022404EAAC7444EAD2740543F6
:1040A0009FED538B9FED542B07D015E09DED040B36
:1040B00051EC100B01F037FC42E0002C11BF012C39
:1040C0009DED040B02B0BDEC028B04BF04B070BDCB
:1040D000022C38D0032C3BD00B439FED491B9FEDA6
:1040E0004A0B0AD0B14218D1B04209D121F0804127
:1040F00020F08040079105900FE0002A15DA10E0CB
:10410000434B7B44002C08BF93ED000B0DD0012CDA
:1041100010D0022C17D0032C1AD0B0421DD1002A87
:1041200003DAB0EE410AF0EE610A02B0BDEC028B98
:1041300004B070BD93ED000B51EC100B81F0004109
:1041400041EC100BF1E7B0EE480AF0EE680AECE73C
:10415000B0EE420AF0EE620AE7E7401A00153C288A
:10416000C8BF8DED000B19DCBCF1000FBEBF10F114
:104170003C0F9FED290B8DED000B0FDB9DED060B2A
:1041800053EC102B9DED040B51EC100BFCF76EFA69
:1041900001F0F6FB01F0C7FBCDE90001002C08BFE0
:1041A0009DED000BC1D0012C10D0022C9FED1C0BFB
:1041B00053EC102B9DED000B51EC100B0DD0FCF7C8
:1041C000B2F853EC182BFCF7AEF8B9E7019880F081
:1041D000004001909DED000BA7E7FCF7A4F853EC1D
:1041E000182BFCF7A3F8ABE70000F07F00000000FD
:1041F000182D4454FB210940182D4454FB2109C0BB
:10420000182D4454FB21F9BF182D4454FB21F93FCC
:104210005A1B000000000000000000000000000029
:10422000075C143326A6A13C2DE9F04D2DED040BBF
:104230002DED0E8B96B0DDE92550279CDDF890A082
:1042400025F0004624F00048BAF1000F14BF012108
:10425000002101EB4502FC4953184A1093422AD32E
:10426000002814BF0123002303EB44030B44F74948
:104270008B4220D358EA00019FEDF59B76D0DFF802
:10428000D8B35D4503D1BAF1000F05D188E0BAF18A
:10429000000F08BF002100D0012101EB450111F5FD
:1042A000001F08D8002814BF0121002101EB4401A0
:1042B00011F5001F0BD99DED261B9DED240B16B0AB
:1042C000BDEC0E8B04B0BDE8F04D00F073BE0027CE
:1042D000002DBCBFE149884521DAE1498845A8BFE6
:1042E00002271CDAC3451ADCDE4901EB28511429E8
:1042F00008DDC1F1340220FA02F101FA02F2824231
:104300000DD108E058B9C1F1140228FA02F101FAFE
:1043100002F2424503D101F00101C1F1020756EA60
:104320000A0124D1002C22DA002D18BF022F01D05F
:10433000012F0AD0022000F087FE16B0BDEC0E8BD4
:1043400004B0BDE8F04D00F013BE022000F07CFE8A
:1043500000F00EFE51EC100B81F0004141EC100B0F
:1043600016B0BDEC0E8B04B0BDE8F08D18E09FEDEB
:10437000BEAB9FEDBF8B002871D1B848804522D1DC
:1043800005F1804010F5801008BFBAF1000F07D08A
:10439000B3450ADC002CA8BF9DED260BE0DA0DE04A
:1043A000B0EE490AF0EE690ADAE7002C06DA9DED74
:1043B000260B51EC100B81F000416FE0AE487844C1
:1043C00090ED000BCCE7D8454DD1002C48DA2EB14A
:1043D00086423AD1BAF1000F42D126E0BAF1000F7D
:1043E00013D0022000F030FE00F0FEFD8DED020B38
:1043F0009DED240B8DED000B10EE900A039961F3F7
:104400001E0003909DED020BAAE78DED02AB9DED22
:10441000240B1AEE901A10EE900A8DED000B61F34A
:104420001E0003909DED020B9AE78DED028B9DED32
:10443000240B18EE901A10EE900A8DED000B61F32C
:104440001E0003909DED020B8AE709DA9DED240B17
:1044500051EC190B53EC102BFCF708F91EE020E08F
:104460009DED240B7CE786421BDAB4F1804F0DD022
:10447000A4F10050B0F1FF5013D1002D11DB9DEDE0
:10448000240B51EC100B01F019FB07E09DED240B00
:1044900053EC102B51EC100B00F0C2BC41EC100B94
:1044A0005EE79DED240B51EC100B01F069FABAF1B7
:1044B000000FCDE90E0142D19FED710B46B3A6F17D
:1044C000E040B0F17F600CD05E4538D1002D00DABD
:1044D000A7B3022F0CBF01204FF0FF30FCF74CF9BF
:1044E000DCE7002D01DD002C0DDA002D01DD002CB4
:1044F0001FDB002D16DA002C14DB012F08BF9FED07
:10450000620B3FF42DAFB0EE4A0AF0EE6A0A27E7DD
:10451000022F18BF002D0CD0012F0AD1002DFFF65D
:104520001FAF06E0002DB8BF002C08DA012F3FF4C2
:1045300017AFB0EE480AF0EE680A11E71BE0012061
:1045400000EBE57050EA070115D0791EB0EE498AFC
:10455000F0EE698A084308BF9FED4D8B4E48002559
:10456000804570DD4D494E48884514DDB0420DDB75
:10457000002C19DB2FE0012000F066FD16B0BDEC29
:104580000E8B04B0BDE8F04D00F01EBDB34502DC5B
:10459000002C09DC1FE0864202DA002C1BDA03E063
:1045A0005E452BDD002C16DD022000F04DFD00F0F5
:1045B0001BFD8DED020B53EC1A2B51EC180BFBF786
:1045C000E3FFCDE900010399019861F31E00039018
:1045D0009DED020BC4E6022000F036FD00F014FD54
:1045E00010EE901A18EE900A8DED020B8DED008BF7
:1045F00061F31E0003909DED020BB1E69DED0E0BE5
:1046000053EC192B51EC100BFBF78DFE9FED260B95
:10461000CDE9080153EC102B9DED080B51EC100B6C
:10462000FBF7B2FF9FED221B53EC112BFBF77EFE35
:104630009DED081B53EC112BFBF7A6FF9FED1E1BF6
:1046400053EC112B3CE08CE0FFFF1F00FFFF0F003D
:10465000000000000000F03F0000F03F0000F07F8D
:104660000000404301FCFFFF000000000000F07F5D
:1046700000000000000000009E1800000000000084
:104680000000000000000080000000000000F0FFBB
:10469000000000000000F0BF0000E0410000F04317
:1046A000FFFFEF3F00000000000000000000D03FCF
:1046B000555555555555D53F000000000000E03FC9
:1046C000FBF734FE9DED080B41EC1A0B53EC102B5D
:1046D00051EC100BFBF758FF53EC1A2BFBF754FF70
:1046E00041EC1A0B9FEDFE0B53EC102B9DED080BCC
:1046F00051EC100BFBF748FF41EC1B0B9FEDFA0B45
:1047000051EC1A0B53EC102BFBF73EFF41EC1A0B4C
:104710009FEDF70B53EC102B9DED080B51EC100B9C
:10472000FBF732FF53EC1A2BFBF7FDFD41EC1A0BA4
:1047300051EC1B0B53EC1A2BFBF754FD0690CDE903
:1047400006519DED060B53EC1B2B51EC100BFBF7A8
:10475000EAFD53EC1A2BFBF7E9FD41EC100B00F0DE
:10476000A1B90020B6F5801F0EDA9FEDE30B53ECE4
:10477000102B9DED0E0B51EC100BFBF705FFCDE957
:104780000E016FF034000E4600EB2650A0F2FF370A
:10479000C6F31300DA4940F07F6646F0405688427F
:1047A000D8BF002408DDD7498142C8BF012403DCFB
:1047B0000024A6F580167F1CD348784400EBC40083
:1047C0000F9690ED00CB9DED0E0B53EC1C2B51EC96
:1047D000100BFBF7A8FD9DED0E0B41EC1B0B53ECF2
:1047E0001C2B51EC100BFBF7FDFC41EC100B51ECBA
:1047F000190B53EC102BFBF739FF41EC1D0B51EC5F
:104800001B0B53EC1D2BFBF7BFFE41EC1A0BBF48F3
:104810008DED10AB7844109590ED000B4FF00050EB
:1048200040EA660000EB84408DED080B00F50020A7
:1048300009909DED080B53EC1C2B51EC100BFBF772
:1048400072FD9DED0E1B53EC112BFBF76FFD41EC40
:10485000100B53EC102B9DED100B51EC100BFBF7D4
:1048600093FE9DED080B41EC1C0B53EC102B9DEDC2
:10487000100B51EC100BFBF787FE53EC1B2BFBF7D7
:1048800055FD53EC1C2BFBF74EFD53EC1D2BFBF79A
:104890007BFE41EC1C0B53EC1A2B51EC1A0BFBF773
:1048A00073FE41EC1B0B9A480621B0EE4B0AF0EE6A
:1048B0006B0A784400F0E0FAB0EE401AF0EE601AAD
:1048C000B0EE41DAF0EE61DA53EC1B2B51EC1B0B2E
:1048D000FBF75AFE53EC1D2BFBF756FE9DED100B1C
:1048E00041EC1B0B53EC1A2B51EC100BFBF77AFC31
:1048F00053EC1C2BFBF748FE53EC1B2BFBF772FC15
:104900009DED100B41EC1B0B53EC102B51EC100BDD
:10491000FBF73AFE41EC1D0B9FED7FEB53EC1E2B9A
:10492000FBF760FC53EC1B2BFBF75CFC0890CDE91C
:1049300008519DED080B53EC1E2B51EC100BFBF7AF
:10494000F2FC53EC1D2BFBF7EEFC53EC1B2BFBF79F
:10495000EDFC9DED080B41EC1D0B53EC102B9DED78
:10496000100B51EC100BFBF70FFE41EC1B0B53EC43
:104970001A2B51EC1D0BFBF707FE9DED080B41ECCC
:104980001A0B53EC102B51EC1C0BFBF7FDFD53ECF9
:104990001A2BFBF727FC41EC1A0B51EC1B0B53ECC9
:1049A0001A2BFBF71FFC0C90CDE90C519DED0C0B65
:1049B00053EC1B2B51EC100BFBF7B5FC53EC1A2BF3
:1049C000FBF7B4FC41EC1B0B9FED550B53EC102B8C
:1049D0009DED0C0B51EC100BFBF7D6FD41EC1A0BC7
:1049E0009FED510B51EC1B0B53EC102BFBF7CCFD47
:1049F00041EC1B0B9FED4E0B53EC102B9DED0C0B64
:104A000051EC100BFBF7C0FD53EC1B2BFBF7EAFB43
:104A100041EC100B4848784400EBC40090ED001BBB
:104A200051EC100B53EC112BFBF7DCFB41EC1B0B97
:104A30003846FBF7A1FECDE9080153EC1B2B51ECE6
:104A40001A0BFBF7CFFB41EC100B3C48784400EB12
:104A5000C40090ED00CB51EC100B53EC1C2BFBF77A
:104A6000C1FB9DED081B53EC112BFBF7BBFB069024
:104A7000CDE906519DED080B53EC102B9DED060B77
:104A800051EC100BFBF74FFC53EC1C2BFBF74BFCD2
:104A900053EC1A2BFBF747FC53EC1B2BFBF746FCA4
:104AA00041EC100B9DED261B53EC102B8DED001BE4
:104AB00000959DED260B51EC100BFBF765FD9DED70
:104AC000000B41EC1A0B53EC102B9DED260B51EC17
:104AD000100BFBF728FC9DED061B53EC112B2FE070
:104AE000000000604715F73FFE822B654715F73F32
:104AF00044DF5DF80BAE543E000000000000404370
:104B00008E9803007AB60B00821300004814000050
:104B1000BA12000000000000000000000000084081
:104B2000000000E009C7EE3FFD033ADC09C7EE3F95
:104B3000F5015B14E02F3EBE46110000001100009D
:104B4000FBF722FD53EC1A2BFBF74CFB9DED060BFC
:104B500041EC1A0B53EC102B9DED000B51EC100B9C
:104B6000FBF712FDCDE90C019DED0C0B51EC1A0B7E
:104B700053EC102BFBF736FBCDE902010C46AA499A
:104B80008C422FDB611A084318D19DED0C0B53ECBE
:104B9000102B9DED020B51EC100BFBF7C4FB41EC0D
:104BA0001B0B9FEDA30B51EC1A0B53EC102BFBF7D7
:104BB00019FB53EC1B2BFBF709FE2DD2022000F052
:104BC00043FA00F011FA10EE901A18EE900A8DEDEB
:104BD000020B8DED008B61F31E0003909DED020B27
:104BE000FFF7BEBB944A24F00041914214D393498D
:104BF000214408437FF4EFAC9DED0C0B53EC102BDC
:104C00009DED020B51EC100BFBF78DFB53EC1A2BB7
:104C1000FBF7DCFD7FF6DFAC24F000408849894AD1
:104C2000002601EB205182422BDA481C4FF4801100
:104C300021FA00F02044844AC0F30A517A44A1F2D8
:104C4000FF3192ED000B814A8DED080BCA4020EA3E
:104C50000202C0F3130040F48010C1F1140120FAE5
:104C600001F60992002CB8BF76429DED080B53EC7B
:104C7000102B9DED0C0B51EC100BFBF754FBCDE909
:104C80000C019DED0C0B51EC1A0B53EC102BFBF7A8
:104C9000A9FA9FED6F0B0890CDE9085153EC102B4A
:104CA0009DED080B51EC100BFBF76EFC41EC1B0B60
:104CB0009FED690B53EC102B9DED080B51EC100B85
:104CC000FBF762FC9DED0C0B41EC1C0B53EC102B25
:104CD0009DED080B51EC100BFBF725FB53EC1A2B49
:104CE000FBF724FB9FED5E1B53EC112BFBF74CFCF9
:104CF00053EC1C2BFBF776FA41EC1A0B51EC1B0B17
:104D000053EC1A2BFBF76EFACDE902019DED020B75
:104D100053EC1B2B51EC100BFBF705FB53EC1A2B40
:104D2000FBF704FB9DED020B41EC1A0B53EC102B2F
:104D300051EC100BFBF728FCCDE908014A489DED2A
:104D4000080B0521784400F097F89DED081B51EC05
:104D5000100B53EC112BFBF717FC9DED021B53ECD2
:104D6000112BFBF7E3FACDE906019DED020B53ECA5
:104D70001A2B51EC100BFBF707FC53EC1A2BFBF72B
:104D800031FA9FED3B0B41EC1A0B53EC102B9DEDD0
:104D9000060B51EC100BFBF7C6FA9DED060B41EC30
:104DA0001B0B53EC102B9DED020B51EC100BFBF782
:104DB000EBFB53EC1B2BFBF759FC53EC1A2BFBF7CB
:104DC000B2FA9DED021B53EC112BFBF7ACFA53EC3E
:104DD000192BFBF7ABFACDE9020101EB06500115E7
:104DE0000029C8BF039015DC9DED020B324651EC43
:104DF000100BFBF7AAFCFEF79BFF042808BF00F08E
:104E000003F932469DED020B51EC100BFBF79DFCB4
:104E1000CDE902019DED020B51EC180B53EC102B68
:104E2000FBF7B2FBFFF73ABB000090400000000028
:104E3000FE822B654715973C00CC904000346F3FB5
:104E400001FCFFFF0000E03F20100000FFFF0F000B
:104E500000000000432EE63F396CA80C615C20BEC8
:104E6000EF39FAFE422EE63F580E00000000000027
:104E7000000000000000004070B504462DED028BDC
:104E80004D1E00EBC500B0EE408AF0EE608A90ED5A
:104E9000000B35F0060017D053EC182B51EC100B1B
:104EA000FBF772FB41EC100B6D1E04EBC50090ED9F
:104EB000001B51EC100B53EC112BFBF793F941EC59
:104EC000100B35F00600E7D1022D36D0042D1CD092
:104ED000062D1CBFBDEC028B70BD53EC182B51ECA2
:104EE000100BFBF751FB94ED0A1B53EC112BFBF756
:104EF00079F953EC182BFBF747FB94ED081B53ECA7
:104F0000112BFBF76FF941EC100B53EC182B51EC04
:104F1000100BFBF739FB94ED061B53EC112BFBF741
:104F200061F953EC182BFBF72FFB94ED040B53ECBA
:104F3000102BFBF757F941EC100B53EC182B51ECED
:104F4000100BFBF721FB94ED021B53EC112BFBF72D
:104F500049F953EC182BFBF717FB94ED001B53ECAE
:104F6000112BFBF73FF9BDEC028B41EC100B70BD30
:104F70009FED070B10B553EC102B9FED070B51EC79
:104F8000100BFBF773FB41EC100B10BD0000000091
:104F90000000000000000000000000000000F03FE2
:104FA00010B553EC102B51EC100BFBF71BF941EC37
:104FB000100B10BD10B553EC112B51EC100BFBF77F
:104FC00011F941EC100B10BD9FED050B10B553EC22
:104FD000102B51EC100BFBF749FB41EC100B10BDF3
:104FE00000000000000000009FED050B10B553EC21
:104FF000102B51EC100BFBF7C7FA41EC100B10BD56
:1050000000000000000000709FED050B10B553EC90
:10501000102B51EC100BFBF7B7FA41EC100B10BD45
:10502000000000000000001002E008C8121F08C1C4
:10503000002AFAD170477047002001E001C1121F19
:10504000002AFBD17047000001490860704700004A
:105050005C0000202DE9FF5F82B00021DDE9043013
:10506000020DDDF840B0034318D044F61050A2F210
:10507000FF3242431514119801281FD0A5EB0B00F5
:10508000401C5FEA000A4FF000064E4FDFF83891EF
:10509000B046504615D5CAF1000413E0119801241A
:1050A0004AA3012801D16FEA0B010298119AC0E9C5
:1050B0000031C0E9024206B0BDE8F09FCBF100002C
:1050C000DFE704460021404A491842EB0450CDE98D
:1050D000001012E0E00707D032463B464046494602
:1050E000FBF752FA8046894632463B46104619463F
:1050F000FBF74AFA06460F466410002CEAD1DDE9B8
:105100000401DDE90023BAF1000F06DAFBF73CFAEF
:1051100042464B46FBF738FA05E0FBF7A7FA424652
:105120004B46FBF7A3FA04460E460022284BFBF73A
:105130004DFB03D84FF0FF30014607E00022254B1E
:1051400020463146FBF74EF8FBF727FB102409E019
:10515000002C0ADB0A220023FBF730F9039B3032D4
:105160001A55641E50EA0102F2D1641C039AC4F17C
:1051700011031444119A012A03D0012208430DD1CE
:105180000AE0084304D000204FF0110B119072E7A1
:10519000A3EB0B056D1E0DE05B4504DD4FF0000237
:1051A00005F1010504E003DA4FF00002A5F1010565
:1051B000002AECD002981199C0E90231C0E90045FB
:1051C00079E70000000014400000F03F30000000CC
:1051D0000000F0430000E03F2DE9FF4F95B09B46F3
:1051E0008946064600250FE2252877D10024274668
:1051F000F84A0121059400E0044316F8013F203BE2
:1052000001FA03F01042F7D130782A2811D06FF05C
:105210002F033078A0F13002092A16D8059A44F0FD
:10522000020402EB820203EB42021044761C05905A
:10523000EFE759F8042B0592002A03DA504244F4B0
:105240000054059044F00204761C30782E2816D1C4
:1052500016F8010F44F004042A280DD06FF02F0235
:105260003078A0F13003092B09D807EB870302EB54
:105270004303C718761CF3E759F8047B761C307893
:105280006C280FD006DC4C2817D068280DD06A286F
:1052900014D104E0742810D07A280FD10DE044F422
:1052A00000140AE044F4801401E044F440147278DD
:1052B000824202D104F58014761C761C3078662870
:1052C0000BD013DC582877D009DC002875D045288E
:1052D000F6D04628F4D047281AD19DE118E063287B
:1052E00035D0642879D0652812D195E1702873D023
:1052F00008DC6728F1D069286FD06E280DD06F28A0
:1053000006D1B5E073282CD0752875D0782874D0D4
:105310005A46179990476D1C75E1C4F30250022854
:1053200009D003280DD0D9F8001004280DD00D6045
:1053300009F1040967E1D9F80010EA17C1E9005240
:10534000F6E7D9F800100D80F2E70D70F0E719F8D4
:10535000041B8DF8001000208DF80100EA460120A2
:1053600003E059F804AB4FF0FF3061074FF0000144
:1053700002D40DE008F101018846B9420FDA8045F8
:10538000F8DB1AF808100029F4D108E008F101014F
:1053900088468142FADB1AF808100029F6D10598F0
:1053A0005B46A0EB080721463846179A00F094FAAE
:1053B000284400EB080507E04DE029E10DE01AF86C
:1053C000010B5A4617999047B8F10108F7D25B468E
:1053D00021463846179A13E142E00A220092C4F3AC
:1053E00002524FF0000A022A08D059F804CB032ACF
:1053F0004FEAEC710AD00DE029E02AE009F107013B
:1054000021F00702F2E802C1914609E00FFA8CFC94
:105410004FEAEC71042A03D14FFA8CFC4FEAEC718D
:10542000002907DA0A460021DCF1000C61EB0201D9
:105430002D2202E0220504D52B228DF80420012222
:1054400003E0E20701D02022F7E7904659E00A2165
:1054500002E010220DE010214FF0000A00910BE055
:1054600010224FF0000A44F004040827009203E0E1
:1054700008224FF0000A0092C4F30252022A05D01B
:1054800059F804CB0021032A08D009E009F10701EB
:1054900021F00702F2E802C1914605E01FFA8CFCF8
:1054A000042A01D10CF0FF0C4FF00008220728D588
:1054B000702806D0009B83F0100353EA0A0305D03E
:1054C0000EE040228DF80420012208E05CEA01028F
:1054D00006D030228DF804208DF805000222904677
:1054E000009B83F0080353EA0A030AD15CEA010235
:1054F00001D1620705D530228DF804204FF0010854
:105500007F1E582804D034A003900EA802900DE00E
:1055100036A0F9E753466046009AFAF74FFF8446F3
:105520000398825C0298401E029002705CEA0100BF
:10553000F0D1029806A9081A00F1200A600702D5E6
:1055400024F4803400E00127574502DDA7EB0A0070
:1055500000E0002000EB0A01009005984144401A49
:105560000590E00306D45B462146179A059800F0A3
:10557000B3F90544002706E001A85A46C05D179913
:1055800090476D1C7F1C4745F6DBE0030CD55B465E
:105590002146179A059800F09FF9054404E0302051
:1055A0005A46179990476D1C0099481E0090002993
:1055B000F5DC08E0029802995A460078491C0291ED
:1055C000179990476D1CBAF10001AAF1010AF1DCAC
:1055D00065E10000092801003031323334353637B7
:1055E000383961626364656600000000303132332F
:1055F00034353637383941424344454600000000CF
:1056000000F058F90544761C307800287FF4ECADA2
:1056100019B02846BDE8F08F620700D4062709F1CB
:10562000070222F0070CFCE80223E14603F00048E1
:105630005FEA080C02D00FF2702C0DE05FEA045C08
:1056400002D50FF2682C07E05FEAC47C02D00FF2AB
:10565000602C01E0AFF2700C4FF0FF3823F00043F4
:10566000CDF850C065280CD006DC452809D0462866
:105670001DD047283DD13DE0662818D067287ED14F
:1056800038E00021112F01DB112000E0781CCDE96A
:10569000000106A90EA8FFF7DDFCDDE90F010E9A57
:1056A00003910021009207F1010A04914DE04FF0AF
:1056B00000400097CDE9011006A90EA8FFF7CAFC2B
:1056C000DDE90F0203920E9B11990022DDF80CA078
:1056D0000093049211B9791C00EB010AB7EB0A00A0
:1056E00004D4C0F1FF3007F1010A0490AAEB0700CF
:1056F000019044E0012F00DA01270021112F01DD84
:10570000112000E03846CDE9000106A90EA8FFF7F8
:10571000A1FCDDE90F010E9A039100210491009292
:10572000BA4621070CD40399514500DA8A46BAF1EA
:10573000010F05DD009AAAF10101515C302908D062
:10574000B84202DA10F1040F06DA0121CDE90110A6
:1057500015E0AAF10101E9E7002805DC04990144FC
:105760000491AAEB000102E0411C514500DD8A468C
:105770000499401A401C01904FF00040029020070D
:1057800004D40198504501DBCDF8048000208DF849
:105790004F0002980DF14F07B0F1004F25D02B209C
:1057A0000E9002984FF0020800280CDA4042029056
:1057B0002D200E9007E00A210298FAF7E9FD30311A
:1057C000029007F8011DB8F10001A8F10108F2DC10
:1057D00002980028EFD1791E0E980870307800F0FA
:1057E000200040F0450007F8020D12A8C01B00F190
:1057F00007081498007800B1012000EB0A01019815
:1058000001EBE07105984144401A401E0590E00309
:1058100006D45B462146179A059800F05DF80544CA
:105820001498007818B15A46179990476D1CE003F8
:1058300024D55B462146179A059800F04DF805449B
:105840001CE00498002807DBDDE90301884203DD42
:105850000098405C179901E0179930205A4690470C
:10586000049805F10105401C04900198401E019028
:1058700004D12E205A46179990476D1CBAF10001A9
:10588000AAF1010ADDDC05E017F8010B5A46179969
:1058900090476D1CB8F10001A8F10108F4DC5B46EB
:1058A0002146179A0598ABE62D0000002B0000005A
:1058B000200000002DE9F041044600251E46174651
:1058C000880404D405E039462020B0476D1C641ECE
:1058D000F9D52846BDE8F0812DE9F04104460025C0
:1058E0001E469046C80301D5302700E020278804D3
:1058F00004D505E041463846B0476D1C641EF9D515
:105900002846BDE8F081B5EEC00AF1EE10FA00DBE2
:1059100000BFB5EEC00AF1EE10FA03D2F1EE400A74
:10592000B0EE600A704710B541EC100BFEF718FAA4
:1059300051EC100B10BD000070B504460F48006814
:105940004FF47A71B0FBF1F52846FDF725FC0020F5
:1059500008E000BF4FF0E021096901F4803100291F
:10596000F8D0401CA042F4D34FF0E020006920F0B2
:1059700001004FF0E021086170BD000034000020FC
:1059800082B0CDE9000121F0004001909DED000BB7
:1059900002B051EC100B704710B54FF4617005491F
:1059A00008804FF47A7000F029F80020024908803E
:1059B00010BD0000180000201400002010B50D4894
:1059C000008864300B4908800846008800F016F80B
:1059D000094840880749098888420ADA0649488800
:1059E00000F00CF804484088024908800120024970
:1059F000088010BD180000201400002010B50446D7
:105A0000B4F5FA6F01DD4FF4FA64B4F57A7F01DA88
:105A10004FF47A74054821460268054890470348C8
:105A2000214642680248904710BD00002C5B0008E8
:105A30000018004070B504460D46E1B20648006803
:105A4000FEF760F900BF802103480068FEF793F875
:105A50000028F8D0204670BD300000204FF4A06030
:105A6000FDF712F8FCF708FEFCF7DAFD4FF4E13021
:105A7000FDF75CFFFCF7DCFBFBF78AF8FBF7C2FFE6
:105A800042F20F715920FDF739FD4FF4FA60FFF72C
:105A900053FF08A0FEF73CF9FBF75AFCFBF716FE94
:105AA000FDF76AFA42F20F715920FDF739FC00BF89
:105AB000FEE700005441534B0000000000B52DEDFF
:105AC000048B83B041EC190BFAF7BAFE41EC180BCA
:105AD00018EE100A18EE901A8DED008B002818BFF2
