:020000040800F2
:1000000080080020C1010008512900087123000860
:100010004D2900087B080008C538000800000000D2
:10002000000000000000000000000000AD2D0008EE
:10003000CF1F000800000000092A0008252F000833
:10004000DB010008DB010008DB010008DB01000820
:10005000DB010008DB010008DB010008DB01000810
:10006000DB010008DB010008DB010008DB01000800
:10007000DB010008DB010008DB010008DB010008F0
:10008000DB010008DB010008DB010008DB010008E0
:1000900069090008DB010008DB010008DB0100083A
:1000A000DB010008DB010008DB010008DB010008C0
:1000B000DB010008DB010008DB010008DB010008B0
:1000C000DB010008DB010008DB010008DB010008A0
:1000D000DB01000865330008E134000875350008CD
:1000E000DB010008DB010008DB010008DB01000880
:1000F000DB010008DB010008DB010008DB01000870
:10010000DB010008DB010008DB010008DB0100085F
:10011000DB010008DB010008E12F0008DB0100081B
:10012000DB010008DB010008DB010008DB0100083F
:10013000DB010008DB010008DB010008DB0100082F
:10014000DB010008DB010008DB010008DB0100081F
:10015000DB010008DB010008DB010008DB0100080F
:10016000DB010008DB010008DB010008DB010008FF
:10017000DB010008DB010008DB010008DB010008EF
:10018000DB010008DB010008DB010008DB010008DF
:10019000DB010008DB010008DB010008DB010008CF
:1001A0000000000000000000DB010008DFF80CD0B8
:1001B00000F0C4FA004800475D55000880080020A0
:1001C0000648804706480047FEE7FEE7FEE7FEE7F1
:1001D000FEE7FEE7FEE7FEE7FEE7FEE7292F000861
:1001E000AD0100082DE9FE4F804681EA0300C00FF3
:1001F0000C46009021F0004123F00045B8EB0200CE
:10020000A94105D24046214690461C460B4602466F
:1002100023F00040104347D0270DC7F30A00C3F373
:100220000A510290401A019040286BDAC3F3130080
:1002300040F4801B0098924620B10023D2EB030AC1
:1002400063EB0B0B01985946C0F14002504600F099
:1002500011F906460D4650465946019A00F019F923
:1002600010EB08006141002487EA115284EAE77329
:100270001A4340D0009A62B3019A012A4FEA07520A
:1002800015DC001B61EB02014FF0004202EA07524D
:10029000CDE90042001C41F5801132462B4600F0AA
:1002A00050F903B0BDE8F08F40462146F9E7001B46
:1002B00061EB0201001C41F5801300185B4120181E
:1002C000A2F5001747EB030140EAD570B6196D415E
:1002D00011E06D084FEA360645EAC0754FEA07524D
:1002E000001B61EB0201001C41F5801149084FEA37
:1002F00030000019514132462B4603B0BDE8F04FA3
:1003000000F010B90098012240000023D0EB020257
:1003100063EBE073009821464FEAE074B8EB00000D
:1003200061EB0401E9E783F000435BE781F0004102
:1003300058E72DE9FE4F81EA030404F0004421F060
:10034000004100944FF0000B23F0004350EA0104F9
:100350005ED052EA03045BD0C3F30A54C1F30A55DA
:100360002C44A4F2F3340194A0FB0254C1F3130112
:1003700041F48011C3F3130343F4801301FB0244DF
:1003800000FB034E840A970A44EA815447EA8357E4
:10039000A4FB076802958D0A05FB07854FEA932C9D
:1003A00004FB0C542705029D4FEA065847EA16370E
:1003B000B5EB08056EEB070C870E920E47EA811726
:1003C00042EA8312A7FB0201B6EB0B0164EB0004C7
:1003D0002B0D43EA0C335E1844EB1C50DA465146B1
:1003E000E7FB0201C5F313044FEA0B3343EA14534E
:1003F0004FEA0432019C43EA0603A4F10C04029480
:10040000009CCDE900B400F09CF803B0BDE8F08F8B
:1004100000200146F9E700F0004230F000400AD029
:10042000C10D01F56071C0F3160042EA0151C20826
:1004300040071143704700200146704701F0004318
:1004400030B421F0004150EA010206D00A0DA2F5B5
:100450006072C1F31301002A02DC30BC0020704737
:10046000440F44EAC104C100E01830BC00EBC250A4
:1004700000F021B8202A04DB203A00FA02F1002023
:1004800070479140C2F1200320FA03F319439040D2
:100490007047202A06DBCB17203A41FA02F043EAE4
:1004A000E07306E041FA02F3D040C2F1200291402D
:1004B0000843194670470029A8BF7047401C4900EF
:1004C00008BF20F00100704710B4B0FA80FC00FAB9
:1004D0000CF050EA010404BF10BC704749B1CCF1E4
:1004E000200421FA04F411FA0CF118BF0121214370
:1004F0000843A3EB0C01CB1D4FEA00614FEA10202B
:1005000042BF002010BC704700EBC35010440029CC
:10051000A4BF10BC7047401C490008BF20F0010078
:1005200010BC704710B5141E73F1000408DA401CAB
:1005300041F1000192185B411A4301D120F0010002
:1005400010BD2DE9F04D92469B4611B1B1FA81F2F2
:1005500002E0B0FA80F220329046FFF78BFF0446AB
:100560000F4640EA0A0041EA0B0153465A46084347
:1005700013D0114653EA010019D0C8F14002504689
:1005800000F0EEF805460E46504659464246FFF743
:1005900071FF084305D0012004E020463946BDE83C
:1005A000F08D0020054346EAE0762C4337430A9855
:1005B0006305E40AA0EB08000022FD0A44EA475460
:1005C0000A3002D500200146E9E70105101969410A
:1005D000DDE9084500196941BDE8F04DA2E72DE9C4
:1005E000F04D81EA030404F0004B21F0004514466D
:1005F0004FF0000A23F0004150EA050220D054EAEF
:1006000001021DD0C5F30A570246C5F31303C1F317
:100610001300C1F30A5640F4801543F48013A7EB8E
:100620000608101BD64608F2FD3873EB050002D30E
:1006300008F1010801E092185B41B8F1000F03DAFC
:1006400000200146BDE8F08D00204FF480110646E1
:1006500084460EE0171B73EB050705D3121B63EBF3
:10066000050306434CEA010C49084FEA3000921892
:100670005B4150EA0107EDD152EA030012D082EA51
:10068000040083EA0501084305D0101BAB4106D2E4
:100690000122002306E000224FF0004302E06FF049
:1006A000010253101AEB06004CEB085110EB0A0044
:1006B00041EB0B01BDE8F04DFFF734BF70B521F001
:1006C000004303430CD0C1F30A550024D5EB0405C5
:1006D00064EB0403D617AD1AB34102DB00200146D8
:1006E00070BD201841EB025170BD0EB5C10F80EAFC
:1006F000E0700844CA07002140F233438DE80E0041
:100700000A460B46FFF71DFF03B000BD30B5041EBF
:1007100071F1000404DB4FF00044404264EB01013E
:10072000141E73F1000405DB1C464FF000435242D7
:1007300063EB0403994208BF904230BD064C074D5D
:1007400006E0E06840F0010394E8070098471034A1
:10075000AC42F6D3FFF72EFD90580008B0580008C1
:10076000202A04DB203A21FA02F00021704721FA06
:1007700002F3D040C2F1200291400843194670476D
:100780002DE9F04D00231A461B1A8A4103DB002095
:100790000146BDE8F08DC1F30A52C1F3130141F4E3
:1007A00080154FF0000BD10702D100186D41521E89
:1007B0000027044640F2FF11384601EB620A3E462C
:1007C0008046024600204FF48011FFF7C9FFC2198E
:1007D0007141BB1846EB0100B4EB030C75EB000C48
:1007E00004D3E41A65EB000517460E46241908F1F8
:1007F00001006D4180463428E3DDF91946EB06001F
:10080000091BA84103D24FF0FF32134601E000223A
:1008100013461BEB070046EB0A51BDE8F04DFFF70E
:1008200081BE0EB540F2334102910021CDE90011A5
:100830000A460B46FFF785FE03B000BD70B5C1F355
:100840000A5201F000450024C1F3130140F2FF33C6
:1008500041F480119A4201DA002070BD40F2334326
:100860009A42A2F2334203DC5242FFF779FF00E0E2
:1008700090402C43F1D0404270BD00BFFEE7000025
:1008800000B589B00121082002F05AF9012148067B
:1008900002F066F902208DF820008DF8210000207A
:1008A0008DF823008DF822000220079007A92C481C
:1008B00001F0A9FB0120079007A9294801F0A3FB3B
:1008C00009220121264801F0E6FB092200212448E3
:1008D00001F0E1FB00208DF8160001208DF81700D3
:1008E0008DF8180000208DF819008DF81A008DF889
:1008F0001B008DF812008DF8130002208DF81400F3
:1009000004208DF815000520ADF8100004A9154845
:1009100000F0BBF900208DF80A008DF80B000120D3
:100920008DF80C000020ADF8080001208DF80D00B6
:100930000020ADF80000ADF80200ADF80400ADF8FD
:100940000600684600F084F801221146142002F0E7
:1009500000F801220221034800F08EF909B000BD21
:10096000000C02400064004000B587B002210D4831
:1009700000F0F2F8A0B102AA00210A4800F00FFA34
:100980000698009002A80FC801F0C4FD06980090D8
:1009900002A80FC801F02CFE0221024800F004F862
:1009A00007B000BD00640040B1F5007F3AD00FDC15
:1009B000202928D006DC01291CD004291DD00829B3
:1009C00040D11DE0402921D0B1F5807F3AD126E009
:1009D000B1F5004F31D006DCB1F5806F25D0B1F50F
:1009E000006F2FD124E0B1F5803F12D0B1F5003F68
:1009F00028D111E0154A826025E00822C26022E079
:100A00001022C2601FE0082202611CE01022026175
:100A100019E00822426016E01022426013E004222E
:100A2000426010E0042242600DE0042242600AE0CD
:100A3000002282610422426005E0002282610422D9
:100A4000426000E000BF00BF7047000001010100EC
:100A500010B50021837A012202FA03F13D4A12689F
:100A600042F001023B4B1A603A4A1C3212688A4338
:100A7000384B1C331A60027BCAB9364A0C321268F2
:100A80008A43344B0C331A604288C38842EA0343DA
:100A9000304A4032847A42F834300288838842EA0D
:100AA00003432C4A4032847A02EBC4025360027B37
:100AB000012A19D1274A0C3212680A43254B0C33FC
:100AC0001A604288038842EA0343224A4032847A09
:100AD00042F83430C288838842EA03431D4A4032D8
:100AE000847A02EBC4025360C27A3AB9194A121DE1
:100AF00012688A43174B1B1D1A6006E0154A121D27
:100B000012680A43134B1B1D1A60028932B9114A3D
:100B1000143212688A430F4B14331A600289012A77
:100B200006D10C4A143212680A430A4B14331A6075
:100B3000427B012A06D1074A1C3212680A43054B40
:100B40001C331A60034A126822F00102014B1A603A
:100B500010BD00000066004070B504460D4600263A
:100B600060692840002871D0B5F5807F5CD010DC2A
:100B7000082D35D006DC012D20D0022D24D0042DE7
:100B800072D127E0102D31D0202D35D0402D6BD1E2
:100B900038E0B5F5004F60D009DCB5F5007F49D0ED
:100BA000B5F5806F4CD0B5F5006F5DD14FE0B5F570
:100BB000803F2DD0B5F5003F56D12FE0A0682D49DC
:100BC00000F0A2FB064651E0E068032100F09CFB28
:100BD00006464BE0E068082100F096FB064645E03B
:100BE000E068102100F090FB06463FE020690321F9
:100BF00000F08AFB064639E02069082100F084FBFA
:100C0000064633E02069102100F07EFB06462DE009
:100C10006068082100F078FB064627E06068102134
:100C200000F072FB064621E0A069012100F06CFB98
:100C300006461BE0A069022100F066FB064615E0AF
:100C4000A069042100F060FB06460FE00FE0A069F8
:100C5000702100F059FB064608E06068042100F0AE
:100C600053FB064602E0FFE7002600BF00E0002637
:100C7000304670BD010101001AB143690B43436165
:100C800002E043698B434361704730B50246002060
:100C90000023146824F002041460146844F0010472
:100CA000146000E05B1C546804F001041CB94FF6AA
:100CB000FF74A342F6D1546804F001040CB900207B
:100CC0006CE08C79012C04D1146844F08004146029
:100CD00003E0146824F080041460CC79012C04D162
:100CE000146844F04004146003E0146824F04004E5
:100CF00014600C7A012C04D1146844F020041460B0
:100D000003E0146824F0200414604C7A012C04D110
:100D1000146844F01004146003E0146824F0100414
:100D200014608C7A012C04D1146844F00804146017
:100D300003E0146824F008041460CC7A012C04D178
:100D4000146844F00404146003E0146824F00404FC
:100D500014608C78A407CD7844EA05640D7944EAE0
:100D600005444D7944EA05540D886D1E2C43D46129
:100D7000146824F001041460002300E05B1C546834
:100D800004F001041CB14FF6FF74A342F6D154687D
:100D900004F001040CB1002000E0012030BD10B5CA
:100DA00000F5D87303EB01131B6803F004031372FF
:100DB000137A53B900F5D87303EB01131B6840F2A3
:100DC000FF7404EA5353136009E000F5D87303EB92
:100DD00001131B686FF0604404EAD303536000F50D
:100DE000D87303EB01131B6803F00203537200F581
:100DF000D87303EB01135B6803F00F03937200F5E4
:100E0000D87303EB01135B681B0AD37400F5D87326
:100E100003EB01139B68D37200F5D87303EB011346
:100E20009B681C0A147300F5D87303EB01139B68CD
:100E30001C0C547300F5D87303EB01139B681B0E55
:100E4000937300F5D87303EB0113DB68D37300F5DC
:100E5000D87303EB0113DB681C0A147400F5D87314
:100E600003EB0113DB681C0C547400F5D87303EB1F
:100E70000113DB681B0E937421B9C36843F0200390
:100E8000C36003E0036943F02003036110BDF0B5C4
:100E900085B007460C4615461E460CB9009500E085
:100EA00001958DF8084000208DF8090008208DF884
:100EB0000A00002005E0325C0DF10B010A54411CD0
:100EC000C8B20828F7DB6946384600F002F805B0DA
:100ED000F0BD10B502460020936803F08063B3F1C3
:100EE000806F00D110E0936803F00063B3F1006FEE
:100EF00001D1012008E0936803F08053B3F1805FD3
:100F000001D1022000E00420042874D002F5C0734F
:100F100003EB00131B6803F0010402F5C07303EB3D
:100F200000131C600B7A7BB94B7A0C8843EA44535C
:100F300002F5C07404EB00142468234302F5C07466
:100F400004EB0014236010E00B7A4C6843EAC403FE
:100F50004C7A234302F5C07404EB00142468234345
:100F600002F5C07404EB001423608B7A03F00F03C6
:100F70008B7202F5C07303EB00135B6823F00F0460
:100F800002F5C07303EB00135C6002F5C07303EB62
:100F900000135B688C7A234302F5C07404EB0014E1
:100FA00063608B7B1C064B7B44EA03440B7B44EA67
:100FB0000323CC7A234302F5C07404EB0014A3602E
:100FC0008B7C1C064B7C44EA03440B7C44EA0323E1
:100FD000CC7B234302F5C07404EB0014E36002F5FC
:100FE000C07303EB00131B6843F0010402F5C073E8
:100FF00003EB00131C6010BD10B59FED1E0A1E48C8
:1010000080ED030A9FED1D0A80ED070A01201A49B1
:1010100081F85C009FED1A0A084680ED160A002050
:1010200081F85400002413E004EB0411154A02EB8C
:10103000810101F1100041F288324FF47A519FEDA5
:10104000121ADFED120A9FED120A01F093F9641CE7
:10105000042CE9DB4FF4FA7241F29411B2EE0E1A4D
:10106000DFED090AB0EE0C0A0348283001F0CEFC8F
:1010700010BD00000AD7233D5000002000608645C7
:1010800000C07345CC01002000000000CDCC4C3FD7
:1010900033333340F0EE400AF7EE001AB0EE610A47
:1010A000DFED441AB0EE611A00213CE001EB0112C1
:1010B00000EB8202B2F90C20002A06DD01EB0112DE
:1010C00000EB8202B2F90C2006E001EB011200EB0A
:1010D0008202B2F90C20524201EE902AF8EEE11A97
:1010E000F4EEC11AF1EE10FA1BDD01EB011200EB78
:1010F0008202B2F90C20002A06DD01EB011200EB9E
:101100008202B2F90C2006E001EB011200EB820230
:10111000B2F90C20524201EE902AF8EEE11AB0EE3C
:10112000611A4A1CD1B20429C0DBB4EEE01AF1EE18
:1011300010FA03DDC0EE811AB0EE610AB0F90C10AE
:1011400001EE901AF8EEE11A61EE801AFDEEE11A56
:1011500011EE901A09B28181B0F9501001EE901A87
:10116000F8EEE11A61EE801AFDEEE11A11EE901A26
:101170000AB250210A52B0F9941001EE901AF8EE1A
:10118000E11A61EE801AFDEEE11A11EE901A0AB230
:1011900094210A52B0F9D81001EE901AF8EEE11A33
:1011A00061EE801AFDEEE11A11EE901A0AB2D82112
:1011B0000A5270470000000031B52DED040B82B0DB
:1011C0000546012D07D100231A461946184601F09D
:1011D000E5F907B030BD4848007F28B19DED040A0D
:1011E0008DED030A8DED020A4448D0ED030AB0EEFE
:1011F000600A00F1100102A800F0EAFE3F48D0EDBD
:10120000030AB0EE600A00F1140103A800F0E0FE4A
:101210003A48D0ED030AB0EE600A00F1180104A8C4
:1012200000F0D6FE3548D0ED061AB0EE611AD0EDCA
:10123000051AF0EE610AD0ED041AB0EE610A6846B4
:1012400001F090FA00243FE004EB04102C4901EB7C
:10125000800090F83C00012835D13DF8140004EBE3
:101260000411274A02EB8101088104EB041102EB0F
:101270008101B1F9021001EE101AB8EEC11AF0EEB8
:10128000410A04EB041102EB8101B1F9081001EEEF
:10129000101AB8EEC11AB0EE410A04EB041102EBC9
:1012A000810101F1100001F089F800B204EB041192
:1012B000134A02EB81018881002004EB041102EB48
:1012C000810181F83C00641C042CBDDB0B4890F8C4
:1012D0005C0020B19FED0B0A0948FFF7DBFE084CCC
:1012E000B4F9D830B4F99420B4F95010B4F90C0022
:1012F00001F054F900BF6CE7F0020020500000201C
:10130000CC01002000803B450246002002EA010398
:101310000BB1012000E000207047000010B59FEDE8
:101320004C0A4C4880ED040A00204B4908844B4885
:1013300090ED000AB8EEC00A464880ED050A80ED3F
:10134000020A464890ED1D0AB8EEC00A414880EDF9
:10135000050A80ED030A00203E4981F8EC000022D6
:101360004FF47A61BAEE081ADFED3D0ABAEE000AD0
:101370003A48883001F04AFB00224FF4FA719FEDA1
:10138000381ADFED370AB7EE080A3448B43001F0F6
:101390003DFB00224FF47A619FED311ADFED300AF8
:1013A000BAEE040A2D48143001F030FB00224FF44D
:1013B000FA71B7EE001ADFED2A0AB0EE000A2748EC
:1013C000403001F023FB244890ED070A214880EDCE
:1013D000090A80ED070A204890ED050A1D4880EDB6
:1013E0000A0A80ED080A00224FF4FA719FED1C1AD8
:1013F000DFED1B0ABFEE080A3C3001F007FB0022BC
:101400004FF47A619FED171ADFED150A9FED160A6A
:101410001048683001F0FAFA00224FF4FA719FED9B
:10142000101ADFED0F0AB8EE000A0A48943001F0F6
:10143000EDFA00224FF47A619FED0C1ADFED080AF5
:101440009FED080A0348C03001F0E0FA10BD00002B
:10145000CDCCCC3DB0000020540400204C03002033
:1014600000000000000070C20000A0C2000020C206
:1014700010B52DED048BB0EE408AF0EE608A044684
:101480007D4890ED051AF0EE410A90ED071AB0EE96
:10149000410A00F061FA022C03D0774890F8260048
:1014A000B8B1764890ED1D1AB8EEC11AF0EE410AB7
:1014B00090ED001AB8EEC11AB0EE410A00F016FA2B
:1014C00000231A461946184600F01CFABDEC048B9E
:1014D00010BD6B48007F28B19FED6A0AF0EE408A8C
:1014E000B0EE408A684890ED020A30EE480A80ED7E
:1014F000020A90ED030A30EE680A80ED030A90EDCF
:10150000020ADFED620AB4EEE00AF1EE10FA03DD42
:101510009FED5E0A80ED020A5B4890ED020ADFED66
:101520005C0AB4EEE00AF1EE10FA03D29FED580A1D
:1015300080ED020A544890ED030ADFED560AB4EE3E
:10154000E00AF1EE10FA03DD9FED520A80ED030A86
:101550004D4890ED030ADFED500AB4EEE00AF1EEDB
:1015600010FA03D29FED4C0A80ED030A4648D0EDF5
:10157000040AB0EE600A00F11401083000F028FD02
:101580004148D0ED040AB0EE600A00F118010C30B9
:1015900000F01EFD3C4890ED050ABDEEC00A10EEBD
:1015A000101A002001F0D2F8374890ED060ABDEE7F
:1015B000C00A10EE101A012001F0C8F82F4890F868
:1015C000700018BB2D4890ED001AB8EEC11AF0EE6D
:1015D000410A90ED021AB8EEC11AB0EE410A40304D
:1015E00001F038FA09EE100A234890ED020AF0EEF5
:1015F000400AB8EEC90A2148143001F02BFA00B2B3
:101600001E498881002081F86C0000BF1B4890F8BB
:10161000E40020BB194890ED1D1AB8EEC11AF0EE97
:10162000410A90ED1F1AB8EEC11AB0EE410AB4306B
:1016300001F010FA09EE100A0F4890ED010AF0EEE1
:10164000400AB8EEC90A0D48883001F003FA01B229
:101650000A48A0F88010002180F8E01000BF074A77
:10166000B2F98010B2F90C0000234FF47A7200F046
:1016700049F900BF2AE70000540400204C03002071
:10168000F002002000000000B000002000409C4557
:1016900000002F4500C08F450070384510B52DED76
:1016A000048BB0EE408AF0EE608A0446844890EDE8
:1016B000000AB8EEC00A834880ED020A80ED050AF0
:1016C000022C03D0804890F82600E8B17E4890EDC7
:1016D000051AF0EE410A90ED071AB0EE410A00F04B
:1016E0003BF9774890ED1D0AB8EEC00A754880EDC9
:1016F000030A80ED060A00231A461946184600F030
:1017000001F9BDEC048B10BD7048007F28B19FED3E
:10171000700AF0EE408AB0EE408AF3EE0E0A88EED0
:10172000200A6848D0ED070A30EE200A80ED070A4B
:1017300090ED030A30EE680A80ED030A00F004FE23
:101740006148D0ED070A30EE200A5E4880ED0B0AB2
:1017500000F0FAFDDFED5F0A30EEC00A5A48D0ED26
:10176000070A30EEC00A574880ED0C0A00F0CAFDA7
:101770005548D0ED050A30EE200A524880ED0D0A9A
:1017800000F0C0FDDFED540A30EEC00A4E48D0ED47
:10179000050A30EEC00A4B4880ED0E0A90ED030AB0
:1017A000DFED4E0AB4EEE00AF1EE10FA03DD9FED34
:1017B0004B0A80ED030A434890ED030ADFED480A27
:1017C000B4EEE00AF1EE10FA03D29FED450A80ED87
:1017D000030A9FED440A3B492431A1F1080000F0BF
:1017E000F7FB9FED410A37491831A1F10C0000F0D9
:1017F000EFFB344890ED060ABDEEC00A10EE101A59
:10180000012000F0A3FF2E4890F8700020BB2E4866
:1018100090ED071AF0EE410A2A4890ED091AB0EE51
:10182000410A3C3001F016F900EE100AB8EEC00A89
:10183000B0EE409A244890ED020AF0EE400AB0EE75
:10184000490A2048683001F005F900B21C49888136
:10185000002081F86C0000BF194890F8E40020BB1C
:10186000174890ED1D1AB8EEC11AF0EE410A90ED3E
:101870001F1AB8EEC11AB0EE410AB43001F0EAF80E
:1018800009EE100A104890ED010AF0EE400AB8EE99
:10189000C90A0B48883001F0DDF801B20848A0F809
:1018A0008010002180F8E01000BF054AB2F98010D6
:1018B000B2F90C0000231A4600F024F800BF20E71C
:1018C0004C030020B000002054040020F00200204F
:1018D000000000001768C1428FF7904200C08F459A
:1018E00000703845CDCCCC3ECDCCCC3D044880ED0D
:1018F000020A80ED050AC0ED030AC0ED060A704732
:10190000B00000202DE9FC4107460C4615461E4656
:10191000380A8DF80000F8B28DF80100200A8DF821
:101920000200E0B28DF80300280A8DF80400E8B246
:101930008DF80500300A8DF80600F0B28DF807002A
:101940006B4640F2FF1200210248FFF7A0FABDE803
:10195000FC81000000640040044880ED070A80ED2F
:10196000090AC0ED080AC0ED0A0A7047B00000205D
:1019700001480078704700000000002021B1026893
:1019800042F00102026003E0026822F001020260FC
:1019900070470000016821F0010101600021016031
:1019A00041608160C1600161212141614A498842F1
:1019B00004D13D21484A103A91608CE046491831E3
:1019C000884205D14FF47461434A103A916082E035
:1019D00041493031884205D14FF474113E4A103AE2
:1019E000916078E03C494831884205D14FF07461FC
:1019F000394A103A91606EE037496031884204D12B
:101A00003649354A103AD16065E033497831884229
:101A100004D13349304A103AD1605CE02E4990310C
:101A2000884204D12F492C4A103AD16053E02A4908
:101A3000A831884205D14FF03D51274A103AD16074
:101A400049E02949884204D13D21274A083A1160DA
:101A500041E025491831884205D14FF47461224A8A
:101A6000083A116037E020493031884205D14FF4FF
:101A700074111D4A083A11602DE01B494831884213
:101A800005D14FF07461184A083A116023E01649F5
:101A90006031884204D11149134A121F11601AE0C3
:101AA00011497831884204D10D490F4A121F116043
:101AB00011E00D499031884204D10A490A4A121FA7
:101AC000116008E00849A831884204D14FF03D5127
:101AD000054A121F11607047106002403D0000204F
:101AE000400F002000003D2010640240014600200D
:101AF0000A6802F001020AB1012000E000207047EC
:101B00000146486880B2704710B500220268134B46
:101B10001A40CC680B6823434C6923438C692343E8
:101B2000CC6923430C6A23434C6A23438C6A2343C6
:101B30004C6B23438C6B23431A430260426922F0AF
:101B40000702D1E90B3423431A4342610B69436016
:101B50004B6883608B68C36010BD00003F801CF041
:101B60004160704710B5044604B910BD2078617813
:101B700040EA0120C0F30A00834908806078C01061
:101B8000A17840EA4110C0F30A007F494880A0785C
:101B90008011E17840EA8100217940EA8120C0F398
:101BA0000A007949888020794010617940EAC110A3
:101BB000C0F30A007449C880607900118008087277
:101BC0006079C0F301104872A079E17940EA012000
:101BD00000B26D494881207A617A40EA012001B261
:101BE00069488181A07AE17A40EA012001B2664821
:101BF000C181217B0174617B0175A07B62490883EF
:101C00000846408B401C488308460088A0F5806049
:101C100000B2088008464088A0F5806000B2488085
:101C200008468088A0F5806000B288800846C08899
:101C3000A0F5806000B2C880B1F9000000F0B6F9EC
:101C400000B251490880B1F9020000F0AFF900B2CA
:101C50004D494880B1F9040000F0A8F900B24A49A2
:101C60008880B1F9060000F0A1F900B24649C880A9
:101C70000846B0F9040001EE100AB8EEC11AF0EE01
:101C8000410A0846B0F90600404201EE100AB8EEDB
:101C9000C11AB0EE410A3D4800F0F6FF3A48B0F9EB
:101CA000020001EE100AB8EEC11AF0EE410A364801
:101CB000B0F9000001EE100AB8EEC11AB0EE410A08
:101CC000334800F0E1FF3048007EC0F3800040421E
:101CD00000EE100AB8EEC00ADFED2E0A20EE200A50
:101CE0002948007EC0F3C00000EE900AF8EE600ABA
:101CF0009FED281A00EE810A274880ED000A22484D
:101D0000007EC0F34000404200EE100AB8EEC00A68
:101D1000DFED200A20EE200A1B48007E00F00100C3
:101D200000EE900AF8EE600A9FED1A1A00EE810AA2
:101D3000194880ED010A1448007EC0F3801040422B
:101D400000EE100AB8EEC00ADFED120A20EE200AFB
:101D50000D48007EC00900EE900AF8EE600A9FED83
:101D60000D1A00EE810A0C4880ED030A0648103077
:101D700000F016F80448143000F012F80248407AD7
:101D80000649087000BFF0E6F002002010030020B2
:101D90002403002000001644380300200000002027
:101DA0000021C170817001784278914206D001789B
:101DB00011B10121817001E00121C17001784170F0
:101DC0007047000010B5044801F0F2FA14210348EE
:101DD00001F040FB10BD0000A0860100DC020020E5
:101DE00000B51D48B0F9460000EE900AF8EEE00A92
:101DF000B0EE600A012000F085F81748B0F98A00BB
:101E000000EE900AF8EEE00AB0EE600A022000F060
:101E100079F8022000F02AF81049087000201049D3
:101E2000087012E000BF0F48008800F04000002852
:101E3000F9D00D480A490978405C0A49091D088013
:101E400007480078401C0649087005480078034997
:101E500009788842E6DB00BDCC0100201900002093
:101E60001800002000440040A001002001460A297B
:101E700000DC09B9002070472420214A10700B298A
:101E80003CD2DFE801F03B060B10151A1F24292F66
:101E9000350005201A4A50710620ECE70920184A3F
:101EA00050720A20E7E70D20154A50730E20E2E732
:101EB0001120134A50741220DDE71520104A507586
:101EC0001620D8E719200E4A50761A20D3E71D2095
:101ED0000B4A50771E20CEE72120094A82F82100C4
:101EE0002220C8E72520064A82F825002620C2E7DE
:101EF0002920034A82F829002A20BCE70020BAE7FB
:101F0000A001002011B52DED020B04460A2C00DCC7
:101F100004B91EBD0B2C43D2DFE804F042060C12BC
:101F2000181E242A30363C0001221F49684600F062
:101F30005CF835E005221C49684600F056F82FE0B1
:101F400009221949684600F050F829E00D22164987
:101F5000684600F04AF823E011221349684600F071
:101F600044F81DE015221049684600F03EF817E0DD
:101F700019220D49684600F038F811E01D220A497F
:101F8000684600F032F80BE021220749684600F06D
:101F90002CF805E025220449684600F026F800BF29
:101FA00000BF00BFB5E70000A001002001460029E6
:101FB00005DB142901DA002070470846FCE711F11F
:101FC000140F01DD0020F7E7084600BFF4E7704773
:101FD000D0ED000A91ED001A30EEC11AD1ED000AE1
:101FE00040EE010AC1ED000A704730B503461C7887
:101FF0008C545D78541C0D559D78941C0D55DD78DE
:10200000D41C0D5530BDF0B50A4600210023002434
:1020100000BF3DE0012505FA01F3156805EA030458
:102020009C4234D105684F000326BE40B54305608D
:1020300015794E00B5400668354305601579012DC8
:1020400002D01579022D16D185684F000326BE40B7
:10205000B543856055794E00B54086683543856047
:10206000456801268E40B5434560456896798E40A7
:10207000B6B235434560C5684F000326BE40B54340
:10208000C560D5794E00B540C6683543C560491C6A
:102090001029BFD3F0BDF0B5002300244D07ED0E8D
:1020A00002FA05F3CE1000F1200555F826504E0730
:1020B000F70E0F26BE40B543CF1000F1200646F8BC
:1020C0002750CE1000F1200555F8265045EA0304AC
:1020D000CE1000F1200545F82640F0BD0246002054
:1020E00013690B400BB1012000E0002070474269EA
:1020F0004A404261704701460022002004E00B5C28
:102100001344DAB2431CD8B21128F8DB487C904261
:1021100001D1012070470020FCE7000010B54FF40A
:10212000E13001F055FA1E21014801F0A5FA10BD79
:1021300034040020FEB506460F4614460025D6E0BE
:10214000705D5A287ED1681C305C5A28FAD170190B
:10215000FFF7D1FF002876D0681D315C281D305C68
:1021600041EA002000B2ADF80000E81D315CA81D76
:10217000305C41EA002000B2ADF8020005F1090030
:10218000315C401E305C41EA002000B2ADF8040032
:1021900005F10B00315C401E305C41EA002000B2CA
:1021A000ADF8060005F10D00315C401E305C41EADF
:1021B000002000B2ADF8080005F10F00315C401EB0
:1021C000305C41EA002000B2ADF80A00BDF9000021
:1021D00000EE100AB8EEC00ADFED470A80EE201AC2
:1021E00084ED001ABDF9020000EE100AB8EEC00A34
:1021F000DFED410A80EE201A84ED011ABDF90400DA
:1022000000EE100AB8EEC00ADFED3B0A80EE201A9D
:1022100084ED021ABDF8060080B200EE100AB8EE96
:10222000400ADFED350A80EE201A84ED031ABDF96D
:10223000080000EE100AB8EEC00ADFED2F0A80EEAB
:10224000201A01E051E04DE084ED051ABDF90A00C5
:1022500000EE100AB8EEC00ADFED270A80EE201A61
:1022600084ED041A05F11000305C84F8220094ED2E
:10227000030AD4ED060A30EE600ADFED200AB4EE60
:10228000E00AF1EE10FA03D2208C401C00B2208448
:1022900094ED060AD4ED030A30EE600ADFED170A6A
:1022A000B4EEE00AF1EE10FA03D2208C401E00B228
:1022B000208494ED030A84ED060A94ED030AB4F930
:1022C000200000EE900AF8EEE00A9FED0D1A01EEF4
:1022D000200A84ED070AA08C401CA084012084F809
:1022E0002300FEBD681C85B201E0681C85B2BD42BA
:1022F000FFF626AF00BFF4E70000C842000096C317
:102300000000B443044890ED1D0AB8EEC00ADFEDAA
:10231000030A30EE600A70474C0300200070384515
:10232000064890ED000AB8EEC00ADFED050A70EE2F
:10233000600A9FED041A80EE810A70474C0300206A
:1023400000C073450000B641064890ED000AB8EEA3
:10235000C00ADFED050A70EE600A9FED041A80EEF8
:10236000810A70474C03002000002F450000B64151
:1023700000BFFEE7DFED101AC0ED001ADFED0E1A08
:10238000C0ED011ADFED0C1AC0ED021ADFED0A1ADA
:10239000C0ED031ADFED081AC0ED041A80ED050A3E
:1023A000C0ED060A80ED071A41628262DFED021A73
:1023B000C0ED081A704700000000000008B5014693
:1023C000F0EE401AB0EE602AC1ED001A81ED012A4C
:1023D00091ED000AD1ED010A30EE600A81ED020AAA
:1023E00091ED020AB5EEC00AF1EE10FA02DD91EDB0
:1023F000020A03E091ED020AB1EE400ADFED2D0A78
:10240000B4EEE00AF1EE10FA03D29FED2B0A81ED53
:10241000020A91ED020AD1ED030A30EE600AD1ED15
:10242000050A60EE202A91ED060AD1ED020A20EE9F
:10243000200A8DED000A91ED020AD1ED030AB0EEFB
:10244000001A01EE600AD1ED040A30EE200AD1ED47
:10245000070A20EE203AD1ED0A0AF8EE600AB0EE43
:10246000600A684603F00FF891ED080ADDED000AF6
:1024700072EEA00A70EE830A30EE200A81ED080A9F
:10248000D1ED090AF8EE600AB0EE600A01F1200011
:1024900002F0F9FF91ED030A81ED040A91ED020AC1
:1024A00081ED030A91ED080ABDEEC00A10EE100A94
:1024B00008BD0000CDCC4C3E0000000010B500F07F
:1024C00017F8002009498870C870084600784978D4
:1024D000884209D00548007818B101200349C87026
:1024E00002E001200149887010BD0000200000209A
:1024F00010B506480078054948704FF480610448DB
:10250000FFF7ECFD0149087010BD0000200000201D
:10251000000C02400FB40099B1F5007F03D9009977
:10252000B1F5017F01D904B070470099A1F20120F3
:102530009DF80C109DF80B2041EA022100EB0012DF
:10254000154B23F822109DF80E209DF80D1042EA3D
:10255000012109B200EB001203EB820251809DF8C9
:1025600010209DF80F1042EA012109B200EB001281
:1025700003EB820291809DF8111000EB001203EB37
:1025800082029171012100EB001203EB820282F8BA
:102590003C1000BFC7E70000CC0100202DE9FC4142
:1025A00007460C4615461E46380A8DF80000F8B25C
:1025B0008DF80100200A8DF80200E0B28DF80300CA
:1025C000280A8DF80400E8B28DF80500300A8DF86D
:1025D0000600F0B28DF807006B464FF40072002140
:1025E0000248FEF754FCBDE8FC8100000064004096
:1025F0000FB40099B1F5017F04D940F20622009989
:10260000914201D904B070470099A1F205209DF8CC
:102610000C109DF80B2041EA022100EB4002C2EBB6
:102620004012484B03EB820291809DF80E209DF8EA
:102630000D1042EA012109B200EB4002C2EB401248
:1026400003EB8202D18000EB4001C1EB40111A463E
:1026500002EB8101898800EB4002C2EB401203EBE0
:102660008202D289891A384A914210DA00EB40017D
:10267000C1EB40111A4602EB8101098A491C09B2DB
:1026800000EB4002C2EB401203EB8202118200EB2E
:102690004001C1EB40112B4A02EB8101C98900EBDB
:1026A0004002C2EB4012274B03EB82029288891A48
:1026B000254A914210DA00EB4001C1EB40111A4665
:1026C00002EB8101098A491E09B200EB4002C2EB0C
:1026D000401203EB8202118200EB4001C1EB40117A
:1026E000184A02EB8101898800EB4002C2EB4012DC
:1026F000144B03EB8202D18100EB4001C1EB40118E
:102700001A4602EB8101898800EB4002C2EB4012BD
:1027100003EB8202128A4FF4005313FB021100EB09
:102720004002C2EB4012074B43F82210012100EB9C
:102730004002C2EB401203EB820282F86C1000BF31
:1027400060E700004C03002090E8FFFF00EB400230
:10275000C2EB4012024B03EB820291607047000013
:102760004C0300200FB50146F7EE002AF0EE621A86
:10277000DFED722AB0EE622A00BFDFED712AB4EEFF
:10278000E20AF1EE10FA04D8DFED6D2AB0EE620A2B
:102790000AE0DFED6C2AB4EEE20AF1EE10FA03DB98
:1027A000DFED682AB0EE620A00BF00BFDFED642AE9
:1027B000F4EEE20AF1EE10FA04D8DFED612AF0EE51
:1027C000620A0AE0DFED5F2AF4EEE20AF1EE10FAA7
:1027D00003DBDFED5C2AF0EE620A00BF00BFDFED35
:1027E000582AB4EEE21AF1EE10FA04D8DFED542ABA
:1027F000B0EE621A0AE0DFED532AB4EEE21AF1EE0F
:1028000010FA03DBDFED4F2AB0EE621A00BF70EE64
:10281000602A72EE812ACDED002A70EE202A72EE37
:10282000812ACDED012AF1EE402A72EEA02A72EE45
:10283000812ACDED022AF1EE402A72EEE02A72EEF4
:10284000812ACDED032A0020002202EE902A3DE0ED
:102850006A4602EB800292ED003AB5EEC03AF1EE24
:1028600010FA05DD6A4602EB800292ED003A06E0BE
:102870006A4602EB800292ED003AB1EE433AF8EE7E
:10288000623AB4EEE33AF1EE10FA1DDD6A4602EB6D
:10289000800292ED003AB5EEC03AF1EE10FA05DD95
:1028A0006A4602EB800292ED003A06E06A4602EBCD
:1028B000800292ED003AB1EE433ABCEEC33A13EE19
:1028C000102AD2B202EE902A421CD0B20428BFDBFA
:1028D000DFED1D2AB4EEE22AF1EE10FA05DDDFEDA0
:1028E0001A2A82EE823AF0EE431ADDED002A62EEF9
:1028F000A12AFDEEE22A12EE900A00B20880DDED78
:10290000012A62EEA12AFDEEE22A12EE900A00B23E
:102910004880DDED022A62EEA12AFDEEE22A12EEE7
:10292000900A00B28880DDED032A62EEA12AFDEE56
:10293000E22A12EE900A00B2C8800FBD000000002B
:1029400000404EC500404E4500C05A4500BFFEE75E
:102950007047F8B506460C461546F0B28DF80000F3
:10296000E0B28DF80100E8B28DF8020001208DF888
:102970000300684600F002F8F8BD000070B50021C1
:1029800000230F22C4781CB3174C246804F4E064BD
:10299000C4F5E064C4F30721C1F10404E3B20A41C1
:1029A00044789C40E1B28478144021430C07210E06
:1029B0000E4C05786155047804F01F050124AC40E5
:1029C00005786D11AD0005F1E025C5F8004109E07D
:1029D000047804F01F050124AC40054D06787611FB
:1029E00045F8264070BD00000CED00E000E400E07A
:1029F00080E100E002490143024A11607047000093
:102A00000000FA050CED00E070470000DFED101A41
:102A1000C0ED001ADFED0E1AC0ED011A41628262AC
:102A2000DFED0B1AC0ED021ADFED091AC0ED031A33
:102A3000DFED071AC0ED041A80ED050AC0ED060AA5
:102A400080ED071ADFED021AC0ED081A704700008A
:102A50000000000008B50146F0EE401AB0EE602A12
:102A6000C1ED001A81ED012A91ED000AD1ED010AB4
:102A700030EE600A81ED020A91ED020AB5EEC00A5D
:102A8000F1EE10FA02DD91ED020A03E091ED020A87
:102A9000B1EE400ADFED280AB4EEE00AF1EE10FADA
:102AA00003D29FED260A81ED020A91ED040AD1EDD1
:102AB000020A30EE200A81ED040A91ED050AD1EDFB
:102AC000020A60EE202A91ED060AD1ED040A20EEFA
:102AD000200A8DED000A91ED020AD1ED030A30EED5
:102AE000600AD1ED070A20EE203AD1ED0A0AF8EE8D
:102AF000600AB0EE600A684602F0C5FC9DED000A6F
:102B000032EE800A30EE030A81ED080AD1ED090A9F
:102B1000F8EE600AB0EE600A01F1200002F0B3FCAA
:102B200091ED020A81ED030A91ED080ABDEEC00A9B
:102B300010EE100A08BD0000CDCC4C3E0000000095
:102B400029B1064A12680243044B1A6004E0034AA2
:102B500012688243014B1A6070470000303802400F
:102B600029B1064A12680243044B1A6004E0034A82
:102B700012688243014B1A607047000040380240DF
:102B800029B1064A12680243044B1A6004E0034A62
:102B900012688243014B1A607047000044380240BB
:102BA000F0B5002100220024022500260223324F26
:102BB0003F6807F00C0121B1042905D0082937D15D
:102BC00005E02E4F076036E02D4F076033E02A4FB7
:102BD0003F1F3F68C7F38056274F3F1F3F6807F0EE
:102BE0003F036EB1264FB7FBF3F7DFF88CC0ACF1B3
:102BF000040CDCF800C0CCF3881C07FB0CF40CE0E0
:102C00001E4FB7FBF3F7DFF870C0ACF1040CDCF833
:102C100000C0CCF3881C07FB0CF4174F3F1F3F6824
:102C2000C7F301477F1C7D00B4FBF5F7076002E0A6
:102C3000124F076000BF00BF0F4F3F6807F0F00161
:102C40000909104F7A5C0768D74047600A4F3F6810
:102C500007F4E051890A0B4F7A5C4768D7408760D8
:102C6000054F3F6807F46041490B064F7A5C47689F
:102C7000D740C760F0BD0000083802400024F400CF
:102C8000001BB7003800002010B52DED0A8BB0EE08
:102C9000408AF0EE608A044684ED008AC4ED018A21
:102CA00094ED000A10EE101A0846FDF7B4FB41EC53
:102CB0001A0B94ED010A10EE101A0846FDF7ABFB53
:102CC00041EC1B0BB0EE4A1AF0EE6A1AB0EE4B0A5A
:102CD000F0EE6B0A00F084FFB0EE409AF0EE609ADE
:102CE00051EC190BFDF7AAFBA06094ED020ADFED91
:102CF0002B0A20EE200ADFED2A0A80EE201A84ED4E
:102D0000031A94ED010A10EE101A0846FDF783FB32
:102D100041EC1C0B9FED231BB0EE4C0AF0EE6C0A4D
:102D200001F0BAF8B0EE40AAF0EE60AA94ED000A05
:102D300010EE101A0846FDF76EFB41EC1C0B9FEDE0
:102D4000191BB0EE4C0AF0EE6C0A01F0A5F8B0EEDB
:102D500040BAF0EE60BA53EC1A2B51EC1B0BFDF7A6
:102D600041FA41EC190BFDF769FB00EE100AF1EE98
:102D7000C00AC4ED040A94ED030ADFED080AB4EEBC
:102D8000E00AF1EE10FA05DD94ED040AB1EE400A16
:102D900084ED040ABDEC0A8B10BD00000000344332
:102DA000DB0F4940000000000000004070470000B9
:102DB0000CB50020019000904148006840F480303C
:102DC0003F49086000BF3E48006800F400300090B2
:102DD0000198401C0190009818B90198B0F5A04FD7
:102DE000F1D13748006800F4003010B101200090A4
:102DF00001E0002000900098012860D13048403068
:102E0000006840F080502E49403108602D4800682D
:102E100040F440402B4908602948083000682849A0
:102E2000083108600846006840F400400860084621
:102E3000006840F4A05008602348091F0860081F7C
:102E4000006840F08070091F086000BF1C480068DF
:102E500000F000700028F9D01A48006840F4803073
:102E60001849086000BF1748406800F48030002807
:102E7000F9D01448006840F400301249086000BFDF
:102E80001048406800F400300028F9D040F2057086
:102E90000E4908600A480830006820F0030008491D
:102EA000083108600846006840F00200086000BF72
:102EB00003480830006800F00C000828F8D10CBD69
:102EC00000380240007000400C5A4007003C0240AD
:102ED00030B50146481EB0F1807F01D3012030BDDE
:102EE000481E4FF0E022506150170F22002807DAE9
:102EF00013071D0E094B00F00F04241F1D5503E09E
:102F000013071C0E064B1C5400BF00204FF0E0229C
:102F10009061072010610020E1E7000018ED00E05B
:102F200000E400E07047000010B51548006840F468
:102F30007000134908601348006840F0010011490F
:102F4000086000200F49083108600E4800680E49EB
:102F500008400C4908600D48091D0860081F0068FA
:102F600020F48020091F0860002006490C31086009
:102F7000FFF71EFF4FF0006001498039086010BD67
:102F800088ED00E000380240FFFFF6FE103000241C
:102F90003EB505460C4601211020FFF7E1FDADF8D6
:102FA000005001940020ADF80800ADF80200694619
:102FB0000A4800F095F90121084800F05BF9012169
:102FC000064800F066F901221146044800F07EF937
:102FD000002201213620FFF7BCFC3EBD001000405E
:102FE00010B52DED0E8B0121934800F05EF90028FD
:102FF0007ED09FED920AB0EE408A9FED900AF0EEEF
:10300000408A8F480068401C8D490860642806DDAE
:1030100080218C48FFF76BF8002089490860FEF793
:10302000A7FC022838D0032837D1FFF747FA012040
:10303000854981F8EC00854981F85400844890ED79
:10304000000ADFED840A80EE201A9FED830A21EE4C
:10305000000A824880ED000A7D4890ED010ADFED0C
:103060007D0A80EE201A9FED7C0A21EE000A7C4842
:1030700080ED000A7B4890ED000AF2EE000A80EE37
:10308000201AB0EE418A90ED010AF1EE0C0A80EEB2
:10309000201AF0EE418A00E000BF00BF6A4890F8B5
:1030A000EC0001287ED1FFF73BF9DFED6F0A20EE3F
:1030B000200A6E4880ED000A684890ED000A10EE84
:1030C000104A6A480068FDF7A6F941EC1E0BB0EE05
:1030D0004E0AF0EE6E0A01F007FDB0EE40CAF0EEC7
:1030E00060CA5F480068FDF796F941EC1D0B00E0EF
:1030F0009EE053EC1C2BFDF71CF941EC1A0B5B48CE
:103100000068FDF788F941EC1E0BB0EE4E0AF0EEB8
:103110006E0A00F05DFEB0EE40CAF0EE60CA4F48A5
:103120000068FDF778F941EC1D0B53EC1C2BFDF703
:1031300000F941EC1B0B53EC1A2BFDF7F4F841ECB2
:10314000190BFDF77BF94549086048480068FDF711
:1031500062F941EC1E0BB0EE4E0AF0EE6E0A01F081
:10316000C3FCB0EE40CAF0EE60CA2046FDF753F94A
:1031700041EC1D0B53EC1C2BFDF7DBF841EC1A0B5B
:103180003A480068FDF747F941EC1E0BB0EE4E0AD5
:10319000F0EE6E0A00F01CFEB0EE40CAF0EE60CA1F
:1031A0002F4800E015E00068FDF735F941EC1D0BF4
:1031B00053EC1C2BFDF7BDF841EC1B0B53EC1A2B09
:1031C000FDF710F841EC190BFDF738F924490860B8
:1031D00000BFFEF7CDFB0446254991ED001A2049BA
:1031E000D1ED000A1D4991ED000AFDF7E5FF1648F3
:1031F00090F8EC0010B1012814D109E0FEF7B8FBFB
:103200000446F0EE680AB0EE480AFEF731F909E02C
:10321000FEF7AEFB0446F0EE680AB0EE480AFEF791
:103220003DFA00BF00BF0121034800F02FF800BFA6
:10323000BDEC0E8B10BD000000100040000000002F
:103240001400002000100240B000002050000020B8
:10325000100300200000254400404E4508000020D7
:103260000C0000202403002035FA8E3C04000020CE
:103270001000002021B1028842F08002028004E0A8
:1032800002884FF67F731A4002807047CA43028259
:10329000704721B1028842F00102028004E00288F6
:1032A0004FF6FE731A400280704730B50246002088
:1032B00000230024158A05EA0103958905EA010423
:1032C00013B10CB1012000E0002030BD1AB1838998
:1032D0000B43838102E083898B4383817047000025
:1032E00000220288184B98420ED0184B98420BD0FF
:1032F000B0F1804F08D0164B984205D0154B98423C
:1033000002D0154B984204D14FF68F731A404B8868
:103310001A43124B984207D0114B984204D04FF6F3
:10332000FF431A400B891A4302804B68C3620B8823
:103330000385054B984202D0044B984201D18B7A09
:10334000038601238382704700000140000401408E
:103350000004004000080040000C00400010004045
:103360000014004010B540F224410E4800F0ECF982
:10337000B8B100210C48FEF701FB0B48FEF7C0FB7B
:10338000022802D10948FEF7EDFB14210648FEF79A
:10339000E7FB01210448FEF7F1FA02488088014862
:1033A000008810BD0010014040640240DC02002093
:1033B00010B586B0044601210220FFF7C1FB0121B0
:1033C0001020FFF7DDFB02208DF814008DF81500AA
:1033D00001208DF8170000208DF816004020049081
:1033E00004A91A48FEF70FFE8020049004A917488C
:1033F000FEF709FE072206211448FEF74CFE0722BD
:1034000011461248FEF747FE00940020ADF8040074
:10341000ADF80600ADF80800ADF80C000C20ADF8D2
:103420000A0069460A4800F0DFF90222002125203F
:10343000FFF78FFA012240F22441054800F0AEF96F
:103440000121034800F05EF906B010BD00040240FF
:103450000010014030B58FB004460D4601218805AB
:10346000FFF76EFB1C48FEF795FA00BF1A48FEF7FF
:103470003DFB0028FAD14FF0006000901748019002
:10348000029400200390049505904FF4806006900C
:103490000020079008904FF48070099000020A9075
:1034A00000200B900C900D900E9069460A48FEF794
:1034B0002BFB01210848FEF761FA00BF0648FEF722
:1034C00015FB0128FAD1012240210448001F00F019
:1034D00025F90FB030BD00004064024004100140E7
:1034E0007047000010B586B0044601210820FFF7A0
:1034F00027FB01214804FFF733FB00208DF816005D
:1035000001208DF8170002208DF815008DF81400A9
:103510002020049004A91548FEF775FD4020049072
:1035200004A91248FEF76FFD072205210F48FEF798
:10353000B2FD072206210D48FEF7ADFD00940020E4
:10354000ADF80400ADF80600ADF80800ADF80C00C9
:103550000C20ADF80A006946054800F045F9012144
:10356000034800F0CFF806B010BD0000000C024088
:103570000044004010B540F22441114800F0E4F846
:10358000E0B100210F48FEF7F9F90E48FEF7B8FA4E
:103590000446C4F11E0081B20B4A0C48FEF7CAFD76
:1035A0001E210848FEF7DCFA01210648FEF7E6F97D
:1035B0000348001D00880248008800BF10BD0000BD
:1035C00000480040286002405404002034040020D9
:1035D00010B586B0044601210820FFF7B1FA012199
:1035E0008804FFF7BDFA00208DF8160001208DF841
:1035F000170002208DF815008DF81400C00104900A
:1036000004A91B48FEF7FFFC4FF40070049004A9C6
:103610001748FEF7F8FC072208211548FEF73BFD86
:10362000072209211248FEF736FD00940020ADF86C
:103630000400ADF80600ADF80800ADF80C000C2051
:10364000ADF80A0069460B4800F0CEF803220021CD
:103650002720FFF77EF9012240F22441054800F0BF
:103660009DF80121034800F04DF806B010BD0000A0
:10367000000C02400048004030B58FB004460D46B3
:1036800001214805FFF75CFA1C48FEF783F900BFEB
:103690001A48FEF72BFA0028FAD14FF0006000908C
:1036A00017480190029400200390049505904FF470
:1036B000806006900020079008904FF48070099079
:1036C00000020A9000200B900C900D900E9069461D
:1036D0000A48FEF719FA01210848FEF74FF900BF22
:1036E0000648FEF703FA0128FAD1012240210448D6
:1036F000001F00F013F80FB030BD0000286002403A
:103700000448004021B1828942F40052828104E0E1
:1037100082894DF6FF731A40828170471AB1838AFD
:103720000B43838202E0838A8B4383827047024685
:103730000020B1F5007F00D100BF13880B400BB112
:10374000012000E00020704770B5024600240023ED
:103750000025002040F66A16B14200D100BFC1F337
:10376000421501F01F03012606FA03F3012D02D1D1
:103770009689334006E0022D02D1168A334001E0DB
:10378000968A33400C12012606FA04F41688344057
:1037900013B10CB1012000E0002070BDF0B503466C
:1037A000002400260025002040F66A17B94200D107
:1037B00000BF1846C1F3421401F01F06012707FAA3
:1037C00006F5012C01D10C3004E0022C01D110309F
:1037D00000E014301AB107682F43076002E0076861
:1037E000AF430760F0BD00002DE9FF4705460E46D8
:1037F0000024A14600BFA046B08900B100BF2C8ABA
:1038000024F44054F08804432C82AC8941F20C60CB
:103810008443B08831890843718908430443AC81EB
:10382000AC8A24F44074B0890443AC826846FFF744
:10383000B7F92048854202D01F48854202D1DDF801
:103840000C9001E0DDF80890A88900F4004040B138
:1038500009EBC90000EB091031684900B0FBF1F732
:1038600007E009EBC90000EB091031688900B0FBE3
:10387000F1F76420B7FBF0F004012009642101FB9B
:103880001078A88900F4004040B1322000EBC80055
:10389000B0FBF1F000F00700044308E0322000EB39
:1038A00008106421B0FBF1F000F00F0004432C81FC
:1038B000BDE8FF870010014000140140C1F3080279
:1038C0008280704700BFFEE7014A024901F0CABD8D
:1038D000255500084800002003B4019841000098D5
:1038E00050EAC12018BF04204A0D18BF40F0010063
:1038F00040F2FF72B2EB515F08BF40F002000128B6
:1039000008BF052002B0704770B59B482DED020B33
:103910002DED068B079D25F00044A04218DC97484A
:10392000844202DC0AD1069840B19DED060BBDEC45
:10393000068B02B0BDE8704001F03ABD002DCCBF4F
:103940009FED8F0B9FED900BBDEC068B02B070BD11
:103950008F48A04215DD8F48A042D8BF4FF0FF34FA
:1039600058DD9DED060B51EC100BFFF7B5FF042859
:1039700008BF01F051FD9DED060BBDEC068B02B0BA
:1039800070BD9DED060B51EC100B01F0BFFDCDE9B4
:10399000060181489FED828BA0423CDD8248A04217
:1039A0001FDD00249FED82AB9DED060B53EC1A2B1F
:1039B00051EC100BFCF716FC9DED060B41EC190BBE
:1039C00053EC1A2B51EC100BFCF7B3FC53EC182BF7
:1039D000FCF7A9FC53EC192BFCF701FECDE906011D
:1039E00049E09DED060B012453EC182B51EC100B14
:1039F000FCF7F8FB9DED060B41EC190B53EC182B73
:103A000051EC100BFCF78FFC53EC192BFCF7E7FD86
:103A1000CDE906012FE06848A0421FDD02249FED9A
:103A2000689B9DED060B53EC192B51EC100BFCF72A
:103A300080FC53EC182BFCF7D5FB9DED060B41ECFD
:103A4000180B53EC192B51EC100BFCF76CFC53ECDE
:103A5000182BFCF7C4FDCDE906010CE09DED060B2B
:103A6000032453EC102B9FED580B51EC100BFCF77B
:103A7000B6FDCDE906019DED060B53EC102B51EC84
:103A8000100BFCF756FC41EC180B53EC182BFCF711
:103A900050FC41EC190B4E480621B0EE490AF0EEFD
:103AA000690A784401F058FB53EC182B51EC100BC9
:103AB000FCF73FFC41EC180B4648B0EE490AF0EE2B
:103AC000690A0521784401F047FB53EC192B51ECAE
:103AD000100BFCF72EFC41EC100B51EC180B53ECC7
:103AE000102B002C0EDAFCF77DFB9DED061B53EC32
:103AF000112BFCF71EFC9DED061B53EC112BFCF764
:103B000015FC35E0FCF76EFB9DED061B53EC112B0D
:103B1000FCF70FFC41EC100B2F48784400EBC4007D
:103B200090ED001B51EC100B53EC112BFCF7FBFB41
:103B30009DED061B53EC112BFCF7F5FB41EC100B34
:103B40002648784400EBC40090ED001B51EC100BAC
:103B500053EC112BFCF7EAFB41EC100B002DA2BF3C
:103B6000BDEC068B02B070BD51EC100B81F0004132
:103B700041EC100B01E70000000010440000F07F52
:103B8000182D4454FB21F93F182D4454FB21F9BF53
:103B90000000DC3F0000203E0000F33F000000007A
:103BA000000000000000F03F0000E63F00000000C1
:103BB0000000000000000040008003400000000002
:103BC000000000000000F83F000000000000F0BF0F
:103BD000921C0000481C0000D21B00008A1B000041
:103BE00070B56B4E2DED040B2DED028B82B0DDF820
:103BF0001CC0DDE905235C422CF000411C4341EA76
:103C0000D474049D22F00040B44205D86C422C4389
:103C100040EAD474B4420BD99DED061B9DED040B14
:103C200002B0BDEC028B04B0BDE8704001F0CABB2D
:103C3000ACF14054A4F17F641C430BD0022404EA8D
:103C4000AC7444EAD27405439FED538B9FED542B23
:103C500007D015E09DED040B51EC100B01F02AFC90
:103C600042E0002C11BF012C9DED040B02B0BDEC15
:103C7000028B04BF04B070BD022C38D0032C3BD0A3
:103C80000B439FED491B9FED4A0B0AD0B14218D15F
:103C9000B04209D121F0804120F080400791059089
:103CA0000FE0002A15DA10E0434B7B44002C08BFDC
:103CB00093ED000B0DD0012C10D0022C17D0032C4B
:103CC0001AD0B0421DD1002A03DAB0EE410AF0EE5C
:103CD000610A02B0BDEC028B04B070BD93ED000B25
:103CE00051EC100B81F0004141EC100BF1E7B0EE0C
:103CF000480AF0EE680AECE7B0EE420AF0EE620A1B
:103D0000E7E7401A00153C28C8BF8DED000B19DC11
:103D1000BCF1000FBEBF10F13C0F9FED290B8DEDE4
:103D2000000B0FDB9DED060B53EC102B9DED040BF0
:103D300051EC100BFCF753FC01F0E8FB01F0BAFB6F
:103D4000CDE90001002C08BF9DED000BC1D0012C76
:103D500010D0022C9FED1C0B53EC102B9DED000B93
:103D600051EC100B0DD0FCF7DEFA53EC182BFCF7DE
:103D7000DAFAB9E7019880F0004001909DED000B60
:103D8000A7E7FCF7D0FA53EC182BFCF7CFFAABE718
:103D90000000F07F00000000182D4454FB21094072
:103DA000182D4454FB2109C0182D4454FB21F9BFA0
:103DB000182D4454FB21F93FEA1A000000000000CE
:103DC0000000000000000000075C143326A6A13CA0
:103DD00010B52F499FED2C1B2DED020B84B00598DB
:103DE00020F000408842D8BF9DED040B2DDD29490D
:103DF000884209D1049840B94FF0010001F02CFB32
:103E000001F0EAFA06B010BD05DB9DED040B01F0F0
:103E1000CFFA06B010BD68469DED040B00F0C8FE59
:103E200010F0030004BF9DED021B9DED000B0CD0B4
:103E300001280ED09DED021B9DED000B022817D02E
:103E4000012001F005FA06B010BD01F0CDF806B072
:103E500010BD9DED021B9DED000B012001F0F8F956
:103E600051EC100B81F0004106B041EC100B10BD7D
:103E700001F0BAF851EC100B81F0004106B041ECB2
:103E8000100B10BD0000000000000000000000004A
:103E9000FB21E93F0000F07F2DE9F04D2DED040BF3
:103EA0002DED0E8B96B0DDE92550279CDDF890A016
:103EB00025F0004624F00048BAF1000F14BF01219C
:103EC000002101EB4502FC4953184A1093422AD3C2
:103ED000002814BF0123002303EB44030B44F749DC
:103EE0008B4220D358EA00019FEDF59B76D0DFF896
:103EF000D8B35D4503D1BAF1000F05D188E0BAF11E
:103F0000000F08BF002100D0012101EB450111F590
:103F1000001F08D8002814BF0121002101EB440133
:103F200011F5001F0BD99DED261B9DED240B16B03E
:103F3000BDEC0E8B04B0BDE8F04D01F043BA002794
:103F4000002DBCBFE149884521DAE1498845A8BF79
:103F500002271CDAC3451ADCDE4901EB285114297B
:103F600008DDC1F1340220FA02F101FA02F28242C4
:103F70000DD108E058B9C1F1140228FA02F101FA92
:103F800002F2424503D101F00101C1F1020756EAF4
:103F90000A0124D1002C22DA002D18BF022F01D0F3
:103FA000012F0AD0022001F057FA16B0BDEC0E8B9B
:103FB00004B0BDE8F04D01F0E3B9022001F04CFA85
:103FC00001F0DEF951EC100B81F0004141EC100BD7
:103FD00016B0BDEC0E8B04B0BDE8F08D18E09FED7F
:103FE000BEAB9FEDBF8B002871D1B848804522D170
:103FF00005F1804010F5801008BFBAF1000F07D01E
:10400000B3450ADC002CA8BF9DED260BE0DA0DE0DD
:10401000B0EE490AF0EE690ADAE7002C06DA9DED07
:10402000260B51EC100B81F000416FE0AE48784454
:1040300090ED000BCCE7D8454DD1002C48DA2EB1DD
:1040400086423AD1BAF1000F42D126E0BAF1000F10
:1040500013D0022001F000FA01F0CEF98DED020B31
:104060009DED240B8DED000B10EE900A039961F38A
:104070001E0003909DED020BAAE78DED02AB9DEDB6
:10408000240B1AEE901A10EE900A8DED000B61F3DE
:104090001E0003909DED020B9AE78DED028B9DEDC6
:1040A000240B18EE901A10EE900A8DED000B61F3C0
:1040B0001E0003909DED020B8AE709DA9DED240BAB
:1040C00051EC190B53EC102BFCF789FA1EE020E0A1
:1040D0009DED240B7CE786421BDAB4F1804F0DD0B6
:1040E000A4F10050B0F1FF5013D1002D11DB9DED74
:1040F000240B51EC100B01F06DFA07E09DED240B41
:1041000053EC102B51EC100B00F0C2BC41EC100B27
:104110005EE79DED240B51EC100B01F0F7F9BAF1BD
:10412000000FCDE90E0142D19FED710B46B3A6F110
:10413000E040B0F17F600CD05E4538D1002D00DA50
:10414000A7B3022F0CBF01204FF0FF30FCF7CDFAD0
:10415000DCE7002D01DD002C0DDA002D01DD002C47
:104160001FDB002D16DA002C14DB012F08BF9FED9A
:10417000620B3FF42DAFB0EE4A0AF0EE6A0A27E771
:10418000022F18BF002D0CD0012F0AD1002DFFF6F1
:104190001FAF06E0002DB8BF002C08DA012F3FF456
:1041A00017AFB0EE480AF0EE680A11E71BE00120F5
:1041B00000EBE57050EA070115D0791EB0EE498A90
:1041C000F0EE698A084308BF9FED4D8B4E480025ED
:1041D000804570DD4D494E48884514DDB0420DDB09
:1041E000002C19DB2FE0012001F036F916B0BDECF0
:1041F0000E8B04B0BDE8F04D01F0EEB8B34502DC23
:10420000002C09DC1FE0864202DA002C1BDA03E0F6
:104210005E452BDD002C16DD022001F01DF901F0BA
:10422000EBF88DED020B53EC1A2B51EC180BFCF74D
:1042300080F8CDE900010399019861F31E00039015
:104240009DED020BC4E6022001F006F901F0E4F84E
:1042500010EE901A18EE900A8DED020B8DED008B8A
:1042600061F31E0003909DED020BB1E69DED0E0B78
:1042700053EC192B51EC100BFCF755F89FED260B66
:10428000CDE9080153EC102B9DED080B51EC100B00
:10429000FCF74FF89FED221B53EC112BFCF746F86F
:1042A0009DED081B53EC112BFCF743F89FED1E1BF3
:1042B00053EC112B3CE08CE0FFFF1F00FFFF0F00D1
:1042C000000000000000F03F0000F03F0000F07F21
:1042D0000000404301FCFFFF000000000000F07FF1
:1042E0000000000000000000661700000000000051
:1042F0000000000000000080000000000000F0FF4F
:10430000000000000000F0BF0000E0410000F043AA
:10431000FFFFEF3F00000000000000000000D03F62
:10432000555555555555D53F000000000000E03F5C
:10433000FBF7FCFF9DED080B41EC1A0B53EC102B27
:1043400051EC100BFBF7F5FF53EC1A2BFBF7F1FFC9
:1043500041EC1A0B9FEDFE0B53EC102B9DED080B5F
:1043600051EC100BFBF7E5FF41EC1B0B9FEDFA0B3B
:1043700051EC1A0B53EC102BFBF7DBFF41EC1A0B43
:104380009FEDF70B53EC102B9DED080B51EC100B30
:10439000FBF7CFFF53EC1A2BFBF7C5FF41EC1A0BD1
:1043A00051EC1B0B53EC1A2BFBF71CFF0690CDE9CD
:1043B00006519DED060B53EC1B2B51EC100BFBF73C
:1043C000B2FF53EC1A2BFBF7B1FF41EC100B00F0DE
:1043D000A1B90020B6F5801F0EDA9FEDE30B53EC78
:1043E000102B9DED0E0B51EC100BFBF7A2FFCDE94E
:1043F0000E016FF034000E4600EB2650A0F2FF379E
:10440000C6F31300DA4940F07F6646F04056884212
:10441000D8BF002408DDD7498142C8BF012403DC8E
:104420000024A6F580167F1CD348784400EBC40016
:104430000F9690ED00CB9DED0E0B53EC1C2B51EC29
:10444000100BFBF770FF9DED0E0B41EC1B0B53ECBB
:104450001C2B51EC100BFBF7C5FE41EC100B51EC83
:10446000190B53EC102BFCF7BAF841EC1D0B51EC77
:104470001B0B53EC1D2BFBF75CFF41EC1A0BBF48E9
:104480008DED10AB7844109590ED000B4FF000507F
:1044900040EA660000EB84408DED080B00F500203B
:1044A00009909DED080B53EC1C2B51EC100BFBF706
:1044B0003AFF9DED0E1B53EC112BFBF737FF41EC40
:1044C000100B53EC102B9DED100B51EC100BFBF768
:1044D00030FF9DED080B41EC1C0B53EC102B9DEDB8
:1044E000100B51EC100BFBF724FF53EC1B2BFBF7CD
:1044F0001DFF53EC1C2BFBF716FF53EC1D2BFBF79A
:1045000018FF41EC1C0B53EC1A2B51EC1A0BFBF768
:1045100010FF41EC1B0B9A480621B0EE4B0AF0EE5F
:104520006B0A784400F018FEB0EE401AF0EE601A04
:10453000B0EE41DAF0EE61DA53EC1B2B51EC1B0BC1
:10454000FBF7F7FE53EC1D2BFBF7F3FE9DED100B75
:1045500041EC1B0B53EC1A2B51EC100BFBF742FEFA
:1045600053EC1C2BFBF7E5FE53EC1B2BFBF73AFE41
:104570009DED100B41EC1B0B53EC102B51EC100B71
:10458000FBF7D7FE41EC1D0B9FED7FEB53EC1E2B91
:10459000FBF728FE53EC1B2BFBF724FE0890CDE91C
:1045A00008519DED080B53EC1E2B51EC100BFBF743
:1045B000BAFE53EC1D2BFBF7B6FE53EC1B2BFBF79F
:1045C000B5FE9DED080B41EC1D0B53EC102B9DED42
:1045D000100B51EC100BFBF7ACFE41EC1B0B53EC3A
:1045E0001A2B51EC1D0BFBF7A4FE9DED080B41ECC3
:1045F0001A0B53EC102B51EC1C0BFBF79AFE53ECEF
:104600001A2BFBF7EFFD41EC1A0B51EC1B0B53EC93
:104610001A2BFBF7E7FD0C90CDE90C519DED0C0B2F
:1046200053EC1B2B51EC100BFBF77DFE53EC1A2BBC
:10463000FBF77CFE41EC1B0B9FED550B53EC102B55
:104640009DED0C0B51EC100BFBF773FE41EC1A0BBC
:104650009FED510B51EC1B0B53EC102BFBF769FE3C
:1046600041EC1B0B9FED4E0B53EC102B9DED0C0BF7
:1046700051EC100BFBF75DFE53EC1B2BFBF7B2FD6F
:1046800041EC100B4848784400EBC40090ED001B4F
:1046900051EC100B53EC112BFBF7A4FD41EC1B0B61
:1046A0003846FCF722F8CDE9080153EC1B2B51ECFE
:1046B0001A0BFBF797FD41EC100B3C48784400EBDC
:1046C000C40090ED00CB51EC100B53EC1C2BFBF70E
:1046D00089FD9DED081B53EC112BFBF783FD069024
:1046E000CDE906519DED080B53EC102B9DED060B0B
:1046F00051EC100BFBF717FE53EC1C2BFBF713FED2
:1047000053EC1A2BFBF70FFE53EC1B2BFBF70EFEA3
:1047100041EC100B9DED261B53EC102B8DED001B77
:1047200000959DED260B51EC100BFBF702FE9DED65
:10473000000B41EC1A0B53EC102B9DED260B51ECAA
:10474000100BFBF7F0FD9DED061B53EC112B2FE03A
:10475000000000604715F73FFE822B654715F73FC5
:1047600044DF5DF80BAE543E000000000000404303
:104770008E9803007AB60B001A1200001013000086
:10478000521100000000000000000000000008407E
:10479000000000E009C7EE3FFD033ADC09C7EE3F29
:1047A000F5015B14E02F3EBEDE0F0000980F000005
:1047B000FBF7BFFD53EC1A2BFBF714FD9DED060B29
:1047C00041EC1A0B53EC102B9DED000B51EC100B30
:1047D000FBF7AFFDCDE90C019DED0C0B51EC1A0B75
:1047E00053EC102BFBF7FEFCCDE902010C46AA4965
:1047F0008C422FDB611A084318D19DED0C0B53EC52
:10480000102B9DED020B51EC100BFBF78CFD41ECD6
:104810001B0B9FEDA30B51EC1A0B53EC102BFBF76A
:10482000E1FC53EC1B2BFBF771FF2DD2022000F0B3
:1048300013FE00F0E1FD10EE901A18EE900A8DEDD7
:10484000020B8DED008B61F31E0003909DED020BBA
:10485000FFF7BEBB944A24F00041914214D3934920
:10486000214408437FF4EFAC9DED0C0B53EC102B6F
:104870009DED020B51EC100BFBF755FD53EC1A2B81
:10488000FBF744FF7FF6DFAC24F000408849894AFB
:10489000002601EB205182422BDA481C4FF4801194
:1048A00021FA00F02044844AC0F30A517A44A1F26C
:1048B000FF3192ED000B814A8DED080BCA4020EAD2
:1048C0000202C0F3130040F48010C1F1140120FA79
:1048D00001F60992002CB8BF76429DED080B53EC0F
:1048E000102B9DED0C0B51EC100BFBF71CFDCDE9D3
:1048F0000C019DED0C0B51EC1A0B53EC102BFBF73C
:1049000071FC9FED6F0B0890CDE9085153EC102B13
:104910009DED080B51EC100BFBF70BFD41EC1B0B55
:104920009FED690B53EC102B9DED080B51EC100B18
:10493000FBF7FFFC9DED0C0B41EC1C0B53EC102B1B
:104940009DED080B51EC100BFBF7EDFC53EC1A2B13
:10495000FBF7ECFC9FED5E1B53EC112BFBF7E9FC26
:1049600053EC1C2BFBF73EFC41EC1A0B51EC1B0BE0
:1049700053EC1A2BFBF736FCCDE902019DED020B3F
:1049800053EC1B2B51EC100BFBF7CDFC53EC1A2B0B
:10499000FBF7CCFC9DED020B41EC1A0B53EC102BFA
:1049A00051EC100BFBF7C5FCCDE908014A489DED21
:1049B000080B0521784400F0CFFB9DED081B51EC5E
:1049C000100B53EC112BFBF7B4FC9DED021B53ECC9
:1049D000112BFBF7ABFCCDE906019DED020B53EC6F
:1049E0001A2B51EC100BFBF7A4FC53EC1A2BFBF722
:1049F000F9FB9FED3B0B41EC1A0B53EC102B9DED9B
:104A0000060B51EC100BFBF78EFC9DED060B41ECF9
:104A10001B0B53EC102B9DED020B51EC100BFBF715
:104A200088FC53EC1B2BFBF7DAFD53EC1A2BFBF73E
:104A30007AFC9DED021B53EC112BFBF774FC53EC3D
:104A4000192BFBF773FCCDE9020101EB06500115B0
:104A50000029C8BF039015DC9DED020B324651ECD6
:104A6000100BFBF72BFEFEF737FF042808BF00F002
:104A7000D3FC32469DED020B51EC100BFBF71EFEF2
:104A8000CDE902019DED020B51EC180B53EC102BFC
:104A9000FBF74FFCFFF73ABB00009040000000001E
:104AA000FE822B654715973C00CC904000346F3F49
:104AB00001FCFFFF0000E03FE80E0000FFFF0F00D9
:104AC00000000000432EE63F396CA80C615C20BE5C
:104AD000EF39FAFE422EE63FF00C00000000000025
:104AE000000000000000004010B52F499FED2C1B76
:104AF0002DED020B84B0059820F000408842DCBF09
:104B000000209DED040B32DD2849884209D104982C
:104B100040B94FF0010000F09FFC00F05DFC06B0D2
:104B200010BD05DB9DED040B00F042FC06B010BD8E
:104B300068469DED040B00F03BF810F0030011D027
:104B4000012818D09DED021B9DED000B02281AD004
:104B500000F04AFA51EC100B81F0004106B041EC34
:104B6000100B10BD9DED021B9DED000B012000F010
:104B70006FFB06B010BD9DED021B9DED000B00F01C
:104B800033FA06B010BD012000F062FB51EC100BAF
:104B900081F0004106B041EC100B10BD0000000098
:104BA0000000000000000000FB21E93F0000F07F52
:104BB0002DE9F14F04462DED020B2DED088B8AB047
:104BC0009FEDE70B80ED020B139EE74826F00045B2
:104BD00085420ADC9DED120B002084ED000B0AB02B
:104BE000BDEC088B03B0BDE8F08FE0489FEDE0AB73
:104BF0009FEDE1BBA84247DDE14F9FEDE39B9FEDB9
:104C0000E48B9DED120B53EC1A2B51EC100B002E84
:104C10001CDDFBF788FB41EC100BBD4208D053ECC8
:104C20001B2B51EC100BFBF77EFBC4E900010BE0E2
:104C300053EC192B51EC100BFBF775FB53EC182BB5
:104C4000FBF771FBC4E900010120C8E7FBF7CAFAD2
:104C500041EC100BBD4208D053EC1B2B51EC100B58
:104C6000FBF7C0FAC4E900010BE053EC192B51EC3F
:104C7000100BFBF7B7FA53EC182BFBF7B3FAC4E9A8
:104C800000014FF0FF30AAE7C348A84279DB9DED51
:104C9000120B51EC100B00F039FC41EC180B9FED9E
:104CA000C00B53EC102BFBF744FB9FEDBF1B53ECE9
:104CB000112BFBF797FAFBF7C1FD0746FBF715FD34
:104CC00041EC190B53EC1A2BFBF733FB53EC182B6D
:104CD000FBF72CFB41EC180B53EC1B2B51EC190B85
:104CE000FBF727FBDFF8C8A241EC100B4FEA155881
:104CF0000125FA4453EC102B51EC180BFBF713FB76
:104D0000032DC4E900013DD0C1F30A5005EB451164
:104D1000A8EB00001139814234DA0AEB051BB0EE32
:104D200048AA9BED000BF0EE68AA53EC102B51EC57
:104D3000190BFBF7FEFA41EC1B0B51EC1A0B53EC71
:104D40001B2BFBF7F0FA41EC180B51EC1A0B53EC50
:104D5000182BFBF7E8FA53EC1B2BFBF7E4FA9BED5F
:104D6000020B41EC1A0B53EC102B51EC190BFBF717
:104D7000E0FA53EC1A2BFBF7D6FA41EC100B6D1C42
:104D8000B8E70EE0002EA8BF3846BFF628AF94ED76
:104D9000000B51EC100B81F00041C4E90001784296
:104DA0001DE7C6F3130040F4801EC6F30A50A0F2BC
:104DB000F530471100F01F05C5F12000DDF848B0BF
:104DC00008900020069007900520EC467949002DB8
:104DD00007EB0002794408BF51F8221009D051F8BE
:104DE000223001EB8201AB404A68089922FA01F1B6
:104DF0001943A1FB0E26A1FB0B131A449A4234BFA0
:104E00000123002303EB06080CEB8003D3E901A682
:104E10000E448E4234BF0121002192448A4411B1D4
:104E2000924502D903E0924501D2012100E0002120
:104E3000C3E901A641444CF82010011EA0F1010075
:104E4000C4DC029800F10050850F0298DDE9036789
:104E50008000DDF81480FBF748FC41EC1A0B30466B
:104E6000FBF7DFFC9FED541B53EC112BFBF761FAB2
:104E700041EC1B0B3846FBF7D4FC9FED511B53EC68
:104E8000112BFBF756FA41EC180B4046FBF7C9FC17
:104E90009FED4D1B53EC112BFBF74BFA41EC190B1B
:104EA00051EC180B53EC192BFBF79CF953EC1B2B13
:104EB000FBF798F953EC1A2BFBF794F9CDE90801AD
:104EC000002008909DED080B53EC1A2B51EC100BB1
:104ED000FBF729FA53EC1B2BFBF725FA53EC182BA5
:104EE000FBF721FA53EC192BFBF720FA9FED381B47
:104EF00053EC112BFBF71DFA9FED370B41EC180B10
:104F000053EC102B9DED080B51EC100BFBF711FA35
:104F100053EC182BFBF766F99FED310B41EC180BA6
:104F200053EC102B9DED080B51EC100BFBF701FA25
:104F300053EC182BFBF756F941EC100B139810F0BB
:104F4000004F06D06D4251EC100B81F0004141EC56
:104F5000100B284684ED000B41E600000000000025
:104F60000000000000000000FB21E93F7CD9024066
:104F700000004054FB21F93F3163621A61B4D03D17
:104F8000FB21F93F000000000000601A61B4D03D31
:104F90007370032E8A19A33BFB21394100000000E6
:104FA00083C8C96D305FE43F000000000000E03FAF
:104FB000AA0A0000F8090000000000000000103EEE
:104FC000000000000000103C000000000000103A4B
:104FD000182D4454FB21F93D3326A611460B113CF4
:104FE00000000054FB21F93D10B52DED040B2DED13
:104FF000088B82B0B0EE419AF0EE619A0B9820F0E7
:1050000000449FED4BABB4F1795F11DA9DED0A0BD3
:1050100051EC100BFBF712FC002801BFB0EE4A0A5E
:10502000F0EE6A0A02B0BDEC088B04BF04B010BDFC
:105030009DED0A0B53EC102B51EC100BFBF779F99B
:1050400041EC180B3C480621B0EE480AF0EE680A25
:10505000784400F081F853EC182B51EC100BFBF75F
:1050600068F99DED0A0B41EC1B0B53EC192B51EC2D
:10507000100BFBF75EF941EC190B53EC1B2B51ECB9
:10508000180BFBF756F953EC192BFBF74CF99FED76
:105090002C0B41EC190B53EC102B51EC180BFBF7BC
:1050A00048F941EC100B2848844210DA53EC192BD4
:1050B00051EC100BFBF737F953EC1A2BFBF736F9D1
:1050C00041EC100B02B0BDEC088B04B010BD1F48C2
:1050D000A042BCBF9FED1E1B8DED001B06DBA4F59F
:1050E00000100190002000909DED001B51EC100B72
:1050F00053EC112BFBF717F99DED000B41EC180B4E
:1051000053EC102B51EC1A0BFBF70DF941EC1A0B79
:1051100053EC192B51EC180BFBF705F953EC1A2B38
:10512000FBF704F941EC100BCCE700000000000095
:10513000000000000000F03F140700000000000025
:10514000000000000000E03F3333D33F0000E93FA0
:10515000000000000000D23F70B504462DED028B28
:105160004D1E00EBC500B0EE408AF0EE608A90ED77
:10517000000B35F0060017D053EC182B51EC100B38
:10518000FBF7D7F841EC100B6D1E04EBC50090ED5A
:10519000001B51EC100B53EC112BFBF723F841ECE7
:1051A000100B35F00600E7D1022D36D0042D1CD0AF
:1051B000062D1CBFBDEC028B70BD53EC182B51ECBF
:1051C000100BFBF7B6F894ED0A1B53EC112BFBF711
:1051D00009F853EC182BFBF7ACF894ED081B53ECD3
:1051E000112BFAF7FFFF41EC100B53EC182B51EC8D
:1051F000100BFBF79EF894ED061B53EC112BFAF7FE
:10520000F1FF53EC182BFBF794F894ED040B53ECDF
:10521000102BFAF7E7FF41EC100B53EC182B51EC75
:10522000100BFBF786F894ED021B53EC112BFAF7E9
:10523000D9FF53EC182BFBF77CF894ED001B53ECD3
:10524000112BFAF7CFFFBDEC028B41EC100B70BDB8
:1052500031B504462DED040B2DED0A8BB0EE41BAAD
:10526000F0EE61BA0B989DED0A0B20F00040B0F112
:10527000795F0DDA51EC100BFEF72EFB042808BF06
:1052800000F0CAF89DED0A0BBDEC0A8B05B030BDED
:1052900053EC102B51EC100BFBF74BF841EC180BB7
:1052A0009DED0A0B53EC182B51EC100BFBF741F85A
:1052B00041EC190B2C48B0EE480AF0EE680A0521C3
:1052C0007844FFF749FF9FED2ACBB0EE40AAF0EEFD
:1052D00060AA9CB353EC1C2B51EC190BFBF729F87B
:1052E00041EC1C0B53EC1A2B51EC190BFBF721F87A
:1052F0009FED210B41EC190B53EC102B51EC1B0BC8
:10530000FBF717F853EC192BFBF70DF853EC182BA0
:10531000FBF70FF853EC1B2BFBF705F853EC1C2B9A
:10532000FBF701F89DED0A1B53EC112BFAF7FEFF7A
:10533000BDEC0A8B05B041EC100B30BDFFE753EC20
:105340001A2B51EC180BFAF7F4FF53EC1C2BFAF75D
:1053500049FF53EC192BFAF7ECFF9DED0A1B53ECB8
:10536000112BFAF73FFFE3E7A4050000000000005F
:10537000495555555555C5BF000000000000E03F98
:105380009FED070B10B553EC102B9FED070B51EC65
:10539000100BFBF724F941EC100B10BD00000000CE
:1053A0000000000000000000000000000000F03FCE
:1053B00010B553EC102B51EC100BFAF713FF41EC26
:1053C000100B10BD10B553EC112B51EC100BFAF76C
:1053D00009FF41EC100B10BD9FED050B10B553EC10
:1053E000102B51EC100BFBF7FAF841EC100B10BD31
:1053F00000000000000000009FED050B10B553EC0D
:10540000102B51EC100BFAF794FF41EC100B10BD70
:1054100000000000000000709FED050B10B553EC7C
:10542000102B51EC100BFAF784FF41EC100B10BD60
:10543000000000000000001002E008C8121F08C1B0
:10544000002AFAD170477047002001E001C1121F05
:10545000002AFBD170470000014908607047000036
:105460004C0000202DE9F04116460F460446002569
:1054700003E03946B047641C6D1C20780028F8D141
:105480002846BDE8F081D0ED000AF4EEC00AF1EE46
:1054900010FA01DD80ED000AD0ED000AB1EE401AED
:1054A000F4EEC10AF1EE10FA03D2F1EE400AC0EDBB
:1054B000000A704710B541EC100BFEF725FA51ECCD
:1054C000100B10BD70B504460F4800684FF47A7198
:1054D000B0FBF1F52846FDF7FBFC002008E000BF1B
:1054E0004FF0E021096901F480310029F8D0401C17
:1054F000A042F4D34FF0E020006920F001004FF00B
:10550000E021086170BD00002400002082B0CDE9D8
:10551000000121F0004001909DED000B02B051EC24
:10552000100B704770B504460D46E1B2064800689E
:10553000FEF7C4F900BF802103480068FEF7F7F8C2
:105540000028F8D0204670BD1C00002010B54FF494
:105550007A70FFF7B7FFFCF743FC10BD4FF4A06073
:10556000FDF748FAFCF7DAFDFBF78AF94FF4E13072
:10557000FDF7B8FFFCF726FC4FF4FA60FFF7A2FF37
:10558000FBF73AFDFBF7CAFE42F20F715920FDF717
:10559000FFFC05A0FEF798F90BA0FEF795F901E0D6
:1055A000FFF7D4FFFCE700004A756467656D656E20
:1055B000742073797374656D2055534152543220B1
:1055C000626567696E000000414C4C204265676966
:1055D0006E00000000B52DED048B83B041EC190B7B
:1055E000FBF7CEF841EC180B18EE100A18EE901AE3
:1055F0008DED008B002818BF0120084320F00040EB
:10560000C0F17F6000F1E040C00F14D019EE101A15
:1056100019EE900A8DED009B002918BF0121084367
:1056200020F00040C0F17F6000F1E040C00F04BFF7
:105630000120FFF711FF51EC180B03B0BDEC048BF8
:1056400000BD000000000000000000000000F03F6E
:10565000000000000000F83F000000000000000013
:105660000000004003B8E23F00000000000000001E
:1056700006D0CF43EBFD4C3E033333333333E33FAC
:10568000FFAB6FDBB66DDB3F4D268F515555D53FD8
:1056900001411DA96074D13F65DBC9934A86CD3FA6
:1056A000EF4E454A287ECA3F3E5555555555C53F94
:1056B00093BDBE166CC166BF2CDE25AF6A56113F86
:1056C000F16BD2C541BDBBBED0A4BE726937663E88
:1056D0004FBB610567ACDD3F182D4454FB21E93F0A
:1056E0009BF681D20B73EF3F182D4454FB21F93FF9
:1056F000E2652F227F2B7A3C075C143326A6813C7F
:10570000BDCBF07A8807703C075C143326A6913C29
:10571000C4EB98999999C9BF711623FEC671BCBF95
:105720006D9A74AFF2B0B3BF9AFDDE522DDEADBFFD
:105730002F6C6A2C44B4A2BF0D5555555555D53F15
:10574000FF8300922449C23F6E204CC5CD45B73F30
:10575000513DD0A0660DB13FEB0D76244B7BA93FA8
:1057600011DA22E33AAD903F4C5555555555A53FBA
:105770007751C1166CC156BF9015CB19A001FA3EE6
:10578000AD529C804F7E92BEC4B1B4BD9EEE213E10
:10579000D43888BEE9FAA8BD00000000000000006F
:1057A00000004054FB21F93F3163621A61B4D03DDF
:1057B0000000601A61B4D03D7370032E8A19A33BB8
:1057C0000000002E8A19A33BC14920259A837B390A
:1057D00000000000000000006E83F9A22915444E6D
:1057E000D15727FCC0DD34F5999562DB4190433CED
:1057F000AB6351FE61C5BBDE3A6E24B7E0D24D42C9
:10580000EA2E49061C92D1091CEB1DFE3EA729B1C8
:10581000F53582E88444BB2E26709CE9417E5FB456
:1058200039D69139F43953838B5F849C3B28F9BD79
:10583000FF97F81F0F9805DE8B112FEF1F6D0A5A87
:10584000CF7E366DB709CB27663F464F2DEA5F9E68
:10585000C7BA27757BF1E5EBF739073DEA92528A23
:10586000B15FFB6B085D8D1FA6F810111111813F10
:10587000D561C119A0012ABF7DFEB157E31DC73E06
:10588000EB9C2B8AE6E55ABE7CD5CF5A3AD9E53D4A
:10589000B0580008000000205000000038540008F4
:1058A000005900085000002030080000485400084B
:1058B00000000000000000000000000000000000E8
:1058C0000000000000000000000000000044004054
:1058D000000000000095BA0A00000000000000006F
:1058E0000102030406070809000000000102030486
:1058F0000102030406070809000000000000000080
:04000005080001AD41
:00000001FF
