:020000040800F2
:1000000088090020C1010008ED2D00081125000815
:10001000E92D0008E1080008A944000800000000DC
:10002000000000000000000000000000493200084D
:100030006720000800000000A52E00084D360008CB
:10004000DB010008DB010008DB010008DB01000820
:10005000DB010008DB010008DB010008DB01000810
:10006000DB010008DB010008DB010008DB01000800
:10007000DB010008DB010008DB010008DB010008F0
:10008000DB010008DB010008DB010008DB010008E0
:10009000CD090008DB010008DB010008DB010008D6
:1000A000DB010008DB010008DB010008DB010008C0
:1000B000DB010008DB010008DB010008DB010008B0
:1000C000DB010008DB010008DB010008DB010008A0
:1000D000DB010008493F0008C540000859410008FD
:1000E000DB010008DB010008DB010008DB01000880
:1000F000DB010008DB010008DB010008DB01000870
:10010000DB010008DB010008DB010008DB0100085F
:10011000DB010008DB010008D1370008993C00082A
:10012000DB010008DB010008DB010008DB0100083F
:10013000DB010008DB010008DB010008DB0100082F
:10014000DB010008DB010008DB010008DB0100081F
:10015000DB010008DB010008DB010008DB0100080F
:10016000DB010008DB010008DB010008DB010008FF
:10017000DB010008DB010008DB010008DB010008EF
:10018000DB010008DB010008DB010008DB010008DF
:10019000DB010008DB010008DB010008DB010008CF
:1001A0000000000000000000DB010008DFF80CD0B8
:1001B00000F0C4FA004800471562000888090020D2
:1001C0000648804706480047FEE7FEE7FEE7FEE7F1
:1001D000FEE7FEE7FEE7FEE7FEE7FEE75136000832
:1001E000AD0100082DE9FE4F804681EA0300C00FF3
:1001F0000C46009021F0004123F00045B8EB0200CE
:10020000A94105D24046214690461C460B4602466F
:1002100023F00040104347D0270DC7F30A00C3F373
:100220000A510290401A019040286BDAC3F3130080
:1002300040F4801B0098924620B10023D2EB030AC1
:1002400063EB0B0B01985946C0F14002504600F099
:1002500011F906460D4650465946019A00F019F923
:1002600010EB08006141002487EA115284EAE77329
:100270001A4340D0009A62B3019A012A4FEA07520A
:1002800015DC001B61EB02014FF0004202EA07524D
:10029000CDE90042001C41F5801132462B4600F0AA
:1002A00050F903B0BDE8F08F40462146F9E7001B46
:1002B00061EB0201001C41F5801300185B4120181E
:1002C000A2F5001747EB030140EAD570B6196D415E
:1002D00011E06D084FEA360645EAC0754FEA07524D
:1002E000001B61EB0201001C41F5801149084FEA37
:1002F00030000019514132462B4603B0BDE8F04FA3
:1003000000F010B90098012240000023D0EB020257
:1003100063EBE073009821464FEAE074B8EB00000D
:1003200061EB0401E9E783F000435BE781F0004102
:1003300058E72DE9FE4F81EA030404F0004421F060
:10034000004100944FF0000B23F0004350EA0104F9
:100350005ED052EA03045BD0C3F30A54C1F30A55DA
:100360002C44A4F2F3340194A0FB0254C1F3130112
:1003700041F48011C3F3130343F4801301FB0244DF
:1003800000FB034E840A970A44EA815447EA8357E4
:10039000A4FB076802958D0A05FB07854FEA932C9D
:1003A00004FB0C542705029D4FEA065847EA16370E
:1003B000B5EB08056EEB070C870E920E47EA811726
:1003C00042EA8312A7FB0201B6EB0B0164EB0004C7
:1003D0002B0D43EA0C335E1844EB1C50DA465146B1
:1003E000E7FB0201C5F313044FEA0B3343EA14534E
:1003F0004FEA0432019C43EA0603A4F10C04029480
:10040000009CCDE900B400F09CF803B0BDE8F08F8B
:1004100000200146F9E700F0004230F000400AD029
:10042000C10D01F56071C0F3160042EA0151C20826
:1004300040071143704700200146704701F0004318
:1004400030B421F0004150EA010206D00A0DA2F5B5
:100450006072C1F31301002A02DC30BC0020704737
:10046000440F44EAC104C100E01830BC00EBC250A4
:1004700000F021B8202A04DB203A00FA02F1002023
:1004800070479140C2F1200320FA03F319439040D2
:100490007047202A06DBCB17203A41FA02F043EAE4
:1004A000E07306E041FA02F3D040C2F1200291402D
:1004B0000843194670470029A8BF7047401C4900EF
:1004C00008BF20F00100704710B4B0FA80FC00FAB9
:1004D0000CF050EA010404BF10BC704749B1CCF1E4
:1004E000200421FA04F411FA0CF118BF0121214370
:1004F0000843A3EB0C01CB1D4FEA00614FEA10202B
:1005000042BF002010BC704700EBC35010440029CC
:10051000A4BF10BC7047401C490008BF20F0010078
:1005200010BC704710B5141E73F1000408DA401CAB
:1005300041F1000192185B411A4301D120F0010002
:1005400010BD2DE9F04D92469B4611B1B1FA81F2F2
:1005500002E0B0FA80F220329046FFF78BFF0446AB
:100560000F4640EA0A0041EA0B0153465A46084347
:1005700013D0114653EA010019D0C8F14002504689
:1005800000F0EEF805460E46504659464246FFF743
:1005900071FF084305D0012004E020463946BDE83C
:1005A000F08D0020054346EAE0762C4337430A9855
:1005B0006305E40AA0EB08000022FD0A44EA475460
:1005C0000A3002D500200146E9E70105101969410A
:1005D000DDE9084500196941BDE8F04DA2E72DE9C4
:1005E000F04D81EA030404F0004B21F0004514466D
:1005F0004FF0000A23F0004150EA050220D054EAEF
:1006000001021DD0C5F30A570246C5F31303C1F317
:100610001300C1F30A5640F4801543F48013A7EB8E
:100620000608101BD64608F2FD3873EB050002D30E
:1006300008F1010801E092185B41B8F1000F03DAFC
:1006400000200146BDE8F08D00204FF480110646E1
:1006500084460EE0171B73EB050705D3121B63EBF3
:10066000050306434CEA010C49084FEA3000921892
:100670005B4150EA0107EDD152EA030012D082EA51
:10068000040083EA0501084305D0101BAB4106D2E4
:100690000122002306E000224FF0004302E06FF049
:1006A000010253101AEB06004CEB085110EB0A0044
:1006B00041EB0B01BDE8F04DFFF734BF70B521F001
:1006C000004303430CD0C1F30A550024D5EB0405C5
:1006D00064EB0403D617AD1AB34102DB00200146D8
:1006E00070BD201841EB025170BD0EB5C10F80EAFC
:1006F000E0700844CA07002140F233438DE80E0041
:100700000A460B46FFF71DFF03B000BD30B5041EBF
:1007100071F1000404DB4FF00044404264EB01013E
:10072000141E73F1000405DB1C464FF000435242D7
:1007300063EB0403994208BF904230BD064C074D5D
:1007400006E0E06840F0010394E8070098471034A1
:10075000AC42F6D3FFF72EFD90650008B0650008A7
:10076000202A04DB203A21FA02F00021704721FA06
:1007700002F3D040C2F1200291400843194670476D
:100780002DE9F04D00231A461B1A8A4103DB002095
:100790000146BDE8F08DC1F30A52C1F3130141F4E3
:1007A00080154FF0000BD10702D100186D41521E89
:1007B0000027044640F2FF11384601EB620A3E462C
:1007C0008046024600204FF48011FFF7C9FFC2198E
:1007D0007141BB1846EB0100B4EB030C75EB000C48
:1007E00004D3E41A65EB000517460E46241908F1F8
:1007F00001006D4180463428E3DDF91946EB06001F
:10080000091BA84103D24FF0FF32134601E000223A
:1008100013461BEB070046EB0A51BDE8F04DFFF70E
:1008200081BE0EB540F2334102910021CDE90011A5
:100830000A460B46FFF785FE03B000BD70B5C1F355
:100840000A5201F000450024C1F3130140F2FF33C6
:1008500041F480119A4201DA002070BD40F2334326
:100860009A42A2F2334203DC5242FFF779FF00E0E2
:1008700090402C43F1D0404270BD000010B501F013
:1008800031FF01F0EBFE4FF4E13003F01DFC01F00D
:1008900011FD00F027F801F0C7FB42F20F7159205B
:1008A00003F0D2F94FF4FA6005F000FC00F0DCFB35
:1008B00000F00EFE42F20F71592002F061FF05A018
:1008C00003F0F4FD4FF4FA6005F0F0FB01F0B4F929
:1008D00010BD0000414C4C20426567696E0A000063
:1008E00000BFFEE700B589B00121082002F076FBC9
:1008F0000121480602F082FB02208DF820008DF8CD
:10090000210000208DF823008DF82200022007909E
:1009100007A92C4801F03DFC0120079007A92948B0
:1009200001F037FC09220121264801F07AFC092256
:100930000021244801F075FC00208DF816000120EC
:100940008DF817008DF8180000208DF819008DF82B
:100950001A008DF81B008DF812008DF8130002208C
:100960008DF8140004208DF815000520ADF8100056
:1009700004A9154800F0C1F900208DF80A008DF88F
:100980000B0001208DF80C000020ADF808000120BC
:100990008DF80D000020ADF80000ADF80200ADF8B4
:1009A0000400ADF80600684600F08AF801221146FE
:1009B000142002F01CFA01220221034800F094F9ED
:1009C00009B000BD000C02400064004000B587B0D3
:1009D0000221104800F0F8F8D0B102AA00210D4819
:1009E00000F015FA0698009002A80FC801F068FF01
:1009F0000698009002A80FC801F0DCFF069800904E
:100A000002A80FC801F0B8FE0221024800F004F865
:100A100007B000BD00640040B1F5007F3AD00FDCA4
:100A2000202928D006DC01291CD004291DD0082942
:100A300040D11DE0402921D0B1F5807F3AD126E098
:100A4000B1F5004F31D006DCB1F5806F25D0B1F59E
:100A5000006F2FD124E0B1F5803F12D0B1F5003FF7
:100A600028D111E0154A826025E00822C26022E008
:100A70001022C2601FE0082202611CE01022026105
:100A800019E00822426016E01022426013E00422BE
:100A9000426010E0042242600DE0042242600AE05D
:100AA000002282610422426005E000228261042269
:100AB000426000E000BF00BF70470000010101007C
:100AC00010B50021837A012202FA03F13D4A12682F
:100AD00042F001023B4B1A603A4A1C3212688A43C8
:100AE000384B1C331A60027BCAB9364A0C32126882
:100AF0008A43344B0C331A604288C38842EA03436A
:100B0000304A4032847A42F834300288838842EA9C
:100B100003432C4A4032847A02EBC4025360027BC6
:100B2000012A19D1274A0C3212680A43254B0C338B
:100B30001A604288038842EA0343224A4032847A98
:100B400042F83430C288838842EA03431D4A403267
:100B5000847A02EBC4025360C27A3AB9194A121D70
:100B600012688A43174B1B1D1A6006E0154A121DB6
:100B700012680A43134B1B1D1A60028932B9114ACD
:100B8000143212688A430F4B14331A600289012A07
:100B900006D10C4A143212680A430A4B14331A6005
:100BA000427B012A06D1074A1C3212680A43054BD0
:100BB0001C331A60034A126822F00102014B1A60CA
:100BC00010BD00000066004070B504460D460026CA
:100BD00060692840002871D0B5F5807F5CD010DCBA
:100BE000082D35D006DC012D20D0022D24D0042D77
:100BF00072D127E0102D31D0202D35D0402D6BD172
:100C000038E0B5F5004F60D009DCB5F5007F49D07C
:100C1000B5F5806F4CD0B5F5006F5DD14FE0B5F5FF
:100C2000803F2DD0B5F5003F56D12FE0A0682D496B
:100C300000F044FC064651E0E068032100F03EFC71
:100C400006464BE0E068082100F038FC064645E027
:100C5000E068102100F032FC06463FE020690321E5
:100C600000F02CFC064639E02069082100F026FC43
:100C7000064633E02069102100F020FC06462DE0F6
:100C80006068082100F01AFC064627E06068102121
:100C900000F014FC064621E0A069012100F00EFCE2
:100CA00006461BE0A069022100F008FC064615E09C
:100CB000A069042100F002FC06460FE00FE0A069E5
:100CC000702100F0FBFB064608E06068042100F09C
:100CD000F5FB064602E0FFE7002600BF00E0002625
:100CE000304670BD010101001AB143690B434361F5
:100CF00002E043698B434361704730B502460020F0
:100D00000023146824F002041460146844F0010401
:100D1000146000E05B1C546804F001041CB94FF639
:100D2000FF74A342F6D1546804F001040CB900200A
:100D30006CE08C79012C04D1146844F080041460B8
:100D400003E0146824F080041460CC79012C04D1F1
:100D5000146844F04004146003E0146824F0400474
:100D600014600C7A012C04D1146844F0200414603F
:100D700003E0146824F0200414604C7A012C04D1A0
:100D8000146844F01004146003E0146824F01004A4
:100D900014608C7A012C04D1146844F008041460A7
:100DA00003E0146824F008041460CC7A012C04D108
:100DB000146844F00404146003E0146824F004048C
:100DC00014608C78A407CD7844EA05640D7944EA70
:100DD00005444D7944EA05540D886D1E2C43D461B9
:100DE000146824F001041460002300E05B1C5468C4
:100DF00004F001041CB14FF6FF74A342F6D154680D
:100E000004F001040CB1002000E0012030BD10B559
:100E100000F5D87303EB01131B6803F0040313728E
:100E2000137A53B900F5D87303EB01131B6840F232
:100E3000FF7404EA5353136009E000F5D87303EB21
:100E400001131B686FF0604404EAD303536000F59C
:100E5000D87303EB01131B6803F00203537200F510
:100E6000D87303EB01135B6803F00F03937200F573
:100E7000D87303EB01135B681B0AD37400F5D873B6
:100E800003EB01139B68D37200F5D87303EB0113D6
:100E90009B681C0A147300F5D87303EB01139B685D
:100EA0001C0C547300F5D87303EB01139B681B0EE5
:100EB000937300F5D87303EB0113DB68D37300F56C
:100EC000D87303EB0113DB681C0A147400F5D873A4
:100ED00003EB0113DB681C0C547400F5D87303EBAF
:100EE0000113DB681B0E937421B9C36843F0200320
:100EF000C36003E0036943F02003036110BDF0B554
:100F000085B007460C4615461E460CB9009500E014
:100F100001958DF8084000208DF8090008208DF813
:100F20000A00002005E0325C0DF10B010A54411C5F
:100F3000C8B20828F7DB6946384600F002F805B069
:100F4000F0BD10B502460020936803F08063B3F152
:100F5000806F00D110E0936803F00063B3F1006F7D
:100F600001D1012008E0936803F08053B3F1805F62
:100F700001D1022000E00420042874D002F5C073DF
:100F800003EB00131B6803F0010402F5C07303EBCD
:100F900000131C600B7A7BB94B7A0C8843EA4453EC
:100FA00002F5C07404EB00142468234302F5C074F6
:100FB00004EB0014236010E00B7A4C6843EAC4038E
:100FC0004C7A234302F5C07404EB001424682343D5
:100FD00002F5C07404EB001423608B7A03F00F0356
:100FE0008B7202F5C07303EB00135B6823F00F04F0
:100FF00002F5C07303EB00135C6002F5C07303EBF2
:1010000000135B688C7A234302F5C07404EB001470
:1010100063608B7B1C064B7B44EA03440B7B44EAF6
:101020000323CC7A234302F5C07404EB0014A360BD
:101030008B7C1C064B7C44EA03440B7C44EA032370
:10104000CC7B234302F5C07404EB0014E36002F58B
:10105000C07303EB00131B6843F0010402F5C07377
:1010600003EB00131C6010BD10B59FED1E0A1E4857
:1010700080ED030A9FED1D0A80ED070A01201A4941
:1010800081F85C009FED1A0A084680ED160A0020E0
:1010900081F85400002413E004EB0411154A02EB1C
:1010A000810101F1100041F288324FF47A519FED35
:1010B000121ADFED110A9FED110A01F02BFA641CE0
:1010C000042CE9DB4FF4FA7241F29411B2EE0B1AE0
:1010D000DFED090A9FED0A0A0348283001F0E4FE1B
:1010E00010BD00000AD7233DE400002000608645C3
:1010F00000C0734558020020000000003333334025
:1011000066664640F0EE400AF7EE001AB0EE610A5D
:10111000DFED441AB0EE611A00213CE001EB011250
:1011200000EB8202B2F90C20002A06DD01EB01126D
:1011300000EB8202B2F90C2006E001EB011200EB99
:101140008202B2F90C20524201EE902AF8EEE11A26
:10115000F4EEC11AF1EE10FA1BDD01EB011200EB07
:101160008202B2F90C20002A06DD01EB011200EB2D
:101170008202B2F90C2006E001EB011200EB8202C0
:10118000B2F90C20524201EE902AF8EEE11AB0EECC
:10119000611A4A1CD1B20429C0DBB4EEE01AF1EEA8
:1011A00010FA03DDC0EE811AB0EE610AB0F90C103E
:1011B00001EE901AF8EEE11A61EE801AFDEEE11AE6
:1011C00011EE901A09B28181B0F9501001EE901A17
:1011D000F8EEE11A61EE801AFDEEE11A11EE901AB6
:1011E0000AB250210A52B0F9941001EE901AF8EEAA
:1011F000E11A61EE801AFDEEE11A11EE901A0AB2C0
:1012000094210A52B0F9D81001EE901AF8EEE11AC2
:1012100061EE801AFDEEE11A11EE901A0AB2D821A1
:101220000A5270470000000031B52DED040B2DED82
:10123000028B82B00546022D0AD100231A461946B8
:10124000184601F08DFB02B0BDEC028B05B030BD3D
:101250009048807D28B19DED060A8DED050A8DED43
:10126000040A8D48D0ED030AB0EE600A00F11001C7
:1012700004A800F081FF8848D0ED030AB0EE600AB0
:1012800000F1140105A800F077FF8348D0ED030AB0
:10129000B0EE600A00F1180106A800F06DFF9FEDA6
:1012A0007F8A7F4890F89C0000287CD17A4890F88B
:1012B000540001287DD19FED790A774880ED080A16
:1012C000774890ED000AB8EEC00ADFED760A30EEFE
:1012D000600AB5EEC00AF1EE10FA08DD90ED000AE2
:1012E000B8EEC00ADFED6F0A30EE600A0AE06C4823
:1012F00090ED000AB8EEC00ADFED6A0A30EE600A2F
:10130000B1EE400ADFED680AB4EEE00AF1EE10FA41
:1013100024DC9DED050AB5EEC00AF1EE10FA02DDFF
:101320009DED050A03E09DED050AB1EE400ADDEDF5
:10133000040AF5EEC00AF1EE10FA02DDDDED040A52
:1013400003E0DDED040AF1EE600A30EE200AF3EE70
:10135000040AB4EEE00AF1EE10FA17DD4E4890F8F8
:10136000550098B94E4890ED000AB8EEC00AF0EE6C
:10137000400A9FED4C0A4848283001F0B9FD00EEC4
:10138000100AB8EEC00A444880ED080A9FED470AEB
:1013900041492431081F00F0EFFE3F4890ED060A56
:1013A000D0ED090A00E004E030EE200AB0EE408AF9
:1013B00004E0394890ED060AB0EE408A364890EDD8
:1013C000051AF0EE410A90ED041AB0EE410A6846A3
:1013D000B0EE481A01F014FC00243FE004EB0410C6
:1013E000334901EB800090F83C00012835D13DF8ED
:1013F000140004EB04112E4A02EB8101088104EB76
:10140000041102EB8101B1F9021001EE101AB8EEDD
:10141000C11AF0EE410A04EB041102EB8101B1F9AB
:10142000081001EE101AB8EEC11AB0EE410A04EB32
:10143000041102EB810101F1100001F08FF800B2FC
:1014400004EB04111A4A02EB81018881002004EBAD
:10145000041102EB810181F83C00641C042CBDDB0B
:101460000D4890F85C0020B19FED120A1048FFF77C
:1014700049FE1148006850B90D4CB4F9D830B4F9A0
:101480009420B4F95010B4F90C0001F069FA00BFCF
:10149000D9E600007C030020E400002000000000EA
:1014A000F403002000C0734500802A44CDCCCC3D1D
:1014B0005802002000803B453400002002460020F6
:1014C00002EA01030BB1012000E000207047000098
:1014D00010B59FED4E0A4E4880ED040A00214D489C
:1014E000A0F8B01000204C4908844A4890ED000A4A
:1014F000B8EEC00A464880ED050A80ED020A45486C
:1015000090ED280AB8EEC00A414880ED050A80ED4A
:10151000030A00203E4981F8EC0001F027FF002279
:101520004FF47A61BAEE081ADFED3C0ABAEE000A0F
:101530003848E03001F0B8FC00224FF4FA719FED1A
:10154000371ADFED360AB7EE080A354801F0ACFC71
:1015500000224FF47A619FED311ADFED300ABAEEC6
:10156000040A2C48403001F09FFC00224FF4FA712D
:10157000B7EE001ADFED290AB0EE000A25486C30FC
:1015800001F092FC244890ED070A214880ED090AF9
:1015900080ED070A204890ED050A1D4880ED0A0AF3
:1015A00080ED080A00224FF4FA719FED1C1ADFED5E
:1015B0001B0ABFEE080A3C3001F076FC00224FF413
:1015C0007A619FED181ADFED150A9FED170A104892
:1015D000683001F069FC00224FF4FA719FED0F1A98
:1015E000DFED0E0AB8EE000A0948943001F05CFC09
:1015F00000224FF47A619FED0D1ADFED080A9FED8E
:10160000090A0348C03001F04FFC10BDCDCCCC3DE1
:1016100044010020F40300205405002000000000D5
:1016200000050020000070C20000A0C2000020C21F
:1016300010B52DED048BB0EE408AF0EE608A0446C2
:10164000814890ED051AF0EE410A90ED071AB0EED0
:10165000410A00F0CBFA022C03D07B4890F8260018
:10166000C8B17A4890ED281AB8EEC11AF0EE410AD6
:1016700090ED001AB8EEC11AB0EE410A00F080FAFF
:1016800000231A461946184600F086FA04F08EFD2B
:10169000BDEC048B10BD6E48807D38B19FED6D0AA6
:1016A000F0EE408AB0EE408A04F080FD6A4890ED8A
:1016B000020A30EE480A80ED020A90ED030A30EE8D
:1016C000680A80ED030A90ED020ADFED640AB4EEC9
:1016D000E00AF1EE10FA03DD9FED600A80ED020AE8
:1016E0005D4890ED020ADFED5E0AB4EEE00AF1EE2D
:1016F00010FA03D29FED5A0A80ED020A564890ED87
:10170000030ADFED580AB4EEE00AF1EE10FA03DD49
:101710009FED540A80ED030A4F4890ED030ADFED78
:10172000520AB4EEE00AF1EE10FA03D29FED4E0A2F
:1017300080ED030A4848D0ED040AB0EE600A00F1DB
:101740001401083000F018FD4348D0ED040AB0EE53
:10175000600A00F118010C3000F00EFD3E4890EDDB
:10176000050ABDEEC00A10EE101A002001F0BEF905
:10177000394890ED060ABDEEC00A10EE101A01209D
:1017800001F0B4F901F036FE304890F89C0018BB27
:101790002E4890ED001AB8EEC11AF0EE410A90ED15
:1017A000021AB8EEC11AB0EE410A6C3001F0A0FB8B
:1017B00009EE100A244890ED020AF0EE400AB8EE55
:1017C000C90A2248403001F093FB00B21F498881CA
:1017D000002081F8980000BF1C4890F83C0128BB0D
:1017E0001A4890ED281AB8EEC11AF0EE410A90EDB1
:1017F0002A1AB8EEC11AB0EE410A00F5867001F05F
:1018000077FB09EE100A104890ED010AF0EE400A4D
:10181000B8EEC90A0D48E03001F06AFB01B20B488E
:10182000A0F8AC10002180F8381100BF0F4BB3F9BD
:101830008C20064BB3F9AC10B3F90C00002300F078
:10184000ABF900BF24E7000054050020F40300209A
:101850007C030020000000004401002000F0B94596
:101860000040E74400C08F45007038453C00002030
:1018700010B52DED048BB0EE408AF0EE608A044680
:10188000B14890ED000AB8EEC00AB04880ED020AF7
:1018900080ED050A022C03D0AD4890F82600F8B17F
:1018A000AB4890ED051AF0EE410A90ED071AB0EE44
:1018B000410A00F09BF9A44890ED280AB8EEC00A4E
:1018C000A24880ED030A80ED060A00231A46194655
:1018D000184600F061F904F069FCBDEC048B10BD02
:1018E0009C48807D38B19FED9C0AF0EE408AB0EEB6
:1018F000408A04F05BFCF3EE0E0A88EE200A93485F
:10190000D0ED070A30EE200A80ED070A90ED030AB9
:1019100030EE680A80ED030A00F0E6FD8C48D0ED59
:10192000070A30EE200A894880ED0B0A00F0DCFD42
:10193000DFED8A0A30EEC00A8548D0ED070A30EEA6
:10194000C00A824880ED0C0A00F0ACFD8048D0ED62
:10195000050A30EE200A7D4880ED0D0A00F0A2FD58
:10196000DFED7F0A30EEC00A7948D0ED050A30EE8F
:10197000C00A764880ED0E0A7A48006818BB7448A1
:1019800090ED070A7148D0ED0B0AB4EEE00AF1EED3
:1019900010FA19DDB5EEC08AF1EE10FA0ED2F2EEB1
:1019A000000A88EE200AF3EE0E0A80EE201A90ED6F
:1019B000070A31EE000A80ED070A29E0634890ED3E
:1019C0000B0A80ED070A23E0614890ED070A5F48A3
:1019D000D0ED0C0AB4EEE00AF1EE10FA18D2B5EE32
:1019E000C08AF1EE10FA0EDDF2EE000A88EE200A4F
:1019F000F3EE0E0A80EE201A90ED070A31EE000A8F
:101A000080ED070A04E0514890ED0C0A80ED070ACA
:101A10004E4890ED030ADFED540AB4EEE00AF1EE11
:101A200010FA03DD9FED500A80ED030A474890ED60
:101A3000030ADFED4E0AB4EEE00AF1EE10FA03D22B
:101A40009FED4A0A80ED030A9FED490A3F49243180
:101A5000A1F1080000F090FB9FED460A3B491831C8
:101A6000A1F10C0000F088FB384890ED060ABDEEAD
:101A7000C00A10EE101A012001F038F801F0BAFC8B
:101A8000314890F89C0020BB314890ED071AF0EEE9
:101A9000410A2E4890ED091AB0EE410A3C3001F09F
:101AA00027FA00EE100AB8EEC00AB0EE409A2848B5
:101AB00090ED020AF0EE400AB0EE490A2348683081
:101AC00001F016FA00B220498881002081F89800C0
:101AD00000BF1D4890F83C0128BB1B4890ED281A18
:101AE000B8EEC11AF0EE410A90ED2A1AB8EEC11A0A
:101AF000B0EE410A00F5867001F0FAF909EE100A1D
:101B0000134890ED010AF0EE400AB8EEC90A0E48FB
:101B1000E03001F0EDF901B20B48A0F8AC10002163
:101B200080F8381100BF1448006850B9134BB3F95E
:101B30001420054BB3F9AC10B3F90C00002300F0EE
:101B40002BF800BFC9E60000F40300204401002088
:101B5000540500207C03002000000000443834437A
:101B60008FF790422400002000C08F450070384558
:101B7000CDCCCC3ECDCCCC3D380000203C0000206C
:101B8000044880ED020A80ED050AC0ED030AC0EDAD
:101B9000060A7047440100202DE9FC4107460C4627
:101BA00015461E46380A8DF80000F8B28DF801007F
:101BB000200A8DF80200E0B28DF80300280A8DF8A3
:101BC0000400E8B28DF80500300A8DF80600F0B286
:101BD0008DF807006B4640F2FF1200210248FFF724
:101BE0008EF9BDE8FC81000000640040044880EDEF
:101BF000070A80ED090AC0ED080AC0ED0A0A70471D
:101C00004401002010B50121202004F073FA20B90E
:101C10000121102004F06EFA10B1012004498870EF
:101C20000448008810B900200149887010BD0000E8
:101C300000000020D00300200020014908707047F8
:101C400000000020014800787047000000000020DC
:101C500001488078704700000000002021B1026830
:101C600042F00102026003E0026822F00102026019
:101C700070470000016821F001010160002101604E
:101C800041608160C1600161212141614A4988420E
:101C900004D13D21484A103A91608CE04649183100
:101CA000884205D14FF47461434A103A916082E052
:101CB00041493031884205D14FF474113E4A103AFF
:101CC000916078E03C494831884205D14FF0746119
:101CD000394A103A91606EE037496031884204D148
:101CE0003649354A103AD16065E033497831884247
:101CF00004D13349304A103AD1605CE02E4990312A
:101D0000884204D12F492C4A103AD16053E02A4925
:101D1000A831884205D14FF03D51274A103AD16091
:101D200049E02949884204D13D21274A083A1160F7
:101D300041E025491831884205D14FF47461224AA7
:101D4000083A116037E020493031884205D14FF41C
:101D500074111D4A083A11602DE01B494831884230
:101D600005D14FF07461184A083A116023E0164912
:101D70006031884204D11149134A121F11601AE0E0
:101D800011497831884204D10D490F4A121F116060
:101D900011E00D499031884204D10A490A4A121FC4
:101DA000116008E00849A831884204D14FF03D5144
:101DB000054A121F11607047106002403D0000206C
:101DC000400F002000003D2010640240014600202A
:101DD0000A6802F001020AB1012000E00020704709
:101DE0000146486880B2704710B500220268134B64
:101DF0001A40CC680B6823434C6923438C69234306
:101E0000CC6923430C6A23434C6A23438C6A2343E3
:101E10004C6B23438C6B23431A430260426922F0CC
:101E20000702D1E90B3423431A4342610B69436033
:101E30004B6883608B68C36010BD00003F801CF05E
:101E40004160704700228A80CA8008804A880B88D7
:101E50009A4209D00A8812B10A888A8004E04A8826
:101E6000CA8000220A814A810A885AB14A89521CD2
:101E70004A814B895A1C4A81322B03DD0A880A8128
:101E800000224A810A884A807047000010B5044643
:101E900004B910BD2078617840EA0120C0F30A003F
:101EA0005C4908806078C010A17840EA4110C0F316
:101EB0000A0058494880A0788011E17840EA810002
:101EC000217940EA8120C0F30A00524988802079B4
:101ED0004010617940EAC110C0F30A004D49C88042
:101EE00060790011800808726079C0F301104872AF
:101EF000A079E17940EA012000B246494881207A80
:101F0000617A40EA012001B242488181A07AE17AF7
:101F100040EA012001B23F48C181217B0174617B0D
:101F20004174A07BE17B40EA01203A49488208469F
:101F3000808A401C888208460088A0F5806000B234
:101F4000088008464088A0F5806000B248800846B6
:101F50008088A0F5806000B288800846C088A0F51F
:101F6000806000B2C880B1F9000000F06BF800B2E8
:101F700028490880B1F9020000F064F800B2254950
:101F80004880B1F9040000F05DF800B22149888072
:101F9000B1F9060000F056F800B21E49C8800846A4
:101FA000B0F9040001EE100AB8EEC11AF0EE410AD1
:101FB0000846B0F90600404201EE100AB8EEC11A18
:101FC000B0EE410A144801F0ADF81248B0F9020031
:101FD00001EE100AB8EEC11AF0EE410A0D48B0F950
:101FE000000001EE100AB8EEC11AB0EE410A0B482B
:101FF00001F098F80749087C0949FFF723FF0549D4
:10200000487C0749FFF71EFF0248407A05490870DF
:1020100000BF3EE77C03002094030020A8030020BB
:10202000DC0300200000002010B5044801F0B2FFDE
:102030001421034802F000F810BD0000A086010042
:10204000680300200146002905DB142901DA00207D
:1020500070470846FCE711F1140F01DD0020F7E797
:10206000084600BFF4E770473E48808C052804DA34
:1020700001203C4981F8260003E00020394981F81D
:10208000260000203749888400BF22E000EB800151
:10209000354A02EB4111B1F89A10052908DA0121FD
:1020A00000EB8002304B03EB421282F89C1007E0F9
:1020B000002100EB80022C4B03EB421282F89C10B3
:1020C000002100EB8002284B03EB4212A2F89A1089
:1020D000401C0228DADB002020E000EB0011234A3C
:1020E00002EB8101C98F052908DA012100EB0012FA
:1020F0001E4B03EB820282F8401007E0002100EB48
:1021000000121A4B03EB820282F84010002100EB10
:102110000012164B03EB8202D187401C0428DCDB43
:102120001348B0F87200052804DA0120104981F83C
:10213000740003E000200E4981F8740000200C496F
:10214000A1F872000B48808A052803DA01200949AA
:10215000887502E0002007498875002005498882BB
:102160007047000054050020F403002058020020AE
:102170003C0000207C030020D0ED000A91ED001A05
:1021800030EEC11AD1ED000A40EE010AC1ED000A9D
:102190007047F0B50A4600210023002400BF3DE04F
:1021A000012505FA01F3156805EA03049C4234D1C0
:1021B00005684F000326BE40B543056015794E0003
:1021C000B5400668354305601579012D02D01579B3
:1021D000022D16D185684F000326BE40B5438560A9
:1021E00055794E00B54086683543856045680126BF
:1021F0008E40B5434560456896798E40B6B235430A
:102200004560C5684F000326BE40B543C560D5791B
:102210004E00B540C6683543C560491C1029BFD380
:10222000F0BDF0B5002300244D07ED0E02FA05F3D2
:10223000CE1000F1200555F826504E07F70E0F2658
:10224000BE40B543CF1000F1200646F82750CE100F
:1022500000F1200555F8265045EA0304CE1000F1A0
:10226000200545F82640F0BD0246002013690B40CA
:102270000BB1012000E000207047018370474269E4
:102280004A40426170470AB1018300E041837047D0
:1022900001460022002004E00B5C1344DAB2431C28
:1022A000D8B21128F8DB487C904201D10120704758
:1022B0000020FCE710B54FF4E13001F07BFF1E2158
:1022C000014801F0CBFF10BD34050020FEB50646E5
:1022D0000F4614460025D8E0705D5A287ED1681C50
:1022E000305C5A28FAD17019FFF7D2FF002876D057
:1022F000681D315C281D305C41EA002000B2ADF859
:102300000000E81D315CA81D305C41EA002000B2ED
:10231000ADF8020005F10900315C401E305C41EA75
:10232000002000B2ADF8040005F10B00315C401E46
:10233000305C41EA002000B2ADF8060005F10D0066
:10234000315C401E305C41EA002000B2ADF808006C
:1023500005F10F00315C401E305C41EA002000B204
:10236000ADF80A00BDF9000000EE100AB8EEC00A90
:10237000DFED480A80EE201A84ED001ABDF9020054
:1023800000EE100AB8EEC00ADFED420A80EE201A15
:1023900084ED011ABDF9040000EE100AB8EEC00A7F
:1023A000DFED3C0A80EE201A84ED021ABDF806002B
:1023B00080B200EE100AB8EE400ADFED360A80EE79
:1023C000201A84ED031ABDF9080000EE100AB8EED9
:1023D000C00ADFED300A80EE201A01E053E04FE042
:1023E00084ED051ABDF90A0000EE100AB8EEC00A25
:1023F000DFED280A80EE201A84ED041A05F11000A2
:10240000305C84F8220094ED030AD4ED060A30EE25
:10241000600ADFED210AB4EEE00AF1EE10FA03D211
:10242000208C401C00B2208494ED060AD4ED030AEF
:1024300030EE600ADFED180AB4EEE00AF1EE10FAB1
:1024400003D2208C401E00B2208494ED030A84ED58
:10245000060A94ED030AB4F9200000EE900AF8EEA3
:10246000E00A9FED0E1A01EE200A84ED070AA08C07
:10247000401CA084012084F8230009490880FEBD87
:10248000681C85B201E0681C85B2BD42FFF624AF2E
:1024900000BFF4E70000C842000096C30000B44348
:1024A00010000020044890ED280AB8EEC00ADFEDC5
:1024B000030A30EE600A7047F403002000703845CC
:1024C000064890ED000AB8EEC00ADFED050A70EE8E
:1024D000600A9FED041A80EE810A7047F403002021
:1024E00000C073450000B641064890ED000AB8EE02
:1024F000C00ADFED050A70EE600A9FED041A80EE57
:10250000810A7047F40300200040E7440000B64110
:1025100000BFFEE7DFED101AC0ED001ADFED0E1A66
:10252000C0ED011ADFED0C1AC0ED021ADFED0A1A38
:10253000C0ED031ADFED081AC0ED041A80ED050A9C
:10254000C0ED060A80ED071A41628262DFED021AD1
:10255000C0ED081A704700000000000008B50146F1
:10256000F0EE401AB0EE602AC1ED001A81ED012AAA
:1025700091ED000AD1ED010A30EE600A81ED020A08
:1025800091ED020AB5EEC00AF1EE10FA02DD91ED0E
:10259000020A03E091ED020AB1EE400ADFED2D0AD6
:1025A000B4EEE00AF1EE10FA03D29FED2B0A81EDB2
:1025B000020A91ED020AD1ED030A30EE600AD1ED74
:1025C000050A60EE202A91ED060AD1ED020A20EEFE
:1025D000200A8DED000A91ED020AD1ED030AB0EE5A
:1025E000001A01EE600AD1ED040A30EE200AD1EDA6
:1025F000070A20EE203AD1ED0A0AF8EE600AB0EEA2
:10260000600A684603F033FD91ED080ADDED000A2B
:1026100072EEA00A70EE830A30EE200A81ED080AFD
:10262000D1ED090AF8EE600AB0EE600A01F120006F
:1026300003F01DFD91ED030A81ED040A91ED020AFC
:1026400081ED030A91ED080ABDEEC00A10EE100AF2
:1026500008BD0000CDCC4C3E000000001CB501219F
:10266000082000F0BBFC00208DF8040001208DF84C
:10267000070000208DF805004FF480600090694647
:102680000148FFF786FD1CBD000C024010B500F0AC
:1026900017F8002009498880C880084600884988C2
:1026A000884209D00548008818B101200349C88034
:1026B00002E001200149888010BD00007C05002057
:1026C00010B506480088054948804FF480610448E9
:1026D000FFF7CAFD0149088010BD00007C050020FD
:1026E000000C02401CB50121302000F077FC0120D5
:1026F0008DF8040000208DF806008DF807008DF895
:1027000005008020009069460A48FFF742FD4FF41B
:102710008040009069460848FFF73BFD0122802178
:102720000448FFF7B0FD012291030348FFF7ABFD1A
:102730001CBD000000100240001402401CB5012125
:10274000402000F04BFC01208DF8040000208DF8A3
:1027500006008DF807008DF805004FF4005000903A
:1027600069460448FFF715FD4FF400510148FFF793
:1027700084FD1CBD001802400FB440F207220099EE
:10278000914203D30099B1F5027F01D304B07047A1
:102790000099A1F207209DF80C109DF80B2041EA4A
:1027A0000221C0EB0012444B23F832109DF80E209A
:1027B0009DF80D1042EA012109B2C0EB001203EBB3
:1027C000C20251809DF810209DF80F1042EA0121AD
:1027D00009B2C0EB001203EBC2029180C0EB001102
:1027E0001A4632F83110C0EB001203EBC202D28855
:1027F000891A324A91420CDAC0EB00111A4602EBF8
:10280000C1018989491C09B2C0EB001203EBC20265
:102810009181C0EB0011284A02EBC101C988C0EBCD
:102820000012254B33F83220891A244A91420CDADF
:10283000C0EB00111A4602EBC1018989491E09B299
:10284000C0EB001203EBC2029181C0EB00111A4AE7
:1028500032F83110C0EB0012174B03EBC202D180EB
:10286000C0EB00111A4632F83110C0EB001203EB36
:10287000C20292894FF4005313FB0211C0EB001205
:102880000D4B03EBC2029160C0EB00111A4602EB44
:10289000C101B1F87210491CC0EB001203EBC20277
:1028A000A2F872100121C0EB001203EBC20282F801
:1028B000701000BF6AE700003C00002090E8FFFFB6
:1028C0000FB40099B1F5007F03D90099B1F5017FEC
:1028D00001D904B070470099A1F201209DF80C10B5
:1028E0009DF80B2041EA022100EB00121B4B23F85C
:1028F00022109DF80E209DF80D1042EA012109B228
:1029000000EB001203EB820251809DF810209DF82D
:102910000F1042EA012109B200EB001203EB820220
:1029200091809DF8111000EB001203EB820291716F
:10293000012100EB001203EB820282F83C1000EB55
:1029400000111A4602EB8101C98F491C00EB0012ED
:1029500003EB8202D18700BFBBE7000058020020D2
:102960002DE9FC4107460C4615461E46380A8DF8EF
:102970000000F8B28DF80100200A8DF80200E0B2E4
:102980008DF80300280A8DF80400E8B28DF80500E0
:10299000300A8DF80600F0B28DF807006B464FF450
:1029A000007200210248FEF7AAFABDE8FC8100008F
:1029B000006400400FB40099B1F5017F04D940F2E2
:1029C00006220099914201D904B070470099A1F202
:1029D00005209DF80C109DF80B2041EA022100EB28
:1029E0008002404B03EB421291809DF80E209DF82F
:1029F0000D1042EA012109B200EB800203EB421202
:102A0000D18000EB80011A4602EB4111898800EB6E
:102A1000800203EB4212D289891A334A91420CDABE
:102A200000EB80011A4602EB4111098A491C09B2E8
:102A300000EB800203EB4212118200EB8001294A75
:102A400002EB4111C98900EB8002264B03EB4212D5
:102A50009288891A244A91420CDA00EB80011A46C6
:102A600002EB4111098A491E09B200EB800203EB17
:102A70004212118200EB80011A4A02EB411189884F
:102A800000EB8002174B03EB4212D18100EB800177
:102A90001A4602EB4111898800EB800203EB4212D7
:102AA000128A4FF4005313FB021100EB80020D4B0E
:102AB00003EB42121160012100EB800203EB421292
:102AC00082F8981000EB80011A4602EB4111B1F830
:102AD0009A10491C00EB800203EB4212A2F89A10F4
:102AE00000BF71E7F403002090E8FFFF00EB8002D5
:102AF000024B03EB4212916070470000F403002088
:102B00000D49897CC1F3801100EE101AB8EE400A1D
:102B10000A49D1ED070A20EE600A0749897CC909F4
:102B200000EE901AF8EE600A044991ED071A00EEE3
:102B3000810A80ED030A70477C030020E400002036
:102B400010B504460021012003F0E4FA60B12848E2
:102B500003F086FB2748D0ED070AF1EE600A20EE6D
:102B6000200A84ED000A17E00021022003F0D2FAC7
:102B700050B11F4803F074FB1E48D0ED070A20EE49
:102B8000200A84ED000A07E09FED1B0A84ED000A8D
:102B90003221174803F084FB0021082003F0BAFA21
:102BA00050B1164803F05CFB1248D0ED070A20EE46
:102BB000200A84ED010A19E00021042003F0AAFA9A
:102BC00060B10E4803F04CFB0A48D0ED070AF1EE65
:102BD000600A20EE200A84ED010A07E09FED060A54
:102BE00084ED010A3221054803F05AFB10BD0000B4
:102BF00040020020E4000020000000004C02002001
:102C00000FB50146F7EE002AF0EE621ADFED722AE8
:102C1000B0EE622A00BFDFED712AB4EEE20AF1EEF7
:102C200010FA04D8DFED6D2AB0EE620A0AE0DFED9B
:102C30006C2AB4EEE20AF1EE10FA03DBDFED682A4B
:102C4000B0EE620A00BF00BFDFED642AF4EEE20AD4
:102C5000F1EE10FA04D8DFED612AF0EE620A0AE024
:102C6000DFED5F2AF4EEE20AF1EE10FA03DBDFEDAE
:102C70005C2AF0EE620A00BF00BFDFED582AB4EE16
:102C8000E21AF1EE10FA04D8DFED542AB0EE621A1F
:102C90000AE0DFED532AB4EEE21AF1EE10FA03DB9C
:102CA000DFED4F2AB0EE621A00BF70EE602A72EEBE
:102CB000812ACDED002A70EE202A72EE812ACDED18
:102CC000012AF1EE402A72EEA02A72EE812ACDEDA1
:102CD000022AF1EE402A72EEE02A72EE812ACDED50
:102CE000032A0020002202EE902A3DE06A4602EB11
:102CF000800292ED003AB5EEC03AF1EE10FA05DD31
:102D00006A4602EB800292ED003A06E06A4602EB68
:102D1000800292ED003AB1EE433AF8EE623AB4EE38
:102D2000E33AF1EE10FA1DDD6A4602EB800292ED05
:102D3000003AB5EEC03AF1EE10FA05DD6A4602EB54
:102D4000800292ED003A06E06A4602EB800292EDC4
:102D5000003AB1EE433ABCEEC33A13EE102AD2B2B7
:102D600002EE902A421CD0B20428BFDBDFED1D2A00
:102D7000B4EEE22AF1EE10FA05DDDFED1A2A82EE5A
:102D8000823AF0EE431ADDED002A62EEA12AFDEE52
:102D9000E22A12EE900A00B20880DDED012A62EE0E
:102DA000A12AFDEEE22A12EE900A00B24880DDED83
:102DB000022A62EEA12AFDEEE22A12EE900A00B289
:102DC0008880DDED032A62EEA12AFDEEE22A12EEF2
:102DD000900A00B2C8800FBD0000000000404EC540
:102DE00000404E4500C05A4500BFFEE77047F8B5A9
:102DF00006460C461546F0B28DF80000E0B28DF89C
:102E00000100E8B28DF8020001208DF80300684649
:102E100000F002F8F8BD000070B5002100230F2279
:102E2000C4781CB3174C246804F4E064C4F5E0646F
:102E3000C4F30721C1F10404E3B20A4144789C4081
:102E4000E1B28478144021430C07210E0E4C057822
:102E50006155047804F01F050124AC4005786D111C
:102E6000AD0005F1E025C5F8004109E0047804F063
:102E70001F050124AC40054D0678761145F8264023
:102E800070BD00000CED00E000E400E080E100E037
:102E900002490143024A1160704700000000FA0530
:102EA0000CED00E070470000DFED101AC0ED001AD5
:102EB000DFED0E1AC0ED011A41628262DFED0B1ADE
:102EC000C0ED021ADFED091AC0ED031ADFED071A93
:102ED000C0ED041A80ED050AC0ED060A80ED071A60
:102EE000DFED021AC0ED081A704700000000000074
:102EF00008B50146F0EE401AB0EE602AC1ED001AA6
:102F000081ED012A91ED000AD1ED010A30EE600A4F
:102F100081ED020A91ED020AB5EEC00AF1EE10FA57
:102F200002DD91ED020A03E091ED020AB1EE400AE2
:102F3000DFED280AB4EEE00AF1EE10FA03D29FEDBD
:102F4000260A81ED020A91ED040AD1ED020A30EE63
:102F5000200A81ED040A91ED050AD1ED020A60EE26
:102F6000202A91ED060AD1ED040A20EE200A8DED0B
:102F7000000A91ED020AD1ED030A30EE600AD1EDAC
:102F8000070A20EE203AD1ED0A0AF8EE600AB0EE08
:102F9000600A684603F06BF89DED000A32EE800A85
:102FA00030EE030A81ED080AD1ED090AF8EE600A55
:102FB000B0EE600A01F1200003F059F891ED020A29
:102FC00081ED030A91ED080ABDEEC00A10EE100A69
:102FD00008BD0000CDCC4C3E0000000029B1064ADF
:102FE00012680243044B1A6004E0034A12688243E9
:102FF000014B1A60704700003038024029B1064A80
:1030000012680243044B1A6004E0034A12688243C8
:10301000014B1A60704700004038024029B1064A4F
:1030200012680243044B1A6004E0034A12688243A8
:10303000014B1A607047000044380240F0B500218F
:1030400000220024022500260223324F3F6807F0A9
:103050000C0121B1042905D0082937D105E02E4FF4
:10306000076036E02D4F076033E02A4F3F1F3F686F
:10307000C7F38056274F3F1F3F6807F03F036EB1ED
:10308000264FB7FBF3F7DFF88CC0ACF1040CDCF88B
:1030900000C0CCF3881C07FB0CF40CE01E4FB7FB00
:1030A000F3F7DFF870C0ACF1040CDCF800C0CCF32F
:1030B000881C07FB0CF4174F3F1F3F68C7F30147FD
:1030C0007F1C7D00B4FBF5F7076002E0124F07603C
:1030D00000BF00BF0F4F3F6807F0F0010909104F14
:1030E0007A5C0768D74047600A4F3F6807F4E051B1
:1030F000890A0B4F7A5C4768D7408760054F3F6865
:1031000007F46041490B064F7A5C4768D740C760B7
:10311000F0BD0000083802400024F400001BB70096
:10312000CC00002010B52DED0A8BB0EE408AF0EEF9
:10313000608A044684ED008AC4ED018A94ED000A99
:1031400010EE101A0846FDF766F941EC1A0B94EDE3
:10315000010A10EE101A0846FDF75DF941EC1B0B51
:10316000B0EE4A1AF0EE6A1AB0EE4B0AF0EE6B0AB5
:1031700001F02AFBB0EE409AF0EE609A51EC190B88
:10318000FDF75CF9A06094ED020ADFED2B0A20EE5A
:10319000200ADFED2A0A80EE201A84ED031A94ED4E
:1031A000010A10EE101A0846FDF735F941EC1C0B28
:1031B0009FED231BB0EE4C0AF0EE6C0A01F060FCB0
:1031C000B0EE40AAF0EE60AA94ED000A10EE101ADC
:1031D0000846FDF720F941EC1C0B9FED191BB0EEE2
:1031E0004C0AF0EE6C0A01F04BFCB0EE40BAF0EE87
:1031F00060BA53EC1A2B51EC1B0BFCF7F3FF41ECBC
:10320000190BFDF71BF900EE100AF1EEC00AC4ED30
:10321000040A94ED030ADFED080AB4EEE00AF1EEC9
:1032200010FA05DD94ED040AB1EE400A84ED040ABB
:10323000BDEC0A8B10BD000000003443DB0F494099
:103240000000000000000040704700000CB50020A6
:10325000019000904148006840F480303F49086088
:1032600000BF3E48006800F4003000900198401C08
:103270000190009818B90198B0F5A04FF1D13748E6
:10328000006800F4003010B10120009001E000203F
:1032900000900098012860D130484030006840F02C
:1032A00080502E49403108602D48006840F440406D
:1032B0002B4908602948083000682849083108600F
:1032C0000846006840F4004008600846006840F482
:1032D000A05008602348091F0860081F006840F0DC
:1032E0008070091F086000BF1C48006800F0007073
:1032F0000028F9D01A48006840F480301849086066
:1033000000BF1748406800F480300028F9D0144806
:10331000006840F400301249086000BF104840685F
:1033200000F400300028F9D040F205700E49086022
:103330000A480830006820F0030008490831086096
:103340000846006840F00200086000BF03480830EB
:10335000006800F00C000828F8D10CBD00380240CD
:10336000007000400C5A4007003C024010B500209D
:103370001849487008708871887008468078164926
:1033800031F8100013498880144880780872FFF7DC
:10339000D5F94FF47A7244F61F61592000F0B6F95E
:1033A0004FF4FA6291009FED0E1ADFED0E0AB7EEB0
:1033B000080A0D48FFF778FD4FF4FA72D1009FED2F
:1033C0000B1ADFED070A9FED0A0A07482C30FFF7BA
:1033D0006BFD10BD340200202C6300081E63000842
:1033E000000000000AD7233D54000020CDCC4C3F04
:1033F0009A99993E10B52DED028B012476480078FC
:10340000022803D074484078042809D10020734969
:1034100088810846008888600861BDEC028B10BD79
:10342000012C07D16E48807D20B9002401206B4912
:1034300081F871006B48007A642191FBF0F16A48D1
:1034400002880088401C684B1880914206DA0120EF
:103450006449C8710846007A194608805F4890F8A8
:10346000710000B35F480078E8B15E48407810B959
:1034700002F0A8FE17E05B49888802F07BFE5948FD
:10348000807968B95748C07950B15448006900F54F
:103490001040524908610020534908805149C871C1
:1034A0000020504908704D4890F8740000287CD1E5
:1034B0004A4981F87100084690ED021AB8EEC11A27
:1034C000F0EE410A90ED041AB8EEC11AB0EE410ACE
:1034D0004430FFF70DFD08EE100A4048B0F9020035
:1034E00000EE100AB8EEC00AF0EE400AB8EEC80AC4
:1034F0003A481830FFF7FCFC00B238498882084689
:10350000B0F91400002803DD0846B0F9140003E008
:103510003248B0F91400404241F63801884222DDB9
:103520002E48B0F90200002803DD2C48B0F9020053
:1035300003E02A48B0F902004042322813DA2B484F
:1035400001680068401C294A106032290BDD2848B8
:10355000007840B921480069A0F590301F49086102
:103560000120234908701D4890ED130AB5EEC00AEA
:10357000F1EE10FA02DD90ED130A04E0174890ED29
:10358000130AB1EE400ADFED1B0AB4EEE00AF1EED9
:1035900010FA08D20020164908701449086001206A
:1035A0000E4981F871000D4800E00EE0B0F90C0002
:1035B000642809DD09480169B0F90C00A1EB40302D
:1035C000064908610020888100BF0020034981F876
:1035D000700000BF21E70000000000203C00002038
:1035E0007C03002034020020060000200C00002094
:1035F000080000200000FA4530B50146481EB0F131
:10360000807F01D3012030BD481E4FF0E022506181
:1036100050170F22002807DA13071D0E094B00F080
:103620000F04241F1D5503E013071C0E064B1C54EA
:1036300000BF00204FF0E0229061072010610020C1
:10364000E1E7000018ED00E000E400E07047000052
:1036500010B51548006840F470001349086013481D
:10366000006840F001001149086000200F4908314E
:1036700008600E4800680E4908400C4908600D4873
:10368000091D0860081F006820F48020091F0860D9
:10369000002006490C310860FFF7D8FD4FF00060AC
:1036A00001498039086010BD88ED00E00038024013
:1036B000FFFFF6FE103000241CB501218020FFF72B
:1036C0008DFC02208DF8040000208DF806008DF896
:1036D000070003208DF805004020009069460A4845
:1036E000FEF757FD092206210748FEF79AFD4FF421
:1036F0000070009069460448FEF74BFD0922114610
:103700000148FEF78EFD1CBD001C024070B588B05C
:1037100006460C461546FFF7CFFF01214020FFF774
:103720006DFCADF8146006940020ADF81C00ADF8F7
:10373000160005A9114800F0C5FB6020ADF8000097
:103740000120ADF802000020ADF804000295ADF8AC
:103750000C00ADF81000ADF80E00ADF8120069468F
:10376000064800F017FB6946044800F051FB0121B0
:10377000024800F0E8FA08B070BD000000180040F0
:103780003EB505460C4601211020FFF737FCADF889
:10379000005001940020ADF80800ADF80200694621
:1037A0000A4800F08FFB0121084800F0BDFA012112
:1037B000064800F0C8FA01221146044800F0E0FA79
:1037C000002201213620FFF712FB3EBD0010004011
:1037D00010B52DED0E8B0121F84800F0C0FA00283D
:1037E0006FD09FEDF70AB0EE408A9FEDF50AF0EE3C
:1037F000408AF4480068401CF2490860642806DDED
:103800008021F148FEF73BFD0020EE490860FEF7FD
:1038100019FA01285AD002287ED0032855D1FEF784
:1038200035FF0120E94981F8EC00E94981F85400AD
:10383000E84890ED000ADFEDE80A80EE201A9FEDDF
:10384000E70A21EE000AE64880ED000AE14890ED23
:10385000010A9FEDE11AC0EE010A9FEDE00A20EE99
:10386000800AE04880ED000ADF4890ED000AF2EEA1
:10387000000A80EE201AB0EE418A90ED010AF1EEC6
:103880000C0A80EE201AF0EE418AD848007A03280C
:1038900004D1D748407808B902F094FCD348007AA4
:1038A000012805D1D2484078012801D102F07EFCE0
:1038B000D048808818B9CD48007A022802D101206A
:1038C00001E0BBE10020CA490870BAE0CA4840786C
:1038D00010B104285BD15BE00020C84908600120DA
:1038E000BA4981F8EC00BA4981F85400FEF7B0F902
:1038F00088B9C34890ED000AB94880ED000AC04875
:1039000090ED010AB74880ED000ABD4890ED030A2A
:10391000BC4880ED000A00E092E00021202002F087
:10392000F9FBD0B1B148B0F90A0000EE100AB8EEC8
:10393000C00AF7EE000A20EE200AB0EE408AAB483B
:10394000B0F90C0000EE100AB8EEC00AF7EE000A5B
:1039500020EE200AF0EE408A19E0A448B0F90A00EF
:1039600000EE100AB8EEC00AF0EE000A20EE200ABF
:10397000B0EE408A9D48B0F90C0000EE100AB8EE97
:10398000C00AF7EE080A20EE200AF0EE408A51E065
:103990000020974908700120984908608B4981F8F8
:1039A000EC0000208A4981F854009048B0F90A00E0
:1039B00000EE100AB8EEC00AF7EE000A20EE200A68
:1039C000B0EE408A9FED900A804880ED030A002007
:1039D00087490870FEF73CF958BB894890ED000A0A
:1039E00010EE101A0846FCF716FD41EC1A0B9FED7D
:1039F000870B53EC102BFCF79CFC41EC190BFCF7EC
:103A00001DFD774908607E4890ED010A10EE101AFE
:103A10000846FCF700FD41EC1A0B9FED7C0B53ECC4
:103A2000102BFCF786FC41EC190BFCF707FD6D49E8
:103A3000086000BF00BF6D48007C6D49087000E061
:103A400000BF00BF614890F8EC0001287DD16B48B1
:103A50000068002879D1FEF733FDDFED6E0A20EE15
:103A6000200A6D4880ED000A5D4890ED000A10EED6
:103A7000104A69480068FCF7CEFC41EC1E0BB0EE22
:103A80004E0AF0EE6E0A01F023FEB0EE40CAF0EEF0
:103A900060CA54480068FCF7BEFC41EC1D0B53ECB7
:103AA0001C2BFCF746FC41EC1A0B5B480068FCF74A
:103AB000B2FC41EC1E0BB0EE4E0AF0EE6E0A00F0C6
:103AC0007BFFB0EE40CAF0EE60CA45480068FCF7E4
:103AD000A2FC41EC1D0B53EC1C2BFCF72AFC41EC27
:103AE0001B0B53EC1A2BFCF71EFC41EC190BFCF7DB
:103AF000A5FC3B49086048480068FCF78CFC41EC99
:103B00001E0BB0EE4E0AF0EE6E0A01F0E1FDB0EED3
:103B100040CAF0EE60CA2046FCF77DFC41EC1D0B6C
:103B200053EC1C2BFCF705FC41EC1A0B3A480068DF
:103B3000FCF771FC41EC1E0BB0EE4E0AF0EE6E0A83
:103B400000F03AFFB0EE40CA00E018E0F0EE60CAC4
:103B500024480068FCF75FFC41EC1D0B53EC1C2B68
:103B6000FCF7E7FB41EC1B0B53EC1A2BFCF73AFB81
:103B700041EC190BFCF762FC1A49086000BFFEF724
:103B800061F804461F4991ED001A1649D1ED000A6B
:103B9000134991ED000AFDF747FB0C4890F8EC0043
:103BA00010B1012844D139E0FEF74CF80446F0EE9C
:103BB000680AB0EE480AFDF73BFD39E0001000400E
:103BC000000000002C0000200010024044010020F2
:103BD000E4000020940300200000254400404E45EE
:103BE000180000201C000020A80300207C030020F7
:103BF000340200207C05002000000020240000206A
:103C0000BC030020200000200008844500000000C4
:103C10000000E03F35FA8E3C14000020FEF712F859
:103C20000446F0EE680AB0EE480AFDF721FE00BF38
:103C300000BF0121034800F083F800BFBDEC0E8BEC
:103C400010BD0000001000403EB505460C460121A5
:103C50002020FFF7D3F9ADF8005001940020ADF813
:103C60000800ADF8020069460A4800F02BF901216E
:103C7000084800F059F80121064800F064F80122D4
:103C80001146044800F07CF8012200213720FFF79C
:103C9000AEF83EBD0014004010B501211C4800F0F4
:103CA0005EF8002832D01B480068401C19490860A3
:103CB000142804DDFEF7D8F90020164908601649DB
:103CC000488A1649FEF7BEF8FDF79CFFFDF7C0FFD6
:103CD000012811D111488088A0F50050203850B932
:103CE0000F48407818B904200D49487002E00020C0
:103CF0000B49487000BF00BF0A48FEF721FF094882
:103D0000FEF7FEFE0121024800F01AF810BD000087
:103D100000140040300000207C030020D00300206D
:103D200000000020BC03002021B1028842F0800284
:103D3000028004E002884FF67F731A4002807047C9
:103D4000CA430282704721B1028842F00102028018
:103D500004E002884FF6FE731A400280704730B5C7
:103D60000246002000230024158A05EA01039589F4
:103D700005EA010413B10CB1012000E0002030BDC0
:103D80001AB183890B43838102E083898B4383814A
:103D90007047000070B5002400220023058C4FF608
:103DA000FE7635400584028C8388048B4FF68F7530
:103DB0002C40B51E2C400D882C43751E2A408D8941
:103DC0002A434D882A43104DA84202D00F4DA842E5
:103DD00013D14FF6F7752A40CD892A434FF6FB756C
:103DE0002A408D882A434FF6FF652B404FF6FF553A
:103DF0002B400D8A2B434D8A2B43838004838D688F
:103E00004563028470BD00000000014000040140D1
:103E100070B5002400220023058C4FF6EF76354064
:103E20000584028C8388048B48F6FF752C404FF67E
:103E3000FF452C400D884FF6FF7606EA05252C43FA
:103E40004FF6DF752A408D8906EA05152A434D880D
:103E500006EA05152A43154DA84202D0144DA84282
:103E60001DD14FF67F752A40CD894FF6FF7606EAC1
:103E700005152A434FF6BF752A408D8806EA0515B9
:103E80002A434FF6FF352B404FF2FF752B400D8A2A
:103E900006EA85052B434D8A06EA85052B43838078
:103EA00004838D688563028470BD000000000140BA
:103EB000000401404163704781637047C1637047EC
:103EC0000164704700220288184B98420ED0184BAC
:103ED00098420BD0B0F1804F08D0164B984205D0D5
:103EE000154B984202D0154B984204D14FF68F7370
:103EF0001A404B881A43124B984207D0114B9842F4
:103F000004D04FF6FF431A400B891A4302804B68D6
:103F1000C3620B880385054B984202D0044B98423C
:103F200001D18B7A03860123838270470000014010
:103F3000000401400004004000080040000C004064
:103F4000001000400014004010B540F224410E481B
:103F500000F0ECF9B8B100210C48FDF77FFE0B48EA
:103F6000FDF73EFF022802D10948FDF78FFF14211B
:103F70000648FDF765FF01210448FDF76FFE024882
:103F800080880148008810BD001001404064024054
:103F90006803002010B586B0044601210220FFF717
:103FA0001DF801211020FFF739F802208DF81400C8
:103FB0008DF8150001208DF8170000208DF81600EF
:103FC0004020049004A91A48FEF7E3F880200490EA
:103FD00004A91748FEF7DDF8072206211448FEF76A
:103FE00020F9072211461248FEF71BF90094002021
:103FF000ADF80400ADF80600ADF80800ADF80C000F
:104000000C20ADF80A0069460A4800F0DFF90222E8
:1040100000212520FEF7EBFE012240F22441054855
:1040200000F0AEF90121034800F05EF906B010BDC2
:10403000000402400010014030B58FB004460D4628
:1040400001218805FEF7CAFF1C48FDF713FE00BFDB
:104050001A48FDF7BBFE0028FAD14FF0006000902F
:1040600017480190029400200390049505904FF4A6
:10407000806006900020079008904FF480700990AF
:1040800000020A9000200B900C900D900E90694653
:104090000A48FDF7A9FE01210848FDF7DFFD00BF32
:1040A0000648FDF793FE0128FAD101224021044879
:1040B000001F00F025F90FB030BD00004064024041
:1040C000041001407047000010B586B0044601217D
:1040D0000820FEF783FF01214804FEF78FFF002030
:1040E0008DF8160001208DF8170002208DF81500BC
:1040F0008DF814002020049004A91548FEF749F813
:104100004020049004A91248FEF743F80722052135
:104110000F48FEF786F8072206210D48FEF781F8C2
:1041200000940020ADF80400ADF80600ADF80800DA
:10413000ADF80C000C20ADF80A006946054800F007
:1041400045F90121034800F0CFF806B010BD00008A
:10415000000C02400044004010B540F224411148D8
:1041600000F0E4F8E0B100210F48FDF777FD0E48BC
:10417000FDF736FE0446C4F11E0081B20B4A0C481E
:10418000FEF7A4F81E210848FDF75AFE0121064853
:10419000FDF764FD0348001D00880248008800BF49
:1041A00010BD000000480040286002405405002077
:1041B0003405002010B586B0044601210820FEF722
:1041C0000DFF01218804FEF719FF00208DF816006D
:1041D00001208DF8170002208DF815008DF81400CD
:1041E000C001049004A91B48FDF7D3FF4FF40070F1
:1041F000049004A91748FDF7CCFF072208211548B1
:10420000FEF70FF8072209211248FEF70AF800947A
:104210000020ADF80400ADF80600ADF80800ADF8D8
:104220000C000C20ADF80A0069460B4800F0CEF8EF
:10423000032200212720FEF7DAFD012240F224416B
:10424000054800F09DF80121034800F04DF806B044
:1042500010BD0000000C02400048004030B58FB097
:1042600004460D4601214805FEF7B8FE1C48FDF73F
:1042700001FD00BF1A48FDF7A9FD0028FAD14FF053
:10428000006000901748019002940020039004956C
:1042900005904FF4806006900020079008904FF43E
:1042A0008070099000020A9000200B900C900D90F5
:1042B0000E9069460A48FDF797FD01210848FDF771
:1042C000CDFC00BF0648FDF781FD0128FAD101228F
:1042D00040210448001F00F013F80FB030BD00006B
:1042E000286002400448004021B1828942F4005213
:1042F000828104E082894DF6FF731A408281704703
:104300001AB1838A0B43838202E0838A8B438382C0
:10431000704702460020B1F5007F00D100BF13882E
:104320000B400BB1012000E00020704770B5024641
:10433000002400230025002040F66A16B14200D177
:1043400000BFC1F3421501F01F03012606FA03F373
:10435000012D02D19689334006E0022D02D1168A42
:10436000334001E0968A33400C12012606FA04F429
:104370001688344013B10CB1012000E0002070BD5C
:10438000F0B50346002400260025002040F66A17F9
:10439000B94200D100BF1846C1F3421401F01F0614
:1043A000012707FA06F5012C01D10C3004E0022C9C
:1043B00001D1103000E014301AB107682F430760B4
:1043C00002E00768AF430760F0BD00002DE9FF473A
:1043D00005460E460024A14600BFA046B08900B1A4
:1043E00000BF2C8A24F44054F08804432C82AC890A
:1043F00041F20C608443B0883189084371890843D5
:104400000443AC81AC8A24F44074B0890443AC8288
:104410006846FEF713FE2048854202D01F488542B9
:1044200002D1DDF80C9001E0DDF80890A88900F4D5
:10443000004040B109EBC90000EB091031684900A8
:10444000B0FBF1F707E009EBC90000EB0910316898
:104450008900B0FBF1F76420B7FBF0F004012009FC
:10446000642101FB1078A88900F4004040B132209B
:1044700000EBC800B0FBF1F000F00700044308E0D7
:10448000322000EB08106421B0FBF1F000F00F00C7
:1044900004432C81BDE8FF87001001400014014057
:1044A000C1F308028280704700BFFEE7014A02495B
:1044B00001F0CCBD4D610008DC00002003B4019880
:1044C0004100009850EAC12018BF04204A0D18BFCF
:1044D00040F0010040F2FF72B2EB515F08BF40F0C4
:1044E0000200012808BF052002B07047000000004C
:1044F00070B59B482DED020B2DED068B079D25F029
:104500000044A04218DC9748844202DC0AD1069895
:1045100040B19DED060BBDEC068B02B0BDE87040CE
:1045200001F03ABD002DCCBF9FED8F0B9FED900B9E
:10453000BDEC068B02B070BD8F48A04215DD8F48E0
:10454000A042D8BF4FF0FF3458DD9DED060B51EC73
:10455000100BFFF7B3FF042808BF01F051FD9DEDDC
:10456000060BBDEC068B02B070BD9DED060B51EC49
:10457000100B01F0DFFDCDE9060181489FED828B34
:10458000A0423CDD8248A0421FDD00249FED82ABAB
:104590009DED060B53EC1A2B51EC100BFBF722FE92
:1045A0009DED060B41EC190B53EC1A2B51EC100B43
:1045B000FBF7BFFE53EC182BFBF7B5FE53EC192BA2
:1045C000FCF70DF8CDE9060149E09DED060B01244D
:1045D00053EC182B51EC100BFBF704FE9DED060B72
:1045E00041EC190B53EC182B51EC100BFBF79BFE15
:1045F00053EC192BFBF7F3FFCDE906012FE06848D8
:10460000A0421FDD02249FED689B9DED060B53EC3D
:10461000192B51EC100BFBF78CFE53EC182BFBF70E
:10462000E1FD9DED060B41EC180B53EC192B51EC01
:10463000100BFBF778FE53EC182BFBF7D0FFCDE9FE
:1046400006010CE09DED060B032453EC102B9FEDAF
:10465000580B51EC100BFBF7C2FFCDE906019DEDA5
:10466000060B53EC102B51EC100BFBF762FE41ECE8
:10467000180B53EC182BFBF75CFE41EC190B4E4862
:104680000621B0EE490AF0EE690A784401F058FBC1
:1046900053EC182B51EC100BFBF74BFE41EC180BB5
:1046A0004648B0EE490AF0EE690A0521784401F067
:1046B00047FB53EC192B51EC100BFBF73AFE41EC86
:1046C000100B51EC180B53EC102B002C0EDAFBF7EF
:1046D00089FD9DED061B53EC112BFBF72AFE9DED8A
:1046E000061B53EC112BFBF721FE35E0FBF77AFD9F
:1046F0009DED061B53EC112BFBF71BFE41EC100B41
:104700002F48784400EBC40090ED001B51EC100BD7
:1047100053EC112BFBF707FE9DED061B53EC112B01
:10472000FBF701FE41EC100B2648784400EBC40077
:1047300090ED001B51EC100B53EC112BFBF7F6FD29
:1047400041EC100B002DA2BFBDEC068B02B070BD7A
:1047500051EC100B81F0004141EC100B01E700001F
:10476000000010440000F07F182D4454FB21F93F55
:10477000182D4454FB21F9BF0000DC3F0000203E0F
:104780000000F33F00000000000000000000F03FC8
:104790000000E63F000000000000000000000040B4
:1047A0000080034000000000000000000000F83F0F
:1047B000000000000000F0BFAA1D0000601D000006
:1047C000EA1C0000A21C000070B56B4E2DED040B1E
:1047D0002DED028B82B0DDF81CC0DDE905235C42C3
:1047E0002CF000411C4341EAD474049D22F00040A7
:1047F000B44205D86C422C4340EAD474B4420BD97D
:104800009DED061B9DED040B02B0BDEC028B04B0C8
:10481000BDE8704001F0CABBACF14054A4F17F6424
:104820001C430BD0022404EAAC7444EAD27405435E
:104830009FED538B9FED542B07D015E09DED040B9E
:1048400051EC100B01F02AFC42E0002C11BF012CAE
:104850009DED040B02B0BDEC028B04BF04B070BD33
:10486000022C38D0032C3BD00B439FED491B9FED0E
:104870004A0B0AD0B14218D1B04209D121F080418F
:1048800020F08040079105900FE0002A15DA10E033
:10489000434B7B44002C08BF93ED000B0DD0012C43
:1048A00010D0022C17D0032C1AD0B0421DD1002AF0
:1048B00003DAB0EE410AF0EE610A02B0BDEC028B01
:1048C00004B070BD93ED000B51EC100B81F0004172
:1048D00041EC100BF1E7B0EE480AF0EE680AECE7A5
:1048E000B0EE420AF0EE620AE7E7401A00153C28F3
:1048F000C8BF8DED000B19DCBCF1000FBEBF10F17D
:104900003C0F9FED290B8DED000B0FDB9DED060B92
:1049100053EC102B9DED040B51EC100BFBF75FFEDD
:1049200001F008FC01F0BAFBCDE90001002C08BF42
:104930009DED000BC1D0012C10D0022C9FED1C0B63
:1049400053EC102B9DED000B51EC100B0DD0FBF731
:10495000EAFC53EC182BFBF7E6FCB9E7019880F072
:10496000004001909DED000BA7E7FBF7DCFC53EC4A
:10497000182BFBF7DBFCABE70000F07F000000002A
:10498000182D4454FB210940182D4454FB2109C023
:10499000182D4454FB21F9BF182D4454FB21F93F35
:1049A000021C0000000000000000000000000000E9
:1049B000075C143326A6A13C10B52F499FED2C1B94
:1049C0002DED020B84B0059820F000408842D8BF3E
:1049D0009DED040B2DDD2949884209D1049840B989
:1049E0004FF0010001F02CFB01F0EAFA06B010BD17
:1049F00005DB9DED040B01F0CFFA06B010BD684653
:104A00009DED040B00F0C8FE10F0030004BF9DED07
:104A1000021B9DED000B0CD001280ED09DED021B5A
:104A20009DED000B022817D0012001F005FA06B019
:104A300010BD01F0CDF806B010BD9DED021B9DED3F
:104A4000000B012001F0F8F951EC100B81F000414E
:104A500006B041EC100B10BD01F0BAF851EC100B90
:104A600081F0004106B041EC100B10BD00000000C9
:104A70000000000000000000FB21E93F0000F07F83
:104A80002DE9F04D2DED040B2DED0E8B96B0DDE9EB
:104A90002550279CDDF890A025F0004624F0004822
:104AA000BAF1000F14BF0121002101EB4502FC49BE
:104AB00053184A1093422AD3002814BF012300231D
:104AC00003EB44030B44F7498B4220D358EA00011F
:104AD0009FEDF59B76D0DFF8D8B35D4503D1BAF1F1
:104AE000000F05D188E0BAF1000F08BF002100D007
:104AF000012101EB450111F5001F08D8002814BF62
:104B00000121002101EB440111F5001F0BD99DED9E
:104B1000261B9DED240B16B0BDEC0E8B04B0BDE83A
:104B2000F04D01F043BA0027002DBCBFE149884594
:104B300021DAE1498845A8BF02271CDAC3451ADCFF
:104B4000DE4901EB2851142908DDC1F1340220FAB5
:104B500002F101FA02F282420DD108E058B9C1F126
:104B6000140228FA02F101FA02F2424503D101F0DF
:104B70000101C1F1020756EA0A0124D1002C22DA10
:104B8000002D18BF022F01D0012F0AD0022001F002
:104B900057FA16B0BDEC0E8B04B0BDE8F04D01F035
:104BA000E3B9022001F04CFA01F0DEF951EC100BF0
:104BB00081F0004141EC100B16B0BDEC0E8B04B03F
:104BC000BDE8F08D18E09FEDBEAB9FEDBF8B0028D8
:104BD00071D1B848804522D105F1804010F5801090
:104BE00008BFBAF1000F07D0B3450ADC002CA8BFFC
:104BF0009DED260BE0DA0DE0B0EE490AF0EE690A11
:104C0000DAE7002C06DA9DED260B51EC100B81F053
:104C100000416FE0AE48784490ED000BCCE7D845FA
:104C20004DD1002C48DA2EB186423AD1BAF1000FAC
:104C300042D126E0BAF1000F13D0022001F000FAB1
:104C400001F0CEF98DED020B9DED240B8DED000BE7
:104C500010EE900A039961F31E0003909DED020B84
:104C6000AAE78DED02AB9DED240B1AEE901A10EE23
:104C7000900A8DED000B61F31E0003909DED020B79
:104C80009AE78DED028B9DED240B18EE901A10EE35
:104C9000900A8DED000B61F31E0003909DED020B59
:104CA0008AE709DA9DED240B51EC190B53EC102B1C
:104CB000FBF795FC1EE020E09DED240B7CE786428F
:104CC0001BDAB4F1804F0DD0A4F10050B0F1FF50C9
:104CD00013D1002D11DB9DED240B51EC100B01F0D5
:104CE000E3FA07E09DED240B53EC102B51EC100B75
:104CF00000F0C2BC41EC100B5EE79DED240B51ECC3
:104D0000100B01F017FABAF1000FCDE90E0142D1F4
:104D10009FED710B46B3A6F1E040B0F17F600CD07F
:104D20005E4538D1002D00DAA7B3022F0CBF012059
:104D30004FF0FF30FBF7D9FCDCE7002D01DD002C44
:104D40000DDA002D01DD002C1FDB002D16DA002C02
:104D500014DB012F08BF9FED620B3FF42DAFB0EEC7
:104D60004A0AF0EE6A0A27E7022F18BF002D0CD07E
:104D7000012F0AD1002DFFF61FAF06E0002DB8BFAE
:104D8000002C08DA012F3FF417AFB0EE480AF0EE1E
:104D9000680A11E71BE0012000EBE57050EA07010B
:104DA00015D0791EB0EE498AF0EE698A084308BF33
:104DB0009FED4D8B4E480025804570DD4D494E4896
:104DC000884514DDB0420DDB002C19DB2FE00120FB
:104DD00001F036F916B0BDEC0E8B04B0BDE8F04D15
:104DE00001F0EEB8B34502DC002C09DC1FE086427E
:104DF00002DA002C1BDA03E05E452BDD002C16DD09
:104E0000022001F01DF901F0EBF88DED020B53ECDF
:104E10001A2B51EC180BFBF78CFACDE90001039922
:104E2000019861F31E0003909DED020BC4E6022081
:104E300001F006F901F0E4F810EE901A18EE900A6D
:104E40008DED020B8DED008B61F31E0003909DED47
:104E5000020BB1E69DED0E0B53EC192B51EC100B30
:104E6000FBF761FA9FED260BCDE9080153EC102BFF
:104E70009DED080B51EC100BFBF75BFA9FED221B2D
:104E800053EC112BFBF752FA9DED081B53EC112B41
:104E9000FBF74FFA9FED1E1B53EC112B3CE08CE00F
:104EA000FFFF1F00FFFF0F00000000000000F03FA9
:104EB0000000F03F0000F07F0000404301FCFFFFD6
:104EC000000000000000F07F000000000000000073
:104ED0007E180000000000000000000000000080BC
:104EE000000000000000F0FF000000000000F0BF24
:104EF0000000E0410000F043FFFFEF3F0000000032
:104F0000000000000000D03F555555555555D53F80
:104F1000000000000000E03FFBF708FA9DED080BE1
:104F200041EC1A0B53EC102B51EC100BFBF701FA70
:104F300053EC1A2BFBF7FDF941EC1A0B9FEDFE0B1E
:104F400053EC102B9DED080B51EC100BFBF7F1F916
:104F500041EC1B0B9FEDFA0B51EC1A0B53EC102B91
:104F6000FBF7E7F941EC1A0B9FEDF70B53EC102B15
:104F70009DED080B51EC100BFBF7DBF953EC1A2BF2
:104F8000FBF7D1F941EC1A0B51EC1B0B53EC1A2B2C
:104F9000FBF728F90690CDE906519DED060B53EC81
:104FA0001B2B51EC100BFBF7BEF953EC1A2BFBF744
:104FB000BDF941EC100B00F0A1B90020B6F5801F3F
:104FC0000EDA9FEDE30B53EC102B9DED0E0B51EC25
:104FD000100BFBF7AEF9CDE90E016FF034000E4671
:104FE00000EB2650A0F2FF37C6F31300DA4940F079
:104FF0007F6646F040568842D8BF002408DDD74976
:105000008142C8BF012403DC0024A6F580167F1C62
:10501000D348784400EBC4000F9690ED00CB9DED93
:105020000E0B53EC1C2B51EC100BFBF77CF99DED98
:105030000E0B41EC1B0B53EC1C2B51EC100BFBF734
:10504000D1F841EC100B51EC190B53EC102BFBF782
:10505000C6FA41EC1D0B51EC1B0B53EC1D2BFBF75F
:1050600068F941EC1A0BBF488DED10AB78441095F0
:1050700090ED000B4FF0005040EA660000EB8440DA
:105080008DED080B00F5002009909DED080B53EC09
:105090001C2B51EC100BFBF746F99DED0E1B53EC4E
:1050A000112BFBF743F941EC100B53EC102B9DED4A
:1050B000100B51EC100BFBF73CF99DED080B41EC8C
:1050C0001C0B53EC102B9DED100B51EC100BFBF750
:1050D00030F953EC1B2BFBF729F953EC1C2BFBF796
:1050E00022F953EC1D2BFBF724F941EC1C0B53EC7C
:1050F0001A2B51EC1A0BFBF71CF941EC1B0B9A48CD
:105100000621B0EE4B0AF0EE6B0A784400F018FE70
:10511000B0EE401AF0EE601AB0EE41DAF0EE61DA6D
:1051200053EC1B2B51EC1B0BFBF703F953EC1D2B22
:10513000FBF7FFF89DED100B41EC1B0B53EC1A2B0A
:1051400051EC100BFBF74EF853EC1C2BFBF7F1F86E
:1051500053EC1B2BFBF746F89DED100B41EC1B0BA2
:1051600053EC102B51EC100BFBF7E3F841EC1D0B4B
:105170009FED7FEB53EC1E2BFBF734F853EC1B2B0E
:10518000FBF730F80890CDE908519DED080B53EC82
:105190001E2B51EC100BFBF7C6F853EC1D2BFBF745
:1051A000C2F853EC1B2BFBF7C1F89DED080B41EC4B
:1051B0001D0B53EC102B9DED100B51EC100BFBF75E
:1051C000B8F841EC1B0B53EC1A2B51EC1D0BFBF701
:1051D000B0F89DED080B41EC1A0B53EC102B51EC81
:1051E0001C0BFBF7A6F853EC1A2BFAF7FBFF41EC6C
:1051F0001A0B51EC1B0B53EC1A2BFAF7F3FF0C9024
:10520000CDE90C519DED0C0B53EC1B2B51EC100B0D
:10521000FBF789F853EC1A2BFBF788F841EC1B0BD2
:105220009FED550B53EC102B9DED0C0B51EC100B1F
:10523000FBF77FF841EC1A0B9FED510B51EC1B0B68
:1052400053EC102BFBF775F841EC1B0B9FED4E0B4D
:1052500053EC102B9DED0C0B51EC100BFBF769F888
:1052600053EC1B2BFAF7BEFF41EC100B4848784477
:1052700000EBC40090ED001B51EC100B53EC112B14
:10528000FAF7B0FF41EC1B0B3846FBF72EFACDE9DD
:10529000080153EC1B2B51EC1A0BFAF7A3FF41EC5E
:1052A000100B3C48784400EBC40090ED00CB51EC6F
:1052B000100B53EC1C2BFAF795FF9DED081B53ECDC
:1052C000112BFAF78FFF0690CDE906519DED080BE3
:1052D00053EC102B9DED060B51EC100BFBF723F854
:1052E00053EC1C2BFBF71FF853EC1A2BFBF71BF8A6
:1052F00053EC1B2BFBF71AF841EC100B9DED261B12
:1053000053EC102B8DED001B00959DED260B51EC01
:10531000100BFBF70EF89DED000B41EC1A0B53EC54
:10532000102B9DED260B51EC100BFAF7FCFF9DEDB9
:10533000061B53EC112B2FE0000000604715F73FD0
:10534000FE822B654715F73F44DF5DF80BAE543EF8
:1053500000000000000040438E9803007AB60B0066
:1053600032130000281400006A1200000000000040
:105370000000000000000840000000E009C7EE3F08
:10538000FD033ADC09C7EE3FF5015B14E02F3EBE9A
:10539000F6100000B0100000FAF7CBFF53EC1A2B08
:1053A000FAF720FF9DED060B41EC1A0B53EC102B86
:1053B0009DED000B51EC100BFAF7BBFFCDE90C0192
:1053C0009DED0C0B51EC1A0B53EC102BFAF70AFF66
:1053D000CDE902010C46AA498C422FDB611A084331
:1053E00018D19DED0C0B53EC102B9DED020B51ECE5
:1053F000100BFAF798FF41EC1B0B9FEDA30B51EC40
:105400001A0B53EC102BFAF7EDFE53EC1B2BFBF7AA
:105410007DF92DD2022000F013FE00F0E1FD10EE28
:10542000901A18EE900A8DED020B8DED008B61F352
:105430001E0003909DED020BFFF7BEBB944A24F0C3
:105440000041914214D39349214408437FF4EFACC7
:105450009DED0C0B53EC102B9DED020B51EC100B42
:10546000FAF761FF53EC1A2BFBF750F97FF6DFAC2C
:1054700024F000408849894A002601EB20518242ED
:105480002BDA481C4FF4801121FA00F02044844AA2
:10549000C0F30A517A44A1F2FF3192ED000B814A28
:1054A0008DED080BCA4020EA0202C0F3130040F45D
:1054B0008010C1F1140120FA01F60992002CB8BF46
:1054C00076429DED080B53EC102B9DED0C0B51EC2F
:1054D000100BFAF728FFCDE90C019DED0C0B51ECF8
:1054E0001A0B53EC102BFAF77DFE9FED6F0B089013
:1054F000CDE9085153EC102B9DED080B51EC100B2E
:10550000FAF717FF41EC1B0B9FED690B53EC102BC7
:105510009DED080B51EC100BFAF70BFF9DED0C0BFA
:1055200041EC1C0B53EC102B9DED080B51EC100BB8
:10553000FAF7F9FE53EC1A2BFAF7F8FE9FED5E1B13
:1055400053EC112BFAF7F5FE53EC1C2BFAF74AFE3D
:1055500041EC1A0B51EC1B0B53EC1A2BFAF742FEE1
:10556000CDE902019DED020B53EC1B2B51EC100B0E
:10557000FAF7D9FE53EC1A2BFAF7D8FE9DED020B81
:1055800041EC1A0B53EC102B51EC100BFAF7D1FE37
:10559000CDE908014A489DED080B0521784400F04B
:1055A000CFFB9DED081B51EC100B53EC112BFAF7C0
:1055B000C0FE9DED021B53EC112BFAF7B7FECDE9AF
:1055C00006019DED020B53EC1A2B51EC100BFAF770
:1055D000B0FE53EC1A2BFAF705FE9FED3B0B41ECA6
:1055E0001A0B53EC102B9DED060B51EC100BFAF738
:1055F0009AFE9DED060B41EC1B0B53EC102B9DED21
:10560000020B51EC100BFAF794FE53EC1B2BFAF73C
:10561000E6FF53EC1A2BFAF786FE9DED021B53ECC6
:10562000112BFAF780FE53EC192BFAF77FFECDE928
:10563000020101EB065001150029C8BF039015DCDB
:105640009DED020B324651EC100BFBF737F8FEF7DD
:1056500035FF042808BF00F0D3FC32469DED020B55
:1056600051EC100BFBF72AF8CDE902019DED020B7E
:1056700051EC180B53EC102BFAF75BFEFFF73ABB1B
:105680000000904000000000FE822B654715973C0B
:1056900000CC904000346F3F01FCFFFF0000E03F72
:1056A00000100000FFFF0F0000000000432EE63F47
:1056B000396CA80C615C20BEEF39FAFE422EE63F41
:1056C000080E000000000000000000000000004084
:1056D00010B52F499FED2C1B2DED020B84B00598C2
:1056E00020F000408842DCBF00209DED040B32DD3D
:1056F0002849884209D1049840B94FF0010000F0D0
:105700009FFC00F05DFC06B010BD05DB9DED040BB9
:1057100000F042FC06B010BD68469DED040B00F0A1
:105720003BF810F0030011D0012818D09DED021BAA
:105730009DED000B02281AD000F04AFA51EC100B34
:1057400081F0004106B041EC100B10BD9DED021B35
:105750009DED000B012000F06FFB06B010BD9DED2C
:10576000021B9DED000B00F033FA06B010BD0120C6
:1057700000F062FB51EC100B81F0004106B041ECEF
:10578000100B10BD00000000000000000000000031
:10579000FB21E93F0000F07F2DE9F14F04462DED9C
:1057A000020B2DED088B8AB09FEDE70B80ED020B0D
:1057B000139EE74826F0004585420ADC9DED120B5A
:1057C000002084ED000B0AB0BDEC088B03B0BDE8EF
:1057D000F08FE0489FEDE0AB9FEDE1BBA84247DDD5
:1057E000E14F9FEDE39B9FEDE48B9DED120B53EC9E
:1057F0001A2B51EC100B002E1CDDFAF794FD41EC36
:10580000100BBD4208D053EC1B2B51EC100BFAF7D8
:105810008AFDC4E900010BE053EC192B51EC100B8D
:10582000FAF781FD53EC182BFAF77DFDC4E900016E
:105830000120C8E7FAF7D6FC41EC100BBD4208D0B6
:1058400053EC1B2B51EC100BFAF7CCFCC4E9000114
:105850000BE053EC192B51EC100BFAF7C3FC53EC93
:10586000182BFAF7BFFCC4E900014FF0FF30AAE79C
:10587000C348A84279DB9DED120B51EC100B00F0F0
:1058800059FC41EC180B9FEDC00B53EC102BFAF7B1
:1058900050FD9FEDBF1B53EC112BFAF7A3FCFAF759
:1058A000CDFF0746FAF721FF41EC190B53EC1A2BF9
:1058B000FAF73FFD53EC182BFAF738FD41EC180BC3
:1058C00053EC1B2B51EC190BFAF733FDDFF8C8A290
:1058D00041EC100B4FEA15580125FA4453EC102BFC
:1058E00051EC180BFAF71FFD032DC4E900013DD060
:1058F000C1F30A5005EB4511A8EB000011398142B4
:1059000034DA0AEB051BB0EE48AA9BED000BF0EE73
:1059100068AA53EC102B51EC190BFAF70AFD41EC75
:105920001B0B51EC1A0B53EC1B2BFAF7FCFC41EC54
:10593000180B51EC1A0B53EC182BFAF7F4FC53EC40
:105940001B2BFAF7F0FC9BED020B41EC1A0B53EC0E
:10595000102B51EC190BFAF7ECFC53EC1A2BFAF75D
:10596000E2FC41EC100B6D1CB8E70EE0002EA8BF66
:105970003846BFF628AF94ED000B51EC100B81F0C8
:105980000041C4E9000178421DE7C6F3130040F46A
:10599000801EC6F30A50A0F2F530471100F01F0533
:1059A000C5F12000DDF848B008900020069007906F
:1059B0000520EC467949002D07EB0002794408BF29
:1059C00051F8221009D051F8223001EB8201AB408E
:1059D0004A68089922FA01F11943A1FB0E26A1FB9E
:1059E0000B131A449A4234BF0123002303EB060829
:1059F0000CEB8003D3E901A60E448E4234BF012193
:105A0000002192448A4411B1924502D903E09245A3
:105A100001D2012100E00021C3E901A641444CF874
:105A20002010011EA0F10100C4DC029800F100501A
:105A3000850F0298DDE903678000DDF81480FAF72E
:105A400054FE41EC1A0B3046FAF7EBFE9FED541B67
:105A500053EC112BFAF76DFC41EC1B0B3846FAF7AF
:105A6000E0FE9FED511B53EC112BFAF762FC41EC69
:105A7000180B4046FAF7D5FE9FED4D1B53EC112B4A
:105A8000FAF757FC41EC190B51EC180B53EC192B9E
:105A9000FAF7A8FB53EC1B2BFAF7A4FB53EC1A2BD9
:105AA000FAF7A0FBCDE90801002008909DED080B56
:105AB00053EC1A2B51EC100BFAF735FC53EC1B2B63
:105AC000FAF731FC53EC182BFAF72DFC53EC192B99
:105AD000FAF72CFC9FED381B53EC112BFAF729FC3D
